{
  "abi": [
    {
      "inputs": [
        {
          "internalType": "address",
          "name": "_allo",
          "type": "address"
        },
        {
          "internalType": "string",
          "name": "_name",
          "type": "string"
        }
      ],
      "stateMutability": "nonpayable",
      "type": "constructor"
    },
    {
      "anonymous": false,
      "inputs": [
        {
          "indexed": true,
          "internalType": "address",
          "name": "recipientId",
          "type": "address"
        },
        {
          "indexed": false,
          "internalType": "uint256",
          "name": "amount",
          "type": "uint256"
        },
        {
          "indexed": false,
          "internalType": "address",
          "name": "token",
          "type": "address"
        },
        {
          "indexed": false,
          "internalType": "address",
          "name": "sender",
          "type": "address"
        }
      ],
      "name": "Allocated",
      "type": "event"
    },
    {
      "anonymous": false,
      "inputs": [
        {
          "indexed": true,
          "internalType": "address",
          "name": "recipientId",
          "type": "address"
        },
        {
          "indexed": false,
          "internalType": "address",
          "name": "recipientAddress",
          "type": "address"
        },
        {
          "indexed": false,
          "internalType": "uint256",
          "name": "amount",
          "type": "uint256"
        },
        {
          "indexed": false,
          "internalType": "address",
          "name": "sender",
          "type": "address"
        }
      ],
      "name": "Distributed",
      "type": "event"
    },
    {
      "anonymous": false,
      "inputs": [
        {
          "indexed": false,
          "internalType": "address",
          "name": "allo",
          "type": "address"
        },
        {
          "indexed": false,
          "internalType": "bytes32",
          "name": "profileId",
          "type": "bytes32"
        },
        {
          "indexed": false,
          "internalType": "uint256",
          "name": "poolId",
          "type": "uint256"
        },
        {
          "indexed": false,
          "internalType": "bytes",
          "name": "data",
          "type": "bytes"
        }
      ],
      "name": "Initialized",
      "type": "event"
    },
    {
      "anonymous": false,
      "inputs": [
        {
          "indexed": false,
          "internalType": "bool",
          "name": "active",
          "type": "bool"
        }
      ],
      "name": "PoolActive",
      "type": "event"
    },
    {
      "anonymous": false,
      "inputs": [
        {
          "indexed": true,
          "internalType": "address",
          "name": "recipientId",
          "type": "address"
        },
        {
          "indexed": false,
          "internalType": "bytes",
          "name": "data",
          "type": "bytes"
        },
        {
          "indexed": false,
          "internalType": "address",
          "name": "sender",
          "type": "address"
        }
      ],
      "name": "Registered",
      "type": "event"
    },
    {
      "inputs": [
        {
          "internalType": "bytes",
          "name": "",
          "type": "bytes"
        },
        {
          "internalType": "address",
          "name": "",
          "type": "address"
        }
      ],
      "name": "allocate",
      "outputs": [],
      "stateMutability": "payable",
      "type": "function"
    },
    {
      "inputs": [
        {
          "internalType": "address[]",
          "name": "",
          "type": "address[]"
        },
        {
          "internalType": "bytes",
          "name": "",
          "type": "bytes"
        },
        {
          "internalType": "address",
          "name": "",
          "type": "address"
        }
      ],
      "name": "distribute",
      "outputs": [],
      "stateMutability": "nonpayable",
      "type": "function"
    },
    {
      "inputs": [],
      "name": "getAllo",
      "outputs": [
        {
          "internalType": "contract IAllo",
          "name": "",
          "type": "address"
        }
      ],
      "stateMutability": "view",
      "type": "function"
    },
    {
      "inputs": [
        {
          "internalType": "address[]",
          "name": "_recipientIds",
          "type": "address[]"
        },
        {
          "internalType": "bytes[]",
          "name": "",
          "type": "bytes[]"
        }
      ],
      "name": "getPayouts",
      "outputs": [
        {
          "components": [
            {
              "internalType": "address",
              "name": "recipientAddress",
              "type": "address"
            },
            {
              "internalType": "uint256",
              "name": "amount",
              "type": "uint256"
            }
          ],
          "internalType": "struct IStrategy.PayoutSummary[]",
          "name": "",
          "type": "tuple[]"
        }
      ],
      "stateMutability": "pure",
      "type": "function"
    },
    {
      "inputs": [],
      "name": "getPoolAmount",
      "outputs": [
        {
          "internalType": "uint256",
          "name": "",
          "type": "uint256"
        }
      ],
      "stateMutability": "view",
      "type": "function"
    },
    {
      "inputs": [],
      "name": "getPoolId",
      "outputs": [
        {
          "internalType": "uint256",
          "name": "",
          "type": "uint256"
        }
      ],
      "stateMutability": "view",
      "type": "function"
    },
    {
      "inputs": [
        {
          "internalType": "address",
          "name": "_recipientId",
          "type": "address"
        }
      ],
      "name": "getRecipientStatus",
      "outputs": [
        {
          "internalType": "enum IStrategy.Status",
          "name": "",
          "type": "uint8"
        }
      ],
      "stateMutability": "view",
      "type": "function"
    },
    {
      "inputs": [],
      "name": "getStrategyId",
      "outputs": [
        {
          "internalType": "bytes32",
          "name": "",
          "type": "bytes32"
        }
      ],
      "stateMutability": "view",
      "type": "function"
    },
    {
      "inputs": [
        {
          "internalType": "uint256",
          "name": "_amount",
          "type": "uint256"
        }
      ],
      "name": "increasePoolAmount",
      "outputs": [],
      "stateMutability": "nonpayable",
      "type": "function"
    },
    {
      "inputs": [
        {
          "internalType": "uint256",
          "name": "",
          "type": "uint256"
        },
        {
          "internalType": "bytes",
          "name": "",
          "type": "bytes"
        }
      ],
      "name": "initialize",
      "outputs": [],
      "stateMutability": "nonpayable",
      "type": "function"
    },
    {
      "inputs": [],
      "name": "isPoolActive",
      "outputs": [
        {
          "internalType": "bool",
          "name": "",
          "type": "bool"
        }
      ],
      "stateMutability": "view",
      "type": "function"
    },
    {
      "inputs": [
        {
          "internalType": "address",
          "name": "",
          "type": "address"
        }
      ],
      "name": "isValidAllocator",
      "outputs": [
        {
          "internalType": "bool",
          "name": "",
          "type": "bool"
        }
      ],
      "stateMutability": "pure",
      "type": "function"
    },
    {
      "inputs": [
        {
          "internalType": "bytes",
          "name": "",
          "type": "bytes"
        },
        {
          "internalType": "address",
          "name": "",
          "type": "address"
        }
      ],
      "name": "registerRecipient",
      "outputs": [
        {
          "internalType": "address",
          "name": "",
          "type": "address"
        }
      ],
      "stateMutability": "payable",
      "type": "function"
    },
    {
      "inputs": [
        {
          "internalType": "address",
          "name": "_allo_",
          "type": "address"
        }
      ],
      "name": "setAllo",
      "outputs": [],
      "stateMutability": "nonpayable",
      "type": "function"
    },
    {
      "inputs": [
        {
          "internalType": "uint256",
          "name": "_poolId_",
          "type": "uint256"
        }
      ],
      "name": "setPoolId",
      "outputs": [],
      "stateMutability": "nonpayable",
      "type": "function"
    }
  ],
  "bytecode": {
    "object": "0x608060405234801561001057600080fd5b50604051610a40380380610a4083398101604081905261002f916100b8565b600080546001600160a01b0319166001600160a01b03841617905560405161005b908290602001610186565b6040516020818303038152906040528051906020012060028190555050506101b9565b634e487b7160e01b600052604160045260246000fd5b60005b838110156100af578181015183820152602001610097565b50506000910152565b600080604083850312156100cb57600080fd5b82516001600160a01b03811681146100e257600080fd5b60208401519092506001600160401b03808211156100ff57600080fd5b818501915085601f83011261011357600080fd5b8151818111156101255761012561007e565b604051601f8201601f19908116603f0116810190838211818310171561014d5761014d61007e565b8160405282815288602084870101111561016657600080fd5b610177836020830160208801610094565b80955050505050509250929050565b60208152600082518060208401526101a5816040850160208701610094565b601f01601f19169190910160400192915050565b610878806101c86000396000f3fe6080604052600436106100e85760003560e01c80634d31d0871161008a578063eb11af9311610059578063eb11af9314610290578063edd146cc146102d6578063ef2920fc146102f5578063f5b0dfb71461030357600080fd5b80634d31d087146101fa578063ac78012c1461022b578063b2b878d01461024b578063df868ed31461027857600080fd5b806338fff2d0116100c657806338fff2d01461015c5780633c0923301461017b57806342fda9c7146101d05780634ab4ba42146101e557600080fd5b80630a6f0ee9146100ed57806315cc481e1461010f5780632bbe0cae14610146575b600080fd5b3480156100f957600080fd5b5061010d61010836600461056c565b505050565b005b34801561011b57600080fd5b506000546001600160a01b03165b6040516001600160a01b0390911681526020015b60405180910390f35b6101296101543660046105e0565b600092915050565b34801561016857600080fd5b506001545b60405190815260200161013d565b34801561018757600080fd5b5061010d61019636600461062e565b600080547fffffffffffffffffffffffff0000000000000000000000000000000000000000166001600160a01b0392909216919091179055565b3480156101dc57600080fd5b5060025461016d565b3480156101f157600080fd5b5060045461016d565b34801561020657600080fd5b5061021b61021536600461062e565b50600190565b604051901515815260200161013d565b34801561023757600080fd5b5061010d610246366004610650565b600155565b34801561025757600080fd5b5061026b610266366004610669565b610321565b60405161013d919061073e565b34801561028457600080fd5b5060035460ff1661021b565b34801561029c57600080fd5b506102c96102ab36600461062e565b6001600160a01b031660009081526005602052604090205460ff1690565b60405161013d9190610796565b3480156102e257600080fd5b5061010d6102f13660046107be565b5050565b61010d6102f13660046105e0565b34801561030f57600080fd5b5061010d61031e366004610650565b50565b60606000835167ffffffffffffffff81111561033f5761033f610403565b60405190808252806020026020018201604052801561038457816020015b604080518082019091526000808252602082015281526020019060019003908161035d5790505b50905060005b84518110156103fb5760405180604001604052808683815181106103b0576103b0610805565b60200260200101516001600160a01b0316815260200160008152508282815181106103dd576103dd610805565b602002602001018190525080806103f39061081b565b91505061038a565b509392505050565b634e487b7160e01b600052604160045260246000fd5b604051601f8201601f1916810167ffffffffffffffff8111828210171561044257610442610403565b604052919050565b600067ffffffffffffffff82111561046457610464610403565b5060051b60200190565b80356001600160a01b038116811461048557600080fd5b919050565b600082601f83011261049b57600080fd5b813560206104b06104ab8361044a565b610419565b82815260059290921b840181019181810190868411156104cf57600080fd5b8286015b848110156104f1576104e48161046e565b83529183019183016104d3565b509695505050505050565b600082601f83011261050d57600080fd5b813567ffffffffffffffff81111561052757610527610403565b61053a601f8201601f1916602001610419565b81815284602083860101111561054f57600080fd5b816020850160208301376000918101602001919091529392505050565b60008060006060848603121561058157600080fd5b833567ffffffffffffffff8082111561059957600080fd5b6105a58783880161048a565b945060208601359150808211156105bb57600080fd5b506105c8868287016104fc565b9250506105d76040850161046e565b90509250925092565b600080604083850312156105f357600080fd5b823567ffffffffffffffff81111561060a57600080fd5b610616858286016104fc565b9250506106256020840161046e565b90509250929050565b60006020828403121561064057600080fd5b6106498261046e565b9392505050565b60006020828403121561066257600080fd5b5035919050565b6000806040838503121561067c57600080fd5b823567ffffffffffffffff8082111561069457600080fd5b6106a08683870161048a565b93506020915081850135818111156106b757600080fd5b8501601f810187136106c857600080fd5b80356106d66104ab8261044a565b81815260059190911b820184019084810190898311156106f557600080fd5b8584015b8381101561072d578035868111156107115760008081fd5b61071f8c89838901016104fc565b8452509186019186016106f9565b508096505050505050509250929050565b602080825282518282018190526000919060409081850190868401855b8281101561078957815180516001600160a01b0316855286015186850152928401929085019060010161075b565b5091979650505050505050565b60208101600783106107b857634e487b7160e01b600052602160045260246000fd5b91905290565b600080604083850312156107d157600080fd5b82359150602083013567ffffffffffffffff8111156107ef57600080fd5b6107fb858286016104fc565b9150509250929050565b634e487b7160e01b600052603260045260246000fd5b60006001820161083b57634e487b7160e01b600052601160045260246000fd5b506001019056fea2646970667358221220913713fb4585b5c03c876177481921e090ea195301d7a1f2fad12dd27963579964736f6c63430008130033",
    "linkReferences": {}
  },
  "methodIdentifiers": {
    "allocate(bytes,address)": "ef2920fc",
    "distribute(address[],bytes,address)": "0a6f0ee9",
    "getAllo()": "15cc481e",
    "getPayouts(address[],bytes[])": "b2b878d0",
    "getPoolAmount()": "4ab4ba42",
    "getPoolId()": "38fff2d0",
    "getRecipientStatus(address)": "eb11af93",
    "getStrategyId()": "42fda9c7",
    "increasePoolAmount(uint256)": "f5b0dfb7",
    "initialize(uint256,bytes)": "edd146cc",
    "isPoolActive()": "df868ed3",
    "isValidAllocator(address)": "4d31d087",
    "registerRecipient(bytes,address)": "2bbe0cae",
    "setAllo(address)": "3c092330",
    "setPoolId(uint256)": "ac78012c"
  },
  "storageLayout": {
    "storage": [
      {
        "astId": 123953,
        "contract": "test/utils/TestStrategy.sol:TestStrategy",
        "label": "allo",
        "offset": 0,
        "slot": "0",
        "type": "t_contract(IAllo)2433"
      },
      {
        "astId": 123955,
        "contract": "test/utils/TestStrategy.sol:TestStrategy",
        "label": "poolId",
        "offset": 0,
        "slot": "1",
        "type": "t_uint256"
      },
      {
        "astId": 123957,
        "contract": "test/utils/TestStrategy.sol:TestStrategy",
        "label": "strategyId",
        "offset": 0,
        "slot": "2",
        "type": "t_bytes32"
      },
      {
        "astId": 123959,
        "contract": "test/utils/TestStrategy.sol:TestStrategy",
        "label": "poolActive",
        "offset": 0,
        "slot": "3",
        "type": "t_bool"
      },
      {
        "astId": 123961,
        "contract": "test/utils/TestStrategy.sol:TestStrategy",
        "label": "poolAmount",
        "offset": 0,
        "slot": "4",
        "type": "t_uint256"
      },
      {
        "astId": 123966,
        "contract": "test/utils/TestStrategy.sol:TestStrategy",
        "label": "recipientStatus",
        "offset": 0,
        "slot": "5",
        "type": "t_mapping(t_address,t_enum(Status)2638)"
      }
    ],
    "types": {
      "t_address": {
        "encoding": "inplace",
        "label": "address",
        "numberOfBytes": "20"
      },
      "t_bool": {
        "encoding": "inplace",
        "label": "bool",
        "numberOfBytes": "1"
      },
      "t_bytes32": {
        "encoding": "inplace",
        "label": "bytes32",
        "numberOfBytes": "32"
      },
      "t_contract(IAllo)2433": {
        "encoding": "inplace",
        "label": "contract IAllo",
        "numberOfBytes": "20"
      },
      "t_enum(Status)2638": {
        "encoding": "inplace",
        "label": "enum IStrategy.Status",
        "numberOfBytes": "1"
      },
      "t_mapping(t_address,t_enum(Status)2638)": {
        "encoding": "mapping",
        "key": "t_address",
        "label": "mapping(address => enum IStrategy.Status)",
        "numberOfBytes": "32",
        "value": "t_enum(Status)2638"
      },
      "t_uint256": {
        "encoding": "inplace",
        "label": "uint256",
        "numberOfBytes": "32"
      }
    }
  },
  "id": 180
}