{"abi":[{"type":"constructor","inputs":[{"name":"tokens_","type":"address[8]","internalType":"address[8]"}],"stateMutability":"nonpayable"},{"type":"receive","stateMutability":"payable"},{"type":"function","name":"acceptImplementation","inputs":[],"outputs":[],"stateMutability":"nonpayable"},{"type":"function","name":"acceptOwnership","inputs":[],"outputs":[],"stateMutability":"nonpayable"},{"type":"function","name":"add","inputs":[{"name":"_allocPoint","type":"uint256","internalType":"uint256"},{"name":"_lpToken","type":"address","internalType":"address"},{"name":"_description","type":"string","internalType":"string"},{"name":"_withUpdate","type":"bool","internalType":"bool"}],"outputs":[{"name":"","type":"uint256","internalType":"uint256"}],"stateMutability":"nonpayable"},{"type":"function","name":"addBlocks","inputs":[{"name":"count","type":"uint256","internalType":"uint256"}],"outputs":[],"stateMutability":"nonpayable"},{"type":"function","name":"becomeImplementation","inputs":[{"name":"proxy","type":"address","internalType":"contract Upgradeable2Step"}],"outputs":[],"stateMutability":"nonpayable"},{"type":"function","name":"boosterMultiplier","inputs":[],"outputs":[{"name":"","type":"uint256","internalType":"uint256"}],"stateMutability":"view"},{"type":"function","name":"bridge","inputs":[],"outputs":[{"name":"","type":"address","internalType":"contract BridgeLike"}],"stateMutability":"view"},{"type":"function","name":"bridgePool","inputs":[{"name":"_pid","type":"uint256","internalType":"uint256"}],"outputs":[],"stateMutability":"nonpayable"},{"type":"function","name":"dai","inputs":[],"outputs":[{"name":"","type":"address","internalType":"address"}],"stateMutability":"view"},{"type":"function","name":"deposit","inputs":[{"name":"_pid","type":"uint256","internalType":"uint256"},{"name":"_amount","type":"uint256","internalType":"uint256"},{"name":"_boostAmount","type":"uint256","internalType":"uint256"}],"outputs":[],"stateMutability":"nonpayable"},{"type":"function","name":"depositDai","inputs":[{"name":"_amount","type":"uint256","internalType":"uint256"},{"name":"_boostAmount","type":"uint256","internalType":"uint256"}],"outputs":[],"stateMutability":"nonpayable"},{"type":"function","name":"depositEth","inputs":[{"name":"_boostAmount","type":"uint256","internalType":"uint256"},{"name":"_predefinedPool","type":"uint8","internalType":"enum SophonFarmingState.PredefinedPool"}],"outputs":[],"stateMutability":"payable"},{"type":"function","name":"depositStEth","inputs":[{"name":"_amount","type":"uint256","internalType":"uint256"},{"name":"_boostAmount","type":"uint256","internalType":"uint256"}],"outputs":[],"stateMutability":"nonpayable"},{"type":"function","name":"depositWeth","inputs":[{"name":"_amount","type":"uint256","internalType":"uint256"},{"name":"_boostAmount","type":"uint256","internalType":"uint256"},{"name":"_predefinedPool","type":"uint8","internalType":"enum SophonFarmingState.PredefinedPool"}],"outputs":[],"stateMutability":"nonpayable"},{"type":"function","name":"depositeEth","inputs":[{"name":"_amount","type":"uint256","internalType":"uint256"},{"name":"_boostAmount","type":"uint256","internalType":"uint256"}],"outputs":[],"stateMutability":"nonpayable"},{"type":"function","name":"eETH","inputs":[],"outputs":[{"name":"","type":"address","internalType":"address"}],"stateMutability":"view"},{"type":"function","name":"eETHLiquidityPool","inputs":[],"outputs":[{"name":"","type":"address","internalType":"address"}],"stateMutability":"view"},{"type":"function","name":"endBlock","inputs":[],"outputs":[{"name":"","type":"uint256","internalType":"uint256"}],"stateMutability":"view"},{"type":"function","name":"endBlockForWithdrawals","inputs":[],"outputs":[{"name":"","type":"uint256","internalType":"uint256"}],"stateMutability":"view"},{"type":"function","name":"getBlockNumber","inputs":[],"outputs":[{"name":"","type":"uint256","internalType":"uint256"}],"stateMutability":"view"},{"type":"function","name":"getMaxAdditionalBoost","inputs":[{"name":"_user","type":"address","internalType":"address"},{"name":"_pid","type":"uint256","internalType":"uint256"}],"outputs":[{"name":"","type":"uint256","internalType":"uint256"}],"stateMutability":"view"},{"type":"function","name":"getOptimizedUserInfo","inputs":[{"name":"_users","type":"address[]","internalType":"address[]"}],"outputs":[{"name":"userInfos","type":"uint256[4][][]","internalType":"uint256[4][][]"}],"stateMutability":"view"},{"type":"function","name":"getPendingPoints","inputs":[{"name":"_users","type":"address[]","internalType":"address[]"}],"outputs":[{"name":"pendings","type":"uint256[][]","internalType":"uint256[][]"}],"stateMutability":"view"},{"type":"function","name":"getPoolInfo","inputs":[],"outputs":[{"name":"poolInfos","type":"tuple[]","internalType":"struct SophonFarmingState.PoolInfo[]","components":[{"name":"lpToken","type":"address","internalType":"contract IERC20"},{"name":"l2Farm","type":"address","internalType":"address"},{"name":"amount","type":"uint256","internalType":"uint256"},{"name":"boostAmount","type":"uint256","internalType":"uint256"},{"name":"depositAmount","type":"uint256","internalType":"uint256"},{"name":"allocPoint","type":"uint256","internalType":"uint256"},{"name":"lastRewardBlock","type":"uint256","internalType":"uint256"},{"name":"accPointsPerShare","type":"uint256","internalType":"uint256"},{"name":"description","type":"string","internalType":"string"}]}],"stateMutability":"view"},{"type":"function","name":"heldProceeds","inputs":[{"name":"","type":"uint256","internalType":"uint256"}],"outputs":[{"name":"","type":"uint256","internalType":"uint256"}],"stateMutability":"view"},{"type":"function","name":"implementation","inputs":[],"outputs":[{"name":"","type":"address","internalType":"address"}],"stateMutability":"view"},{"type":"function","name":"increaseBoost","inputs":[{"name":"_pid","type":"uint256","internalType":"uint256"},{"name":"_boostAmount","type":"uint256","internalType":"uint256"}],"outputs":[],"stateMutability":"nonpayable"},{"type":"function","name":"initialize","inputs":[{"name":"ethAllocPoint_","type":"uint256","internalType":"uint256"},{"name":"sDAIAllocPoint_","type":"uint256","internalType":"uint256"},{"name":"_pointsPerBlock","type":"uint256","internalType":"uint256"},{"name":"_startBlock","type":"uint256","internalType":"uint256"},{"name":"_boosterMultiplier","type":"uint256","internalType":"uint256"}],"outputs":[],"stateMutability":"nonpayable"},{"type":"function","name":"isBridged","inputs":[{"name":"","type":"uint256","internalType":"uint256"}],"outputs":[{"name":"","type":"bool","internalType":"bool"}],"stateMutability":"view"},{"type":"function","name":"isFarmingEnded","inputs":[],"outputs":[{"name":"","type":"bool","internalType":"bool"}],"stateMutability":"view"},{"type":"function","name":"isWithdrawPeriodEnded","inputs":[],"outputs":[{"name":"","type":"bool","internalType":"bool"}],"stateMutability":"view"},{"type":"function","name":"massUpdatePools","inputs":[],"outputs":[],"stateMutability":"nonpayable"},{"type":"function","name":"owner","inputs":[],"outputs":[{"name":"","type":"address","internalType":"address"}],"stateMutability":"view"},{"type":"function","name":"pendingImplementation","inputs":[],"outputs":[{"name":"","type":"address","internalType":"address"}],"stateMutability":"view"},{"type":"function","name":"pendingOwner","inputs":[],"outputs":[{"name":"","type":"address","internalType":"address"}],"stateMutability":"view"},{"type":"function","name":"pendingPoints","inputs":[{"name":"_pid","type":"uint256","internalType":"uint256"},{"name":"_user","type":"address","internalType":"address"}],"outputs":[{"name":"","type":"uint256","internalType":"uint256"}],"stateMutability":"view"},{"type":"function","name":"pointsPerBlock","inputs":[],"outputs":[{"name":"","type":"uint256","internalType":"uint256"}],"stateMutability":"view"},{"type":"function","name":"poolExists","inputs":[{"name":"","type":"address","internalType":"address"}],"outputs":[{"name":"","type":"bool","internalType":"bool"}],"stateMutability":"view"},{"type":"function","name":"poolInfo","inputs":[{"name":"","type":"uint256","internalType":"uint256"}],"outputs":[{"name":"lpToken","type":"address","internalType":"contract IERC20"},{"name":"l2Farm","type":"address","internalType":"address"},{"name":"amount","type":"uint256","internalType":"uint256"},{"name":"boostAmount","type":"uint256","internalType":"uint256"},{"name":"depositAmount","type":"uint256","internalType":"uint256"},{"name":"allocPoint","type":"uint256","internalType":"uint256"},{"name":"lastRewardBlock","type":"uint256","internalType":"uint256"},{"name":"accPointsPerShare","type":"uint256","internalType":"uint256"},{"name":"description","type":"string","internalType":"string"}],"stateMutability":"view"},{"type":"function","name":"poolLength","inputs":[],"outputs":[{"name":"","type":"uint256","internalType":"uint256"}],"stateMutability":"view"},{"type":"function","name":"renounceOwnership","inputs":[],"outputs":[],"stateMutability":"nonpayable"},{"type":"function","name":"replaceImplementation","inputs":[{"name":"impl_","type":"address","internalType":"address"}],"outputs":[],"stateMutability":"nonpayable"},{"type":"function","name":"revertFailedBridge","inputs":[{"name":"_pid","type":"uint256","internalType":"uint256"}],"outputs":[],"stateMutability":"nonpayable"},{"type":"function","name":"sDAI","inputs":[],"outputs":[{"name":"","type":"address","internalType":"address"}],"stateMutability":"view"},{"type":"function","name":"set","inputs":[{"name":"_pid","type":"uint256","internalType":"uint256"},{"name":"_allocPoint","type":"uint256","internalType":"uint256"},{"name":"_withUpdate","type":"bool","internalType":"bool"}],"outputs":[],"stateMutability":"nonpayable"},{"type":"function","name":"setBoosterMultiplier","inputs":[{"name":"_boosterMultiplier","type":"uint256","internalType":"uint256"}],"outputs":[],"stateMutability":"nonpayable"},{"type":"function","name":"setBridge","inputs":[{"name":"_bridge","type":"address","internalType":"contract BridgeLike"}],"outputs":[],"stateMutability":"nonpayable"},{"type":"function","name":"setEndBlock","inputs":[{"name":"_endBlock","type":"uint256","internalType":"uint256"},{"name":"_withdrawalBlocks","type":"uint256","internalType":"uint256"}],"outputs":[],"stateMutability":"nonpayable"},{"type":"function","name":"setL2FarmForPool","inputs":[{"name":"_pid","type":"uint256","internalType":"uint256"},{"name":"_l2Farm","type":"address","internalType":"address"}],"outputs":[],"stateMutability":"nonpayable"},{"type":"function","name":"setPointsPerBlock","inputs":[{"name":"_pointsPerBlock","type":"uint256","internalType":"uint256"}],"outputs":[],"stateMutability":"nonpayable"},{"type":"function","name":"setStartBlock","inputs":[{"name":"_startBlock","type":"uint256","internalType":"uint256"}],"outputs":[],"stateMutability":"nonpayable"},{"type":"function","name":"stETH","inputs":[],"outputs":[{"name":"","type":"address","internalType":"address"}],"stateMutability":"view"},{"type":"function","name":"startBlock","inputs":[],"outputs":[{"name":"","type":"uint256","internalType":"uint256"}],"stateMutability":"view"},{"type":"function","name":"totalAllocPoint","inputs":[],"outputs":[{"name":"","type":"uint256","internalType":"uint256"}],"stateMutability":"view"},{"type":"function","name":"transferOwnership","inputs":[{"name":"newOwner","type":"address","internalType":"address"}],"outputs":[],"stateMutability":"nonpayable"},{"type":"function","name":"typeToId","inputs":[{"name":"","type":"uint8","internalType":"enum SophonFarmingState.PredefinedPool"}],"outputs":[{"name":"","type":"uint256","internalType":"uint256"}],"stateMutability":"view"},{"type":"function","name":"updatePool","inputs":[{"name":"_pid","type":"uint256","internalType":"uint256"}],"outputs":[],"stateMutability":"nonpayable"},{"type":"function","name":"userInfo","inputs":[{"name":"","type":"uint256","internalType":"uint256"},{"name":"","type":"address","internalType":"address"}],"outputs":[{"name":"amount","type":"uint256","internalType":"uint256"},{"name":"boostAmount","type":"uint256","internalType":"uint256"},{"name":"depositAmount","type":"uint256","internalType":"uint256"},{"name":"rewardSettled","type":"uint256","internalType":"uint256"},{"name":"rewardDebt","type":"uint256","internalType":"uint256"}],"stateMutability":"view"},{"type":"function","name":"weETH","inputs":[],"outputs":[{"name":"","type":"address","internalType":"address"}],"stateMutability":"view"},{"type":"function","name":"weth","inputs":[],"outputs":[{"name":"","type":"address","internalType":"address"}],"stateMutability":"view"},{"type":"function","name":"withdraw","inputs":[{"name":"_pid","type":"uint256","internalType":"uint256"},{"name":"_withdrawAmount","type":"uint256","internalType":"uint256"}],"outputs":[],"stateMutability":"nonpayable"},{"type":"function","name":"withdrawProceeds","inputs":[{"name":"_pid","type":"uint256","internalType":"uint256"}],"outputs":[],"stateMutability":"nonpayable"},{"type":"function","name":"wstETH","inputs":[],"outputs":[{"name":"","type":"address","internalType":"address"}],"stateMutability":"view"},{"type":"event","name":"Add","inputs":[{"name":"lpToken","type":"address","indexed":true,"internalType":"address"},{"name":"pid","type":"uint256","indexed":true,"internalType":"uint256"},{"name":"allocPoint","type":"uint256","indexed":false,"internalType":"uint256"}],"anonymous":false},{"type":"event","name":"Bridge","inputs":[{"name":"user","type":"address","indexed":true,"internalType":"address"},{"name":"pid","type":"uint256","indexed":true,"internalType":"uint256"},{"name":"amount","type":"uint256","indexed":false,"internalType":"uint256"}],"anonymous":false},{"type":"event","name":"Deposit","inputs":[{"name":"user","type":"address","indexed":true,"internalType":"address"},{"name":"pid","type":"uint256","indexed":true,"internalType":"uint256"},{"name":"depositAmount","type":"uint256","indexed":false,"internalType":"uint256"},{"name":"boostAmount","type":"uint256","indexed":false,"internalType":"uint256"}],"anonymous":false},{"type":"event","name":"IncreaseBoost","inputs":[{"name":"user","type":"address","indexed":true,"internalType":"address"},{"name":"pid","type":"uint256","indexed":true,"internalType":"uint256"},{"name":"boostAmount","type":"uint256","indexed":false,"internalType":"uint256"}],"anonymous":false},{"type":"event","name":"OwnershipTransferStarted","inputs":[{"name":"previousOwner","type":"address","indexed":true,"internalType":"address"},{"name":"newOwner","type":"address","indexed":true,"internalType":"address"}],"anonymous":false},{"type":"event","name":"OwnershipTransferred","inputs":[{"name":"previousOwner","type":"address","indexed":true,"internalType":"address"},{"name":"newOwner","type":"address","indexed":true,"internalType":"address"}],"anonymous":false},{"type":"event","name":"ReplaceImplementation","inputs":[{"name":"previousImplementation","type":"address","indexed":true,"internalType":"address"},{"name":"newImplementation","type":"address","indexed":true,"internalType":"address"}],"anonymous":false},{"type":"event","name":"ReplaceImplementationStarted","inputs":[{"name":"previousImplementation","type":"address","indexed":true,"internalType":"address"},{"name":"newImplementation","type":"address","indexed":true,"internalType":"address"}],"anonymous":false},{"type":"event","name":"Set","inputs":[{"name":"lpToken","type":"address","indexed":true,"internalType":"address"},{"name":"pid","type":"uint256","indexed":true,"internalType":"uint256"},{"name":"allocPoint","type":"uint256","indexed":false,"internalType":"uint256"}],"anonymous":false},{"type":"event","name":"Withdraw","inputs":[{"name":"user","type":"address","indexed":true,"internalType":"address"},{"name":"pid","type":"uint256","indexed":true,"internalType":"uint256"},{"name":"amount","type":"uint256","indexed":false,"internalType":"uint256"}],"anonymous":false},{"type":"event","name":"WithdrawProceeds","inputs":[{"name":"pid","type":"uint256","indexed":true,"internalType":"uint256"},{"name":"proceeds","type":"uint256","indexed":false,"internalType":"uint256"}],"anonymous":false},{"type":"error","name":"AddressEmptyCode","inputs":[{"name":"target","type":"address","internalType":"address"}]},{"type":"error","name":"AddressInsufficientBalance","inputs":[{"name":"account","type":"address","internalType":"address"}]},{"type":"error","name":"AlreadyInitialized","inputs":[]},{"type":"error","name":"BoostIsZero","inputs":[]},{"type":"error","name":"BoostTooHigh","inputs":[{"name":"maxAllowed","type":"uint256","internalType":"uint256"}]},{"type":"error","name":"BridgeInvalid","inputs":[]},{"type":"error","name":"FailedInnerCall","inputs":[]},{"type":"error","name":"FarmingIsEnded","inputs":[]},{"type":"error","name":"FarmingIsStarted","inputs":[]},{"type":"error","name":"InvalidBooster","inputs":[]},{"type":"error","name":"InvalidDeposit","inputs":[]},{"type":"error","name":"InvalidEndBlock","inputs":[]},{"type":"error","name":"InvalidStartBlock","inputs":[]},{"type":"error","name":"NoEthSent","inputs":[]},{"type":"error","name":"NotFound","inputs":[{"name":"lpToken","type":"address","internalType":"address"}]},{"type":"error","name":"NothingInPool","inputs":[]},{"type":"error","name":"OwnableInvalidOwner","inputs":[{"name":"owner","type":"address","internalType":"address"}]},{"type":"error","name":"OwnableUnauthorizedAccount","inputs":[{"name":"account","type":"address","internalType":"address"}]},{"type":"error","name":"PoolDoesNotExist","inputs":[]},{"type":"error","name":"PoolExists","inputs":[]},{"type":"error","name":"SafeERC20FailedOperation","inputs":[{"name":"token","type":"address","internalType":"address"}]},{"type":"error","name":"Unauthorized","inputs":[]},{"type":"error","name":"WithdrawIsZero","inputs":[]},{"type":"error","name":"WithdrawNotAllowed","inputs":[]},{"type":"error","name":"WithdrawTooHigh","inputs":[{"name":"maxAllowed","type":"uint256","internalType":"uint256"}]}],"bytecode":{"object":"0x610180604052348015610010575f80fd5b506040516142eb3803806142eb83398101604081905261002f91610147565b80338061005557604051631e4fbdf760e01b81525f600482015260240160405180910390fd5b61005e816100c1565b5080516001600160a01b0390811660809081526020830151821660a09081526040840151831660c09081526060850151841660e09081529285015184166101005290840151831661012052830151821661014052909101511661016052506101d4565b600180546001600160a01b03191690556100da816100dd565b50565b5f80546001600160a01b038381166001600160a01b0319831681178455604051919092169283917f8be0079c531659141344cd1fd0a4f28419497f9722a3daafe3b4186f6b6457e09190a35050565b80516001600160a01b0381168114610142575f80fd5b919050565b5f610100808385031215610159575f80fd5b83601f840112610167575f80fd5b6040518181016001600160401b038111828210171561019457634e487b7160e01b5f52604160045260245ffd5b6040529083019080858311156101a8575f80fd5b845b838110156101c9576101bb8161012c565b8252602091820191016101aa565b509095945050505050565b60805160a05160c05160e051610100516101205161014051610160516140066102e55f395f8181610a820152818161330b0152818161337d015261352301525f818161083c015261291001525f8181610482015281816114ed015281816130b401526133ac01525f81816106f1015281816131f80152818161326b01526134d401525f8181610a4f01528181611a5901528181612768015281816127f10152818161287601528181613084015261329a01525f81816103e10152818161062301528181611a9b01528181612dd8015261305401525f8181610b640152818161310401528181613158015261344901525f8181610c430152818161161701528181613011015261318701526140065ff3fe6080604052600436106103aa575f3560e01c8063715018a6116101e9578063cca8d95611610108578063e78cea921161009d578063f35e4a6e1161006d578063f35e4a6e14610c13578063f4b9fa7514610c32578063fb8d81f114610c65578063fff52ee814610c84575f80fd5b8063e78cea9214610ba3578063e8760c1414610bc2578063eaac8c3214610bd5578063f2fde38b14610bf4575f80fd5b8063dcbab608116100d8578063dcbab60814610b20578063de26c3c614610b3f578063de8b614914610b53578063e30c397814610b86575f80fd5b8063cca8d95614610aa4578063cdb7657f14610ac3578063d69efdc514610ae2578063d9f1aed914610b01575f80fd5b8063958df1641161017e578063aff206d81161014e578063aff206d814610a0a578063beece24b14610a29578063c1fe3e4814610a3e578063c72bf7a514610a71575f80fd5b8063958df164146109815780639644369c146109a057806399d8f74a146109bf578063a8a77a19146109eb575f80fd5b80638da5cb5b116101b95780638da5cb5b1461089d5780638dd14802146108b9578063933f3958146108d857806393f1a40b14610906575f80fd5b8063715018a61461081757806372e26a6f1461082b57806379ba50971461085e5780637a94c06814610872575f80fd5b80633fdb1e8f116102d557806351eb05a61161026a578063630b5ba11161023a578063630b5ba1146107b057806364482f79146107c45780636e910bfd146107e35780636f52daaf14610802575f80fd5b806351eb05a6146107325780635c60da1b146107515780635dfd7e9b1461077057806360246c881461078f575f80fd5b806348cd4cb1116102a557806348cd4cb1146106ac57806349034eb0146106c15780634aa07e64146106e057806351bd787514610713575f80fd5b80633fdb1e8f1461064557806342cbb15c1461065a578063441a3e701461066e57806347c8b1a91461068d575f80fd5b806317caf6f11161034b5780632c8e418a1161031b5780632c8e418a146105a957806330cdb3c6146105c8578063396f7b23146105f35780633fc8cef314610612575f80fd5b806317caf6f1146105285780631abbeb541461053d5780631e1c6a071461055c5780632a4f6df21461058a575f80fd5b80630de371e2116103865780630de371e21461047157806312863f02146104bc5780631526fe27146104e057806315ba56e514610514575f80fd5b8062aeef8a1461041a578063081e3eda14610439578063083c63231461045c575f80fd5b36610416576103d7604051806040016040528060078152602001667265636569766560c81b815250610cb0565b6001600160a01b037f000000000000000000000000000000000000000000000000000000000000000016330361040957005b6104145f6001610cf6565b005b5f80fd5b348015610425575f80fd5b5061041461043436600461373f565b610d76565b348015610444575f80fd5b506008545b6040519081526020015b60405180910390f35b348015610467575f80fd5b50610449600c5481565b34801561047c575f80fd5b506104a47f000000000000000000000000000000000000000000000000000000000000000081565b6040516001600160a01b039091168152602001610453565b3480156104c7575f80fd5b506104d0610dbb565b6040519015158152602001610453565b3480156104eb575f80fd5b506104ff6104fa366004613768565b610dea565b604051610453999897969594939291906137cc565b34801561051f575f80fd5b50610414610edc565b348015610533575f80fd5b50610449600a5481565b348015610548575f80fd5b5061041461055736600461382c565b610f65565b348015610567575f80fd5b506104d0610576366004613860565b600e6020525f908152604090205460ff1681565b348015610595575f80fd5b506104146105a436600461387b565b610ff8565b3480156105b4575f80fd5b506104146105c3366004613768565b61104a565b3480156105d3575f80fd5b506104496105e23660046138bc565b60046020525f908152604090205481565b3480156105fe575f80fd5b506002546104a4906001600160a01b031681565b34801561061d575f80fd5b506104a47f000000000000000000000000000000000000000000000000000000000000000081565b348015610650575f80fd5b5061044960075481565b348015610665575f80fd5b50601254610449565b348015610679575f80fd5b5061041461068836600461382c565b6110ae565b348015610698575f80fd5b506104146106a736600461382c565b611280565b3480156106b7575f80fd5b50610449600b5481565b3480156106cc575f80fd5b506104146106db366004613768565b6114c7565b3480156106eb575f80fd5b506104a47f000000000000000000000000000000000000000000000000000000000000000081565b34801561071e575f80fd5b5061041461072d36600461382c565b6114e0565b34801561073d575f80fd5b5061041461074c366004613768565b611526565b34801561075c575f80fd5b506003546104a4906001600160a01b031681565b34801561077b575f80fd5b5061041461078a36600461382c565b61160a565b34801561079a575f80fd5b506107a361164b565b60405161045391906138d5565b3480156107bb575f80fd5b5061041461184b565b3480156107cf575f80fd5b506104146107de3660046139bf565b611869565b3480156107ee575f80fd5b506104496107fd3660046139f5565b6119a2565b34801561080d575f80fd5b5061044960065481565b348015610822575f80fd5b506104146119ce565b348015610836575f80fd5b506104a47f000000000000000000000000000000000000000000000000000000000000000081565b348015610869575f80fd5b506104146119e1565b34801561087d575f80fd5b5061044961088c366004613768565b60056020525f908152604090205481565b3480156108a8575f80fd5b505f546001600160a01b03166104a4565b3480156108c4575f80fd5b506104146108d3366004613860565b611a22565b3480156108e3575f80fd5b506104d06108f2366004613768565b60116020525f908152604090205460ff1681565b348015610911575f80fd5b5061095961092036600461387b565b600960209081525f9283526040808420909152908252902080546001820154600283015460038401546004909401549293919290919085565b604080519586526020860194909452928401919091526060830152608082015260a001610453565b34801561098c575f80fd5b5061041461099b36600461382c565b611a4c565b3480156109ab575f80fd5b506104146109ba366004613a1f565b611a8e565b3480156109ca575f80fd5b506109de6109d9366004613a96565b611b2f565b6040516104539190613b43565b3480156109f6575f80fd5b50610449610a0536600461387b565b611dde565b348015610a15575f80fd5b50610414610a24366004613768565b611df0565b348015610a34575f80fd5b50610449600f5481565b348015610a49575f80fd5b506104a47f000000000000000000000000000000000000000000000000000000000000000081565b348015610a7c575f80fd5b506104a47f000000000000000000000000000000000000000000000000000000000000000081565b348015610aaf575f80fd5b50610449610abe366004613bed565b611e0f565b348015610ace575f80fd5b50610414610add366004613768565b612070565b348015610aed575f80fd5b50610414610afc366004613860565b6122d0565b348015610b0c575f80fd5b50610414610b1b366004613768565b612329565b348015610b2b575f80fd5b50610414610b3a366004613ca8565b6123bd565b348015610b4a575f80fd5b506104d06123dd565b348015610b5e575f80fd5b506104a47f000000000000000000000000000000000000000000000000000000000000000081565b348015610b91575f80fd5b506001546001600160a01b03166104a4565b348015610bae575f80fd5b506010546104a4906001600160a01b031681565b610414610bd0366004613cdf565b610cf6565b348015610be0575f80fd5b50610414610bef366004613860565b6123f6565b348015610bff575f80fd5b50610414610c0e366004613860565b6124d7565b348015610c1e575f80fd5b50610414610c2d366004613768565b612547565b348015610c3d575f80fd5b506104a47f000000000000000000000000000000000000000000000000000000000000000081565b348015610c70575f80fd5b50610414610c7f366004613768565b6125b2565b348015610c8f575f80fd5b50610ca3610c9e366004613a96565b6125ed565b6040516104539190613d09565b610cf381604051602401610cc49190613d82565b60408051601f198184030181529190526020810180516001600160e01b031663104c13eb60e21b179052612727565b50565b345f03610d165760405163717e6b7b60e01b815260040160405180910390fd5b346001826002811115610d2b57610d2b613d94565b03610d4057610d3981612747565b9050610d65565b6002826002811115610d5457610d54613d94565b03610d6557610d62816128f1565b90505b610d718134858561297d565b505050565b610db033308460088781548110610d8f57610d8f613da8565b5f9182526020909120600990910201546001600160a01b0316929190612a58565b610d71838383612abf565b600f545f908015801590610dd6575080610dd460125490565b115b15610de357600191505090565b5f91505090565b60088181548110610df9575f80fd5b5f9182526020909120600990910201805460018201546002830154600384015460048501546005860154600687015460078801546008890180546001600160a01b03998a169b50989097169895979496939592949193909291610e5b90613dbc565b80601f0160208091040260200160405190810160405280929190818152602001828054610e8790613dbc565b8015610ed25780601f10610ea957610100808354040283529160200191610ed2565b820191905f5260205f20905b815481529060010190602001808311610eb557829003601f168201915b5050505050905089565b6002546001600160a01b03163314610f0e5760405163118cdaa760e01b81523360048201526024015b60405180910390fd5b60035460405133916001600160a01b0316907feb7a7d62743daf8cf4055aea544d0a89e2011279ed4105567d010759e6fa4de2905f90a3600280546001600160a01b03199081169091556003805490911633179055565b610f6d612cfd565b5f8215610fe157600b5483111580610f8c575082610f8a60125490565b115b15610faa57604051633dea3a3b60e11b815260040160405180910390fd5b610fb26123dd565b15610fd05760405163442400af60e01b815260040160405180910390fd5b610fda8284613e08565b9050610fe4565b505f5b610fec61184b565b600c9290925550600f55565b611000612cfd565b806008838154811061101457611014613da8565b905f5260205f2090600902016001015f6101000a8154816001600160a01b0302191690836001600160a01b031602179055505050565b611052612cfd565b670de0b6b3a764000081101561107b5760405163135257c760e21b815260040160405180910390fd5b6110836123dd565b156110a15760405163442400af60e01b815260040160405180910390fd5b6110a961184b565b600655565b6110b6610dbb565b156110d4576040516315e34e0560e01b815260040160405180910390fd5b805f036110f45760405163214671ad60e01b815260040160405180910390fd5b5f6008838154811061110857611108613da8565b5f918252602080832086845260098083526040808620338752909352919093209102909101915061113884611526565b60028101546001840161114d57809350611171565b8084111561117157604051632f14e52760e21b815260048101829052602401610f05565b8154600483015460038401546007860154670de0b6b3a7640000906111969085613e1b565b6111a09190613e32565b6111aa9190613e08565b6111b49190613e51565b60038401556111c38583613e51565b600284015560048401546111d8908690613e51565b60048501556111e78582613e51565b80845560028501549091506111fd908690613e51565b60028501558354611218906001600160a01b03163387612d29565b670de0b6b3a76400008460070154826112319190613e1b565b61123b9190613e32565b6004840155604051858152869033907ff279e6a1f5e320cca91135676d9cb6e44ca8a08c0b88342bcdb1144f6511b568906020015b60405180910390a3505050505050565b6112886123dd565b156112a65760405163442400af60e01b815260040160405180910390fd5b805f036112c657604051633ff7215360e01b815260040160405180910390fd5b5f6112d133846119a2565b9050808211156112f7576040516301bdd0f160e21b815260048101829052602401610f05565b5f6008848154811061130b5761130b613da8565b5f918252602080832087845260098083526040808620338752909352919093209102909101915061133b85611526565b8054600482015460038301546007850154670de0b6b3a7640000906113609085613e1b565b61136a9190613e32565b6113749190613e08565b61137e9190613e51565b60038301555f8681526005602052604090205461139c908690613e08565b5f8781526005602052604090205560028201546113ba908690613e51565b600283015560048301546113cf908690613e51565b60048401556006545f90670de0b6b3a7640000906113ed9088613e1b565b6113f79190613e32565b90508083600101546114099190613e08565b6001840155600384015461141e908290613e08565b60038501558561142e8284613e08565b6114389190613e51565b80845560028501549092508690611450908390613e08565b61145a9190613e51565b60028501556007840154670de0b6b3a7640000906114789084613e1b565b6114829190613e32565b6004840155604051818152879033907fc0314854fdea1f413e5498dd58aa7953bae1e4e5d587ea2f4e3dacceaa244dea9060200160405180910390a350505050505050565b8060125f8282546114d89190613e08565b909155505050565b6115156001600160a01b037f000000000000000000000000000000000000000000000000000000000000000016333085612a58565b611522828383600261297d565b5050565b5f6008828154811061153a5761153a613da8565b905f5260205f2090600902019050806006015461155660125490565b1161155f575050565b60028101546007546005830154821580611577575081155b80611580575080155b156115975760125484600601819055505050505050565b5f6115ae85600601546115a960125490565b612d5a565b90505f600a548385846115c19190613e1b565b6115cb9190613e1b565b6115d59190613e32565b60078701549091506115e78683613e32565b6115f19190613e08565b6007870155601254866006018190555050505050505050565b61163f6001600160a01b037f000000000000000000000000000000000000000000000000000000000000000016333085612a58565b6115228283835f61297d565b6008546060908067ffffffffffffffff81111561166a5761166a613a51565b6040519080825280602002602001820160405280156116f457816020015b6116e16040518061012001604052805f6001600160a01b031681526020015f6001600160a01b031681526020015f81526020015f81526020015f81526020015f81526020015f81526020015f8152602001606081525090565b8152602001906001900390816116885790505b5091505f5b81811015611846576008818154811061171457611714613da8565b5f9182526020918290206040805161012081018252600990930290910180546001600160a01b039081168452600182015416938301939093526002830154908201526003820154606082015260048201546080820152600582015460a0820152600682015460c0820152600782015460e0820152600882018054919291610100840191906117a190613dbc565b80601f01602080910402602001604051908101604052809291908181526020018280546117cd90613dbc565b80156118185780601f106117ef57610100808354040283529160200191611818565b820191905f5260205f20905b8154815290600101906020018083116117fb57829003601f168201915b50505050508152505083828151811061183357611833613da8565b60209081029190910101526001016116f9565b505090565b6008545f5b818110156115225761186181611526565b600101611850565b611871612cfd565b6118796123dd565b156118975760405163442400af60e01b815260040160405180910390fd5b80156118a5576118a561184b565b5f600884815481106118b9576118b9613da8565b5f918252602090912060099091020180549091506001600160a01b03168015806118fb57506001600160a01b0381165f908152600e602052604090205460ff16155b15611919576040516302721e1f60e61b815260040160405180910390fd5b838260050154600a5461192c9190613e51565b6119369190613e08565b600a55600582018490556006820154601254101561195757600b5460068301555b84816001600160a01b03167f9eca8f7bcfb868d72b4ed95b71c627c194ab6bcb9b83adb2280e8a0320bb84768660405161199391815260200190565b60405180910390a35050505050565b5f8181526009602090815260408083206001600160a01b03861684529091529020600201545b92915050565b6119d6612cfd565b6119df5f612da7565b565b60015433906001600160a01b03168114611a195760405163118cdaa760e01b81526001600160a01b0382166004820152602401610f05565b610cf381612da7565b611a2a612cfd565b601080546001600160a01b0319166001600160a01b0392909216919091179055565b611a816001600160a01b037f000000000000000000000000000000000000000000000000000000000000000016333085612a58565b611522828383600161297d565b611ac36001600160a01b037f000000000000000000000000000000000000000000000000000000000000000016333086612a58565b5f611acd84612dc0565b90506001826002811115611ae357611ae3613d94565b03611af857611af181612747565b9050611b1d565b6002826002811115611b0c57611b0c613d94565b03611b1d57611b1a816128f1565b90505b611b298185858561297d565b50505050565b6060815167ffffffffffffffff811115611b4b57611b4b613a51565b604051908082528060200260200182016040528015611b7e57816020015b6060815260200190600190039081611b695790505b506008549091505f5b8351811015611dd7575f848281518110611ba357611ba3613da8565b602002602001015190508267ffffffffffffffff811115611bc657611bc6613a51565b604051908082528060200260200182016040528015611bff57816020015b611bec613721565b815260200190600190039081611be45790505b50848381518110611c1257611c12613da8565b60200260200101819052505f5b83811015611dcd575f8181526009602090815260408083206001600160a01b0386168452825291829020825160a0810184528154808252600183015493820193909352600282015493810193909352600381015460608401526004015460808301528651879086908110611c9557611c95613da8565b60200260200101518381518110611cae57611cae613da8565b60200260200101515f60048110611cc757611cc7613da8565b6020020181815250508060200151868581518110611ce757611ce7613da8565b60200260200101518381518110611d0057611d00613da8565b6020026020010151600160048110611d1a57611d1a613da8565b602002015260408101518651879086908110611d3857611d38613da8565b60200260200101518381518110611d5157611d51613da8565b6020026020010151600260048110611d6b57611d6b613da8565b6020020152611d7a8284612e3d565b868581518110611d8c57611d8c613da8565b60200260200101518381518110611da557611da5613da8565b6020026020010151600360048110611dbf57611dbf613da8565b602002015250600101611c1f565b5050600101611b87565b5050919050565b5f611de98383612e3d565b9392505050565b611df8612cfd565b5f908152601160205260409020805460ff19169055565b5f611e18612cfd565b6001600160a01b0384165f908152600e602052604090205460ff1615611e5157604051637a471e1360e11b815260040160405180910390fd5b611e596123dd565b15611e775760405163442400af60e01b815260040160405180910390fd5b8115611e8557611e8561184b565b5f600b54611e9260125490565b11611e9f57600b54611ea3565b6012545b905085600a54611eb39190613e08565b600a819055506001600e5f876001600160a01b03166001600160a01b031681526020019081526020015f205f6101000a81548160ff0219169083151502179055505f60088054905090506008604051806101200160405280886001600160a01b031681526020015f6001600160a01b031681526020015f81526020015f81526020015f81526020018981526020018481526020015f815260200187815250908060018154018082558091505060019003905f5260205f2090600902015f909190919091505f820151815f015f6101000a8154816001600160a01b0302191690836001600160a01b031602179055506020820151816001015f6101000a8154816001600160a01b0302191690836001600160a01b0316021790555060408201518160020155606082015181600301556080820151816004015560a0820151816005015560c0820151816006015560e0820151816007015561010082015181600801908161201f9190613ea8565b50505080866001600160a01b03167fc264f49177bdbe55a01fae0e77c3fdc75d515d242b32bc4d56c565f5b47865ba8960405161205e91815260200190565b60405180910390a39695505050505050565b6120786123dd565b15806120895750612087610dbb565b155b806120a157505f8181526011602052604090205460ff165b156120be576040516282b42960e81b815260040160405180910390fd5b6120c781611526565b5f600882815481106120db576120db613da8565b905f5260205f20906009020190505f81600401549050805f148061210857506010546001600160a01b0316155b8061211e575060018201546001600160a01b0316155b1561213c5760405163023b521360e51b815260040160405180910390fd5b815460105460405163095ea7b360e01b81526001600160a01b03918216600482015260248101849052911690819063095ea7b3906044016020604051808303815f875af115801561218f573d5f803e3d5ffd5b505050506040513d601f19601f820116820180604052508101906121b39190613f68565b5060105460018401546001600160a01b039182169163e8b99b1b9116838562030d405f6121e75f546001600160a01b031690565b60405160e088901b6001600160e01b03191681526001600160a01b039687166004820152948616602486015260448501939093526064840191909152608483015290911660a482015260c4016020604051808303815f875af115801561224f573d5f803e3d5ffd5b505050506040513d601f19601f820116820180604052508101906122739190613f83565b505f8481526011602052604090819020805460ff1916600117905551849033907fdeb96a3e5294fabe38d8824397be657fbe695d61f3457274027345cca6f26aaa906122c29086815260200190565b60405180910390a350505050565b6122d8612cfd565b600280546001600160a01b0319166001600160a01b03838116918217909255600354604051919216907f67f679e13fe9dca16f3079221965ec41838cb8881cbc0f440bc13507c6b214c2905f90a350565b612331612cfd565b5f6008828154811061234557612345613da8565b5f91825260208083208584526005909152604083208054939055600990910201805490925061237e906001600160a01b03163383612d29565b827f272cfd32312fc5fb9119bb5b10d732ebe69a0be4019a69bc7d16eaea36231a2e826040516123b091815260200190565b60405180910390a2505050565b6123c5612cfd565b6123d28585858585612f83565b505043601255505050565b600c545f908015801590610dd6575080610dd460125490565b806001600160a01b0316638da5cb5b6040518163ffffffff1660e01b8152600401602060405180830381865afa158015612432573d5f803e3d5ffd5b505050506040513d601f19601f820116820180604052508101906124569190613f9a565b6001600160a01b0316336001600160a01b031614612486576040516282b42960e81b815260040160405180910390fd5b806001600160a01b03166315ba56e56040518163ffffffff1660e01b81526004015f604051808303815f87803b1580156124be575f80fd5b505af11580156124d0573d5f803e3d5ffd5b5050505050565b6124df612cfd565b600180546001600160a01b0383166001600160a01b0319909116811790915561250f5f546001600160a01b031690565b6001600160a01b03167f38d16b8cac22d99fc7c124b9cd0de2d3fa1faef420bfe791d8c362d765e2270060405160405180910390a350565b61254f612cfd565b80158061256a5750600c541580159061256a5750600c548110155b156125885760405163ec2caa0d60e01b815260040160405180910390fd5b600b5460125411156125ad5760405163317741f760e11b815260040160405180910390fd5b600b55565b6125ba612cfd565b6125c26123dd565b156125e05760405163442400af60e01b815260040160405180910390fd5b6125e861184b565b600755565b6060815167ffffffffffffffff81111561260957612609613a51565b60405190808252806020026020018201604052801561263c57816020015b60608152602001906001900390816126275790505b506008549091505f5b8351811015611dd7575f84828151811061266157612661613da8565b602002602001015190508267ffffffffffffffff81111561268457612684613a51565b6040519080825280602002602001820160405280156126ad578160200160208202803683370190505b508483815181106126c0576126c0613da8565b60200260200101819052505f5b8381101561271d576126df8183612e3d565b8584815181106126f1576126f1613da8565b6020026020010151828151811061270a5761270a613da8565b60209081029190910101526001016126cd565b5050600101612645565b80516a636f6e736f6c652e6c6f67602083015f808483855afa5050505050565b6040516370a0823160e01b81523060048201525f9081906001600160a01b037f000000000000000000000000000000000000000000000000000000000000000016906370a0823190602401602060405180830381865afa1580156127ad573d5f803e3d5ffd5b505050506040513d601f19601f820116820180604052508101906127d19190613f83565b60405163a1903eab60e01b81523060048201529091506001600160a01b037f0000000000000000000000000000000000000000000000000000000000000000169063a1903eab90859060240160206040518083038185885af1158015612839573d5f803e3d5ffd5b50505050506040513d601f19601f8201168201806040525081019061285e9190613f83565b506040516370a0823160e01b815230600482015281907f00000000000000000000000000000000000000000000000000000000000000006001600160a01b0316906370a0823190602401602060405180830381865afa1580156128c3573d5f803e3d5ffd5b505050506040513d601f19601f820116820180604052508101906128e79190613f83565b611de99190613e51565b60405163f340fa0160e01b81523060048201525f906001600160a01b037f0000000000000000000000000000000000000000000000000000000000000000169063f340fa0190849060240160206040518083038185885af1158015612958573d5f803e3d5ffd5b50505050506040513d601f19601f820116820180604052508101906119c89190613f83565b5f8082600281111561299157612991613d94565b036129a65761299f8561342b565b9050612a03565b60018260028111156129ba576129ba613d94565b036129c85761299f856134bc565b60028260028111156129dc576129dc613d94565b036129ea5761299f8561350b565b604051635972996f60e11b815260040160405180910390fd5b83612a0e8285613e1b565b612a189190613e32565b92506124d060045f846002811115612a3257612a32613d94565b6002811115612a4357612a43613d94565b81526020019081526020015f20548285612abf565b6040516001600160a01b038481166024830152838116604483015260648201839052611b299186918216906323b872dd906084015b604051602081830303815290604052915060e01b6020820180516001600160e01b03838183161783525050505061355a565b612ac76123dd565b15612ae55760405163442400af60e01b815260040160405180910390fd5b815f03612b0557604051635972996f60e11b815260040160405180910390fd5b81811115612b29576040516301bdd0f160e21b815260048101839052602401610f05565b5f60088481548110612b3d57612b3d613da8565b5f9182526020808320878452600980835260408086203387529093529190932091029091019150612b6d85611526565b8054600482015460038301546007850154670de0b6b3a764000090612b929085613e1b565b612b9c9190613e32565b612ba69190613e08565b612bb09190613e51565b60038301555f86815260056020526040902054612bce908590613e08565b5f87815260056020526040902055612be68486613e51565b9450848260020154612bf89190613e08565b60028301556004830154612c0d908690613e08565b6004840155600654670de0b6b3a764000090612c299086613e1b565b612c339190613e32565b9350838260010154612c459190613e08565b60018301556003830154612c5a908590613e08565b600384015583612c6a8683613e08565b612c749190613e08565b80835560028401549091508490612c8c908790613e08565b612c969190613e08565b60028401556007830154670de0b6b3a764000090612cb49083613e1b565b612cbe9190613e32565b60048301556040805186815260208101869052879133917f36af321ec8d3c75236829c5317affd40ddb308863a1236d2d277a4025cccee1e9101611270565b5f546001600160a01b031633146119df5760405163118cdaa760e01b8152336004820152602401610f05565b6040516001600160a01b03838116602483015260448201839052610d7191859182169063a9059cbb90606401612a8d565b600c545f908015612d7257612d6f83826135bb565b92505b83831115612d9e57612d848484613e51565b612d9690670de0b6b3a7640000613e1b565b9150506119c8565b5f9150506119c8565b600180546001600160a01b0319169055610cf3816135d0565b604051632e1a7d4d60e01b8152600481018290525f907f00000000000000000000000000000000000000000000000000000000000000006001600160a01b031690632e1a7d4d906024015f604051808303815f87803b158015612e21575f80fd5b505af1158015612e33573d5f803e3d5ffd5b5093949350505050565b5f8060088481548110612e5257612e52613da8565b5f9182526020808320878452600980835260408086206001600160a01b038a16875290935291842092909102016007810154909350909190612e9c90670de0b6b3a7640000613e1b565b6002840154600685015491925090612eb360125490565b118015612ebf57508015155b15612f32575f612ed685600601546115a960125490565b90505f600a54866005015460075484612eef9190613e1b565b612ef99190613e1b565b612f039190613e32565b90508383612f1983670de0b6b3a7640000613e1b565b612f239190613e32565b612f2d9190613e08565b935050505b6004830154600384015484546ec097ce7bc90715b34b9f100000000090612f5a908690613e1b565b612f649190613e32565b612f6e9190613e08565b612f789190613e51565b979650505050505050565b612f8b612cfd565b600d5460ff1615612fae5760405162dc149f60e41b815260040160405180910390fd5b60078390555f829003612fd45760405163ec2caa0d60e01b815260040160405180910390fd5b600b829055670de0b6b3a76400008110156130025760405163135257c760e21b815260040160405180910390fd5b60068190556001600160a01b037f000000000000000000000000000000000000000000000000000000000000000081165f908152600e60209081526040808320805460ff1990811660019081179092557f00000000000000000000000000000000000000000000000000000000000000008616855282852080548216831790557f00000000000000000000000000000000000000000000000000000000000000008616855282852080548216831790557f00000000000000000000000000000000000000000000000000000000000000009095168452818420805490951617909355825180840190935260048352637344414960e01b9083015261312a9186917f00000000000000000000000000000000000000000000000000000000000000009190611e0f565b60045f808152602081019190915260409081015f20919091555163095ea7b360e01b81526001600160a01b037f0000000000000000000000000000000000000000000000000000000000000000811660048301525f1960248301527f0000000000000000000000000000000000000000000000000000000000000000169063095ea7b3906044016020604051808303815f875af11580156131cd573d5f803e3d5ffd5b505050506040513d601f19601f820116820180604052508101906131f19190613f68565b5061323c857f0000000000000000000000000000000000000000000000000000000000000000604051806040016040528060068152602001650eee6e88aa8960d31b8152505f611e0f565b60045f60018152602081019190915260409081015f20919091555163095ea7b360e01b81526001600160a01b037f0000000000000000000000000000000000000000000000000000000000000000811660048301525f1960248301527f0000000000000000000000000000000000000000000000000000000000000000169063095ea7b3906044016020604051808303815f875af11580156132e0573d5f803e3d5ffd5b505050506040513d601f19601f820116820180604052508101906133049190613f68565b5061334e857f0000000000000000000000000000000000000000000000000000000000000000604051806040016040528060058152602001640eeca8aa8960db1b8152505f611e0f565b60045f60028152602081019190915260409081015f20919091555163095ea7b360e01b81526001600160a01b037f0000000000000000000000000000000000000000000000000000000000000000811660048301525f1960248301527f0000000000000000000000000000000000000000000000000000000000000000169063095ea7b3906044016020604051808303815f875af11580156133f2573d5f803e3d5ffd5b505050506040513d601f19601f820116820180604052508101906134169190613f68565b5050600d805460ff1916600117905550505050565b604051636e553f6560e01b8152600481018290523060248201525f907f00000000000000000000000000000000000000000000000000000000000000006001600160a01b031690636e553f65906044015b6020604051808303815f875af1158015613498573d5f803e3d5ffd5b505050506040513d601f19601f820116820180604052508101906119c89190613f83565b604051630ea598cb60e41b8152600481018290525f907f00000000000000000000000000000000000000000000000000000000000000006001600160a01b03169063ea598cb09060240161347c565b604051630ea598cb60e41b8152600481018290525f907f00000000000000000000000000000000000000000000000000000000000000006001600160a01b03169063ea598cb09060240161347c565b5f61356e6001600160a01b0384168361361f565b905080515f141580156135925750808060200190518101906135909190613f68565b155b15610d7157604051635274afe760e01b81526001600160a01b0384166004820152602401610f05565b5f8183106135c95781611de9565b5090919050565b5f80546001600160a01b038381166001600160a01b0319831681178455604051919092169283917f8be0079c531659141344cd1fd0a4f28419497f9722a3daafe3b4186f6b6457e09190a35050565b6060611de983835f845f80856001600160a01b031684866040516136439190613fb5565b5f6040518083038185875af1925050503d805f811461367d576040519150601f19603f3d011682016040523d82523d5f602084013e613682565b606091505b509150915061369286838361369c565b9695505050505050565b6060826136b1576136ac826136f8565b611de9565b81511580156136c857506001600160a01b0384163b155b156136f157604051639996b31560e01b81526001600160a01b0385166004820152602401610f05565b5080611de9565b8051156137085780518082602001fd5b604051630a12f52160e11b815260040160405180910390fd5b60405180608001604052806004906020820280368337509192915050565b5f805f60608486031215613751575f80fd5b505081359360208301359350604090920135919050565b5f60208284031215613778575f80fd5b5035919050565b5f5b83811015613799578181015183820152602001613781565b50505f910152565b5f81518084526137b881602086016020860161377f565b601f01601f19169290920160200192915050565b5f61012060018060a01b03808d168452808c166020850152508960408401528860608401528760808401528660a08401528560c08401528460e08401528061010084015261381c818401856137a1565b9c9b505050505050505050505050565b5f806040838503121561383d575f80fd5b50508035926020909101359150565b6001600160a01b0381168114610cf3575f80fd5b5f60208284031215613870575f80fd5b8135611de98161384c565b5f806040838503121561388c575f80fd5b82359150602083013561389e8161384c565b809150509250929050565b8035600381106138b7575f80fd5b919050565b5f602082840312156138cc575f80fd5b611de9826138a9565b5f60208083018184528085518083526040925060408601915060408160051b8701018488015f5b8381101561399957888303603f19018552815180516001600160a01b03168452610120818901516001600160a01b038116868b0152508188015185890152606080830151908601526080808301519086015260a0808301519086015260c0808301519086015260e0808301519086015261010091820151918501819052613985818601836137a1565b9689019694505050908601906001016138fc565b509098975050505050505050565b8015158114610cf3575f80fd5b80356138b7816139a7565b5f805f606084860312156139d1575f80fd5b833592506020840135915060408401356139ea816139a7565b809150509250925092565b5f8060408385031215613a06575f80fd5b8235613a118161384c565b946020939093013593505050565b5f805f60608486031215613a31575f80fd5b8335925060208401359150613a48604085016138a9565b90509250925092565b634e487b7160e01b5f52604160045260245ffd5b604051601f8201601f1916810167ffffffffffffffff81118282101715613a8e57613a8e613a51565b604052919050565b5f6020808385031215613aa7575f80fd5b823567ffffffffffffffff80821115613abe575f80fd5b818501915085601f830112613ad1575f80fd5b813581811115613ae357613ae3613a51565b8060051b9150613af4848301613a65565b8181529183018401918481019088841115613b0d575f80fd5b938501935b83851015613b375784359250613b278361384c565b8282529385019390850190613b12565b98975050505050505050565b5f602080830181845280855180835260408601915060408160051b87010192508387015f5b82811015613be057878503603f190184528151805180875290870190878701905f5b81811015613bca578351835f5b6004811015613bb45782518252918c0191908c0190600101613b97565b5050509289019260809290920191600101613b8a565b5090965050509285019290850190600101613b68565b5092979650505050505050565b5f805f8060808587031215613c00575f80fd5b84359350602080860135613c138161384c565b9350604086013567ffffffffffffffff80821115613c2f575f80fd5b818801915088601f830112613c42575f80fd5b813581811115613c5457613c54613a51565b613c66601f8201601f19168501613a65565b91508082528984828501011115613c7b575f80fd5b80848401858401375f84828401015250809450505050613c9d606086016139b4565b905092959194509250565b5f805f805f60a08688031215613cbc575f80fd5b505083359560208501359550604085013594606081013594506080013592509050565b5f8060408385031215613cf0575f80fd5b82359150613d00602084016138a9565b90509250929050565b5f602080830181845280855180835260408601915060408160051b87010192508387015f5b82811015613be057878503603f190184528151805180875290870190878701905f5b81811015613d6c57835183529289019291890191600101613d50565b5090965050509285019290850190600101613d2e565b602081525f611de960208301846137a1565b634e487b7160e01b5f52602160045260245ffd5b634e487b7160e01b5f52603260045260245ffd5b600181811c90821680613dd057607f821691505b602082108103613dee57634e487b7160e01b5f52602260045260245ffd5b50919050565b634e487b7160e01b5f52601160045260245ffd5b808201808211156119c8576119c8613df4565b80820281158282048414176119c8576119c8613df4565b5f82613e4c57634e487b7160e01b5f52601260045260245ffd5b500490565b818103818111156119c8576119c8613df4565b601f821115610d7157805f5260205f20601f840160051c81016020851015613e895750805b601f840160051c820191505b818110156124d0575f8155600101613e95565b815167ffffffffffffffff811115613ec257613ec2613a51565b613ed681613ed08454613dbc565b84613e64565b602080601f831160018114613f09575f8415613ef25750858301515b5f19600386901b1c1916600185901b178555613f60565b5f85815260208120601f198616915b82811015613f3757888601518255948401946001909101908401613f18565b5085821015613f5457878501515f19600388901b60f8161c191681555b505060018460011b0185555b505050505050565b5f60208284031215613f78575f80fd5b8151611de9816139a7565b5f60208284031215613f93575f80fd5b5051919050565b5f60208284031215613faa575f80fd5b8151611de98161384c565b5f8251613fc681846020870161377f565b919091019291505056fea26469706673582212205d171630e90bbd9fa8c0b21085f6d0b9bc580234e754828c3bbea21728733ee064736f6c63430008190033","linkReferences":{}},"methodIdentifiers":{"acceptImplementation()":"15ba56e5","acceptOwnership()":"79ba5097","add(uint256,address,string,bool)":"cca8d956","addBlocks(uint256)":"49034eb0","becomeImplementation(address)":"eaac8c32","boosterMultiplier()":"6f52daaf","bridge()":"e78cea92","bridgePool(uint256)":"cdb7657f","dai()":"f4b9fa75","deposit(uint256,uint256,uint256)":"00aeef8a","depositDai(uint256,uint256)":"5dfd7e9b","depositEth(uint256,uint8)":"e8760c14","depositStEth(uint256,uint256)":"958df164","depositWeth(uint256,uint256,uint8)":"9644369c","depositeEth(uint256,uint256)":"51bd7875","eETH()":"0de371e2","eETHLiquidityPool()":"72e26a6f","endBlock()":"083c6323","endBlockForWithdrawals()":"beece24b","getBlockNumber()":"42cbb15c","getMaxAdditionalBoost(address,uint256)":"6e910bfd","getOptimizedUserInfo(address[])":"99d8f74a","getPendingPoints(address[])":"fff52ee8","getPoolInfo()":"60246c88","heldProceeds(uint256)":"7a94c068","implementation()":"5c60da1b","increaseBoost(uint256,uint256)":"47c8b1a9","initialize(uint256,uint256,uint256,uint256,uint256)":"dcbab608","isBridged(uint256)":"933f3958","isFarmingEnded()":"de26c3c6","isWithdrawPeriodEnded()":"12863f02","massUpdatePools()":"630b5ba1","owner()":"8da5cb5b","pendingImplementation()":"396f7b23","pendingOwner()":"e30c3978","pendingPoints(uint256,address)":"a8a77a19","pointsPerBlock()":"3fdb1e8f","poolExists(address)":"1e1c6a07","poolInfo(uint256)":"1526fe27","poolLength()":"081e3eda","renounceOwnership()":"715018a6","replaceImplementation(address)":"d69efdc5","revertFailedBridge(uint256)":"aff206d8","sDAI()":"de8b6149","set(uint256,uint256,bool)":"64482f79","setBoosterMultiplier(uint256)":"2c8e418a","setBridge(address)":"8dd14802","setEndBlock(uint256,uint256)":"1abbeb54","setL2FarmForPool(uint256,address)":"2a4f6df2","setPointsPerBlock(uint256)":"fb8d81f1","setStartBlock(uint256)":"f35e4a6e","stETH()":"c1fe3e48","startBlock()":"48cd4cb1","totalAllocPoint()":"17caf6f1","transferOwnership(address)":"f2fde38b","typeToId(uint8)":"30cdb3c6","updatePool(uint256)":"51eb05a6","userInfo(uint256,address)":"93f1a40b","weETH()":"c72bf7a5","weth()":"3fc8cef3","withdraw(uint256,uint256)":"441a3e70","withdrawProceeds(uint256)":"d9f1aed9","wstETH()":"4aa07e64"},"id":8}