{"abi":[{"type":"function","name":"deposit","inputs":[{"name":"_l2Receiver","type":"address","internalType":"address"},{"name":"_l1Token","type":"address","internalType":"address"},{"name":"_amount","type":"uint256","internalType":"uint256"},{"name":"_l2TxGasLimit","type":"uint256","internalType":"uint256"},{"name":"_l2TxGasPerPubdataByte","type":"uint256","internalType":"uint256"},{"name":"_refundRecipient","type":"address","internalType":"address"}],"outputs":[{"name":"l2TxHash","type":"bytes32","internalType":"bytes32"}],"stateMutability":"payable"}],"bytecode":{"object":"0x6080604052348015600e575f80fd5b5060eb8061001b5f395ff3fe608060405260043610601b575f3560e01c8063e8b99b1b14601f575b5f80fd5b6035602a3660046061565b5f9695505050505050565b60405190815260200160405180910390f35b80356001600160a01b0381168114605c575f80fd5b919050565b5f805f805f8060c087890312156075575f80fd5b607c876047565b95506088602088016047565b945060408701359350606087013592506080870135915060a960a088016047565b9050929550929550929556fea264697066735822122042a6c856132402160656264e0daf09cd8f1ea422d1f3db51ee0b77bd2c2571a264736f6c63430008190033","linkReferences":{}},"methodIdentifiers":{"deposit(address,address,uint256,uint256,uint256,address)":"e8b99b1b"},"id":9}