{"abi":[{"type":"constructor","inputs":[{"name":"eEth_","type":"address","internalType":"contract MockERC20"}],"stateMutability":"nonpayable"},{"type":"function","name":"deposit","inputs":[{"name":"_referral","type":"address","internalType":"address"}],"outputs":[{"name":"","type":"uint256","internalType":"uint256"}],"stateMutability":"payable"},{"type":"function","name":"eEth","inputs":[],"outputs":[{"name":"","type":"address","internalType":"contract MockERC20"}],"stateMutability":"view"},{"type":"function","name":"exit","inputs":[{"name":"amount","type":"uint256","internalType":"uint256"}],"outputs":[{"name":"","type":"uint256","internalType":"uint256"}],"stateMutability":"nonpayable"},{"type":"error","name":"TransferOutFailed","inputs":[]},{"type":"error","name":"Unsupported","inputs":[]}],"bytecode":{"object":"0x60a0604052348015600e575f80fd5b506040516103bb3803806103bb833981016040819052602b91603b565b6001600160a01b03166080526066565b5f60208284031215604a575f80fd5b81516001600160a01b0381168114605f575f80fd5b9392505050565b60805161033161008a5f395f818160480152818160e5015261020901526103315ff3fe608060405260043610610033575f3560e01c806304fc532a146100375780637f8661a114610087578063f340fa01146100b4575b5f80fd5b348015610042575f80fd5b5061006a7f000000000000000000000000000000000000000000000000000000000000000081565b6040516001600160a01b0390911681526020015b60405180910390f35b348015610092575f80fd5b506100a66100a136600461026f565b6100c7565b60405190815260200161007e565b6100a66100c2366004610286565b6101d0565b604051632770a7eb60e21b8152336004820152602481018290525f907f00000000000000000000000000000000000000000000000000000000000000006001600160a01b031690639dc29fac906044015f604051808303815f87803b15801561012e575f80fd5b505af1158015610140573d5f803e3d5ffd5b505050505f6103e8836103e961015691906102b3565b61016091906102dc565b6040519091505f90339083908381818185875af1925050503d805f81146101a2576040519150601f19603f3d011682016040523d82523d5f602084013e6101a7565b606091505b50509050806101c95760405163cefaffeb60e01b815260040160405180910390fd5b5092915050565b5f806101de6103e9346102dc565b6101ea906103e86102b3565b6040516340c10f1960e01b8152336004820152602481018290529091507f00000000000000000000000000000000000000000000000000000000000000006001600160a01b0316906340c10f19906044015f604051808303815f87803b158015610252575f80fd5b505af1158015610264573d5f803e3d5ffd5b509295945050505050565b5f6020828403121561027f575f80fd5b5035919050565b5f60208284031215610296575f80fd5b81356001600160a01b03811681146102ac575f80fd5b9392505050565b80820281158282048414176102d657634e487b7160e01b5f52601160045260245ffd5b92915050565b5f826102f657634e487b7160e01b5f52601260045260245ffd5b50049056fea26469706673582212207796c3fb1c0e563615f5ad32076e64f6d153b4f475a15b0624e05039444a046464736f6c63430008190033","linkReferences":{}},"methodIdentifiers":{"deposit(address)":"f340fa01","eEth()":"04fc532a","exit(uint256)":"7f8661a1"},"id":15}