{"abi":[{"type":"constructor","inputs":[{"name":"_cap","type":"uint256","internalType":"uint256"},{"name":"_initialSupply","type":"uint256","internalType":"uint256"},{"name":"_authorizationRegistryAddress","type":"address","internalType":"address"}],"stateMutability":"nonpayable"},{"type":"function","name":"allowance","inputs":[{"name":"owner","type":"address","internalType":"address"},{"name":"spender","type":"address","internalType":"address"}],"outputs":[{"name":"","type":"uint256","internalType":"uint256"}],"stateMutability":"view"},{"type":"function","name":"approve","inputs":[{"name":"spender","type":"address","internalType":"address"},{"name":"value","type":"uint256","internalType":"uint256"}],"outputs":[{"name":"","type":"bool","internalType":"bool"}],"stateMutability":"nonpayable"},{"type":"function","name":"balanceOf","inputs":[{"name":"account","type":"address","internalType":"address"}],"outputs":[{"name":"","type":"uint256","internalType":"uint256"}],"stateMutability":"view"},{"type":"function","name":"cap","inputs":[],"outputs":[{"name":"","type":"uint256","internalType":"uint256"}],"stateMutability":"view"},{"type":"function","name":"decimals","inputs":[],"outputs":[{"name":"","type":"uint8","internalType":"uint8"}],"stateMutability":"view"},{"type":"function","name":"mint","inputs":[{"name":"_to","type":"address","internalType":"address"},{"name":"_amount","type":"uint256","internalType":"uint256"}],"outputs":[],"stateMutability":"nonpayable"},{"type":"function","name":"name","inputs":[],"outputs":[{"name":"","type":"string","internalType":"string"}],"stateMutability":"view"},{"type":"function","name":"symbol","inputs":[],"outputs":[{"name":"","type":"string","internalType":"string"}],"stateMutability":"view"},{"type":"function","name":"totalSupply","inputs":[],"outputs":[{"name":"","type":"uint256","internalType":"uint256"}],"stateMutability":"view"},{"type":"function","name":"transfer","inputs":[{"name":"to","type":"address","internalType":"address"},{"name":"value","type":"uint256","internalType":"uint256"}],"outputs":[{"name":"","type":"bool","internalType":"bool"}],"stateMutability":"nonpayable"},{"type":"function","name":"transferFrom","inputs":[{"name":"from","type":"address","internalType":"address"},{"name":"to","type":"address","internalType":"address"},{"name":"value","type":"uint256","internalType":"uint256"}],"outputs":[{"name":"","type":"bool","internalType":"bool"}],"stateMutability":"nonpayable"},{"type":"event","name":"Approval","inputs":[{"name":"owner","type":"address","indexed":true,"internalType":"address"},{"name":"spender","type":"address","indexed":true,"internalType":"address"},{"name":"value","type":"uint256","indexed":false,"internalType":"uint256"}],"anonymous":false},{"type":"event","name":"Transfer","inputs":[{"name":"from","type":"address","indexed":true,"internalType":"address"},{"name":"to","type":"address","indexed":true,"internalType":"address"},{"name":"value","type":"uint256","indexed":false,"internalType":"uint256"}],"anonymous":false},{"type":"error","name":"ERC20ExceededCap","inputs":[{"name":"increasedSupply","type":"uint256","internalType":"uint256"},{"name":"cap","type":"uint256","internalType":"uint256"}]},{"type":"error","name":"ERC20InsufficientAllowance","inputs":[{"name":"spender","type":"address","internalType":"address"},{"name":"allowance","type":"uint256","internalType":"uint256"},{"name":"needed","type":"uint256","internalType":"uint256"}]},{"type":"error","name":"ERC20InsufficientBalance","inputs":[{"name":"sender","type":"address","internalType":"address"},{"name":"balance","type":"uint256","internalType":"uint256"},{"name":"needed","type":"uint256","internalType":"uint256"}]},{"type":"error","name":"ERC20InvalidApprover","inputs":[{"name":"approver","type":"address","internalType":"address"}]},{"type":"error","name":"ERC20InvalidCap","inputs":[{"name":"cap","type":"uint256","internalType":"uint256"}]},{"type":"error","name":"ERC20InvalidReceiver","inputs":[{"name":"receiver","type":"address","internalType":"address"}]},{"type":"error","name":"ERC20InvalidSender","inputs":[{"name":"sender","type":"address","internalType":"address"}]},{"type":"error","name":"ERC20InvalidSpender","inputs":[{"name":"spender","type":"address","internalType":"address"}]},{"type":"error","name":"UnauthorizedCaller","inputs":[]}],"bytecode":{"object":"0x60c06040523480156200001157600080fd5b5060405162000dd638038062000dd68339810160408190526200003491620002c2565b8083604051806040016040528060088152602001673b2b3b2a37b5b2b760c11b815250604051806040016040528060038152602001622b2b2b60e91b8152508160039081620000849190620003b0565b506004620000938282620003b0565b50505080600003620000c05760405163392e1e2760e01b8152600060048201526024015b60405180910390fd5b6080526001600160a01b031660a052620000db3383620000e4565b505050620004a4565b6001600160a01b038216620001105760405163ec442f0560e01b815260006004820152602401620000b7565b6200011e6000838362000122565b5050565b6200012f8383836200018f565b6001600160a01b0383166200018a5760006200014a60805190565b905060006200015860025490565b905081811115620001875760405163279e7e1560e21b81526004810182905260248101839052604401620000b7565b50505b505050565b6001600160a01b038316620001be578060026000828254620001b291906200047c565b90915550620002329050565b6001600160a01b03831660009081526020819052604090205481811015620002135760405163391434e360e21b81526001600160a01b03851660048201526024810182905260448101839052606401620000b7565b6001600160a01b03841660009081526020819052604090209082900390555b6001600160a01b03821662000250576002805482900390556200026f565b6001600160a01b03821660009081526020819052604090208054820190555b816001600160a01b0316836001600160a01b03167fddf252ad1be2c89b69c2b068fc378daa952ba7f163c4a11628f55a4df523b3ef83604051620002b591815260200190565b60405180910390a3505050565b600080600060608486031215620002d857600080fd5b83516020850151604086015191945092506001600160a01b0381168114620002ff57600080fd5b809150509250925092565b634e487b7160e01b600052604160045260246000fd5b600181811c908216806200033557607f821691505b6020821081036200035657634e487b7160e01b600052602260045260246000fd5b50919050565b601f8211156200018a576000816000526020600020601f850160051c81016020861015620003875750805b601f850160051c820191505b81811015620003a85782815560010162000393565b505050505050565b81516001600160401b03811115620003cc57620003cc6200030a565b620003e481620003dd845462000320565b846200035c565b602080601f8311600181146200041c5760008415620004035750858301515b600019600386901b1c1916600185901b178555620003a8565b600085815260208120601f198616915b828110156200044d578886015182559484019460019091019084016200042c565b50858210156200046c5787850151600019600388901b60f8161c191681555b5050505050600190811b01905550565b808201808211156200049e57634e487b7160e01b600052601160045260246000fd5b92915050565b60805160a051610905620004d160003960006102d801526000818161012501526105b001526109056000f3fe608060405234801561001057600080fd5b50600436106100a95760003560e01c8063355274ea11610071578063355274ea1461012357806340c10f191461014957806370a082311461015e57806395d89b4114610187578063a9059cbb1461018f578063dd62ed3e146101a257600080fd5b806306fdde03146100ae578063095ea7b3146100cc57806318160ddd146100ef57806323b872dd14610101578063313ce56714610114575b600080fd5b6100b66101db565b6040516100c3919061072c565b60405180910390f35b6100df6100da366004610797565b61026d565b60405190151581526020016100c3565b6002545b6040519081526020016100c3565b6100df61010f3660046107c1565b610287565b604051601281526020016100c3565b7f00000000000000000000000000000000000000000000000000000000000000006100f3565b61015c610157366004610797565b6102ab565b005b6100f361016c3660046107fd565b6001600160a01b031660009081526020819052604090205490565b6100b6610376565b6100df61019d366004610797565b610385565b6100f36101b036600461081f565b6001600160a01b03918216600090815260016020908152604080832093909416825291909152205490565b6060600380546101ea90610852565b80601f016020809104026020016040519081016040528092919081815260200182805461021690610852565b80156102635780601f1061023857610100808354040283529160200191610263565b820191906000526020600020905b81548152906001019060200180831161024657829003601f168201915b5050505050905090565b60003361027b818585610393565b60019150505b92915050565b6000336102958582856103a5565b6102a0858585610428565b506001949350505050565b604051637af97f4960e11b81523060048201526000356001600160e01b03191660248201523360448201527f00000000000000000000000000000000000000000000000000000000000000006001600160a01b03169063f5f2fe9290606401602060405180830381865afa158015610327573d6000803e3d6000fd5b505050506040513d601f19601f8201168201806040525081019061034b919061088c565b61036857604051635c427cd960e01b815260040160405180910390fd5b6103728282610487565b5050565b6060600480546101ea90610852565b60003361027b818585610428565b6103a083838360016104bd565b505050565b6001600160a01b038381166000908152600160209081526040808320938616835292905220546000198114610422578181101561041357604051637dc7a0d960e11b81526001600160a01b038416600482015260248101829052604481018390526064015b60405180910390fd5b610422848484840360006104bd565b50505050565b6001600160a01b03831661045257604051634b637e8f60e11b81526000600482015260240161040a565b6001600160a01b03821661047c5760405163ec442f0560e01b81526000600482015260240161040a565b6103a0838383610592565b6001600160a01b0382166104b15760405163ec442f0560e01b81526000600482015260240161040a565b61037260008383610592565b6001600160a01b0384166104e75760405163e602df0560e01b81526000600482015260240161040a565b6001600160a01b03831661051157604051634a1406b160e11b81526000600482015260240161040a565b6001600160a01b038085166000908152600160209081526040808320938716835292905220829055801561042257826001600160a01b0316846001600160a01b03167f8c5be1e5ebec7d5bd14f71427d1e84f3dd0314c0f7b2291e5b200ac8c7c3b9258460405161058491815260200190565b60405180910390a350505050565b61059d838383610602565b6001600160a01b0383166103a0576002547f000000000000000000000000000000000000000000000000000000000000000090818111156105fb5760405163279e7e1560e21b8152600481018290526024810183905260440161040a565b5050505050565b6001600160a01b03831661062d57806002600082825461062291906108ae565b9091555061069f9050565b6001600160a01b038316600090815260208190526040902054818110156106805760405163391434e360e21b81526001600160a01b0385166004820152602481018290526044810183905260640161040a565b6001600160a01b03841660009081526020819052604090209082900390555b6001600160a01b0382166106bb576002805482900390556106da565b6001600160a01b03821660009081526020819052604090208054820190555b816001600160a01b0316836001600160a01b03167fddf252ad1be2c89b69c2b068fc378daa952ba7f163c4a11628f55a4df523b3ef8360405161071f91815260200190565b60405180910390a3505050565b60006020808352835180602085015260005b8181101561075a5785810183015185820160400152820161073e565b506000604082860101526040601f19601f8301168501019250505092915050565b80356001600160a01b038116811461079257600080fd5b919050565b600080604083850312156107aa57600080fd5b6107b38361077b565b946020939093013593505050565b6000806000606084860312156107d657600080fd5b6107df8461077b565b92506107ed6020850161077b565b9150604084013590509250925092565b60006020828403121561080f57600080fd5b6108188261077b565b9392505050565b6000806040838503121561083257600080fd5b61083b8361077b565b91506108496020840161077b565b90509250929050565b600181811c9082168061086657607f821691505b60208210810361088657634e487b7160e01b600052602260045260246000fd5b50919050565b60006020828403121561089e57600080fd5b8151801515811461081857600080fd5b8082018082111561028157634e487b7160e01b600052601160045260246000fdfea2646970667358221220355348f4d3b79baca162141e4cbfe2f0746c3d07e5e3200a7b7ab506db1bcc5d64736f6c63430008170033","linkReferences":{}},"methodIdentifiers":{"allowance(address,address)":"dd62ed3e","approve(address,uint256)":"095ea7b3","balanceOf(address)":"70a08231","cap()":"355274ea","decimals()":"313ce567","mint(address,uint256)":"40c10f19","name()":"06fdde03","symbol()":"95d89b41","totalSupply()":"18160ddd","transfer(address,uint256)":"a9059cbb","transferFrom(address,address,uint256)":"23b872dd"},"id":6}