{"abi":[{"type":"constructor","inputs":[{"name":"_defaultAdminTransferDelay","type":"uint48","internalType":"uint48"},{"name":"_defaultAdmin","type":"address","internalType":"address"}],"stateMutability":"nonpayable"},{"type":"function","name":"DEFAULT_ADMIN_ROLE","inputs":[],"outputs":[{"name":"","type":"bytes32","internalType":"bytes32"}],"stateMutability":"view"},{"type":"function","name":"acceptDefaultAdminTransfer","inputs":[],"outputs":[],"stateMutability":"nonpayable"},{"type":"function","name":"beginDefaultAdminTransfer","inputs":[{"name":"newAdmin","type":"address","internalType":"address"}],"outputs":[],"stateMutability":"nonpayable"},{"type":"function","name":"cancelDefaultAdminTransfer","inputs":[],"outputs":[],"stateMutability":"nonpayable"},{"type":"function","name":"changeDefaultAdminDelay","inputs":[{"name":"newDelay","type":"uint48","internalType":"uint48"}],"outputs":[],"stateMutability":"nonpayable"},{"type":"function","name":"defaultAdmin","inputs":[],"outputs":[{"name":"","type":"address","internalType":"address"}],"stateMutability":"view"},{"type":"function","name":"defaultAdminDelay","inputs":[],"outputs":[{"name":"","type":"uint48","internalType":"uint48"}],"stateMutability":"view"},{"type":"function","name":"defaultAdminDelayIncreaseWait","inputs":[],"outputs":[{"name":"","type":"uint48","internalType":"uint48"}],"stateMutability":"view"},{"type":"function","name":"getRoleAdmin","inputs":[{"name":"role","type":"bytes32","internalType":"bytes32"}],"outputs":[{"name":"","type":"bytes32","internalType":"bytes32"}],"stateMutability":"view"},{"type":"function","name":"grantRole","inputs":[{"name":"role","type":"bytes32","internalType":"bytes32"},{"name":"account","type":"address","internalType":"address"}],"outputs":[],"stateMutability":"nonpayable"},{"type":"function","name":"hasRole","inputs":[{"name":"role","type":"bytes32","internalType":"bytes32"},{"name":"account","type":"address","internalType":"address"}],"outputs":[{"name":"","type":"bool","internalType":"bool"}],"stateMutability":"view"},{"type":"function","name":"isAuthorized","inputs":[{"name":"_contractToCall","type":"address","internalType":"address"},{"name":"_functionSelector","type":"bytes4","internalType":"bytes4"},{"name":"_caller","type":"address","internalType":"address"}],"outputs":[{"name":"","type":"bool","internalType":"bool"}],"stateMutability":"view"},{"type":"function","name":"owner","inputs":[],"outputs":[{"name":"","type":"address","internalType":"address"}],"stateMutability":"view"},{"type":"function","name":"pendingDefaultAdmin","inputs":[],"outputs":[{"name":"newAdmin","type":"address","internalType":"address"},{"name":"schedule","type":"uint48","internalType":"uint48"}],"stateMutability":"view"},{"type":"function","name":"pendingDefaultAdminDelay","inputs":[],"outputs":[{"name":"newDelay","type":"uint48","internalType":"uint48"},{"name":"schedule","type":"uint48","internalType":"uint48"}],"stateMutability":"view"},{"type":"function","name":"permissions","inputs":[{"name":"","type":"bytes24","internalType":"bytes24"}],"outputs":[{"name":"","type":"bytes32","internalType":"bytes32"}],"stateMutability":"view"},{"type":"function","name":"renounceRole","inputs":[{"name":"role","type":"bytes32","internalType":"bytes32"},{"name":"account","type":"address","internalType":"address"}],"outputs":[],"stateMutability":"nonpayable"},{"type":"function","name":"revokeRole","inputs":[{"name":"role","type":"bytes32","internalType":"bytes32"},{"name":"account","type":"address","internalType":"address"}],"outputs":[],"stateMutability":"nonpayable"},{"type":"function","name":"rollbackDefaultAdminDelay","inputs":[],"outputs":[],"stateMutability":"nonpayable"},{"type":"function","name":"setPermission","inputs":[{"name":"_contract","type":"address","internalType":"address"},{"name":"_functionSelector","type":"bytes4","internalType":"bytes4"},{"name":"_role","type":"bytes32","internalType":"bytes32"}],"outputs":[],"stateMutability":"nonpayable"},{"type":"function","name":"supportsInterface","inputs":[{"name":"interfaceId","type":"bytes4","internalType":"bytes4"}],"outputs":[{"name":"","type":"bool","internalType":"bool"}],"stateMutability":"view"},{"type":"event","name":"DefaultAdminDelayChangeCanceled","inputs":[],"anonymous":false},{"type":"event","name":"DefaultAdminDelayChangeScheduled","inputs":[{"name":"newDelay","type":"uint48","indexed":false,"internalType":"uint48"},{"name":"effectSchedule","type":"uint48","indexed":false,"internalType":"uint48"}],"anonymous":false},{"type":"event","name":"DefaultAdminTransferCanceled","inputs":[],"anonymous":false},{"type":"event","name":"DefaultAdminTransferScheduled","inputs":[{"name":"newAdmin","type":"address","indexed":true,"internalType":"address"},{"name":"acceptSchedule","type":"uint48","indexed":false,"internalType":"uint48"}],"anonymous":false},{"type":"event","name":"RoleAdminChanged","inputs":[{"name":"role","type":"bytes32","indexed":true,"internalType":"bytes32"},{"name":"previousAdminRole","type":"bytes32","indexed":true,"internalType":"bytes32"},{"name":"newAdminRole","type":"bytes32","indexed":true,"internalType":"bytes32"}],"anonymous":false},{"type":"event","name":"RoleGranted","inputs":[{"name":"role","type":"bytes32","indexed":true,"internalType":"bytes32"},{"name":"account","type":"address","indexed":true,"internalType":"address"},{"name":"sender","type":"address","indexed":true,"internalType":"address"}],"anonymous":false},{"type":"event","name":"RoleRevoked","inputs":[{"name":"role","type":"bytes32","indexed":true,"internalType":"bytes32"},{"name":"account","type":"address","indexed":true,"internalType":"address"},{"name":"sender","type":"address","indexed":true,"internalType":"address"}],"anonymous":false},{"type":"error","name":"AccessControlBadConfirmation","inputs":[]},{"type":"error","name":"AccessControlEnforcedDefaultAdminDelay","inputs":[{"name":"schedule","type":"uint48","internalType":"uint48"}]},{"type":"error","name":"AccessControlEnforcedDefaultAdminRules","inputs":[]},{"type":"error","name":"AccessControlInvalidDefaultAdmin","inputs":[{"name":"defaultAdmin","type":"address","internalType":"address"}]},{"type":"error","name":"AccessControlUnauthorizedAccount","inputs":[{"name":"account","type":"address","internalType":"address"},{"name":"neededRole","type":"bytes32","internalType":"bytes32"}]},{"type":"error","name":"SafeCastOverflowedUintDowncast","inputs":[{"name":"bits","type":"uint8","internalType":"uint8"},{"name":"value","type":"uint256","internalType":"uint256"}]}],"bytecode":{"object":"0x60806040523480156200001157600080fd5b50604051620010f7380380620010f78339810160408190526200003491620001c0565b81816001600160a01b0381166200006557604051636116401160e11b81526000600482015260240160405180910390fd5b600180546001600160d01b0316600160d01b65ffffffffffff851602179055620000916000826200009c565b505050505062000214565b600082620000fd576000620000b96002546001600160a01b031690565b6001600160a01b031614620000e157604051631fe1e13d60e11b815260040160405180910390fd5b600280546001600160a01b0319166001600160a01b0384161790555b62000109838362000112565b90505b92915050565b6000828152602081815260408083206001600160a01b038516845290915281205460ff16620001b7576000838152602081815260408083206001600160a01b03861684529091529020805460ff191660011790556200016e3390565b6001600160a01b0316826001600160a01b0316847f2f8788117e7eff1d82e926ec794901d17c78024a50270940304540a733656f0d60405160405180910390a45060016200010c565b5060006200010c565b60008060408385031215620001d457600080fd5b825165ffffffffffff81168114620001eb57600080fd5b60208401519092506001600160a01b03811681146200020957600080fd5b809150509250929050565b610ed380620002246000396000f3fe608060405234801561001057600080fd5b50600436106101375760003560e01c80638b421adf116100b8578063cc8463c81161007c578063cc8463c8146102a9578063cefc1429146102b1578063cf6eefb7146102b9578063d547741f146102e7578063d602b9fd146102fa578063f5f2fe921461030257600080fd5b80638b421adf1461024c5780638da5cb5b1461025f57806391d1485414610267578063a1eda53c1461027a578063a217fddf146102a157600080fd5b806336568abe116100ff57806336568abe146101ce578063634e93da146101e1578063649a5ec7146101f45780637a28b2701461020757806384ef8ffc1461022757600080fd5b806301ffc9a71461013c578063022d63fb146101645780630aa6220b14610180578063248a9ca31461018a5780632f2ff15d146101bb575b600080fd5b61014f61014a366004610cde565b610315565b60405190151581526020015b60405180910390f35b620697805b60405165ffffffffffff909116815260200161015b565b610188610340565b005b6101ad610198366004610cf9565b60009081526020819052604090206001015490565b60405190815260200161015b565b6101886101c9366004610d29565b610356565b6101886101dc366004610d29565b610382565b6101886101ef366004610d55565b61042e565b610188610202366004610d70565b610442565b6101ad610215366004610d98565b60036020526000908152604090205481565b6002546001600160a01b03165b6040516001600160a01b03909116815260200161015b565b61018861025a366004610dc3565b610456565b610234610490565b61014f610275366004610d29565b6104a9565b6102826104d2565b6040805165ffffffffffff93841681529290911660208301520161015b565b6101ad600081565b610169610526565b610188610585565b6102c16105c5565b604080516001600160a01b03909316835265ffffffffffff90911660208301520161015b565b6101886102f5366004610d29565b6105e6565b61018861060e565b61014f610310366004610dff565b610621565b60006001600160e01b031982166318a4c3c360e11b148061033a575061033a82610660565b92915050565b600061034b81610695565b61035361069f565b50565b8161037457604051631fe1e13d60e11b815260040160405180910390fd5b61037e82826106ac565b5050565b8115801561039d57506002546001600160a01b038281169116145b15610424576000806103ad6105c5565b90925090506001600160a01b0382161515806103cf575065ffffffffffff8116155b806103e257504265ffffffffffff821610155b1561040f576040516319ca5ebb60e01b815265ffffffffffff821660048201526024015b60405180910390fd5b50506001805465ffffffffffff60a01b191690555b61037e82826106d7565b600061043981610695565b61037e8261070f565b600061044d81610695565b61037e82610782565b600061046181610695565b600061046d85856107f2565b67ffffffffffffffff191660009081526003602052604090209290925550505050565b60006104a46002546001600160a01b031690565b905090565b6000918252602082815260408084206001600160a01b0393909316845291905290205460ff1690565b600254600090600160d01b900465ffffffffffff1680151580156104fe57504265ffffffffffff821610155b61050a5760008061051e565b600254600160a01b900465ffffffffffff16815b915091509091565b600254600090600160d01b900465ffffffffffff16801515801561055157504265ffffffffffff8216105b61056c57600154600160d01b900465ffffffffffff1661057f565b600254600160a01b900465ffffffffffff165b91505090565b600061058f6105c5565b509050336001600160a01b038216146105bd57604051636116401160e11b8152336004820152602401610406565b610353610842565b6001546001600160a01b03811691600160a01b90910465ffffffffffff1690565b8161060457604051631fe1e13d60e11b815260040160405180910390fd5b61037e82826108db565b600061061981610695565b610353610900565b60008061062e85856107f2565b67ffffffffffffffff19811660009081526003602052604090205490915061065681856104a9565b9695505050505050565b60006001600160e01b03198216637965db0b60e01b148061033a57506301ffc9a760e01b6001600160e01b031983161461033a565b610353813361090b565b6106aa600080610944565b565b6000828152602081905260409020600101546106c781610695565b6106d18383610a04565b50505050565b6001600160a01b03811633146107005760405163334bd91960e11b815260040160405180910390fd5b61070a8282610a73565b505050565b6000610719610526565b61072242610ab0565b61072c9190610e58565b90506107388282610ae7565b60405165ffffffffffff821681526001600160a01b038316907f3377dc44241e779dd06afab5b788a35ca5f3b778836e2990bdb26a2a4b2e5ed69060200160405180910390a25050565b600061078d82610b66565b61079642610ab0565b6107a09190610e58565b90506107ac8282610944565b6040805165ffffffffffff8085168252831660208201527ff1038c18cf84a56e432fdbfaf746924b7ea511dfe03a6506a0ceba4888788d9b910160405180910390a15050565b6040516bffffffffffffffffffffffff19606084901b1660208201526001600160e01b03198216603482015260009060380160405160208183030381529060405280519060200120905092915050565b60008061084d6105c5565b915091506108628165ffffffffffff16151590565b158061087657504265ffffffffffff821610155b1561089e576040516319ca5ebb60e01b815265ffffffffffff82166004820152602401610406565b6108ba60006108b56002546001600160a01b031690565b610a73565b506108c6600083610a04565b5050600180546001600160d01b031916905550565b6000828152602081905260409020600101546108f681610695565b6106d18383610a73565b6106aa600080610ae7565b61091582826104a9565b61037e5760405163e2517d3f60e01b81526001600160a01b038216600482015260248101839052604401610406565b600254600160d01b900465ffffffffffff1680156109c7574265ffffffffffff8216101561099d57600254600180546001600160d01b0316600160a01b90920465ffffffffffff16600160d01b029190911790556109c7565b6040517f2b1fa2edafe6f7b9e97c1a9e0c3660e645beb2dcaa2d45bdbf9beaf5472e1ec590600090a15b50600280546001600160a01b0316600160a01b65ffffffffffff948516026001600160d01b031617600160d01b9290931691909102919091179055565b600082610a62576000610a1f6002546001600160a01b031690565b6001600160a01b031614610a4657604051631fe1e13d60e11b815260040160405180910390fd5b600280546001600160a01b0319166001600160a01b0384161790555b610a6c8383610bae565b9392505050565b600082158015610a9057506002546001600160a01b038381169116145b15610aa657600280546001600160a01b03191690555b610a6c8383610c40565b600065ffffffffffff821115610ae3576040516306dfcc6560e41b81526030600482015260248101839052604401610406565b5090565b6000610af16105c5565b6001805465ffffffffffff8616600160a01b026001600160d01b03199091166001600160a01b038816171790559150610b3390508165ffffffffffff16151590565b1561070a576040517f8886ebfc4259abdbc16601dd8fb5678e54878f47b3c34836cfc51154a960510990600090a1505050565b600080610b71610526565b90508065ffffffffffff168365ffffffffffff1611610b9957610b948382610e7e565b610a6c565b610a6c65ffffffffffff841662069780610cab565b6000610bba83836104a9565b610c38576000838152602081815260408083206001600160a01b03861684529091529020805460ff19166001179055610bf03390565b6001600160a01b0316826001600160a01b0316847f2f8788117e7eff1d82e926ec794901d17c78024a50270940304540a733656f0d60405160405180910390a450600161033a565b50600061033a565b6000610c4c83836104a9565b15610c38576000838152602081815260408083206001600160a01b0386168085529252808320805460ff1916905551339286917ff6391f5c32d9c69d2a47ea670b442974b53935d1edc7fd64eb21e047a839171b9190a450600161033a565b6000818310610cba5781610a6c565b5090919050565b80356001600160e01b031981168114610cd957600080fd5b919050565b600060208284031215610cf057600080fd5b610a6c82610cc1565b600060208284031215610d0b57600080fd5b5035919050565b80356001600160a01b0381168114610cd957600080fd5b60008060408385031215610d3c57600080fd5b82359150610d4c60208401610d12565b90509250929050565b600060208284031215610d6757600080fd5b610a6c82610d12565b600060208284031215610d8257600080fd5b813565ffffffffffff81168114610a6c57600080fd5b600060208284031215610daa57600080fd5b813567ffffffffffffffff1981168114610a6c57600080fd5b600080600060608486031215610dd857600080fd5b610de184610d12565b9250610def60208501610cc1565b9150604084013590509250925092565b600080600060608486031215610e1457600080fd5b610e1d84610d12565b9250610e2b60208501610cc1565b9150610e3960408501610d12565b90509250925092565b634e487b7160e01b600052601160045260246000fd5b65ffffffffffff818116838216019080821115610e7757610e77610e42565b5092915050565b65ffffffffffff828116828216039080821115610e7757610e77610e4256fea2646970667358221220401099ba21a6879fecfb25b362bdaef7096c25ddb286d7cf7e6d00858a842bd364736f6c63430008170033","linkReferences":{}},"methodIdentifiers":{"DEFAULT_ADMIN_ROLE()":"a217fddf","acceptDefaultAdminTransfer()":"cefc1429","beginDefaultAdminTransfer(address)":"634e93da","cancelDefaultAdminTransfer()":"d602b9fd","changeDefaultAdminDelay(uint48)":"649a5ec7","defaultAdmin()":"84ef8ffc","defaultAdminDelay()":"cc8463c8","defaultAdminDelayIncreaseWait()":"022d63fb","getRoleAdmin(bytes32)":"248a9ca3","grantRole(bytes32,address)":"2f2ff15d","hasRole(bytes32,address)":"91d14854","isAuthorized(address,bytes4,address)":"f5f2fe92","owner()":"8da5cb5b","pendingDefaultAdmin()":"cf6eefb7","pendingDefaultAdminDelay()":"a1eda53c","permissions(bytes24)":"7a28b270","renounceRole(bytes32,address)":"36568abe","revokeRole(bytes32,address)":"d547741f","rollbackDefaultAdminDelay()":"0aa6220b","setPermission(address,bytes4,bytes32)":"8b421adf","supportsInterface(bytes4)":"01ffc9a7"},"id":0}