{
  "abi": [
    {
      "inputs": [
        {
          "internalType": "address",
          "name": "allo",
          "type": "address"
        },
        {
          "internalType": "string",
          "name": "name",
          "type": "string"
        }
      ],
      "stateMutability": "nonpayable",
      "type": "constructor"
    },
    {
      "inputs": [],
      "name": "ALLOCATION_ACTIVE",
      "type": "error"
    },
    {
      "inputs": [],
      "name": "ALLOCATION_NOT_ACTIVE",
      "type": "error"
    },
    {
      "inputs": [],
      "name": "ALLOCATION_NOT_ENDED",
      "type": "error"
    },
    {
      "inputs": [],
      "name": "ALREADY_INITIALIZED",
      "type": "error"
    },
    {
      "inputs": [],
      "name": "AMOUNT_MISMATCH",
      "type": "error"
    },
    {
      "inputs": [],
      "name": "ANCHOR_ERROR",
      "type": "error"
    },
    {
      "inputs": [],
      "name": "ARRAY_MISMATCH",
      "type": "error"
    },
    {
      "inputs": [],
      "name": "INVALID",
      "type": "error"
    },
    {
      "inputs": [],
      "name": "INVALID_ADDRESS",
      "type": "error"
    },
    {
      "inputs": [],
      "name": "INVALID_FEE",
      "type": "error"
    },
    {
      "inputs": [],
      "name": "INVALID_METADATA",
      "type": "error"
    },
    {
      "inputs": [],
      "name": "INVALID_REGISTRATION",
      "type": "error"
    },
    {
      "inputs": [],
      "name": "IS_APPROVED_STRATEGY",
      "type": "error"
    },
    {
      "inputs": [],
      "name": "MISMATCH",
      "type": "error"
    },
    {
      "inputs": [],
      "name": "NONCE_NOT_AVAILABLE",
      "type": "error"
    },
    {
      "inputs": [],
      "name": "NOT_APPROVED_STRATEGY",
      "type": "error"
    },
    {
      "inputs": [],
      "name": "NOT_ENOUGH_FUNDS",
      "type": "error"
    },
    {
      "inputs": [],
      "name": "NOT_INITIALIZED",
      "type": "error"
    },
    {
      "inputs": [],
      "name": "NOT_PENDING_OWNER",
      "type": "error"
    },
    {
      "inputs": [],
      "name": "POOL_ACTIVE",
      "type": "error"
    },
    {
      "inputs": [],
      "name": "POOL_INACTIVE",
      "type": "error"
    },
    {
      "inputs": [],
      "name": "RECIPIENT_ALREADY_ACCEPTED",
      "type": "error"
    },
    {
      "inputs": [
        {
          "internalType": "address",
          "name": "recipientId",
          "type": "address"
        }
      ],
      "name": "RECIPIENT_ERROR",
      "type": "error"
    },
    {
      "inputs": [],
      "name": "RECIPIENT_NOT_ACCEPTED",
      "type": "error"
    },
    {
      "inputs": [],
      "name": "REGISTRATION_NOT_ACTIVE",
      "type": "error"
    },
    {
      "inputs": [],
      "name": "UNAUTHORIZED",
      "type": "error"
    },
    {
      "inputs": [],
      "name": "ZERO_ADDRESS",
      "type": "error"
    },
    {
      "anonymous": false,
      "inputs": [
        {
          "indexed": true,
          "internalType": "address",
          "name": "recipientId",
          "type": "address"
        },
        {
          "indexed": false,
          "internalType": "uint256",
          "name": "votes",
          "type": "uint256"
        },
        {
          "indexed": false,
          "internalType": "address",
          "name": "allocator",
          "type": "address"
        }
      ],
      "name": "Allocated",
      "type": "event"
    },
    {
      "anonymous": false,
      "inputs": [
        {
          "indexed": true,
          "internalType": "address",
          "name": "recipientId",
          "type": "address"
        },
        {
          "indexed": false,
          "internalType": "uint256",
          "name": "amount",
          "type": "uint256"
        },
        {
          "indexed": false,
          "internalType": "address",
          "name": "token",
          "type": "address"
        },
        {
          "indexed": false,
          "internalType": "address",
          "name": "sender",
          "type": "address"
        }
      ],
      "name": "Allocated",
      "type": "event"
    },
    {
      "anonymous": false,
      "inputs": [
        {
          "indexed": true,
          "internalType": "address",
          "name": "recipientId",
          "type": "address"
        },
        {
          "indexed": false,
          "internalType": "address",
          "name": "recipientAddress",
          "type": "address"
        },
        {
          "indexed": false,
          "internalType": "uint256",
          "name": "amount",
          "type": "uint256"
        },
        {
          "indexed": false,
          "internalType": "address",
          "name": "sender",
          "type": "address"
        }
      ],
      "name": "Distributed",
      "type": "event"
    },
    {
      "anonymous": false,
      "inputs": [
        {
          "indexed": false,
          "internalType": "address",
          "name": "allo",
          "type": "address"
        },
        {
          "indexed": false,
          "internalType": "bytes32",
          "name": "profileId",
          "type": "bytes32"
        },
        {
          "indexed": false,
          "internalType": "uint256",
          "name": "poolId",
          "type": "uint256"
        },
        {
          "indexed": false,
          "internalType": "bytes",
          "name": "data",
          "type": "bytes"
        }
      ],
      "name": "Initialized",
      "type": "event"
    },
    {
      "anonymous": false,
      "inputs": [
        {
          "indexed": false,
          "internalType": "bool",
          "name": "active",
          "type": "bool"
        }
      ],
      "name": "PoolActive",
      "type": "event"
    },
    {
      "anonymous": false,
      "inputs": [
        {
          "indexed": true,
          "internalType": "address",
          "name": "recipientId",
          "type": "address"
        },
        {
          "indexed": false,
          "internalType": "enum IStrategy.Status",
          "name": "status",
          "type": "uint8"
        },
        {
          "indexed": false,
          "internalType": "address",
          "name": "sender",
          "type": "address"
        }
      ],
      "name": "RecipientStatusUpdated",
      "type": "event"
    },
    {
      "anonymous": false,
      "inputs": [
        {
          "indexed": true,
          "internalType": "address",
          "name": "recipientId",
          "type": "address"
        },
        {
          "indexed": false,
          "internalType": "bytes",
          "name": "data",
          "type": "bytes"
        },
        {
          "indexed": false,
          "internalType": "address",
          "name": "sender",
          "type": "address"
        }
      ],
      "name": "Registered",
      "type": "event"
    },
    {
      "anonymous": false,
      "inputs": [
        {
          "indexed": true,
          "internalType": "address",
          "name": "recipientId",
          "type": "address"
        },
        {
          "indexed": false,
          "internalType": "enum IStrategy.Status",
          "name": "status",
          "type": "uint8"
        },
        {
          "indexed": false,
          "internalType": "address",
          "name": "sender",
          "type": "address"
        }
      ],
      "name": "Reviewed",
      "type": "event"
    },
    {
      "anonymous": false,
      "inputs": [
        {
          "indexed": false,
          "internalType": "uint64",
          "name": "registrationStartTime",
          "type": "uint64"
        },
        {
          "indexed": false,
          "internalType": "uint64",
          "name": "registrationEndTime",
          "type": "uint64"
        },
        {
          "indexed": false,
          "internalType": "uint64",
          "name": "allocationStartTime",
          "type": "uint64"
        },
        {
          "indexed": false,
          "internalType": "uint64",
          "name": "allocationEndTime",
          "type": "uint64"
        },
        {
          "indexed": false,
          "internalType": "address",
          "name": "sender",
          "type": "address"
        }
      ],
      "name": "TimestampsUpdated",
      "type": "event"
    },
    {
      "anonymous": false,
      "inputs": [
        {
          "indexed": true,
          "internalType": "address",
          "name": "recipientId",
          "type": "address"
        },
        {
          "indexed": false,
          "internalType": "bytes",
          "name": "data",
          "type": "bytes"
        },
        {
          "indexed": false,
          "internalType": "address",
          "name": "sender",
          "type": "address"
        },
        {
          "indexed": false,
          "internalType": "enum IStrategy.Status",
          "name": "status",
          "type": "uint8"
        }
      ],
      "name": "UpdatedRegistration",
      "type": "event"
    },
    {
      "inputs": [],
      "name": "NATIVE",
      "outputs": [
        {
          "internalType": "address",
          "name": "",
          "type": "address"
        }
      ],
      "stateMutability": "view",
      "type": "function"
    },
    {
      "inputs": [
        {
          "internalType": "bytes",
          "name": "_data",
          "type": "bytes"
        },
        {
          "internalType": "address",
          "name": "_sender",
          "type": "address"
        }
      ],
      "name": "allocate",
      "outputs": [],
      "stateMutability": "payable",
      "type": "function"
    },
    {
      "inputs": [],
      "name": "allocationEndTime",
      "outputs": [
        {
          "internalType": "uint64",
          "name": "",
          "type": "uint64"
        }
      ],
      "stateMutability": "view",
      "type": "function"
    },
    {
      "inputs": [],
      "name": "allocationStartTime",
      "outputs": [
        {
          "internalType": "uint64",
          "name": "",
          "type": "uint64"
        }
      ],
      "stateMutability": "view",
      "type": "function"
    },
    {
      "inputs": [
        {
          "internalType": "address",
          "name": "",
          "type": "address"
        }
      ],
      "name": "allocators",
      "outputs": [
        {
          "internalType": "uint256",
          "name": "voiceCredits",
          "type": "uint256"
        }
      ],
      "stateMutability": "view",
      "type": "function"
    },
    {
      "inputs": [
        {
          "internalType": "address[]",
          "name": "_recipientIds",
          "type": "address[]"
        },
        {
          "internalType": "bytes",
          "name": "_data",
          "type": "bytes"
        },
        {
          "internalType": "address",
          "name": "_sender",
          "type": "address"
        }
      ],
      "name": "distribute",
      "outputs": [],
      "stateMutability": "nonpayable",
      "type": "function"
    },
    {
      "inputs": [],
      "name": "getAllo",
      "outputs": [
        {
          "internalType": "contract IAllo",
          "name": "",
          "type": "address"
        }
      ],
      "stateMutability": "view",
      "type": "function"
    },
    {
      "inputs": [
        {
          "internalType": "address[]",
          "name": "_recipientIds",
          "type": "address[]"
        },
        {
          "internalType": "bytes[]",
          "name": "_data",
          "type": "bytes[]"
        }
      ],
      "name": "getPayouts",
      "outputs": [
        {
          "components": [
            {
              "internalType": "address",
              "name": "recipientAddress",
              "type": "address"
            },
            {
              "internalType": "uint256",
              "name": "amount",
              "type": "uint256"
            }
          ],
          "internalType": "struct IStrategy.PayoutSummary[]",
          "name": "",
          "type": "tuple[]"
        }
      ],
      "stateMutability": "view",
      "type": "function"
    },
    {
      "inputs": [],
      "name": "getPoolAmount",
      "outputs": [
        {
          "internalType": "uint256",
          "name": "",
          "type": "uint256"
        }
      ],
      "stateMutability": "view",
      "type": "function"
    },
    {
      "inputs": [],
      "name": "getPoolId",
      "outputs": [
        {
          "internalType": "uint256",
          "name": "",
          "type": "uint256"
        }
      ],
      "stateMutability": "view",
      "type": "function"
    },
    {
      "inputs": [
        {
          "internalType": "address",
          "name": "_recipientId",
          "type": "address"
        }
      ],
      "name": "getRecipient",
      "outputs": [
        {
          "components": [
            {
              "internalType": "uint256",
              "name": "totalVotesReceived",
              "type": "uint256"
            },
            {
              "internalType": "bool",
              "name": "useRegistryAnchor",
              "type": "bool"
            },
            {
              "internalType": "address",
              "name": "recipientAddress",
              "type": "address"
            },
            {
              "components": [
                {
                  "internalType": "uint256",
                  "name": "protocol",
                  "type": "uint256"
                },
                {
                  "internalType": "string",
                  "name": "pointer",
                  "type": "string"
                }
              ],
              "internalType": "struct Metadata",
              "name": "metadata",
              "type": "tuple"
            },
            {
              "internalType": "enum IStrategy.Status",
              "name": "recipientStatus",
              "type": "uint8"
            }
          ],
          "internalType": "struct QVBaseStrategy.Recipient",
          "name": "",
          "type": "tuple"
        }
      ],
      "stateMutability": "view",
      "type": "function"
    },
    {
      "inputs": [
        {
          "internalType": "address",
          "name": "_recipientId",
          "type": "address"
        }
      ],
      "name": "getRecipientStatus",
      "outputs": [
        {
          "internalType": "enum IStrategy.Status",
          "name": "",
          "type": "uint8"
        }
      ],
      "stateMutability": "view",
      "type": "function"
    },
    {
      "inputs": [],
      "name": "getStrategyId",
      "outputs": [
        {
          "internalType": "bytes32",
          "name": "",
          "type": "bytes32"
        }
      ],
      "stateMutability": "view",
      "type": "function"
    },
    {
      "inputs": [
        {
          "internalType": "uint256",
          "name": "_amount",
          "type": "uint256"
        }
      ],
      "name": "increasePoolAmount",
      "outputs": [],
      "stateMutability": "nonpayable",
      "type": "function"
    },
    {
      "inputs": [
        {
          "internalType": "uint256",
          "name": "_poolId",
          "type": "uint256"
        },
        {
          "internalType": "bytes",
          "name": "_data",
          "type": "bytes"
        }
      ],
      "name": "initialize",
      "outputs": [],
      "stateMutability": "nonpayable",
      "type": "function"
    },
    {
      "inputs": [],
      "name": "isPoolActive",
      "outputs": [
        {
          "internalType": "bool",
          "name": "",
          "type": "bool"
        }
      ],
      "stateMutability": "view",
      "type": "function"
    },
    {
      "inputs": [
        {
          "internalType": "address",
          "name": "_allocator",
          "type": "address"
        }
      ],
      "name": "isValidAllocator",
      "outputs": [
        {
          "internalType": "bool",
          "name": "",
          "type": "bool"
        }
      ],
      "stateMutability": "view",
      "type": "function"
    },
    {
      "inputs": [],
      "name": "metadataRequired",
      "outputs": [
        {
          "internalType": "bool",
          "name": "",
          "type": "bool"
        }
      ],
      "stateMutability": "view",
      "type": "function"
    },
    {
      "inputs": [
        {
          "internalType": "address",
          "name": "",
          "type": "address"
        }
      ],
      "name": "paidOut",
      "outputs": [
        {
          "internalType": "bool",
          "name": "",
          "type": "bool"
        }
      ],
      "stateMutability": "view",
      "type": "function"
    },
    {
      "inputs": [
        {
          "internalType": "address",
          "name": "",
          "type": "address"
        }
      ],
      "name": "recipients",
      "outputs": [
        {
          "internalType": "uint256",
          "name": "totalVotesReceived",
          "type": "uint256"
        },
        {
          "internalType": "bool",
          "name": "useRegistryAnchor",
          "type": "bool"
        },
        {
          "internalType": "address",
          "name": "recipientAddress",
          "type": "address"
        },
        {
          "components": [
            {
              "internalType": "uint256",
              "name": "protocol",
              "type": "uint256"
            },
            {
              "internalType": "string",
              "name": "pointer",
              "type": "string"
            }
          ],
          "internalType": "struct Metadata",
          "name": "metadata",
          "type": "tuple"
        },
        {
          "internalType": "enum IStrategy.Status",
          "name": "recipientStatus",
          "type": "uint8"
        }
      ],
      "stateMutability": "view",
      "type": "function"
    },
    {
      "inputs": [
        {
          "internalType": "bytes",
          "name": "_data",
          "type": "bytes"
        },
        {
          "internalType": "address",
          "name": "_sender",
          "type": "address"
        }
      ],
      "name": "registerRecipient",
      "outputs": [
        {
          "internalType": "address",
          "name": "recipientId",
          "type": "address"
        }
      ],
      "stateMutability": "payable",
      "type": "function"
    },
    {
      "inputs": [],
      "name": "registrationEndTime",
      "outputs": [
        {
          "internalType": "uint64",
          "name": "",
          "type": "uint64"
        }
      ],
      "stateMutability": "view",
      "type": "function"
    },
    {
      "inputs": [],
      "name": "registrationStartTime",
      "outputs": [
        {
          "internalType": "uint64",
          "name": "",
          "type": "uint64"
        }
      ],
      "stateMutability": "view",
      "type": "function"
    },
    {
      "inputs": [],
      "name": "registryGating",
      "outputs": [
        {
          "internalType": "bool",
          "name": "",
          "type": "bool"
        }
      ],
      "stateMutability": "view",
      "type": "function"
    },
    {
      "inputs": [
        {
          "internalType": "address[]",
          "name": "_recipientIds",
          "type": "address[]"
        },
        {
          "internalType": "enum IStrategy.Status[]",
          "name": "_recipientStatuses",
          "type": "uint8[]"
        }
      ],
      "name": "reviewRecipients",
      "outputs": [],
      "stateMutability": "nonpayable",
      "type": "function"
    },
    {
      "inputs": [],
      "name": "reviewThreshold",
      "outputs": [
        {
          "internalType": "uint256",
          "name": "",
          "type": "uint256"
        }
      ],
      "stateMutability": "view",
      "type": "function"
    },
    {
      "inputs": [
        {
          "internalType": "address",
          "name": "",
          "type": "address"
        },
        {
          "internalType": "enum IStrategy.Status",
          "name": "",
          "type": "uint8"
        }
      ],
      "name": "reviewsByStatus",
      "outputs": [
        {
          "internalType": "uint256",
          "name": "",
          "type": "uint256"
        }
      ],
      "stateMutability": "view",
      "type": "function"
    },
    {
      "inputs": [],
      "name": "totalRecipientVotes",
      "outputs": [
        {
          "internalType": "uint256",
          "name": "",
          "type": "uint256"
        }
      ],
      "stateMutability": "view",
      "type": "function"
    },
    {
      "inputs": [
        {
          "internalType": "uint64",
          "name": "_registrationStartTime",
          "type": "uint64"
        },
        {
          "internalType": "uint64",
          "name": "_registrationEndTime",
          "type": "uint64"
        },
        {
          "internalType": "uint64",
          "name": "_allocationStartTime",
          "type": "uint64"
        },
        {
          "internalType": "uint64",
          "name": "_allocationEndTime",
          "type": "uint64"
        }
      ],
      "name": "updatePoolTimestamps",
      "outputs": [],
      "stateMutability": "nonpayable",
      "type": "function"
    }
  ],
  "bytecode": {
    "object": "0x60c06040523480156200001157600080fd5b5060405162002dba38038062002dba8339810160408190526200003491620000c0565b6001600160a01b03821660805260405182908290829082906200005c9082906020016200019b565b60408051601f19818403018152919052805160209091012060a05250620001d0945050505050565b634e487b7160e01b600052604160045260246000fd5b60005b83811015620000b75781810151838201526020016200009d565b50506000910152565b60008060408385031215620000d457600080fd5b82516001600160a01b0381168114620000ec57600080fd5b60208401519092506001600160401b03808211156200010a57600080fd5b818501915085601f8301126200011f57600080fd5b81518181111562000134576200013462000084565b604051601f8201601f19908116603f011681019083821181831017156200015f576200015f62000084565b816040528281528860208487010111156200017957600080fd5b6200018c8360208301602088016200009a565b80955050505050509250929050565b6020815260008251806020840152620001bc8160408501602087016200009a565b601f01601f19169190910160400192915050565b60805160a051612ba86200021260003960006102ff01526000818161027001528181610bac01528181610d4101528181610eb201526118200152612ba86000f3fe6080604052600436106101c25760003560e01c80637f835983116100f7578063d2e17f5911610095578063eb82031211610064578063eb82031214610598578063edd146cc146105c9578063ef2920fc146105e9578063f5b0dfb7146105fc57600080fd5b8063d2e17f5914610501578063df868ed314610529578063dff7d2c71461053e578063eb11af931461056b57600080fd5b8063a0cf0aea116100d1578063a0cf0aea14610473578063a647d23e1461049b578063b2b878d0146104b5578063cb0e85a6146104e257600080fd5b80637f8359831461040257806381f03fcb146104225780639af5c09d1461045257600080fd5b806342fda9c7116101645780634d31d0871161013e5780634d31d0871461037957806357825849146103a957806359010701146103bf57806362812a39146103d557600080fd5b806342fda9c7146102f05780634533d678146103235780634ab4ba421461036457600080fd5b806315cc481e116101a057806315cc481e146102615780632143e92f146102a85780632bbe0cae146102c857806338fff2d0146102db57600080fd5b8063084ea36e146101c75780630a6f0ee9146102075780630d93bb5314610229575b600080fd5b3480156101d357600080fd5b506101f46101e2366004611e66565b60086020526000908152604090205481565b6040519081526020015b60405180910390f35b34801561021357600080fd5b5061022761022236600461200b565b61061c565b005b34801561023557600080fd5b506101f4610244366004612097565b600a60209081526000928352604080842090915290825290205481565b34801561026d57600080fd5b507f00000000000000000000000000000000000000000000000000000000000000005b6040516001600160a01b0390911681526020016101fe565b3480156102b457600080fd5b506102276102c33660046120e2565b61063c565b6102906102d636600461213e565b610659565b3480156102e757600080fd5b506001546101f4565b3480156102fc57600080fd5b507f00000000000000000000000000000000000000000000000000000000000000006101f4565b34801561032f57600080fd5b5060055461034b90600160c01b900467ffffffffffffffff1681565b60405167ffffffffffffffff90911681526020016101fe565b34801561037057600080fd5b506002546101f4565b34801561038557600080fd5b50610399610394366004611e66565b61067e565b60405190151581526020016101fe565b3480156103b557600080fd5b506101f460045481565b3480156103cb57600080fd5b506101f460035481565b3480156103e157600080fd5b506103f56103f0366004611e66565b610687565b6040516101fe9190612237565b34801561040e57600080fd5b5061022761041d3660046122e4565b610698565b34801561042e57600080fd5b5061039961043d366004611e66565b60096020526000908152604090205460ff1681565b34801561045e57600080fd5b5060055461034b9067ffffffffffffffff1681565b34801561047f57600080fd5b5061029073eeeeeeeeeeeeeeeeeeeeeeeeeeeeeeeeeeeeeeee81565b3480156104a757600080fd5b506006546103999060ff1681565b3480156104c157600080fd5b506104d56104d0366004612350565b610918565b6040516101fe9190612425565b3480156104ee57600080fd5b5060065461039990610100900460ff1681565b34801561050d57600080fd5b5060055461034b90600160801b900467ffffffffffffffff1681565b34801561053557600080fd5b50610399610a30565b34801561054a57600080fd5b5060055461034b9068010000000000000000900467ffffffffffffffff1681565b34801561057757600080fd5b5061058b610586366004611e66565b610a3f565b6040516101fe919061247d565b3480156105a457600080fd5b506105b86105b3366004611e66565b610a4a565b6040516101fe95949392919061248b565b3480156105d557600080fd5b506102276105e43660046124d4565b610b2f565b6102276105f736600461213e565b610b59565b34801561060857600080fd5b5061022761061736600461251b565b610b77565b610624610ba1565b61062c610bec565b610637838383610c28565b505050565b3361064681610e6f565b61065285858585610f3a565b5050505050565b6000610663610ba1565b61066b610bec565b61067583836110d4565b90505b92915050565b60006001610678565b61068f611dfd565b61067882611411565b336106a281610e6f565b6106aa611548565b838281146106cb57604051637fcce2a960e01b815260040160405180910390fd5b60005b8181101561090f5760008585838181106106ea576106ea612534565b90506020020160208101906106ff919061254a565b9050600088888481811061071557610715612534565b905060200201602081019061072a9190611e66565b90506000826006811115610740576107406121ff565b148061075d5750600482600681111561075b5761075b6121ff565b145b1561078b5760405163f4a513b960e01b81526001600160a01b03821660048201526024015b60405180910390fd5b6001600160a01b0381166000908152600a60205260408120908360068111156107b6576107b66121ff565b60068111156107c7576107c76121ff565b815260200190815260200160002060008154809291906107e69061257b565b90915550506004546001600160a01b0382166000908152600a6020526040812090846006811115610819576108196121ff565b600681111561082a5761082a6121ff565b815260200190815260200160002054106108c2576001600160a01b038116600090815260076020526040902060048101805484919060ff19166001836006811115610877576108776121ff565b0217905550816001600160a01b03167f45af2a5942640dc0876474f4fda063eec36dd5518e0bba47622461b993f762a38460006040516108b8929190612594565b60405180910390a2505b806001600160a01b03167f094d003df6c0153ac428d1a45e5827aa8e2aa00c6dbbc96a2dbb9a682115d83783336040516108fd929190612594565b60405180910390a250506001016106ce565b50505050505050565b81518151606091908114610958576040517f7b49805600000000000000000000000000000000000000000000000000000000815260040160405180910390fd5b60008167ffffffffffffffff81111561097357610973611e8a565b6040519080825280602002602001820160405280156109b857816020015b60408051808201909152600080825260208201528152602001906001900390816109915790505b50905060005b82811015610a2757610a028682815181106109db576109db612534565b60200260200101518683815181106109f5576109f5612534565b60200260200101516115b2565b828281518110610a1457610a14612534565b60209081029190910101526001016109be565b50949350505050565b6000610a3a611761565b905090565b6000610678826117ab565b6007602090815260009182526040918290208054600182015484518086019095526002830180548652600384018054939660ff8416966101009094046001600160a01b03169594909384019190610aa0906125b8565b80601f0160208091040260200160405190810160405280929190818152602001828054610acc906125b8565b8015610b195780601f10610aee57610100808354040283529160200191610b19565b820191906000526020600020905b815481529060010190602001808311610afc57829003601f168201915b5050509190925250505060049091015460ff1685565b610b37610ba1565b600081806020019051810190610b4d91906125fc565b905061063783826117c0565b610b61610ba1565b610b69610bec565b610b7382826118e0565b5050565b610b7f610ba1565b8060026000828254610b9191906126ad565b90915550610b9e90508181565b50565b336001600160a01b037f00000000000000000000000000000000000000000000000000000000000000001614610bea5760405163075fd2b160e01b815260040160405180910390fd5b565b600154600003610bea576040517f3da3f98c00000000000000000000000000000000000000000000000000000000815260040160405180910390fd5b80610c3281610e6f565b610c3a611933565b835160005b81811015610e67576000868281518110610c5b57610c5b612534565b60200260200101519050600060076000836001600160a01b03166001600160a01b0316815260200190815260200160002090506000610ca983604051806020016040528060008152506115b2565b6020808201516001600160a01b038616600090815260099092526040909120549192509060ff1680610cd9575060005b80610ce2575080155b15610d0b5760405163f4a513b960e01b81526001600160a01b0385166004820152602401610782565b6001546040517f068bcd8d0000000000000000000000000000000000000000000000000000000081526000916001600160a01b037f0000000000000000000000000000000000000000000000000000000000000000169163068bcd8d91610d789160040190815260200190565b600060405180830381865afa158015610d95573d6000803e3d6000fd5b505050506040513d6000823e601f3d908101601f19168201604052610dbd919081019061277f565b60408101516001860154919250610de29161010090046001600160a01b031684611980565b6001600160a01b03858116600081815260096020908152604091829020805460ff19166001908117909155880154825161010090910485168152908101869052928c1690830152907fb5b51454adfa840bd593658325a60a50b0216f12eb5d2937efe6cea935675b7d9060600160405180910390a28560010195505050505050610c3f565b505050505050565b6001546040517f29e40d4b00000000000000000000000000000000000000000000000000000000815260048101919091526001600160a01b0382811660248301527f000000000000000000000000000000000000000000000000000000000000000016906329e40d4b90604401602060405180830381865afa158015610ef9573d6000803e3d6000fd5b505050506040513d601f19601f82011682018060405250810190610f1d9190612833565b610b9e5760405163075fd2b160e01b815260040160405180910390fd5b8367ffffffffffffffff16421180610f6557508267ffffffffffffffff168467ffffffffffffffff16115b80610f8357508167ffffffffffffffff168467ffffffffffffffff16115b80610fa157508067ffffffffffffffff168267ffffffffffffffff16115b80610fbf57508067ffffffffffffffff168367ffffffffffffffff16115b15610fdd57604051637fcce2a960e01b815260040160405180910390fd5b6005805467ffffffffffffffff838116600160c01b90810277ffffffffffffffffffffffffffffffffffffffffffffffff878416600160801b908102919091166fffffffffffffffffffffffffffffffff8a8616680100000000000000009081027fffffffffffffffffffffffffffffffff000000000000000000000000000000009098168d88161797909717161791909117948590556040805186851681529486048416602086015290850483169084015290920490911660608201523360808201527fcb0fb7a7b87db2f472ee8977444cfdbc51993ce660aca27a5969a724fae6dcf39060a00160405180910390a150505050565b60006110de611548565b6000806000611100604051806040016040528060008152602001606081525090565b60065460ff1615611152578680602001905181019061111f919061284e565b9196509450905061113085876119c5565b61114d5760405163075fd2b160e01b815260040160405180910390fd5b6111bc565b86806020019051810190611166919061284e565b91955093506001600160a01b038416151592509050816111865785611188565b825b945081801561119e575061119c85876119c5565b155b156111bc5760405163075fd2b160e01b815260040160405180910390fd5b600654610100900460ff1680156111df575060208101515115806111df57508051155b15611216576040517fc19e07c500000000000000000000000000000000000000000000000000000000815260040160405180910390fd5b6001600160a01b0384166112485760405163f4a513b960e01b81526001600160a01b0386166004820152602401610782565b6001600160a01b038086166000908152600760209081526040909120600181018054938816610100027fffffffffffffffffffffff0000000000000000000000000000000000000000ff909416939093179092558251600283019081559083015183919060038401906112bb90826128f8565b505060065460ff1690506112cf57826112d2565b60015b60018201805460ff1916911515919091179055600481015460ff166000816006811115611301576113016121ff565b0361135f5760048201805460ff191660011790556040516001600160a01b038816907fa197306e3dd5494a61a695381aa809a53b8e377a685e84e404a85d5a8da6cc6290611352908c908c906129b8565b60405180910390a2611405565b6002816006811115611373576113736121ff565b0361138c5760048201805460ff191660011790556113b6565b60038160068111156113a0576113a06121ff565b036113b6576004828101805460ff191690911790555b60048201546040516001600160a01b038916917fcec1da3f7f0b8a344dd1025d06e2ddd48b14880395997ad97cbdb439acc761d4916113fc918d918d9160ff16906129e3565b60405180910390a25b50505050505092915050565b611419611dfd565b6001600160a01b03808316600090815260076020908152604091829020825160a08101845281548152600182015460ff811615158285015261010090049094168484015282518084019093526002810180548452600382018054929460608701949093908401919061148a906125b8565b80601f01602080910402602001604051908101604052809291908181526020018280546114b6906125b8565b80156115035780601f106114d857610100808354040283529160200191611503565b820191906000526020600020905b8154815290600101906020018083116114e657829003601f168201915b505050919092525050508152600482015460209091019060ff16600681111561152e5761152e6121ff565b600681111561153f5761153f6121ff565b90525092915050565b6005544267ffffffffffffffff909116118061157b575060055468010000000000000000900467ffffffffffffffff1642115b15610bea576040517fb609ed5a00000000000000000000000000000000000000000000000000000000815260040160405180910390fd5b604080518082018252600080825260208083018290526001600160a01b03868116835260078252848320855160a08101875281548152600182015460ff811615158286015261010090049092168287015285518087019096526002810180548752600382018054969795969395929460608701949084019190611634906125b8565b80601f0160208091040260200160405190810160405280929190818152602001828054611660906125b8565b80156116ad5780601f10611682576101008083540402835291602001916116ad565b820191906000526020600020905b81548152906001019060200180831161169057829003601f168201915b505050919092525050508152600482015460209091019060ff1660068111156116d8576116d86121ff565b60068111156116e9576116e96121ff565b9052506001600160a01b0385166000908152600960205260408120549192509060ff1615801561171a575060035415155b1561173e5760035482516002546117319190612a14565b61173b9190612a2b565b90505b6040805180820182529201516001600160a01b0316825260208201529392505050565b6005546000904267ffffffffffffffff9091161180159061179a575060055468010000000000000000900467ffffffffffffffff164211155b156117a55750600190565b50600090565b60006117b682611411565b6080015192915050565b6117c982611aff565b80516006805460208085015161ffff1990921693151561ff0019169390931761010091151591909102179055604080517f5ab1bd5300000000000000000000000000000000000000000000000000000000815290517f00000000000000000000000000000000000000000000000000000000000000006001600160a01b031692635ab1bd5392600480820193918290030181865afa15801561186f573d6000803e3d6000fd5b505050506040513d601f19601f820116820180604052508101906118939190612a4d565b600660026101000a8154816001600160a01b0302191690836001600160a01b031602179055508060400151600481905550610b73816060015182608001518360a001518460c00151610f3a565b600080838060200190518101906118f79190612a6a565b6001600160a01b03828116600090815260076020908152604080832093891683526008909152902092945090925090610e678183868689611b67565b600554600160c01b900467ffffffffffffffff16421015610bea576040517f8a879da200000000000000000000000000000000000000000000000000000000815260040160405180910390fd5b7fffffffffffffffffffffffff11111111111111111111111111111111111111126001600160a01b038416016119ba576106378282611cce565b610637838383611cea565b6006546040517fdd93da430000000000000000000000000000000000000000000000000000000081526001600160a01b0384811660048301526000928392620100009091049091169063dd93da4390602401600060405180830381865afa158015611a34573d6000803e3d6000fd5b505050506040513d6000823e601f3d908101601f19168201604052611a5c9190810190612a98565b60065481516040517f5e8a791500000000000000000000000000000000000000000000000000000000815260048101919091526001600160a01b0386811660248301529293506201000090910490911690635e8a791590604401602060405180830381865afa158015611ad3573d6000803e3d6000fd5b505050506040513d601f19601f82011682018060405250810190611af79190612833565b949350505050565b611b07610ba1565b60015415611b41576040517f439a74c900000000000000000000000000000000000000000000000000000000815260040160405180910390fd5b80600003611b6257604051637fcce2a960e01b815260040160405180910390fd5b600155565b611b6f611d39565b81600003611b9057604051637fcce2a960e01b815260040160405180910390fd5b6001600160a01b0383166000908152600186016020908152604080832054600289019092528220549091611bc483866126ad565b90506000611be2611bdd83670de0b6b3a7640000612a14565b611da4565b9050611bee8382612b5f565b90508060036000828254611c0291906126ad565b9091555050875481908990600090611c1b9084906126ad565b90915550506001600160a01b038716600090815260018a01602052604081208054849290611c4a9084906126ad565b90915550506001600160a01b038716600090815260028a01602052604081208054839290611c799084906126ad565b9091555050604080518281526001600160a01b0387811660208301528916917fe19137169fc4bceb2391a0921a61084851c12884df4897f569ec45a4ee46b7e3910160405180910390a2505050505050505050565b60008060008084865af1610b735763b12d13eb6000526004601cfd5b81601452806034526fa9059cbb00000000000000000000000060005260206000604460106000875af13d156001600051141716611d2f576390b8ec186000526004601cfd5b6000603452505050565b60055442600160801b90910467ffffffffffffffff161180611d6d5750600554600160c01b900467ffffffffffffffff1642115b15610bea576040517fb828c90000000000000000000000000000000000000000000000000000000000815260040160405180910390fd5b6000806002611db48460016126ad565b611dbe9190612a2b565b90508291505b81811015611df757905080600281611ddc8186612a2b565b611de691906126ad565b611df09190612a2b565b9050611dc4565b50919050565b6040518060a001604052806000815260200160001515815260200160006001600160a01b03168152602001611e45604051806040016040528060008152602001606081525090565b81526020016000905290565b6001600160a01b0381168114610b9e57600080fd5b600060208284031215611e7857600080fd5b8135611e8381611e51565b9392505050565b634e487b7160e01b600052604160045260246000fd5b60405160c0810167ffffffffffffffff81118282101715611ec357611ec3611e8a565b60405290565b604051601f8201601f1916810167ffffffffffffffff81118282101715611ef257611ef2611e8a565b604052919050565b600067ffffffffffffffff821115611f1457611f14611e8a565b5060051b60200190565b600082601f830112611f2f57600080fd5b81356020611f44611f3f83611efa565b611ec9565b82815260059290921b84018101918181019086841115611f6357600080fd5b8286015b84811015611f87578035611f7a81611e51565b8352918301918301611f67565b509695505050505050565b600067ffffffffffffffff821115611fac57611fac611e8a565b50601f01601f191660200190565b600082601f830112611fcb57600080fd5b8135611fd9611f3f82611f92565b818152846020838601011115611fee57600080fd5b816020850160208301376000918101602001919091529392505050565b60008060006060848603121561202057600080fd5b833567ffffffffffffffff8082111561203857600080fd5b61204487838801611f1e565b9450602086013591508082111561205a57600080fd5b5061206786828701611fba565b925050604084013561207881611e51565b809150509250925092565b80356007811061209257600080fd5b919050565b600080604083850312156120aa57600080fd5b82356120b581611e51565b91506120c360208401612083565b90509250929050565b67ffffffffffffffff81168114610b9e57600080fd5b600080600080608085870312156120f857600080fd5b8435612103816120cc565b93506020850135612113816120cc565b92506040850135612123816120cc565b91506060850135612133816120cc565b939692955090935050565b6000806040838503121561215157600080fd5b823567ffffffffffffffff81111561216857600080fd5b61217485828601611fba565b925050602083013561218581611e51565b809150509250929050565b60005b838110156121ab578181015183820152602001612193565b50506000910152565b600081518084526121cc816020860160208601612190565b601f01601f19169290920160200192915050565b805182526000602082015160406020850152611af760408501826121b4565b634e487b7160e01b600052602160045260246000fd5b6007811061223357634e487b7160e01b600052602160045260246000fd5b9052565b60208152815160208201526020820151151560408201526001600160a01b0360408301511660608201526000606083015160a0608084015261227c60c08401826121e0565b9050608084015161229060a0850182612215565b509392505050565b60008083601f8401126122aa57600080fd5b50813567ffffffffffffffff8111156122c257600080fd5b6020830191508360208260051b85010111156122dd57600080fd5b9250929050565b600080600080604085870312156122fa57600080fd5b843567ffffffffffffffff8082111561231257600080fd5b61231e88838901612298565b9096509450602087013591508082111561233757600080fd5b5061234487828801612298565b95989497509550505050565b6000806040838503121561236357600080fd5b823567ffffffffffffffff8082111561237b57600080fd5b61238786838701611f1e565b935060209150818501358181111561239e57600080fd5b8501601f810187136123af57600080fd5b80356123bd611f3f82611efa565b81815260059190911b820184019084810190898311156123dc57600080fd5b8584015b83811015612414578035868111156123f85760008081fd5b6124068c8983890101611fba565b8452509186019186016123e0565b508096505050505050509250929050565b602080825282518282018190526000919060409081850190868401855b8281101561247057815180516001600160a01b03168552860151868501529284019290850190600101612442565b5091979650505050505050565b602081016106788284612215565b85815284151560208201526001600160a01b038416604082015260a0606082015260006124bb60a08301856121e0565b90506124ca6080830184612215565b9695505050505050565b600080604083850312156124e757600080fd5b82359150602083013567ffffffffffffffff81111561250557600080fd5b61251185828601611fba565b9150509250929050565b60006020828403121561252d57600080fd5b5035919050565b634e487b7160e01b600052603260045260246000fd5b60006020828403121561255c57600080fd5b611e8382612083565b634e487b7160e01b600052601160045260246000fd5b60006001820161258d5761258d612565565b5060010190565b604081016125a28285612215565b6001600160a01b03831660208301529392505050565b600181811c908216806125cc57607f821691505b602082108103611df757634e487b7160e01b600052602260045260246000fd5b8051801515811461209257600080fd5b600060e0828403121561260e57600080fd5b60405160e0810181811067ffffffffffffffff8211171561263157612631611e8a565b60405261263d836125ec565b815261264b602084016125ec565b6020820152604083015160408201526060830151612668816120cc565b6060820152608083015161267b816120cc565b608082015260a083015161268e816120cc565b60a082015260c08301516126a1816120cc565b60c08201529392505050565b8082018082111561067857610678612565565b805161209281611e51565b600082601f8301126126dc57600080fd5b81516126ea611f3f82611f92565b8181528460208386010111156126ff57600080fd5b611af7826020830160208701612190565b60006040828403121561272257600080fd5b6040516040810167ffffffffffffffff828210818311171561274657612746611e8a565b8160405282935084518352602085015191508082111561276557600080fd5b50612772858286016126cb565b6020830152505092915050565b60006020828403121561279157600080fd5b815167ffffffffffffffff808211156127a957600080fd5b9083019060c082860312156127bd57600080fd5b6127c5611ea0565b8251815260208301516127d781611e51565b602082015260408301516127ea81611e51565b604082015260608301518281111561280157600080fd5b61280d87828601612710565b6060830152506080830151608082015260a083015160a082015280935050505092915050565b60006020828403121561284557600080fd5b611e83826125ec565b60008060006060848603121561286357600080fd5b835161286e81611e51565b602085015190935061287f81611e51565b604085015190925067ffffffffffffffff81111561289c57600080fd5b6128a886828701612710565b9150509250925092565b601f82111561063757600081815260208120601f850160051c810160208610156128d95750805b601f850160051c820191505b81811015610e67578281556001016128e5565b815167ffffffffffffffff81111561291257612912611e8a565b6129268161292084546125b8565b846128b2565b602080601f83116001811461295b57600084156129435750858301515b600019600386901b1c1916600185901b178555610e67565b600085815260208120601f198616915b8281101561298a5788860151825594840194600190910190840161296b565b50858210156129a85787850151600019600388901b60f8161c191681555b5050505050600190811b01905550565b6040815260006129cb60408301856121b4565b90506001600160a01b03831660208301529392505050565b6060815260006129f660608301866121b4565b90506001600160a01b0384166020830152611af76040830184612215565b808202811582820484141761067857610678612565565b600082612a4857634e487b7160e01b600052601260045260246000fd5b500490565b600060208284031215612a5f57600080fd5b8151611e8381611e51565b60008060408385031215612a7d57600080fd5b8251612a8881611e51565b6020939093015192949293505050565b600060208284031215612aaa57600080fd5b815167ffffffffffffffff80821115612ac257600080fd5b9083019060c08286031215612ad657600080fd5b612ade611ea0565b8251815260208301516020820152604083015182811115612afe57600080fd5b612b0a878286016126cb565b604083015250606083015182811115612b2257600080fd5b612b2e87828601612710565b606083015250612b40608084016126c0565b6080820152612b5160a084016126c0565b60a082015295945050505050565b818103818111156106785761067861256556fea26469706673582212201f2ff681cd4b10f749f9d5843dec3bca58e4a96d67868103ffc64ca2028096b964736f6c63430008130033",
    "linkReferences": {}
  },
  "methodIdentifiers": {
    "NATIVE()": "a0cf0aea",
    "allocate(bytes,address)": "ef2920fc",
    "allocationEndTime()": "4533d678",
    "allocationStartTime()": "d2e17f59",
    "allocators(address)": "084ea36e",
    "distribute(address[],bytes,address)": "0a6f0ee9",
    "getAllo()": "15cc481e",
    "getPayouts(address[],bytes[])": "b2b878d0",
    "getPoolAmount()": "4ab4ba42",
    "getPoolId()": "38fff2d0",
    "getRecipient(address)": "62812a39",
    "getRecipientStatus(address)": "eb11af93",
    "getStrategyId()": "42fda9c7",
    "increasePoolAmount(uint256)": "f5b0dfb7",
    "initialize(uint256,bytes)": "edd146cc",
    "isPoolActive()": "df868ed3",
    "isValidAllocator(address)": "4d31d087",
    "metadataRequired()": "cb0e85a6",
    "paidOut(address)": "81f03fcb",
    "recipients(address)": "eb820312",
    "registerRecipient(bytes,address)": "2bbe0cae",
    "registrationEndTime()": "dff7d2c7",
    "registrationStartTime()": "9af5c09d",
    "registryGating()": "a647d23e",
    "reviewRecipients(address[],uint8[])": "7f835983",
    "reviewThreshold()": "57825849",
    "reviewsByStatus(address,uint8)": "0d93bb53",
    "totalRecipientVotes()": "59010701",
    "updatePoolTimestamps(uint64,uint64,uint64,uint64)": "2143e92f"
  },
  "storageLayout": {
    "storage": [
      {
        "astId": 3267,
        "contract": "test/utils/QVBaseStrategyTestMock.sol:QVBaseStrategyTestMock",
        "label": "poolActive",
        "offset": 0,
        "slot": "0",
        "type": "t_bool"
      },
      {
        "astId": 3269,
        "contract": "test/utils/QVBaseStrategyTestMock.sol:QVBaseStrategyTestMock",
        "label": "poolId",
        "offset": 0,
        "slot": "1",
        "type": "t_uint256"
      },
      {
        "astId": 3271,
        "contract": "test/utils/QVBaseStrategyTestMock.sol:QVBaseStrategyTestMock",
        "label": "poolAmount",
        "offset": 0,
        "slot": "2",
        "type": "t_uint256"
      },
      {
        "astId": 14496,
        "contract": "test/utils/QVBaseStrategyTestMock.sol:QVBaseStrategyTestMock",
        "label": "totalRecipientVotes",
        "offset": 0,
        "slot": "3",
        "type": "t_uint256"
      },
      {
        "astId": 14499,
        "contract": "test/utils/QVBaseStrategyTestMock.sol:QVBaseStrategyTestMock",
        "label": "reviewThreshold",
        "offset": 0,
        "slot": "4",
        "type": "t_uint256"
      },
      {
        "astId": 14502,
        "contract": "test/utils/QVBaseStrategyTestMock.sol:QVBaseStrategyTestMock",
        "label": "registrationStartTime",
        "offset": 0,
        "slot": "5",
        "type": "t_uint64"
      },
      {
        "astId": 14504,
        "contract": "test/utils/QVBaseStrategyTestMock.sol:QVBaseStrategyTestMock",
        "label": "registrationEndTime",
        "offset": 8,
        "slot": "5",
        "type": "t_uint64"
      },
      {
        "astId": 14506,
        "contract": "test/utils/QVBaseStrategyTestMock.sol:QVBaseStrategyTestMock",
        "label": "allocationStartTime",
        "offset": 16,
        "slot": "5",
        "type": "t_uint64"
      },
      {
        "astId": 14508,
        "contract": "test/utils/QVBaseStrategyTestMock.sol:QVBaseStrategyTestMock",
        "label": "allocationEndTime",
        "offset": 24,
        "slot": "5",
        "type": "t_uint64"
      },
      {
        "astId": 14511,
        "contract": "test/utils/QVBaseStrategyTestMock.sol:QVBaseStrategyTestMock",
        "label": "registryGating",
        "offset": 0,
        "slot": "6",
        "type": "t_bool"
      },
      {
        "astId": 14514,
        "contract": "test/utils/QVBaseStrategyTestMock.sol:QVBaseStrategyTestMock",
        "label": "metadataRequired",
        "offset": 1,
        "slot": "6",
        "type": "t_bool"
      },
      {
        "astId": 14518,
        "contract": "test/utils/QVBaseStrategyTestMock.sol:QVBaseStrategyTestMock",
        "label": "_registry",
        "offset": 2,
        "slot": "6",
        "type": "t_contract(IRegistry)2625"
      },
      {
        "astId": 14569,
        "contract": "test/utils/QVBaseStrategyTestMock.sol:QVBaseStrategyTestMock",
        "label": "recipients",
        "offset": 0,
        "slot": "7",
        "type": "t_mapping(t_address,t_struct(Recipient)14552_storage)"
      },
      {
        "astId": 14575,
        "contract": "test/utils/QVBaseStrategyTestMock.sol:QVBaseStrategyTestMock",
        "label": "allocators",
        "offset": 0,
        "slot": "8",
        "type": "t_mapping(t_address,t_struct(Allocator)14563_storage)"
      },
      {
        "astId": 14580,
        "contract": "test/utils/QVBaseStrategyTestMock.sol:QVBaseStrategyTestMock",
        "label": "paidOut",
        "offset": 0,
        "slot": "9",
        "type": "t_mapping(t_address,t_bool)"
      },
      {
        "astId": 14587,
        "contract": "test/utils/QVBaseStrategyTestMock.sol:QVBaseStrategyTestMock",
        "label": "reviewsByStatus",
        "offset": 0,
        "slot": "10",
        "type": "t_mapping(t_address,t_mapping(t_enum(Status)2638,t_uint256))"
      }
    ],
    "types": {
      "t_address": {
        "encoding": "inplace",
        "label": "address",
        "numberOfBytes": "20"
      },
      "t_bool": {
        "encoding": "inplace",
        "label": "bool",
        "numberOfBytes": "1"
      },
      "t_contract(IRegistry)2625": {
        "encoding": "inplace",
        "label": "contract IRegistry",
        "numberOfBytes": "20"
      },
      "t_enum(Status)2638": {
        "encoding": "inplace",
        "label": "enum IStrategy.Status",
        "numberOfBytes": "1"
      },
      "t_mapping(t_address,t_bool)": {
        "encoding": "mapping",
        "key": "t_address",
        "label": "mapping(address => bool)",
        "numberOfBytes": "32",
        "value": "t_bool"
      },
      "t_mapping(t_address,t_mapping(t_enum(Status)2638,t_uint256))": {
        "encoding": "mapping",
        "key": "t_address",
        "label": "mapping(address => mapping(enum IStrategy.Status => uint256))",
        "numberOfBytes": "32",
        "value": "t_mapping(t_enum(Status)2638,t_uint256)"
      },
      "t_mapping(t_address,t_struct(Allocator)14563_storage)": {
        "encoding": "mapping",
        "key": "t_address",
        "label": "mapping(address => struct QVBaseStrategy.Allocator)",
        "numberOfBytes": "32",
        "value": "t_struct(Allocator)14563_storage"
      },
      "t_mapping(t_address,t_struct(Recipient)14552_storage)": {
        "encoding": "mapping",
        "key": "t_address",
        "label": "mapping(address => struct QVBaseStrategy.Recipient)",
        "numberOfBytes": "32",
        "value": "t_struct(Recipient)14552_storage"
      },
      "t_mapping(t_address,t_uint256)": {
        "encoding": "mapping",
        "key": "t_address",
        "label": "mapping(address => uint256)",
        "numberOfBytes": "32",
        "value": "t_uint256"
      },
      "t_mapping(t_enum(Status)2638,t_uint256)": {
        "encoding": "mapping",
        "key": "t_enum(Status)2638",
        "label": "mapping(enum IStrategy.Status => uint256)",
        "numberOfBytes": "32",
        "value": "t_uint256"
      },
      "t_string_storage": {
        "encoding": "bytes",
        "label": "string",
        "numberOfBytes": "32"
      },
      "t_struct(Allocator)14563_storage": {
        "encoding": "inplace",
        "label": "struct QVBaseStrategy.Allocator",
        "numberOfBytes": "96",
        "members": [
          {
            "astId": 14554,
            "contract": "test/utils/QVBaseStrategyTestMock.sol:QVBaseStrategyTestMock",
            "label": "voiceCredits",
            "offset": 0,
            "slot": "0",
            "type": "t_uint256"
          },
          {
            "astId": 14558,
            "contract": "test/utils/QVBaseStrategyTestMock.sol:QVBaseStrategyTestMock",
            "label": "voiceCreditsCastToRecipient",
            "offset": 0,
            "slot": "1",
            "type": "t_mapping(t_address,t_uint256)"
          },
          {
            "astId": 14562,
            "contract": "test/utils/QVBaseStrategyTestMock.sol:QVBaseStrategyTestMock",
            "label": "votesCastToRecipient",
            "offset": 0,
            "slot": "2",
            "type": "t_mapping(t_address,t_uint256)"
          }
        ]
      },
      "t_struct(Metadata)2922_storage": {
        "encoding": "inplace",
        "label": "struct Metadata",
        "numberOfBytes": "64",
        "members": [
          {
            "astId": 2918,
            "contract": "test/utils/QVBaseStrategyTestMock.sol:QVBaseStrategyTestMock",
            "label": "protocol",
            "offset": 0,
            "slot": "0",
            "type": "t_uint256"
          },
          {
            "astId": 2921,
            "contract": "test/utils/QVBaseStrategyTestMock.sol:QVBaseStrategyTestMock",
            "label": "pointer",
            "offset": 0,
            "slot": "1",
            "type": "t_string_storage"
          }
        ]
      },
      "t_struct(Recipient)14552_storage": {
        "encoding": "inplace",
        "label": "struct QVBaseStrategy.Recipient",
        "numberOfBytes": "160",
        "members": [
          {
            "astId": 14541,
            "contract": "test/utils/QVBaseStrategyTestMock.sol:QVBaseStrategyTestMock",
            "label": "totalVotesReceived",
            "offset": 0,
            "slot": "0",
            "type": "t_uint256"
          },
          {
            "astId": 14543,
            "contract": "test/utils/QVBaseStrategyTestMock.sol:QVBaseStrategyTestMock",
            "label": "useRegistryAnchor",
            "offset": 0,
            "slot": "1",
            "type": "t_bool"
          },
          {
            "astId": 14545,
            "contract": "test/utils/QVBaseStrategyTestMock.sol:QVBaseStrategyTestMock",
            "label": "recipientAddress",
            "offset": 1,
            "slot": "1",
            "type": "t_address"
          },
          {
            "astId": 14548,
            "contract": "test/utils/QVBaseStrategyTestMock.sol:QVBaseStrategyTestMock",
            "label": "metadata",
            "offset": 0,
            "slot": "2",
            "type": "t_struct(Metadata)2922_storage"
          },
          {
            "astId": 14551,
            "contract": "test/utils/QVBaseStrategyTestMock.sol:QVBaseStrategyTestMock",
            "label": "recipientStatus",
            "offset": 0,
            "slot": "4",
            "type": "t_enum(Status)2638"
          }
        ]
      },
      "t_uint256": {
        "encoding": "inplace",
        "label": "uint256",
        "numberOfBytes": "32"
      },
      "t_uint64": {
        "encoding": "inplace",
        "label": "uint64",
        "numberOfBytes": "8"
      }
    }
  },
  "id": 179
}