{
  "abi": [
    {
      "inputs": [
        {
          "internalType": "address",
          "name": "_allo",
          "type": "address"
        },
        {
          "internalType": "string",
          "name": "_name",
          "type": "string"
        }
      ],
      "stateMutability": "nonpayable",
      "type": "constructor"
    },
    {
      "inputs": [],
      "name": "ALLOCATION_ACTIVE",
      "type": "error"
    },
    {
      "inputs": [],
      "name": "ALLOCATION_NOT_ACTIVE",
      "type": "error"
    },
    {
      "inputs": [],
      "name": "ALLOCATION_NOT_ENDED",
      "type": "error"
    },
    {
      "inputs": [],
      "name": "ALREADY_ADDED",
      "type": "error"
    },
    {
      "inputs": [],
      "name": "ALREADY_INITIALIZED",
      "type": "error"
    },
    {
      "inputs": [],
      "name": "AMOUNT_MISMATCH",
      "type": "error"
    },
    {
      "inputs": [],
      "name": "ANCHOR_ERROR",
      "type": "error"
    },
    {
      "inputs": [],
      "name": "ARRAY_MISMATCH",
      "type": "error"
    },
    {
      "inputs": [],
      "name": "AccessDenied",
      "type": "error"
    },
    {
      "inputs": [],
      "name": "INVALID",
      "type": "error"
    },
    {
      "inputs": [],
      "name": "INVALID_ADDRESS",
      "type": "error"
    },
    {
      "inputs": [],
      "name": "INVALID_FEE",
      "type": "error"
    },
    {
      "inputs": [],
      "name": "INVALID_METADATA",
      "type": "error"
    },
    {
      "inputs": [],
      "name": "INVALID_REGISTRATION",
      "type": "error"
    },
    {
      "inputs": [],
      "name": "INVALID_SCHEMA",
      "type": "error"
    },
    {
      "inputs": [],
      "name": "IS_APPROVED_STRATEGY",
      "type": "error"
    },
    {
      "inputs": [],
      "name": "InsufficientValue",
      "type": "error"
    },
    {
      "inputs": [],
      "name": "InvalidEAS",
      "type": "error"
    },
    {
      "inputs": [],
      "name": "MISMATCH",
      "type": "error"
    },
    {
      "inputs": [],
      "name": "NONCE_NOT_AVAILABLE",
      "type": "error"
    },
    {
      "inputs": [],
      "name": "NOT_APPROVED_STRATEGY",
      "type": "error"
    },
    {
      "inputs": [],
      "name": "NOT_ENOUGH_FUNDS",
      "type": "error"
    },
    {
      "inputs": [],
      "name": "NOT_INITIALIZED",
      "type": "error"
    },
    {
      "inputs": [],
      "name": "NOT_PENDING_OWNER",
      "type": "error"
    },
    {
      "inputs": [],
      "name": "NotPayable",
      "type": "error"
    },
    {
      "inputs": [],
      "name": "OUT_OF_BOUNDS",
      "type": "error"
    },
    {
      "inputs": [],
      "name": "POOL_ACTIVE",
      "type": "error"
    },
    {
      "inputs": [],
      "name": "POOL_INACTIVE",
      "type": "error"
    },
    {
      "inputs": [],
      "name": "RECIPIENT_ALREADY_ACCEPTED",
      "type": "error"
    },
    {
      "inputs": [
        {
          "internalType": "address",
          "name": "recipientId",
          "type": "address"
        }
      ],
      "name": "RECIPIENT_ERROR",
      "type": "error"
    },
    {
      "inputs": [],
      "name": "RECIPIENT_NOT_ACCEPTED",
      "type": "error"
    },
    {
      "inputs": [],
      "name": "REGISTRATION_NOT_ACTIVE",
      "type": "error"
    },
    {
      "inputs": [],
      "name": "UNAUTHORIZED",
      "type": "error"
    },
    {
      "inputs": [],
      "name": "ZERO_ADDRESS",
      "type": "error"
    },
    {
      "anonymous": false,
      "inputs": [
        {
          "indexed": true,
          "internalType": "address",
          "name": "recipientId",
          "type": "address"
        },
        {
          "indexed": false,
          "internalType": "uint256",
          "name": "votes",
          "type": "uint256"
        },
        {
          "indexed": false,
          "internalType": "address",
          "name": "allocator",
          "type": "address"
        }
      ],
      "name": "Allocated",
      "type": "event"
    },
    {
      "anonymous": false,
      "inputs": [
        {
          "indexed": true,
          "internalType": "address",
          "name": "recipientId",
          "type": "address"
        },
        {
          "indexed": false,
          "internalType": "uint256",
          "name": "amount",
          "type": "uint256"
        },
        {
          "indexed": false,
          "internalType": "address",
          "name": "token",
          "type": "address"
        },
        {
          "indexed": false,
          "internalType": "address",
          "name": "sender",
          "type": "address"
        }
      ],
      "name": "Allocated",
      "type": "event"
    },
    {
      "anonymous": false,
      "inputs": [
        {
          "indexed": true,
          "internalType": "address",
          "name": "recipientId",
          "type": "address"
        },
        {
          "indexed": false,
          "internalType": "address",
          "name": "recipientAddress",
          "type": "address"
        },
        {
          "indexed": false,
          "internalType": "uint256",
          "name": "amount",
          "type": "uint256"
        },
        {
          "indexed": false,
          "internalType": "address",
          "name": "sender",
          "type": "address"
        }
      ],
      "name": "Distributed",
      "type": "event"
    },
    {
      "anonymous": false,
      "inputs": [
        {
          "indexed": false,
          "internalType": "address",
          "name": "allo",
          "type": "address"
        },
        {
          "indexed": false,
          "internalType": "bytes32",
          "name": "profileId",
          "type": "bytes32"
        },
        {
          "indexed": false,
          "internalType": "uint256",
          "name": "poolId",
          "type": "uint256"
        },
        {
          "indexed": false,
          "internalType": "bytes",
          "name": "data",
          "type": "bytes"
        }
      ],
      "name": "Initialized",
      "type": "event"
    },
    {
      "anonymous": false,
      "inputs": [
        {
          "indexed": false,
          "internalType": "bool",
          "name": "active",
          "type": "bool"
        }
      ],
      "name": "PoolActive",
      "type": "event"
    },
    {
      "anonymous": false,
      "inputs": [
        {
          "indexed": true,
          "internalType": "address",
          "name": "recipientId",
          "type": "address"
        },
        {
          "indexed": false,
          "internalType": "enum IStrategy.Status",
          "name": "status",
          "type": "uint8"
        },
        {
          "indexed": false,
          "internalType": "address",
          "name": "sender",
          "type": "address"
        }
      ],
      "name": "RecipientStatusUpdated",
      "type": "event"
    },
    {
      "anonymous": false,
      "inputs": [
        {
          "indexed": true,
          "internalType": "address",
          "name": "recipientId",
          "type": "address"
        },
        {
          "indexed": false,
          "internalType": "bytes",
          "name": "data",
          "type": "bytes"
        },
        {
          "indexed": false,
          "internalType": "address",
          "name": "sender",
          "type": "address"
        }
      ],
      "name": "Registered",
      "type": "event"
    },
    {
      "anonymous": false,
      "inputs": [
        {
          "indexed": true,
          "internalType": "address",
          "name": "recipientId",
          "type": "address"
        },
        {
          "indexed": false,
          "internalType": "enum IStrategy.Status",
          "name": "status",
          "type": "uint8"
        },
        {
          "indexed": false,
          "internalType": "address",
          "name": "sender",
          "type": "address"
        }
      ],
      "name": "Reviewed",
      "type": "event"
    },
    {
      "anonymous": false,
      "inputs": [
        {
          "indexed": false,
          "internalType": "uint64",
          "name": "registrationStartTime",
          "type": "uint64"
        },
        {
          "indexed": false,
          "internalType": "uint64",
          "name": "registrationEndTime",
          "type": "uint64"
        },
        {
          "indexed": false,
          "internalType": "uint64",
          "name": "allocationStartTime",
          "type": "uint64"
        },
        {
          "indexed": false,
          "internalType": "uint64",
          "name": "allocationEndTime",
          "type": "uint64"
        },
        {
          "indexed": false,
          "internalType": "address",
          "name": "sender",
          "type": "address"
        }
      ],
      "name": "TimestampsUpdated",
      "type": "event"
    },
    {
      "anonymous": false,
      "inputs": [
        {
          "indexed": true,
          "internalType": "address",
          "name": "recipientId",
          "type": "address"
        },
        {
          "indexed": false,
          "internalType": "bytes",
          "name": "data",
          "type": "bytes"
        },
        {
          "indexed": false,
          "internalType": "address",
          "name": "sender",
          "type": "address"
        },
        {
          "indexed": false,
          "internalType": "enum IStrategy.Status",
          "name": "status",
          "type": "uint8"
        }
      ],
      "name": "UpdatedRegistration",
      "type": "event"
    },
    {
      "inputs": [],
      "name": "NATIVE",
      "outputs": [
        {
          "internalType": "address",
          "name": "",
          "type": "address"
        }
      ],
      "stateMutability": "view",
      "type": "function"
    },
    {
      "inputs": [],
      "name": "VERSION",
      "outputs": [
        {
          "internalType": "string",
          "name": "",
          "type": "string"
        }
      ],
      "stateMutability": "view",
      "type": "function"
    },
    {
      "inputs": [],
      "name": "_NO_RELATED_ATTESTATION_UID",
      "outputs": [
        {
          "internalType": "bytes32",
          "name": "",
          "type": "bytes32"
        }
      ],
      "stateMutability": "view",
      "type": "function"
    },
    {
      "inputs": [
        {
          "internalType": "bytes",
          "name": "_data",
          "type": "bytes"
        },
        {
          "internalType": "address",
          "name": "_sender",
          "type": "address"
        }
      ],
      "name": "allocate",
      "outputs": [],
      "stateMutability": "payable",
      "type": "function"
    },
    {
      "inputs": [],
      "name": "allocationEndTime",
      "outputs": [
        {
          "internalType": "uint64",
          "name": "",
          "type": "uint64"
        }
      ],
      "stateMutability": "view",
      "type": "function"
    },
    {
      "inputs": [],
      "name": "allocationStartTime",
      "outputs": [
        {
          "internalType": "uint64",
          "name": "",
          "type": "uint64"
        }
      ],
      "stateMutability": "view",
      "type": "function"
    },
    {
      "inputs": [
        {
          "internalType": "address",
          "name": "",
          "type": "address"
        }
      ],
      "name": "allocators",
      "outputs": [
        {
          "internalType": "uint256",
          "name": "voiceCredits",
          "type": "uint256"
        }
      ],
      "stateMutability": "view",
      "type": "function"
    },
    {
      "inputs": [
        {
          "components": [
            {
              "internalType": "bytes32",
              "name": "uid",
              "type": "bytes32"
            },
            {
              "internalType": "bytes32",
              "name": "schema",
              "type": "bytes32"
            },
            {
              "internalType": "uint64",
              "name": "time",
              "type": "uint64"
            },
            {
              "internalType": "uint64",
              "name": "expirationTime",
              "type": "uint64"
            },
            {
              "internalType": "uint64",
              "name": "revocationTime",
              "type": "uint64"
            },
            {
              "internalType": "bytes32",
              "name": "refUID",
              "type": "bytes32"
            },
            {
              "internalType": "address",
              "name": "recipient",
              "type": "address"
            },
            {
              "internalType": "address",
              "name": "attester",
              "type": "address"
            },
            {
              "internalType": "bool",
              "name": "revocable",
              "type": "bool"
            },
            {
              "internalType": "bytes",
              "name": "data",
              "type": "bytes"
            }
          ],
          "internalType": "struct Attestation",
          "name": "attestation",
          "type": "tuple"
        }
      ],
      "name": "attest",
      "outputs": [
        {
          "internalType": "bool",
          "name": "",
          "type": "bool"
        }
      ],
      "stateMutability": "payable",
      "type": "function"
    },
    {
      "inputs": [
        {
          "internalType": "address[]",
          "name": "_recipientIds",
          "type": "address[]"
        },
        {
          "internalType": "bytes",
          "name": "_data",
          "type": "bytes"
        },
        {
          "internalType": "address",
          "name": "_sender",
          "type": "address"
        }
      ],
      "name": "distribute",
      "outputs": [],
      "stateMutability": "nonpayable",
      "type": "function"
    },
    {
      "inputs": [],
      "name": "easInfo",
      "outputs": [
        {
          "internalType": "contract IEAS",
          "name": "eas",
          "type": "address"
        },
        {
          "internalType": "contract ISchemaRegistry",
          "name": "schemaRegistry",
          "type": "address"
        },
        {
          "internalType": "bytes32",
          "name": "schemaUID",
          "type": "bytes32"
        },
        {
          "internalType": "string",
          "name": "schema",
          "type": "string"
        },
        {
          "internalType": "bool",
          "name": "revocable",
          "type": "bool"
        }
      ],
      "stateMutability": "view",
      "type": "function"
    },
    {
      "inputs": [],
      "name": "getAllo",
      "outputs": [
        {
          "internalType": "contract IAllo",
          "name": "",
          "type": "address"
        }
      ],
      "stateMutability": "view",
      "type": "function"
    },
    {
      "inputs": [
        {
          "internalType": "bytes32",
          "name": "uid",
          "type": "bytes32"
        }
      ],
      "name": "getAttestation",
      "outputs": [
        {
          "components": [
            {
              "internalType": "bytes32",
              "name": "uid",
              "type": "bytes32"
            },
            {
              "internalType": "bytes32",
              "name": "schema",
              "type": "bytes32"
            },
            {
              "internalType": "uint64",
              "name": "time",
              "type": "uint64"
            },
            {
              "internalType": "uint64",
              "name": "expirationTime",
              "type": "uint64"
            },
            {
              "internalType": "uint64",
              "name": "revocationTime",
              "type": "uint64"
            },
            {
              "internalType": "bytes32",
              "name": "refUID",
              "type": "bytes32"
            },
            {
              "internalType": "address",
              "name": "recipient",
              "type": "address"
            },
            {
              "internalType": "address",
              "name": "attester",
              "type": "address"
            },
            {
              "internalType": "bool",
              "name": "revocable",
              "type": "bool"
            },
            {
              "internalType": "bytes",
              "name": "data",
              "type": "bytes"
            }
          ],
          "internalType": "struct Attestation",
          "name": "",
          "type": "tuple"
        }
      ],
      "stateMutability": "view",
      "type": "function"
    },
    {
      "inputs": [
        {
          "internalType": "address[]",
          "name": "",
          "type": "address[]"
        },
        {
          "internalType": "bytes[]",
          "name": "",
          "type": "bytes[]"
        }
      ],
      "name": "getPayouts",
      "outputs": [
        {
          "components": [
            {
              "internalType": "address",
              "name": "recipientAddress",
              "type": "address"
            },
            {
              "internalType": "uint256",
              "name": "amount",
              "type": "uint256"
            }
          ],
          "internalType": "struct IStrategy.PayoutSummary[]",
          "name": "",
          "type": "tuple[]"
        }
      ],
      "stateMutability": "view",
      "type": "function"
    },
    {
      "inputs": [],
      "name": "getPoolAmount",
      "outputs": [
        {
          "internalType": "uint256",
          "name": "",
          "type": "uint256"
        }
      ],
      "stateMutability": "view",
      "type": "function"
    },
    {
      "inputs": [],
      "name": "getPoolId",
      "outputs": [
        {
          "internalType": "uint256",
          "name": "",
          "type": "uint256"
        }
      ],
      "stateMutability": "view",
      "type": "function"
    },
    {
      "inputs": [
        {
          "internalType": "address",
          "name": "_recipientId",
          "type": "address"
        }
      ],
      "name": "getRecipient",
      "outputs": [
        {
          "components": [
            {
              "internalType": "uint256",
              "name": "totalVotesReceived",
              "type": "uint256"
            },
            {
              "internalType": "bool",
              "name": "useRegistryAnchor",
              "type": "bool"
            },
            {
              "internalType": "address",
              "name": "recipientAddress",
              "type": "address"
            },
            {
              "components": [
                {
                  "internalType": "uint256",
                  "name": "protocol",
                  "type": "uint256"
                },
                {
                  "internalType": "string",
                  "name": "pointer",
                  "type": "string"
                }
              ],
              "internalType": "struct Metadata",
              "name": "metadata",
              "type": "tuple"
            },
            {
              "internalType": "enum IStrategy.Status",
              "name": "recipientStatus",
              "type": "uint8"
            }
          ],
          "internalType": "struct QVBaseStrategy.Recipient",
          "name": "",
          "type": "tuple"
        }
      ],
      "stateMutability": "view",
      "type": "function"
    },
    {
      "inputs": [
        {
          "internalType": "address",
          "name": "_recipientId",
          "type": "address"
        }
      ],
      "name": "getRecipientStatus",
      "outputs": [
        {
          "internalType": "enum IStrategy.Status",
          "name": "",
          "type": "uint8"
        }
      ],
      "stateMutability": "view",
      "type": "function"
    },
    {
      "inputs": [
        {
          "internalType": "bytes32",
          "name": "uid",
          "type": "bytes32"
        }
      ],
      "name": "getSchema",
      "outputs": [
        {
          "components": [
            {
              "internalType": "bytes32",
              "name": "uid",
              "type": "bytes32"
            },
            {
              "internalType": "contract ISchemaResolver",
              "name": "resolver",
              "type": "address"
            },
            {
              "internalType": "bool",
              "name": "revocable",
              "type": "bool"
            },
            {
              "internalType": "string",
              "name": "schema",
              "type": "string"
            }
          ],
          "internalType": "struct SchemaRecord",
          "name": "",
          "type": "tuple"
        }
      ],
      "stateMutability": "view",
      "type": "function"
    },
    {
      "inputs": [],
      "name": "getStrategyId",
      "outputs": [
        {
          "internalType": "bytes32",
          "name": "",
          "type": "bytes32"
        }
      ],
      "stateMutability": "view",
      "type": "function"
    },
    {
      "inputs": [
        {
          "internalType": "uint256",
          "name": "_amount",
          "type": "uint256"
        }
      ],
      "name": "increasePoolAmount",
      "outputs": [],
      "stateMutability": "nonpayable",
      "type": "function"
    },
    {
      "inputs": [
        {
          "internalType": "uint256",
          "name": "",
          "type": "uint256"
        }
      ],
      "name": "indexToRecipientId",
      "outputs": [
        {
          "internalType": "address",
          "name": "",
          "type": "address"
        }
      ],
      "stateMutability": "view",
      "type": "function"
    },
    {
      "inputs": [
        {
          "internalType": "uint256",
          "name": "_poolId",
          "type": "uint256"
        },
        {
          "internalType": "bytes",
          "name": "_data",
          "type": "bytes"
        }
      ],
      "name": "initialize",
      "outputs": [],
      "stateMutability": "nonpayable",
      "type": "function"
    },
    {
      "inputs": [
        {
          "internalType": "address",
          "name": "_recipientId",
          "type": "address"
        }
      ],
      "name": "isAttestationExpired",
      "outputs": [
        {
          "internalType": "bool",
          "name": "",
          "type": "bool"
        }
      ],
      "stateMutability": "view",
      "type": "function"
    },
    {
      "inputs": [],
      "name": "isPayable",
      "outputs": [
        {
          "internalType": "bool",
          "name": "",
          "type": "bool"
        }
      ],
      "stateMutability": "pure",
      "type": "function"
    },
    {
      "inputs": [],
      "name": "isPoolActive",
      "outputs": [
        {
          "internalType": "bool",
          "name": "",
          "type": "bool"
        }
      ],
      "stateMutability": "view",
      "type": "function"
    },
    {
      "inputs": [
        {
          "internalType": "address",
          "name": "_allocator",
          "type": "address"
        }
      ],
      "name": "isValidAllocator",
      "outputs": [
        {
          "internalType": "bool",
          "name": "",
          "type": "bool"
        }
      ],
      "stateMutability": "view",
      "type": "function"
    },
    {
      "inputs": [],
      "name": "maxVoiceCreditsPerAllocator",
      "outputs": [
        {
          "internalType": "uint256",
          "name": "",
          "type": "uint256"
        }
      ],
      "stateMutability": "view",
      "type": "function"
    },
    {
      "inputs": [],
      "name": "metadataRequired",
      "outputs": [
        {
          "internalType": "bool",
          "name": "",
          "type": "bool"
        }
      ],
      "stateMutability": "view",
      "type": "function"
    },
    {
      "inputs": [
        {
          "components": [
            {
              "internalType": "bytes32",
              "name": "uid",
              "type": "bytes32"
            },
            {
              "internalType": "bytes32",
              "name": "schema",
              "type": "bytes32"
            },
            {
              "internalType": "uint64",
              "name": "time",
              "type": "uint64"
            },
            {
              "internalType": "uint64",
              "name": "expirationTime",
              "type": "uint64"
            },
            {
              "internalType": "uint64",
              "name": "revocationTime",
              "type": "uint64"
            },
            {
              "internalType": "bytes32",
              "name": "refUID",
              "type": "bytes32"
            },
            {
              "internalType": "address",
              "name": "recipient",
              "type": "address"
            },
            {
              "internalType": "address",
              "name": "attester",
              "type": "address"
            },
            {
              "internalType": "bool",
              "name": "revocable",
              "type": "bool"
            },
            {
              "internalType": "bytes",
              "name": "data",
              "type": "bytes"
            }
          ],
          "internalType": "struct Attestation[]",
          "name": "attestations",
          "type": "tuple[]"
        },
        {
          "internalType": "uint256[]",
          "name": "values",
          "type": "uint256[]"
        }
      ],
      "name": "multiAttest",
      "outputs": [
        {
          "internalType": "bool",
          "name": "",
          "type": "bool"
        }
      ],
      "stateMutability": "payable",
      "type": "function"
    },
    {
      "inputs": [
        {
          "components": [
            {
              "internalType": "bytes32",
              "name": "uid",
              "type": "bytes32"
            },
            {
              "internalType": "bytes32",
              "name": "schema",
              "type": "bytes32"
            },
            {
              "internalType": "uint64",
              "name": "time",
              "type": "uint64"
            },
            {
              "internalType": "uint64",
              "name": "expirationTime",
              "type": "uint64"
            },
            {
              "internalType": "uint64",
              "name": "revocationTime",
              "type": "uint64"
            },
            {
              "internalType": "bytes32",
              "name": "refUID",
              "type": "bytes32"
            },
            {
              "internalType": "address",
              "name": "recipient",
              "type": "address"
            },
            {
              "internalType": "address",
              "name": "attester",
              "type": "address"
            },
            {
              "internalType": "bool",
              "name": "revocable",
              "type": "bool"
            },
            {
              "internalType": "bytes",
              "name": "data",
              "type": "bytes"
            }
          ],
          "internalType": "struct Attestation[]",
          "name": "attestations",
          "type": "tuple[]"
        },
        {
          "internalType": "uint256[]",
          "name": "values",
          "type": "uint256[]"
        }
      ],
      "name": "multiRevoke",
      "outputs": [
        {
          "internalType": "bool",
          "name": "",
          "type": "bool"
        }
      ],
      "stateMutability": "payable",
      "type": "function"
    },
    {
      "inputs": [],
      "name": "nft",
      "outputs": [
        {
          "internalType": "contract ERC721",
          "name": "",
          "type": "address"
        }
      ],
      "stateMutability": "view",
      "type": "function"
    },
    {
      "inputs": [
        {
          "internalType": "address",
          "name": "",
          "type": "address"
        }
      ],
      "name": "paidOut",
      "outputs": [
        {
          "internalType": "bool",
          "name": "",
          "type": "bool"
        }
      ],
      "stateMutability": "view",
      "type": "function"
    },
    {
      "inputs": [
        {
          "internalType": "uint256",
          "name": "",
          "type": "uint256"
        }
      ],
      "name": "payoutPercentages",
      "outputs": [
        {
          "internalType": "uint256",
          "name": "",
          "type": "uint256"
        }
      ],
      "stateMutability": "view",
      "type": "function"
    },
    {
      "inputs": [
        {
          "internalType": "address",
          "name": "",
          "type": "address"
        }
      ],
      "name": "recipientIdToIndex",
      "outputs": [
        {
          "internalType": "uint256",
          "name": "",
          "type": "uint256"
        }
      ],
      "stateMutability": "view",
      "type": "function"
    },
    {
      "inputs": [
        {
          "internalType": "address",
          "name": "",
          "type": "address"
        }
      ],
      "name": "recipientIdToUID",
      "outputs": [
        {
          "internalType": "bytes32",
          "name": "",
          "type": "bytes32"
        }
      ],
      "stateMutability": "view",
      "type": "function"
    },
    {
      "inputs": [
        {
          "internalType": "address",
          "name": "",
          "type": "address"
        }
      ],
      "name": "recipients",
      "outputs": [
        {
          "internalType": "uint256",
          "name": "totalVotesReceived",
          "type": "uint256"
        },
        {
          "internalType": "bool",
          "name": "useRegistryAnchor",
          "type": "bool"
        },
        {
          "internalType": "address",
          "name": "recipientAddress",
          "type": "address"
        },
        {
          "components": [
            {
              "internalType": "uint256",
              "name": "protocol",
              "type": "uint256"
            },
            {
              "internalType": "string",
              "name": "pointer",
              "type": "string"
            }
          ],
          "internalType": "struct Metadata",
          "name": "metadata",
          "type": "tuple"
        },
        {
          "internalType": "enum IStrategy.Status",
          "name": "recipientStatus",
          "type": "uint8"
        }
      ],
      "stateMutability": "view",
      "type": "function"
    },
    {
      "inputs": [
        {
          "internalType": "bytes",
          "name": "_data",
          "type": "bytes"
        },
        {
          "internalType": "address",
          "name": "_sender",
          "type": "address"
        }
      ],
      "name": "registerRecipient",
      "outputs": [
        {
          "internalType": "address",
          "name": "recipientId",
          "type": "address"
        }
      ],
      "stateMutability": "payable",
      "type": "function"
    },
    {
      "inputs": [],
      "name": "registrationEndTime",
      "outputs": [
        {
          "internalType": "uint64",
          "name": "",
          "type": "uint64"
        }
      ],
      "stateMutability": "view",
      "type": "function"
    },
    {
      "inputs": [],
      "name": "registrationStartTime",
      "outputs": [
        {
          "internalType": "uint64",
          "name": "",
          "type": "uint64"
        }
      ],
      "stateMutability": "view",
      "type": "function"
    },
    {
      "inputs": [],
      "name": "registryGating",
      "outputs": [
        {
          "internalType": "bool",
          "name": "",
          "type": "bool"
        }
      ],
      "stateMutability": "view",
      "type": "function"
    },
    {
      "inputs": [
        {
          "internalType": "address[]",
          "name": "_recipientIds",
          "type": "address[]"
        },
        {
          "internalType": "enum IStrategy.Status[]",
          "name": "_recipientStatuses",
          "type": "uint8[]"
        }
      ],
      "name": "reviewRecipients",
      "outputs": [],
      "stateMutability": "nonpayable",
      "type": "function"
    },
    {
      "inputs": [],
      "name": "reviewThreshold",
      "outputs": [
        {
          "internalType": "uint256",
          "name": "",
          "type": "uint256"
        }
      ],
      "stateMutability": "view",
      "type": "function"
    },
    {
      "inputs": [
        {
          "internalType": "address",
          "name": "",
          "type": "address"
        },
        {
          "internalType": "enum IStrategy.Status",
          "name": "",
          "type": "uint8"
        }
      ],
      "name": "reviewsByStatus",
      "outputs": [
        {
          "internalType": "uint256",
          "name": "",
          "type": "uint256"
        }
      ],
      "stateMutability": "view",
      "type": "function"
    },
    {
      "inputs": [
        {
          "components": [
            {
              "internalType": "bytes32",
              "name": "uid",
              "type": "bytes32"
            },
            {
              "internalType": "bytes32",
              "name": "schema",
              "type": "bytes32"
            },
            {
              "internalType": "uint64",
              "name": "time",
              "type": "uint64"
            },
            {
              "internalType": "uint64",
              "name": "expirationTime",
              "type": "uint64"
            },
            {
              "internalType": "uint64",
              "name": "revocationTime",
              "type": "uint64"
            },
            {
              "internalType": "bytes32",
              "name": "refUID",
              "type": "bytes32"
            },
            {
              "internalType": "address",
              "name": "recipient",
              "type": "address"
            },
            {
              "internalType": "address",
              "name": "attester",
              "type": "address"
            },
            {
              "internalType": "bool",
              "name": "revocable",
              "type": "bool"
            },
            {
              "internalType": "bytes",
              "name": "data",
              "type": "bytes"
            }
          ],
          "internalType": "struct Attestation",
          "name": "attestation",
          "type": "tuple"
        }
      ],
      "name": "revoke",
      "outputs": [
        {
          "internalType": "bool",
          "name": "",
          "type": "bool"
        }
      ],
      "stateMutability": "payable",
      "type": "function"
    },
    {
      "inputs": [
        {
          "internalType": "address[]",
          "name": "_recipientIds",
          "type": "address[]"
        },
        {
          "internalType": "uint64",
          "name": "_expirationTime",
          "type": "uint64"
        },
        {
          "internalType": "bytes",
          "name": "_data",
          "type": "bytes"
        }
      ],
      "name": "setAllowedRecipientIds",
      "outputs": [],
      "stateMutability": "nonpayable",
      "type": "function"
    },
    {
      "inputs": [
        {
          "internalType": "uint256[]",
          "name": "_payoutPercentages",
          "type": "uint256[]"
        }
      ],
      "name": "setPayoutPercentages",
      "outputs": [],
      "stateMutability": "nonpayable",
      "type": "function"
    },
    {
      "inputs": [],
      "name": "totalRecipientVotes",
      "outputs": [
        {
          "internalType": "uint256",
          "name": "",
          "type": "uint256"
        }
      ],
      "stateMutability": "view",
      "type": "function"
    },
    {
      "inputs": [
        {
          "internalType": "uint64",
          "name": "_registrationStartTime",
          "type": "uint64"
        },
        {
          "internalType": "uint64",
          "name": "_registrationEndTime",
          "type": "uint64"
        },
        {
          "internalType": "uint64",
          "name": "_allocationStartTime",
          "type": "uint64"
        },
        {
          "internalType": "uint64",
          "name": "_allocationEndTime",
          "type": "uint64"
        }
      ],
      "name": "updatePoolTimestamps",
      "outputs": [],
      "stateMutability": "nonpayable",
      "type": "function"
    },
    {
      "inputs": [
        {
          "internalType": "uint256",
          "name": "",
          "type": "uint256"
        }
      ],
      "name": "voiceCreditsUsedPerNftId",
      "outputs": [
        {
          "internalType": "uint256",
          "name": "",
          "type": "uint256"
        }
      ],
      "stateMutability": "view",
      "type": "function"
    },
    {
      "inputs": [
        {
          "internalType": "uint256",
          "name": "",
          "type": "uint256"
        }
      ],
      "name": "votesByRank",
      "outputs": [
        {
          "internalType": "uint256",
          "name": "",
          "type": "uint256"
        }
      ],
      "stateMutability": "view",
      "type": "function"
    },
    {
      "stateMutability": "payable",
      "type": "receive"
    }
  ],
  "bytecode": {
    "object": "0x60c06040523480156200001157600080fd5b5060405162004865380380620048658339810160408190526200003491620000c0565b6001600160a01b03821660805260405182908290829082906200005c9082906020016200019b565b60408051601f19818403018152919052805160209091012060a05250620001d0945050505050565b634e487b7160e01b600052604160045260246000fd5b60005b83811015620000b75781810151838201526020016200009d565b50506000910152565b60008060408385031215620000d457600080fd5b82516001600160a01b0381168114620000ec57600080fd5b60208401519092506001600160401b03808211156200010a57600080fd5b818501915085601f8301126200011f57600080fd5b81518181111562000134576200013462000084565b604051601f8201601f19908116603f011681019083821181831017156200015f576200015f62000084565b816040528281528860208487010111156200017957600080fd5b6200018c8360208301602088016200009a565b80955050505050509250929050565b6020815260008251806020840152620001bc8160408501602087016200009a565b601f01601f19169190910160400192915050565b60805160a05161465362000212600039600061049e0152600081816103e201528181611662015281816117ff015281816119680152612c0801526146536000f3fe60806040526004361061032d5760003560e01c80639af5c09d116101a5578063cfae93e7116100ec578063e60c350511610095578063edd146cc1161006f578063edd146cc146109b0578063ef2920fc146109d0578063f5b0dfb7146109e3578063ffa1ad7414610a0357600080fd5b8063e60c35051461093f578063eb11af9314610952578063eb8203121461097f57600080fd5b8063df868ed3116100c6578063df868ed3146108fd578063dff7d2c714610912578063e49617e11461093f57600080fd5b8063cfae93e714610888578063d2e17f59146108a8578063d41bf333146108d057600080fd5b8063b2b878d01161014e578063cb2878c411610128578063cb2878c414610834578063cd8c411214610854578063ce46e0461461087457600080fd5b8063b2b878d0146107bb578063b91c0684146107e8578063cb0e85a61461081557600080fd5b8063a3112a641161017f578063a3112a641461074e578063a647d23e1461077b578063afc6dd4b1461079557600080fd5b80639af5c09d146106d8578063a0cf0aea146106f9578063a2ea7c6e1461072157600080fd5b80634a4f8e04116102745780635efbbe011161021d57806381f03fcb116101f757806381f03fcb1461066257806388e5b2d91461069257806391db0b7e146106a557806393a5916a146106b857600080fd5b80635efbbe011461060057806362812a39146106155780637f8359831461064257600080fd5b8063578258491161024e578063578258491461059e57806359010701146105b45780635b45a754146105ca57600080fd5b80634a4f8e04146105435780634ab4ba42146105595780634d31d0871461056e57600080fd5b806338fff2d0116102d65780634533d678116102b05780634533d678146104c257806347ccca021461050357806349a046c11461052357600080fd5b806338fff2d01461044d5780633c2dedb01461046257806342fda9c71461048f57600080fd5b806315cc481e1161030757806315cc481e146103d35780632143e92f1461041a5780632bbe0cae1461043a57600080fd5b8063084ea36e1461033b5780630a6f0ee91461037b5780630d93bb531461039b57600080fd5b3661033657005b005b600080fd5b34801561034757600080fd5b506103686103563660046131dc565b60086020526000908152604090205481565b6040519081526020015b60405180910390f35b34801561038757600080fd5b506103346103963660046133eb565b610a59565b3480156103a757600080fd5b506103686103b6366004613472565b600a60209081526000928352604080842090915290825290205481565b3480156103df57600080fd5b507f00000000000000000000000000000000000000000000000000000000000000005b6040516001600160a01b039091168152602001610372565b34801561042657600080fd5b506103346104353660046134bd565b610a79565b610402610448366004613519565b610a96565b34801561045957600080fd5b50600154610368565b34801561046e57600080fd5b5061036861047d3660046131dc565b60176020526000908152604090205481565b34801561049b57600080fd5b507f0000000000000000000000000000000000000000000000000000000000000000610368565b3480156104ce57600080fd5b506005546104ea90600160c01b900467ffffffffffffffff1681565b60405167ffffffffffffffff9091168152602001610372565b34801561050f57600080fd5b50601354610402906001600160a01b031681565b34801561052f57600080fd5b5061036861053e36600461356b565b610abb565b34801561054f57600080fd5b5061036860145481565b34801561056557600080fd5b50600254610368565b34801561057a57600080fd5b5061058e6105893660046131dc565b610adc565b6040519015158152602001610372565b3480156105aa57600080fd5b5061036860045481565b3480156105c057600080fd5b5061036860035481565b3480156105d657600080fd5b506104026105e536600461356b565b6018602052600090815260409020546001600160a01b031681565b34801561060c57600080fd5b50610368600081565b34801561062157600080fd5b506106356106303660046131dc565b610ae7565b604051610372919061362b565b34801561064e57600080fd5b5061033461065d3660046136d8565b610af8565b34801561066e57600080fd5b5061058e61067d3660046131dc565b60096020526000908152604090205460ff1681565b61058e6106a03660046136d8565b610d78565b61058e6106b33660046136d8565b610e27565b3480156106c457600080fd5b5061058e6106d33660046131dc565b610eae565b3480156106e457600080fd5b506005546104ea9067ffffffffffffffff1681565b34801561070557600080fd5b5061040273eeeeeeeeeeeeeeeeeeeeeeeeeeeeeeeeeeeeeeee81565b34801561072d57600080fd5b5061074161073c36600461356b565b610f5d565b6040516103729190613744565b34801561075a57600080fd5b5061076e61076936600461356b565b610fed565b6040516103729190613788565b34801561078757600080fd5b5060065461058e9060ff1681565b3480156107a157600080fd5b506107aa6110ad565b604051610372959493929190613857565b3480156107c757600080fd5b506107db6107d636600461389d565b611163565b6040516103729190613972565b3480156107f457600080fd5b506103686108033660046131dc565b60156020526000908152604090205481565b34801561082157600080fd5b5060065461058e90610100900460ff1681565b34801561084057600080fd5b5061036861084f36600461356b565b61123a565b34801561086057600080fd5b5061033461086f3660046139ca565b61124a565b34801561088057600080fd5b50600161058e565b34801561089457600080fd5b506103346108a3366004613a42565b611338565b3480156108b457600080fd5b506005546104ea90600160801b900467ffffffffffffffff1681565b3480156108dc57600080fd5b506103686108eb36600461356b565b60166020526000908152604090205481565b34801561090957600080fd5b5061058e6114d0565b34801561091e57600080fd5b506005546104ea9068010000000000000000900467ffffffffffffffff1681565b61058e61094d366004613ad3565b6114df565b34801561095e57600080fd5b5061097261096d3660046131dc565b6114f5565b6040516103729190613b0f565b34801561098b57600080fd5b5061099f61099a3660046131dc565b611500565b604051610372959493929190613b1d565b3480156109bc57600080fd5b506103346109cb366004613b5c565b6115e5565b6103346109de366004613519565b61160f565b3480156109ef57600080fd5b506103346109fe36600461356b565b61162d565b348015610a0f57600080fd5b50610a4c6040518060400160405280600481526020017f302e32380000000000000000000000000000000000000000000000000000000081525081565b6040516103729190613ba3565b610a61611657565b610a696116a2565b610a748383836116de565b505050565b33610a8381611925565b610a8f858585856119f0565b5050505050565b6000610aa0611657565b610aa86116a2565b610ab28383611b8a565b90505b92915050565b600c8181548110610acb57600080fd5b600091825260209091200154905081565b6000610ab582611c27565b610aef613173565b610ab582611cb9565b33610b0281611925565b610b0a611df0565b83828114610b2b57604051637fcce2a960e01b815260040160405180910390fd5b60005b81811015610d6f576000858583818110610b4a57610b4a613bb6565b9050602002016020810190610b5f9190613bcc565b90506000888884818110610b7557610b75613bb6565b9050602002016020810190610b8a91906131dc565b90506000826006811115610ba057610ba06135f3565b1480610bbd57506004826006811115610bbb57610bbb6135f3565b145b15610beb5760405163f4a513b960e01b81526001600160a01b03821660048201526024015b60405180910390fd5b6001600160a01b0381166000908152600a6020526040812090836006811115610c1657610c166135f3565b6006811115610c2757610c276135f3565b81526020019081526020016000206000815480929190610c4690613bfd565b90915550506004546001600160a01b0382166000908152600a6020526040812090846006811115610c7957610c796135f3565b6006811115610c8a57610c8a6135f3565b81526020019081526020016000205410610d22576001600160a01b038116600090815260076020526040902060048101805484919060ff19166001836006811115610cd757610cd76135f3565b0217905550816001600160a01b03167f45af2a5942640dc0876474f4fda063eec36dd5518e0bba47622461b993f762a3846000604051610d18929190613c16565b60405180910390a2505b806001600160a01b03167f094d003df6c0153ac428d1a45e5827aa8e2aa00c6dbbc96a2dbb9a682115d8378333604051610d5d929190613c16565b60405180910390a25050600101610b2e565b50505050505050565b6000610d82611e5a565b833460005b82811015610e17576000868683818110610da357610da3613bb6565b90506020020135905082811115610dcd5760405163044044a560e21b815260040160405180910390fd5b610dfa898984818110610de257610de2613bb6565b9050602002810190610df49190613c3a565b50600190565b610e0b576000945050505050610e1f565b90910390600101610d87565b506001925050505b949350505050565b6000610e31611e5a565b833460005b82811015610e17576000868683818110610e5257610e52613bb6565b90506020020135905082811115610e7c5760405163044044a560e21b815260040160405180910390fd5b610e91898984818110610de257610de2613bb6565b610ea2576000945050505050610e1f565b90910390600101610e36565b600e546001600160a01b038281166000908152601560205260408082205490516328c44a9960e21b815291934293169163a3112a6491610ef49160040190815260200190565b600060405180830381865afa158015610f11573d6000803e3d6000fd5b505050506040513d6000823e601f3d908101601f19168201604052610f399190810190613cc6565b6060015167ffffffffffffffff161015610f5557506001919050565b506000919050565b6040805160808101825260008082526020820181905281830152606080820152600f5491516351753e3760e11b81526004810184905290916001600160a01b03169063a2ea7c6e90602401600060405180830381865afa158015610fc5573d6000803e3d6000fd5b505050506040513d6000823e601f3d908101601f19168201604052610ab59190810190613dbd565b604080516101408101825260008082526020820181905281830181905260608083018290526080830182905260a0830182905260c0830182905260e08301829052610100830191909152610120820152600e5491516328c44a9960e21b81526004810184905290916001600160a01b03169063a3112a6490602401600060405180830381865afa158015611085573d6000803e3d6000fd5b505050506040513d6000823e601f3d908101601f19168201604052610ab59190810190613cc6565b600e8054600f54601054601180546001600160a01b0394851695949093169391926110d790613e58565b80601f016020809104026020016040519081016040528092919081815260200182805461110390613e58565b80156111505780601f1061112557610100808354040283529160200191611150565b820191906000526020600020905b81548152906001019060200180831161113357829003601f168201915b5050506004909301549192505060ff1685565b600c5460609060008167ffffffffffffffff81111561118457611184613200565b6040519080825280602002602001820160405280156111c957816020015b60408051808201909152600080825260208201528152602001906001900390816111a25790505b50905060005b828110156112315760008181526018602090815260408083205481519283019091529181526001600160a01b039091169061120b908290611e9e565b83838151811061121d5761121d613bb6565b6020908102919091010152506001016111cf565b50949350505050565b600d8181548110610acb57600080fd5b3361125481611925565b61125c611df0565b835160005b8181101561133057600086828151811061127d5761127d613bb6565b6020026020010151905060156000826001600160a01b03166001600160a01b03168152602001908152602001600020546000801b146112e8576040517f4c8dcf3200000000000000000000000000000000000000000000000000000000815260040160405180910390fd5b61130e8783815181106112fd576112fd613bb6565b602002602001015187876000611f74565b6001600160a01b03909116600090815260156020526040902055600101611261565b505050505050565b3361134281611925565b600554600160801b900467ffffffffffffffff164211806113645750600c5415155b1561139b576040517f077c706000000000000000000000000000000000000000000000000000000000815260040160405180910390fd5b81516000836113ab600184613e8c565b815181106113bb576113bb613bb6565b6020026020010151846000815181106113d6576113d6613bb6565b6020026020010151116113fc57604051637fcce2a960e01b815260040160405180910390fd5b60005b828110156114a157600085828151811061141b5761141b613bb6565b6020908102919091010151600c805460018181019092557fdf6966c971051c3d54ec59162606531493a51404a002842f56009d7e5cf4a8c701829055600d8054918201815560009081527fd7b6990105719101dabeb77144f2a3385c8033acd3af97e9423a695e81ad1eb59091015590506114968184613e9f565b9250506001016113ff565b5080670de0b6b3a7640000146114ca57604051637fcce2a960e01b815260040160405180910390fd5b50505050565b60006114da612062565b905090565b60006114e9611e5a565b6001610ab5565b919050565b6000610ab5826120ac565b6007602090815260009182526040918290208054600182015484518086019095526002830180548652600384018054939660ff8416966101009094046001600160a01b0316959490938401919061155690613e58565b80601f016020809104026020016040519081016040528092919081815260200182805461158290613e58565b80156115cf5780601f106115a4576101008083540402835291602001916115cf565b820191906000526020600020905b8154815290600101906020018083116115b257829003601f168201915b5050509190925250505060049091015460ff1685565b6115ed611657565b6000818060200190518101906116039190613f67565b9050610a7483826120c1565b611617611657565b61161f6116a2565b61162982826123a4565b5050565b611635611657565b80600260008282546116479190613e9f565b9091555061165490508181565b50565b336001600160a01b037f000000000000000000000000000000000000000000000000000000000000000016146116a05760405163075fd2b160e01b815260040160405180910390fd5b565b6001546000036116a0576040517f3da3f98c00000000000000000000000000000000000000000000000000000000815260040160405180910390fd5b806116e881611925565b6116f061279e565b835160005b8181101561133057600086828151811061171157611711613bb6565b60200260200101519050600060076000836001600160a01b03166001600160a01b031681526020019081526020016000209050600061175f8360405180602001604052806000815250611e9e565b6020808201516001600160a01b038616600090815260099092526040909120549192509060ff16806117975750611795846127eb565b155b806117a0575080155b156117c95760405163f4a513b960e01b81526001600160a01b0385166004820152602401610be2565b6001546040517f068bcd8d0000000000000000000000000000000000000000000000000000000081526000916001600160a01b037f0000000000000000000000000000000000000000000000000000000000000000169163068bcd8d916118369160040190815260200190565b600060405180830381865afa158015611853573d6000803e3d6000fd5b505050506040513d6000823e601f3d908101601f1916820160405261187b91908101906140de565b604081015160018601549192506118a09161010090046001600160a01b031684612826565b6001600160a01b03858116600081815260096020908152604091829020805460ff19166001908117909155880154825161010090910485168152908101869052928c1690830152907fb5b51454adfa840bd593658325a60a50b0216f12eb5d2937efe6cea935675b7d9060600160405180910390a285600101955050505050506116f5565b6001546040517f29e40d4b00000000000000000000000000000000000000000000000000000000815260048101919091526001600160a01b0382811660248301527f000000000000000000000000000000000000000000000000000000000000000016906329e40d4b90604401602060405180830381865afa1580156119af573d6000803e3d6000fd5b505050506040513d601f19601f820116820180604052508101906119d39190614192565b6116545760405163075fd2b160e01b815260040160405180910390fd5b8367ffffffffffffffff16421180611a1b57508267ffffffffffffffff168467ffffffffffffffff16115b80611a3957508167ffffffffffffffff168467ffffffffffffffff16115b80611a5757508067ffffffffffffffff168267ffffffffffffffff16115b80611a7557508067ffffffffffffffff168367ffffffffffffffff16115b15611a9357604051637fcce2a960e01b815260040160405180910390fd5b6005805467ffffffffffffffff838116600160c01b90810277ffffffffffffffffffffffffffffffffffffffffffffffff878416600160801b908102919091166fffffffffffffffffffffffffffffffff8a8616680100000000000000009081027fffffffffffffffffffffffffffffffff000000000000000000000000000000009098168d88161797909717161791909117948590556040805186851681529486048416602086015290850483169084015290920490911660608201523360808201527fcb0fb7a7b87db2f472ee8977444cfdbc51993ce660aca27a5969a724fae6dcf39060a00160405180910390a150505050565b6000611b94611df0565b611b9e838361286b565b6001600160a01b03811660009081526015602052604081205491925003611bd85760405163075fd2b160e01b815260040160405180910390fd5b6001600160a01b03811660009081526007602052604090206001600482015460ff166006811115611c0b57611c0b6135f3565b03611c205760048101805460ff191660021790555b5092915050565b6013546040517f70a082310000000000000000000000000000000000000000000000000000000081526001600160a01b03838116600483015260009283929116906370a0823190602401602060405180830381865afa158015611c8e573d6000803e3d6000fd5b505050506040513d601f19601f82011682018060405250810190611cb291906141ad565b1192915050565b611cc1613173565b6001600160a01b03808316600090815260076020908152604091829020825160a08101845281548152600182015460ff8116151582850152610100900490941684840152825180840190935260028101805484526003820180549294606087019490939084019190611d3290613e58565b80601f0160208091040260200160405190810160405280929190818152602001828054611d5e90613e58565b8015611dab5780601f10611d8057610100808354040283529160200191611dab565b820191906000526020600020905b815481529060010190602001808311611d8e57829003601f168201915b505050919092525050508152600482015460209091019060ff166006811115611dd657611dd66135f3565b6006811115611de757611de76135f3565b90525092915050565b6005544267ffffffffffffffff9091161180611e23575060055468010000000000000000900467ffffffffffffffff1642115b156116a0576040517fb609ed5a00000000000000000000000000000000000000000000000000000000815260040160405180910390fd5b600b546001600160a01b031633146116a0576040517f4ca8886700000000000000000000000000000000000000000000000000000000815260040160405180910390fd5b60408051808201909152600080825260208201526001600160a01b038316600090815260176020526040812054600c80549091908110611ee057611ee0613bb6565b60009182526020808320909101546001600160a01b03871683526009909152604082205490925060ff16611f3457670de0b6b3a764000082600254611f2591906141c6565b611f2f91906141dd565b611f37565b60005b6040805180820182526001600160a01b03978816600090815260076020908152929020600101546101009004909716875286015250929392505050565b6040805180820182526010548152815160c0810183526001600160a01b03808816825267ffffffffffffffff871660208381019190915260125460ff161515838601526000606084018190526080840188905260a0840187905290840192909252600e5493517ff17325e70000000000000000000000000000000000000000000000000000000081529193169063f17325e7906120159084906004016141ff565b6020604051808303816000875af1158015612034573d6000803e3d6000fd5b505050506040513d601f19601f8201168201806040525081019061205891906141ad565b9695505050505050565b6005546000904267ffffffffffffffff9091161180159061209b575060055468010000000000000000900467ffffffffffffffff164211155b156120a65750600190565b50600090565b60006120b782611cb9565b6080015192915050565b6060810180516000604090910152805160019052516120e1908390612ba8565b60408101516014558051516120f590612cc8565b6040805160a0810182528251516001600160a01b039081168083528451602090810151909216918301829052845184015193830184905284516060908101519084018190528551608090810151151590850152600e80546001600160a01b03199081169093178155600f8054909316909317909155601093909355909160119061217f90826142c9565b50608091909101516004909101805460ff19169115159190911790556020810151601380546001600160a01b0319166001600160a01b0390921691909117905560118054600091906121d090613e58565b9050111561227757600f546012546040517f60d7a2780000000000000000000000000000000000000000000000000000000081526001600160a01b03909216916360d7a2789161222d91601191309160ff90911690600401614406565b6020604051808303816000875af115801561224c573d6000803e3d6000fd5b505050506040513d601f19601f8201168201806040525081019061227091906141ad565b6010555050565b600f546010546040516351753e3760e11b815260048101919091526000916001600160a01b03169063a2ea7c6e90602401600060405180830381865afa1580156122c5573d6000803e3d6000fd5b505050506040513d6000823e601f3d908101601f191682016040526122ed9190810190613dbd565b601054815191925014158061231157506012546040820151151560ff909116151514155b8061236d575060405161232990601190602001614439565b6040516020818303038152906040528051906020012081606001516040516020016123549190613ba3565b6040516020818303038152906040528051906020012014155b15610a74576040517fd59bf28000000000000000000000000000000000000000000000000000000000815260040160405180910390fd5b6000806000848060200190518101906123bd919061444c565b6013546040517f6352211e0000000000000000000000000000000000000000000000000000000081526004810184905293965091945092506001600160a01b0386811692911690636352211e90602401602060405180830381865afa15801561242a573d6000803e3d6000fd5b505050506040513d601f19601f8201168201806040525081019061244e9190614483565b6001600160a01b0316146124755760405163075fd2b160e01b815260040160405180910390fd5b6001600160a01b0380841660009081526007602090815260408083209388168352600882528083208684526016909252909120546124b4908490612d2a565b6124d157604051637fcce2a960e01b815260040160405180910390fd5b6124de818387868a612d43565b600084815260166020526040812080548592906124fc908490613e9f565b909155505060408051606081018252600080825260208201819052918101829052600c54909181900361254257604051637fcce2a960e01b815260040160405180910390fd5b600d61254f600183613e8c565b8154811061255f5761255f613bb6565b9060005260206000200154846000015411156127935760005b8181101561279157600083604001511180156125a0575060208301516001600160a01b031615155b156126a657876001600160a01b031683602001516001600160a01b0316031561279157600080600d83815481106125d9576125d9613bb6565b600091825260208083209091015485835260189091526040909120548651600d80549395506001600160a01b039092169350918590811061261c5761261c613bb6565b600091825260208083209190910192909255868201805186835260188452604080842080546001600160a01b0319166001600160a01b03938416179055825182168452601790945292909120859055838752908216905261267e600185613e8c565b83036126a3576020808601516001600160a01b03166000908152601790915260408120555b50505b60408301511580156126d85750600d81815481106126c6576126c6613bb6565b90600052602060002001548560000154115b156127895760016040840152600d8054829081106126f8576126f8613bb6565b60009182526020808320909101548552828252601881526040909120546001600160a01b0316908401528454600d80548390811061273857612738613bb6565b600091825260208083209091019290925582815260188252604080822080546001600160a01b03808e166001600160a01b031990921682179092558352601784529120839055908401511615612791575b600101612578565b505b505050505050505050565b600554600160c01b900467ffffffffffffffff164210156116a0576040517f8a879da200000000000000000000000000000000000000000000000000000000815260040160405180910390fd5b600060026001600160a01b03831660009081526007602052604090206004015460ff16600681111561281f5761281f6135f3565b1492915050565b7fffffffffffffffffffffffff11111111111111111111111111111111111111126001600160a01b0384160161286057610a748282612eaa565b610a74838383612ec6565b6000612875611df0565b6000806000612897604051806040016040528060008152602001606081525090565b60065460ff16156128e957868060200190518101906128b691906144a0565b919650945090506128c78587612f15565b6128e45760405163075fd2b160e01b815260040160405180910390fd5b612953565b868060200190518101906128fd91906144a0565b91955093506001600160a01b0384161515925090508161291d578561291f565b825b945081801561293557506129338587612f15565b155b156129535760405163075fd2b160e01b815260040160405180910390fd5b600654610100900460ff1680156129765750602081015151158061297657508051155b156129ad576040517fc19e07c500000000000000000000000000000000000000000000000000000000815260040160405180910390fd5b6001600160a01b0384166129df5760405163f4a513b960e01b81526001600160a01b0386166004820152602401610be2565b6001600160a01b038086166000908152600760209081526040909120600181018054938816610100027fffffffffffffffffffffff0000000000000000000000000000000000000000ff90941693909317909255825160028301908155908301518391906003840190612a5290826142c9565b505060065460ff169050612a665782612a69565b60015b60018201805460ff1916911515919091179055600481015460ff166000816006811115612a9857612a986135f3565b03612af65760048201805460ff191660011790556040516001600160a01b038816907fa197306e3dd5494a61a695381aa809a53b8e377a685e84e404a85d5a8da6cc6290612ae9908c908c906144fa565b60405180910390a2612b9c565b6002816006811115612b0a57612b0a6135f3565b03612b235760048201805460ff19166001179055612b4d565b6003816006811115612b3757612b376135f3565b03612b4d576004828101805460ff191690911790555b60048201546040516001600160a01b038916917fcec1da3f7f0b8a344dd1025d06e2ddd48b14880395997ad97cbdb439acc761d491612b93918d918d9160ff1690614525565b60405180910390a25b50505050505092915050565b612bb182613047565b80516006805460208085015161ffff1990921693151561ff0019169390931761010091151591909102179055604080517f5ab1bd5300000000000000000000000000000000000000000000000000000000815290517f00000000000000000000000000000000000000000000000000000000000000006001600160a01b031692635ab1bd5392600480820193918290030181865afa158015612c57573d6000803e3d6000fd5b505050506040513d601f19601f82011682018060405250810190612c7b9190614483565b600660026101000a8154816001600160a01b0302191690836001600160a01b031602179055508060400151600481905550611629816060015182608001518360a001518460c001516119f0565b6001600160a01b038116612d08576040517f83780ffe00000000000000000000000000000000000000000000000000000000815260040160405180910390fd5b600b80546001600160a01b0319166001600160a01b0392909216919091179055565b601454600090612d3a8385613e9f565b11159392505050565b612d4b6130af565b81600003612d6c57604051637fcce2a960e01b815260040160405180910390fd5b6001600160a01b0383166000908152600186016020908152604080832054600289019092528220549091612da08386613e9f565b90506000612dbe612db983670de0b6b3a76400006141c6565b61311a565b9050612dca8382613e8c565b90508060036000828254612dde9190613e9f565b9091555050875481908990600090612df7908490613e9f565b90915550506001600160a01b038716600090815260018a01602052604081208054849290612e26908490613e9f565b90915550506001600160a01b038716600090815260028a01602052604081208054839290612e55908490613e9f565b9091555050604080518281526001600160a01b0387811660208301528916917fe19137169fc4bceb2391a0921a61084851c12884df4897f569ec45a4ee46b7e3910160405180910390a2505050505050505050565b60008060008084865af16116295763b12d13eb6000526004601cfd5b81601452806034526fa9059cbb00000000000000000000000060005260206000604460106000875af13d156001600051141716612f0b576390b8ec186000526004601cfd5b6000603452505050565b6006546040517fdd93da430000000000000000000000000000000000000000000000000000000081526001600160a01b0384811660048301526000928392620100009091049091169063dd93da4390602401600060405180830381865afa158015612f84573d6000803e3d6000fd5b505050506040513d6000823e601f3d908101601f19168201604052612fac9190810190614556565b60065481516040517f5e8a791500000000000000000000000000000000000000000000000000000000815260048101919091526001600160a01b0386811660248301529293506201000090910490911690635e8a791590604401602060405180830381865afa158015613023573d6000803e3d6000fd5b505050506040513d601f19601f82011682018060405250810190610e1f9190614192565b61304f611657565b60015415613089576040517f439a74c900000000000000000000000000000000000000000000000000000000815260040160405180910390fd5b806000036130aa57604051637fcce2a960e01b815260040160405180910390fd5b600155565b60055442600160801b90910467ffffffffffffffff1611806130e35750600554600160c01b900467ffffffffffffffff1642115b156116a0576040517fb828c90000000000000000000000000000000000000000000000000000000000815260040160405180910390fd5b600080600261312a846001613e9f565b61313491906141dd565b90508291505b8181101561316d5790508060028161315281866141dd565b61315c9190613e9f565b61316691906141dd565b905061313a565b50919050565b6040518060a001604052806000815260200160001515815260200160006001600160a01b031681526020016131bb604051806040016040528060008152602001606081525090565b81526020016000905290565b6001600160a01b038116811461165457600080fd5b6000602082840312156131ee57600080fd5b81356131f9816131c7565b9392505050565b634e487b7160e01b600052604160045260246000fd5b604051610140810167ffffffffffffffff8111828210171561323a5761323a613200565b60405290565b6040516080810167ffffffffffffffff8111828210171561323a5761323a613200565b60405160a0810167ffffffffffffffff8111828210171561323a5761323a613200565b60405160c0810167ffffffffffffffff8111828210171561323a5761323a613200565b604051601f8201601f1916810167ffffffffffffffff811182821017156132d2576132d2613200565b604052919050565b600067ffffffffffffffff8211156132f4576132f4613200565b5060051b60200190565b600082601f83011261330f57600080fd5b8135602061332461331f836132da565b6132a9565b82815260059290921b8401810191818101908684111561334357600080fd5b8286015b8481101561336757803561335a816131c7565b8352918301918301613347565b509695505050505050565b600067ffffffffffffffff82111561338c5761338c613200565b50601f01601f191660200190565b600082601f8301126133ab57600080fd5b81356133b961331f82613372565b8181528460208386010111156133ce57600080fd5b816020850160208301376000918101602001919091529392505050565b60008060006060848603121561340057600080fd5b833567ffffffffffffffff8082111561341857600080fd5b613424878388016132fe565b9450602086013591508082111561343a57600080fd5b506134478682870161339a565b9250506040840135613458816131c7565b809150509250925092565b8035600781106114f057600080fd5b6000806040838503121561348557600080fd5b8235613490816131c7565b915061349e60208401613463565b90509250929050565b67ffffffffffffffff8116811461165457600080fd5b600080600080608085870312156134d357600080fd5b84356134de816134a7565b935060208501356134ee816134a7565b925060408501356134fe816134a7565b9150606085013561350e816134a7565b939692955090935050565b6000806040838503121561352c57600080fd5b823567ffffffffffffffff81111561354357600080fd5b61354f8582860161339a565b9250506020830135613560816131c7565b809150509250929050565b60006020828403121561357d57600080fd5b5035919050565b60005b8381101561359f578181015183820152602001613587565b50506000910152565b600081518084526135c0816020860160208601613584565b601f01601f19169290920160200192915050565b805182526000602082015160406020850152610e1f60408501826135a8565b634e487b7160e01b600052602160045260246000fd5b6007811061362757634e487b7160e01b600052602160045260246000fd5b9052565b60208152815160208201526020820151151560408201526001600160a01b0360408301511660608201526000606083015160a0608084015261367060c08401826135d4565b9050608084015161368460a0850182613609565b509392505050565b60008083601f84011261369e57600080fd5b50813567ffffffffffffffff8111156136b657600080fd5b6020830191508360208260051b85010111156136d157600080fd5b9250929050565b600080600080604085870312156136ee57600080fd5b843567ffffffffffffffff8082111561370657600080fd5b6137128883890161368c565b9096509450602087013591508082111561372b57600080fd5b506137388782880161368c565b95989497509550505050565b60208152815160208201526001600160a01b03602083015116604082015260408201511515606082015260006060830151608080840152610e1f60a08401826135a8565b602081528151602082015260208201516040820152600060408301516137ba606084018267ffffffffffffffff169052565b50606083015167ffffffffffffffff8116608084015250608083015167ffffffffffffffff811660a08401525060a083015160c083015260c083015161380b60e08401826001600160a01b03169052565b5060e0830151610100613828818501836001600160a01b03169052565b840151905061012061383d8482018315159052565b840151610140848101529050610e1f6101608401826135a8565b60006001600160a01b03808816835280871660208401525084604083015260a0606083015261388960a08301856135a8565b905082151560808301529695505050505050565b600080604083850312156138b057600080fd5b823567ffffffffffffffff808211156138c857600080fd5b6138d4868387016132fe565b93506020915081850135818111156138eb57600080fd5b8501601f810187136138fc57600080fd5b803561390a61331f826132da565b81815260059190911b8201840190848101908983111561392957600080fd5b8584015b83811015613961578035868111156139455760008081fd5b6139538c898389010161339a565b84525091860191860161392d565b508096505050505050509250929050565b602080825282518282018190526000919060409081850190868401855b828110156139bd57815180516001600160a01b0316855286015186850152928401929085019060010161398f565b5091979650505050505050565b6000806000606084860312156139df57600080fd5b833567ffffffffffffffff808211156139f757600080fd5b613a03878388016132fe565b945060208601359150613a15826134a7565b90925060408501359080821115613a2b57600080fd5b50613a388682870161339a565b9150509250925092565b60006020808385031215613a5557600080fd5b823567ffffffffffffffff811115613a6c57600080fd5b8301601f81018513613a7d57600080fd5b8035613a8b61331f826132da565b81815260059190911b82018301908381019087831115613aaa57600080fd5b928401925b82841015613ac857833582529284019290840190613aaf565b979650505050505050565b600060208284031215613ae557600080fd5b813567ffffffffffffffff811115613afc57600080fd5b820161014081850312156131f957600080fd5b60208101610ab58284613609565b85815284151560208201526001600160a01b038416604082015260a060608201526000613b4d60a08301856135d4565b90506120586080830184613609565b60008060408385031215613b6f57600080fd5b82359150602083013567ffffffffffffffff811115613b8d57600080fd5b613b998582860161339a565b9150509250929050565b6020815260006131f960208301846135a8565b634e487b7160e01b600052603260045260246000fd5b600060208284031215613bde57600080fd5b6131f982613463565b634e487b7160e01b600052601160045260246000fd5b600060018201613c0f57613c0f613be7565b5060010190565b60408101613c248285613609565b6001600160a01b03831660208301529392505050565b6000823561013e19833603018112613c5157600080fd5b9190910192915050565b80516114f0816134a7565b80516114f0816131c7565b805180151581146114f057600080fd5b600082601f830112613c9257600080fd5b8151613ca061331f82613372565b818152846020838601011115613cb557600080fd5b610e1f826020830160208701613584565b600060208284031215613cd857600080fd5b815167ffffffffffffffff80821115613cf057600080fd5b908301906101408286031215613d0557600080fd5b613d0d613216565b8251815260208301516020820152613d2760408401613c5b565b6040820152613d3860608401613c5b565b6060820152613d4960808401613c5b565b608082015260a083015160a0820152613d6460c08401613c66565b60c0820152613d7560e08401613c66565b60e0820152610100613d88818501613c71565b908201526101208381015183811115613da057600080fd5b613dac88828701613c81565b918301919091525095945050505050565b600060208284031215613dcf57600080fd5b815167ffffffffffffffff80821115613de757600080fd5b9083019060808286031215613dfb57600080fd5b613e03613240565b825181526020830151613e15816131c7565b6020820152613e2660408401613c71565b6040820152606083015182811115613e3d57600080fd5b613e4987828601613c81565b60608301525095945050505050565b600181811c90821680613e6c57607f821691505b60208210810361316d57634e487b7160e01b600052602260045260246000fd5b81810381811115610ab557610ab5613be7565b80820180821115610ab557610ab5613be7565b600060e08284031215613ec457600080fd5b60405160e0810181811067ffffffffffffffff82111715613ee757613ee7613200565b604052905080613ef683613c71565b8152613f0460208401613c71565b6020820152604083015160408201526060830151613f21816134a7565b60608201526080830151613f34816134a7565b608082015260a0830151613f47816134a7565b60a082015260c0830151613f5a816134a7565b60c0919091015292915050565b600060208284031215613f7957600080fd5b815167ffffffffffffffff80821115613f9157600080fd5b908301906101408286031215613fa657600080fd5b613fae613240565b825182811115613fbd57600080fd5b830160a08188031215613fcf57600080fd5b613fd7613263565b8151613fe2816131c7565b81526020820151613ff2816131c7565b60208201526040828101519082015260608201518481111561401357600080fd5b61401f89828501613c81565b60608301525061403160808301613c71565b608082015282525061404560208401613c66565b6020820152604083015160408201526140618660608501613eb2565b606082015295945050505050565b60006040828403121561408157600080fd5b6040516040810167ffffffffffffffff82821081831117156140a5576140a5613200565b816040528293508451835260208501519150808211156140c457600080fd5b506140d185828601613c81565b6020830152505092915050565b6000602082840312156140f057600080fd5b815167ffffffffffffffff8082111561410857600080fd5b9083019060c0828603121561411c57600080fd5b614124613286565b825181526020830151614136816131c7565b60208201526040830151614149816131c7565b604082015260608301518281111561416057600080fd5b61416c8782860161406f565b6060830152506080830151608082015260a083015160a082015280935050505092915050565b6000602082840312156141a457600080fd5b6131f982613c71565b6000602082840312156141bf57600080fd5b5051919050565b8082028115828204841417610ab557610ab5613be7565b6000826141fa57634e487b7160e01b600052601260045260246000fd5b500490565b6020815281516020820152600060208301516040808401526001600160a01b03815116606084015267ffffffffffffffff60208201511660808401526040810151151560a0840152606081015160c0840152608081015160c060e085015261426b6101208501826135a8565b905060a0820151610100850152809250505092915050565b601f821115610a7457600081815260208120601f850160051c810160208610156142aa5750805b601f850160051c820191505b81811015611330578281556001016142b6565b815167ffffffffffffffff8111156142e3576142e3613200565b6142f7816142f18454613e58565b84614283565b602080601f83116001811461432c57600084156143145750858301515b600019600386901b1c1916600185901b178555611330565b600085815260208120601f198616915b8281101561435b5788860151825594840194600190910190840161433c565b50858210156143795787850151600019600388901b60f8161c191681555b5050505050600190811b01905550565b6000815461439681613e58565b8085526020600183811680156143b357600181146143cd576143fb565b60ff1985168884015283151560051b8801830195506143fb565b866000528260002060005b858110156143f35781548a82018601529083019084016143d8565b890184019650505b505050505092915050565b6060815260006144196060830186614389565b6001600160a01b0394909416602083015250901515604090910152919050565b6020815260006131f96020830184614389565b60008060006060848603121561446157600080fd5b835161446c816131c7565b602085015160409095015190969495509392505050565b60006020828403121561449557600080fd5b81516131f9816131c7565b6000806000606084860312156144b557600080fd5b83516144c0816131c7565b60208501519093506144d1816131c7565b604085015190925067ffffffffffffffff8111156144ee57600080fd5b613a388682870161406f565b60408152600061450d60408301856135a8565b90506001600160a01b03831660208301529392505050565b60608152600061453860608301866135a8565b90506001600160a01b0384166020830152610e1f6040830184613609565b60006020828403121561456857600080fd5b815167ffffffffffffffff8082111561458057600080fd5b9083019060c0828603121561459457600080fd5b61459c613286565b82518152602083015160208201526040830151828111156145bc57600080fd5b6145c887828601613c81565b6040830152506060830151828111156145e057600080fd5b6145ec8782860161406f565b6060830152506145fe60808401613c66565b608082015261460f60a08401613c66565b60a08201529594505050505056fea264697066735822122056b6d696b381e15e57d58b14b1d00a7aad55a0ab1c27905906aa784d0f7dd5db64736f6c63430008130033",
    "linkReferences": {}
  },
  "methodIdentifiers": {
    "NATIVE()": "a0cf0aea",
    "VERSION()": "ffa1ad74",
    "_NO_RELATED_ATTESTATION_UID()": "5efbbe01",
    "allocate(bytes,address)": "ef2920fc",
    "allocationEndTime()": "4533d678",
    "allocationStartTime()": "d2e17f59",
    "allocators(address)": "084ea36e",
    "attest((bytes32,bytes32,uint64,uint64,uint64,bytes32,address,address,bool,bytes))": "e60c3505",
    "distribute(address[],bytes,address)": "0a6f0ee9",
    "easInfo()": "afc6dd4b",
    "getAllo()": "15cc481e",
    "getAttestation(bytes32)": "a3112a64",
    "getPayouts(address[],bytes[])": "b2b878d0",
    "getPoolAmount()": "4ab4ba42",
    "getPoolId()": "38fff2d0",
    "getRecipient(address)": "62812a39",
    "getRecipientStatus(address)": "eb11af93",
    "getSchema(bytes32)": "a2ea7c6e",
    "getStrategyId()": "42fda9c7",
    "increasePoolAmount(uint256)": "f5b0dfb7",
    "indexToRecipientId(uint256)": "5b45a754",
    "initialize(uint256,bytes)": "edd146cc",
    "isAttestationExpired(address)": "93a5916a",
    "isPayable()": "ce46e046",
    "isPoolActive()": "df868ed3",
    "isValidAllocator(address)": "4d31d087",
    "maxVoiceCreditsPerAllocator()": "4a4f8e04",
    "metadataRequired()": "cb0e85a6",
    "multiAttest((bytes32,bytes32,uint64,uint64,uint64,bytes32,address,address,bool,bytes)[],uint256[])": "91db0b7e",
    "multiRevoke((bytes32,bytes32,uint64,uint64,uint64,bytes32,address,address,bool,bytes)[],uint256[])": "88e5b2d9",
    "nft()": "47ccca02",
    "paidOut(address)": "81f03fcb",
    "payoutPercentages(uint256)": "49a046c1",
    "recipientIdToIndex(address)": "3c2dedb0",
    "recipientIdToUID(address)": "b91c0684",
    "recipients(address)": "eb820312",
    "registerRecipient(bytes,address)": "2bbe0cae",
    "registrationEndTime()": "dff7d2c7",
    "registrationStartTime()": "9af5c09d",
    "registryGating()": "a647d23e",
    "reviewRecipients(address[],uint8[])": "7f835983",
    "reviewThreshold()": "57825849",
    "reviewsByStatus(address,uint8)": "0d93bb53",
    "revoke((bytes32,bytes32,uint64,uint64,uint64,bytes32,address,address,bool,bytes))": "e49617e1",
    "setAllowedRecipientIds(address[],uint64,bytes)": "cd8c4112",
    "setPayoutPercentages(uint256[])": "cfae93e7",
    "totalRecipientVotes()": "59010701",
    "updatePoolTimestamps(uint64,uint64,uint64,uint64)": "2143e92f",
    "voiceCreditsUsedPerNftId(uint256)": "d41bf333",
    "votesByRank(uint256)": "cb2878c4"
  },
  "storageLayout": {
    "storage": [
      {
        "astId": 3267,
        "contract": "contracts/strategies/_poc/qv-hackathon/HackathonQVStrategy.sol:HackathonQVStrategy",
        "label": "poolActive",
        "offset": 0,
        "slot": "0",
        "type": "t_bool"
      },
      {
        "astId": 3269,
        "contract": "contracts/strategies/_poc/qv-hackathon/HackathonQVStrategy.sol:HackathonQVStrategy",
        "label": "poolId",
        "offset": 0,
        "slot": "1",
        "type": "t_uint256"
      },
      {
        "astId": 3271,
        "contract": "contracts/strategies/_poc/qv-hackathon/HackathonQVStrategy.sol:HackathonQVStrategy",
        "label": "poolAmount",
        "offset": 0,
        "slot": "2",
        "type": "t_uint256"
      },
      {
        "astId": 14496,
        "contract": "contracts/strategies/_poc/qv-hackathon/HackathonQVStrategy.sol:HackathonQVStrategy",
        "label": "totalRecipientVotes",
        "offset": 0,
        "slot": "3",
        "type": "t_uint256"
      },
      {
        "astId": 14499,
        "contract": "contracts/strategies/_poc/qv-hackathon/HackathonQVStrategy.sol:HackathonQVStrategy",
        "label": "reviewThreshold",
        "offset": 0,
        "slot": "4",
        "type": "t_uint256"
      },
      {
        "astId": 14502,
        "contract": "contracts/strategies/_poc/qv-hackathon/HackathonQVStrategy.sol:HackathonQVStrategy",
        "label": "registrationStartTime",
        "offset": 0,
        "slot": "5",
        "type": "t_uint64"
      },
      {
        "astId": 14504,
        "contract": "contracts/strategies/_poc/qv-hackathon/HackathonQVStrategy.sol:HackathonQVStrategy",
        "label": "registrationEndTime",
        "offset": 8,
        "slot": "5",
        "type": "t_uint64"
      },
      {
        "astId": 14506,
        "contract": "contracts/strategies/_poc/qv-hackathon/HackathonQVStrategy.sol:HackathonQVStrategy",
        "label": "allocationStartTime",
        "offset": 16,
        "slot": "5",
        "type": "t_uint64"
      },
      {
        "astId": 14508,
        "contract": "contracts/strategies/_poc/qv-hackathon/HackathonQVStrategy.sol:HackathonQVStrategy",
        "label": "allocationEndTime",
        "offset": 24,
        "slot": "5",
        "type": "t_uint64"
      },
      {
        "astId": 14511,
        "contract": "contracts/strategies/_poc/qv-hackathon/HackathonQVStrategy.sol:HackathonQVStrategy",
        "label": "registryGating",
        "offset": 0,
        "slot": "6",
        "type": "t_bool"
      },
      {
        "astId": 14514,
        "contract": "contracts/strategies/_poc/qv-hackathon/HackathonQVStrategy.sol:HackathonQVStrategy",
        "label": "metadataRequired",
        "offset": 1,
        "slot": "6",
        "type": "t_bool"
      },
      {
        "astId": 14518,
        "contract": "contracts/strategies/_poc/qv-hackathon/HackathonQVStrategy.sol:HackathonQVStrategy",
        "label": "_registry",
        "offset": 2,
        "slot": "6",
        "type": "t_contract(IRegistry)2625"
      },
      {
        "astId": 14569,
        "contract": "contracts/strategies/_poc/qv-hackathon/HackathonQVStrategy.sol:HackathonQVStrategy",
        "label": "recipients",
        "offset": 0,
        "slot": "7",
        "type": "t_mapping(t_address,t_struct(Recipient)14552_storage)"
      },
      {
        "astId": 14575,
        "contract": "contracts/strategies/_poc/qv-hackathon/HackathonQVStrategy.sol:HackathonQVStrategy",
        "label": "allocators",
        "offset": 0,
        "slot": "8",
        "type": "t_mapping(t_address,t_struct(Allocator)14563_storage)"
      },
      {
        "astId": 14580,
        "contract": "contracts/strategies/_poc/qv-hackathon/HackathonQVStrategy.sol:HackathonQVStrategy",
        "label": "paidOut",
        "offset": 0,
        "slot": "9",
        "type": "t_mapping(t_address,t_bool)"
      },
      {
        "astId": 14587,
        "contract": "contracts/strategies/_poc/qv-hackathon/HackathonQVStrategy.sol:HackathonQVStrategy",
        "label": "reviewsByStatus",
        "offset": 0,
        "slot": "10",
        "type": "t_mapping(t_address,t_mapping(t_enum(Status)2638,t_uint256))"
      },
      {
        "astId": 8822,
        "contract": "contracts/strategies/_poc/qv-hackathon/HackathonQVStrategy.sol:HackathonQVStrategy",
        "label": "_eas",
        "offset": 0,
        "slot": "11",
        "type": "t_contract(IEAS)17442"
      },
      {
        "astId": 7814,
        "contract": "contracts/strategies/_poc/qv-hackathon/HackathonQVStrategy.sol:HackathonQVStrategy",
        "label": "payoutPercentages",
        "offset": 0,
        "slot": "12",
        "type": "t_array(t_uint256)dyn_storage"
      },
      {
        "astId": 7817,
        "contract": "contracts/strategies/_poc/qv-hackathon/HackathonQVStrategy.sol:HackathonQVStrategy",
        "label": "votesByRank",
        "offset": 0,
        "slot": "13",
        "type": "t_array(t_uint256)dyn_storage"
      },
      {
        "astId": 7820,
        "contract": "contracts/strategies/_poc/qv-hackathon/HackathonQVStrategy.sol:HackathonQVStrategy",
        "label": "easInfo",
        "offset": 0,
        "slot": "14",
        "type": "t_struct(EASInfo)7782_storage"
      },
      {
        "astId": 7823,
        "contract": "contracts/strategies/_poc/qv-hackathon/HackathonQVStrategy.sol:HackathonQVStrategy",
        "label": "nft",
        "offset": 0,
        "slot": "19",
        "type": "t_contract(ERC721)76863"
      },
      {
        "astId": 7825,
        "contract": "contracts/strategies/_poc/qv-hackathon/HackathonQVStrategy.sol:HackathonQVStrategy",
        "label": "maxVoiceCreditsPerAllocator",
        "offset": 0,
        "slot": "20",
        "type": "t_uint256"
      },
      {
        "astId": 7829,
        "contract": "contracts/strategies/_poc/qv-hackathon/HackathonQVStrategy.sol:HackathonQVStrategy",
        "label": "recipientIdToUID",
        "offset": 0,
        "slot": "21",
        "type": "t_mapping(t_address,t_bytes32)"
      },
      {
        "astId": 7833,
        "contract": "contracts/strategies/_poc/qv-hackathon/HackathonQVStrategy.sol:HackathonQVStrategy",
        "label": "voiceCreditsUsedPerNftId",
        "offset": 0,
        "slot": "22",
        "type": "t_mapping(t_uint256,t_uint256)"
      },
      {
        "astId": 7837,
        "contract": "contracts/strategies/_poc/qv-hackathon/HackathonQVStrategy.sol:HackathonQVStrategy",
        "label": "recipientIdToIndex",
        "offset": 0,
        "slot": "23",
        "type": "t_mapping(t_address,t_uint256)"
      },
      {
        "astId": 7841,
        "contract": "contracts/strategies/_poc/qv-hackathon/HackathonQVStrategy.sol:HackathonQVStrategy",
        "label": "indexToRecipientId",
        "offset": 0,
        "slot": "24",
        "type": "t_mapping(t_uint256,t_address)"
      }
    ],
    "types": {
      "t_address": {
        "encoding": "inplace",
        "label": "address",
        "numberOfBytes": "20"
      },
      "t_array(t_uint256)dyn_storage": {
        "encoding": "dynamic_array",
        "label": "uint256[]",
        "numberOfBytes": "32",
        "base": "t_uint256"
      },
      "t_bool": {
        "encoding": "inplace",
        "label": "bool",
        "numberOfBytes": "1"
      },
      "t_bytes32": {
        "encoding": "inplace",
        "label": "bytes32",
        "numberOfBytes": "32"
      },
      "t_contract(ERC721)76863": {
        "encoding": "inplace",
        "label": "contract ERC721",
        "numberOfBytes": "20"
      },
      "t_contract(IEAS)17442": {
        "encoding": "inplace",
        "label": "contract IEAS",
        "numberOfBytes": "20"
      },
      "t_contract(IRegistry)2625": {
        "encoding": "inplace",
        "label": "contract IRegistry",
        "numberOfBytes": "20"
      },
      "t_contract(ISchemaRegistry)17490": {
        "encoding": "inplace",
        "label": "contract ISchemaRegistry",
        "numberOfBytes": "20"
      },
      "t_enum(Status)2638": {
        "encoding": "inplace",
        "label": "enum IStrategy.Status",
        "numberOfBytes": "1"
      },
      "t_mapping(t_address,t_bool)": {
        "encoding": "mapping",
        "key": "t_address",
        "label": "mapping(address => bool)",
        "numberOfBytes": "32",
        "value": "t_bool"
      },
      "t_mapping(t_address,t_bytes32)": {
        "encoding": "mapping",
        "key": "t_address",
        "label": "mapping(address => bytes32)",
        "numberOfBytes": "32",
        "value": "t_bytes32"
      },
      "t_mapping(t_address,t_mapping(t_enum(Status)2638,t_uint256))": {
        "encoding": "mapping",
        "key": "t_address",
        "label": "mapping(address => mapping(enum IStrategy.Status => uint256))",
        "numberOfBytes": "32",
        "value": "t_mapping(t_enum(Status)2638,t_uint256)"
      },
      "t_mapping(t_address,t_struct(Allocator)14563_storage)": {
        "encoding": "mapping",
        "key": "t_address",
        "label": "mapping(address => struct QVBaseStrategy.Allocator)",
        "numberOfBytes": "32",
        "value": "t_struct(Allocator)14563_storage"
      },
      "t_mapping(t_address,t_struct(Recipient)14552_storage)": {
        "encoding": "mapping",
        "key": "t_address",
        "label": "mapping(address => struct QVBaseStrategy.Recipient)",
        "numberOfBytes": "32",
        "value": "t_struct(Recipient)14552_storage"
      },
      "t_mapping(t_address,t_uint256)": {
        "encoding": "mapping",
        "key": "t_address",
        "label": "mapping(address => uint256)",
        "numberOfBytes": "32",
        "value": "t_uint256"
      },
      "t_mapping(t_enum(Status)2638,t_uint256)": {
        "encoding": "mapping",
        "key": "t_enum(Status)2638",
        "label": "mapping(enum IStrategy.Status => uint256)",
        "numberOfBytes": "32",
        "value": "t_uint256"
      },
      "t_mapping(t_uint256,t_address)": {
        "encoding": "mapping",
        "key": "t_uint256",
        "label": "mapping(uint256 => address)",
        "numberOfBytes": "32",
        "value": "t_address"
      },
      "t_mapping(t_uint256,t_uint256)": {
        "encoding": "mapping",
        "key": "t_uint256",
        "label": "mapping(uint256 => uint256)",
        "numberOfBytes": "32",
        "value": "t_uint256"
      },
      "t_string_storage": {
        "encoding": "bytes",
        "label": "string",
        "numberOfBytes": "32"
      },
      "t_struct(Allocator)14563_storage": {
        "encoding": "inplace",
        "label": "struct QVBaseStrategy.Allocator",
        "numberOfBytes": "96",
        "members": [
          {
            "astId": 14554,
            "contract": "contracts/strategies/_poc/qv-hackathon/HackathonQVStrategy.sol:HackathonQVStrategy",
            "label": "voiceCredits",
            "offset": 0,
            "slot": "0",
            "type": "t_uint256"
          },
          {
            "astId": 14558,
            "contract": "contracts/strategies/_poc/qv-hackathon/HackathonQVStrategy.sol:HackathonQVStrategy",
            "label": "voiceCreditsCastToRecipient",
            "offset": 0,
            "slot": "1",
            "type": "t_mapping(t_address,t_uint256)"
          },
          {
            "astId": 14562,
            "contract": "contracts/strategies/_poc/qv-hackathon/HackathonQVStrategy.sol:HackathonQVStrategy",
            "label": "votesCastToRecipient",
            "offset": 0,
            "slot": "2",
            "type": "t_mapping(t_address,t_uint256)"
          }
        ]
      },
      "t_struct(EASInfo)7782_storage": {
        "encoding": "inplace",
        "label": "struct HackathonQVStrategy.EASInfo",
        "numberOfBytes": "160",
        "members": [
          {
            "astId": 7772,
            "contract": "contracts/strategies/_poc/qv-hackathon/HackathonQVStrategy.sol:HackathonQVStrategy",
            "label": "eas",
            "offset": 0,
            "slot": "0",
            "type": "t_contract(IEAS)17442"
          },
          {
            "astId": 7775,
            "contract": "contracts/strategies/_poc/qv-hackathon/HackathonQVStrategy.sol:HackathonQVStrategy",
            "label": "schemaRegistry",
            "offset": 0,
            "slot": "1",
            "type": "t_contract(ISchemaRegistry)17490"
          },
          {
            "astId": 7777,
            "contract": "contracts/strategies/_poc/qv-hackathon/HackathonQVStrategy.sol:HackathonQVStrategy",
            "label": "schemaUID",
            "offset": 0,
            "slot": "2",
            "type": "t_bytes32"
          },
          {
            "astId": 7779,
            "contract": "contracts/strategies/_poc/qv-hackathon/HackathonQVStrategy.sol:HackathonQVStrategy",
            "label": "schema",
            "offset": 0,
            "slot": "3",
            "type": "t_string_storage"
          },
          {
            "astId": 7781,
            "contract": "contracts/strategies/_poc/qv-hackathon/HackathonQVStrategy.sol:HackathonQVStrategy",
            "label": "revocable",
            "offset": 0,
            "slot": "4",
            "type": "t_bool"
          }
        ]
      },
      "t_struct(Metadata)2922_storage": {
        "encoding": "inplace",
        "label": "struct Metadata",
        "numberOfBytes": "64",
        "members": [
          {
            "astId": 2918,
            "contract": "contracts/strategies/_poc/qv-hackathon/HackathonQVStrategy.sol:HackathonQVStrategy",
            "label": "protocol",
            "offset": 0,
            "slot": "0",
            "type": "t_uint256"
          },
          {
            "astId": 2921,
            "contract": "contracts/strategies/_poc/qv-hackathon/HackathonQVStrategy.sol:HackathonQVStrategy",
            "label": "pointer",
            "offset": 0,
            "slot": "1",
            "type": "t_string_storage"
          }
        ]
      },
      "t_struct(Recipient)14552_storage": {
        "encoding": "inplace",
        "label": "struct QVBaseStrategy.Recipient",
        "numberOfBytes": "160",
        "members": [
          {
            "astId": 14541,
            "contract": "contracts/strategies/_poc/qv-hackathon/HackathonQVStrategy.sol:HackathonQVStrategy",
            "label": "totalVotesReceived",
            "offset": 0,
            "slot": "0",
            "type": "t_uint256"
          },
          {
            "astId": 14543,
            "contract": "contracts/strategies/_poc/qv-hackathon/HackathonQVStrategy.sol:HackathonQVStrategy",
            "label": "useRegistryAnchor",
            "offset": 0,
            "slot": "1",
            "type": "t_bool"
          },
          {
            "astId": 14545,
            "contract": "contracts/strategies/_poc/qv-hackathon/HackathonQVStrategy.sol:HackathonQVStrategy",
            "label": "recipientAddress",
            "offset": 1,
            "slot": "1",
            "type": "t_address"
          },
          {
            "astId": 14548,
            "contract": "contracts/strategies/_poc/qv-hackathon/HackathonQVStrategy.sol:HackathonQVStrategy",
            "label": "metadata",
            "offset": 0,
            "slot": "2",
            "type": "t_struct(Metadata)2922_storage"
          },
          {
            "astId": 14551,
            "contract": "contracts/strategies/_poc/qv-hackathon/HackathonQVStrategy.sol:HackathonQVStrategy",
            "label": "recipientStatus",
            "offset": 0,
            "slot": "4",
            "type": "t_enum(Status)2638"
          }
        ]
      },
      "t_uint256": {
        "encoding": "inplace",
        "label": "uint256",
        "numberOfBytes": "32"
      },
      "t_uint64": {
        "encoding": "inplace",
        "label": "uint64",
        "numberOfBytes": "8"
      }
    }
  },
  "id": 19
}