{"abi":[{"type":"constructor","inputs":[{"name":"_signer","type":"address","internalType":"address"},{"name":"_environmentTag","type":"string","internalType":"string"},{"name":"_authorizationRegistryAddress","type":"address","internalType":"address"}],"stateMutability":"nonpayable"},{"type":"function","name":"DOMAIN_SEPARATOR","inputs":[],"outputs":[{"name":"","type":"bytes32","internalType":"bytes32"}],"stateMutability":"view"},{"type":"function","name":"DOMAIN_TYPEHASH","inputs":[],"outputs":[{"name":"","type":"bytes32","internalType":"bytes32"}],"stateMutability":"view"},{"type":"function","name":"INVESTMENT_TYPEHASH","inputs":[],"outputs":[{"name":"","type":"bytes32","internalType":"bytes32"}],"stateMutability":"view"},{"type":"function","name":"addInvestmentRecord","inputs":[{"name":"_kycAddress","type":"address","internalType":"address"},{"name":"_investmentRound","type":"uint256","internalType":"uint256"},{"name":"_amountToInvest","type":"uint256","internalType":"uint256"}],"outputs":[],"stateMutability":"nonpayable"},{"type":"function","name":"invest","inputs":[{"name":"_params","type":"tuple","internalType":"struct VVVVCInvestmentLedger.InvestParams","components":[{"name":"investmentRound","type":"uint256","internalType":"uint256"},{"name":"investmentRoundLimit","type":"uint256","internalType":"uint256"},{"name":"investmentRoundStartTimestamp","type":"uint256","internalType":"uint256"},{"name":"investmentRoundEndTimestamp","type":"uint256","internalType":"uint256"},{"name":"paymentTokenAddress","type":"address","internalType":"address"},{"name":"kycAddress","type":"address","internalType":"address"},{"name":"kycAddressAllocation","type":"uint256","internalType":"uint256"},{"name":"amountToInvest","type":"uint256","internalType":"uint256"},{"name":"deadline","type":"uint256","internalType":"uint256"},{"name":"signature","type":"bytes","internalType":"bytes"}]}],"outputs":[],"stateMutability":"nonpayable"},{"type":"function","name":"isSignatureValid","inputs":[{"name":"_params","type":"tuple","internalType":"struct VVVVCInvestmentLedger.InvestParams","components":[{"name":"investmentRound","type":"uint256","internalType":"uint256"},{"name":"investmentRoundLimit","type":"uint256","internalType":"uint256"},{"name":"investmentRoundStartTimestamp","type":"uint256","internalType":"uint256"},{"name":"investmentRoundEndTimestamp","type":"uint256","internalType":"uint256"},{"name":"paymentTokenAddress","type":"address","internalType":"address"},{"name":"kycAddress","type":"address","internalType":"address"},{"name":"kycAddressAllocation","type":"uint256","internalType":"uint256"},{"name":"amountToInvest","type":"uint256","internalType":"uint256"},{"name":"deadline","type":"uint256","internalType":"uint256"},{"name":"signature","type":"bytes","internalType":"bytes"}]}],"outputs":[{"name":"","type":"bool","internalType":"bool"}],"stateMutability":"view"},{"type":"function","name":"kycAddressInvestedPerRound","inputs":[{"name":"","type":"address","internalType":"address"},{"name":"","type":"uint256","internalType":"uint256"}],"outputs":[{"name":"","type":"uint256","internalType":"uint256"}],"stateMutability":"view"},{"type":"function","name":"signer","inputs":[],"outputs":[{"name":"","type":"address","internalType":"address"}],"stateMutability":"view"},{"type":"function","name":"totalInvestedPerRound","inputs":[{"name":"","type":"uint256","internalType":"uint256"}],"outputs":[{"name":"","type":"uint256","internalType":"uint256"}],"stateMutability":"view"},{"type":"function","name":"withdraw","inputs":[{"name":"_tokenAddress","type":"address","internalType":"address"},{"name":"_to","type":"address","internalType":"address"},{"name":"_amount","type":"uint256","internalType":"uint256"}],"outputs":[],"stateMutability":"nonpayable"},{"type":"event","name":"VCInvestment","inputs":[{"name":"investmentRound","type":"uint256","indexed":true,"internalType":"uint256"},{"name":"kycAddress","type":"address","indexed":true,"internalType":"address"},{"name":"investmentAmount","type":"uint256","indexed":false,"internalType":"uint256"}],"anonymous":false},{"type":"error","name":"AddressEmptyCode","inputs":[{"name":"target","type":"address","internalType":"address"}]},{"type":"error","name":"AddressInsufficientBalance","inputs":[{"name":"account","type":"address","internalType":"address"}]},{"type":"error","name":"ECDSAInvalidSignature","inputs":[]},{"type":"error","name":"ECDSAInvalidSignatureLength","inputs":[{"name":"length","type":"uint256","internalType":"uint256"}]},{"type":"error","name":"ECDSAInvalidSignatureS","inputs":[{"name":"s","type":"bytes32","internalType":"bytes32"}]},{"type":"error","name":"ExceedsAllocation","inputs":[]},{"type":"error","name":"FailedInnerCall","inputs":[]},{"type":"error","name":"InactiveInvestmentRound","inputs":[]},{"type":"error","name":"InvalidSignature","inputs":[]},{"type":"error","name":"SafeERC20FailedOperation","inputs":[{"name":"token","type":"address","internalType":"address"}]},{"type":"error","name":"UnauthorizedCaller","inputs":[]}],"bytecode":{"object":"0x60c06040523480156200001157600080fd5b506040516200126c3803806200126c83398101604081905262000034916200013f565b6001600160a01b038181166080908152600080546001600160a01b03191692861692909217909155604080519182019052604380825262001229602083013980519060200120826040516020016200008d91906200021f565b60408051601f1981840301815282825280516020918201209083019390935281019190915246606082015230608082015260a00160408051601f19818403018152919052805160209091012060a052506200024c915050565b80516001600160a01b0381168114620000fe57600080fd5b919050565b634e487b7160e01b600052604160045260246000fd5b60005b83811015620001365781810151838201526020016200011c565b50506000910152565b6000806000606084860312156200015557600080fd5b6200016084620000e6565b60208501519093506001600160401b03808211156200017e57600080fd5b818601915086601f8301126200019357600080fd5b815181811115620001a857620001a862000103565b604051601f8201601f19908116603f01168101908382118183101715620001d357620001d362000103565b81604052828152896020848701011115620001ed57600080fd5b6200020083602083016020880162000119565b80965050505050506200021660408501620000e6565b90509250925092565b622b2b2b60e91b8152600082516200023f81600385016020870162000119565b9190910160030192915050565b60805160a051610faa6200027f6000396000818160ee01526106020152600081816101fb015261051e0152610faa6000f3fe608060405234801561001057600080fd5b506004361061009e5760003560e01c8063b8e8e0e211610066578063b8e8e0e214610148578063d0e123c614610168578063d7f31dfb1461017b578063d9caed12146101a6578063e6e346fd146101b957600080fd5b806320606b70146100a3578063238ac933146100be5780633644e515146100e95780634f1de916146101105780638624085214610125575b600080fd5b6100ab6101c1565b6040519081526020015b60405180910390f35b6000546100d1906001600160a01b031681565b6040516001600160a01b0390911681526020016100b5565b6100ab7f000000000000000000000000000000000000000000000000000000000000000081565b61012361011e366004610bb5565b6101e4565b005b610138610133366004610cb5565b61033f565b60405190151581526020016100b5565b6100ab610156366004610d91565b60026020526000908152604090205481565b610123610176366004610cb5565b610350565b6100ab610189366004610daa565b600160209081526000928352604080842090915290825290205481565b6101236101b4366004610dd4565b610507565b6100ab6105da565b604051806080016040528060438152602001610f32604391398051906020012081565b604051637af97f4960e11b81526001600160a01b037f0000000000000000000000000000000000000000000000000000000000000000169063f5f2fe92906102409030906001600160e01b031960003516903390600401610e10565b602060405180830381865afa15801561025d573d6000803e3d6000fd5b505050506040513d601f19601f820116820180604052508101906102819190610e3d565b61029e57604051635c427cd960e01b815260040160405180910390fd5b6001600160a01b0383166000908152600160209081526040808320858452909152812080548392906102d1908490610e75565b9091555050600082815260026020526040812080548392906102f4908490610e75565b90915550506040518181526001600160a01b0384169083907fcec276ed291a0395459d1b5779e533b0b1617e0430b11b081509cdad788d8f8f906020015b60405180910390a3505050565b600061034a826105fd565b92915050565b610359816105fd565b61037657604051638baa579f60e01b815260040160405180910390fd5b806040015142108061038b5750806060015142115b156103a957604051630165ed0960e01b815260040160405180910390fd5b60a08101516001600160a01b03166000908152600160209081526040808320845184528252808320548451845260029092529091205460c08301516103ef908390610e88565b8360e001511180610412575080836020015161040b9190610e88565b8360e00151115b1561043057604051632150464360e21b815260040160405180910390fd5b60e083015160a08401516001600160a01b03166000908152600160209081526040808320875184529091528120805490919061046d908490610e75565b909155505060e0830151835160009081526002602052604081208054909190610497908490610e75565b909155505060e083015160808401516104bf916001600160a01b039091169033903090610768565b8260a001516001600160a01b031683600001517fcec276ed291a0395459d1b5779e533b0b1617e0430b11b081509cdad788d8f8f8560e0015160405161033291815260200190565b604051637af97f4960e11b81526001600160a01b037f0000000000000000000000000000000000000000000000000000000000000000169063f5f2fe92906105639030906001600160e01b031960003516903390600401610e10565b602060405180830381865afa158015610580573d6000803e3d6000fd5b505050506040513d601f19601f820116820180604052508101906105a49190610e3d565b6105c157604051635c427cd960e01b815260040160405180910390fd5b6105d56001600160a01b03841683836107d5565b505050565b604051806080016040528060518152602001610ee1605191398051906020012081565b6000807f0000000000000000000000000000000000000000000000000000000000000000604051806080016040528060518152602001610ee16051913980519060200120846000015185602001518660400151876060015188608001518960a001518a60c001518b6101000151466040516020016106d09a99989796959493929190998a5260208a01989098526040890196909652606088019490945260808701929092526001600160a01b0390811660a08701521660c085015260e08401526101008301526101208201526101400190565b6040516020818303038152906040528051906020012060405160200161070d92919061190160f01b81526002810192909252602282015260420190565b604051602081830303815290604052805190602001209050600061073682856101200151610806565b6000546101008601519192506001600160a01b0380841691161490421181801561075e575080155b9695505050505050565b6040516001600160a01b0384811660248301528381166044830152606482018390526107cf9186918216906323b872dd906084015b604051602081830303815290604052915060e01b6020820180516001600160e01b038381831617835250505050610830565b50505050565b6040516001600160a01b038381166024830152604482018390526105d591859182169063a9059cbb9060640161079d565b6000806000806108168686610898565b92509250925061082682826108e5565b5090949350505050565b60006108456001600160a01b038416836109a2565b9050805160001415801561086a5750808060200190518101906108689190610e3d565b155b156105d557604051635274afe760e01b81526001600160a01b03841660048201526024015b60405180910390fd5b600080600083516041036108d25760208401516040850151606086015160001a6108c4888285856109b7565b9550955095505050506108de565b50508151600091506002905b9250925092565b60008260038111156108f9576108f9610e9b565b03610902575050565b600182600381111561091657610916610e9b565b036109345760405163f645eedf60e01b815260040160405180910390fd5b600282600381111561094857610948610e9b565b036109695760405163fce698f760e01b81526004810182905260240161088f565b600382600381111561097d5761097d610e9b565b0361099e576040516335e2f38360e21b81526004810182905260240161088f565b5050565b60606109b083836000610a86565b9392505050565b600080807f7fffffffffffffffffffffffffffffff5d576e7357a4501ddfe92f46681b20a08411156109f25750600091506003905082610a7c565b604080516000808252602082018084528a905260ff891692820192909252606081018790526080810186905260019060a0016020604051602081039080840390855afa158015610a46573d6000803e3d6000fd5b5050604051601f1901519150506001600160a01b038116610a7257506000925060019150829050610a7c565b9250600091508190505b9450945094915050565b606081471015610aab5760405163cd78605960e01b815230600482015260240161088f565b600080856001600160a01b03168486604051610ac79190610eb1565b60006040518083038185875af1925050503d8060008114610b04576040519150601f19603f3d011682016040523d82523d6000602084013e610b09565b606091505b509150915061075e868383606082610b2957610b2482610b70565b6109b0565b8151158015610b4057506001600160a01b0384163b155b15610b6957604051639996b31560e01b81526001600160a01b038516600482015260240161088f565b50806109b0565b805115610b805780518082602001fd5b604051630a12f52160e11b815260040160405180910390fd5b80356001600160a01b0381168114610bb057600080fd5b919050565b600080600060608486031215610bca57600080fd5b610bd384610b99565b95602085013595506040909401359392505050565b634e487b7160e01b600052604160045260246000fd5b604051610140810167ffffffffffffffff81118282101715610c2257610c22610be8565b60405290565b600082601f830112610c3957600080fd5b813567ffffffffffffffff80821115610c5457610c54610be8565b604051601f8301601f19908116603f01168101908282118183101715610c7c57610c7c610be8565b81604052838152866020858801011115610c9557600080fd5b836020870160208301376000602085830101528094505050505092915050565b600060208284031215610cc757600080fd5b813567ffffffffffffffff80821115610cdf57600080fd5b908301906101408286031215610cf457600080fd5b610cfc610bfe565b82358152602083013560208201526040830135604082015260608301356060820152610d2a60808401610b99565b6080820152610d3b60a08401610b99565b60a082015260c083013560c082015260e083013560e08201526101008084013581830152506101208084013583811115610d7457600080fd5b610d8088828701610c28565b918301919091525095945050505050565b600060208284031215610da357600080fd5b5035919050565b60008060408385031215610dbd57600080fd5b610dc683610b99565b946020939093013593505050565b600080600060608486031215610de957600080fd5b610df284610b99565b9250610e0060208501610b99565b9150604084013590509250925092565b6001600160a01b0393841681526001600160e01b0319929092166020830152909116604082015260600190565b600060208284031215610e4f57600080fd5b815180151581146109b057600080fd5b634e487b7160e01b600052601160045260246000fd5b8082018082111561034a5761034a610e5f565b8181038181111561034a5761034a610e5f565b634e487b7160e01b600052602160045260246000fd5b6000825160005b81811015610ed25760208186018101518583015201610eb8565b50600092019182525091905056fe5643496e766573746d656e742875696e7432353620696e766573746d656e74526f756e642c61646472657373206b7963416464726573732c75696e7432353620696e766573746d656e74416d6f756e7429454950373132446f6d61696e28737472696e67206e616d652c75696e7432353620636861696e49642c6164647265737320766572696679696e67436f6e747261637429a264697066735822122034f13a58b9ed3a47969a8aa89ab38c3154ee227b220e876ae8709cf12538d76064736f6c63430008170033454950373132446f6d61696e28737472696e67206e616d652c75696e7432353620636861696e49642c6164647265737320766572696679696e67436f6e747261637429","linkReferences":{}},"methodIdentifiers":{"DOMAIN_SEPARATOR()":"3644e515","DOMAIN_TYPEHASH()":"20606b70","INVESTMENT_TYPEHASH()":"e6e346fd","addInvestmentRecord(address,uint256,uint256)":"4f1de916","invest((uint256,uint256,uint256,uint256,address,address,uint256,uint256,uint256,bytes))":"d0e123c6","isSignatureValid((uint256,uint256,uint256,uint256,address,address,uint256,uint256,uint256,bytes))":"86240852","kycAddressInvestedPerRound(address,uint256)":"d7f31dfb","signer()":"238ac933","totalInvestedPerRound(uint256)":"b8e8e0e2","withdraw(address,address,uint256)":"d9caed12"},"id":8}