{
  "abi": [
    {
      "inputs": [
        {
          "internalType": "string",
          "name": "_name",
          "type": "string"
        },
        {
          "internalType": "string",
          "name": "_symbol",
          "type": "string"
        },
        {
          "internalType": "uint8",
          "name": "_decimals",
          "type": "uint8"
        }
      ],
      "stateMutability": "nonpayable",
      "type": "constructor"
    },
    {
      "anonymous": false,
      "inputs": [
        {
          "indexed": true,
          "internalType": "address",
          "name": "owner",
          "type": "address"
        },
        {
          "indexed": true,
          "internalType": "address",
          "name": "spender",
          "type": "address"
        },
        {
          "indexed": false,
          "internalType": "uint256",
          "name": "amount",
          "type": "uint256"
        }
      ],
      "name": "Approval",
      "type": "event"
    },
    {
      "anonymous": false,
      "inputs": [
        {
          "indexed": true,
          "internalType": "address",
          "name": "user",
          "type": "address"
        },
        {
          "indexed": false,
          "internalType": "uint256",
          "name": "amount",
          "type": "uint256"
        }
      ],
      "name": "Burn",
      "type": "event"
    },
    {
      "anonymous": false,
      "inputs": [
        {
          "indexed": true,
          "internalType": "address",
          "name": "from",
          "type": "address"
        },
        {
          "indexed": true,
          "internalType": "address",
          "name": "to",
          "type": "address"
        },
        {
          "indexed": false,
          "internalType": "uint256",
          "name": "amount",
          "type": "uint256"
        }
      ],
      "name": "Transfer",
      "type": "event"
    },
    {
      "inputs": [
        {
          "internalType": "address",
          "name": "owner",
          "type": "address"
        },
        {
          "internalType": "address",
          "name": "spender",
          "type": "address"
        }
      ],
      "name": "allowance",
      "outputs": [
        {
          "internalType": "uint256",
          "name": "",
          "type": "uint256"
        }
      ],
      "stateMutability": "view",
      "type": "function"
    },
    {
      "inputs": [
        {
          "internalType": "address",
          "name": "spender",
          "type": "address"
        },
        {
          "internalType": "uint256",
          "name": "amount",
          "type": "uint256"
        }
      ],
      "name": "approve",
      "outputs": [
        {
          "internalType": "bool",
          "name": "",
          "type": "bool"
        }
      ],
      "stateMutability": "nonpayable",
      "type": "function"
    },
    {
      "inputs": [
        {
          "internalType": "address",
          "name": "owner",
          "type": "address"
        }
      ],
      "name": "balanceOf",
      "outputs": [
        {
          "internalType": "uint256",
          "name": "balance",
          "type": "uint256"
        }
      ],
      "stateMutability": "view",
      "type": "function"
    },
    {
      "inputs": [
        {
          "internalType": "address",
          "name": "user",
          "type": "address"
        },
        {
          "internalType": "uint256",
          "name": "amount",
          "type": "uint256"
        }
      ],
      "name": "burn",
      "outputs": [],
      "stateMutability": "nonpayable",
      "type": "function"
    },
    {
      "inputs": [],
      "name": "decimals",
      "outputs": [
        {
          "internalType": "uint8",
          "name": "",
          "type": "uint8"
        }
      ],
      "stateMutability": "view",
      "type": "function"
    },
    {
      "inputs": [
        {
          "internalType": "address",
          "name": "account",
          "type": "address"
        },
        {
          "internalType": "uint256",
          "name": "amount",
          "type": "uint256"
        }
      ],
      "name": "mint",
      "outputs": [],
      "stateMutability": "nonpayable",
      "type": "function"
    },
    {
      "inputs": [],
      "name": "name",
      "outputs": [
        {
          "internalType": "string",
          "name": "",
          "type": "string"
        }
      ],
      "stateMutability": "view",
      "type": "function"
    },
    {
      "inputs": [],
      "name": "symbol",
      "outputs": [
        {
          "internalType": "string",
          "name": "",
          "type": "string"
        }
      ],
      "stateMutability": "view",
      "type": "function"
    },
    {
      "inputs": [],
      "name": "testSuccess",
      "outputs": [],
      "stateMutability": "nonpayable",
      "type": "function"
    },
    {
      "inputs": [
        {
          "internalType": "address",
          "name": "to",
          "type": "address"
        },
        {
          "internalType": "uint256",
          "name": "amount",
          "type": "uint256"
        }
      ],
      "name": "transfer",
      "outputs": [
        {
          "internalType": "bool",
          "name": "",
          "type": "bool"
        }
      ],
      "stateMutability": "nonpayable",
      "type": "function"
    },
    {
      "inputs": [
        {
          "internalType": "address",
          "name": "from",
          "type": "address"
        },
        {
          "internalType": "address",
          "name": "to",
          "type": "address"
        },
        {
          "internalType": "uint256",
          "name": "amount",
          "type": "uint256"
        }
      ],
      "name": "transferFrom",
      "outputs": [
        {
          "internalType": "bool",
          "name": "",
          "type": "bool"
        }
      ],
      "stateMutability": "nonpayable",
      "type": "function"
    }
  ],
  "bytecode": {
    "object": "0x60806040523480156200001157600080fd5b5060405162000be138038062000be183398101604081905262000034916200013c565b600062000042848262000250565b50600162000051838262000250565b506002805460ff191660ff92909216919091179055506200031c9050565b634e487b7160e01b600052604160045260246000fd5b600082601f8301126200009757600080fd5b81516001600160401b0380821115620000b457620000b46200006f565b604051601f8301601f19908116603f01168101908282118183101715620000df57620000df6200006f565b81604052838152602092508683858801011115620000fc57600080fd5b600091505b8382101562000120578582018301518183018401529082019062000101565b83821115620001325760008385830101525b9695505050505050565b6000806000606084860312156200015257600080fd5b83516001600160401b03808211156200016a57600080fd5b620001788783880162000085565b945060208601519150808211156200018f57600080fd5b506200019e8682870162000085565b925050604084015160ff81168114620001b657600080fd5b809150509250925092565b600181811c90821680620001d657607f821691505b602082108103620001f757634e487b7160e01b600052602260045260246000fd5b50919050565b601f8211156200024b57600081815260208120601f850160051c81016020861015620002265750805b601f850160051c820191505b81811015620002475782815560010162000232565b5050505b505050565b81516001600160401b038111156200026c576200026c6200006f565b62000284816200027d8454620001c1565b84620001fd565b602080601f831160018114620002bc5760008415620002a35750858301515b600019600386901b1c1916600185901b17855562000247565b600085815260208120601f198616915b82811015620002ed57888601518255948401946001909101908401620002cc565b50858210156200030c5787850151600019600388901b60f8161c191681555b5050505050600190811b01905550565b6108b5806200032c6000396000f3fe608060405234801561001057600080fd5b50600436106100a95760003560e01c806370a082311161007157806370a0823114610136578063713d3e3e1461013457806395d89b411461016d5780639dc29fac14610175578063a9059cbb14610188578063dd62ed3e1461019b57600080fd5b806306fdde03146100ae578063095ea7b3146100cc57806323b872dd146100ef578063313ce5671461010257806340c10f1914610121575b600080fd5b6100b66101d4565b6040516100c391906106a8565b60405180910390f35b6100df6100da366004610719565b610262565b60405190151581526020016100c3565b6100df6100fd366004610743565b6102ce565b60025461010f9060ff1681565b60405160ff90911681526020016100c3565b61013461012f366004610719565b610474565b005b61015f61014436600461077f565b6001600160a01b031660009081526003602052604090205490565b6040519081526020016100c3565b6100b66104b8565b610134610183366004610719565b6104c5565b6100df610196366004610719565b6105e0565b61015f6101a93660046107a1565b6001600160a01b03918216600090815260046020908152604080832093909416825291909152205490565b600080546101e1906107d4565b80601f016020809104026020016040519081016040528092919081815260200182805461020d906107d4565b801561025a5780601f1061022f5761010080835404028352916020019161025a565b820191906000526020600020905b81548152906001019060200180831161023d57829003601f168201915b505050505081565b3360008181526004602090815260408083206001600160a01b038716808552925280832085905551919290917f8c5be1e5ebec7d5bd14f71427d1e84f3dd0314c0f7b2291e5b200ac8c7c3b925906102bd9086815260200190565b60405180910390a350600192915050565b6001600160a01b03831660009081526003602052604081205482111561030f5760405162461bcd60e51b81526004016103069061080e565b60405180910390fd5b6001600160a01b03841660009081526004602090815260408083203384529091529020548211156103795760405162461bcd60e51b815260206004820152601460248201527308298989eae829c868abe9c9ea8be8a9c9eaa8e960631b6044820152606401610306565b6001600160a01b03841660009081526003602052604090205461039d908390610850565b6001600160a01b0380861660009081526003602052604080822093909355908516815220546103cd908390610867565b6001600160a01b03808516600090815260036020908152604080832094909455918716815260048252828120338252909152205461040c908390610850565b6001600160a01b03858116600081815260046020908152604080832033845282529182902094909455518581529186169290917fddf252ad1be2c89b69c2b068fc378daa952ba7f163c4a11628f55a4df523b3ef910160405180910390a35060019392505050565b6001600160a01b038216600090815260036020526040902054610498908290610867565b6001600160a01b0390921660009081526003602052604090209190915550565b600180546101e1906107d4565b6001600160a01b0382166000908152600360205260409020548111156104fd5760405162461bcd60e51b81526004016103069061080e565b6001600160a01b038216600090815260036020526040902054610521908290610850565b6001600160a01b03831660009081526003602052604081209190915580527f3617319a054d772f909f7c479a2cebe5066e836a939412e32403c99029b92eff5461056c908290610867565b6000805260036020527f3617319a054d772f909f7c479a2cebe5066e836a939412e32403c99029b92eff556040516001600160a01b038316907fcc16f5dbb4873280815c1ee09dbd06736cffcc184412cf7a71a0fdb75d397ca5906105d49084815260200190565b60405180910390a25050565b3360009081526003602052604081205482111561060f5760405162461bcd60e51b81526004016103069061080e565b3360009081526003602052604090205461062a908390610850565b33600090815260036020526040808220929092556001600160a01b03851681522054610657908390610867565b6001600160a01b0384166000818152600360205260409081902092909255905133907fddf252ad1be2c89b69c2b068fc378daa952ba7f163c4a11628f55a4df523b3ef906102bd9086815260200190565b600060208083528351808285015260005b818110156106d5578581018301518582016040015282016106b9565b818111156106e7576000604083870101525b50601f01601f1916929092016040019392505050565b80356001600160a01b038116811461071457600080fd5b919050565b6000806040838503121561072c57600080fd5b610735836106fd565b946020939093013593505050565b60008060006060848603121561075857600080fd5b610761846106fd565b925061076f602085016106fd565b9150604084013590509250925092565b60006020828403121561079157600080fd5b61079a826106fd565b9392505050565b600080604083850312156107b457600080fd5b6107bd836106fd565b91506107cb602084016106fd565b90509250929050565b600181811c908216806107e857607f821691505b60208210810361080857634e487b7160e01b600052602260045260246000fd5b50919050565b6020808252601290820152710848298829c868abe9c9ea8be8a9c9eaa8e960731b604082015260600190565b634e487b7160e01b600052601160045260246000fd5b6000828210156108625761086261083a565b500390565b6000821982111561087a5761087a61083a565b50019056fea2646970667358221220f88d93a0900d616916142127b483cc38d3fcd70b0bf3ab9382e76d6fb835b7ae64736f6c634300080f0033",
    "linkReferences": {}
  },
  "methodIdentifiers": {
    "allowance(address,address)": "dd62ed3e",
    "approve(address,uint256)": "095ea7b3",
    "balanceOf(address)": "70a08231",
    "burn(address,uint256)": "9dc29fac",
    "decimals()": "313ce567",
    "mint(address,uint256)": "40c10f19",
    "name()": "06fdde03",
    "symbol()": "95d89b41",
    "testSuccess()": "713d3e3e",
    "transfer(address,uint256)": "a9059cbb",
    "transferFrom(address,address,uint256)": "23b872dd"
  },
  "id": 73
}