{
  "_format": "hh-sol-artifact-1",
  "contractName": "TelcoinDistributor",
  "sourceName": "contracts/protocol/core/TelcoinDistributor.sol",
  "abi": [
    {
      "inputs": [
        {
          "internalType": "contract IERC20",
          "name": "telcoin",
          "type": "address"
        },
        {
          "internalType": "uint256",
          "name": "period",
          "type": "uint256"
        },
        {
          "internalType": "contract IERC721",
          "name": "council",
          "type": "address"
        }
      ],
      "stateMutability": "nonpayable",
      "type": "constructor"
    },
    {
      "inputs": [
        {
          "internalType": "address",
          "name": "target",
          "type": "address"
        }
      ],
      "name": "AddressEmptyCode",
      "type": "error"
    },
    {
      "inputs": [
        {
          "internalType": "address",
          "name": "account",
          "type": "address"
        }
      ],
      "name": "AddressInsufficientBalance",
      "type": "error"
    },
    {
      "inputs": [],
      "name": "EnforcedPause",
      "type": "error"
    },
    {
      "inputs": [],
      "name": "ExpectedPause",
      "type": "error"
    },
    {
      "inputs": [],
      "name": "FailedInnerCall",
      "type": "error"
    },
    {
      "inputs": [
        {
          "internalType": "address",
          "name": "owner",
          "type": "address"
        }
      ],
      "name": "OwnableInvalidOwner",
      "type": "error"
    },
    {
      "inputs": [
        {
          "internalType": "address",
          "name": "account",
          "type": "address"
        }
      ],
      "name": "OwnableUnauthorizedAccount",
      "type": "error"
    },
    {
      "inputs": [
        {
          "internalType": "address",
          "name": "token",
          "type": "address"
        }
      ],
      "name": "SafeERC20FailedOperation",
      "type": "error"
    },
    {
      "anonymous": false,
      "inputs": [
        {
          "indexed": false,
          "internalType": "uint256",
          "name": "newPeriod",
          "type": "uint256"
        }
      ],
      "name": "ChallengePeriodUpdated",
      "type": "event"
    },
    {
      "anonymous": false,
      "inputs": [
        {
          "indexed": true,
          "internalType": "address",
          "name": "previousOwner",
          "type": "address"
        },
        {
          "indexed": true,
          "internalType": "address",
          "name": "newOwner",
          "type": "address"
        }
      ],
      "name": "OwnershipTransferStarted",
      "type": "event"
    },
    {
      "anonymous": false,
      "inputs": [
        {
          "indexed": true,
          "internalType": "address",
          "name": "previousOwner",
          "type": "address"
        },
        {
          "indexed": true,
          "internalType": "address",
          "name": "newOwner",
          "type": "address"
        }
      ],
      "name": "OwnershipTransferred",
      "type": "event"
    },
    {
      "anonymous": false,
      "inputs": [
        {
          "indexed": false,
          "internalType": "address",
          "name": "account",
          "type": "address"
        }
      ],
      "name": "Paused",
      "type": "event"
    },
    {
      "anonymous": false,
      "inputs": [
        {
          "indexed": true,
          "internalType": "uint256",
          "name": "transactionId",
          "type": "uint256"
        },
        {
          "indexed": false,
          "internalType": "address",
          "name": "challenger",
          "type": "address"
        }
      ],
      "name": "TransactionChallenged",
      "type": "event"
    },
    {
      "anonymous": false,
      "inputs": [
        {
          "indexed": true,
          "internalType": "uint256",
          "name": "transactionId",
          "type": "uint256"
        },
        {
          "indexed": false,
          "internalType": "address",
          "name": "proposer",
          "type": "address"
        }
      ],
      "name": "TransactionProposed",
      "type": "event"
    },
    {
      "anonymous": false,
      "inputs": [
        {
          "indexed": false,
          "internalType": "address",
          "name": "account",
          "type": "address"
        }
      ],
      "name": "Unpaused",
      "type": "event"
    },
    {
      "inputs": [],
      "name": "TELCOIN",
      "outputs": [
        {
          "internalType": "contract IERC20",
          "name": "",
          "type": "address"
        }
      ],
      "stateMutability": "view",
      "type": "function"
    },
    {
      "inputs": [],
      "name": "acceptOwnership",
      "outputs": [],
      "stateMutability": "nonpayable",
      "type": "function"
    },
    {
      "inputs": [],
      "name": "challengePeriod",
      "outputs": [
        {
          "internalType": "uint256",
          "name": "",
          "type": "uint256"
        }
      ],
      "stateMutability": "view",
      "type": "function"
    },
    {
      "inputs": [
        {
          "internalType": "uint256",
          "name": "transactionId",
          "type": "uint256"
        }
      ],
      "name": "challengeTransaction",
      "outputs": [],
      "stateMutability": "nonpayable",
      "type": "function"
    },
    {
      "inputs": [],
      "name": "councilNft",
      "outputs": [
        {
          "internalType": "contract IERC721",
          "name": "",
          "type": "address"
        }
      ],
      "stateMutability": "view",
      "type": "function"
    },
    {
      "inputs": [
        {
          "internalType": "uint256",
          "name": "transactionId",
          "type": "uint256"
        }
      ],
      "name": "executeTransaction",
      "outputs": [],
      "stateMutability": "nonpayable",
      "type": "function"
    },
    {
      "inputs": [],
      "name": "owner",
      "outputs": [
        {
          "internalType": "address",
          "name": "",
          "type": "address"
        }
      ],
      "stateMutability": "view",
      "type": "function"
    },
    {
      "inputs": [],
      "name": "pause",
      "outputs": [],
      "stateMutability": "nonpayable",
      "type": "function"
    },
    {
      "inputs": [],
      "name": "paused",
      "outputs": [
        {
          "internalType": "bool",
          "name": "",
          "type": "bool"
        }
      ],
      "stateMutability": "view",
      "type": "function"
    },
    {
      "inputs": [],
      "name": "pendingOwner",
      "outputs": [
        {
          "internalType": "address",
          "name": "",
          "type": "address"
        }
      ],
      "stateMutability": "view",
      "type": "function"
    },
    {
      "inputs": [
        {
          "internalType": "uint256",
          "name": "totalWithdrawl",
          "type": "uint256"
        },
        {
          "internalType": "address[]",
          "name": "destinations",
          "type": "address[]"
        },
        {
          "internalType": "uint256[]",
          "name": "amounts",
          "type": "uint256[]"
        }
      ],
      "name": "proposeTransaction",
      "outputs": [],
      "stateMutability": "nonpayable",
      "type": "function"
    },
    {
      "inputs": [
        {
          "internalType": "uint256",
          "name": "",
          "type": "uint256"
        }
      ],
      "name": "proposedTransactions",
      "outputs": [
        {
          "internalType": "uint256",
          "name": "totalWithdrawl",
          "type": "uint256"
        },
        {
          "internalType": "uint64",
          "name": "timestamp",
          "type": "uint64"
        },
        {
          "internalType": "bool",
          "name": "challenged",
          "type": "bool"
        },
        {
          "internalType": "bool",
          "name": "executed",
          "type": "bool"
        }
      ],
      "stateMutability": "view",
      "type": "function"
    },
    {
      "inputs": [
        {
          "internalType": "contract IERC20",
          "name": "tokenAddress",
          "type": "address"
        },
        {
          "internalType": "uint256",
          "name": "tokenAmount",
          "type": "uint256"
        },
        {
          "internalType": "address",
          "name": "to",
          "type": "address"
        }
      ],
      "name": "recoverERC20",
      "outputs": [],
      "stateMutability": "nonpayable",
      "type": "function"
    },
    {
      "inputs": [],
      "name": "renounceOwnership",
      "outputs": [],
      "stateMutability": "nonpayable",
      "type": "function"
    },
    {
      "inputs": [
        {
          "internalType": "uint256",
          "name": "newPeriod",
          "type": "uint256"
        }
      ],
      "name": "setChallengePeriod",
      "outputs": [],
      "stateMutability": "nonpayable",
      "type": "function"
    },
    {
      "inputs": [
        {
          "internalType": "address",
          "name": "newOwner",
          "type": "address"
        }
      ],
      "name": "transferOwnership",
      "outputs": [],
      "stateMutability": "nonpayable",
      "type": "function"
    },
    {
      "inputs": [],
      "name": "unpause",
      "outputs": [],
      "stateMutability": "nonpayable",
      "type": "function"
    }
  ],
  "bytecode": "0x60c060405234801562000010575f80fd5b506040516200191c3803806200191c8339810160408190526200003391620001d9565b33806200005a57604051631e4fbdf760e01b81525f60048201526024015b60405180910390fd5b620000658162000157565b506001805460ff60a01b191690556001600160a01b038316158015906200009457506001600160a01b03811615155b8015620000a057508115155b620001035760405162461bcd60e51b815260206004820152602c60248201527f54656c636f696e4469737472696275746f723a2063616e6e6f7420696e74696160448201526b6c697a6520746f207a65726f60a01b606482015260840162000051565b6001600160a01b038381166080526002839055811660a0526040518281527f51df27ef8d4882ded82aa403cd74bcd8aaa267c36dc91cab36ed396f8dbfd2e19060200160405180910390a15050506200021e565b600180546001600160a01b0319169055620001728162000175565b50565b5f80546001600160a01b038381166001600160a01b0319831681178455604051919092169283917f8be0079c531659141344cd1fd0a4f28419497f9722a3daafe3b4186f6b6457e09190a35050565b6001600160a01b038116811462000172575f80fd5b5f805f60608486031215620001ec575f80fd5b8351620001f981620001c4565b6020850151604086015191945092506200021381620001c4565b809150509250925092565b60805160a0516116ab620002715f395f81816101ce015281816103b4015281816105d701526107fe01525f818161022e01528181610df001528181610e8101528181610eed0152610f4401526116ab5ff3fe608060405234801561000f575f80fd5b5060043610610106575f3560e01c806392146e021161009e578063c3087bcb1161006e578063c3087bcb14610229578063e30c397814610250578063ee22610b14610261578063f2fde38b14610274578063f3f480d914610287575f80fd5b806392146e02146101c95780639f05c584146101f0578063b51609b414610203578063bd56c1f114610216575f80fd5b8063715018a6116100d9578063715018a61461018d57806379ba5097146101955780638456cb591461019d5780638da5cb5b146101a5575f80fd5b80630e0d798c1461010a5780633f4ba83a146101535780635c975abb1461015d5780635d475fdd1461017a575b5f80fd5b61011d610118366004611315565b61029e565b6040805194855267ffffffffffffffff909316602085015290151591830191909152151560608201526080015b60405180910390f35b61015b6102ea565b005b600154600160a01b900460ff16604051901515815260200161014a565b61015b610188366004611315565b6102fc565b61015b61033f565b61015b610350565b61015b610399565b5f546001600160a01b03165b6040516001600160a01b03909116815260200161014a565b6101b17f000000000000000000000000000000000000000000000000000000000000000081565b61015b6101fe366004611315565b6103a9565b61015b610211366004611340565b6105ab565b61015b610224366004611453565b6105cc565b6101b17f000000000000000000000000000000000000000000000000000000000000000081565b6001546001600160a01b03166101b1565b61015b61026f366004611315565b6107f3565b61015b610282366004611519565b610c02565b61029060025481565b60405190815260200161014a565b600381815481106102ad575f80fd5b5f9182526020909120600490910201805460039091015490915067ffffffffffffffff81169060ff600160401b8204811691600160481b90041684565b6102f2610c72565b6102fa610c9e565b565b610304610c72565b60028190556040518181527f51df27ef8d4882ded82aa403cd74bcd8aaa267c36dc91cab36ed396f8dbfd2e19060200160405180910390a150565b610347610c72565b6102fa5f610cf3565b60015433906001600160a01b0316811461038d5760405163118cdaa760e01b81526001600160a01b03821660048201526024015b60405180910390fd5b61039681610cf3565b50565b6103a1610c72565b6102fa610d0c565b5f6001600160a01b037f0000000000000000000000000000000000000000000000000000000000000000166370a08231336040516001600160e01b031960e084901b1681526001600160a01b039091166004820152602401602060405180830381865afa15801561041c573d5f803e3d5ffd5b505050506040513d601f19601f820116820180604052508101906104409190611534565b1161045d5760405162461bcd60e51b81526004016103849061154b565b610465610d4f565b60035481106104865760405162461bcd60e51b81526004016103849061159b565b6002546003828154811061049c5761049c6115dc565b5f9182526020909120600360049092020101546104c3919067ffffffffffffffff16611604565b4211156105295760405162461bcd60e51b815260206004820152602e60248201527f54656c636f696e4469737472696275746f723a204368616c6c656e676520706560448201526d1c9a5bd9081a185cc8195b99195960921b6064820152608401610384565b60016003828154811061053e5761053e6115dc565b905f5260205f20906004020160030160086101000a81548160ff021916908315150217905550807f5057bfae266d4716c857f4f87e3a46bd6ac8220666fbcb8d442d4fc16a132e5961058d3390565b6040516001600160a01b03909116815260200160405180910390a250565b6105b3610c72565b6105c76001600160a01b0384168284610d7a565b505050565b5f6001600160a01b037f0000000000000000000000000000000000000000000000000000000000000000166370a08231336040516001600160e01b031960e084901b1681526001600160a01b039091166004820152602401602060405180830381865afa15801561063f573d5f803e3d5ffd5b505050506040513d601f19601f820116820180604052508101906106639190611534565b116106805760405162461bcd60e51b81526004016103849061154b565b610688610d4f565b6040805160c081018252848152602080820185815292820184905267ffffffffffffffff421660608301525f6080830181905260a08301819052600380546001810182559152825160049091027fc2575a0e9e593c00f959f8c92f12db2869c3395a3b0502d05e2516446f71f85b81019182559351805193949193610736937fc2575a0e9e593c00f959f8c92f12db2869c3395a3b0502d05e2516446f71f85c909301929190910190611265565b50604082015180516107529160028401916020909101906112c8565b50606082015160039182018054608085015160a0909501511515600160481b0269ff00000000000000000019951515600160401b0268ffffffffffffffffff1990921667ffffffffffffffff90941693909317179390931617909155546107bb90600190611617565b6040805133815290517f85a02044abc1a0089f390169e926132b38b4ff22cdb91072c2c43c03e8c710d49181900360200190a2505050565b5f6001600160a01b037f0000000000000000000000000000000000000000000000000000000000000000166370a08231336040516001600160e01b031960e084901b1681526001600160a01b039091166004820152602401602060405180830381865afa158015610866573d5f803e3d5ffd5b505050506040513d601f19601f8201168201806040525081019061088a9190611534565b116108a75760405162461bcd60e51b81526004016103849061154b565b6108af610d4f565b60035481106108d05760405162461bcd60e51b81526004016103849061159b565b600254600382815481106108e6576108e66115dc565b5f91825260209091206003600490920201015461090d919067ffffffffffffffff16611604565b42116109765760405162461bcd60e51b815260206004820152603260248201527f54656c636f696e4469737472696275746f723a204368616c6c656e67652070656044820152711c9a5bd9081a185cc81b9bdd08195b99195960721b6064820152608401610384565b60038181548110610989576109896115dc565b905f5260205f20906004020160030160089054906101000a900460ff1615610a0f5760405162461bcd60e51b815260206004820152603360248201527f54656c636f696e4469737472696275746f723a207472616e73616374696f6e206044820152721a185cc81899595b8818da185b1b195b99d959606a1b6064820152608401610384565b60038181548110610a2257610a226115dc565b905f5260205f20906004020160030160099054906101000a900460ff1615610ab25760405162461bcd60e51b815260206004820152603c60248201527f54656c636f696e4469737472696275746f723a207472616e73616374696f6e2060448201527f686173206265656e2070726576696f75736c79206578656375746564000000006064820152608401610384565b610bc460038281548110610ac857610ac86115dc565b905f5260205f2090600402015f015460038381548110610aea57610aea6115dc565b905f5260205f209060040201600101805480602002602001604051908101604052809291908181526020018280548015610b4b57602002820191905f5260205f20905b81546001600160a01b03168152600190910190602001808311610b2d575b505050505060038481548110610b6357610b636115dc565b905f5260205f209060040201600201805480602002602001604051908101604052809291908181526020018280548015610bba57602002820191905f5260205f20905b815481526020019060010190808311610ba6575b5050505050610dd9565b600160038281548110610bd957610bd96115dc565b905f5260205f20906004020160030160096101000a81548160ff02191690831515021790555050565b610c0a610c72565b600180546001600160a01b0383166001600160a01b03199091168117909155610c3a5f546001600160a01b031690565b6001600160a01b03167f38d16b8cac22d99fc7c124b9cd0de2d3fa1faef420bfe791d8c362d765e2270060405160405180910390a350565b5f546001600160a01b031633146102fa5760405163118cdaa760e01b8152336004820152602401610384565b610ca661101c565b6001805460ff60a01b191690557f5db9ee0a495bf2e6ff9c91a7834c1ba4fdd244a5e8aa4e537bd38aeae4b073aa335b6040516001600160a01b03909116815260200160405180910390a1565b600180546001600160a01b031916905561039681611046565b610d14610d4f565b6001805460ff60a01b1916600160a01b1790557f62e78cea01bee320cd4e420270b5ea74000d11b0c9f74754ebdbfc544b05a258610cd63390565b600154600160a01b900460ff16156102fa5760405163d93c066560e01b815260040160405180910390fd5b6040516001600160a01b038381166024830152604482018390526105c791859182169063a9059cbb906064015b604051602081830303815290604052915060e01b6020820180516001600160e01b038381831617835250505050611095565b6040516370a0823160e01b81523060048201525f907f00000000000000000000000000000000000000000000000000000000000000006001600160a01b0316906370a0823190602401602060405180830381865afa158015610e3d573d5f803e3d5ffd5b505050506040513d601f19601f82011682018060405250810190610e619190611534565b9050610ea9610e775f546001600160a01b031690565b6001600160a01b037f0000000000000000000000000000000000000000000000000000000000000000169030876110f6565b5f5b8351811015610f2c57610f24848281518110610ec957610ec96115dc565b6020026020010151848381518110610ee357610ee36115dc565b60200260200101517f00000000000000000000000000000000000000000000000000000000000000006001600160a01b0316610d7a9092919063ffffffff16565b600101610eab565b506040516370a0823160e01b815230600482015281907f00000000000000000000000000000000000000000000000000000000000000006001600160a01b0316906370a0823190602401602060405180830381865afa158015610f91573d5f803e3d5ffd5b505050506040513d601f19601f82011682018060405250810190610fb59190611534565b146110165760405162461bcd60e51b815260206004820152602b60248201527f54656c636f696e4469737472696275746f723a206d757374206e6f742068617660448201526a65206c6566746f7665727360a81b6064820152608401610384565b50505050565b600154600160a01b900460ff166102fa57604051638dfc202b60e01b815260040160405180910390fd5b5f80546001600160a01b038381166001600160a01b0319831681178455604051919092169283917f8be0079c531659141344cd1fd0a4f28419497f9722a3daafe3b4186f6b6457e09190a35050565b5f6110a96001600160a01b0384168361112f565b905080515f141580156110cd5750808060200190518101906110cb919061162a565b155b156105c757604051635274afe760e01b81526001600160a01b0384166004820152602401610384565b6040516001600160a01b0384811660248301528381166044830152606482018390526110169186918216906323b872dd90608401610da7565b606061113c83835f611145565b90505b92915050565b60608147101561116a5760405163cd78605960e01b8152306004820152602401610384565b5f80856001600160a01b031684866040516111859190611649565b5f6040518083038185875af1925050503d805f81146111bf576040519150601f19603f3d011682016040523d82523d5f602084013e6111c4565b606091505b50915091506111d48683836111e0565b925050505b9392505050565b6060826111f5576111f08261123c565b6111d9565b815115801561120c57506001600160a01b0384163b155b1561123557604051639996b31560e01b81526001600160a01b0385166004820152602401610384565b50806111d9565b80511561124c5780518082602001fd5b604051630a12f52160e11b815260040160405180910390fd5b828054828255905f5260205f209081019282156112b8579160200282015b828111156112b857825182546001600160a01b0319166001600160a01b03909116178255602090920191600190910190611283565b506112c4929150611301565b5090565b828054828255905f5260205f209081019282156112b8579160200282015b828111156112b85782518255916020019190600101906112e6565b5b808211156112c4575f8155600101611302565b5f60208284031215611325575f80fd5b5035919050565b6001600160a01b0381168114610396575f80fd5b5f805f60608486031215611352575f80fd5b833561135d8161132c565b92506020840135915060408401356113748161132c565b809150509250925092565b634e487b7160e01b5f52604160045260245ffd5b604051601f8201601f1916810167ffffffffffffffff811182821017156113bc576113bc61137f565b604052919050565b5f67ffffffffffffffff8211156113dd576113dd61137f565b5060051b60200190565b5f82601f8301126113f6575f80fd5b8135602061140b611406836113c4565b611393565b8083825260208201915060208460051b87010193508684111561142c575f80fd5b602086015b848110156114485780358352918301918301611431565b509695505050505050565b5f805f60608486031215611465575f80fd5b8335925060208085013567ffffffffffffffff80821115611484575f80fd5b818701915087601f830112611497575f80fd5b81356114a5611406826113c4565b81815260059190911b8301840190848101908a8311156114c3575f80fd5b938501935b828510156114ea5784356114db8161132c565b825293850193908501906114c8565b965050506040870135925080831115611501575f80fd5b505061150f868287016113e7565b9150509250925092565b5f60208284031215611529575f80fd5b81356111d98161132c565b5f60208284031215611544575f80fd5b5051919050565b60208082526030908201527f54656c636f696e4469737472696275746f723a2043616c6c6572206973206e6f60408201526f3a1021b7bab731b4b61026b2b6b132b960811b606082015260800190565b60208082526021908201527f54656c636f696e4469737472696275746f723a20496e76616c696420696e64656040820152600f60fb1b606082015260800190565b634e487b7160e01b5f52603260045260245ffd5b634e487b7160e01b5f52601160045260245ffd5b8082018082111561113f5761113f6115f0565b8181038181111561113f5761113f6115f0565b5f6020828403121561163a575f80fd5b815180151581146111d9575f80fd5b5f82515f5b81811015611668576020818601810151858301520161164e565b505f92019182525091905056fea2646970667358221220ebafd0a234f20288599df26d8ba4606a137d6484b452828ee3f3832a6317948c64736f6c63430008170033",
  "linkReferences": {},
  "deployedLinkReferences": {}
}