{"abi":[{"type":"constructor","inputs":[{"name":"_authorizationRegistryAddress","type":"address","internalType":"address"}],"stateMutability":"nonpayable"},{"type":"receive","stateMutability":"payable"},{"type":"function","name":"DENOMINATOR","inputs":[],"outputs":[{"name":"","type":"uint256","internalType":"uint256"}],"stateMutability":"view"},{"type":"function","name":"calculateAccruedVvvAmount","inputs":[{"name":"_stake","type":"tuple","internalType":"struct VVVETHStaking.StakeData","components":[{"name":"stakedEthAmount","type":"uint224","internalType":"uint224"},{"name":"stakeStartTimestamp","type":"uint32","internalType":"uint32"},{"name":"stakeIsWithdrawn","type":"bool","internalType":"bool"},{"name":"stakeDuration","type":"uint8","internalType":"enum VVVETHStaking.StakingDuration"}]}],"outputs":[{"name":"","type":"uint256","internalType":"uint256"}],"stateMutability":"view"},{"type":"function","name":"calculateAccruedVvvAmount","inputs":[],"outputs":[{"name":"","type":"uint256","internalType":"uint256"}],"stateMutability":"view"},{"type":"function","name":"calculateClaimableVvvAmount","inputs":[],"outputs":[{"name":"","type":"uint256","internalType":"uint256"}],"stateMutability":"view"},{"type":"function","name":"claimVvv","inputs":[{"name":"_vvvAmount","type":"uint256","internalType":"uint256"}],"outputs":[],"stateMutability":"nonpayable"},{"type":"function","name":"durationToMultiplier","inputs":[{"name":"","type":"uint8","internalType":"enum VVVETHStaking.StakingDuration"}],"outputs":[{"name":"","type":"uint256","internalType":"uint256"}],"stateMutability":"view"},{"type":"function","name":"durationToSeconds","inputs":[{"name":"","type":"uint8","internalType":"enum VVVETHStaking.StakingDuration"}],"outputs":[{"name":"","type":"uint256","internalType":"uint256"}],"stateMutability":"view"},{"type":"function","name":"ethToVvvExchangeRate","inputs":[],"outputs":[{"name":"","type":"uint256","internalType":"uint256"}],"stateMutability":"pure"},{"type":"function","name":"newStakesPermitted","inputs":[],"outputs":[{"name":"","type":"bool","internalType":"bool"}],"stateMutability":"view"},{"type":"function","name":"restakeEth","inputs":[{"name":"_stakeId","type":"uint256","internalType":"uint256"},{"name":"_stakeDuration","type":"uint8","internalType":"enum VVVETHStaking.StakingDuration"}],"outputs":[{"name":"","type":"uint256","internalType":"uint256"}],"stateMutability":"nonpayable"},{"type":"function","name":"setDurationMultipliers","inputs":[{"name":"_duration","type":"uint8[]","internalType":"enum VVVETHStaking.StakingDuration[]"},{"name":"_multipliers","type":"uint256[]","internalType":"uint256[]"}],"outputs":[],"stateMutability":"nonpayable"},{"type":"function","name":"setNewStakesPermitted","inputs":[{"name":"_newStakesPermitted","type":"bool","internalType":"bool"}],"outputs":[],"stateMutability":"nonpayable"},{"type":"function","name":"setVvvToken","inputs":[{"name":"_vvvTokenAddress","type":"address","internalType":"address"}],"outputs":[],"stateMutability":"nonpayable"},{"type":"function","name":"stakeEth","inputs":[{"name":"_stakeDuration","type":"uint8","internalType":"enum VVVETHStaking.StakingDuration"}],"outputs":[{"name":"","type":"uint256","internalType":"uint256"}],"stateMutability":"payable"},{"type":"function","name":"stakeId","inputs":[],"outputs":[{"name":"","type":"uint256","internalType":"uint256"}],"stateMutability":"view"},{"type":"function","name":"userStakeIds","inputs":[{"name":"_user","type":"address","internalType":"address"}],"outputs":[{"name":"","type":"uint256[]","internalType":"uint256[]"}],"stateMutability":"view"},{"type":"function","name":"userStakes","inputs":[{"name":"","type":"address","internalType":"address"},{"name":"","type":"uint256","internalType":"uint256"}],"outputs":[{"name":"stakedEthAmount","type":"uint224","internalType":"uint224"},{"name":"stakeStartTimestamp","type":"uint32","internalType":"uint32"},{"name":"stakeIsWithdrawn","type":"bool","internalType":"bool"},{"name":"stakeDuration","type":"uint8","internalType":"enum VVVETHStaking.StakingDuration"}],"stateMutability":"view"},{"type":"function","name":"userVvvClaimed","inputs":[{"name":"","type":"address","internalType":"address"}],"outputs":[{"name":"","type":"uint256","internalType":"uint256"}],"stateMutability":"view"},{"type":"function","name":"vvvToken","inputs":[],"outputs":[{"name":"","type":"address","internalType":"contract IERC20"}],"stateMutability":"view"},{"type":"function","name":"withdrawEth","inputs":[{"name":"_amount","type":"uint256","internalType":"uint256"}],"outputs":[],"stateMutability":"nonpayable"},{"type":"function","name":"withdrawStake","inputs":[{"name":"_stakeId","type":"uint256","internalType":"uint256"}],"outputs":[],"stateMutability":"nonpayable"},{"type":"event","name":"EtherReceived","inputs":[],"anonymous":false},{"type":"event","name":"Stake","inputs":[{"name":"staker","type":"address","indexed":true,"internalType":"address"},{"name":"stakeId","type":"uint256","indexed":true,"internalType":"uint256"},{"name":"stakedEthAmount","type":"uint224","indexed":false,"internalType":"uint224"},{"name":"stakeStartTimestamp","type":"uint32","indexed":false,"internalType":"uint32"},{"name":"stakeDuration","type":"uint8","indexed":false,"internalType":"enum VVVETHStaking.StakingDuration"}],"anonymous":false},{"type":"event","name":"VvvClaim","inputs":[{"name":"staker","type":"address","indexed":true,"internalType":"address"},{"name":"vvvAmount","type":"uint256","indexed":false,"internalType":"uint256"}],"anonymous":false},{"type":"event","name":"Withdraw","inputs":[{"name":"staker","type":"address","indexed":true,"internalType":"address"},{"name":"stakeId","type":"uint256","indexed":true,"internalType":"uint256"},{"name":"stakedEthAmount","type":"uint224","indexed":false,"internalType":"uint224"},{"name":"stakeStartTimestamp","type":"uint32","indexed":false,"internalType":"uint32"},{"name":"stakeDuration","type":"uint8","indexed":false,"internalType":"enum VVVETHStaking.StakingDuration"}],"anonymous":false},{"type":"error","name":"AddressEmptyCode","inputs":[{"name":"target","type":"address","internalType":"address"}]},{"type":"error","name":"AddressInsufficientBalance","inputs":[{"name":"account","type":"address","internalType":"address"}]},{"type":"error","name":"CantClaimZeroVvv","inputs":[]},{"type":"error","name":"CantStakeZeroEth","inputs":[]},{"type":"error","name":"CantWithdrawBeforeStakeDuration","inputs":[]},{"type":"error","name":"FailedInnerCall","inputs":[]},{"type":"error","name":"InsufficientClaimableVvv","inputs":[]},{"type":"error","name":"InvalidStakeId","inputs":[]},{"type":"error","name":"NewStakesNotPermitted","inputs":[]},{"type":"error","name":"SafeERC20FailedOperation","inputs":[{"name":"token","type":"address","internalType":"address"}]},{"type":"error","name":"StakeIsWithdrawn","inputs":[]},{"type":"error","name":"UnauthorizedCaller","inputs":[]},{"type":"error","name":"WithdrawFailed","inputs":[]}],"bytecode":{"object":"0x60a060405234801561001057600080fd5b506040516119b43803806119b483398101604081905261002f9161012c565b6001600160a01b03166080526276a7007fac33ff75c19e70fe83507db0d683fd3465c996598dc972688b7ace676c89077b5562ed4e007fe90b7bceb6e7df5418fb78d8ee546e97c83a08bbccc01a0644d599ccd2a7c2e0556301da9c007f679795a0195a1b76cdebb7c51d74e058aee92919b8c3389af86ef24535e8a28c5560036020526127107f3617319a054d772f909f7c479a2cebe5066e836a939412e32403c99029b92eff55613a987fa15bc60c955c405d20d9149c709e2460f1c2d9a497496a7f46004d1772c3054c5560026000526175307fc3a24b0501bd2c13a7e57f2db4369ec4c223447539fc0724a9d55ac4a06ebd4d5561015c565b60006020828403121561013e57600080fd5b81516001600160a01b038116811461015557600080fd5b9392505050565b60805161182861018c6000396000818161058f0152818161066b015281816109c90152610ce301526118286000f3fe60806040526004361061012e5760003560e01c80634fc166db116100ab578063b5d5b5fa1161006f578063b5d5b5fa14610347578063ba9d8aaf146103bb578063c311d049146103e8578063dee9307014610408578063ea07b7a114610428578063ecf688641461045957600080fd5b80634fc166db146102bb5780638957bf0b146102cf5780638d2ac133146102e4578063918f86741461031c5780639d52293c1461033257600080fd5b8063147e3905116100f2578063147e3905146102285780631ed68958146102485780632535dfc71461026857806325d5971f1461027b5780633df8fa431461029b57600080fd5b806305c2f5b6146101635780630b23fd2b146101a35780630f16942c146101c357806311b99ef8146101f05780631254eb931461021257600080fd5b3661015e576040517f96e675be4646b2eb3a738abec75eb19ccc9529e654a595082b98bf08b0a4619590600090a1005b600080fd5b34801561016f57600080fd5b5061019061017e3660046112f8565b60036020526000908152604090205481565b6040519081526020015b60405180910390f35b3480156101af57600080fd5b506101906101be366004611368565b610486565b3480156101cf57600080fd5b506101906101de3660046112f8565b60026020526000908152604090205481565b3480156101fc57600080fd5b5061021061020b366004611417565b610578565b005b34801561021e57600080fd5b5061019060015481565b34801561023457600080fd5b50610210610243366004611432565b610654565b34801561025457600080fd5b5061021061026336600461144f565b61072c565b6101906102763660046112f8565b6107ee565b34801561028757600080fd5b5061021061029636600461144f565b61082d565b3480156102a757600080fd5b506102106102b63660046114fb565b6109b2565b3480156102c757600080fd5b506001610190565b3480156102db57600080fd5b50610190610af0565b3480156102f057600080fd5b50600054610304906001600160a01b031681565b6040516001600160a01b03909116815260200161019a565b34801561032857600080fd5b5061019061271081565b34801561033e57600080fd5b50610190610b17565b34801561035357600080fd5b506103ab6103623660046115bb565b6004602090815260009283526040808420909152908252902080546001909101546001600160e01b03821691600160e01b900463ffffffff169060ff8082169161010090041684565b60405161019a949392919061161d565b3480156103c757600080fd5b506103db6103d6366004611417565b610c60565b60405161019a9190611657565b3480156103f457600080fd5b5061021061040336600461144f565b610ccc565b34801561041457600080fd5b5061019061042336600461169b565b610df3565b34801561043457600080fd5b5060005461044990600160a01b900460ff1681565b604051901515815260200161019a565b34801561046557600080fd5b50610190610474366004611417565b60066020526000908152604090205481565b60008060026000846060015160028111156104a3576104a36115e5565b60028111156104b4576104b46115e5565b81526020019081526020016000205490506000836020015163ffffffff16426104dd91906116dd565b90506000806000848410156104f257836104f4565b845b92508487600001516001600160e01b0316840281610514576105146116f0565b0491506127106003600089606001516002811115610534576105346115e5565b6002811115610545576105456115e5565b81526020019081526020016000205461055c600190565b8402028161056c5761056c6116f0565b04979650505050505050565b604051637af97f4960e11b81526001600160a01b037f0000000000000000000000000000000000000000000000000000000000000000169063f5f2fe92906105d49030906001600160e01b031960003516903390600401611706565b602060405180830381865afa1580156105f1573d6000803e3d6000fd5b505050506040513d601f19601f820116820180604052508101906106159190611733565b61063257604051635c427cd960e01b815260040160405180910390fd5b600080546001600160a01b0319166001600160a01b0392909216919091179055565b604051637af97f4960e11b81526001600160a01b037f0000000000000000000000000000000000000000000000000000000000000000169063f5f2fe92906106b09030906001600160e01b031960003516903390600401611706565b602060405180830381865afa1580156106cd573d6000803e3d6000fd5b505050506040513d601f19601f820116820180604052508101906106f19190611733565b61070e57604051635c427cd960e01b815260040160405180910390fd5b60008054911515600160a01b0260ff60a01b19909216919091179055565b8060000361074d5760405163025b9de760e01b815260040160405180910390fd5b6000610757610af0565b90508082111561077a57604051630803eb6360e21b815260040160405180910390fd5b3360009081526006602052604081208054849290610799908490611750565b90915550506000546107b5906001600160a01b03163384610ecd565b60405182815233907fc7ea1e511edfffb38341ee14e5fb686286caa35a35c2139a00947c32c8ae8a489060200160405180910390a25050565b60008054600160a01b900460ff166108195760405163601968e760e01b815260040160405180910390fd5b6108238234610f1f565b506001545b919050565b336000908152600460209081526040808320848452825291829020825160808101845281546001600160e01b0381168252600160e01b900463ffffffff1692810192909252600181015460ff80821615159484019490945290926108c392918491606084019161010090041660028111156108aa576108aa6115e5565b60028111156108bb576108bb6115e5565b90525061108a565b6001818101805460ff19169091179055805460405160009133916001600160e01b03909116908381818185875af1925050503d8060008114610921576040519150601f19603f3d011682016040523d82523d6000602084013e610926565b606091505b505090508061094857604051631d42c86760e21b815260040160405180910390fd5b81546001830154604051859233927f2e57e62cc56957464a5b811242b7fdc5c259e39cd1cf44bd94d04bb613e78177926109a5926001600160e01b03811692600160e01b90910463ffffffff169161010090910460ff1690611763565b60405180910390a3505050565b604051637af97f4960e11b81526001600160a01b037f0000000000000000000000000000000000000000000000000000000000000000169063f5f2fe9290610a0e9030906001600160e01b031960003516903390600401611706565b602060405180830381865afa158015610a2b573d6000803e3d6000fd5b505050506040513d601f19601f82011682018060405250810190610a4f9190611733565b610a6c57604051635c427cd960e01b815260040160405180910390fd5b60005b8251811015610aeb57818181518110610a8a57610a8a611794565b602002602001015160036000858481518110610aa857610aa8611794565b60200260200101516002811115610ac157610ac16115e5565b6002811115610ad257610ad26115e5565b8152602081019190915260400160002055600101610a6f565b505050565b33600090815260066020526040812054610b08610b17565b610b1291906116dd565b905090565b33600090815260056020908152604080832080548251818502810185019093528083528493830182828015610b6b57602002820191906000526020600020905b815481526020019060010190808311610b57575b505050505090508051600003610b8357600091505090565b6000805b8251811015610c595733600090815260046020526040812084518290869085908110610bb557610bb5611794565b6020908102919091018101518252818101929092526040908101600020815160808101835281546001600160e01b0381168252600160e01b900463ffffffff1693810193909352600181015460ff808216151593850193909352909160608401916101009004166002811115610c2d57610c2d6115e5565b6002811115610c3e57610c3e6115e5565b9052509050610c4c81610486565b9092019150600101610b87565b5092915050565b6001600160a01b038116600090815260056020908152604091829020805483518184028101840190945280845260609392830182828015610cc057602002820191906000526020600020905b815481526020019060010190808311610cac575b50505050509050919050565b604051637af97f4960e11b81526001600160a01b037f0000000000000000000000000000000000000000000000000000000000000000169063f5f2fe9290610d289030906001600160e01b031960003516903390600401611706565b602060405180830381865afa158015610d45573d6000803e3d6000fd5b505050506040513d601f19601f82011682018060405250810190610d699190611733565b610d8657604051635c427cd960e01b815260040160405180910390fd5b604051600090339083908381818185875af1925050503d8060008114610dc8576040519150601f19603f3d011682016040523d82523d6000602084013e610dcd565b606091505b5050905080610def57604051631d42c86760e21b815260040160405180910390fd5b5050565b60008054600160a01b900460ff16610e1e5760405163601968e760e01b815260040160405180910390fd5b336000908152600460209081526040808320868452825291829020825160808101845281546001600160e01b0381168252600160e01b900463ffffffff1692810192909252600181015460ff8082161515948401949094529092610e9b92918491606084019161010090041660028111156108aa576108aa6115e5565b6001818101805460ff191690911790558054610ec19084906001600160e01b0316610f1f565b50506001545b92915050565b604080516001600160a01b038416602482015260448082018490528251808303909101815260649091019091526020810180516001600160e01b031663a9059cbb60e01b179052610aeb90849061114a565b80600003610f4057604051634cd41e1160e11b815260040160405180910390fd5b600160008154610f4f906117aa565b90915550604080516080810182526001600160e01b038316815263ffffffff4216602082015260009181019190915260608101836002811115610f9457610f946115e5565b90523360009081526004602090815260408083206001805485529083529281902084519285015163ffffffff16600160e01b026001600160e01b03909316929092178255830151918101805492151560ff198416811782556060850151929361ff001990911661ffff1990911617610100836002811115611017576110176115e5565b0217905550503360008181526005602090815260408083206001805482548083018455928652939094200191909155905490519092507f5b59f5246c588ca2e41996950848906e08477d7add424b054943ff768f393b519061107e90859042908890611763565b60405180910390a35050565b80516001600160e01b03166000036110b557604051639b763f7160e01b815260040160405180910390fd5b8060400151156110d85760405163fc90a26360e01b815260040160405180910390fd5b60026000826060015160028111156110f2576110f26115e5565b6002811115611103576111036115e5565b815260200190815260200160002054816020015163ffffffff166111279190611750565b42101561114757604051631435001d60e21b815260040160405180910390fd5b50565b600061115f6001600160a01b038416836111b2565b905080516000141580156111845750808060200190518101906111829190611733565b155b15610aeb57604051635274afe760e01b81526001600160a01b03841660048201526024015b60405180910390fd5b60606111c0838360006111c7565b9392505050565b6060814710156111ec5760405163cd78605960e01b81523060048201526024016111a9565b600080856001600160a01b0316848660405161120891906117c3565b60006040518083038185875af1925050503d8060008114611245576040519150601f19603f3d011682016040523d82523d6000602084013e61124a565b606091505b509150915061125a868383611264565b9695505050505050565b60608261127957611274826112c0565b6111c0565b815115801561129057506001600160a01b0384163b155b156112b957604051639996b31560e01b81526001600160a01b03851660048201526024016111a9565b50806111c0565b8051156112d05780518082602001fd5b604051630a12f52160e11b815260040160405180910390fd5b80356003811061082857600080fd5b60006020828403121561130a57600080fd5b6111c0826112e9565b634e487b7160e01b600052604160045260246000fd5b604051601f8201601f1916810167ffffffffffffffff8111828210171561135257611352611313565b604052919050565b801515811461114757600080fd5b60006080828403121561137a57600080fd5b6040516080810181811067ffffffffffffffff8211171561139d5761139d611313565b60405282356001600160e01b03811681146113b757600080fd5b8152602083013563ffffffff811681146113d057600080fd5b602082015260408301356113e38161135a565b60408201526113f4606084016112e9565b60608201529392505050565b80356001600160a01b038116811461082857600080fd5b60006020828403121561142957600080fd5b6111c082611400565b60006020828403121561144457600080fd5b81356111c08161135a565b60006020828403121561146157600080fd5b5035919050565b600067ffffffffffffffff82111561148257611482611313565b5060051b60200190565b600082601f83011261149d57600080fd5b813560206114b26114ad83611468565b611329565b8083825260208201915060208460051b8701019350868411156114d457600080fd5b602086015b848110156114f057803583529183019183016114d9565b509695505050505050565b6000806040838503121561150e57600080fd5b823567ffffffffffffffff8082111561152657600080fd5b818501915085601f83011261153a57600080fd5b8135602061154a6114ad83611468565b82815260059290921b8401810191818101908984111561156957600080fd5b948201945b8386101561158e5761157f866112e9565b8252948201949082019061156e565b965050860135925050808211156115a457600080fd5b506115b18582860161148c565b9150509250929050565b600080604083850312156115ce57600080fd5b6115d783611400565b946020939093013593505050565b634e487b7160e01b600052602160045260246000fd5b6003811061161957634e487b7160e01b600052602160045260246000fd5b9052565b6001600160e01b038516815263ffffffff8416602082015282151560408201526080810161164e60608301846115fb565b95945050505050565b6020808252825182820181905260009190848201906040850190845b8181101561168f57835183529284019291840191600101611673565b50909695505050505050565b600080604083850312156116ae57600080fd5b823591506116be602084016112e9565b90509250929050565b634e487b7160e01b600052601160045260246000fd5b81810381811115610ec757610ec76116c7565b634e487b7160e01b600052601260045260246000fd5b6001600160a01b0393841681526001600160e01b0319929092166020830152909116604082015260600190565b60006020828403121561174557600080fd5b81516111c08161135a565b80820180821115610ec757610ec76116c7565b6001600160e01b038416815263ffffffff831660208201526060810161178c60408301846115fb565b949350505050565b634e487b7160e01b600052603260045260246000fd5b6000600182016117bc576117bc6116c7565b5060010190565b6000825160005b818110156117e457602081860181015185830152016117ca565b50600092019182525091905056fea2646970667358221220ccda2168066e5b3cb1954fb3f67307c37a00113c73ebffa8d4ecfaa57105551964736f6c63430008170033","linkReferences":{}},"methodIdentifiers":{"DENOMINATOR()":"918f8674","calculateAccruedVvvAmount((uint224,uint32,bool,uint8))":"0b23fd2b","calculateAccruedVvvAmount()":"9d52293c","calculateClaimableVvvAmount()":"8957bf0b","claimVvv(uint256)":"1ed68958","durationToMultiplier(uint8)":"05c2f5b6","durationToSeconds(uint8)":"0f16942c","ethToVvvExchangeRate()":"4fc166db","newStakesPermitted()":"ea07b7a1","restakeEth(uint256,uint8)":"dee93070","setDurationMultipliers(uint8[],uint256[])":"3df8fa43","setNewStakesPermitted(bool)":"147e3905","setVvvToken(address)":"11b99ef8","stakeEth(uint8)":"2535dfc7","stakeId()":"1254eb93","userStakeIds(address)":"ba9d8aaf","userStakes(address,uint256)":"b5d5b5fa","userVvvClaimed(address)":"ecf68864","vvvToken()":"8d2ac133","withdrawEth(uint256)":"c311d049","withdrawStake(uint256)":"25d5971f"},"id":2}