{
  "abi": [
    {
      "inputs": [],
      "stateMutability": "nonpayable",
      "type": "constructor"
    },
    {
      "inputs": [],
      "name": "SALT_USED",
      "type": "error"
    },
    {
      "inputs": [],
      "name": "UNAUTHORIZED",
      "type": "error"
    },
    {
      "anonymous": false,
      "inputs": [
        {
          "indexed": true,
          "internalType": "address",
          "name": "deployed",
          "type": "address"
        },
        {
          "indexed": true,
          "internalType": "bytes32",
          "name": "salt",
          "type": "bytes32"
        }
      ],
      "name": "Deployed",
      "type": "event"
    },
    {
      "inputs": [
        {
          "internalType": "string",
          "name": "_contractName",
          "type": "string"
        },
        {
          "internalType": "string",
          "name": "_version",
          "type": "string"
        },
        {
          "internalType": "bytes",
          "name": "creationCode",
          "type": "bytes"
        }
      ],
      "name": "deploy",
      "outputs": [
        {
          "internalType": "address",
          "name": "deployedContract",
          "type": "address"
        }
      ],
      "stateMutability": "payable",
      "type": "function"
    },
    {
      "inputs": [
        {
          "internalType": "address",
          "name": "",
          "type": "address"
        }
      ],
      "name": "isDeployer",
      "outputs": [
        {
          "internalType": "bool",
          "name": "",
          "type": "bool"
        }
      ],
      "stateMutability": "view",
      "type": "function"
    },
    {
      "inputs": [
        {
          "internalType": "address",
          "name": "_deployer",
          "type": "address"
        },
        {
          "internalType": "bool",
          "name": "_allowedToDeploy",
          "type": "bool"
        }
      ],
      "name": "setDeployer",
      "outputs": [],
      "stateMutability": "nonpayable",
      "type": "function"
    },
    {
      "inputs": [
        {
          "internalType": "bytes32",
          "name": "",
          "type": "bytes32"
        }
      ],
      "name": "usedSalts",
      "outputs": [
        {
          "internalType": "bool",
          "name": "",
          "type": "bool"
        }
      ],
      "stateMutability": "view",
      "type": "function"
    }
  ],
  "bytecode": {
    "object": "0x608060405234801561001057600080fd5b50336000908152600160208190526040909120805460ff1916909117905561058e8061003d6000396000f3fe60806040526004361061003f5760003560e01c80630b0fdb3d146100445780634f28f6f31461008957806350c358a4146100c1578063a34b5ee8146100f1575b600080fd5b34801561005057600080fd5b5061007461005f366004610311565b60006020819052908152604090205460ff1681565b60405190151581526020015b60405180910390f35b61009c6100973660046103ef565b610113565b60405173ffffffffffffffffffffffffffffffffffffffff9091168152602001610080565b3480156100cd57600080fd5b506100746100dc3660046104b4565b60016020526000908152604090205460ff1681565b3480156100fd57600080fd5b5061011161010c3660046104cf565b610205565b005b600061011d610245565b6000848460405160200161013292919061053b565b60408051601f19818403018152918152815160209283012060008181529283905291205490915060ff1615610193576040517f9fdcd98700000000000000000000000000000000000000000000000000000000815260040160405180910390fd5b6000818152602081905260409020805460ff191660011790556101b7818434610290565b9150808273ffffffffffffffffffffffffffffffffffffffff167f94bfd9af14ef450884c8a7ddb5734e2e1e14e70a1c84f0801cc5a29e34d2642860405160405180910390a3509392505050565b61020d610245565b73ffffffffffffffffffffffffffffffffffffffff919091166000908152600160205260409020805460ff1916911515919091179055565b3360009081526001602052604090205460ff1661028e576040517f075fd2b100000000000000000000000000000000000000000000000000000000815260040160405180910390fd5b565b60006f67363d3d37363d34f03d5260086018f3600052836010806000f5806102c05763301164256000526004601cfd5b8060145261d69460005260016034536017601e20915060008085516020870186855af16102f5576319b991a86000526004601cfd5b50803b61030a576319b991a86000526004601cfd5b9392505050565b60006020828403121561032357600080fd5b5035919050565b7f4e487b7100000000000000000000000000000000000000000000000000000000600052604160045260246000fd5b600067ffffffffffffffff808411156103745761037461032a565b604051601f8501601f19908116603f0116810190828211818310171561039c5761039c61032a565b816040528093508581528686860111156103b557600080fd5b858560208301376000602087830101525050509392505050565b600082601f8301126103e057600080fd5b61030a83833560208501610359565b60008060006060848603121561040457600080fd5b833567ffffffffffffffff8082111561041c57600080fd5b610428878388016103cf565b9450602086013591508082111561043e57600080fd5b61044a878388016103cf565b9350604086013591508082111561046057600080fd5b508401601f8101861361047257600080fd5b61048186823560208401610359565b9150509250925092565b803573ffffffffffffffffffffffffffffffffffffffff811681146104af57600080fd5b919050565b6000602082840312156104c657600080fd5b61030a8261048b565b600080604083850312156104e257600080fd5b6104eb8361048b565b91506020830135801515811461050057600080fd5b809150509250929050565b6000815160005b8181101561052c5760208185018101518683015201610512565b50600093019283525090919050565b600061055061054a838661050b565b8461050b565b94935050505056fea2646970667358221220d161fe5fa72a8de6ac5809d819dceefb5b458030feb172680b1f495cca8d290e64736f6c63430008130033",
    "linkReferences": {}
  },
  "methodIdentifiers": {
    "deploy(string,string,bytes)": "4f28f6f3",
    "isDeployer(address)": "50c358a4",
    "setDeployer(address,bool)": "a34b5ee8",
    "usedSalts(bytes32)": "0b0fdb3d"
  },
  "storageLayout": {
    "storage": [
      {
        "astId": 3135,
        "contract": "contracts/factory/ContractFactory.sol:ContractFactory",
        "label": "usedSalts",
        "offset": 0,
        "slot": "0",
        "type": "t_mapping(t_bytes32,t_bool)"
      },
      {
        "astId": 3140,
        "contract": "contracts/factory/ContractFactory.sol:ContractFactory",
        "label": "isDeployer",
        "offset": 0,
        "slot": "1",
        "type": "t_mapping(t_address,t_bool)"
      }
    ],
    "types": {
      "t_address": {
        "encoding": "inplace",
        "label": "address",
        "numberOfBytes": "20"
      },
      "t_bool": {
        "encoding": "inplace",
        "label": "bool",
        "numberOfBytes": "1"
      },
      "t_bytes32": {
        "encoding": "inplace",
        "label": "bytes32",
        "numberOfBytes": "32"
      },
      "t_mapping(t_address,t_bool)": {
        "encoding": "mapping",
        "key": "t_address",
        "label": "mapping(address => bool)",
        "numberOfBytes": "32",
        "value": "t_bool"
      },
      "t_mapping(t_bytes32,t_bool)": {
        "encoding": "mapping",
        "key": "t_bytes32",
        "label": "mapping(bytes32 => bool)",
        "numberOfBytes": "32",
        "value": "t_bool"
      }
    }
  },
  "id": 11
}