{
  "abi": [
    {
      "inputs": [],
      "name": "_PERMIT_BATCH_TRANSFER_FROM_TYPEHASH",
      "outputs": [
        {
          "internalType": "bytes32",
          "name": "",
          "type": "bytes32"
        }
      ],
      "stateMutability": "view",
      "type": "function"
    },
    {
      "inputs": [],
      "name": "_PERMIT_BATCH_TYPEHASH",
      "outputs": [
        {
          "internalType": "bytes32",
          "name": "",
          "type": "bytes32"
        }
      ],
      "stateMutability": "view",
      "type": "function"
    },
    {
      "inputs": [],
      "name": "_PERMIT_DETAILS_TYPEHASH",
      "outputs": [
        {
          "internalType": "bytes32",
          "name": "",
          "type": "bytes32"
        }
      ],
      "stateMutability": "view",
      "type": "function"
    },
    {
      "inputs": [],
      "name": "_PERMIT_SINGLE_TYPEHASH",
      "outputs": [
        {
          "internalType": "bytes32",
          "name": "",
          "type": "bytes32"
        }
      ],
      "stateMutability": "view",
      "type": "function"
    },
    {
      "inputs": [],
      "name": "_PERMIT_TRANSFER_FROM_TYPEHASH",
      "outputs": [
        {
          "internalType": "bytes32",
          "name": "",
          "type": "bytes32"
        }
      ],
      "stateMutability": "view",
      "type": "function"
    },
    {
      "inputs": [],
      "name": "_TOKEN_PERMISSIONS_TYPEHASH",
      "outputs": [
        {
          "internalType": "bytes32",
          "name": "",
          "type": "bytes32"
        }
      ],
      "stateMutability": "view",
      "type": "function"
    }
  ],
  "bytecode": {
    "object": "0x608060405234801561001057600080fd5b506101a9806100206000396000f3fe608060405234801561001057600080fd5b50600436106100725760003560e01c80636e4f2775116100505780636e4f2775146100fe57806378f1683014610125578063c5df4f031461014c57600080fd5b80633eb8b8fd14610077578063415e982d146100b05780636302c3cf146100d7575b600080fd5b61009e7ffcf35f5ac6a2c28868dc44c302166470266239195f02b0ee408334829333b76681565b60405190815260200160405180910390f35b61009e7f618358ac3db8dc274f0cd8829da7e234bd48cd73c4a740aede1adec9846d06a181565b61009e7faf1b0d30d2cab0380e68f0689007e3254993c596f2fdd0aaa7f4d04f7944086381565b61009e7f65626cad6cb96493bf6f5ebea28756c966f023ab9e8a83a7101849d5573b367881565b61009e7f939c21a48a8dbe3a9a2404a1d46691e4d39f6583d6ec6b35714604c986d8010681565b61009e7ff3841cd1ff0085026a6327b620b67997ce40f282c88a8e905a7a5626e310f3d08156fea2646970667358221220b858b7c30cd7b55d0de4728a9a1f212f84347f79becb47a181bd9ca8bd1ad5bb64736f6c63430008130033",
    "linkReferences": {}
  },
  "methodIdentifiers": {
    "_PERMIT_BATCH_TRANSFER_FROM_TYPEHASH()": "3eb8b8fd",
    "_PERMIT_BATCH_TYPEHASH()": "6302c3cf",
    "_PERMIT_DETAILS_TYPEHASH()": "6e4f2775",
    "_PERMIT_SINGLE_TYPEHASH()": "c5df4f03",
    "_PERMIT_TRANSFER_FROM_TYPEHASH()": "78f16830",
    "_TOKEN_PERMISSIONS_TYPEHASH()": "415e982d"
  },
  "storageLayout": {
    "storage": [],
    "types": {}
  },
  "id": 89
}