{"abi":[{"type":"constructor","inputs":[{"name":"dai_","type":"address","internalType":"contract MockERC20"}],"stateMutability":"nonpayable"},{"type":"function","name":"DOMAIN_SEPARATOR","inputs":[],"outputs":[{"name":"","type":"bytes32","internalType":"bytes32"}],"stateMutability":"view"},{"type":"function","name":"PERMIT_TYPEHASH","inputs":[],"outputs":[{"name":"","type":"bytes32","internalType":"bytes32"}],"stateMutability":"view"},{"type":"function","name":"allowance","inputs":[{"name":"","type":"address","internalType":"address"},{"name":"","type":"address","internalType":"address"}],"outputs":[{"name":"","type":"uint256","internalType":"uint256"}],"stateMutability":"view"},{"type":"function","name":"approve","inputs":[{"name":"usr","type":"address","internalType":"address"},{"name":"wad","type":"uint256","internalType":"uint256"}],"outputs":[{"name":"","type":"bool","internalType":"bool"}],"stateMutability":"nonpayable"},{"type":"function","name":"balanceOf","inputs":[{"name":"","type":"address","internalType":"address"}],"outputs":[{"name":"","type":"uint256","internalType":"uint256"}],"stateMutability":"view"},{"type":"function","name":"burn","inputs":[{"name":"usr","type":"address","internalType":"address"},{"name":"wad","type":"uint256","internalType":"uint256"}],"outputs":[],"stateMutability":"nonpayable"},{"type":"function","name":"convertToAssets","inputs":[{"name":"shares","type":"uint256","internalType":"uint256"}],"outputs":[{"name":"","type":"uint256","internalType":"uint256"}],"stateMutability":"view"},{"type":"function","name":"convertToShares","inputs":[{"name":"assets","type":"uint256","internalType":"uint256"}],"outputs":[{"name":"","type":"uint256","internalType":"uint256"}],"stateMutability":"view"},{"type":"function","name":"dai","inputs":[],"outputs":[{"name":"","type":"address","internalType":"contract MockERC20"}],"stateMutability":"view"},{"type":"function","name":"decimals","inputs":[],"outputs":[{"name":"","type":"uint8","internalType":"uint8"}],"stateMutability":"view"},{"type":"function","name":"deposit","inputs":[{"name":"assets","type":"uint256","internalType":"uint256"},{"name":"receiver","type":"address","internalType":"address"}],"outputs":[{"name":"shares","type":"uint256","internalType":"uint256"}],"stateMutability":"nonpayable"},{"type":"function","name":"mint","inputs":[{"name":"usr","type":"address","internalType":"address"},{"name":"wad","type":"uint256","internalType":"uint256"}],"outputs":[],"stateMutability":"nonpayable"},{"type":"function","name":"name","inputs":[],"outputs":[{"name":"","type":"string","internalType":"string"}],"stateMutability":"view"},{"type":"function","name":"nonces","inputs":[{"name":"","type":"address","internalType":"address"}],"outputs":[{"name":"","type":"uint256","internalType":"uint256"}],"stateMutability":"view"},{"type":"function","name":"permit","inputs":[{"name":"owner","type":"address","internalType":"address"},{"name":"spender","type":"address","internalType":"address"},{"name":"value","type":"uint256","internalType":"uint256"},{"name":"deadline","type":"uint256","internalType":"uint256"},{"name":"v","type":"uint8","internalType":"uint8"},{"name":"r","type":"bytes32","internalType":"bytes32"},{"name":"s","type":"bytes32","internalType":"bytes32"}],"outputs":[],"stateMutability":"nonpayable"},{"type":"function","name":"redeem","inputs":[{"name":"shares","type":"uint256","internalType":"uint256"},{"name":"receiver","type":"address","internalType":"address"},{"name":"owner","type":"address","internalType":"address"}],"outputs":[{"name":"assets","type":"uint256","internalType":"uint256"}],"stateMutability":"nonpayable"},{"type":"function","name":"symbol","inputs":[],"outputs":[{"name":"","type":"string","internalType":"string"}],"stateMutability":"view"},{"type":"function","name":"totalSupply","inputs":[],"outputs":[{"name":"","type":"uint256","internalType":"uint256"}],"stateMutability":"view"},{"type":"function","name":"transfer","inputs":[{"name":"dst","type":"address","internalType":"address"},{"name":"wad","type":"uint256","internalType":"uint256"}],"outputs":[{"name":"","type":"bool","internalType":"bool"}],"stateMutability":"nonpayable"},{"type":"function","name":"transferFrom","inputs":[{"name":"src","type":"address","internalType":"address"},{"name":"dst","type":"address","internalType":"address"},{"name":"wad","type":"uint256","internalType":"uint256"}],"outputs":[{"name":"","type":"bool","internalType":"bool"}],"stateMutability":"nonpayable"},{"type":"event","name":"Approval","inputs":[{"name":"owner","type":"address","indexed":true,"internalType":"address"},{"name":"spender","type":"address","indexed":true,"internalType":"address"},{"name":"amount","type":"uint256","indexed":false,"internalType":"uint256"}],"anonymous":false},{"type":"event","name":"Transfer","inputs":[{"name":"from","type":"address","indexed":true,"internalType":"address"},{"name":"to","type":"address","indexed":true,"internalType":"address"},{"name":"amount","type":"uint256","indexed":false,"internalType":"uint256"}],"anonymous":false},{"type":"error","name":"TransferOutFailed","inputs":[]},{"type":"error","name":"Unsupported","inputs":[]}],"bytecode":{"object":"0x60c060405234801561000f575f80fd5b506040516112da3803806112da83398101604081905261002e9161015e565b6040518060400160405280601081526020016f4d6f636b20536176696e67732044616960801b815250604051806040016040528060088152602001674d6f636b5344414960c01b8152506012825f90816100889190610223565b5060016100958382610223565b5060ff81166080526040517f8b73c3c69bb8fe3d512ecc4cf759cc79239f7b179b0ffacaa9a75d522b39400f906100cd905f906102e2565b60408051918290038220828201825260018352603160f81b6020938401528151928301939093528101919091527fc89efdaa54c0f20c7adf612882df0950f5a951637e0307cdcb4c672f298b8bc660608201524660808201523060a082015260c00160408051601f1981840301815291905280516020909101206006555050506001600160a01b031660a052610354565b5f6020828403121561016e575f80fd5b81516001600160a01b0381168114610184575f80fd5b9392505050565b634e487b7160e01b5f52604160045260245ffd5b600181811c908216806101b357607f821691505b6020821081036101d157634e487b7160e01b5f52602260045260245ffd5b50919050565b601f82111561021e57805f5260205f20601f840160051c810160208510156101fc5750805b601f840160051c820191505b8181101561021b575f8155600101610208565b50505b505050565b81516001600160401b0381111561023c5761023c61018b565b6102508161024a845461019f565b846101d7565b602080601f831160018114610283575f841561026c5750858301515b5f19600386901b1c1916600185901b1785556102da565b5f85815260208120601f198616915b828110156102b157888601518255948401946001909101908401610292565b50858210156102ce57878501515f19600388901b60f8161c191681555b505060018460011b0185555b505050505050565b5f8083546102ef8161019f565b60018281168015610307576001811461031c57610348565b60ff1984168752821515830287019450610348565b875f526020805f205f5b8581101561033f5781548a820152908401908201610326565b50505082870194505b50929695505050505050565b60805160a051610f576103835f395f81816102fb015281816106a9015261094601525f6101d50152610f575ff3fe608060405234801561000f575f80fd5b5060043610610127575f3560e01c806370a08231116100a9578063ba0876521161006e578063ba08765214610293578063c6e6f592146102a6578063d505accf146102b9578063dd62ed3e146102cc578063f4b9fa75146102f6575f80fd5b806370a082311461023a5780637ecebe001461025957806395d89b41146102785780639dc29fac14610212578063a9059cbb14610280575f80fd5b806330adf81f116100ef57806330adf81f146101a9578063313ce567146101d05780633644e5151461020957806340c10f19146102125780636e553f6514610227575f80fd5b806306fdde031461012b57806307a2d13a14610149578063095ea7b31461016a57806318160ddd1461018d57806323b872dd14610196575b5f80fd5b610133610335565b6040516101409190610c52565b60405180910390f35b61015c610157366004610c9e565b6103c0565b604051908152602001610140565b61017d610178366004610cd0565b6103ec565b6040519015158152602001610140565b61015c60025481565b61017d6101a4366004610cf8565b610457565b61015c7f6e71edae12b1b97f4d1f60370fef10105fa2faae0126114a169c64845d6126c981565b6101f77f000000000000000000000000000000000000000000000000000000000000000081565b60405160ff9091168152602001610140565b61015c60065481565b610225610220366004610cd0565b61066c565b005b61015c610235366004610d31565b610685565b61015c610248366004610d5b565b60036020525f908152604090205481565b61015c610267366004610d5b565b60056020525f908152604090205481565b6101336107ba565b61017d61028e366004610cd0565b6107c7565b61015c6102a1366004610d74565b6107da565b61015c6102b4366004610c9e565b6109bb565b6102256102c7366004610dad565b6109d7565b61015c6102da366004610e1a565b600460209081525f928352604080842090915290825290205481565b61031d7f000000000000000000000000000000000000000000000000000000000000000081565b6040516001600160a01b039091168152602001610140565b5f805461034190610e42565b80601f016020809104026020016040519081016040528092919081815260200182805461036d90610e42565b80156103b85780601f1061038f576101008083540402835291602001916103b8565b820191905f5260205f20905b81548152906001019060200180831161039b57829003601f168201915b505050505081565b5f670de0b6b3a76400006103dc83670ec4959615644da9610e8e565b6103e69190610ea5565b92915050565b335f8181526004602090815260408083206001600160a01b038716808552925280832085905551919290917f8c5be1e5ebec7d5bd14f71427d1e84f3dd0314c0f7b2291e5b200ac8c7c3b925906104469086815260200190565b60405180910390a350600192915050565b6001600160a01b0383165f908152600360205260408120548211156104ba5760405162461bcd60e51b8152602060048201526014602482015273696e73756666696369656e742d62616c616e636560601b60448201526064015b60405180910390fd5b6001600160a01b03841633148015906104f657506001600160a01b0384165f9081526004602090815260408083203384529091529020545f1914155b156105b7576001600160a01b0384165f9081526004602090815260408083203384529091529020548211156105665760405162461bcd60e51b8152602060048201526016602482015275696e73756666696369656e742d616c6c6f77616e636560501b60448201526064016104b1565b6001600160a01b0384165f9081526004602090815260408083203384529091529020546105939083610c20565b6001600160a01b0385165f9081526004602090815260408083203384529091529020555b6001600160a01b0384165f908152600360205260409020546105d99083610c20565b6001600160a01b038086165f9081526003602052604080822093909355908516815220546106079083610c39565b6001600160a01b038085165f8181526003602052604090819020939093559151908616907fddf252ad1be2c89b69c2b068fc378daa952ba7f163c4a11628f55a4df523b3ef9061065a9086815260200190565b60405180910390a35060019392505050565b604051634851657960e11b815260040160405180910390fd5b6040516323b872dd60e01b8152336004820152306024820152604481018390525f907f00000000000000000000000000000000000000000000000000000000000000006001600160a01b0316906323b872dd906064016020604051808303815f875af11580156106f7573d5f803e3d5ffd5b505050506040513d601f19601f8201168201806040525081019061071b9190610ec4565b505f610726846109bb565b6001600160a01b0384165f9081526003602052604090205490915061074b9082610c39565b6001600160a01b0384165f908152600360205260409020556002546107709082610c39565b6002556040518181526001600160a01b038416905f907fddf252ad1be2c89b69c2b068fc378daa952ba7f163c4a11628f55a4df523b3ef9060200160405180910390a39392505050565b6001805461034190610e42565b5f6107d3338484610457565b9392505050565b5f6001600160a01b0382163314610889576001600160a01b0382165f9081526004602090815260408083203384529091529020545f198114610887578481101561085f5760405162461bcd60e51b8152602060048201526016602482015275696e73756666696369656e742d616c6c6f77616e636560501b60448201526064016104b1565b6001600160a01b0383165f908152600460209081526040808320338452909152902085820390555b505b6001600160a01b0382165f908152600360205260409020546108ab9085610c20565b6001600160a01b0383165f908152600360205260409020556002546108d09085610c20565b6002556040518481525f906001600160a01b038416907fddf252ad1be2c89b69c2b068fc378daa952ba7f163c4a11628f55a4df523b3ef9060200160405180910390a35f61091d856103c0565b60405163a9059cbb60e01b81526001600160a01b038681166004830152602482018390529192507f00000000000000000000000000000000000000000000000000000000000000009091169063a9059cbb906044016020604051808303815f875af115801561098e573d5f803e3d5ffd5b505050506040513d601f19601f820116820180604052508101906109b29190610ec4565b50949350505050565b5f670de0b6b3a76400006103dc83670d0a93e3b833b073610e8e565b42841015610a115760405162461bcd60e51b81526020600482015260076024820152661156141254915160ca1b60448201526064016104b1565b6006546001600160a01b0388165f90815260056020526040812080549192917f6e71edae12b1b97f4d1f60370fef10105fa2faae0126114a169c64845d6126c9918b918b918b919087610a6383610ee3565b909155506040805160208101969096526001600160a01b0394851690860152929091166060840152608083015260a082015260c0810187905260e00160405160208183030381529060405280519060200120604051602001610adc92919061190160f01b81526002810192909252602282015260420190565b60408051601f1981840301815282825280516020918201205f80855291840180845281905260ff88169284019290925260608301869052608083018590529092509060019060a0016020604051602081039080840390855afa158015610b44573d5f803e3d5ffd5b5050604051601f1901519150506001600160a01b03811615801590610b7a5750886001600160a01b0316816001600160a01b0316145b610bba5760405162461bcd60e51b8152602060048201526011602482015270494e56414c49445f5349474e415455524560781b60448201526064016104b1565b6001600160a01b038981165f818152600460209081526040808320948d16808452948252918290208b905590518a81527f8c5be1e5ebec7d5bd14f71427d1e84f3dd0314c0f7b2291e5b200ac8c7c3b925910160405180910390a3505050505050505050565b5f82610c2c8382610efb565b91508111156103e6575f80fd5b5f82610c458382610f0e565b91508110156103e6575f80fd5b5f602080835283518060208501525f5b81811015610c7e57858101830151858201604001528201610c62565b505f604082860101526040601f19601f8301168501019250505092915050565b5f60208284031215610cae575f80fd5b5035919050565b80356001600160a01b0381168114610ccb575f80fd5b919050565b5f8060408385031215610ce1575f80fd5b610cea83610cb5565b946020939093013593505050565b5f805f60608486031215610d0a575f80fd5b610d1384610cb5565b9250610d2160208501610cb5565b9150604084013590509250925092565b5f8060408385031215610d42575f80fd5b82359150610d5260208401610cb5565b90509250929050565b5f60208284031215610d6b575f80fd5b6107d382610cb5565b5f805f60608486031215610d86575f80fd5b83359250610d9660208501610cb5565b9150610da460408501610cb5565b90509250925092565b5f805f805f805f60e0888a031215610dc3575f80fd5b610dcc88610cb5565b9650610dda60208901610cb5565b95506040880135945060608801359350608088013560ff81168114610dfd575f80fd5b9699959850939692959460a0840135945060c09093013592915050565b5f8060408385031215610e2b575f80fd5b610e3483610cb5565b9150610d5260208401610cb5565b600181811c90821680610e5657607f821691505b602082108103610e7457634e487b7160e01b5f52602260045260245ffd5b50919050565b634e487b7160e01b5f52601160045260245ffd5b80820281158282048414176103e6576103e6610e7a565b5f82610ebf57634e487b7160e01b5f52601260045260245ffd5b500490565b5f60208284031215610ed4575f80fd5b815180151581146107d3575f80fd5b5f60018201610ef457610ef4610e7a565b5060010190565b818103818111156103e6576103e6610e7a565b808201808211156103e6576103e6610e7a56fea2646970667358221220b6407ff17f2dc9008b5d397fe908ced36717cf410a8dc9940da1aee5be38061664736f6c63430008190033","linkReferences":{}},"methodIdentifiers":{"DOMAIN_SEPARATOR()":"3644e515","PERMIT_TYPEHASH()":"30adf81f","allowance(address,address)":"dd62ed3e","approve(address,uint256)":"095ea7b3","balanceOf(address)":"70a08231","burn(address,uint256)":"9dc29fac","convertToAssets(uint256)":"07a2d13a","convertToShares(uint256)":"c6e6f592","dai()":"f4b9fa75","decimals()":"313ce567","deposit(uint256,address)":"6e553f65","mint(address,uint256)":"40c10f19","name()":"06fdde03","nonces(address)":"7ecebe00","permit(address,address,uint256,uint256,uint8,bytes32,bytes32)":"d505accf","redeem(uint256,address,address)":"ba087652","symbol()":"95d89b41","totalSupply()":"18160ddd","transfer(address,uint256)":"a9059cbb","transferFrom(address,address,uint256)":"23b872dd"},"id":11}