{
  "abi": [
    {
      "anonymous": false,
      "inputs": [
        {
          "indexed": true,
          "internalType": "address",
          "name": "owner",
          "type": "address"
        },
        {
          "indexed": true,
          "internalType": "address",
          "name": "spender",
          "type": "address"
        },
        {
          "indexed": false,
          "internalType": "uint256",
          "name": "value",
          "type": "uint256"
        }
      ],
      "name": "Approval",
      "type": "event"
    },
    {
      "anonymous": false,
      "inputs": [
        {
          "indexed": false,
          "internalType": "uint8",
          "name": "version",
          "type": "uint8"
        }
      ],
      "name": "Initialized",
      "type": "event"
    },
    {
      "anonymous": false,
      "inputs": [
        {
          "indexed": true,
          "internalType": "address",
          "name": "from",
          "type": "address"
        },
        {
          "indexed": true,
          "internalType": "address",
          "name": "to",
          "type": "address"
        },
        {
          "indexed": false,
          "internalType": "address",
          "name": "token",
          "type": "address"
        },
        {
          "indexed": false,
          "internalType": "uint256",
          "name": "amountToken",
          "type": "uint256"
        },
        {
          "indexed": false,
          "internalType": "uint256",
          "name": "amountStable",
          "type": "uint256"
        }
      ],
      "name": "Mint",
      "type": "event"
    },
    {
      "anonymous": false,
      "inputs": [
        {
          "indexed": true,
          "internalType": "bytes32",
          "name": "role",
          "type": "bytes32"
        },
        {
          "indexed": true,
          "internalType": "bytes32",
          "name": "previousAdminRole",
          "type": "bytes32"
        },
        {
          "indexed": true,
          "internalType": "bytes32",
          "name": "newAdminRole",
          "type": "bytes32"
        }
      ],
      "name": "RoleAdminChanged",
      "type": "event"
    },
    {
      "anonymous": false,
      "inputs": [
        {
          "indexed": true,
          "internalType": "bytes32",
          "name": "role",
          "type": "bytes32"
        },
        {
          "indexed": true,
          "internalType": "address",
          "name": "account",
          "type": "address"
        },
        {
          "indexed": true,
          "internalType": "address",
          "name": "sender",
          "type": "address"
        }
      ],
      "name": "RoleGranted",
      "type": "event"
    },
    {
      "anonymous": false,
      "inputs": [
        {
          "indexed": true,
          "internalType": "bytes32",
          "name": "role",
          "type": "bytes32"
        },
        {
          "indexed": true,
          "internalType": "address",
          "name": "account",
          "type": "address"
        },
        {
          "indexed": true,
          "internalType": "address",
          "name": "sender",
          "type": "address"
        }
      ],
      "name": "RoleRevoked",
      "type": "event"
    },
    {
      "anonymous": false,
      "inputs": [
        {
          "indexed": true,
          "internalType": "address",
          "name": "from",
          "type": "address"
        },
        {
          "indexed": true,
          "internalType": "address",
          "name": "to",
          "type": "address"
        },
        {
          "indexed": false,
          "internalType": "uint256",
          "name": "value",
          "type": "uint256"
        }
      ],
      "name": "Transfer",
      "type": "event"
    },
    {
      "inputs": [],
      "name": "DEFAULT_ADMIN_ROLE",
      "outputs": [
        {
          "internalType": "bytes32",
          "name": "",
          "type": "bytes32"
        }
      ],
      "stateMutability": "view",
      "type": "function"
    },
    {
      "inputs": [],
      "name": "STABLE_CONTROL_ROLE",
      "outputs": [
        {
          "internalType": "bytes32",
          "name": "",
          "type": "bytes32"
        }
      ],
      "stateMutability": "view",
      "type": "function"
    },
    {
      "inputs": [
        {
          "internalType": "bytes",
          "name": "_path",
          "type": "bytes"
        },
        {
          "internalType": "uint256",
          "name": "_sellAmount",
          "type": "uint256"
        }
      ],
      "name": "UniV3SwapInput",
      "outputs": [],
      "stateMutability": "nonpayable",
      "type": "function"
    },
    {
      "inputs": [
        {
          "internalType": "address",
          "name": "_address",
          "type": "address"
        },
        {
          "internalType": "address",
          "name": "_oracle",
          "type": "address"
        },
        {
          "internalType": "bool",
          "name": "_mint",
          "type": "bool"
        },
        {
          "internalType": "bool",
          "name": "_redeem",
          "type": "bool"
        },
        {
          "internalType": "uint256[]",
          "name": "_ratios",
          "type": "uint256[]"
        },
        {
          "internalType": "bytes",
          "name": "_pathbuy",
          "type": "bytes"
        },
        {
          "internalType": "bytes",
          "name": "_pathsell",
          "type": "bytes"
        },
        {
          "internalType": "uint256",
          "name": "index",
          "type": "uint256"
        }
      ],
      "name": "addCollateral",
      "outputs": [],
      "stateMutability": "nonpayable",
      "type": "function"
    },
    {
      "inputs": [
        {
          "internalType": "address",
          "name": "owner",
          "type": "address"
        },
        {
          "internalType": "address",
          "name": "spender",
          "type": "address"
        }
      ],
      "name": "allowance",
      "outputs": [
        {
          "internalType": "uint256",
          "name": "",
          "type": "uint256"
        }
      ],
      "stateMutability": "view",
      "type": "function"
    },
    {
      "inputs": [
        {
          "internalType": "address",
          "name": "spender",
          "type": "address"
        },
        {
          "internalType": "uint256",
          "name": "amount",
          "type": "uint256"
        }
      ],
      "name": "approve",
      "outputs": [
        {
          "internalType": "bool",
          "name": "",
          "type": "bool"
        }
      ],
      "stateMutability": "nonpayable",
      "type": "function"
    },
    {
      "inputs": [
        {
          "internalType": "address",
          "name": "_token",
          "type": "address"
        }
      ],
      "name": "approveToRouter",
      "outputs": [],
      "stateMutability": "nonpayable",
      "type": "function"
    },
    {
      "inputs": [
        {
          "internalType": "address",
          "name": "account",
          "type": "address"
        }
      ],
      "name": "balanceOf",
      "outputs": [
        {
          "internalType": "uint256",
          "name": "",
          "type": "uint256"
        }
      ],
      "stateMutability": "view",
      "type": "function"
    },
    {
      "inputs": [
        {
          "internalType": "uint256",
          "name": "amount",
          "type": "uint256"
        }
      ],
      "name": "burnRebalancer",
      "outputs": [],
      "stateMutability": "nonpayable",
      "type": "function"
    },
    {
      "inputs": [
        {
          "internalType": "address",
          "name": "_token",
          "type": "address"
        },
        {
          "internalType": "uint256",
          "name": "_amount",
          "type": "uint256"
        }
      ],
      "name": "calculateMint",
      "outputs": [
        {
          "internalType": "uint256",
          "name": "stableCoinAmount",
          "type": "uint256"
        }
      ],
      "stateMutability": "view",
      "type": "function"
    },
    {
      "inputs": [],
      "name": "collateralFactor",
      "outputs": [
        {
          "internalType": "uint256",
          "name": "",
          "type": "uint256"
        }
      ],
      "stateMutability": "view",
      "type": "function"
    },
    {
      "inputs": [],
      "name": "collateralList",
      "outputs": [
        {
          "components": [
            {
              "internalType": "address",
              "name": "token",
              "type": "address"
            },
            {
              "internalType": "bool",
              "name": "mint",
              "type": "bool"
            },
            {
              "internalType": "bool",
              "name": "redeem",
              "type": "bool"
            },
            {
              "internalType": "contract IStableOracle",
              "name": "oracle",
              "type": "address"
            },
            {
              "internalType": "bytes",
              "name": "pathbuy",
              "type": "bytes"
            },
            {
              "internalType": "bytes",
              "name": "pathsell",
              "type": "bytes"
            },
            {
              "internalType": "uint256[]",
              "name": "ratios",
              "type": "uint256[]"
            }
          ],
          "internalType": "struct CollateralInfo[]",
          "name": "",
          "type": "tuple[]"
        }
      ],
      "stateMutability": "view",
      "type": "function"
    },
    {
      "inputs": [],
      "name": "decimals",
      "outputs": [
        {
          "internalType": "uint8",
          "name": "",
          "type": "uint8"
        }
      ],
      "stateMutability": "view",
      "type": "function"
    },
    {
      "inputs": [
        {
          "internalType": "address",
          "name": "spender",
          "type": "address"
        },
        {
          "internalType": "uint256",
          "name": "subtractedValue",
          "type": "uint256"
        }
      ],
      "name": "decreaseAllowance",
      "outputs": [
        {
          "internalType": "bool",
          "name": "",
          "type": "bool"
        }
      ],
      "stateMutability": "nonpayable",
      "type": "function"
    },
    {
      "inputs": [
        {
          "internalType": "address",
          "name": "_token",
          "type": "address"
        }
      ],
      "name": "getCollateralIndex",
      "outputs": [
        {
          "internalType": "uint256",
          "name": "index",
          "type": "uint256"
        }
      ],
      "stateMutability": "view",
      "type": "function"
    },
    {
      "inputs": [
        {
          "internalType": "bytes32",
          "name": "role",
          "type": "bytes32"
        }
      ],
      "name": "getRoleAdmin",
      "outputs": [
        {
          "internalType": "bytes32",
          "name": "",
          "type": "bytes32"
        }
      ],
      "stateMutability": "view",
      "type": "function"
    },
    {
      "inputs": [
        {
          "internalType": "bytes32",
          "name": "role",
          "type": "bytes32"
        },
        {
          "internalType": "address",
          "name": "account",
          "type": "address"
        }
      ],
      "name": "grantRole",
      "outputs": [],
      "stateMutability": "nonpayable",
      "type": "function"
    },
    {
      "inputs": [
        {
          "internalType": "address",
          "name": "_token",
          "type": "address"
        }
      ],
      "name": "hasCollateralMint",
      "outputs": [
        {
          "internalType": "bool",
          "name": "present",
          "type": "bool"
        }
      ],
      "stateMutability": "view",
      "type": "function"
    },
    {
      "inputs": [
        {
          "internalType": "bytes32",
          "name": "role",
          "type": "bytes32"
        },
        {
          "internalType": "address",
          "name": "account",
          "type": "address"
        }
      ],
      "name": "hasRole",
      "outputs": [
        {
          "internalType": "bool",
          "name": "",
          "type": "bool"
        }
      ],
      "stateMutability": "view",
      "type": "function"
    },
    {
      "inputs": [
        {
          "internalType": "address",
          "name": "spender",
          "type": "address"
        },
        {
          "internalType": "uint256",
          "name": "addedValue",
          "type": "uint256"
        }
      ],
      "name": "increaseAllowance",
      "outputs": [
        {
          "internalType": "bool",
          "name": "",
          "type": "bool"
        }
      ],
      "stateMutability": "nonpayable",
      "type": "function"
    },
    {
      "inputs": [
        {
          "internalType": "string",
          "name": "name",
          "type": "string"
        },
        {
          "internalType": "string",
          "name": "symbol",
          "type": "string"
        }
      ],
      "name": "initialize",
      "outputs": [],
      "stateMutability": "nonpayable",
      "type": "function"
    },
    {
      "inputs": [
        {
          "internalType": "address",
          "name": "token",
          "type": "address"
        },
        {
          "internalType": "uint256",
          "name": "tokenAmount",
          "type": "uint256"
        },
        {
          "internalType": "address",
          "name": "to",
          "type": "address"
        }
      ],
      "name": "mintForToken",
      "outputs": [
        {
          "internalType": "uint256",
          "name": "stableCoinAmount",
          "type": "uint256"
        }
      ],
      "stateMutability": "nonpayable",
      "type": "function"
    },
    {
      "inputs": [
        {
          "internalType": "uint256",
          "name": "amount",
          "type": "uint256"
        }
      ],
      "name": "mintRebalancer",
      "outputs": [],
      "stateMutability": "nonpayable",
      "type": "function"
    },
    {
      "inputs": [],
      "name": "name",
      "outputs": [
        {
          "internalType": "string",
          "name": "",
          "type": "string"
        }
      ],
      "stateMutability": "view",
      "type": "function"
    },
    {
      "inputs": [],
      "name": "rebalancer",
      "outputs": [
        {
          "internalType": "contract IUSSDRebalancer",
          "name": "",
          "type": "address"
        }
      ],
      "stateMutability": "view",
      "type": "function"
    },
    {
      "inputs": [
        {
          "internalType": "uint256",
          "name": "_index",
          "type": "uint256"
        }
      ],
      "name": "removeCollateral",
      "outputs": [],
      "stateMutability": "nonpayable",
      "type": "function"
    },
    {
      "inputs": [
        {
          "internalType": "bytes32",
          "name": "role",
          "type": "bytes32"
        },
        {
          "internalType": "address",
          "name": "account",
          "type": "address"
        }
      ],
      "name": "renounceRole",
      "outputs": [],
      "stateMutability": "nonpayable",
      "type": "function"
    },
    {
      "inputs": [
        {
          "internalType": "bytes32",
          "name": "role",
          "type": "bytes32"
        },
        {
          "internalType": "address",
          "name": "account",
          "type": "address"
        }
      ],
      "name": "revokeRole",
      "outputs": [],
      "stateMutability": "nonpayable",
      "type": "function"
    },
    {
      "inputs": [
        {
          "internalType": "address",
          "name": "_rebalancer",
          "type": "address"
        }
      ],
      "name": "setRebalancer",
      "outputs": [],
      "stateMutability": "nonpayable",
      "type": "function"
    },
    {
      "inputs": [
        {
          "internalType": "address",
          "name": "_router",
          "type": "address"
        }
      ],
      "name": "setUniswapRouter",
      "outputs": [],
      "stateMutability": "nonpayable",
      "type": "function"
    },
    {
      "inputs": [
        {
          "internalType": "bytes4",
          "name": "interfaceId",
          "type": "bytes4"
        }
      ],
      "name": "supportsInterface",
      "outputs": [
        {
          "internalType": "bool",
          "name": "",
          "type": "bool"
        }
      ],
      "stateMutability": "view",
      "type": "function"
    },
    {
      "inputs": [
        {
          "internalType": "uint256",
          "name": "_index1",
          "type": "uint256"
        },
        {
          "internalType": "uint256",
          "name": "_index2",
          "type": "uint256"
        }
      ],
      "name": "swapCollateralIndexes",
      "outputs": [],
      "stateMutability": "nonpayable",
      "type": "function"
    },
    {
      "inputs": [],
      "name": "symbol",
      "outputs": [
        {
          "internalType": "string",
          "name": "",
          "type": "string"
        }
      ],
      "stateMutability": "view",
      "type": "function"
    },
    {
      "inputs": [],
      "name": "totalSupply",
      "outputs": [
        {
          "internalType": "uint256",
          "name": "",
          "type": "uint256"
        }
      ],
      "stateMutability": "view",
      "type": "function"
    },
    {
      "inputs": [
        {
          "internalType": "address",
          "name": "to",
          "type": "address"
        },
        {
          "internalType": "uint256",
          "name": "amount",
          "type": "uint256"
        }
      ],
      "name": "transfer",
      "outputs": [
        {
          "internalType": "bool",
          "name": "",
          "type": "bool"
        }
      ],
      "stateMutability": "nonpayable",
      "type": "function"
    },
    {
      "inputs": [
        {
          "internalType": "address",
          "name": "from",
          "type": "address"
        },
        {
          "internalType": "address",
          "name": "to",
          "type": "address"
        },
        {
          "internalType": "uint256",
          "name": "amount",
          "type": "uint256"
        }
      ],
      "name": "transferFrom",
      "outputs": [
        {
          "internalType": "bool",
          "name": "",
          "type": "bool"
        }
      ],
      "stateMutability": "nonpayable",
      "type": "function"
    },
    {
      "inputs": [],
      "name": "uniRouter",
      "outputs": [
        {
          "internalType": "contract IV3SwapRouter",
          "name": "",
          "type": "address"
        }
      ],
      "stateMutability": "view",
      "type": "function"
    }
  ],
  "bytecode": {
    "object": "0x608060405234801561001057600080fd5b506132f3806100206000396000f3fe608060405234801561001057600080fd5b50600436106102275760003560e01c806370a0823111610130578063a217fddf116100b8578063c20b19371161007c578063c20b1937146104ca578063d3d107f6146104df578063d547741f146104f2578063dd62ed3e14610505578063df011c411461051857600080fd5b8063a217fddf14610476578063a457c2d71461047e578063a9059cbb14610491578063ab81b1b3146104a4578063bea9849e146104b757600080fd5b806391d14854116100ff57806391d148541461042257806392a32b241461043557806395d89b4114610448578063a0e47bf614610450578063a0ee56dd1461046357600080fd5b806370a08231146103be57806380250341146103e7578063806cc46f146103fc5780638b3415b51461040f57600080fd5b8063313ce567116101b35780634cd88b76116101825780634cd88b761461035f5780635c3ed7c3146103725780636658fe9b146103855780636c937374146103985780636cfd1553146103ab57600080fd5b8063313ce567146103175780633237c1581461032657806336568abe14610339578063395093511461034c57600080fd5b806318160ddd116101fa57806318160ddd146102a75780631c16f373146102b957806323b872dd146102ce578063248a9ca3146102e15780632f2ff15d1461030457600080fd5b806301d22ccd1461022c57806301ffc9a71461025c57806306fdde031461027f578063095ea7b314610294575b600080fd5b60c95461023f906001600160a01b031681565b6040516001600160a01b0390911681526020015b60405180910390f35b61026f61026a36600461275c565b610520565b6040519015158152602001610253565b610287610557565b60405161025391906127de565b61026f6102a2366004612808565b6105e9565b6035545b604051908152602001610253565b6102cc6102c7366004612832565b610601565b005b61026f6102dc36600461284b565b61060e565b6102ab6102ef366004612832565b60009081526097602052604090206001015490565b6102cc610312366004612887565b610632565b60405160068152602001610253565b6102cc610334366004612832565b61065c565b6102cc610347366004612887565b61081b565b61026f61035a366004612808565b610899565b6102cc61036d366004612956565b6108bb565b6102ab6103803660046129ba565b6109f9565b61026f6103933660046129ba565b610a5e565b6102cc6103a63660046129ba565b610b03565b6102cc6103b93660046129ba565b610b7b565b6102ab6103cc3660046129ba565b6001600160a01b031660009081526033602052604090205490565b6103ef610bd1565b6040516102539190612a10565b6102cc61040a366004612af8565b610df9565b6102cc61041d366004612832565b6111ff565b61026f610430366004612887565b611209565b6102cc610443366004612b1a565b611234565b61028761130c565b60cb5461023f906001600160a01b031681565b6102cc610471366004612bc4565b61131b565b6102ab600081565b61026f61048c366004612808565b6115e3565b61026f61049f366004612808565b61165e565b6102ab6104b2366004612808565b61166c565b6102cc6104c53660046129ba565b6117b8565b6102ab60008051602061329e83398151915281565b6102ab6104ed366004612c9e565b61180e565b6102cc610500366004612887565b6118dc565b6102ab610513366004612cda565b611901565b6102ab61192c565b60006001600160e01b03198216637965db0b60e01b148061055157506301ffc9a760e01b6001600160e01b03198316145b92915050565b60606036805461056690612d04565b80601f016020809104026020016040519081016040528092919081815260200182805461059290612d04565b80156105df5780601f106105b4576101008083540402835291602001916105df565b820191906000526020600020905b8154815290600101906020018083116105c257829003601f168201915b5050505050905090565b6000336105f7818585611b62565b5060019392505050565b61060b3082611c86565b50565b60003361061c858285611dba565b610627858585611e2e565b506001949350505050565b60008281526097602052604090206001015461064d81611fd9565b6106578383611fe3565b505050565b61067460008051602061329e83398151915233611209565b6106995760405162461bcd60e51b815260040161069090612d3e565b60405180910390fd5b60ca80546106a990600190612d7a565b815481106106b9576106b9612d91565b906000526020600020906005020160ca82815481106106da576106da612d91565b60009182526020909120825460059092020180546001600160a01b039283166001600160a01b03198083168217845585546001600160a81b0319909316909117600160a01b9283900460ff908116151590930217808455855460ff60a81b19909116600160a81b9182900490931615150291909117825560018085015490830180549190941691161790915560028082019061077890840182612ded565b5060038181019061078b90840182612ded565b50600482810180546107a09284019190612664565b5090505060ca8054806107b5576107b5612ece565b60008281526020812060056000199093019283020180546001600160b01b03191681556001810180546001600160a01b0319169055906107f860028301826126b4565b6108066003830160006126b4565b6108146004830160006126ee565b5050905550565b6001600160a01b038116331461088b5760405162461bcd60e51b815260206004820152602f60248201527f416363657373436f6e74726f6c3a2063616e206f6e6c792072656e6f756e636560448201526e103937b632b9903337b91039b2b63360891b6064820152608401610690565b6108958282612069565b5050565b6000336105f78185856108ac8383611901565b6108b69190612ee4565b611b62565b600054610100900460ff16158080156108db5750600054600160ff909116105b806108f55750303b1580156108f5575060005460ff166001145b6109585760405162461bcd60e51b815260206004820152602e60248201527f496e697469616c697a61626c653a20636f6e747261637420697320616c72656160448201526d191e481a5b9a5d1a585b1a5e995960921b6064820152608401610690565b6000805460ff19166001179055801561097b576000805461ff0019166101001790555b6109836120d0565b61098b6120d0565b61099583836120f9565b6109a0600033612139565b6109af336402540be400612143565b8015610657576000805461ff0019169055604051600181527f7f26b83ff96e1f2b6a682f133852f6798a09c465da95921460cefb38474024989060200160405180910390a1505050565b60005b60ca54811015610a5957816001600160a01b031660ca8281548110610a2357610a23612d91565b60009182526020909120600590910201546001600160a01b031603610a4757919050565b80610a5181612efc565b9150506109fc565b919050565b6000805b60ca54811015610afa57826001600160a01b031660ca8281548110610a8957610a89612d91565b60009182526020909120600590910201546001600160a01b0316148015610ada575060ca8181548110610abe57610abe612d91565b6000918252602090912060059091020154600160a01b900460ff165b15610ae85750600192915050565b80610af281612efc565b915050610a62565b50600092915050565b60cb5460405163095ea7b360e01b81526001600160a01b03918216600482015260001960248201529082169063095ea7b3906044016020604051808303816000875af1158015610b57573d6000803e3d6000fd5b505050506040513d601f19601f820116820180604052508101906108959190612f15565b610b9360008051602061329e83398151915233611209565b610baf5760405162461bcd60e51b815260040161069090612d3e565b60c980546001600160a01b0319166001600160a01b0392909216919091179055565b606060ca805480602002602001604051908101604052809291908181526020016000905b82821015610df05760008481526020908190206040805160e0810182526005860290920180546001600160a01b03808216855260ff600160a01b83048116151596860196909652600160a81b90910490941615159183019190915260018101549092166060820152600282018054919291608084019190610c7590612d04565b80601f0160208091040260200160405190810160405280929190818152602001828054610ca190612d04565b8015610cee5780601f10610cc357610100808354040283529160200191610cee565b820191906000526020600020905b815481529060010190602001808311610cd157829003601f168201915b50505050508152602001600382018054610d0790612d04565b80601f0160208091040260200160405190810160405280929190818152602001828054610d3390612d04565b8015610d805780601f10610d5557610100808354040283529160200191610d80565b820191906000526020600020905b815481529060010190602001808311610d6357829003601f168201915b5050505050815260200160048201805480602002602001604051908101604052809291908181526020018280548015610dd857602002820191906000526020600020905b815481526020019060010190808311610dc4575b50505050508152505081526020019060010190610bf5565b50505050905090565b610e1160008051602061329e83398151915233611209565b610e2d5760405162461bcd60e51b815260040161069090612d3e565b600060ca8381548110610e4257610e42612d91565b60009182526020918290206040805160e081018252600590930290910180546001600160a01b03808216855260ff600160a01b83048116151596860196909652600160a81b90910490941615159183019190915260018101549092166060820152600282018054919291608084019190610ebb90612d04565b80601f0160208091040260200160405190810160405280929190818152602001828054610ee790612d04565b8015610f345780601f10610f0957610100808354040283529160200191610f34565b820191906000526020600020905b815481529060010190602001808311610f1757829003601f168201915b50505050508152602001600382018054610f4d90612d04565b80601f0160208091040260200160405190810160405280929190818152602001828054610f7990612d04565b8015610fc65780601f10610f9b57610100808354040283529160200191610fc6565b820191906000526020600020905b815481529060010190602001808311610fa957829003601f168201915b505050505081526020016004820180548060200260200160405190810160405280929190818152602001828054801561101e57602002820191906000526020600020905b81548152602001906001019080831161100a575b505050505081525050905060ca828154811061103c5761103c612d91565b906000526020600020906005020160ca848154811061105d5761105d612d91565b60009182526020909120825460059092020180546001600160a01b039283166001600160a01b03198083168217845585546001600160a81b0319909316909117600160a01b9283900460ff908116151590930217808455855460ff60a81b19909116600160a81b918290049093161515029190911782556001808501549083018054919094169116179091556002808201906110fb90840182612ded565b5060038181019061110e90840182612ded565b50600482810180546111239284019190612664565b509050508060ca838154811061113b5761113b612d91565b6000918252602091829020835160059092020180549284015160408501511515600160a81b0260ff60a81b19911515600160a01b026001600160a81b03199095166001600160a01b039485161794909417169290921782556060830151600183018054919092166001600160a01b031991909116179055608082015160028201906111c69082612f32565b5060a082015160038201906111db9082612f32565b5060c082015180516111f791600484019160209091019061270c565b505050505050565b61060b3082612143565b60009182526097602090815260408084206001600160a01b0393909316845291905290205460ff1690565b60c9546001600160a01b031633146112745760405162461bcd60e51b815260206004820152600360248201526218985b60ea1b6044820152606401610690565b604080516080810182528381523060208201528082018390526000606082015260cb54915163b858183f60e01b815290916001600160a01b03169063b858183f906112c3908490600401612fec565b6020604051808303816000875af11580156112e2573d6000803e3d6000fd5b505050506040513d601f19601f82011682018060405250810190611306919061303a565b50505050565b60606037805461056690612d04565b61133360008051602061329e83398151915233611209565b61134f5760405162461bcd60e51b815260040161069090612d3e565b60006040518060e001604052808b6001600160a01b03168152602001891515815260200188151581526020018a6001600160a01b03168152602001858152602001848152602001878780806020026020016040519081016040528093929190818152602001838360200280828437600092019190915250505091525060ca549091508210156114b1578060ca83815481106113ec576113ec612d91565b6000918252602091829020835160059092020180549284015160408501511515600160a81b0260ff60a81b19911515600160a01b026001600160a81b03199095166001600160a01b039485161794909417169290921782556060830151600183018054919092166001600160a01b031991909116179055608082015160028201906114779082612f32565b5060a0820151600382019061148c9082612f32565b5060c082015180516114a891600484019160209091019061270c565b509050506115d7565b60ca8054600181018255600091909152815160059091027f42d72674974f694b5f5159593243114d38a5c39c89d6b62fee061ff523240ee181018054602085015160408601511515600160a81b0260ff60a81b19911515600160a01b026001600160a81b03199093166001600160a01b0396871617929092171617815560608401517f42d72674974f694b5f5159593243114d38a5c39c89d6b62fee061ff523240ee283018054919094166001600160a01b0319919091161790925560808301518392917f42d72674974f694b5f5159593243114d38a5c39c89d6b62fee061ff523240ee301906115a29082612f32565b5060a082015160038201906115b79082612f32565b5060c082015180516115d391600484019160209091019061270c565b5050505b50505050505050505050565b600033816115f18286611901565b9050838110156116515760405162461bcd60e51b815260206004820152602560248201527f45524332303a2064656372656173656420616c6c6f77616e63652062656c6f77604482015264207a65726f60d81b6064820152608401610690565b6106278286868403611b62565b6000336105f7818585611e2e565b60008060ca61167a856109f9565b8154811061168a5761168a612d91565b60009182526020918290206001600590920201015460408051632bd4abcf60e11b815290516001600160a01b03909216926357a9579e926004808401938290030181865afa1580156116e0573d6000803e3d6000fd5b505050506040513d601f19601f82011682018060405250810190611704919061303a565b9050836001600160a01b031663313ce5676040518163ffffffff1660e01b8152600401602060405180830381865afa158015611744573d6000803e3d6000fd5b505050506040513d601f19601f820116820180604052508101906117689190613053565b61177390600a61315a565b61177f6006600a61315a565b670de0b6b3a76400006117928685613169565b61179c9190613188565b6117a69190613169565b6117b09190613188565b949350505050565b6117d060008051602061329e83398151915233611209565b6117ec5760405162461bcd60e51b815260040161069090612d3e565b60cb80546001600160a01b0319166001600160a01b0392909216919091179055565b600061181984610a5e565b6118595760405162461bcd60e51b81526020600482015260116024820152703ab739bab83837b93a32b2103a37b5b2b760791b6044820152606401610690565b61186e6001600160a01b038516333086612204565b611878848461166c565b90506118848282612143565b604080516001600160a01b038681168252602082018690529181018390529083169033907fc0025304673122449dd60b9b0093874b0e2fd6fe57af1c7c2fbfee0ccf5ead589060600160405180910390a39392505050565b6000828152609760205260409020600101546118f781611fd9565b6106578383612069565b6001600160a01b03918216600090815260346020908152604080832093909416825291909152205490565b600080805b60ca54811015611b4157670de0b6b3a764000060ca828154811061195757611957612d91565b60009182526020918290206001600590920201015460408051632bd4abcf60e11b815290516001600160a01b03909216926357a9579e926004808401938290030181865afa1580156119ad573d6000803e3d6000fd5b505050506040513d601f19601f820116820180604052508101906119d1919061303a565b60ca83815481106119e4576119e4612d91565b6000918252602091829020600590910201546040805163313ce56760e01b815290516001600160a01b039092169263313ce567926004808401938290030181865afa158015611a37573d6000803e3d6000fd5b505050506040513d601f19601f82011682018060405250810190611a5b9190613053565b611a6690600a61315a565b60ca8481548110611a7957611a79612d91565b60009182526020909120600590910201546040516370a0823160e01b81523060048201526001600160a01b03909116906370a0823190602401602060405180830381865afa158015611acf573d6000803e3d6000fd5b505050506040513d601f19601f82011682018060405250810190611af3919061303a565b611b0590670de0b6b3a7640000613169565b611b0f9190613188565b611b199190613169565b611b239190613188565b611b2d9083612ee4565b915080611b3981612efc565b915050611931565b50603554611b5282620f4240613169565b611b5c9190613188565b91505090565b6001600160a01b038316611bc45760405162461bcd60e51b8152602060048201526024808201527f45524332303a20617070726f76652066726f6d20746865207a65726f206164646044820152637265737360e01b6064820152608401610690565b6001600160a01b038216611c255760405162461bcd60e51b815260206004820152602260248201527f45524332303a20617070726f766520746f20746865207a65726f206164647265604482015261737360f01b6064820152608401610690565b6001600160a01b0383811660008181526034602090815260408083209487168084529482529182902085905590518481527f8c5be1e5ebec7d5bd14f71427d1e84f3dd0314c0f7b2291e5b200ac8c7c3b925910160405180910390a3505050565b6001600160a01b038216611ce65760405162461bcd60e51b815260206004820152602160248201527f45524332303a206275726e2066726f6d20746865207a65726f206164647265736044820152607360f81b6064820152608401610690565b6001600160a01b03821660009081526033602052604090205481811015611d5a5760405162461bcd60e51b815260206004820152602260248201527f45524332303a206275726e20616d6f756e7420657863656564732062616c616e604482015261636560f01b6064820152608401610690565b6001600160a01b03831660008181526033602090815260408083208686039055603580548790039055518581529192917fddf252ad1be2c89b69c2b068fc378daa952ba7f163c4a11628f55a4df523b3ef910160405180910390a3505050565b6000611dc68484611901565b905060001981146113065781811015611e215760405162461bcd60e51b815260206004820152601d60248201527f45524332303a20696e73756666696369656e7420616c6c6f77616e63650000006044820152606401610690565b6113068484848403611b62565b6001600160a01b038316611e925760405162461bcd60e51b815260206004820152602560248201527f45524332303a207472616e736665722066726f6d20746865207a65726f206164604482015264647265737360d81b6064820152608401610690565b6001600160a01b038216611ef45760405162461bcd60e51b815260206004820152602360248201527f45524332303a207472616e7366657220746f20746865207a65726f206164647260448201526265737360e81b6064820152608401610690565b6001600160a01b03831660009081526033602052604090205481811015611f6c5760405162461bcd60e51b815260206004820152602660248201527f45524332303a207472616e7366657220616d6f756e7420657863656564732062604482015265616c616e636560d01b6064820152608401610690565b6001600160a01b0380851660008181526033602052604080822086860390559286168082529083902080548601905591517fddf252ad1be2c89b69c2b068fc378daa952ba7f163c4a11628f55a4df523b3ef90611fcc9086815260200190565b60405180910390a3611306565b61060b813361225e565b611fed8282611209565b6108955760008281526097602090815260408083206001600160a01b03851684529091529020805460ff191660011790556120253390565b6001600160a01b0316816001600160a01b0316837f2f8788117e7eff1d82e926ec794901d17c78024a50270940304540a733656f0d60405160405180910390a45050565b6120738282611209565b156108955760008281526097602090815260408083206001600160a01b0385168085529252808320805460ff1916905551339285917ff6391f5c32d9c69d2a47ea670b442974b53935d1edc7fd64eb21e047a839171b9190a45050565b600054610100900460ff166120f75760405162461bcd60e51b8152600401610690906131aa565b565b600054610100900460ff166121205760405162461bcd60e51b8152600401610690906131aa565b603661212c8382612f32565b5060376106578282612f32565b6108958282611fe3565b6001600160a01b0382166121995760405162461bcd60e51b815260206004820152601f60248201527f45524332303a206d696e7420746f20746865207a65726f2061646472657373006044820152606401610690565b80603560008282546121ab9190612ee4565b90915550506001600160a01b0382166000818152603360209081526040808320805486019055518481527fddf252ad1be2c89b69c2b068fc378daa952ba7f163c4a11628f55a4df523b3ef910160405180910390a35050565b604080516001600160a01b0385811660248301528416604482015260648082018490528251808303909101815260849091019091526020810180516001600160e01b03166323b872dd60e01b1790526113069085906122b7565b6122688282611209565b610895576122758161238c565b61228083602061239e565b6040516020016122919291906131f5565b60408051601f198184030181529082905262461bcd60e51b8252610690916004016127de565b600061230c826040518060400160405280602081526020017f5361666545524332303a206c6f772d6c6576656c2063616c6c206661696c6564815250856001600160a01b03166125419092919063ffffffff16565b905080516000148061232d57508080602001905181019061232d9190612f15565b6106575760405162461bcd60e51b815260206004820152602a60248201527f5361666545524332303a204552433230206f7065726174696f6e20646964206e6044820152691bdd081cdd58d8d9595960b21b6064820152608401610690565b60606105516001600160a01b03831660145b606060006123ad836002613169565b6123b8906002612ee4565b67ffffffffffffffff8111156123d0576123d06128b3565b6040519080825280601f01601f1916602001820160405280156123fa576020820181803683370190505b509050600360fc1b8160008151811061241557612415612d91565b60200101906001600160f81b031916908160001a905350600f60fb1b8160018151811061244457612444612d91565b60200101906001600160f81b031916908160001a9053506000612468846002613169565b612473906001612ee4565b90505b60018111156124eb576f181899199a1a9b1b9c1cb0b131b232b360811b85600f16601081106124a7576124a7612d91565b1a60f81b8282815181106124bd576124bd612d91565b60200101906001600160f81b031916908160001a90535060049490941c936124e48161326a565b9050612476565b50831561253a5760405162461bcd60e51b815260206004820181905260248201527f537472696e67733a20686578206c656e67746820696e73756666696369656e746044820152606401610690565b9392505050565b60606117b0848460008585600080866001600160a01b031685876040516125689190613281565b60006040518083038185875af1925050503d80600081146125a5576040519150601f19603f3d011682016040523d82523d6000602084013e6125aa565b606091505b50915091506125bb878383876125c6565b979650505050505050565b6060831561263557825160000361262e576001600160a01b0385163b61262e5760405162461bcd60e51b815260206004820152601d60248201527f416464726573733a2063616c6c20746f206e6f6e2d636f6e74726163740000006044820152606401610690565b50816117b0565b6117b0838381511561264a5781518083602001fd5b8060405162461bcd60e51b815260040161069091906127de565b8280548282559060005260206000209081019282156126a45760005260206000209182015b828111156126a4578254825591600101919060010190612689565b506126b0929150612747565b5090565b5080546126c090612d04565b6000825580601f106126d0575050565b601f01602090049060005260206000209081019061060b9190612747565b508054600082559060005260206000209081019061060b9190612747565b8280548282559060005260206000209081019282156126a4579160200282015b828111156126a457825182559160200191906001019061272c565b5b808211156126b05760008155600101612748565b60006020828403121561276e57600080fd5b81356001600160e01b03198116811461253a57600080fd5b60005b838110156127a1578181015183820152602001612789565b838111156113065750506000910152565b600081518084526127ca816020860160208601612786565b601f01601f19169290920160200192915050565b60208152600061253a60208301846127b2565b80356001600160a01b0381168114610a5957600080fd5b6000806040838503121561281b57600080fd5b612824836127f1565b946020939093013593505050565b60006020828403121561284457600080fd5b5035919050565b60008060006060848603121561286057600080fd5b612869846127f1565b9250612877602085016127f1565b9150604084013590509250925092565b6000806040838503121561289a57600080fd5b823591506128aa602084016127f1565b90509250929050565b634e487b7160e01b600052604160045260246000fd5b600082601f8301126128da57600080fd5b813567ffffffffffffffff808211156128f5576128f56128b3565b604051601f8301601f19908116603f0116810190828211818310171561291d5761291d6128b3565b8160405283815286602085880101111561293657600080fd5b836020870160208301376000602085830101528094505050505092915050565b6000806040838503121561296957600080fd5b823567ffffffffffffffff8082111561298157600080fd5b61298d868387016128c9565b935060208501359150808211156129a357600080fd5b506129b0858286016128c9565b9150509250929050565b6000602082840312156129cc57600080fd5b61253a826127f1565b600081518084526020808501945080840160005b83811015612a05578151875295820195908201906001016129e9565b509495945050505050565b60006020808301818452808551808352604092508286019150828160051b87010184880160005b83811015612aea57603f19898403018552815180516001600160a01b0316845287810151151588850152868101518015158886015260e090506060828101516001600160a01b0381168783015250506080808301518282880152612a9d838801826127b2565b9250505060a08083015186830382880152612ab883826127b2565b9250505060c08083015192508582038187015250612ad681836129d5565b968901969450505090860190600101612a37565b509098975050505050505050565b60008060408385031215612b0b57600080fd5b50508035926020909101359150565b60008060408385031215612b2d57600080fd5b823567ffffffffffffffff811115612b4457600080fd5b612b50858286016128c9565b95602094909401359450505050565b801515811461060b57600080fd5b8035610a5981612b5f565b60008083601f840112612b8a57600080fd5b50813567ffffffffffffffff811115612ba257600080fd5b6020830191508360208260051b8501011115612bbd57600080fd5b9250929050565b60008060008060008060008060006101008a8c031215612be357600080fd5b612bec8a6127f1565b9850612bfa60208b016127f1565b9750612c0860408b01612b6d565b9650612c1660608b01612b6d565b955060808a013567ffffffffffffffff80821115612c3357600080fd5b612c3f8d838e01612b78565b909750955060a08c0135915080821115612c5857600080fd5b612c648d838e016128c9565b945060c08c0135915080821115612c7a57600080fd5b50612c878c828d016128c9565b92505060e08a013590509295985092959850929598565b600080600060608486031215612cb357600080fd5b612cbc846127f1565b925060208401359150612cd1604085016127f1565b90509250925092565b60008060408385031215612ced57600080fd5b612cf6836127f1565b91506128aa602084016127f1565b600181811c90821680612d1857607f821691505b602082108103612d3857634e487b7160e01b600052602260045260246000fd5b50919050565b6020808252600c908201526b636f6e74726f6c206f6e6c7960a01b604082015260600190565b634e487b7160e01b600052601160045260246000fd5b600082821015612d8c57612d8c612d64565b500390565b634e487b7160e01b600052603260045260246000fd5b601f82111561065757600081815260208120601f850160051c81016020861015612dce5750805b601f850160051c820191505b818110156111f757828155600101612dda565b818103612df8575050565b612e028254612d04565b67ffffffffffffffff811115612e1a57612e1a6128b3565b612e2e81612e288454612d04565b84612da7565b6000601f821160018114612e625760008315612e4a5750848201545b600019600385901b1c1916600184901b178455612ec7565b600085815260209020601f19841690600086815260209020845b83811015612e9c5782860154825560019586019590910190602001612e7c565b5085831015612eba5781850154600019600388901b60f8161c191681555b50505060018360011b0184555b5050505050565b634e487b7160e01b600052603160045260246000fd5b60008219821115612ef757612ef7612d64565b500190565b600060018201612f0e57612f0e612d64565b5060010190565b600060208284031215612f2757600080fd5b815161253a81612b5f565b815167ffffffffffffffff811115612f4c57612f4c6128b3565b612f5a81612e288454612d04565b602080601f831160018114612f8f5760008415612f775750858301515b600019600386901b1c1916600185901b1785556111f7565b600085815260208120601f198616915b82811015612fbe57888601518255948401946001909101908401612f9f565b5085821015612fdc5787850151600019600388901b60f8161c191681555b5050505050600190811b01905550565b60208152600082516080602084015261300860a08401826127b2565b905060018060a01b03602085015116604084015260408401516060840152606084015160808401528091505092915050565b60006020828403121561304c57600080fd5b5051919050565b60006020828403121561306557600080fd5b815160ff8116811461253a57600080fd5b600181815b808511156130b157816000190482111561309757613097612d64565b808516156130a457918102915b93841c939080029061307b565b509250929050565b6000826130c857506001610551565b816130d557506000610551565b81600181146130eb57600281146130f557613111565b6001915050610551565b60ff84111561310657613106612d64565b50506001821b610551565b5060208310610133831016604e8410600b8410161715613134575081810a610551565b61313e8383613076565b806000190482111561315257613152612d64565b029392505050565b600061253a60ff8416836130b9565b600081600019048311821515161561318357613183612d64565b500290565b6000826131a557634e487b7160e01b600052601260045260246000fd5b500490565b6020808252602b908201527f496e697469616c697a61626c653a20636f6e7472616374206973206e6f74206960408201526a6e697469616c697a696e6760a81b606082015260800190565b7f416363657373436f6e74726f6c3a206163636f756e742000000000000000000081526000835161322d816017850160208801612786565b7001034b99036b4b9b9b4b733903937b6329607d1b601791840191820152835161325e816028840160208801612786565b01602801949350505050565b60008161327957613279612d64565b506000190190565b60008251613293818460208701612786565b919091019291505056fe478e190950eea9a6d97fe4150463cb11a0076cc417c4b49f2ad9dd1b4d1a4ae1a264697066735822122090068e07aec18aa7f466aed91c53c5caecec8997aa9f706e68b18ca1ce70c2ef64736f6c634300080f0033",
    "linkReferences": {}
  },
  "methodIdentifiers": {
    "DEFAULT_ADMIN_ROLE()": "a217fddf",
    "STABLE_CONTROL_ROLE()": "c20b1937",
    "UniV3SwapInput(bytes,uint256)": "92a32b24",
    "addCollateral(address,address,bool,bool,uint256[],bytes,bytes,uint256)": "a0ee56dd",
    "allowance(address,address)": "dd62ed3e",
    "approve(address,uint256)": "095ea7b3",
    "approveToRouter(address)": "6c937374",
    "balanceOf(address)": "70a08231",
    "burnRebalancer(uint256)": "1c16f373",
    "calculateMint(address,uint256)": "ab81b1b3",
    "collateralFactor()": "df011c41",
    "collateralList()": "80250341",
    "decimals()": "313ce567",
    "decreaseAllowance(address,uint256)": "a457c2d7",
    "getCollateralIndex(address)": "5c3ed7c3",
    "getRoleAdmin(bytes32)": "248a9ca3",
    "grantRole(bytes32,address)": "2f2ff15d",
    "hasCollateralMint(address)": "6658fe9b",
    "hasRole(bytes32,address)": "91d14854",
    "increaseAllowance(address,uint256)": "39509351",
    "initialize(string,string)": "4cd88b76",
    "mintForToken(address,uint256,address)": "d3d107f6",
    "mintRebalancer(uint256)": "8b3415b5",
    "name()": "06fdde03",
    "rebalancer()": "01d22ccd",
    "removeCollateral(uint256)": "3237c158",
    "renounceRole(bytes32,address)": "36568abe",
    "revokeRole(bytes32,address)": "d547741f",
    "setRebalancer(address)": "6cfd1553",
    "setUniswapRouter(address)": "bea9849e",
    "supportsInterface(bytes4)": "01ffc9a7",
    "swapCollateralIndexes(uint256,uint256)": "806cc46f",
    "symbol()": "95d89b41",
    "totalSupply()": "18160ddd",
    "transfer(address,uint256)": "a9059cbb",
    "transferFrom(address,address,uint256)": "23b872dd",
    "uniRouter()": "a0e47bf6"
  },
  "id": 96
}