{"abi":[{"type":"constructor","inputs":[{"name":"decimals_","type":"uint256","internalType":"uint256"},{"name":"_authRegistryAddress","type":"address","internalType":"address"}],"stateMutability":"nonpayable"},{"type":"function","name":"allowance","inputs":[{"name":"owner","type":"address","internalType":"address"},{"name":"spender","type":"address","internalType":"address"}],"outputs":[{"name":"","type":"uint256","internalType":"uint256"}],"stateMutability":"view"},{"type":"function","name":"approve","inputs":[{"name":"spender","type":"address","internalType":"address"},{"name":"value","type":"uint256","internalType":"uint256"}],"outputs":[{"name":"","type":"bool","internalType":"bool"}],"stateMutability":"nonpayable"},{"type":"function","name":"balanceOf","inputs":[{"name":"account","type":"address","internalType":"address"}],"outputs":[{"name":"","type":"uint256","internalType":"uint256"}],"stateMutability":"view"},{"type":"function","name":"decimals","inputs":[],"outputs":[{"name":"","type":"uint8","internalType":"uint8"}],"stateMutability":"view"},{"type":"function","name":"mint","inputs":[{"name":"to","type":"address","internalType":"address"},{"name":"amount","type":"uint256","internalType":"uint256"}],"outputs":[],"stateMutability":"nonpayable"},{"type":"function","name":"mintWithAuth","inputs":[{"name":"to","type":"address","internalType":"address"},{"name":"amount","type":"uint256","internalType":"uint256"}],"outputs":[],"stateMutability":"nonpayable"},{"type":"function","name":"name","inputs":[],"outputs":[{"name":"","type":"string","internalType":"string"}],"stateMutability":"view"},{"type":"function","name":"symbol","inputs":[],"outputs":[{"name":"","type":"string","internalType":"string"}],"stateMutability":"view"},{"type":"function","name":"totalSupply","inputs":[],"outputs":[{"name":"","type":"uint256","internalType":"uint256"}],"stateMutability":"view"},{"type":"function","name":"transfer","inputs":[{"name":"to","type":"address","internalType":"address"},{"name":"value","type":"uint256","internalType":"uint256"}],"outputs":[{"name":"","type":"bool","internalType":"bool"}],"stateMutability":"nonpayable"},{"type":"function","name":"transferFrom","inputs":[{"name":"from","type":"address","internalType":"address"},{"name":"to","type":"address","internalType":"address"},{"name":"value","type":"uint256","internalType":"uint256"}],"outputs":[{"name":"","type":"bool","internalType":"bool"}],"stateMutability":"nonpayable"},{"type":"event","name":"Approval","inputs":[{"name":"owner","type":"address","indexed":true,"internalType":"address"},{"name":"spender","type":"address","indexed":true,"internalType":"address"},{"name":"value","type":"uint256","indexed":false,"internalType":"uint256"}],"anonymous":false},{"type":"event","name":"Transfer","inputs":[{"name":"from","type":"address","indexed":true,"internalType":"address"},{"name":"to","type":"address","indexed":true,"internalType":"address"},{"name":"value","type":"uint256","indexed":false,"internalType":"uint256"}],"anonymous":false},{"type":"error","name":"ERC20InsufficientAllowance","inputs":[{"name":"spender","type":"address","internalType":"address"},{"name":"allowance","type":"uint256","internalType":"uint256"},{"name":"needed","type":"uint256","internalType":"uint256"}]},{"type":"error","name":"ERC20InsufficientBalance","inputs":[{"name":"sender","type":"address","internalType":"address"},{"name":"balance","type":"uint256","internalType":"uint256"},{"name":"needed","type":"uint256","internalType":"uint256"}]},{"type":"error","name":"ERC20InvalidApprover","inputs":[{"name":"approver","type":"address","internalType":"address"}]},{"type":"error","name":"ERC20InvalidReceiver","inputs":[{"name":"receiver","type":"address","internalType":"address"}]},{"type":"error","name":"ERC20InvalidSender","inputs":[{"name":"sender","type":"address","internalType":"address"}]},{"type":"error","name":"ERC20InvalidSpender","inputs":[{"name":"spender","type":"address","internalType":"address"}]},{"type":"error","name":"UnauthorizedCaller","inputs":[]}],"bytecode":{"object":"0x60a06040523480156200001157600080fd5b5060405162000e1738038062000e1783398101604081905262000034916200025d565b806040518060400160405280600981526020016804d6f636b45524332360bc1b815250604051806040016040528060048152602001634d4f434b60e01b815250816003908162000085919062000343565b50600462000094828262000343565b5050506001600160a01b03166080526005805460ff191660ff84161790556000620000c183600a62000524565b620000d190633b9aca0062000539565b9050620000df3382620000e8565b50505062000569565b6001600160a01b038216620001185760405163ec442f0560e01b8152600060048201526024015b60405180910390fd5b62000126600083836200012a565b5050565b6001600160a01b038316620001595780600260008282546200014d919062000553565b90915550620001cd9050565b6001600160a01b03831660009081526020819052604090205481811015620001ae5760405163391434e360e21b81526001600160a01b038516600482015260248101829052604481018390526064016200010f565b6001600160a01b03841660009081526020819052604090209082900390555b6001600160a01b038216620001eb576002805482900390556200020a565b6001600160a01b03821660009081526020819052604090208054820190555b816001600160a01b0316836001600160a01b03167fddf252ad1be2c89b69c2b068fc378daa952ba7f163c4a11628f55a4df523b3ef836040516200025091815260200190565b60405180910390a3505050565b600080604083850312156200027157600080fd5b825160208401519092506001600160a01b03811681146200029157600080fd5b809150509250929050565b634e487b7160e01b600052604160045260246000fd5b600181811c90821680620002c757607f821691505b602082108103620002e857634e487b7160e01b600052602260045260246000fd5b50919050565b601f8211156200033e576000816000526020600020601f850160051c81016020861015620003195750805b601f850160051c820191505b818110156200033a5782815560010162000325565b5050505b505050565b81516001600160401b038111156200035f576200035f6200029c565b6200037781620003708454620002b2565b84620002ee565b602080601f831160018114620003af5760008415620003965750858301515b600019600386901b1c1916600185901b1785556200033a565b600085815260208120601f198616915b82811015620003e057888601518255948401946001909101908401620003bf565b5085821015620003ff5787850151600019600388901b60f8161c191681555b5050505050600190811b01905550565b634e487b7160e01b600052601160045260246000fd5b600181815b80851115620004665781600019048211156200044a576200044a6200040f565b808516156200045857918102915b93841c93908002906200042a565b509250929050565b6000826200047f575060016200051e565b816200048e575060006200051e565b8160018114620004a75760028114620004b257620004d2565b60019150506200051e565b60ff841115620004c657620004c66200040f565b50506001821b6200051e565b5060208310610133831016604e8410600b8410161715620004f7575081810a6200051e565b62000503838362000425565b80600019048211156200051a576200051a6200040f565b0290505b92915050565b60006200053283836200046e565b9392505050565b80820281158282048414176200051e576200051e6200040f565b808201808211156200051e576200051e6200040f565b6080516108926200058560003960006102f601526108926000f3fe608060405234801561001057600080fd5b50600436106100a95760003560e01c806340c10f191161007157806340c10f191461012957806370a082311461013e57806395d89b4114610167578063a9059cbb1461016f578063d9aaf7cb14610182578063dd62ed3e1461019557600080fd5b806306fdde03146100ae578063095ea7b3146100cc57806318160ddd146100ef57806323b872dd14610101578063313ce56714610114575b600080fd5b6100b66101ce565b6040516100c391906106b9565b60405180910390f35b6100df6100da366004610724565b610260565b60405190151581526020016100c3565b6002545b6040519081526020016100c3565b6100df61010f36600461074e565b61027a565b60055460405160ff90911681526020016100c3565b61013c610137366004610724565b61029e565b005b6100f361014c36600461078a565b6001600160a01b031660009081526020819052604090205490565b6100b66102ac565b6100df61017d366004610724565b6102bb565b61013c610190366004610724565b6102c9565b6100f36101a33660046107ac565b6001600160a01b03918216600090815260016020908152604080832093909416825291909152205490565b6060600380546101dd906107df565b80601f0160208091040260200160405190810160405280929190818152602001828054610209906107df565b80156102565780601f1061022b57610100808354040283529160200191610256565b820191906000526020600020905b81548152906001019060200180831161023957829003601f168201915b5050505050905090565b60003361026e818585610390565b60019150505b92915050565b6000336102888582856103a2565b610293858585610425565b506001949350505050565b6102a88282610484565b5050565b6060600480546101dd906107df565b60003361026e818585610425565b604051637af97f4960e11b81523060048201526000356001600160e01b03191660248201523360448201527f00000000000000000000000000000000000000000000000000000000000000006001600160a01b03169063f5f2fe9290606401602060405180830381865afa158015610345573d6000803e3d6000fd5b505050506040513d601f19601f820116820180604052508101906103699190610819565b61038657604051635c427cd960e01b815260040160405180910390fd5b6102a8828261029e565b61039d83838360016104ba565b505050565b6001600160a01b03838116600090815260016020908152604080832093861683529290522054600019811461041f578181101561041057604051637dc7a0d960e11b81526001600160a01b038416600482015260248101829052604481018390526064015b60405180910390fd5b61041f848484840360006104ba565b50505050565b6001600160a01b03831661044f57604051634b637e8f60e11b815260006004820152602401610407565b6001600160a01b0382166104795760405163ec442f0560e01b815260006004820152602401610407565b61039d83838361058f565b6001600160a01b0382166104ae5760405163ec442f0560e01b815260006004820152602401610407565b6102a86000838361058f565b6001600160a01b0384166104e45760405163e602df0560e01b815260006004820152602401610407565b6001600160a01b03831661050e57604051634a1406b160e11b815260006004820152602401610407565b6001600160a01b038085166000908152600160209081526040808320938716835292905220829055801561041f57826001600160a01b0316846001600160a01b03167f8c5be1e5ebec7d5bd14f71427d1e84f3dd0314c0f7b2291e5b200ac8c7c3b9258460405161058191815260200190565b60405180910390a350505050565b6001600160a01b0383166105ba5780600260008282546105af919061083b565b9091555061062c9050565b6001600160a01b0383166000908152602081905260409020548181101561060d5760405163391434e360e21b81526001600160a01b03851660048201526024810182905260448101839052606401610407565b6001600160a01b03841660009081526020819052604090209082900390555b6001600160a01b03821661064857600280548290039055610667565b6001600160a01b03821660009081526020819052604090208054820190555b816001600160a01b0316836001600160a01b03167fddf252ad1be2c89b69c2b068fc378daa952ba7f163c4a11628f55a4df523b3ef836040516106ac91815260200190565b60405180910390a3505050565b60006020808352835180602085015260005b818110156106e7578581018301518582016040015282016106cb565b506000604082860101526040601f19601f8301168501019250505092915050565b80356001600160a01b038116811461071f57600080fd5b919050565b6000806040838503121561073757600080fd5b61074083610708565b946020939093013593505050565b60008060006060848603121561076357600080fd5b61076c84610708565b925061077a60208501610708565b9150604084013590509250925092565b60006020828403121561079c57600080fd5b6107a582610708565b9392505050565b600080604083850312156107bf57600080fd5b6107c883610708565b91506107d660208401610708565b90509250929050565b600181811c908216806107f357607f821691505b60208210810361081357634e487b7160e01b600052602260045260246000fd5b50919050565b60006020828403121561082b57600080fd5b815180151581146107a557600080fd5b8082018082111561027457634e487b7160e01b600052601160045260246000fdfea26469706673582212200815f7661d9dde9b402b7d1c0315f0efcdbb643ff31a3a3163bf0a24bf6e861764736f6c63430008170033","linkReferences":{}},"methodIdentifiers":{"allowance(address,address)":"dd62ed3e","approve(address,uint256)":"095ea7b3","balanceOf(address)":"70a08231","decimals()":"313ce567","mint(address,uint256)":"40c10f19","mintWithAuth(address,uint256)":"d9aaf7cb","name()":"06fdde03","symbol()":"95d89b41","totalSupply()":"18160ddd","transfer(address,uint256)":"a9059cbb","transferFrom(address,address,uint256)":"23b872dd"},"id":3}