{"abi":[{"type":"constructor","inputs":[{"name":"_vvvToken","type":"address","internalType":"address"},{"name":"_authorizationRegistryAddress","type":"address","internalType":"address"}],"stateMutability":"nonpayable"},{"type":"function","name":"VVVToken","inputs":[],"outputs":[{"name":"","type":"address","internalType":"contract IERC20"}],"stateMutability":"view"},{"type":"function","name":"batchSetVestingSchedule","inputs":[{"name":"_params","type":"tuple[]","internalType":"struct VVVVesting.SetVestingScheduleParams[]","components":[{"name":"vestedUser","type":"address","internalType":"address"},{"name":"vestingScheduleIndex","type":"uint256","internalType":"uint256"},{"name":"vestingSchedule","type":"tuple","internalType":"struct VVVVesting.VestingSchedule","components":[{"name":"tokensToVestAtStart","type":"uint88","internalType":"uint88"},{"name":"tokensToVestAfterFirstInterval","type":"uint120","internalType":"uint120"},{"name":"intervalLength","type":"uint32","internalType":"uint32"},{"name":"maxIntervals","type":"uint16","internalType":"uint16"},{"name":"tokenAmountWithdrawn","type":"uint128","internalType":"uint128"},{"name":"scheduleStartTime","type":"uint32","internalType":"uint32"},{"name":"cliffEndTime","type":"uint32","internalType":"uint32"},{"name":"growthRateProportion","type":"uint64","internalType":"uint64"}]}]}],"outputs":[],"stateMutability":"nonpayable"},{"type":"function","name":"calculateVestedAmountAtInterval","inputs":[{"name":"_firstIntervalAccrual","type":"uint256","internalType":"uint256"},{"name":"_elapsedIntervals","type":"uint256","internalType":"uint256"},{"name":"_growthRateProportion","type":"uint256","internalType":"uint256"}],"outputs":[{"name":"","type":"uint256","internalType":"uint256"}],"stateMutability":"pure"},{"type":"function","name":"getVestedAmount","inputs":[{"name":"_vestedUser","type":"address","internalType":"address"},{"name":"_vestingScheduleIndex","type":"uint256","internalType":"uint256"}],"outputs":[{"name":"","type":"uint256","internalType":"uint256"}],"stateMutability":"view"},{"type":"function","name":"removeVestingSchedule","inputs":[{"name":"_vestedUser","type":"address","internalType":"address"},{"name":"_vestingScheduleIndex","type":"uint256","internalType":"uint256"}],"outputs":[],"stateMutability":"nonpayable"},{"type":"function","name":"setVestedToken","inputs":[{"name":"_vvvtoken","type":"address","internalType":"address"}],"outputs":[],"stateMutability":"nonpayable"},{"type":"function","name":"setVestingSchedule","inputs":[{"name":"_vestedUser","type":"address","internalType":"address"},{"name":"_vestingScheduleIndex","type":"uint256","internalType":"uint256"},{"name":"_tokensToVestAtStart","type":"uint88","internalType":"uint88"},{"name":"_tokensToVestAfterFirstInterval","type":"uint120","internalType":"uint120"},{"name":"_vestingScheduleAmountWithdrawn","type":"uint128","internalType":"uint128"},{"name":"_vestingScheduleStartTime","type":"uint32","internalType":"uint32"},{"name":"_vestingScheduleCliffEndTime","type":"uint32","internalType":"uint32"},{"name":"_vestingScheduleIntervalLength","type":"uint32","internalType":"uint32"},{"name":"_vestingScheduleMaxIntervals","type":"uint16","internalType":"uint16"},{"name":"_vestingScheduleGrowthRateProportion","type":"uint64","internalType":"uint64"}],"outputs":[],"stateMutability":"nonpayable"},{"type":"function","name":"userVestingSchedules","inputs":[{"name":"","type":"address","internalType":"address"},{"name":"","type":"uint256","internalType":"uint256"}],"outputs":[{"name":"tokensToVestAtStart","type":"uint88","internalType":"uint88"},{"name":"tokensToVestAfterFirstInterval","type":"uint120","internalType":"uint120"},{"name":"intervalLength","type":"uint32","internalType":"uint32"},{"name":"maxIntervals","type":"uint16","internalType":"uint16"},{"name":"tokenAmountWithdrawn","type":"uint128","internalType":"uint128"},{"name":"scheduleStartTime","type":"uint32","internalType":"uint32"},{"name":"cliffEndTime","type":"uint32","internalType":"uint32"},{"name":"growthRateProportion","type":"uint64","internalType":"uint64"}],"stateMutability":"view"},{"type":"function","name":"withdrawVestedTokens","inputs":[{"name":"_tokenAmountToWithdraw","type":"uint128","internalType":"uint128"},{"name":"_tokenDestination","type":"address","internalType":"address"},{"name":"_vestingScheduleIndex","type":"uint256","internalType":"uint256"}],"outputs":[],"stateMutability":"nonpayable"},{"type":"event","name":"RemoveVestingSchedule","inputs":[{"name":"_vestedUser","type":"address","indexed":true,"internalType":"address"},{"name":"_vestingScheduleIndex","type":"uint256","indexed":false,"internalType":"uint256"}],"anonymous":false},{"type":"event","name":"SetVestedToken","inputs":[{"name":"_vvvtoken","type":"address","indexed":true,"internalType":"address"}],"anonymous":false},{"type":"event","name":"SetVestingSchedule","inputs":[{"name":"_vestedUser","type":"address","indexed":true,"internalType":"address"},{"name":"_vestingScheduleIndex","type":"uint256","indexed":false,"internalType":"uint256"},{"name":"_tokensToVestAtStart","type":"uint88","indexed":false,"internalType":"uint88"},{"name":"_tokensToVestAfterFirstInterval","type":"uint120","indexed":false,"internalType":"uint120"},{"name":"_vestingScheduleAmountWithdrawn","type":"uint128","indexed":false,"internalType":"uint128"},{"name":"_vestingScheduleStartTime","type":"uint32","indexed":false,"internalType":"uint32"},{"name":"_vestingScheduleCliffEndTime","type":"uint32","indexed":false,"internalType":"uint32"},{"name":"_vestingScheduleIntervalLength","type":"uint32","indexed":false,"internalType":"uint32"},{"name":"_vestingScheduleMaxIntervals","type":"uint16","indexed":false,"internalType":"uint16"},{"name":"_vestingScheduleGrowthRateProportion","type":"uint64","indexed":false,"internalType":"uint64"}],"anonymous":false},{"type":"event","name":"VestedTokenWithdrawal","inputs":[{"name":"_vestedUser","type":"address","indexed":true,"internalType":"address"},{"name":"_tokenDestination","type":"address","indexed":true,"internalType":"address"},{"name":"_tokenAmountToWithdraw","type":"uint128","indexed":false,"internalType":"uint128"},{"name":"_vestingScheduleIndex","type":"uint256","indexed":false,"internalType":"uint256"}],"anonymous":false},{"type":"error","name":"AddressEmptyCode","inputs":[{"name":"target","type":"address","internalType":"address"}]},{"type":"error","name":"AddressInsufficientBalance","inputs":[{"name":"account","type":"address","internalType":"address"}]},{"type":"error","name":"AmountIsGreaterThanWithdrawable","inputs":[]},{"type":"error","name":"FailedInnerCall","inputs":[]},{"type":"error","name":"InvalidConstructorArguments","inputs":[]},{"type":"error","name":"InvalidScheduleIndex","inputs":[]},{"type":"error","name":"InvalidTokenAddress","inputs":[]},{"type":"error","name":"SafeERC20FailedOperation","inputs":[{"name":"token","type":"address","internalType":"address"}]},{"type":"error","name":"UnauthorizedCaller","inputs":[]}],"bytecode":{"object":"0x60a06040523480156200001157600080fd5b506040516200180b3803806200180b8339810160408190526200003491620000bb565b6001600160a01b03808216608052821615806200005857506001600160a01b038116155b156200007757604051630c8f760960e01b815260040160405180910390fd5b50600080546001600160a01b0319166001600160a01b0392909216919091179055620000f3565b80516001600160a01b0381168114620000b657600080fd5b919050565b60008060408385031215620000cf57600080fd5b620000da836200009e565b9150620000ea602084016200009e565b90509250929050565b6080516116e762000124600039600081816101f70152818161057e01528181610763015261088c01526116e76000f3fe608060405234801561001057600080fd5b50600436106100935760003560e01c806349f509ab1161006657806349f509ab146101115780636152d848146101245780636f3e81c2146101a75780638ab88447146101ba5780639c5cf7f6146101cd57600080fd5b80630ac3df41146100985780633c98fc4d146100ad5780634094460a146100dd57806341de69b7146100fe575b600080fd5b6100ab6100a6366004611214565b6101e0565b005b6000546100c0906001600160a01b031681565b6040516001600160a01b0390911681526020015b60405180910390f35b6100f06100eb3660046112c7565b610343565b6040519081526020016100d4565b6100f061010c3660046112f1565b6104c9565b6100ab61011f3660046112c7565b610567565b6101376101323660046112c7565b6106aa565b604080516001600160581b0390991689526001600160781b03909716602089015263ffffffff9586169688019690965261ffff90931660608701526001600160801b039091166080860152821660a08501521660c083015267ffffffffffffffff1660e0820152610100016100d4565b6100ab6101b536600461131d565b61074c565b6100ab6101c8366004611338565b610875565b6100ab6101db3660046113ae565b610978565b604051637af97f4960e11b81526001600160a01b037f0000000000000000000000000000000000000000000000000000000000000000169063f5f2fe929061023c9030906001600160e01b0319600035169033906004016113ea565b602060405180830381865afa158015610259573d6000803e3d6000fd5b505050506040513d601f19601f8201168201806040525081019061027d9190611417565b61029a57604051635c427cd960e01b815260040160405180910390fd5b60408051610100810182526001600160581b038a1681526001600160781b0389166020808301919091526001600160801b038916608083015263ffffffff88811660a084015287811660c084015286168284015261ffff851660608084019190915267ffffffffffffffff851660e0840152835190810184526001600160a01b038e1681529081018c90529182018190529061033581610b77565b505050505050505050505050565b6001600160a01b038216600090815260016020526040812080548291908490811061037057610370611439565b906000526020600020906002020190508060010160109054906101000a900463ffffffff1663ffffffff164210806103b757506001810154600160801b900463ffffffff16155b806103d857506001600160a01b038416600090815260016020526040902054155b156103e75760009150506104c3565b6001810154600160a01b900463ffffffff1642101561041157546001600160581b031690506104c3565b80546001820154600091829163ffffffff600160d01b909204821691600160a01b909104164203816104455761044561144f565b84549190049250600160f01b900461ffff1682116104635781610471565b8254600160f01b900461ffff165b835460018501549193506104a991600160581b9091046001600160781b0316908490600160c01b900467ffffffffffffffff166104c9565b92546001600160581b031690920192506104c3915050565b505b92915050565b60008115806104d6575082155b156104ec576104e5838561147b565b9050610560565b600080600061050d670de0b6b3a76400008601670de0b6b3a7640000610eae565b92506105228387670de0b6b3a7640000610ec3565b9150610555670de0b6b3a7640000840361054f670de0b6b3a764000085038a610f8190919063ffffffff16565b90610eae565b935061056092505050565b9392505050565b604051637af97f4960e11b81526001600160a01b037f0000000000000000000000000000000000000000000000000000000000000000169063f5f2fe92906105c39030906001600160e01b0319600035169033906004016113ea565b602060405180830381865afa1580156105e0573d6000803e3d6000fd5b505050506040513d601f19601f820116820180604052508101906106049190611417565b61062157604051635c427cd960e01b815260040160405180910390fd5b6001600160a01b038216600090815260016020526040902080548290811061064b5761064b611439565b600091825260208220600290910201818155600101556040516001600160a01b038316907febe866e83bf8262315b9542969c5b033e145ae18ec448cffdca1c3924266e8a79061069e9084815260200190565b60405180910390a25050565b600160205281600052604060002081815481106106c657600080fd5b6000918252602090912060029091020180546001909101546001600160581b0382169350600160581b82046001600160781b03169250600160d01b820463ffffffff90811692600160f01b900461ffff16916001600160801b03811691600160801b8204811691600160a01b810490911690600160c01b900467ffffffffffffffff1688565b604051637af97f4960e11b81526001600160a01b037f0000000000000000000000000000000000000000000000000000000000000000169063f5f2fe92906107a89030906001600160e01b0319600035169033906004016113ea565b602060405180830381865afa1580156107c5573d6000803e3d6000fd5b505050506040513d601f19601f820116820180604052508101906107e99190611417565b61080657604051635c427cd960e01b815260040160405180910390fd5b6001600160a01b03811661082d57604051630f58058360e11b815260040160405180910390fd5b600080546001600160a01b0319166001600160a01b038316908117825560405190917f35e7d10af91b363ede7150a70d246f026345e9a523de1a901063e82e2e656e6d91a250565b604051637af97f4960e11b81526001600160a01b037f0000000000000000000000000000000000000000000000000000000000000000169063f5f2fe92906108d19030906001600160e01b0319600035169033906004016113ea565b602060405180830381865afa1580156108ee573d6000803e3d6000fd5b505050506040513d601f19601f820116820180604052508101906109129190611417565b61092f57604051635c427cd960e01b815260040160405180910390fd5b60005b818110156109735761096b83838381811061094f5761094f611439565b9050610140020180360381019061096691906114fb565b610b77565b600101610932565b505050565b336000908152600160205260409020805482106109a857604051637dba4c4f60e01b815260040160405180910390fd5b60008183815481106109bc576109bc611439565b6000918252602090912060029091020160018101549091506001600160801b03166109e73385610343565b6109f191906115df565b856001600160801b03161115610a1a576040516323f67de560e11b815260040160405180910390fd5b600181018054869190600090610a3a9084906001600160801b03166115f2565b82546101009290920a6001600160801b03818102199093169183160217909155600054610a7592506001600160a01b03169086908816610f96565b604080516001600160801b0387168152602081018590526001600160a01b0386169133917f0d045b4b7505d922a59242206b1986b90d40f91282effea7ed5c78b7634871b7910160405180910390a38054600182015460405133927fa7995c913e0f21e16d0ebb35dde70eaf6243b33d52ef884323d3158de5ff5a4792610b689288926001600160581b03811692600160581b82046001600160781b0316926001600160801b03821692600160801b830463ffffffff90811693600160a01b8104821693600160d01b840490921692600160f01b900461ffff1691600160c01b90910467ffffffffffffffff1690611612565b60405180910390a25050505050565b60408082015182516001600160a01b0316600090815260016020908152929020549183015190919003610cc25781516001600160a01b0390811660009081526001602081815260408084208054808501825590855293829020865160029095020180549287015191870151606088015161ffff16600160f01b026001600160f01b0363ffffffff928316600160d01b02166001600160d01b036001600160781b03909516600160581b026001600160d01b03199096166001600160581b0390981697909717949094179290921694909417919091178355608085015192909101805460a086015160c087015160e088015167ffffffffffffffff16600160c01b026001600160c01b03918616600160a01b029190911691909416600160801b026001600160a01b03199092166001600160801b03909516949094171790931691909117179055610e3f565b81516001600160a01b0316600090815260016020908152604090912054908301511015610e265781516001600160a01b03166000908152600160209081526040909120908301518154839291908110610d1d57610d1d611439565b600091825260209182902083516002909202018054928401516040850151606086015161ffff16600160f01b026001600160f01b0363ffffffff928316600160d01b02166001600160d01b036001600160781b03909416600160581b026001600160d01b03199097166001600160581b039096169590951795909517919091169290921792909217825560808301516001909201805460a085015160c086015160e09096015167ffffffffffffffff16600160c01b026001600160c01b03968516600160a01b02969096166001600160a01b0391909416600160801b026001600160a01b03199092166001600160801b0390951694909417179290921617919091179055610e3f565b604051637dba4c4f60e01b815260040160405180910390fd5b8151602080840151604080860151805193810151608082015160a083015160c084015184860151606086015160e09096015196516001600160a01b03909a16997fa7995c913e0f21e16d0ebb35dde70eaf6243b33d52ef884323d3158de5ff5a479961069e9998909791611612565b600061056083670de0b6b3a764000084610fe8565b6000838015610f6357600184168015610ede57859250610ee2565b8392505b508260011c8460011c94505b8415610f5d578560801c15610f0257600080fd5b85860281810181811015610f1557600080fd5b8590049650506001851615610f52578583028387820414610f3b578615610f3b57600080fd5b81810181811015610f4b57600080fd5b8590049350505b8460011c9450610eee565b50610f79565b838015610f735760009250610f77565b8392505b505b509392505050565b60006105608383670de0b6b3a7640000610fe8565b604080516001600160a01b038416602482015260448082018490528251808303909101815260649091019091526020810180516001600160e01b031663a9059cbb60e01b179052610973908490611006565b6000826000190484118302158202610fff57600080fd5b5091020490565b600061101b6001600160a01b0384168361106e565b9050805160001415801561104057508080602001905181019061103e9190611417565b155b1561097357604051635274afe760e01b81526001600160a01b03841660048201526024015b60405180910390fd5b60606105608383600084600080856001600160a01b031684866040516110949190611682565b60006040518083038185875af1925050503d80600081146110d1576040519150601f19603f3d011682016040523d82523d6000602084013e6110d6565b606091505b50915091506110e68683836110f0565b9695505050505050565b606082611105576111008261114c565b610560565b815115801561111c57506001600160a01b0384163b155b1561114557604051639996b31560e01b81526001600160a01b0385166004820152602401611065565b5080610560565b80511561115c5780518082602001fd5b604051630a12f52160e11b815260040160405180910390fd5b80356001600160a01b038116811461118c57600080fd5b919050565b80356001600160581b038116811461118c57600080fd5b80356001600160781b038116811461118c57600080fd5b80356001600160801b038116811461118c57600080fd5b803563ffffffff8116811461118c57600080fd5b803561ffff8116811461118c57600080fd5b803567ffffffffffffffff8116811461118c57600080fd5b6000806000806000806000806000806101408b8d03121561123457600080fd5b61123d8b611175565b995060208b0135985061125260408c01611191565b975061126060608c016111a8565b965061126e60808c016111bf565b955061127c60a08c016111d6565b945061128a60c08c016111d6565b935061129860e08c016111d6565b92506112a76101008c016111ea565b91506112b66101208c016111fc565b90509295989b9194979a5092959850565b600080604083850312156112da57600080fd5b6112e383611175565b946020939093013593505050565b60008060006060848603121561130657600080fd5b505081359360208301359350604090920135919050565b60006020828403121561132f57600080fd5b61056082611175565b6000806020838503121561134b57600080fd5b823567ffffffffffffffff8082111561136357600080fd5b818501915085601f83011261137757600080fd5b81358181111561138657600080fd5b8660206101408302850101111561139c57600080fd5b60209290920196919550909350505050565b6000806000606084860312156113c357600080fd5b6113cc846111bf565b92506113da60208501611175565b9150604084013590509250925092565b6001600160a01b0393841681526001600160e01b0319929092166020830152909116604082015260600190565b60006020828403121561142957600080fd5b8151801515811461056057600080fd5b634e487b7160e01b600052603260045260246000fd5b634e487b7160e01b600052601260045260246000fd5b634e487b7160e01b600052601160045260246000fd5b80820281158282048414176104c3576104c3611465565b6040516060810167ffffffffffffffff811182821017156114c357634e487b7160e01b600052604160045260246000fd5b60405290565b604051610100810167ffffffffffffffff811182821017156114c357634e487b7160e01b600052604160045260246000fd5b600081830361014081121561150f57600080fd5b611517611492565b61152084611175565b81526020840135602082015261010080603f198401121561154057600080fd5b6115486114c9565b925061155660408601611191565b8352611564606086016111a8565b6020840152611575608086016111d6565b604084015261158660a086016111ea565b606084015261159760c086016111bf565b60808401526115a860e086016111d6565b60a08401526115b88186016111d6565b60c0840152506115cb61012085016111fc565b60e083015260408101919091529392505050565b818103818111156104c3576104c3611465565b6001600160801b038181168382160190808211156104c1576104c1611465565b9889526001600160581b039790971660208901526001600160781b039590951660408801526001600160801b0393909316606087015263ffffffff9182166080870152811660a08601521660c084015261ffff1660e083015267ffffffffffffffff166101008201526101200190565b6000825160005b818110156116a35760208186018101518583015201611689565b50600092019182525091905056fea2646970667358221220cd948fc21c495a2d456dde9784495acb2ca62a38e210383f934123e59c0876cf64736f6c63430008170033","linkReferences":{}},"methodIdentifiers":{"VVVToken()":"3c98fc4d","batchSetVestingSchedule((address,uint256,(uint88,uint120,uint32,uint16,uint128,uint32,uint32,uint64))[])":"8ab88447","calculateVestedAmountAtInterval(uint256,uint256,uint256)":"41de69b7","getVestedAmount(address,uint256)":"4094460a","removeVestingSchedule(address,uint256)":"49f509ab","setVestedToken(address)":"6f3e81c2","setVestingSchedule(address,uint256,uint88,uint120,uint128,uint32,uint32,uint32,uint16,uint64)":"0ac3df41","userVestingSchedules(address,uint256)":"6152d848","withdrawVestedTokens(uint128,address,uint256)":"9c5cf7f6"},"id":10}