{
  "abi": [
    {
      "inputs": [
        {
          "internalType": "contract IUniswapV3Factory",
          "name": "_UNISWAP_V3_FACTORY",
          "type": "address"
        },
        {
          "internalType": "uint8",
          "name": "_CARDINALITY_PER_MINUTE",
          "type": "uint8"
        }
      ],
      "stateMutability": "nonpayable",
      "type": "constructor"
    },
    {
      "inputs": [],
      "name": "T",
      "type": "error"
    },
    {
      "inputs": [],
      "name": "CARDINALITY_PER_MINUTE",
      "outputs": [
        {
          "internalType": "uint8",
          "name": "",
          "type": "uint8"
        }
      ],
      "stateMutability": "view",
      "type": "function"
    },
    {
      "inputs": [],
      "name": "UNISWAP_V3_FACTORY",
      "outputs": [
        {
          "internalType": "contract IUniswapV3Factory",
          "name": "",
          "type": "address"
        }
      ],
      "stateMutability": "view",
      "type": "function"
    },
    {
      "inputs": [
        {
          "internalType": "uint24",
          "name": "_feeTier",
          "type": "uint24"
        }
      ],
      "name": "addNewFeeTier",
      "outputs": [],
      "stateMutability": "nonpayable",
      "type": "function"
    },
    {
      "inputs": [
        {
          "internalType": "address",
          "name": "_tokenA",
          "type": "address"
        },
        {
          "internalType": "address",
          "name": "_tokenB",
          "type": "address"
        }
      ],
      "name": "getAllPoolsForPair",
      "outputs": [
        {
          "internalType": "address[]",
          "name": "",
          "type": "address[]"
        }
      ],
      "stateMutability": "view",
      "type": "function"
    },
    {
      "inputs": [
        {
          "internalType": "address",
          "name": "_tokenA",
          "type": "address"
        },
        {
          "internalType": "address",
          "name": "_tokenB",
          "type": "address"
        }
      ],
      "name": "isPairSupported",
      "outputs": [
        {
          "internalType": "bool",
          "name": "",
          "type": "bool"
        }
      ],
      "stateMutability": "view",
      "type": "function"
    },
    {
      "inputs": [
        {
          "internalType": "address",
          "name": "_tokenA",
          "type": "address"
        },
        {
          "internalType": "address",
          "name": "_tokenB",
          "type": "address"
        },
        {
          "internalType": "uint16",
          "name": "_cardinality",
          "type": "uint16"
        }
      ],
      "name": "prepareAllAvailablePoolsWithCardinality",
      "outputs": [
        {
          "internalType": "address[]",
          "name": "_preparedPools",
          "type": "address[]"
        }
      ],
      "stateMutability": "nonpayable",
      "type": "function"
    },
    {
      "inputs": [
        {
          "internalType": "address",
          "name": "_tokenA",
          "type": "address"
        },
        {
          "internalType": "address",
          "name": "_tokenB",
          "type": "address"
        },
        {
          "internalType": "uint32",
          "name": "_period",
          "type": "uint32"
        }
      ],
      "name": "prepareAllAvailablePoolsWithTimePeriod",
      "outputs": [
        {
          "internalType": "address[]",
          "name": "_preparedPools",
          "type": "address[]"
        }
      ],
      "stateMutability": "nonpayable",
      "type": "function"
    },
    {
      "inputs": [
        {
          "internalType": "address",
          "name": "_tokenA",
          "type": "address"
        },
        {
          "internalType": "address",
          "name": "_tokenB",
          "type": "address"
        },
        {
          "internalType": "uint24[]",
          "name": "_feeTiers",
          "type": "uint24[]"
        },
        {
          "internalType": "uint16",
          "name": "_cardinality",
          "type": "uint16"
        }
      ],
      "name": "prepareSpecificFeeTiersWithCardinality",
      "outputs": [
        {
          "internalType": "address[]",
          "name": "_preparedPools",
          "type": "address[]"
        }
      ],
      "stateMutability": "nonpayable",
      "type": "function"
    },
    {
      "inputs": [
        {
          "internalType": "address",
          "name": "_tokenA",
          "type": "address"
        },
        {
          "internalType": "address",
          "name": "_tokenB",
          "type": "address"
        },
        {
          "internalType": "uint24[]",
          "name": "_feeTiers",
          "type": "uint24[]"
        },
        {
          "internalType": "uint32",
          "name": "_period",
          "type": "uint32"
        }
      ],
      "name": "prepareSpecificFeeTiersWithTimePeriod",
      "outputs": [
        {
          "internalType": "address[]",
          "name": "_preparedPools",
          "type": "address[]"
        }
      ],
      "stateMutability": "nonpayable",
      "type": "function"
    },
    {
      "inputs": [
        {
          "internalType": "address[]",
          "name": "_pools",
          "type": "address[]"
        },
        {
          "internalType": "uint16",
          "name": "_cardinality",
          "type": "uint16"
        }
      ],
      "name": "prepareSpecificPoolsWithCardinality",
      "outputs": [],
      "stateMutability": "nonpayable",
      "type": "function"
    },
    {
      "inputs": [
        {
          "internalType": "address[]",
          "name": "_pools",
          "type": "address[]"
        },
        {
          "internalType": "uint32",
          "name": "_period",
          "type": "uint32"
        }
      ],
      "name": "prepareSpecificPoolsWithTimePeriod",
      "outputs": [],
      "stateMutability": "nonpayable",
      "type": "function"
    },
    {
      "inputs": [
        {
          "internalType": "uint128",
          "name": "_baseAmount",
          "type": "uint128"
        },
        {
          "internalType": "address",
          "name": "_baseToken",
          "type": "address"
        },
        {
          "internalType": "address",
          "name": "_quoteToken",
          "type": "address"
        },
        {
          "internalType": "uint32",
          "name": "_period",
          "type": "uint32"
        }
      ],
      "name": "quoteAllAvailablePoolsWithTimePeriod",
      "outputs": [
        {
          "internalType": "uint256",
          "name": "_quoteAmount",
          "type": "uint256"
        },
        {
          "internalType": "address[]",
          "name": "_queriedPools",
          "type": "address[]"
        }
      ],
      "stateMutability": "view",
      "type": "function"
    },
    {
      "inputs": [
        {
          "internalType": "uint128",
          "name": "_baseAmount",
          "type": "uint128"
        },
        {
          "internalType": "address",
          "name": "_baseToken",
          "type": "address"
        },
        {
          "internalType": "address",
          "name": "_quoteToken",
          "type": "address"
        },
        {
          "internalType": "uint24[]",
          "name": "_feeTiers",
          "type": "uint24[]"
        },
        {
          "internalType": "uint32",
          "name": "_period",
          "type": "uint32"
        }
      ],
      "name": "quoteSpecificFeeTiersWithTimePeriod",
      "outputs": [
        {
          "internalType": "uint256",
          "name": "_quoteAmount",
          "type": "uint256"
        },
        {
          "internalType": "address[]",
          "name": "_queriedPools",
          "type": "address[]"
        }
      ],
      "stateMutability": "view",
      "type": "function"
    },
    {
      "inputs": [
        {
          "internalType": "uint128",
          "name": "_baseAmount",
          "type": "uint128"
        },
        {
          "internalType": "address",
          "name": "_baseToken",
          "type": "address"
        },
        {
          "internalType": "address",
          "name": "_quoteToken",
          "type": "address"
        },
        {
          "internalType": "address[]",
          "name": "_pools",
          "type": "address[]"
        },
        {
          "internalType": "uint32",
          "name": "_period",
          "type": "uint32"
        }
      ],
      "name": "quoteSpecificPoolsWithTimePeriod",
      "outputs": [
        {
          "internalType": "uint256",
          "name": "_quoteAmount",
          "type": "uint256"
        }
      ],
      "stateMutability": "view",
      "type": "function"
    },
    {
      "inputs": [],
      "name": "supportedFeeTiers",
      "outputs": [
        {
          "internalType": "uint24[]",
          "name": "",
          "type": "uint24[]"
        }
      ],
      "stateMutability": "view",
      "type": "function"
    }
  ],
  "bytecode": {
    "object": "0x60c06040523480156200001157600080fd5b5060405162002963380380620029638339810160408190526200003491620000ff565b6001600160a01b0390911660805260ff1660a0526000805460018181018355828052600a8083047f290decd9548b62a8d60345a988386fc84ba6bc95484008f6362f93160ef3e5639081018054600395849006860261010090810a6101f4810262ffffff91820219909316929092179092558654808601885584810484018054918690068802840a610bb8810290840219909216919091179055865494850190965582840490910180549290930690930290920a61271081029302199091169190911790556200014e565b600080604083850312156200011357600080fd5b82516001600160a01b03811681146200012b57600080fd5b602084015190925060ff811681146200014357600080fd5b809150509250929050565b60805160a0516127d362000190600039600081816102010152610c6201526000818161027501528181610435015281816106d50152610cf901526127d36000f3fe608060405234801561001057600080fd5b50600436106100f55760003560e01c806355eba79211610097578063bc4389f711610066578063bc4389f714610235578063d8045eca1461024a578063e85dd3831461025d578063f73e5aab1461027057600080fd5b806355eba792146101b357806362d99119146101c65780639446994a146101d9578063b7604e53146101fc57600080fd5b80631c49cbb5116100d35780631c49cbb51461016557806333e4c28e14610178578063354b1a7d1461018b57806343dfc58d146101a057600080fd5b80630757bc81146100fa57806307f7ca9f146101245780631b2a933c14610145575b600080fd5b61010d610108366004611c3c565b6102af565b60405161011b929190611cdc565b60405180910390f35b610137610132366004611d41565b6102d8565b60405190815260200161011b565b610158610153366004611ddf565b610326565b60405161011b9190611e2a565b610158610173366004611e3d565b610345565b610158610186366004611e7d565b61035d565b61019e610199366004611efa565b610408565b005b61019e6101ae366004611f46565b61041b565b61019e6101c1366004611f6b565b6105f2565b6101586101d4366004611fb7565b610630565b6101ec6101e7366004611fb7565b6106c0565b604051901515815260200161011b565b6102237f000000000000000000000000000000000000000000000000000000000000000081565b60405160ff909116815260200161011b565b61023d610775565b60405161011b9190611ff0565b61010d610258366004611d41565b6107f7565b61015861026b366004612039565b6108a6565b6102977f000000000000000000000000000000000000000000000000000000000000000081565b6040516001600160a01b03909116815260200161011b565b600060606102be8585856108c2565b90506102cd86868684876109ed565b915094509492505050565b600061031b8787878787808060200260200160405190810160405280939291908181526020018383602002808284376000920191909152508992506109ed915050565b979650505050505050565b60606103328484610630565b905061033e8183610bbd565b9392505050565b6060610355848461015385610c57565b949350505050565b606061039d8686868680806020026020016040519081016040528093929190818152602001838360200280828437600092019190915250610c9d92505050565b805190915083146103f55760405162461bcd60e51b815260206004820152601d60248201527f476976656e207469657220646f6573206e6f74206861766520706f6f6c00000060448201526064015b60405180910390fd5b6103ff8183610bbd565b95945050505050565b61041683836101c184610c57565b505050565b6040516322afcccb60e01b815262ffffff821660048201527f00000000000000000000000000000000000000000000000000000000000000006001600160a01b0316906322afcccb90602401602060405180830381865afa158015610484573d6000803e3d6000fd5b505050506040513d601f19601f820116820180604052508101906104a891906120bf565b60020b6000036104ed5760405162461bcd60e51b815260206004820152601060248201526f24b73b30b634b2103332b2903a34b2b960811b60448201526064016103ec565b60005b600054811015610595578162ffffff1660008281548110610513576105136120da565b90600052602060002090600a91828204019190066003029054906101000a900462ffffff1662ffffff16036105835760405162461bcd60e51b8152602060048201526016602482015275151a595c88185b1c9958591e481cdd5c1c1bdc9d195960521b60448201526064016103ec565b8061058d81612106565b9150506104f0565b5060008054600181018255908052600a8082047f290decd9548b62a8d60345a988386fc84ba6bc95484008f6362f93160ef3e56301805462ffffff948516600393909406929092026101000a928302939092021916919091179055565b610416838380806020026020016040519081016040528093929190818152602001838360200280828437600092019190915250859250610bbd915050565b60606106b7838360008054806020026020016040519081016040528092919081815260200182805480156106ad57602002820191906000526020600020906000905b82829054906101000a900462ffffff1662ffffff16815260200190600301906020826002010492830192600103820291508084116106725790505b5050505050610c9d565b90505b92915050565b60008054815b8181101561076a57600061073b7f000000000000000000000000000000000000000000000000000000000000000061073688886000878154811061070c5761070c6120da565b90600052602060002090600a91828204019190066003029054906101000a900462ffffff16610db3565b610e1e565b90506001600160a01b0381163b1561075957600193505050506106ba565b5061076381612106565b90506106c6565b506000949350505050565b606060008054806020026020016040519081016040528092919081815260200182805480156107ed57602002820191906000526020600020906000905b82829054906101000a900462ffffff1662ffffff16815260200190600301906020826002010492830192600103820291508084116107b25790505b5050505050905090565b600060606108398787878780806020026020016040519081016040528093929190818152602001838360200280828437600092019190915250610c9d92505050565b8051909150841461088c5760405162461bcd60e51b815260206004820152601d60248201527f476976656e207469657220646f6573206e6f74206861766520706f6f6c00000060448201526064016103ec565b61089988888884876109ed565b9150965096945050505050565b60606108b88686868661018687610c57565b9695505050505050565b606060006108d08585610630565b90508263ffffffff166000036108e757905061033e565b805167ffffffffffffffff8111156109015761090161211f565b60405190808252806020026020018201604052801561092a578160200160208202803683370190505b5091506000805b82518110156109d9578463ffffffff16610963848381518110610956576109566120da565b6020026020010151610f07565b63ffffffff16106109c757828181518110610980576109806120da565b602002602001015184838061099490612106565b9450815181106109a6576109a66120da565b60200260200101906001600160a01b031690816001600160a01b0316815250505b806109d181612106565b915050610931565b506109e483826110c1565b50509392505050565b600080835111610a325760405162461bcd60e51b815260206004820152601060248201526f4e6f20646566696e656420706f6f6c7360801b60448201526064016103ec565b6000835167ffffffffffffffff811115610a4e57610a4e61211f565b604051908082528060200260200182016040528015610a9357816020015b6040805180820190915260008082526020820152815260200190600190039081610a6c5790505b50905060005b8451811015610b695760008463ffffffff1611610ad757610ad2858281518110610ac557610ac56120da565b60200260200101516110d1565b610afa565b610afa858281518110610aec57610aec6120da565b6020026020010151856113dd565b838381518110610b0c57610b0c6120da565b6020026020010151600001848481518110610b2957610b296120da565b6020026020010151602001826001600160801b03166001600160801b03168152508260020b60020b81525050508080610b6190612106565b915050610a99565b5060008151600114610b8357610b7e82611627565b610ba3565b81600081518110610b9657610b966120da565b6020026020010151600001515b9050610bb18189898961171a565b98975050505050505050565b60005b825181101561041657828181518110610bdb57610bdb6120da565b60209081029190910101516040516332148f6760e01b815261ffff841660048201526001600160a01b03909116906332148f6790602401600060405180830381600087803b158015610c2c57600080fd5b505af1158015610c40573d6000803e3d6000fd5b505050508080610c4f90612106565b915050610bc0565b6000603c610c8860ff7f00000000000000000000000000000000000000000000000000000000000000001684612135565b610c929190612177565b6106ba90600161219a565b6060815167ffffffffffffffff811115610cb957610cb961211f565b604051908082528060200260200182016040528015610ce2578160200160208202803683370190505b5090506000805b8351811015610da0576000610d3c7f00000000000000000000000000000000000000000000000000000000000000006107368989898781518110610d2f57610d2f6120da565b6020026020010151610db3565b90506001600160a01b0381163b15610d8d57808484610d5a81612106565b955081518110610d6c57610d6c6120da565b60200260200101906001600160a01b031690816001600160a01b0316815250505b5080610d9881612106565b915050610ce9565b50610dab82826110c1565b509392505050565b6040805160608101825260008082526020820181905291810191909152826001600160a01b0316846001600160a01b03161115610dee579192915b50604080516060810182526001600160a01b03948516815292909316602083015262ffffff169181019190915290565b600081602001516001600160a01b031682600001516001600160a01b031610610e4657600080fd5b815160208084015160408086015181516001600160a01b0395861681860152949092168482015262ffffff90911660608085019190915281518085038201815260808501909252815191909201206001600160f81b031960a08401529085901b6bffffffffffffffffffffffff191660a183015260b58201527fa598dd2fba360510c5a8f02f44423a4468e902df5857dbce3ca162a43a3a31ff60d582015260f50160408051601f1981840301815291905280516020909101209392505050565b6000806000836001600160a01b0316633850c7bd6040518163ffffffff1660e01b815260040160e060405180830381865afa158015610f4a573d6000803e3d6000fd5b505050506040513d601f19601f82011682018060405250810190610f6e91906121d0565b50505093509350505060008161ffff1611610fb05760405162461bcd60e51b81526020600482015260026024820152614e4960f01b60448201526064016103ec565b6000806001600160a01b03861663252c09d784610fce87600161219a565b610fd89190612269565b6040516001600160e01b031960e084901b16815261ffff9091166004820152602401608060405180830381865afa158015611017573d6000803e3d6000fd5b505050506040513d601f19601f8201168201806040525081019061103b919061229c565b935050509150806110b65760405163252c09d760e01b8152600060048201526001600160a01b0387169063252c09d790602401608060405180830381865afa15801561108b573d6000803e3d6000fd5b505050506040513d601f19601f820116820180604052508101906110af919061229c565b5091935050505b504203949350505050565b808251036110cd575050565b9052565b6000806000806000856001600160a01b0316633850c7bd6040518163ffffffff1660e01b815260040160e060405180830381865afa158015611117573d6000803e3d6000fd5b505050506040513d601f19601f8201168201806040525081019061113b91906121d0565b5050509350935093505060018161ffff161161117f5760405162461bcd60e51b81526020600482015260036024820152624e454f60e81b60448201526064016103ec565b60405163252c09d760e01b815261ffff83166004820152600090819081906001600160a01b038a169063252c09d790602401608060405180830381865afa1580156111ce573d6000803e3d6000fd5b505050506040513d601f19601f820116820180604052508101906111f2919061229c565b509250925092504263ffffffff168363ffffffff161461127e5785896001600160a01b0316631a6865026040518163ffffffff1660e01b8152600401602060405180830381865afa15801561124b573d6000803e3d6000fd5b505050506040513d601f19601f8201168201806040525081019061126f91906122f4565b97509750505050505050915091565b60008461ffff1660018661ffff168861ffff1661129b9190612311565b6112a59190612329565b6112af9190612340565b90506000806000808d6001600160a01b031663252c09d7866040518263ffffffff1660e01b81526004016112e591815260200190565b608060405180830381865afa158015611302573d6000803e3d6000fd5b505050506040513d601f19601f82011682018060405250810190611326919061229c565b9350935093509350806113615760405162461bcd60e51b81526020600482015260036024820152624f4e4960e81b60448201526064016103ec565b600061136d858a612354565b905063ffffffff8116611380858a612379565b61138a91906123c9565b9b506000602061139a858a612407565b6001600160a01b0390811690911b906113b99063ffffffff8516612427565b6113c3919061244d565b90508c819e509e5050505050505050505050505050915091565b6000808263ffffffff1660000361141b5760405162461bcd60e51b8152602060048201526002602482015261042560f41b60448201526064016103ec565b6040805160028082526060820183526000926020830190803683370190505090508381600081518110611450576114506120da565b602002602001019063ffffffff16908163ffffffff168152505060008160018151811061147f5761147f6120da565b602002602001019063ffffffff16908163ffffffff1681525050600080866001600160a01b031663883bdbfd846040518263ffffffff1660e01b81526004016114c89190612467565b600060405180830381865afa1580156114e5573d6000803e3d6000fd5b505050506040513d6000823e601f3d908101601f1916820160405261150d919081019061256e565b91509150600082600081518110611526576115266120da565b602002602001015183600181518110611541576115416120da565b60200260200101516115539190612379565b905060008260008151811061156a5761156a6120da565b602002602001015183600181518110611585576115856120da565b60200260200101516115979190612407565b90506115a963ffffffff8916836123c9565b965060008260060b1280156115cf57506115c963ffffffff891683612631565b60060b15155b156115e257866115de81612653565b9750505b60006115fb6001600160a01b0363ffffffff8b16612427565b9050611618640100000000600160c01b03602084901b168261244d565b96505050505050509250929050565b6000806000805b84518110156116db57848181518110611649576116496120da565b6020026020010151602001516001600160801b0316858281518110611670576116706120da565b60200260200101516000015160020b6116899190612676565b61169390846126fb565b92508481815181106116a7576116a76120da565b6020026020010151602001516001600160801b0316826116c79190612311565b9150806116d381612106565b91505061162e565b506116e6818361273c565b925060008212801561170057506116fd818361276a565b15155b15611713578261170f81612653565b9350505b5050919050565b60008061172686611828565b90506001600160801b036001600160a01b038216116117ac5760006117546001600160a01b0383168061277e565b9050836001600160a01b0316856001600160a01b03161061178c57611787600160c01b876001600160801b031683611b4b565b6117a4565b6117a481876001600160801b0316600160c01b611b4b565b92505061181f565b60006117cb6001600160a01b0383168068010000000000000000611b4b565b9050836001600160a01b0316856001600160a01b031610611803576117fe600160801b876001600160801b031683611b4b565b61181b565b61181b81876001600160801b0316600160801b611b4b565b9250505b50949350505050565b60008060008360020b1261183f578260020b611847565b8260020b6000035b9050620d89e881111561186d576040516315e4079d60e11b815260040160405180910390fd5b60008160011660000361188457600160801b611896565b6ffffcb933bd6fad37aa2d162d1a5940015b70ffffffffffffffffffffffffffffffffff16905060028216156118ca576ffff97272373d413259a46990580e213a0260801c5b60048216156118e9576ffff2e50f5f656932ef12357cf3c7fdcc0260801c5b6008821615611908576fffe5caca7e10e4e61c3624eaa0941cd00260801c5b6010821615611927576fffcb9843d60f6159c9db58835c9266440260801c5b6020821615611946576fff973b41fa98c081472e6896dfb254c00260801c5b6040821615611965576fff2ea16466c96a3843ec78b326b528610260801c5b6080821615611984576ffe5dee046a99a2a811c461f1969c30530260801c5b6101008216156119a4576ffcbe86c7900a88aedcffc83b479aa3a40260801c5b6102008216156119c4576ff987a7253ac413176f2b074cf7815e540260801c5b6104008216156119e4576ff3392b0822b70005940c7a398e4b70f30260801c5b610800821615611a04576fe7159475a2c29b7443b29c7fa6e889d90260801c5b611000821615611a24576fd097f3bdfd2022b8845ad8f792aa58250260801c5b612000821615611a44576fa9f746462d870fdf8a65dc1f90e061e50260801c5b614000821615611a64576f70d869a156d2a1b890bb3df62baf32f70260801c5b618000821615611a84576f31be135f97d08fd981231505542fcfa60260801c5b62010000821615611aa5576f09aa508b5b7a84e1c677de54f3e99bc90260801c5b62020000821615611ac5576e5d6af8dedb81196699c329225ee6040260801c5b62040000821615611ae4576d2216e584f5fa1ea926041bedfe980260801c5b62080000821615611b01576b048a170391f7dc42444e8fa20260801c5b60008460020b1315611b22578060001981611b1e57611b1e612161565b0490505b640100000000810615611b36576001611b39565b60005b60ff16602082901c0192505050919050565b6000808060001985870985870292508281108382030391505080600003611b845760008411611b7957600080fd5b50829004905061033e565b808411611b9057600080fd5b6000848688096000868103871696879004966002600389028118808a02820302808a02820302808a02820302808a02820302808a02820302808a02909103029181900381900460010186841190950394909402919094039290920491909117919091029150509392505050565b6001600160801b0381168114611c1257600080fd5b50565b6001600160a01b0381168114611c1257600080fd5b63ffffffff81168114611c1257600080fd5b60008060008060808587031215611c5257600080fd5b8435611c5d81611bfd565b93506020850135611c6d81611c15565b92506040850135611c7d81611c15565b91506060850135611c8d81611c2a565b939692955090935050565b600081518084526020808501945080840160005b83811015611cd15781516001600160a01b031687529582019590820190600101611cac565b509495945050505050565b8281526040602082015260006103556040830184611c98565b60008083601f840112611d0757600080fd5b50813567ffffffffffffffff811115611d1f57600080fd5b6020830191508360208260051b8501011115611d3a57600080fd5b9250929050565b60008060008060008060a08789031215611d5a57600080fd5b8635611d6581611bfd565b95506020870135611d7581611c15565b94506040870135611d8581611c15565b9350606087013567ffffffffffffffff811115611da157600080fd5b611dad89828a01611cf5565b9094509250506080870135611dc181611c2a565b809150509295509295509295565b61ffff81168114611c1257600080fd5b600080600060608486031215611df457600080fd5b8335611dff81611c15565b92506020840135611e0f81611c15565b91506040840135611e1f81611dcf565b809150509250925092565b6020815260006106b76020830184611c98565b600080600060608486031215611e5257600080fd5b8335611e5d81611c15565b92506020840135611e6d81611c15565b91506040840135611e1f81611c2a565b600080600080600060808688031215611e9557600080fd5b8535611ea081611c15565b94506020860135611eb081611c15565b9350604086013567ffffffffffffffff811115611ecc57600080fd5b611ed888828901611cf5565b9094509250506060860135611eec81611dcf565b809150509295509295909350565b600080600060408486031215611f0f57600080fd5b833567ffffffffffffffff811115611f2657600080fd5b611f3286828701611cf5565b9094509250506020840135611e1f81611c2a565b600060208284031215611f5857600080fd5b813562ffffff8116811461033e57600080fd5b600080600060408486031215611f8057600080fd5b833567ffffffffffffffff811115611f9757600080fd5b611fa386828701611cf5565b9094509250506020840135611e1f81611dcf565b60008060408385031215611fca57600080fd5b8235611fd581611c15565b91506020830135611fe581611c15565b809150509250929050565b6020808252825182820181905260009190848201906040850190845b8181101561202d57835162ffffff168352928401929184019160010161200c565b50909695505050505050565b60008060008060006080868803121561205157600080fd5b853561205c81611c15565b9450602086013561206c81611c15565b9350604086013567ffffffffffffffff81111561208857600080fd5b61209488828901611cf5565b9094509250506060860135611eec81611c2a565b8051600281900b81146120ba57600080fd5b919050565b6000602082840312156120d157600080fd5b6106b7826120a8565b634e487b7160e01b600052603260045260246000fd5b634e487b7160e01b600052601160045260246000fd5b600060018201612118576121186120f0565b5060010190565b634e487b7160e01b600052604160045260246000fd5b600063ffffffff80831681851681830481118215151615612158576121586120f0565b02949350505050565b634e487b7160e01b600052601260045260246000fd5b600063ffffffff8084168061218e5761218e612161565b92169190910492915050565b600061ffff8083168185168083038211156121b7576121b76120f0565b01949350505050565b805180151581146120ba57600080fd5b600080600080600080600060e0888a0312156121eb57600080fd5b87516121f681611c15565b9650612204602089016120a8565b9550604088015161221481611dcf565b606089015190955061222581611dcf565b608089015190945061223681611dcf565b60a089015190935060ff8116811461224d57600080fd5b915061225b60c089016121c0565b905092959891949750929550565b600061ffff8084168061227e5761227e612161565b92169190910692915050565b8051600681900b81146120ba57600080fd5b600080600080608085870312156122b257600080fd5b84516122bd81611c2a565b93506122cb6020860161228a565b925060408501516122db81611c15565b91506122e9606086016121c0565b905092959194509250565b60006020828403121561230657600080fd5b815161033e81611bfd565b60008219821115612324576123246120f0565b500190565b60008282101561233b5761233b6120f0565b500390565b60008261234f5761234f612161565b500690565b600063ffffffff83811690831681811015612371576123716120f0565b039392505050565b60008160060b8360060b6000811281667fffffffffffff19018312811516156123a4576123a46120f0565b81667fffffffffffff0183138116156123bf576123bf6120f0565b5090039392505050565b60008160060b8360060b806123e0576123e0612161565b667fffffffffffff198214600019821416156123fe576123fe6120f0565b90059392505050565b60006001600160a01b0383811690831681811015612371576123716120f0565b60006001600160c01b0382811684821681151582840482111615612158576121586120f0565b60006001600160c01b038381168061218e5761218e612161565b6020808252825182820181905260009190848201906040850190845b8181101561202d57835163ffffffff1683529284019291840191600101612483565b604051601f8201601f1916810167ffffffffffffffff811182821017156124ce576124ce61211f565b604052919050565b600067ffffffffffffffff8211156124f0576124f061211f565b5060051b60200190565b600082601f83011261250b57600080fd5b8151602061252061251b836124d6565b6124a5565b82815260059290921b8401810191818101908684111561253f57600080fd5b8286015b8481101561256357805161255681611c15565b8352918301918301612543565b509695505050505050565b6000806040838503121561258157600080fd5b825167ffffffffffffffff8082111561259957600080fd5b818501915085601f8301126125ad57600080fd5b815160206125bd61251b836124d6565b82815260059290921b840181019181810190898411156125dc57600080fd5b948201945b83861015612601576125f28661228a565b825294820194908201906125e1565b9188015191965090935050508082111561261a57600080fd5b50612627858286016124fa565b9150509250929050565b60008260060b8061264457612644612161565b808360060b0791505092915050565b60008160020b627fffff19810361266c5761266c6120f0565b6000190192915050565b60006001600160ff1b038184138284138082168684048611161561269c5761269c6120f0565b600160ff1b60008712828116878305891216156126bb576126bb6120f0565b600087129250878205871284841616156126d7576126d76120f0565b878505871281841616156126ed576126ed6120f0565b505050929093029392505050565b600080821280156001600160ff1b038490038513161561271d5761271d6120f0565b600160ff1b8390038412811615612736576127366120f0565b50500190565b60008261274b5761274b612161565b600160ff1b821460001984141615612765576127656120f0565b500590565b60008261277957612779612161565b500790565b6000816000190483118215151615612798576127986120f0565b50029056fea2646970667358221220c1a8a16c07ad0cd182a1e51d1ae4bc61716715b96b841127e021461b3c88e7dc64736f6c634300080f0033",
    "linkReferences": {}
  },
  "methodIdentifiers": {
    "CARDINALITY_PER_MINUTE()": "b7604e53",
    "UNISWAP_V3_FACTORY()": "f73e5aab",
    "addNewFeeTier(uint24)": "43dfc58d",
    "getAllPoolsForPair(address,address)": "62d99119",
    "isPairSupported(address,address)": "9446994a",
    "prepareAllAvailablePoolsWithCardinality(address,address,uint16)": "1b2a933c",
    "prepareAllAvailablePoolsWithTimePeriod(address,address,uint32)": "1c49cbb5",
    "prepareSpecificFeeTiersWithCardinality(address,address,uint24[],uint16)": "33e4c28e",
    "prepareSpecificFeeTiersWithTimePeriod(address,address,uint24[],uint32)": "e85dd383",
    "prepareSpecificPoolsWithCardinality(address[],uint16)": "55eba792",
    "prepareSpecificPoolsWithTimePeriod(address[],uint32)": "354b1a7d",
    "quoteAllAvailablePoolsWithTimePeriod(uint128,address,address,uint32)": "0757bc81",
    "quoteSpecificFeeTiersWithTimePeriod(uint128,address,address,uint24[],uint32)": "d8045eca",
    "quoteSpecificPoolsWithTimePeriod(uint128,address,address,address[],uint32)": "07f7ca9f",
    "supportedFeeTiers()": "bc4389f7"
  },
  "id": 82
}