{"abi":[{"type":"constructor","inputs":[{"name":"stETH_","type":"address","internalType":"contract MockERC20"}],"stateMutability":"nonpayable"},{"type":"function","name":"DOMAIN_SEPARATOR","inputs":[],"outputs":[{"name":"","type":"bytes32","internalType":"bytes32"}],"stateMutability":"view"},{"type":"function","name":"PERMIT_TYPEHASH","inputs":[],"outputs":[{"name":"","type":"bytes32","internalType":"bytes32"}],"stateMutability":"view"},{"type":"function","name":"allowance","inputs":[{"name":"","type":"address","internalType":"address"},{"name":"","type":"address","internalType":"address"}],"outputs":[{"name":"","type":"uint256","internalType":"uint256"}],"stateMutability":"view"},{"type":"function","name":"approve","inputs":[{"name":"usr","type":"address","internalType":"address"},{"name":"wad","type":"uint256","internalType":"uint256"}],"outputs":[{"name":"","type":"bool","internalType":"bool"}],"stateMutability":"nonpayable"},{"type":"function","name":"balanceOf","inputs":[{"name":"","type":"address","internalType":"address"}],"outputs":[{"name":"","type":"uint256","internalType":"uint256"}],"stateMutability":"view"},{"type":"function","name":"burn","inputs":[{"name":"usr","type":"address","internalType":"address"},{"name":"wad","type":"uint256","internalType":"uint256"}],"outputs":[],"stateMutability":"nonpayable"},{"type":"function","name":"decimals","inputs":[],"outputs":[{"name":"","type":"uint8","internalType":"uint8"}],"stateMutability":"view"},{"type":"function","name":"getStETHByWstETH","inputs":[{"name":"_wstETHAmount","type":"uint256","internalType":"uint256"}],"outputs":[{"name":"","type":"uint256","internalType":"uint256"}],"stateMutability":"view"},{"type":"function","name":"getWstETHByStETH","inputs":[{"name":"_stETHAmount","type":"uint256","internalType":"uint256"}],"outputs":[{"name":"","type":"uint256","internalType":"uint256"}],"stateMutability":"view"},{"type":"function","name":"mint","inputs":[{"name":"usr","type":"address","internalType":"address"},{"name":"wad","type":"uint256","internalType":"uint256"}],"outputs":[],"stateMutability":"nonpayable"},{"type":"function","name":"name","inputs":[],"outputs":[{"name":"","type":"string","internalType":"string"}],"stateMutability":"view"},{"type":"function","name":"nonces","inputs":[{"name":"","type":"address","internalType":"address"}],"outputs":[{"name":"","type":"uint256","internalType":"uint256"}],"stateMutability":"view"},{"type":"function","name":"permit","inputs":[{"name":"owner","type":"address","internalType":"address"},{"name":"spender","type":"address","internalType":"address"},{"name":"value","type":"uint256","internalType":"uint256"},{"name":"deadline","type":"uint256","internalType":"uint256"},{"name":"v","type":"uint8","internalType":"uint8"},{"name":"r","type":"bytes32","internalType":"bytes32"},{"name":"s","type":"bytes32","internalType":"bytes32"}],"outputs":[],"stateMutability":"nonpayable"},{"type":"function","name":"stEth","inputs":[],"outputs":[{"name":"","type":"address","internalType":"contract MockERC20"}],"stateMutability":"view"},{"type":"function","name":"stEthPerToken","inputs":[],"outputs":[{"name":"","type":"uint256","internalType":"uint256"}],"stateMutability":"view"},{"type":"function","name":"symbol","inputs":[],"outputs":[{"name":"","type":"string","internalType":"string"}],"stateMutability":"view"},{"type":"function","name":"tokensPerStEth","inputs":[],"outputs":[{"name":"","type":"uint256","internalType":"uint256"}],"stateMutability":"view"},{"type":"function","name":"totalSupply","inputs":[],"outputs":[{"name":"","type":"uint256","internalType":"uint256"}],"stateMutability":"view"},{"type":"function","name":"transfer","inputs":[{"name":"dst","type":"address","internalType":"address"},{"name":"wad","type":"uint256","internalType":"uint256"}],"outputs":[{"name":"","type":"bool","internalType":"bool"}],"stateMutability":"nonpayable"},{"type":"function","name":"transferFrom","inputs":[{"name":"src","type":"address","internalType":"address"},{"name":"dst","type":"address","internalType":"address"},{"name":"wad","type":"uint256","internalType":"uint256"}],"outputs":[{"name":"","type":"bool","internalType":"bool"}],"stateMutability":"nonpayable"},{"type":"function","name":"unwrap","inputs":[{"name":"_wstETHAmount","type":"uint256","internalType":"uint256"}],"outputs":[{"name":"","type":"uint256","internalType":"uint256"}],"stateMutability":"nonpayable"},{"type":"function","name":"wrap","inputs":[{"name":"_stETHAmount","type":"uint256","internalType":"uint256"}],"outputs":[{"name":"","type":"uint256","internalType":"uint256"}],"stateMutability":"nonpayable"},{"type":"event","name":"Approval","inputs":[{"name":"owner","type":"address","indexed":true,"internalType":"address"},{"name":"spender","type":"address","indexed":true,"internalType":"address"},{"name":"amount","type":"uint256","indexed":false,"internalType":"uint256"}],"anonymous":false},{"type":"event","name":"Transfer","inputs":[{"name":"from","type":"address","indexed":true,"internalType":"address"},{"name":"to","type":"address","indexed":true,"internalType":"address"},{"name":"amount","type":"uint256","indexed":false,"internalType":"uint256"}],"anonymous":false},{"type":"error","name":"TransferOutFailed","inputs":[]},{"type":"error","name":"Unsupported","inputs":[]}],"bytecode":{"object":"0x60c060405234801561000f575f80fd5b506040516111c83803806111c883398101604081905261002e9161014b565b6040518060600160405280602481526020016111a46024913960408051808201909152600a81526909adec6d6aee6e88aa8960b31b602082015260125f6100758482610210565b5060016100828382610210565b5060ff81166080526040517f8b73c3c69bb8fe3d512ecc4cf759cc79239f7b179b0ffacaa9a75d522b39400f906100ba905f906102cf565b60408051918290038220828201825260018352603160f81b6020938401528151928301939093528101919091527fc89efdaa54c0f20c7adf612882df0950f5a951637e0307cdcb4c672f298b8bc660608201524660808201523060a082015260c00160408051601f1981840301815291905280516020909101206006555050506001600160a01b031660a052610341565b5f6020828403121561015b575f80fd5b81516001600160a01b0381168114610171575f80fd5b9392505050565b634e487b7160e01b5f52604160045260245ffd5b600181811c908216806101a057607f821691505b6020821081036101be57634e487b7160e01b5f52602260045260245ffd5b50919050565b601f82111561020b57805f5260205f20601f840160051c810160208510156101e95750805b601f840160051c820191505b81811015610208575f81556001016101f5565b50505b505050565b81516001600160401b0381111561022957610229610178565b61023d81610237845461018c565b846101c4565b602080601f831160018114610270575f84156102595750858301515b5f19600386901b1c1916600185901b1785556102c7565b5f85815260208120601f198616915b8281101561029e5788860151825594840194600190910190840161027f565b50858210156102bb57878501515f19600388901b60f8161c191681555b505060018460011b0185555b505050505050565b5f8083546102dc8161018c565b600182811680156102f4576001811461030957610335565b60ff1984168752821515830287019450610335565b875f526020805f205f5b8581101561032c5781548a820152908401908201610313565b50505082870194505b50929695505050505050565b60805160a051610e346103705f395f8181610289015281816109c50152610a6201525f6101de0152610e345ff3fe608060405234801561000f575f80fd5b506004361061013d575f3560e01c80639576a0c8116100b4578063b0e3890011610079578063b0e38900146102d6578063bb2952fc146102e9578063d505accf146102fc578063dd62ed3e1461030f578063de0e9a3e14610339578063ea598cb01461034c575f80fd5b80639576a0c81461026e57806395d89b411461027c57806399940ece146102845780639dc29fac1461021b578063a9059cbb146102c3575f80fd5b806330adf81f1161010557806330adf81f146101b2578063313ce567146101d95780633644e5151461021257806340c10f191461021b57806370a08231146102305780637ecebe001461024f575f80fd5b8063035faf821461014157806306fdde031461015e578063095ea7b31461017357806318160ddd1461019657806323b872dd1461019f575b5f80fd5b67101d56e76d50be955b6040519081526020015b60405180910390f35b61016661035f565b6040516101559190610b89565b610186610181366004610bf0565b6103ea565b6040519015158152602001610155565b61014b60025481565b6101866101ad366004610c18565b610456565b61014b7f6e71edae12b1b97f4d1f60370fef10105fa2faae0126114a169c64845d6126c981565b6102007f000000000000000000000000000000000000000000000000000000000000000081565b60405160ff9091168152602001610155565b61014b60065481565b61022e610229366004610bf0565b61066b565b005b61014b61023e366004610c51565b60036020525f908152604090205481565b61014b61025d366004610c51565b60056020525f908152604090205481565b670bf392841b5dca9b61014b565b610166610684565b6102ab7f000000000000000000000000000000000000000000000000000000000000000081565b6040516001600160a01b039091168152602001610155565b6101866102d1366004610bf0565b610691565b61014b6102e4366004610c6a565b6106a4565b61014b6102f7366004610c6a565b6106cc565b61022e61030a366004610c81565b6106e4565b61014b61031d366004610cee565b600460209081525f928352604080842090915290825290205481565b61014b610347366004610c6a565b61092d565b61014b61035a366004610c6a565b610a3e565b5f805461036b90610d1f565b80601f016020809104026020016040519081016040528092919081815260200182805461039790610d1f565b80156103e25780601f106103b9576101008083540402835291602001916103e2565b820191905f5260205f20905b8154815290600101906020018083116103c557829003601f168201915b505050505081565b335f8181526004602090815260408083206001600160a01b038716808552925280832085905551919290917f8c5be1e5ebec7d5bd14f71427d1e84f3dd0314c0f7b2291e5b200ac8c7c3b925906104449086815260200190565b60405180910390a35060015b92915050565b6001600160a01b0383165f908152600360205260408120548211156104b95760405162461bcd60e51b8152602060048201526014602482015273696e73756666696369656e742d62616c616e636560601b60448201526064015b60405180910390fd5b6001600160a01b03841633148015906104f557506001600160a01b0384165f9081526004602090815260408083203384529091529020545f1914155b156105b6576001600160a01b0384165f9081526004602090815260408083203384529091529020548211156105655760405162461bcd60e51b8152602060048201526016602482015275696e73756666696369656e742d616c6c6f77616e636560501b60448201526064016104b0565b6001600160a01b0384165f9081526004602090815260408083203384529091529020546105929083610b57565b6001600160a01b0385165f9081526004602090815260408083203384529091529020555b6001600160a01b0384165f908152600360205260409020546105d89083610b57565b6001600160a01b038086165f9081526003602052604080822093909355908516815220546106069083610b70565b6001600160a01b038085165f8181526003602052604090819020939093559151908616907fddf252ad1be2c89b69c2b068fc378daa952ba7f163c4a11628f55a4df523b3ef906106599086815260200190565b60405180910390a35060019392505050565b604051634851657960e11b815260040160405180910390fd5b6001805461036b90610d1f565b5f61069d338484610456565b9392505050565b5f670de0b6b3a7640000670bf392841b5dca9b5b6106c29084610d6b565b6104509190610d82565b5f670de0b6b3a764000067101d56e76d50be956106b8565b4284101561071e5760405162461bcd60e51b81526020600482015260076024820152661156141254915160ca1b60448201526064016104b0565b6006546001600160a01b0388165f90815260056020526040812080549192917f6e71edae12b1b97f4d1f60370fef10105fa2faae0126114a169c64845d6126c9918b918b918b91908761077083610da1565b909155506040805160208101969096526001600160a01b0394851690860152929091166060840152608083015260a082015260c0810187905260e001604051602081830303815290604052805190602001206040516020016107e992919061190160f01b81526002810192909252602282015260420190565b60408051601f1981840301815282825280516020918201205f80855291840180845281905260ff88169284019290925260608301869052608083018590529092509060019060a0016020604051602081039080840390855afa158015610851573d5f803e3d5ffd5b5050604051601f1901519150506001600160a01b038116158015906108875750886001600160a01b0316816001600160a01b0316145b6108c75760405162461bcd60e51b8152602060048201526011602482015270494e56414c49445f5349474e415455524560781b60448201526064016104b0565b6001600160a01b038981165f818152600460209081526040808320948d16808452948252918290208b905590518a81527f8c5be1e5ebec7d5bd14f71427d1e84f3dd0314c0f7b2291e5b200ac8c7c3b925910160405180910390a3505050505050505050565b335f908152600360205260408120546109469083610b57565b335f908152600360205260409020556002546109629083610b57565b6002556040518281525f9033907fddf252ad1be2c89b69c2b068fc378daa952ba7f163c4a11628f55a4df523b3ef9060200160405180910390a35f6109a6836106cc565b60405163a9059cbb60e01b8152336004820152602481018290529091507f00000000000000000000000000000000000000000000000000000000000000006001600160a01b03169063a9059cbb906044016020604051808303815f875af1158015610a13573d5f803e3d5ffd5b505050506040513d601f19601f82011682018060405250810190610a379190610db9565b5092915050565b6040516323b872dd60e01b8152336004820152306024820152604481018290525f907f00000000000000000000000000000000000000000000000000000000000000006001600160a01b0316906323b872dd906064016020604051808303815f875af1158015610ab0573d5f803e3d5ffd5b505050506040513d601f19601f82011682018060405250810190610ad49190610db9565b505f610adf836106a4565b335f90815260036020526040902054909150610afb9082610b70565b335f90815260036020526040902055600254610b179082610b70565b60025560405181815233905f907fddf252ad1be2c89b69c2b068fc378daa952ba7f163c4a11628f55a4df523b3ef9060200160405180910390a392915050565b5f82610b638382610dd8565b9150811115610450575f80fd5b5f82610b7c8382610deb565b9150811015610450575f80fd5b5f602080835283518060208501525f5b81811015610bb557858101830151858201604001528201610b99565b505f604082860101526040601f19601f8301168501019250505092915050565b80356001600160a01b0381168114610beb575f80fd5b919050565b5f8060408385031215610c01575f80fd5b610c0a83610bd5565b946020939093013593505050565b5f805f60608486031215610c2a575f80fd5b610c3384610bd5565b9250610c4160208501610bd5565b9150604084013590509250925092565b5f60208284031215610c61575f80fd5b61069d82610bd5565b5f60208284031215610c7a575f80fd5b5035919050565b5f805f805f805f60e0888a031215610c97575f80fd5b610ca088610bd5565b9650610cae60208901610bd5565b95506040880135945060608801359350608088013560ff81168114610cd1575f80fd5b9699959850939692959460a0840135945060c09093013592915050565b5f8060408385031215610cff575f80fd5b610d0883610bd5565b9150610d1660208401610bd5565b90509250929050565b600181811c90821680610d3357607f821691505b602082108103610d5157634e487b7160e01b5f52602260045260245ffd5b50919050565b634e487b7160e01b5f52601160045260245ffd5b808202811582820484141761045057610450610d57565b5f82610d9c57634e487b7160e01b5f52601260045260245ffd5b500490565b5f60018201610db257610db2610d57565b5060010190565b5f60208284031215610dc9575f80fd5b8151801515811461069d575f80fd5b8181038181111561045057610450610d57565b8082018082111561045057610450610d5756fea264697066735822122017630ed9c4c0dbee5b3c5e6852064477e7690af84030798257d3038dbc51669164736f6c634300081900334d6f636b2057726170706564206c6971756964207374616b656420457468657220322e30","linkReferences":{}},"methodIdentifiers":{"DOMAIN_SEPARATOR()":"3644e515","PERMIT_TYPEHASH()":"30adf81f","allowance(address,address)":"dd62ed3e","approve(address,uint256)":"095ea7b3","balanceOf(address)":"70a08231","burn(address,uint256)":"9dc29fac","decimals()":"313ce567","getStETHByWstETH(uint256)":"bb2952fc","getWstETHByStETH(uint256)":"b0e38900","mint(address,uint256)":"40c10f19","name()":"06fdde03","nonces(address)":"7ecebe00","permit(address,address,uint256,uint256,uint8,bytes32,bytes32)":"d505accf","stEth()":"99940ece","stEthPerToken()":"035faf82","symbol()":"95d89b41","tokensPerStEth()":"9576a0c8","totalSupply()":"18160ddd","transfer(address,uint256)":"a9059cbb","transferFrom(address,address,uint256)":"23b872dd","unwrap(uint256)":"de0e9a3e","wrap(uint256)":"ea598cb0"},"id":14}