{
  "abi": [
    {
      "inputs": [
        {
          "internalType": "address",
          "name": "_allo",
          "type": "address"
        },
        {
          "internalType": "string",
          "name": "_name",
          "type": "string"
        },
        {
          "internalType": "contract ISignatureTransfer",
          "name": "_permit2",
          "type": "address"
        }
      ],
      "stateMutability": "nonpayable",
      "type": "constructor"
    },
    {
      "inputs": [],
      "name": "ALLOCATION_ACTIVE",
      "type": "error"
    },
    {
      "inputs": [],
      "name": "ALLOCATION_NOT_ACTIVE",
      "type": "error"
    },
    {
      "inputs": [],
      "name": "ALLOCATION_NOT_ENDED",
      "type": "error"
    },
    {
      "inputs": [],
      "name": "ALREADY_INITIALIZED",
      "type": "error"
    },
    {
      "inputs": [],
      "name": "AMOUNT_MISMATCH",
      "type": "error"
    },
    {
      "inputs": [],
      "name": "ANCHOR_ERROR",
      "type": "error"
    },
    {
      "inputs": [],
      "name": "ARRAY_MISMATCH",
      "type": "error"
    },
    {
      "inputs": [],
      "name": "INVALID",
      "type": "error"
    },
    {
      "inputs": [],
      "name": "INVALID_ADDRESS",
      "type": "error"
    },
    {
      "inputs": [],
      "name": "INVALID_FEE",
      "type": "error"
    },
    {
      "inputs": [],
      "name": "INVALID_METADATA",
      "type": "error"
    },
    {
      "inputs": [],
      "name": "INVALID_REGISTRATION",
      "type": "error"
    },
    {
      "inputs": [],
      "name": "IS_APPROVED_STRATEGY",
      "type": "error"
    },
    {
      "inputs": [],
      "name": "MISMATCH",
      "type": "error"
    },
    {
      "inputs": [],
      "name": "NONCE_NOT_AVAILABLE",
      "type": "error"
    },
    {
      "inputs": [],
      "name": "NOT_APPROVED_STRATEGY",
      "type": "error"
    },
    {
      "inputs": [],
      "name": "NOT_ENOUGH_FUNDS",
      "type": "error"
    },
    {
      "inputs": [],
      "name": "NOT_INITIALIZED",
      "type": "error"
    },
    {
      "inputs": [],
      "name": "NOT_PENDING_OWNER",
      "type": "error"
    },
    {
      "inputs": [],
      "name": "POOL_ACTIVE",
      "type": "error"
    },
    {
      "inputs": [],
      "name": "POOL_INACTIVE",
      "type": "error"
    },
    {
      "inputs": [],
      "name": "RECIPIENT_ALREADY_ACCEPTED",
      "type": "error"
    },
    {
      "inputs": [
        {
          "internalType": "address",
          "name": "recipientId",
          "type": "address"
        }
      ],
      "name": "RECIPIENT_ERROR",
      "type": "error"
    },
    {
      "inputs": [],
      "name": "RECIPIENT_NOT_ACCEPTED",
      "type": "error"
    },
    {
      "inputs": [],
      "name": "REGISTRATION_NOT_ACTIVE",
      "type": "error"
    },
    {
      "inputs": [],
      "name": "UNAUTHORIZED",
      "type": "error"
    },
    {
      "inputs": [],
      "name": "ZERO_ADDRESS",
      "type": "error"
    },
    {
      "anonymous": false,
      "inputs": [
        {
          "indexed": true,
          "internalType": "address",
          "name": "recipientId",
          "type": "address"
        },
        {
          "indexed": false,
          "internalType": "uint256",
          "name": "amount",
          "type": "uint256"
        },
        {
          "indexed": false,
          "internalType": "address",
          "name": "token",
          "type": "address"
        },
        {
          "indexed": false,
          "internalType": "address",
          "name": "sender",
          "type": "address"
        }
      ],
      "name": "Allocated",
      "type": "event"
    },
    {
      "anonymous": false,
      "inputs": [
        {
          "indexed": true,
          "internalType": "address",
          "name": "sender",
          "type": "address"
        }
      ],
      "name": "BatchPayoutSuccessful",
      "type": "event"
    },
    {
      "anonymous": false,
      "inputs": [
        {
          "indexed": true,
          "internalType": "address",
          "name": "recipientId",
          "type": "address"
        },
        {
          "indexed": false,
          "internalType": "address",
          "name": "recipientAddress",
          "type": "address"
        },
        {
          "indexed": false,
          "internalType": "uint256",
          "name": "amount",
          "type": "uint256"
        },
        {
          "indexed": false,
          "internalType": "address",
          "name": "sender",
          "type": "address"
        }
      ],
      "name": "Distributed",
      "type": "event"
    },
    {
      "anonymous": false,
      "inputs": [
        {
          "indexed": false,
          "internalType": "bytes32",
          "name": "merkleRoot",
          "type": "bytes32"
        },
        {
          "components": [
            {
              "internalType": "uint256",
              "name": "protocol",
              "type": "uint256"
            },
            {
              "internalType": "string",
              "name": "pointer",
              "type": "string"
            }
          ],
          "indexed": false,
          "internalType": "struct Metadata",
          "name": "metadata",
          "type": "tuple"
        }
      ],
      "name": "DistributionUpdated",
      "type": "event"
    },
    {
      "anonymous": false,
      "inputs": [
        {
          "indexed": false,
          "internalType": "uint256",
          "name": "amount",
          "type": "uint256"
        },
        {
          "indexed": false,
          "internalType": "address",
          "name": "grantee",
          "type": "address"
        },
        {
          "indexed": true,
          "internalType": "address",
          "name": "token",
          "type": "address"
        },
        {
          "indexed": true,
          "internalType": "address",
          "name": "recipientId",
          "type": "address"
        }
      ],
      "name": "FundsDistributed",
      "type": "event"
    },
    {
      "anonymous": false,
      "inputs": [
        {
          "indexed": false,
          "internalType": "address",
          "name": "allo",
          "type": "address"
        },
        {
          "indexed": false,
          "internalType": "bytes32",
          "name": "profileId",
          "type": "bytes32"
        },
        {
          "indexed": false,
          "internalType": "uint256",
          "name": "poolId",
          "type": "uint256"
        },
        {
          "indexed": false,
          "internalType": "bytes",
          "name": "data",
          "type": "bytes"
        }
      ],
      "name": "Initialized",
      "type": "event"
    },
    {
      "anonymous": false,
      "inputs": [
        {
          "indexed": false,
          "internalType": "bool",
          "name": "active",
          "type": "bool"
        }
      ],
      "name": "PoolActive",
      "type": "event"
    },
    {
      "anonymous": false,
      "inputs": [
        {
          "indexed": true,
          "internalType": "uint256",
          "name": "rowIndex",
          "type": "uint256"
        },
        {
          "indexed": false,
          "internalType": "uint256",
          "name": "fullRow",
          "type": "uint256"
        },
        {
          "indexed": false,
          "internalType": "address",
          "name": "sender",
          "type": "address"
        }
      ],
      "name": "RecipientStatusUpdated",
      "type": "event"
    },
    {
      "anonymous": false,
      "inputs": [
        {
          "indexed": true,
          "internalType": "address",
          "name": "recipientId",
          "type": "address"
        },
        {
          "indexed": false,
          "internalType": "bytes",
          "name": "data",
          "type": "bytes"
        },
        {
          "indexed": false,
          "internalType": "address",
          "name": "sender",
          "type": "address"
        }
      ],
      "name": "Registered",
      "type": "event"
    },
    {
      "anonymous": false,
      "inputs": [
        {
          "indexed": false,
          "internalType": "uint64",
          "name": "registrationStartTime",
          "type": "uint64"
        },
        {
          "indexed": false,
          "internalType": "uint64",
          "name": "registrationEndTime",
          "type": "uint64"
        },
        {
          "indexed": false,
          "internalType": "uint64",
          "name": "allocationStartTime",
          "type": "uint64"
        },
        {
          "indexed": false,
          "internalType": "uint64",
          "name": "allocationEndTime",
          "type": "uint64"
        },
        {
          "indexed": false,
          "internalType": "address",
          "name": "sender",
          "type": "address"
        }
      ],
      "name": "TimestampsUpdated",
      "type": "event"
    },
    {
      "anonymous": false,
      "inputs": [
        {
          "indexed": true,
          "internalType": "address",
          "name": "recipientId",
          "type": "address"
        },
        {
          "indexed": false,
          "internalType": "bytes",
          "name": "data",
          "type": "bytes"
        },
        {
          "indexed": false,
          "internalType": "address",
          "name": "sender",
          "type": "address"
        },
        {
          "indexed": false,
          "internalType": "uint8",
          "name": "status",
          "type": "uint8"
        }
      ],
      "name": "UpdatedRegistration",
      "type": "event"
    },
    {
      "inputs": [],
      "name": "NATIVE",
      "outputs": [
        {
          "internalType": "address",
          "name": "",
          "type": "address"
        }
      ],
      "stateMutability": "view",
      "type": "function"
    },
    {
      "inputs": [],
      "name": "PERMIT2",
      "outputs": [
        {
          "internalType": "contract ISignatureTransfer",
          "name": "",
          "type": "address"
        }
      ],
      "stateMutability": "view",
      "type": "function"
    },
    {
      "inputs": [
        {
          "internalType": "bytes",
          "name": "_data",
          "type": "bytes"
        },
        {
          "internalType": "address",
          "name": "_sender",
          "type": "address"
        }
      ],
      "name": "allocate",
      "outputs": [],
      "stateMutability": "payable",
      "type": "function"
    },
    {
      "inputs": [],
      "name": "allocationEndTime",
      "outputs": [
        {
          "internalType": "uint64",
          "name": "",
          "type": "uint64"
        }
      ],
      "stateMutability": "view",
      "type": "function"
    },
    {
      "inputs": [],
      "name": "allocationStartTime",
      "outputs": [
        {
          "internalType": "uint64",
          "name": "",
          "type": "uint64"
        }
      ],
      "stateMutability": "view",
      "type": "function"
    },
    {
      "inputs": [
        {
          "internalType": "address",
          "name": "",
          "type": "address"
        }
      ],
      "name": "allowedTokens",
      "outputs": [
        {
          "internalType": "bool",
          "name": "",
          "type": "bool"
        }
      ],
      "stateMutability": "view",
      "type": "function"
    },
    {
      "inputs": [
        {
          "internalType": "address[]",
          "name": "_recipientIds",
          "type": "address[]"
        },
        {
          "internalType": "bytes",
          "name": "_data",
          "type": "bytes"
        },
        {
          "internalType": "address",
          "name": "_sender",
          "type": "address"
        }
      ],
      "name": "distribute",
      "outputs": [],
      "stateMutability": "nonpayable",
      "type": "function"
    },
    {
      "inputs": [],
      "name": "distributionMetadata",
      "outputs": [
        {
          "internalType": "uint256",
          "name": "protocol",
          "type": "uint256"
        },
        {
          "internalType": "string",
          "name": "pointer",
          "type": "string"
        }
      ],
      "stateMutability": "view",
      "type": "function"
    },
    {
      "inputs": [],
      "name": "distributionStarted",
      "outputs": [
        {
          "internalType": "bool",
          "name": "",
          "type": "bool"
        }
      ],
      "stateMutability": "view",
      "type": "function"
    },
    {
      "inputs": [],
      "name": "getAllo",
      "outputs": [
        {
          "internalType": "contract IAllo",
          "name": "",
          "type": "address"
        }
      ],
      "stateMutability": "view",
      "type": "function"
    },
    {
      "inputs": [
        {
          "internalType": "address[]",
          "name": "_recipientIds",
          "type": "address[]"
        },
        {
          "internalType": "bytes[]",
          "name": "_data",
          "type": "bytes[]"
        }
      ],
      "name": "getPayouts",
      "outputs": [
        {
          "components": [
            {
              "internalType": "address",
              "name": "recipientAddress",
              "type": "address"
            },
            {
              "internalType": "uint256",
              "name": "amount",
              "type": "uint256"
            }
          ],
          "internalType": "struct IStrategy.PayoutSummary[]",
          "name": "",
          "type": "tuple[]"
        }
      ],
      "stateMutability": "view",
      "type": "function"
    },
    {
      "inputs": [],
      "name": "getPoolAmount",
      "outputs": [
        {
          "internalType": "uint256",
          "name": "",
          "type": "uint256"
        }
      ],
      "stateMutability": "view",
      "type": "function"
    },
    {
      "inputs": [],
      "name": "getPoolId",
      "outputs": [
        {
          "internalType": "uint256",
          "name": "",
          "type": "uint256"
        }
      ],
      "stateMutability": "view",
      "type": "function"
    },
    {
      "inputs": [
        {
          "internalType": "address",
          "name": "_recipientId",
          "type": "address"
        }
      ],
      "name": "getRecipient",
      "outputs": [
        {
          "components": [
            {
              "internalType": "bool",
              "name": "useRegistryAnchor",
              "type": "bool"
            },
            {
              "internalType": "address",
              "name": "recipientAddress",
              "type": "address"
            },
            {
              "components": [
                {
                  "internalType": "uint256",
                  "name": "protocol",
                  "type": "uint256"
                },
                {
                  "internalType": "string",
                  "name": "pointer",
                  "type": "string"
                }
              ],
              "internalType": "struct Metadata",
              "name": "metadata",
              "type": "tuple"
            }
          ],
          "internalType": "struct DonationVotingMerkleDistributionBaseStrategy.Recipient",
          "name": "recipient",
          "type": "tuple"
        }
      ],
      "stateMutability": "view",
      "type": "function"
    },
    {
      "inputs": [
        {
          "internalType": "address",
          "name": "_recipientId",
          "type": "address"
        }
      ],
      "name": "getRecipientStatus",
      "outputs": [
        {
          "internalType": "enum IStrategy.Status",
          "name": "",
          "type": "uint8"
        }
      ],
      "stateMutability": "view",
      "type": "function"
    },
    {
      "inputs": [],
      "name": "getStrategyId",
      "outputs": [
        {
          "internalType": "bytes32",
          "name": "",
          "type": "bytes32"
        }
      ],
      "stateMutability": "view",
      "type": "function"
    },
    {
      "inputs": [
        {
          "internalType": "uint256",
          "name": "_index",
          "type": "uint256"
        }
      ],
      "name": "hasBeenDistributed",
      "outputs": [
        {
          "internalType": "bool",
          "name": "",
          "type": "bool"
        }
      ],
      "stateMutability": "view",
      "type": "function"
    },
    {
      "inputs": [
        {
          "internalType": "uint256",
          "name": "_amount",
          "type": "uint256"
        }
      ],
      "name": "increasePoolAmount",
      "outputs": [],
      "stateMutability": "nonpayable",
      "type": "function"
    },
    {
      "inputs": [
        {
          "internalType": "uint256",
          "name": "_poolId",
          "type": "uint256"
        },
        {
          "internalType": "bytes",
          "name": "_data",
          "type": "bytes"
        }
      ],
      "name": "initialize",
      "outputs": [],
      "stateMutability": "nonpayable",
      "type": "function"
    },
    {
      "inputs": [],
      "name": "isDistributionSet",
      "outputs": [
        {
          "internalType": "bool",
          "name": "",
          "type": "bool"
        }
      ],
      "stateMutability": "view",
      "type": "function"
    },
    {
      "inputs": [],
      "name": "isPoolActive",
      "outputs": [
        {
          "internalType": "bool",
          "name": "",
          "type": "bool"
        }
      ],
      "stateMutability": "view",
      "type": "function"
    },
    {
      "inputs": [
        {
          "internalType": "address",
          "name": "_allocator",
          "type": "address"
        }
      ],
      "name": "isValidAllocator",
      "outputs": [
        {
          "internalType": "bool",
          "name": "",
          "type": "bool"
        }
      ],
      "stateMutability": "view",
      "type": "function"
    },
    {
      "inputs": [],
      "name": "merkleRoot",
      "outputs": [
        {
          "internalType": "bytes32",
          "name": "",
          "type": "bytes32"
        }
      ],
      "stateMutability": "view",
      "type": "function"
    },
    {
      "inputs": [],
      "name": "metadataRequired",
      "outputs": [
        {
          "internalType": "bool",
          "name": "",
          "type": "bool"
        }
      ],
      "stateMutability": "view",
      "type": "function"
    },
    {
      "inputs": [
        {
          "internalType": "bytes[]",
          "name": "data",
          "type": "bytes[]"
        }
      ],
      "name": "multicall",
      "outputs": [
        {
          "internalType": "bytes[]",
          "name": "results",
          "type": "bytes[]"
        }
      ],
      "stateMutability": "nonpayable",
      "type": "function"
    },
    {
      "inputs": [
        {
          "internalType": "address",
          "name": "",
          "type": "address"
        }
      ],
      "name": "recipientToStatusIndexes",
      "outputs": [
        {
          "internalType": "uint256",
          "name": "",
          "type": "uint256"
        }
      ],
      "stateMutability": "view",
      "type": "function"
    },
    {
      "inputs": [],
      "name": "recipientsCounter",
      "outputs": [
        {
          "internalType": "uint256",
          "name": "",
          "type": "uint256"
        }
      ],
      "stateMutability": "view",
      "type": "function"
    },
    {
      "inputs": [
        {
          "internalType": "bytes",
          "name": "_data",
          "type": "bytes"
        },
        {
          "internalType": "address",
          "name": "_sender",
          "type": "address"
        }
      ],
      "name": "registerRecipient",
      "outputs": [
        {
          "internalType": "address",
          "name": "recipientId",
          "type": "address"
        }
      ],
      "stateMutability": "payable",
      "type": "function"
    },
    {
      "inputs": [],
      "name": "registrationEndTime",
      "outputs": [
        {
          "internalType": "uint64",
          "name": "",
          "type": "uint64"
        }
      ],
      "stateMutability": "view",
      "type": "function"
    },
    {
      "inputs": [],
      "name": "registrationStartTime",
      "outputs": [
        {
          "internalType": "uint64",
          "name": "",
          "type": "uint64"
        }
      ],
      "stateMutability": "view",
      "type": "function"
    },
    {
      "inputs": [
        {
          "components": [
            {
              "internalType": "uint256",
              "name": "index",
              "type": "uint256"
            },
            {
              "internalType": "uint256",
              "name": "statusRow",
              "type": "uint256"
            }
          ],
          "internalType": "struct DonationVotingMerkleDistributionBaseStrategy.ApplicationStatus[]",
          "name": "statuses",
          "type": "tuple[]"
        }
      ],
      "name": "reviewRecipients",
      "outputs": [],
      "stateMutability": "nonpayable",
      "type": "function"
    },
    {
      "inputs": [
        {
          "internalType": "uint256",
          "name": "",
          "type": "uint256"
        }
      ],
      "name": "statusesBitMap",
      "outputs": [
        {
          "internalType": "uint256",
          "name": "",
          "type": "uint256"
        }
      ],
      "stateMutability": "view",
      "type": "function"
    },
    {
      "inputs": [],
      "name": "totalPayoutAmount",
      "outputs": [
        {
          "internalType": "uint256",
          "name": "",
          "type": "uint256"
        }
      ],
      "stateMutability": "view",
      "type": "function"
    },
    {
      "inputs": [
        {
          "internalType": "bytes32",
          "name": "_merkleRoot",
          "type": "bytes32"
        },
        {
          "components": [
            {
              "internalType": "uint256",
              "name": "protocol",
              "type": "uint256"
            },
            {
              "internalType": "string",
              "name": "pointer",
              "type": "string"
            }
          ],
          "internalType": "struct Metadata",
          "name": "_distributionMetadata",
          "type": "tuple"
        }
      ],
      "name": "updateDistribution",
      "outputs": [],
      "stateMutability": "nonpayable",
      "type": "function"
    },
    {
      "inputs": [
        {
          "internalType": "uint64",
          "name": "_registrationStartTime",
          "type": "uint64"
        },
        {
          "internalType": "uint64",
          "name": "_registrationEndTime",
          "type": "uint64"
        },
        {
          "internalType": "uint64",
          "name": "_allocationStartTime",
          "type": "uint64"
        },
        {
          "internalType": "uint64",
          "name": "_allocationEndTime",
          "type": "uint64"
        }
      ],
      "name": "updatePoolTimestamps",
      "outputs": [],
      "stateMutability": "nonpayable",
      "type": "function"
    },
    {
      "inputs": [],
      "name": "useRegistryAnchor",
      "outputs": [
        {
          "internalType": "bool",
          "name": "",
          "type": "bool"
        }
      ],
      "stateMutability": "view",
      "type": "function"
    },
    {
      "inputs": [
        {
          "internalType": "uint256",
          "name": "_amount",
          "type": "uint256"
        }
      ],
      "name": "withdraw",
      "outputs": [],
      "stateMutability": "nonpayable",
      "type": "function"
    },
    {
      "stateMutability": "payable",
      "type": "receive"
    }
  ],
  "bytecode": {
    "object": "0x60e06040523480156200001157600080fd5b5060405162003a6a38038062003a6a833981016040819052620000349162000122565b6001600160a01b038316608052604051839083908390839083906200005e90829060200162000204565b60408051601f19818403018152919052805160209091012060a05250506001600160a01b038116620000a35760405163538ba4f960e01b815260040160405180910390fd5b6001600160a01b031660c05250620002399350505050565b6001600160a01b0381168114620000d157600080fd5b50565b634e487b7160e01b600052604160045260246000fd5b60005b8381101562000107578181015183820152602001620000ed565b50506000910152565b80516200011d81620000bb565b919050565b6000806000606084860312156200013857600080fd5b83516200014581620000bb565b60208501519093506001600160401b03808211156200016357600080fd5b818601915086601f8301126200017857600080fd5b8151818111156200018d576200018d620000d4565b604051601f8201601f19908116603f01168101908382118183101715620001b857620001b8620000d4565b81604052828152896020848701011115620001d257600080fd5b620001e5836020830160208801620000ea565b8096505050505050620001fb6040850162000110565b90509250925092565b602081526000825180602084015262000225816040850160208701620000ea565b601f01601f19169190910160400192915050565b60805160a05160c0516137de6200028c6000396000610546015260006103f70152600081816102eb0152818161098801528181610f0e01528181611086015281816118ee0152611dc601526137de6000f3fe60806040526004361061026e5760003560e01c806362812a3911610153578063d2e17f59116100cb578063eb11af931161007f578063ef2920fc11610064578063ef2920fc1461075f578063f5b0dfb714610772578063f6f258911461079257600080fd5b8063eb11af9314610712578063edd146cc1461073f57600080fd5b8063dff7d2c7116100b0578063dff7d2c7146106a4578063e744092e146106cc578063e7efcfc2146106fc57600080fd5b8063d2e17f5914610667578063df868ed31461068f57600080fd5b80639af5c09d11610122578063ac9650d811610107578063ac9650d8146105ee578063b2b878d01461061b578063cb0e85a61461064857600080fd5b80639af5c09d1461059e578063a0cf0aea146105c657600080fd5b806362812a39146105075780636afdd8501461053457806373af34531461056857806395355b3b1461058857600080fd5b806338fff2d0116101e65780634ab4ba42116101b5578063570897391161019a57806357089739146104aa57806359a3977b146104c45780635f1b55f3146104e757600080fd5b80634ab4ba42146104755780634d31d0871461048a57600080fd5b806338fff2d0146103d357806342fda9c7146103e85780634533d6781461041b578063465831cd1461045557600080fd5b8063217550881161023d5780632d52eff2116102225780632d52eff2146103865780632e1a7d4d1461039d5780632eb4a7ab146103bd57600080fd5b806321755088146103435780632bbe0cae1461037357600080fd5b806301fc1c641461027a5780630a6f0ee9146102ba57806315cc481e146102dc5780632143e92f1461032357600080fd5b3661027557005b600080fd5b34801561028657600080fd5b506102a76102953660046124f6565b600c6020526000908152604090205481565b6040519081526020015b60405180910390f35b3480156102c657600080fd5b506102da6102d536600461272f565b6107bf565b005b3480156102e857600080fd5b507f00000000000000000000000000000000000000000000000000000000000000005b6040516001600160a01b0390911681526020016102b1565b34801561032f57600080fd5b506102da61033e3660046127bd565b6107df565b34801561034f57600080fd5b506005546103639062010000900460ff1681565b60405190151581526020016102b1565b61030b610381366004612819565b6108f9565b34801561039257600080fd5b50600a541515610363565b3480156103a957600080fd5b506102da6103b836600461286b565b61091e565b3480156103c957600080fd5b506102a7600a5481565b3480156103df57600080fd5b506001546102a7565b3480156103f457600080fd5b507f00000000000000000000000000000000000000000000000000000000000000006102a7565b34801561042757600080fd5b5060065461043c9067ffffffffffffffff1681565b60405167ffffffffffffffff90911681526020016102b1565b34801561046157600080fd5b506102da610470366004612884565b610a50565b34801561048157600080fd5b506002546102a7565b34801561049657600080fd5b506103636104a53660046124f6565b610b0c565b3480156104b657600080fd5b506005546103639060ff1681565b3480156104d057600080fd5b506104d9610b15565b6040516102b192919061298a565b3480156104f357600080fd5b5061036361050236600461286b565b610bac565b34801561051357600080fd5b506105276105223660046124f6565b610bb7565b6040516102b191906129a3565b34801561054057600080fd5b5061030b7f000000000000000000000000000000000000000000000000000000000000000081565b34801561057457600080fd5b506102da6105833660046129f2565b610bc8565b34801561059457600080fd5b506102a760085481565b3480156105aa57600080fd5b5060055461043c906301000000900467ffffffffffffffff1681565b3480156105d257600080fd5b5061030b73eeeeeeeeeeeeeeeeeeeeeeeeeeeeeeeeeeeeeeee81565b3480156105fa57600080fd5b5061060e610609366004612a8c565b610c6a565b6040516102b19190612b01565b34801561062757600080fd5b5061063b610636366004612b63565b610d5f565b6040516102b19190612c38565b34801561065457600080fd5b5060055461036390610100900460ff1681565b34801561067357600080fd5b5060055461043c90600160981b900467ffffffffffffffff1681565b34801561069b57600080fd5b50610363610e77565b3480156106b057600080fd5b5060055461043c90600160581b900467ffffffffffffffff1681565b3480156106d857600080fd5b506103636106e73660046124f6565b600e6020526000908152604090205460ff1681565b34801561070857600080fd5b506102a760075481565b34801561071e57600080fd5b5061073261072d3660046124f6565b610e86565b6040516102b19190612ca6565b34801561074b57600080fd5b506102da61075a366004612cce565b610e91565b6102da61076d366004612819565b610ebb565b34801561077e57600080fd5b506102da61078d36600461286b565b610ed9565b34801561079e57600080fd5b506102a76107ad36600461286b565b600b6020526000908152604090205481565b6107c7610f03565b6107cf610f4e565b6107da838383610f8a565b505050565b336107e981611043565b6107f58585858561110e565b6005805472ffffffffffffffffffffffffffffffff0000001916630100000067ffffffffffffffff888116820272ffffffffffffffff0000000000000000000000191692909217600160581b8884168102919091177fffffffffff0000000000000000ffffffffffffffffffffffffffffffffffffff16600160981b888516810291909117948590556006805467ffffffffffffffff191688861690811790915560408051948704861685529286048516602085015294049092169181019190915260608101919091523360808201527fcb0fb7a7b87db2f472ee8977444cfdbc51993ce660aca27a5969a724fae6dcf39060a00160405180910390a15050505050565b6000610903610f03565b61090b610f4e565b61091583836111b7565b90505b92915050565b3361092881611043565b6006546109429067ffffffffffffffff1662278d00612d2b565b67ffffffffffffffff16421161096b57604051637fcce2a960e01b815260040160405180910390fd5b60015460405163068bcd8d60e01b81526000916001600160a01b037f0000000000000000000000000000000000000000000000000000000000000000169163068bcd8d916109bf9160040190815260200190565b600060405180830381865afa1580156109dc573d6000803e3d6000fd5b505050506040513d6000823e601f3d908101601f19168201604052610a049190810190612df3565b9050600254831115610a2957604051637fcce2a960e01b815260040160405180910390fd5b8260026000828254610a3b9190612ea7565b909155505060408101516107da903385611514565b610a58611559565b33610a6281611043565b60005b82518110156107da576000838281518110610a8257610a82612eba565b60200260200101516000015190506000848381518110610aa457610aa4612eba565b6020908102919091018101518101516000848152600b83526040908190208290558051828152339381019390935290925083917f941884a9a55191a7401466aaf8a0d2b7c8b082055a5a2b345b83c73940172ac4910160405180910390a25050600101610a65565b60006001610918565b6003805460048054919291610b2990612ed0565b80601f0160208091040260200160405190810160405280929190818152602001828054610b5590612ed0565b8015610ba25780601f10610b7757610100808354040283529160200191610ba2565b820191906000526020600020905b815481529060010190602001808311610b8557829003601f168201915b5050505050905082565b6000610918826115c4565b610bbf61249b565b61091882611605565b610bd06116fe565b33610bda81611043565b60055462010000900460ff1615610c0457604051637fcce2a960e01b815260040160405180910390fd5b600a839055815160039081556020830151839190600490610c259082612f50565b509050507fdc7180ca4affc84269428ed20ef950e745126f11691b010c4a7d49458421008f600a546003604051610c5d929190613010565b60405180910390a1505050565b60608167ffffffffffffffff811115610c8557610c8561251a565b604051908082528060200260200182016040528015610cb857816020015b6060815260200190600190039081610ca35790505b50905060005b82811015610d5857610d2830858584818110610cdc57610cdc612eba565b9050602002810190610cee91906130b5565b8080601f01602080910402602001604051908101604052809392919081815260200183838082843760009201919091525061174492505050565b828281518110610d3a57610d3a612eba565b60200260200101819052508080610d5090613103565b915050610cbe565b5092915050565b81518151606091908114610d9f576040517f7b49805600000000000000000000000000000000000000000000000000000000815260040160405180910390fd5b60008167ffffffffffffffff811115610dba57610dba61251a565b604051908082528060200260200182016040528015610dff57816020015b6040805180820190915260008082526020820152815260200190600190039081610dd85790505b50905060005b82811015610e6e57610e49868281518110610e2257610e22612eba565b6020026020010151868381518110610e3c57610e3c612eba565b6020026020010151611769565b828281518110610e5b57610e5b612eba565b6020908102919091010152600101610e05565b50949350505050565b6000610e81611824565b905090565b60006109188261186f565b610e99610f03565b600081806020019051810190610eaf919061319b565b90506107da838261188e565b610ec3610f03565b610ecb610f4e565b610ed58282611b7e565b5050565b610ee1610f03565b8060026000828254610ef3919061326e565b90915550610f0090508181565b50565b336001600160a01b037f00000000000000000000000000000000000000000000000000000000000000001614610f4c5760405163075fd2b160e01b815260040160405180910390fd5b565b600154600003610f4c576040517f3da3f98c00000000000000000000000000000000000000000000000000000000815260040160405180910390fd5b80610f9481611043565b60055462010000900460ff16610fb6576005805462ff00001916620100001790555b600083806020019051810190610fcc9190613344565b805190915060005b8181101561100657610ffe838281518110610ff157610ff1612eba565b6020026020010151611d5d565b600101610fd4565b506040516001600160a01b038516907f7ec3272052827f7b50d9e84f98172cbb80c112df1e377c5b97ea77f1812db8d990600090a2505050505050565b6001546040517f29e40d4b00000000000000000000000000000000000000000000000000000000815260048101919091526001600160a01b0382811660248301527f000000000000000000000000000000000000000000000000000000000000000016906329e40d4b90604401602060405180830381865afa1580156110cd573d6000803e3d6000fd5b505050506040513d601f19601f820116820180604052508101906110f191906133f5565b610f005760405163075fd2b160e01b815260040160405180910390fd5b8367ffffffffffffffff1642118061113957508267ffffffffffffffff168467ffffffffffffffff16115b8061115757508167ffffffffffffffff168467ffffffffffffffff16115b8061117557508067ffffffffffffffff168267ffffffffffffffff16115b8061119357508067ffffffffffffffff168367ffffffffffffffff16115b156111b157604051637fcce2a960e01b815260040160405180910390fd5b50505050565b60006111c1611559565b60008060006111e3604051806040016040528060008152602001606081525090565b60055460ff161561123557868060200190518101906112029190613410565b919650935090506112138587611ef3565b6112305760405163075fd2b160e01b815260040160405180910390fd5b61129f565b868060200190518101906112499190613410565b6001600160a01b038216151596509194509250905083611269578561126b565b815b9450838015611281575061127f8587611ef3565b155b1561129f5760405163075fd2b160e01b815260040160405180910390fd5b600554610100900460ff1680156112c2575060208101515115806112c257508051155b156112f9576040517fc19e07c500000000000000000000000000000000000000000000000000000000815260040160405180910390fd5b6001600160a01b0383166113305760405163f4a513b960e01b81526001600160a01b03861660048201526024015b60405180910390fd5b6001600160a01b038086166000908152600f602090815260409091208054928616610100027fffffffffffffffffffffff0000000000000000000000000000000000000000ff90931692909217825582516001830190815590830151839190600284019061139e9082612f50565b505060055460ff1690506113b257846113b5565b60015b815460ff191690151517815560006113cc8761201d565b905060ff8116611487576008546001600160a01b0388166000908152600c60205260409020556114018760015b60ff16612039565b600089600854604051602001611418929190613474565b6040516020818303038152906040529050876001600160a01b03167fa197306e3dd5494a61a695381aa809a53b8e377a685e84e404a85d5a8da6cc62828b604051611464929190613496565b60405180910390a26008805490600061147c83613103565b919050555050611508565b60011960ff8216016114a35761149e8760016113f9565b6114ba565b60021960ff8216016114ba576114ba8760046113f9565b866001600160a01b03167fcec1da3f7f0b8a344dd1025d06e2ddd48b14880395997ad97cbdb439acc761d48a8a6114f08b61201d565b6040516114ff939291906134c1565b60405180910390a25b50505050505092915050565b7fffffffffffffffffffffffff11111111111111111111111111111111111111126001600160a01b0384160161154e576107da828261206c565b6107da838383612088565b60055442630100000090910467ffffffffffffffff16118061158d5750600554600160581b900467ffffffffffffffff1642115b15610f4c576040517fb609ed5a00000000000000000000000000000000000000000000000000000000815260040160405180910390fd5b6000806115d36101008461350c565b905060006115e361010085613520565b6000928352600d602052604090922054600190921b9182169091149392505050565b61160d61249b565b6001600160a01b038083166000908152600f60209081526040918290208251606081018452815460ff81161515825261010090049094168483015282518084018452600182018054825260028301805493958701949293919284019161167290612ed0565b80601f016020809104026020016040519081016040528092919081815260200182805461169e90612ed0565b80156116eb5780601f106116c0576101008083540402835291602001916116eb565b820191906000526020600020905b8154815290600101906020018083116116ce57829003601f168201915b5050509190925250505090525092915050565b60065467ffffffffffffffff16421015610f4c576040517f8a879da200000000000000000000000000000000000000000000000000000000815260040160405180910390fd5b60606109158383604051806060016040528060278152602001613782602791396120d7565b60408051808201909152600080825260208201526000828060200190518101906117939190613534565b8051602082015160408301516060840151939450919290919060006117b784611605565b6020015190506117ca858583868661214f565b156117fa576040518060400160405280826001600160a01b03168152602001848152509650505050505050610918565b604080518082019091526001600160a01b0390911681526000602082015298975050505050505050565b60055460009042630100000090910467ffffffffffffffff161180159061185e5750600554600160581b900467ffffffffffffffff164211155b156118695750600190565b50600090565b600061187a8261201d565b60ff16600681111561091857610918612c90565b611897826121f8565b80516005805460208085015161ffff1990921693151561ff0019169390931761010091151591909102179055604080517f5ab1bd5300000000000000000000000000000000000000000000000000000000815290517f00000000000000000000000000000000000000000000000000000000000000006001600160a01b031692635ab1bd5392600480820193918290030181865afa15801561193d573d6000803e3d6000fd5b505050506040513d601f19601f820116820180604052508101906119619190613569565b600980547fffffffffffffffffffffffff0000000000000000000000000000000000000000166001600160a01b03929092169190911790556040810151600580546060840151608085015172ffffffffffffffffffffffffffffffff00000019909216630100000067ffffffffffffffff958616810272ffffffffffffffff0000000000000000000000191691909117600160581b9286168302177fffffffffff0000000000000000ffffffffffffffffffffffffffffffffffffff16600160981b9386168402179384905560a08601516006805467ffffffffffffffff19169187169182179055611a6395918504821694928304821693909204169061110e565b600554600654604080516301000000840467ffffffffffffffff9081168252600160581b850481166020830152600160981b909404841681830152929091166060830152336080830152517fcb0fb7a7b87db2f472ee8977444cfdbc51993ce660aca27a5969a724fae6dcf39181900360a00190a160c0810151516000819003611b1d5760008052600e6020527fe710864318d4a32f37d6ce54cb3fadbef648dd12d8dbdf53973564d56b7f881c805460ff191660011790555b60005b818110156111b1576001600e60008560c001518481518110611b4457611b44612eba565b6020908102919091018101516001600160a01b03168252810191909152604001600020805460ff1916911515919091179055600101611b20565b611b86612260565b60008083806020019051810190611b9d9190613586565b80515160208101519051929450909250906002611bb98561201d565b60ff166006811115611bcd57611bcd612c90565b6006811115611bde57611bde612c90565b14611c075760405163f4a513b960e01b81526001600160a01b0385166004820152602401611327565b6001600160a01b0381166000908152600e602052604090205460ff16158015611c5b575060008052600e6020527fe710864318d4a32f37d6ce54cb3fadbef648dd12d8dbdf53973564d56b7f881c5460ff16155b15611c7957604051637fcce2a960e01b815260040160405180910390fd5b600034118015611ca657506001600160a01b03811673eeeeeeeeeeeeeeeeeeeeeeeeeeeeeeeeeeeeeeee14155b80611cd857506001600160a01b03811673eeeeeeeeeeeeeeeeeeeeeeeeeeeeeeeeeeeeeeee148015611cd85750813414155b15611cf657604051637fcce2a960e01b815260040160405180910390fd5b836001600160a01b03167f463ffc2cf8b1596445c417388ed30e53eb67cf6668cb2be7f0addf8a78c8441b838388604051611d4d939291909283526001600160a01b03918216602084015216604082015260600190565b60405180910390a2505050505050565b805160208083015160408085015160608601516001600160a01b038085166000908152600f909652929094205492939092909161010090910416611da4858583868661214f565b15611ec75760015460405163068bcd8d60e01b81526000916001600160a01b037f0000000000000000000000000000000000000000000000000000000000000000169163068bcd8d91611dfd9160040190815260200190565b600060405180830381865afa158015611e1a573d6000803e3d6000fd5b505050506040513d6000823e601f3d908101601f19168201604052611e429190810190612df3565b9050611e4d866122c4565b8360026000828254611e5f9190612ea7565b90915550506040810151611e74908386611514565b60408082015181518681526001600160a01b038581166020830152808916939216917fa6b66f665010d2f7435f110111aaa34b56564074f66081bef606d996fc8caa6f910160405180910390a350611eeb565b60405163f4a513b960e01b81526001600160a01b0385166004820152602401611327565b505050505050565b6009546040517fdd93da430000000000000000000000000000000000000000000000000000000081526001600160a01b038481166004830152600092839291169063dd93da4390602401600060405180830381865afa158015611f5a573d6000803e3d6000fd5b505050506040513d6000823e601f3d908101601f19168201604052611f829190810190613674565b60095481516040517f5e8a791500000000000000000000000000000000000000000000000000000000815260048101919091526001600160a01b038681166024830152929350911690635e8a791590604401602060405180830381865afa158015611ff1573d6000803e3d6000fd5b505050506040513d601f19601f8201168201806040525081019061201591906133f5565b949350505050565b600080600061202b84612302565b600f911c1695945050505050565b600080600061204785612302565b6000928352600b602052604090922095811b600f90911b199091161790935550505050565b60008060008084865af1610ed55763b12d13eb6000526004601cfd5b81601452806034526fa9059cbb00000000000000000000000060005260206000604460106000875af13d1560016000511417166120cd576390b8ec186000526004601cfd5b6000603452505050565b6060600080856001600160a01b0316856040516120f4919061373b565b600060405180830381855af49150503d806000811461212f576040519150601f19603f3d011682016040523d82523d6000602084013e612134565b606091505b509150915061214586838387612366565b9695505050505050565b600061215a866115c4565b15612167575060006121ef565b60408051602081018890526001600160a01b038088169282019290925290851660608201526080810184905260009060a00160408051601f19818403018152828252805160209182012090830152016040516020818303038152906040528051906020012090506121db83600a54836123df565b6121e95760009150506121ef565b60019150505b95945050505050565b612200610f03565b6001541561223a576040517f439a74c900000000000000000000000000000000000000000000000000000000815260040160405180910390fd5b8060000361225b57604051637fcce2a960e01b815260040160405180910390fd5b600155565b60055442600160981b90910467ffffffffffffffff16118061228d575060065467ffffffffffffffff1642115b15610f4c576040517fb828c90000000000000000000000000000000000000000000000000000000000815260040160405180910390fd5b60006122d26101008361350c565b905060006122e261010084613520565b6000928352600d60205260409092208054600190931b9092179091555050565b6001600160a01b0381166000908152600c6020526040808220548291829190829061232d908361350c565b9050600061233c604084613520565b612347906004613757565b6000838152600b60205260409020549298909750919550909350505050565b606083156123d55782516000036123ce576001600160a01b0385163b6123ce5760405162461bcd60e51b815260206004820152601d60248201527f416464726573733a2063616c6c20746f206e6f6e2d636f6e74726163740000006044820152606401611327565b5081612015565b61201583836123f5565b6000826123ec858461241f565b14949350505050565b8151156124055781518083602001fd5b8060405162461bcd60e51b8152600401611327919061376e565b600081815b8451811015612464576124508286838151811061244357612443612eba565b602002602001015161246c565b91508061245c81613103565b915050612424565b509392505050565b6000818310612488576000828152602084905260409020610915565b6000838152602083905260409020610915565b604051806060016040528060001515815260200160006001600160a01b031681526020016124dc604051806040016040528060008152602001606081525090565b905290565b6001600160a01b0381168114610f0057600080fd5b60006020828403121561250857600080fd5b8135612513816124e1565b9392505050565b634e487b7160e01b600052604160045260246000fd5b6040805190810167ffffffffffffffff811182821017156125535761255361251a565b60405290565b60405160c0810167ffffffffffffffff811182821017156125535761255361251a565b60405160e0810167ffffffffffffffff811182821017156125535761255361251a565b6040516080810167ffffffffffffffff811182821017156125535761255361251a565b6040516060810167ffffffffffffffff811182821017156125535761255361251a565b604051601f8201601f1916810167ffffffffffffffff8111828210171561260e5761260e61251a565b604052919050565b600067ffffffffffffffff8211156126305761263061251a565b5060051b60200190565b600082601f83011261264b57600080fd5b8135602061266061265b83612616565b6125e5565b82815260059290921b8401810191818101908684111561267f57600080fd5b8286015b848110156126a3578035612696816124e1565b8352918301918301612683565b509695505050505050565b600067ffffffffffffffff8211156126c8576126c861251a565b50601f01601f191660200190565b60006126e461265b846126ae565b90508281528383830111156126f857600080fd5b828260208301376000602084830101529392505050565b600082601f83011261272057600080fd5b610915838335602085016126d6565b60008060006060848603121561274457600080fd5b833567ffffffffffffffff8082111561275c57600080fd5b6127688783880161263a565b9450602086013591508082111561277e57600080fd5b5061278b8682870161270f565b925050604084013561279c816124e1565b809150509250925092565b67ffffffffffffffff81168114610f0057600080fd5b600080600080608085870312156127d357600080fd5b84356127de816127a7565b935060208501356127ee816127a7565b925060408501356127fe816127a7565b9150606085013561280e816127a7565b939692955090935050565b6000806040838503121561282c57600080fd5b823567ffffffffffffffff81111561284357600080fd5b61284f8582860161270f565b9250506020830135612860816124e1565b809150509250929050565b60006020828403121561287d57600080fd5b5035919050565b6000602080838503121561289757600080fd5b823567ffffffffffffffff8111156128ae57600080fd5b8301601f810185136128bf57600080fd5b80356128cd61265b82612616565b81815260069190911b820183019083810190878311156128ec57600080fd5b928401925b8284101561292f576040848903121561290a5760008081fd5b612912612530565b8435815285850135868201528252604090930192908401906128f1565b979650505050505050565b60005b8381101561295557818101518382015260200161293d565b50506000910152565b6000815180845261297681602086016020860161293a565b601f01601f19169290920160200192915050565b828152604060208201526000612015604083018461295e565b602081528151151560208201526001600160a01b036020830151166040820152600060408301516060808401528051608084015260208101519050604060a084015261201560c084018261295e565b60008060408385031215612a0557600080fd5b82359150602083013567ffffffffffffffff80821115612a2457600080fd5b9084019060408287031215612a3857600080fd5b612a40612530565b82358152602083013582811115612a5657600080fd5b80840193505086601f840112612a6b57600080fd5b612a7a878435602086016126d6565b60208201528093505050509250929050565b60008060208385031215612a9f57600080fd5b823567ffffffffffffffff80821115612ab757600080fd5b818501915085601f830112612acb57600080fd5b813581811115612ada57600080fd5b8660208260051b8501011115612aef57600080fd5b60209290920196919550909350505050565b6000602080830181845280855180835260408601915060408160051b870101925083870160005b82811015612b5657603f19888603018452612b4485835161295e565b94509285019290850190600101612b28565b5092979650505050505050565b60008060408385031215612b7657600080fd5b823567ffffffffffffffff80821115612b8e57600080fd5b612b9a8683870161263a565b9350602091508185013581811115612bb157600080fd5b8501601f81018713612bc257600080fd5b8035612bd061265b82612616565b81815260059190911b82018401908481019089831115612bef57600080fd5b8584015b83811015612c2757803586811115612c0b5760008081fd5b612c198c898389010161270f565b845250918601918601612bf3565b508096505050505050509250929050565b602080825282518282018190526000919060409081850190868401855b82811015612c8357815180516001600160a01b03168552860151868501529284019290850190600101612c55565b5091979650505050505050565b634e487b7160e01b600052602160045260246000fd5b6020810160078310612cc857634e487b7160e01b600052602160045260246000fd5b91905290565b60008060408385031215612ce157600080fd5b82359150602083013567ffffffffffffffff811115612cff57600080fd5b612d0b8582860161270f565b9150509250929050565b634e487b7160e01b600052601160045260246000fd5b67ffffffffffffffff818116838216019080821115610d5857610d58612d15565b8051612d57816124e1565b919050565b600082601f830112612d6d57600080fd5b8151612d7b61265b826126ae565b818152846020838601011115612d9057600080fd5b61201582602083016020870161293a565b600060408284031215612db357600080fd5b612dbb612530565b905081518152602082015167ffffffffffffffff811115612ddb57600080fd5b612de784828501612d5c565b60208301525092915050565b600060208284031215612e0557600080fd5b815167ffffffffffffffff80821115612e1d57600080fd5b9083019060c08286031215612e3157600080fd5b612e39612559565b825181526020830151612e4b816124e1565b60208201526040830151612e5e816124e1565b6040820152606083015182811115612e7557600080fd5b612e8187828601612da1565b6060830152506080830151608082015260a083015160a082015280935050505092915050565b8181038181111561091857610918612d15565b634e487b7160e01b600052603260045260246000fd5b600181811c90821680612ee457607f821691505b602082108103612f0457634e487b7160e01b600052602260045260246000fd5b50919050565b601f8211156107da57600081815260208120601f850160051c81016020861015612f315750805b601f850160051c820191505b81811015611eeb57828155600101612f3d565b815167ffffffffffffffff811115612f6a57612f6a61251a565b612f7e81612f788454612ed0565b84612f0a565b602080601f831160018114612fb35760008415612f9b5750858301515b600019600386901b1c1916600185901b178555611eeb565b600085815260208120601f198616915b82811015612fe257888601518255948401946001909101908401612fc3565b50858210156130005787850151600019600388901b60f8161c191681555b5050505050600190811b01905550565b82815260006020604081840152835460408401526001808501604060608601526000815461303d81612ed0565b80608089015260a08583166000811461305d5760018114613077576130a5565b60ff1984168a83015282151560051b8a01820194506130a5565b856000528760002060005b8481101561309d5781548c8201850152908801908901613082565b8b0183019550505b50929a9950505050505050505050565b6000808335601e198436030181126130cc57600080fd5b83018035915067ffffffffffffffff8211156130e757600080fd5b6020019150368190038213156130fc57600080fd5b9250929050565b60006001820161311557613115612d15565b5060010190565b80518015158114612d5757600080fd5b8051612d57816127a7565b600082601f83011261314857600080fd5b8151602061315861265b83612616565b82815260059290921b8401810191818101908684111561317757600080fd5b8286015b848110156126a357805161318e816124e1565b835291830191830161317b565b6000602082840312156131ad57600080fd5b815167ffffffffffffffff808211156131c557600080fd5b9083019060e082860312156131d957600080fd5b6131e161257c565b6131ea8361311c565b81526131f86020840161311c565b60208201526132096040840161312c565b604082015261321a6060840161312c565b606082015261322b6080840161312c565b608082015261323c60a0840161312c565b60a082015260c08301518281111561325357600080fd5b61325f87828601613137565b60c08301525095945050505050565b8082018082111561091857610918612d15565b60006080828403121561329357600080fd5b61329b61259f565b9050815181526020808301516132b0816124e1565b8282015260408381015190830152606083015167ffffffffffffffff8111156132d857600080fd5b8301601f810185136132e957600080fd5b80516132f761265b82612616565b81815260059190911b8201830190838101908783111561331657600080fd5b928401925b828410156133345783518252928401929084019061331b565b6060860152509295945050505050565b6000602080838503121561335757600080fd5b825167ffffffffffffffff8082111561336f57600080fd5b818501915085601f83011261338357600080fd5b815161339161265b82612616565b81815260059190911b830184019084810190888311156133b057600080fd5b8585015b838110156133e8578051858111156133cc5760008081fd5b6133da8b89838a0101613281565b8452509186019186016133b4565b5098975050505050505050565b60006020828403121561340757600080fd5b6109158261311c565b60008060006060848603121561342557600080fd5b8351613430816124e1565b6020850151909350613441816124e1565b604085015190925067ffffffffffffffff81111561345e57600080fd5b61346a86828701612da1565b9150509250925092565b604081526000613487604083018561295e565b90508260208301529392505050565b6040815260006134a9604083018561295e565b90506001600160a01b03831660208301529392505050565b6060815260006134d4606083018661295e565b90506001600160a01b038416602083015260ff83166040830152949350505050565b634e487b7160e01b600052601260045260246000fd5b60008261351b5761351b6134f6565b500490565b60008261352f5761352f6134f6565b500690565b60006020828403121561354657600080fd5b815167ffffffffffffffff81111561355d57600080fd5b61201584828501613281565b60006020828403121561357b57600080fd5b8151612513816124e1565b6000806040838503121561359957600080fd5b82516135a4816124e1565b602084015190925067ffffffffffffffff808211156135c257600080fd5b9084019081860360a08112156135d757600080fd5b6135df612530565b60808212156135ed57600080fd5b6135f56125c2565b604083121561360357600080fd5b61360b612530565b92508451613618816124e1565b8084525060208501516020840152828152604085015160208201526060850151604082015280825250608084015191508282111561365557600080fd5b61366188838601612d5c565b6020820152809450505050509250929050565b60006020828403121561368657600080fd5b815167ffffffffffffffff8082111561369e57600080fd5b9083019060c082860312156136b257600080fd5b6136ba612559565b82518152602083015160208201526040830151828111156136da57600080fd5b6136e687828601612d5c565b6040830152506060830151828111156136fe57600080fd5b61370a87828601612da1565b60608301525061371c60808401612d4c565b608082015261372d60a08401612d4c565b60a082015295945050505050565b6000825161374d81846020870161293a565b9190910192915050565b808202811582820484141761091857610918612d15565b602081526000610915602083018461295e56fe416464726573733a206c6f772d6c6576656c2064656c65676174652063616c6c206661696c6564a2646970667358221220809f96b76333e19529ee46a4640d8e46ed73c95ebcd2d50f07657e1731c47eec64736f6c63430008130033",
    "linkReferences": {}
  },
  "methodIdentifiers": {
    "NATIVE()": "a0cf0aea",
    "PERMIT2()": "6afdd850",
    "allocate(bytes,address)": "ef2920fc",
    "allocationEndTime()": "4533d678",
    "allocationStartTime()": "d2e17f59",
    "allowedTokens(address)": "e744092e",
    "distribute(address[],bytes,address)": "0a6f0ee9",
    "distributionMetadata()": "59a3977b",
    "distributionStarted()": "21755088",
    "getAllo()": "15cc481e",
    "getPayouts(address[],bytes[])": "b2b878d0",
    "getPoolAmount()": "4ab4ba42",
    "getPoolId()": "38fff2d0",
    "getRecipient(address)": "62812a39",
    "getRecipientStatus(address)": "eb11af93",
    "getStrategyId()": "42fda9c7",
    "hasBeenDistributed(uint256)": "5f1b55f3",
    "increasePoolAmount(uint256)": "f5b0dfb7",
    "initialize(uint256,bytes)": "edd146cc",
    "isDistributionSet()": "2d52eff2",
    "isPoolActive()": "df868ed3",
    "isValidAllocator(address)": "4d31d087",
    "merkleRoot()": "2eb4a7ab",
    "metadataRequired()": "cb0e85a6",
    "multicall(bytes[])": "ac9650d8",
    "recipientToStatusIndexes(address)": "01fc1c64",
    "recipientsCounter()": "95355b3b",
    "registerRecipient(bytes,address)": "2bbe0cae",
    "registrationEndTime()": "dff7d2c7",
    "registrationStartTime()": "9af5c09d",
    "reviewRecipients((uint256,uint256)[])": "465831cd",
    "statusesBitMap(uint256)": "f6f25891",
    "totalPayoutAmount()": "e7efcfc2",
    "updateDistribution(bytes32,(uint256,string))": "73af3453",
    "updatePoolTimestamps(uint64,uint64,uint64,uint64)": "2143e92f",
    "useRegistryAnchor()": "57089739",
    "withdraw(uint256)": "2e1a7d4d"
  },
  "storageLayout": {
    "storage": [
      {
        "astId": 3267,
        "contract": "test/utils/DonationVotingMerkleDistributionBaseMock.sol:DonationVotingMerkleDistributionBaseMock",
        "label": "poolActive",
        "offset": 0,
        "slot": "0",
        "type": "t_bool"
      },
      {
        "astId": 3269,
        "contract": "test/utils/DonationVotingMerkleDistributionBaseMock.sol:DonationVotingMerkleDistributionBaseMock",
        "label": "poolId",
        "offset": 0,
        "slot": "1",
        "type": "t_uint256"
      },
      {
        "astId": 3271,
        "contract": "test/utils/DonationVotingMerkleDistributionBaseMock.sol:DonationVotingMerkleDistributionBaseMock",
        "label": "poolAmount",
        "offset": 0,
        "slot": "2",
        "type": "t_uint256"
      },
      {
        "astId": 12593,
        "contract": "test/utils/DonationVotingMerkleDistributionBaseMock.sol:DonationVotingMerkleDistributionBaseMock",
        "label": "distributionMetadata",
        "offset": 0,
        "slot": "3",
        "type": "t_struct(Metadata)2922_storage"
      },
      {
        "astId": 12596,
        "contract": "test/utils/DonationVotingMerkleDistributionBaseMock.sol:DonationVotingMerkleDistributionBaseMock",
        "label": "useRegistryAnchor",
        "offset": 0,
        "slot": "5",
        "type": "t_bool"
      },
      {
        "astId": 12599,
        "contract": "test/utils/DonationVotingMerkleDistributionBaseMock.sol:DonationVotingMerkleDistributionBaseMock",
        "label": "metadataRequired",
        "offset": 1,
        "slot": "5",
        "type": "t_bool"
      },
      {
        "astId": 12602,
        "contract": "test/utils/DonationVotingMerkleDistributionBaseMock.sol:DonationVotingMerkleDistributionBaseMock",
        "label": "distributionStarted",
        "offset": 2,
        "slot": "5",
        "type": "t_bool"
      },
      {
        "astId": 12605,
        "contract": "test/utils/DonationVotingMerkleDistributionBaseMock.sol:DonationVotingMerkleDistributionBaseMock",
        "label": "registrationStartTime",
        "offset": 3,
        "slot": "5",
        "type": "t_uint64"
      },
      {
        "astId": 12607,
        "contract": "test/utils/DonationVotingMerkleDistributionBaseMock.sol:DonationVotingMerkleDistributionBaseMock",
        "label": "registrationEndTime",
        "offset": 11,
        "slot": "5",
        "type": "t_uint64"
      },
      {
        "astId": 12609,
        "contract": "test/utils/DonationVotingMerkleDistributionBaseMock.sol:DonationVotingMerkleDistributionBaseMock",
        "label": "allocationStartTime",
        "offset": 19,
        "slot": "5",
        "type": "t_uint64"
      },
      {
        "astId": 12611,
        "contract": "test/utils/DonationVotingMerkleDistributionBaseMock.sol:DonationVotingMerkleDistributionBaseMock",
        "label": "allocationEndTime",
        "offset": 0,
        "slot": "6",
        "type": "t_uint64"
      },
      {
        "astId": 12614,
        "contract": "test/utils/DonationVotingMerkleDistributionBaseMock.sol:DonationVotingMerkleDistributionBaseMock",
        "label": "totalPayoutAmount",
        "offset": 0,
        "slot": "7",
        "type": "t_uint256"
      },
      {
        "astId": 12617,
        "contract": "test/utils/DonationVotingMerkleDistributionBaseMock.sol:DonationVotingMerkleDistributionBaseMock",
        "label": "recipientsCounter",
        "offset": 0,
        "slot": "8",
        "type": "t_uint256"
      },
      {
        "astId": 12621,
        "contract": "test/utils/DonationVotingMerkleDistributionBaseMock.sol:DonationVotingMerkleDistributionBaseMock",
        "label": "_registry",
        "offset": 0,
        "slot": "9",
        "type": "t_contract(IRegistry)2625"
      },
      {
        "astId": 12628,
        "contract": "test/utils/DonationVotingMerkleDistributionBaseMock.sol:DonationVotingMerkleDistributionBaseMock",
        "label": "merkleRoot",
        "offset": 0,
        "slot": "10",
        "type": "t_bytes32"
      },
      {
        "astId": 12633,
        "contract": "test/utils/DonationVotingMerkleDistributionBaseMock.sol:DonationVotingMerkleDistributionBaseMock",
        "label": "statusesBitMap",
        "offset": 0,
        "slot": "11",
        "type": "t_mapping(t_uint256,t_uint256)"
      },
      {
        "astId": 12638,
        "contract": "test/utils/DonationVotingMerkleDistributionBaseMock.sol:DonationVotingMerkleDistributionBaseMock",
        "label": "recipientToStatusIndexes",
        "offset": 0,
        "slot": "12",
        "type": "t_mapping(t_address,t_uint256)"
      },
      {
        "astId": 12643,
        "contract": "test/utils/DonationVotingMerkleDistributionBaseMock.sol:DonationVotingMerkleDistributionBaseMock",
        "label": "distributedBitMap",
        "offset": 0,
        "slot": "13",
        "type": "t_mapping(t_uint256,t_uint256)"
      },
      {
        "astId": 12648,
        "contract": "test/utils/DonationVotingMerkleDistributionBaseMock.sol:DonationVotingMerkleDistributionBaseMock",
        "label": "allowedTokens",
        "offset": 0,
        "slot": "14",
        "type": "t_mapping(t_address,t_bool)"
      },
      {
        "astId": 12654,
        "contract": "test/utils/DonationVotingMerkleDistributionBaseMock.sol:DonationVotingMerkleDistributionBaseMock",
        "label": "_recipients",
        "offset": 0,
        "slot": "15",
        "type": "t_mapping(t_address,t_struct(Recipient)12500_storage)"
      }
    ],
    "types": {
      "t_address": {
        "encoding": "inplace",
        "label": "address",
        "numberOfBytes": "20"
      },
      "t_bool": {
        "encoding": "inplace",
        "label": "bool",
        "numberOfBytes": "1"
      },
      "t_bytes32": {
        "encoding": "inplace",
        "label": "bytes32",
        "numberOfBytes": "32"
      },
      "t_contract(IRegistry)2625": {
        "encoding": "inplace",
        "label": "contract IRegistry",
        "numberOfBytes": "20"
      },
      "t_mapping(t_address,t_bool)": {
        "encoding": "mapping",
        "key": "t_address",
        "label": "mapping(address => bool)",
        "numberOfBytes": "32",
        "value": "t_bool"
      },
      "t_mapping(t_address,t_struct(Recipient)12500_storage)": {
        "encoding": "mapping",
        "key": "t_address",
        "label": "mapping(address => struct DonationVotingMerkleDistributionBaseStrategy.Recipient)",
        "numberOfBytes": "32",
        "value": "t_struct(Recipient)12500_storage"
      },
      "t_mapping(t_address,t_uint256)": {
        "encoding": "mapping",
        "key": "t_address",
        "label": "mapping(address => uint256)",
        "numberOfBytes": "32",
        "value": "t_uint256"
      },
      "t_mapping(t_uint256,t_uint256)": {
        "encoding": "mapping",
        "key": "t_uint256",
        "label": "mapping(uint256 => uint256)",
        "numberOfBytes": "32",
        "value": "t_uint256"
      },
      "t_string_storage": {
        "encoding": "bytes",
        "label": "string",
        "numberOfBytes": "32"
      },
      "t_struct(Metadata)2922_storage": {
        "encoding": "inplace",
        "label": "struct Metadata",
        "numberOfBytes": "64",
        "members": [
          {
            "astId": 2918,
            "contract": "test/utils/DonationVotingMerkleDistributionBaseMock.sol:DonationVotingMerkleDistributionBaseMock",
            "label": "protocol",
            "offset": 0,
            "slot": "0",
            "type": "t_uint256"
          },
          {
            "astId": 2921,
            "contract": "test/utils/DonationVotingMerkleDistributionBaseMock.sol:DonationVotingMerkleDistributionBaseMock",
            "label": "pointer",
            "offset": 0,
            "slot": "1",
            "type": "t_string_storage"
          }
        ]
      },
      "t_struct(Recipient)12500_storage": {
        "encoding": "inplace",
        "label": "struct DonationVotingMerkleDistributionBaseStrategy.Recipient",
        "numberOfBytes": "96",
        "members": [
          {
            "astId": 12494,
            "contract": "test/utils/DonationVotingMerkleDistributionBaseMock.sol:DonationVotingMerkleDistributionBaseMock",
            "label": "useRegistryAnchor",
            "offset": 0,
            "slot": "0",
            "type": "t_bool"
          },
          {
            "astId": 12496,
            "contract": "test/utils/DonationVotingMerkleDistributionBaseMock.sol:DonationVotingMerkleDistributionBaseMock",
            "label": "recipientAddress",
            "offset": 1,
            "slot": "0",
            "type": "t_address"
          },
          {
            "astId": 12499,
            "contract": "test/utils/DonationVotingMerkleDistributionBaseMock.sol:DonationVotingMerkleDistributionBaseMock",
            "label": "metadata",
            "offset": 0,
            "slot": "1",
            "type": "t_struct(Metadata)2922_storage"
          }
        ]
      },
      "t_uint256": {
        "encoding": "inplace",
        "label": "uint256",
        "numberOfBytes": "32"
      },
      "t_uint64": {
        "encoding": "inplace",
        "label": "uint64",
        "numberOfBytes": "8"
      }
    }
  },
  "id": 171
}