{
  "abi": [
    {
      "inputs": [],
      "name": "AccountBalanceOverflow",
      "type": "error"
    },
    {
      "inputs": [],
      "name": "BalanceQueryForZeroAddress",
      "type": "error"
    },
    {
      "inputs": [],
      "name": "NotOwnerNorApproved",
      "type": "error"
    },
    {
      "inputs": [],
      "name": "TokenAlreadyExists",
      "type": "error"
    },
    {
      "inputs": [],
      "name": "TokenDoesNotExist",
      "type": "error"
    },
    {
      "inputs": [],
      "name": "TransferFromIncorrectOwner",
      "type": "error"
    },
    {
      "inputs": [],
      "name": "TransferToNonERC721ReceiverImplementer",
      "type": "error"
    },
    {
      "inputs": [],
      "name": "TransferToZeroAddress",
      "type": "error"
    },
    {
      "anonymous": false,
      "inputs": [
        {
          "indexed": true,
          "internalType": "address",
          "name": "owner",
          "type": "address"
        },
        {
          "indexed": true,
          "internalType": "address",
          "name": "account",
          "type": "address"
        },
        {
          "indexed": true,
          "internalType": "uint256",
          "name": "id",
          "type": "uint256"
        }
      ],
      "name": "Approval",
      "type": "event"
    },
    {
      "anonymous": false,
      "inputs": [
        {
          "indexed": true,
          "internalType": "address",
          "name": "owner",
          "type": "address"
        },
        {
          "indexed": true,
          "internalType": "address",
          "name": "operator",
          "type": "address"
        },
        {
          "indexed": false,
          "internalType": "bool",
          "name": "isApproved",
          "type": "bool"
        }
      ],
      "name": "ApprovalForAll",
      "type": "event"
    },
    {
      "anonymous": false,
      "inputs": [
        {
          "indexed": true,
          "internalType": "address",
          "name": "from",
          "type": "address"
        },
        {
          "indexed": true,
          "internalType": "address",
          "name": "to",
          "type": "address"
        },
        {
          "indexed": true,
          "internalType": "uint256",
          "name": "id",
          "type": "uint256"
        }
      ],
      "name": "Transfer",
      "type": "event"
    },
    {
      "inputs": [
        {
          "internalType": "address",
          "name": "account",
          "type": "address"
        },
        {
          "internalType": "uint256",
          "name": "id",
          "type": "uint256"
        }
      ],
      "name": "approve",
      "outputs": [],
      "stateMutability": "payable",
      "type": "function"
    },
    {
      "inputs": [
        {
          "internalType": "address",
          "name": "owner",
          "type": "address"
        }
      ],
      "name": "balanceOf",
      "outputs": [
        {
          "internalType": "uint256",
          "name": "result",
          "type": "uint256"
        }
      ],
      "stateMutability": "view",
      "type": "function"
    },
    {
      "inputs": [
        {
          "internalType": "uint256",
          "name": "id",
          "type": "uint256"
        }
      ],
      "name": "burn",
      "outputs": [],
      "stateMutability": "nonpayable",
      "type": "function"
    },
    {
      "inputs": [
        {
          "internalType": "address",
          "name": "account",
          "type": "address"
        },
        {
          "internalType": "uint256",
          "name": "id",
          "type": "uint256"
        }
      ],
      "name": "directApprove",
      "outputs": [],
      "stateMutability": "nonpayable",
      "type": "function"
    },
    {
      "inputs": [
        {
          "internalType": "uint256",
          "name": "id",
          "type": "uint256"
        }
      ],
      "name": "directGetApproved",
      "outputs": [
        {
          "internalType": "address",
          "name": "",
          "type": "address"
        }
      ],
      "stateMutability": "view",
      "type": "function"
    },
    {
      "inputs": [
        {
          "internalType": "uint256",
          "name": "id",
          "type": "uint256"
        }
      ],
      "name": "directOwnerOf",
      "outputs": [
        {
          "internalType": "address",
          "name": "",
          "type": "address"
        }
      ],
      "stateMutability": "view",
      "type": "function"
    },
    {
      "inputs": [
        {
          "internalType": "address",
          "name": "from",
          "type": "address"
        },
        {
          "internalType": "address",
          "name": "to",
          "type": "address"
        },
        {
          "internalType": "uint256",
          "name": "id",
          "type": "uint256"
        },
        {
          "internalType": "bytes",
          "name": "data",
          "type": "bytes"
        }
      ],
      "name": "directSafeTransferFrom",
      "outputs": [],
      "stateMutability": "nonpayable",
      "type": "function"
    },
    {
      "inputs": [
        {
          "internalType": "address",
          "name": "from",
          "type": "address"
        },
        {
          "internalType": "address",
          "name": "to",
          "type": "address"
        },
        {
          "internalType": "uint256",
          "name": "id",
          "type": "uint256"
        }
      ],
      "name": "directSafeTransferFrom",
      "outputs": [],
      "stateMutability": "nonpayable",
      "type": "function"
    },
    {
      "inputs": [
        {
          "internalType": "address",
          "name": "operator",
          "type": "address"
        },
        {
          "internalType": "bool",
          "name": "approved",
          "type": "bool"
        }
      ],
      "name": "directSetApprovalForAll",
      "outputs": [],
      "stateMutability": "nonpayable",
      "type": "function"
    },
    {
      "inputs": [
        {
          "internalType": "address",
          "name": "from",
          "type": "address"
        },
        {
          "internalType": "address",
          "name": "to",
          "type": "address"
        },
        {
          "internalType": "uint256",
          "name": "id",
          "type": "uint256"
        }
      ],
      "name": "directTransferFrom",
      "outputs": [],
      "stateMutability": "nonpayable",
      "type": "function"
    },
    {
      "inputs": [
        {
          "internalType": "uint256",
          "name": "id",
          "type": "uint256"
        }
      ],
      "name": "exists",
      "outputs": [
        {
          "internalType": "bool",
          "name": "",
          "type": "bool"
        }
      ],
      "stateMutability": "view",
      "type": "function"
    },
    {
      "inputs": [
        {
          "internalType": "uint256",
          "name": "id",
          "type": "uint256"
        }
      ],
      "name": "getApproved",
      "outputs": [
        {
          "internalType": "address",
          "name": "result",
          "type": "address"
        }
      ],
      "stateMutability": "view",
      "type": "function"
    },
    {
      "inputs": [
        {
          "internalType": "address",
          "name": "owner",
          "type": "address"
        }
      ],
      "name": "getAux",
      "outputs": [
        {
          "internalType": "uint224",
          "name": "",
          "type": "uint224"
        }
      ],
      "stateMutability": "view",
      "type": "function"
    },
    {
      "inputs": [
        {
          "internalType": "uint256",
          "name": "id",
          "type": "uint256"
        }
      ],
      "name": "getExtraData",
      "outputs": [
        {
          "internalType": "uint96",
          "name": "",
          "type": "uint96"
        }
      ],
      "stateMutability": "view",
      "type": "function"
    },
    {
      "inputs": [
        {
          "internalType": "address",
          "name": "owner",
          "type": "address"
        },
        {
          "internalType": "address",
          "name": "operator",
          "type": "address"
        }
      ],
      "name": "isApprovedForAll",
      "outputs": [
        {
          "internalType": "bool",
          "name": "result",
          "type": "bool"
        }
      ],
      "stateMutability": "view",
      "type": "function"
    },
    {
      "inputs": [
        {
          "internalType": "address",
          "name": "account",
          "type": "address"
        },
        {
          "internalType": "uint256",
          "name": "id",
          "type": "uint256"
        }
      ],
      "name": "isApprovedOrOwner",
      "outputs": [
        {
          "internalType": "bool",
          "name": "",
          "type": "bool"
        }
      ],
      "stateMutability": "view",
      "type": "function"
    },
    {
      "inputs": [
        {
          "internalType": "address",
          "name": "to",
          "type": "address"
        },
        {
          "internalType": "uint256",
          "name": "id",
          "type": "uint256"
        }
      ],
      "name": "mint",
      "outputs": [],
      "stateMutability": "nonpayable",
      "type": "function"
    },
    {
      "inputs": [],
      "name": "name",
      "outputs": [
        {
          "internalType": "string",
          "name": "",
          "type": "string"
        }
      ],
      "stateMutability": "view",
      "type": "function"
    },
    {
      "inputs": [
        {
          "internalType": "uint256",
          "name": "id",
          "type": "uint256"
        }
      ],
      "name": "ownerOf",
      "outputs": [
        {
          "internalType": "address",
          "name": "result",
          "type": "address"
        }
      ],
      "stateMutability": "view",
      "type": "function"
    },
    {
      "inputs": [
        {
          "internalType": "address",
          "name": "to",
          "type": "address"
        },
        {
          "internalType": "uint256",
          "name": "id",
          "type": "uint256"
        },
        {
          "internalType": "bytes",
          "name": "data",
          "type": "bytes"
        }
      ],
      "name": "safeMint",
      "outputs": [],
      "stateMutability": "nonpayable",
      "type": "function"
    },
    {
      "inputs": [
        {
          "internalType": "address",
          "name": "to",
          "type": "address"
        },
        {
          "internalType": "uint256",
          "name": "id",
          "type": "uint256"
        }
      ],
      "name": "safeMint",
      "outputs": [],
      "stateMutability": "nonpayable",
      "type": "function"
    },
    {
      "inputs": [
        {
          "internalType": "address",
          "name": "from",
          "type": "address"
        },
        {
          "internalType": "address",
          "name": "to",
          "type": "address"
        },
        {
          "internalType": "uint256",
          "name": "id",
          "type": "uint256"
        }
      ],
      "name": "safeTransferFrom",
      "outputs": [],
      "stateMutability": "payable",
      "type": "function"
    },
    {
      "inputs": [
        {
          "internalType": "address",
          "name": "from",
          "type": "address"
        },
        {
          "internalType": "address",
          "name": "to",
          "type": "address"
        },
        {
          "internalType": "uint256",
          "name": "id",
          "type": "uint256"
        },
        {
          "internalType": "bytes",
          "name": "data",
          "type": "bytes"
        }
      ],
      "name": "safeTransferFrom",
      "outputs": [],
      "stateMutability": "payable",
      "type": "function"
    },
    {
      "inputs": [
        {
          "internalType": "address",
          "name": "operator",
          "type": "address"
        },
        {
          "internalType": "bool",
          "name": "approved",
          "type": "bool"
        }
      ],
      "name": "setApprovalForAll",
      "outputs": [],
      "stateMutability": "nonpayable",
      "type": "function"
    },
    {
      "inputs": [
        {
          "internalType": "address",
          "name": "owner",
          "type": "address"
        },
        {
          "internalType": "uint224",
          "name": "value",
          "type": "uint224"
        }
      ],
      "name": "setAux",
      "outputs": [],
      "stateMutability": "nonpayable",
      "type": "function"
    },
    {
      "inputs": [
        {
          "internalType": "uint256",
          "name": "id",
          "type": "uint256"
        },
        {
          "internalType": "uint96",
          "name": "value",
          "type": "uint96"
        }
      ],
      "name": "setExtraData",
      "outputs": [],
      "stateMutability": "nonpayable",
      "type": "function"
    },
    {
      "inputs": [
        {
          "internalType": "bytes4",
          "name": "interfaceId",
          "type": "bytes4"
        }
      ],
      "name": "supportsInterface",
      "outputs": [
        {
          "internalType": "bool",
          "name": "result",
          "type": "bool"
        }
      ],
      "stateMutability": "view",
      "type": "function"
    },
    {
      "inputs": [],
      "name": "symbol",
      "outputs": [
        {
          "internalType": "string",
          "name": "",
          "type": "string"
        }
      ],
      "stateMutability": "view",
      "type": "function"
    },
    {
      "inputs": [
        {
          "internalType": "uint256",
          "name": "id",
          "type": "uint256"
        }
      ],
      "name": "tokenURI",
      "outputs": [
        {
          "internalType": "string",
          "name": "",
          "type": "string"
        }
      ],
      "stateMutability": "view",
      "type": "function"
    },
    {
      "inputs": [
        {
          "internalType": "address",
          "name": "from",
          "type": "address"
        },
        {
          "internalType": "address",
          "name": "to",
          "type": "address"
        },
        {
          "internalType": "uint256",
          "name": "id",
          "type": "uint256"
        }
      ],
      "name": "transferFrom",
      "outputs": [],
      "stateMutability": "payable",
      "type": "function"
    },
    {
      "inputs": [
        {
          "internalType": "uint256",
          "name": "id",
          "type": "uint256"
        }
      ],
      "name": "uncheckedBurn",
      "outputs": [],
      "stateMutability": "nonpayable",
      "type": "function"
    },
    {
      "inputs": [
        {
          "internalType": "address",
          "name": "from",
          "type": "address"
        },
        {
          "internalType": "address",
          "name": "to",
          "type": "address"
        },
        {
          "internalType": "uint256",
          "name": "id",
          "type": "uint256"
        }
      ],
      "name": "uncheckedTransferFrom",
      "outputs": [],
      "stateMutability": "payable",
      "type": "function"
    }
  ],
  "bytecode": {
    "object": "0x608060405234801561001057600080fd5b5061172d806100206000396000f3fe6080604052600436106101e35760003560e01c80638529eea611610102578063a22cb46511610095578063bf0b175e11610064578063bf0b175e1461061c578063c87b56dd14610669578063e985e9c514610689578063fb25fb7a146106bf57600080fd5b8063a22cb465146105a9578063a824b246146105c9578063a8721c2e146105e9578063b88d4fde1461060957600080fd5b806395d89b41116100d157806395d89b4114610503578063991bbee914610549578063a062199414610569578063a14481941461058957600080fd5b80638529eea61461046757806385d7dc301461048757806386cd7e961461049a5780638832e6e3146104e357600080fd5b806340c10f191161017a5780634f558e79116101495780634f558e79146103d9578063518066d8146103f95780636352211e1461041957806370a082311461043957600080fd5b806340c10f191461036657806342842e0e1461038657806342966c6814610399578063430c2081146103b957600080fd5b80631ceb915a116101b65780631ceb915a146102d657806323b872dd146102f657806338e29799146103095780633c79ca031461032957600080fd5b806301ffc9a7146101e857806306fdde031461023a578063081812fc14610289578063095ea7b3146102c1575b600080fd5b3480156101f457600080fd5b5061022561020336600461133e565b6301ffc9a760e09190911c9081146380ac58cd821417635b5e139f9091141790565b60405190151581526020015b60405180910390f35b34801561024657600080fd5b5060408051808201909152600881527f54455354204e465400000000000000000000000000000000000000000000000060208201525b60405161023191906113a4565b34801561029557600080fd5b506102a96102a43660046113d7565b6106df565b6040516001600160a01b039091168152602001610231565b6102d46102cf366004611407565b610722565b005b3480156102e257600080fd5b506102d46102f136600461147a565b610738565b6102d46103043660046114e9565b61079a565b34801561031557600080fd5b506102d46103243660046114e9565b6107ba565b34801561033557600080fd5b506103496103443660046113d7565b6107de565b6040516bffffffffffffffffffffffff9091168152602001610231565b34801561037257600080fd5b506102d4610381366004611407565b610805565b6102d46103943660046114e9565b610817565b3480156103a557600080fd5b506102d46103b43660046113d7565b610832565b3480156103c557600080fd5b506102256103d4366004611407565b61083f565b3480156103e557600080fd5b506102256103f43660046113d7565b61085a565b34801561040557600080fd5b506102d4610414366004611525565b61087f565b34801561042557600080fd5b506102a96104343660046113d7565b61089a565b34801561044557600080fd5b50610459610454366004611561565b6108d8565b604051908152602001610231565b34801561047357600080fd5b506102d4610482366004611407565b610913565b6102d46104953660046114e9565b61096d565b3480156104a657600080fd5b506102d46104b536600461157c565b6000828152673ec412a9852d173d60c11b601c526020902082018201805460a081811c8418901b1890555050565b3480156104ef57600080fd5b506102d46104fe3660046115b2565b610992565b34801561050f57600080fd5b5060408051808201909152600481527f5445535400000000000000000000000000000000000000000000000000000000602082015261027c565b34801561055557600080fd5b506102d46105643660046113d7565b6109e1565b34801561057557600080fd5b506102a96105843660046113d7565b6109ea565b34801561059557600080fd5b506102d46105a4366004611407565b610a4c565b3480156105b557600080fd5b506102d46105c4366004611525565b610a5e565b3480156105d557600080fd5b506102d46105e436600461160c565b610a70565b3480156105f557600080fd5b506102d46106043660046114e9565b610aa6565b6102d461061736600461147a565b610ab2565b34801561062857600080fd5b5061063c610637366004611561565b610acf565b6040517bffffffffffffffffffffffffffffffffffffffffffffffffffffffff9091168152602001610231565b34801561067557600080fd5b5061027c6106843660046113d7565b610afe565b34801561069557600080fd5b506102256106a4366004611659565b601c52670a5a2e7a000000006008526000526030600c205490565b3480156106cb57600080fd5b506102a96106da3660046113d7565b610b72565b6000818152673ec412a9852d173d60c11b601c52602081208201820180546001600160a01b03166107185763ceea21b66000526004601cfd5b6001015492915050565b61073461072e83610bda565b82610be9565b5050565b61079361074433610bda565b61074d87610bda565b61075687610bda565b8686868080601f016020809104026020016040519081016040528093929190818152602001838380828437600092019190915250610bf492505050565b5050505050565b6107b56107a684610bda565b6107af84610bda565b83610c13565b505050565b6107b56107c633610bda565b6107cf85610bda565b6107d885610bda565b84610d29565b6000818152673ec412a9852d173d60c11b601c5260208120820182015460a01c5b92915050565b61073461081183610bda565b82610d45565b6107b561082384610bda565b61082c84610bda565b83610df3565b61083c3382610e20565b50565b600061085361084d84610bda565b83610eee565b9392505050565b6000818152673ec412a9852d173d60c11b601c5260208120820182015460601b6107ff565b61073461088b33610bda565b61089484610bda565b83610f5a565b6000818152673ec412a9852d173d60c11b601c526020902081018101546001600160a01b0316806108d35763ceea21b66000526004601cfd5b919050565b6000816108ed57638f4eb6046000526004601cfd5b673ec412a9852d173d60c11b601c528160005263ffffffff601c600c2054169050919050565b61092561091f33610bda565b82610eee565b61095b576040517f4b6e7f1800000000000000000000000000000000000000000000000000000000815260040160405180910390fd5b61073461096783610bda565b82610fbe565b6107b561097a6000610bda565b61098385610bda565b61098c85610bda565b84610fca565b6109db61099e85610bda565b8484848080601f0160208091040260200160405190810160405280939291908181526020018383808284376000920191909152506110da92505050565b50505050565b61083c816110f8565b6000818152673ec412a9852d173d60c11b601c5260208120820182015460601b610a275760405163677510db60e11b815260040160405180910390fd5b6000828152673ec412a9852d173d60c11b601c526020902082018201600101546107ff565b610734610a5883610bda565b82611103565b610734610a6a83610bda565b8261111d565b610734610a7c83610bda565b673ec412a9852d173d60c11b601c908152600091909152600c208054602081811c8518901b189055565b6107b561097a33610bda565b610793610abe86610bda565b610ac786610bda565b858585611173565b60006107ff610add83610bda565b673ec412a9852d173d60c11b601c908152600091909152600c205460201c90565b6060610b26826000818152673ec412a9852d173d60c11b601c52602090208101015460601b90565b610b435760405163677510db60e11b815260040160405180910390fd5b610b4c826111c7565b604051602001610b5c919061168c565b6040516020818303038152906040529050919050565b6000818152673ec412a9852d173d60c11b601c5260208120820182015460601b610baf5760405163677510db60e11b815260040160405180910390fd5b6000828152673ec412a9852d173d60c11b601c526020902082018201546001600160a01b03166107ff565b60005a60a01b82179050919050565b61073433838361120b565b610c0085858585610fca565b823b1561079357610793848484846112ac565b6000818152673ec412a9852d173d60c11b3317601c52602090208101810180546001600160a01b039485169493841693811691908286148302610c715782610c635763ceea21b66000526004601cfd5b63a11481006000526004601cfd5b84610c845763ea553b346000526004601cfd5b856000528160010154925082331486331417610cb2576030600c2054610cb257634b6e7f186000526004601cfd5b8215610cc057600082600101555b85851818905550601c600c8181208054600019019055600084905220805460010163ffffffff8116610cfa576301336cea6000526004601cfd5b90558082847fddf252ad1be2c89b69c2b068fc378daa952ba7f163c4a11628f55a4df523b3ef600080a4505050565b6109db8484848460405180602001604052806000815250610bf4565b6001600160a01b039091169081610d645763ea553b346000526004601cfd5b80600052673ec412a9852d173d60c11b601c5260206000208101810180548060601b15610d995763c991cbb16000526004601cfd5b831790556000829052601c600c20805460010163ffffffff8116610dc5576301336cea6000526004601cfd5b9055808260007fddf252ad1be2c89b69c2b068fc378daa952ba7f163c4a11628f55a4df523b3ef8180a45050565b610dfe83838361079a565b813b156107b5576107b5838383604051806020016040528060008152506112ac565b6000610e2b8261089a565b90505060008181526001600160a01b03928316673ec412a9852d173d60c11b8117601c526020909120820182018054919382169182610e725763ceea21b66000526004601cfd5b82600052816001015480861484871417861517610ea1576030600c2054610ea157634b6e7f186000526004601cfd5b8015610eaf57600083600101555b5082189055601c600c208054600019019055816000827fddf252ad1be2c89b69c2b068fc378daa952ba7f163c4a11628f55a4df523b3ef8280a4505050565b60008181526001600160a01b03928316673ec412a9852d173d60c11b8117601c52602090912082018201805491936001921680610f335763ceea21b66000526004601cfd5b808514610f5257806000526030600c2054610f52578160010154851492505b505092915050565b8260601b60601c92508160601b60601c9150801515905081673ec412a9852d173d60c11b17601c5282600052806030600c20558060005281837f17307eab39ab6107e8899845ad3d59bd9653f200f220920489ca2b5937696c3160206000a3505050565b6107346000838361120b565b60008181526001600160a01b03948516673ec412a9852d173d60c11b8117601c52602090912082018201805491959485169493841693821691828614830261101f5782610c635763ceea21b66000526004601cfd5b846110325763ea553b346000526004601cfd5b856000528160010154925082871486881417871517611063576030600c205461106357634b6e7f186000526004601cfd5b821561107157600082600101555b85851818905550601c600c8181208054600019019055600084905220805460010163ffffffff81166110ab576301336cea6000526004601cfd5b90558082847fddf252ad1be2c89b69c2b068fc378daa952ba7f163c4a11628f55a4df523b3ef600080a46109db565b6110e48383610d45565b823b156107b5576107b560008484846112ac565b61083c600082610e20565b6107348282604051806020016040528060008152506110da565b801515905081601c52670a5a2e7a0000000060085233600052806030600c2055806000528160601b60601c337f17307eab39ab6107e8899845ad3d59bd9653f200f220920489ca2b5937696c3160206000a35050565b61117e85858561079a565b833b156107935761079385858585858080601f0160208091040260200160405190810160405280939291908181526020018383808284376000920191909152506112ac92505050565b60606080604051019050602081016040526000815280600019835b928101926030600a8206018453600a9004806111e2575050819003601f19909101908152919050565b60001960601c828116925083811693508160005283673ec412a9852d173d60c11b17601c52602060002082018201805482169150816112525763ceea21b66000526004601cfd5b81851485151761127857816000526030600c205461127857634b6e7f186000526004601cfd5b6001018390558183827f8c5be1e5ebec7d5bd14f71427d1e84f3dd0314c0f7b2291e5b200ac8c7c3b925600080a450505050565b60405163150b7a028082523360208301528560601b60601c604083015283606083015260808083015282518060a084015280156112f3578060c08401826020870160045afa505b60208360a48301601c860160008a5af161131c573d15611317573d6000803e3d6000fd5b600083525b508060e01b8251146113365763d1a57ed66000526004601cfd5b505050505050565b60006020828403121561135057600080fd5b81357fffffffff000000000000000000000000000000000000000000000000000000008116811461085357600080fd5b60005b8381101561139b578181015183820152602001611383565b50506000910152565b60208152600082518060208401526113c3816040850160208701611380565b601f01601f19169190910160400192915050565b6000602082840312156113e957600080fd5b5035919050565b80356001600160a01b03811681146108d357600080fd5b6000806040838503121561141a57600080fd5b611423836113f0565b946020939093013593505050565b60008083601f84011261144357600080fd5b50813567ffffffffffffffff81111561145b57600080fd5b60208301915083602082850101111561147357600080fd5b9250929050565b60008060008060006080868803121561149257600080fd5b61149b866113f0565b94506114a9602087016113f0565b935060408601359250606086013567ffffffffffffffff8111156114cc57600080fd5b6114d888828901611431565b969995985093965092949392505050565b6000806000606084860312156114fe57600080fd5b611507846113f0565b9250611515602085016113f0565b9150604084013590509250925092565b6000806040838503121561153857600080fd5b611541836113f0565b91506020830135801515811461155657600080fd5b809150509250929050565b60006020828403121561157357600080fd5b610853826113f0565b6000806040838503121561158f57600080fd5b8235915060208301356bffffffffffffffffffffffff8116811461155657600080fd5b600080600080606085870312156115c857600080fd5b6115d1856113f0565b935060208501359250604085013567ffffffffffffffff8111156115f457600080fd5b61160087828801611431565b95989497509550505050565b6000806040838503121561161f57600080fd5b611628836113f0565b915060208301357bffffffffffffffffffffffffffffffffffffffffffffffffffffffff8116811461155657600080fd5b6000806040838503121561166c57600080fd5b611675836113f0565b9150611683602084016113f0565b90509250929050565b7f68747470733a2f2f72656d696c696f2e6f72672f72656d696c696f2f6a736f6e81527f2f000000000000000000000000000000000000000000000000000000000000006020820152600082516116ea816021850160208701611380565b919091016021019291505056fea2646970667358221220a557cc98d65a8806948f47c9d74c79da54b9dd5a69052f1d7aecc9d480bbd83b64736f6c63430008130033",
    "linkReferences": {}
  },
  "methodIdentifiers": {
    "approve(address,uint256)": "095ea7b3",
    "balanceOf(address)": "70a08231",
    "burn(uint256)": "42966c68",
    "directApprove(address,uint256)": "8529eea6",
    "directGetApproved(uint256)": "a0621994",
    "directOwnerOf(uint256)": "fb25fb7a",
    "directSafeTransferFrom(address,address,uint256)": "38e29799",
    "directSafeTransferFrom(address,address,uint256,bytes)": "1ceb915a",
    "directSetApprovalForAll(address,bool)": "518066d8",
    "directTransferFrom(address,address,uint256)": "a8721c2e",
    "exists(uint256)": "4f558e79",
    "getApproved(uint256)": "081812fc",
    "getAux(address)": "bf0b175e",
    "getExtraData(uint256)": "3c79ca03",
    "isApprovedForAll(address,address)": "e985e9c5",
    "isApprovedOrOwner(address,uint256)": "430c2081",
    "mint(address,uint256)": "40c10f19",
    "name()": "06fdde03",
    "ownerOf(uint256)": "6352211e",
    "safeMint(address,uint256)": "a1448194",
    "safeMint(address,uint256,bytes)": "8832e6e3",
    "safeTransferFrom(address,address,uint256)": "42842e0e",
    "safeTransferFrom(address,address,uint256,bytes)": "b88d4fde",
    "setApprovalForAll(address,bool)": "a22cb465",
    "setAux(address,uint224)": "a824b246",
    "setExtraData(uint256,uint96)": "86cd7e96",
    "supportsInterface(bytes4)": "01ffc9a7",
    "symbol()": "95d89b41",
    "tokenURI(uint256)": "c87b56dd",
    "transferFrom(address,address,uint256)": "23b872dd",
    "uncheckedBurn(uint256)": "991bbee9",
    "uncheckedTransferFrom(address,address,uint256)": "85d7dc30"
  },
  "storageLayout": {
    "storage": [],
    "types": {}
  },
  "id": 175
}