{
  "abi": [
    {
      "inputs": [
        {
          "internalType": "address",
          "name": "_allo",
          "type": "address"
        },
        {
          "internalType": "string",
          "name": "_name",
          "type": "string"
        }
      ],
      "stateMutability": "nonpayable",
      "type": "constructor"
    },
    {
      "inputs": [],
      "name": "ALLOCATION_ACTIVE",
      "type": "error"
    },
    {
      "inputs": [],
      "name": "ALLOCATION_NOT_ACTIVE",
      "type": "error"
    },
    {
      "inputs": [],
      "name": "ALLOCATION_NOT_ENDED",
      "type": "error"
    },
    {
      "inputs": [],
      "name": "ALREADY_INITIALIZED",
      "type": "error"
    },
    {
      "inputs": [],
      "name": "AMOUNT_MISMATCH",
      "type": "error"
    },
    {
      "inputs": [],
      "name": "ANCHOR_ERROR",
      "type": "error"
    },
    {
      "inputs": [],
      "name": "ARRAY_MISMATCH",
      "type": "error"
    },
    {
      "inputs": [],
      "name": "INVALID",
      "type": "error"
    },
    {
      "inputs": [],
      "name": "INVALID_ADDRESS",
      "type": "error"
    },
    {
      "inputs": [],
      "name": "INVALID_FEE",
      "type": "error"
    },
    {
      "inputs": [],
      "name": "INVALID_METADATA",
      "type": "error"
    },
    {
      "inputs": [],
      "name": "INVALID_REGISTRATION",
      "type": "error"
    },
    {
      "inputs": [],
      "name": "IS_APPROVED_STRATEGY",
      "type": "error"
    },
    {
      "inputs": [],
      "name": "MISMATCH",
      "type": "error"
    },
    {
      "inputs": [],
      "name": "NONCE_NOT_AVAILABLE",
      "type": "error"
    },
    {
      "inputs": [],
      "name": "NOT_APPROVED_STRATEGY",
      "type": "error"
    },
    {
      "inputs": [],
      "name": "NOT_ENOUGH_FUNDS",
      "type": "error"
    },
    {
      "inputs": [],
      "name": "NOT_INITIALIZED",
      "type": "error"
    },
    {
      "inputs": [],
      "name": "NOT_PENDING_OWNER",
      "type": "error"
    },
    {
      "inputs": [],
      "name": "POOL_ACTIVE",
      "type": "error"
    },
    {
      "inputs": [],
      "name": "POOL_INACTIVE",
      "type": "error"
    },
    {
      "inputs": [],
      "name": "RECIPIENT_ALREADY_ACCEPTED",
      "type": "error"
    },
    {
      "inputs": [
        {
          "internalType": "address",
          "name": "recipientId",
          "type": "address"
        }
      ],
      "name": "RECIPIENT_ERROR",
      "type": "error"
    },
    {
      "inputs": [],
      "name": "RECIPIENT_NOT_ACCEPTED",
      "type": "error"
    },
    {
      "inputs": [],
      "name": "REGISTRATION_NOT_ACTIVE",
      "type": "error"
    },
    {
      "inputs": [],
      "name": "UNAUTHORIZED",
      "type": "error"
    },
    {
      "inputs": [],
      "name": "ZERO_ADDRESS",
      "type": "error"
    },
    {
      "anonymous": false,
      "inputs": [
        {
          "indexed": true,
          "internalType": "address",
          "name": "recipientId",
          "type": "address"
        },
        {
          "indexed": false,
          "internalType": "uint256",
          "name": "votes",
          "type": "uint256"
        },
        {
          "indexed": false,
          "internalType": "address",
          "name": "allocator",
          "type": "address"
        }
      ],
      "name": "Allocated",
      "type": "event"
    },
    {
      "anonymous": false,
      "inputs": [
        {
          "indexed": true,
          "internalType": "address",
          "name": "recipientId",
          "type": "address"
        },
        {
          "indexed": false,
          "internalType": "uint256",
          "name": "amount",
          "type": "uint256"
        },
        {
          "indexed": false,
          "internalType": "address",
          "name": "token",
          "type": "address"
        },
        {
          "indexed": false,
          "internalType": "address",
          "name": "sender",
          "type": "address"
        }
      ],
      "name": "Allocated",
      "type": "event"
    },
    {
      "anonymous": false,
      "inputs": [
        {
          "indexed": true,
          "internalType": "address",
          "name": "recipientId",
          "type": "address"
        },
        {
          "indexed": false,
          "internalType": "address",
          "name": "recipientAddress",
          "type": "address"
        },
        {
          "indexed": false,
          "internalType": "uint256",
          "name": "amount",
          "type": "uint256"
        },
        {
          "indexed": false,
          "internalType": "address",
          "name": "sender",
          "type": "address"
        }
      ],
      "name": "Distributed",
      "type": "event"
    },
    {
      "anonymous": false,
      "inputs": [
        {
          "indexed": false,
          "internalType": "address",
          "name": "allo",
          "type": "address"
        },
        {
          "indexed": false,
          "internalType": "bytes32",
          "name": "profileId",
          "type": "bytes32"
        },
        {
          "indexed": false,
          "internalType": "uint256",
          "name": "poolId",
          "type": "uint256"
        },
        {
          "indexed": false,
          "internalType": "bytes",
          "name": "data",
          "type": "bytes"
        }
      ],
      "name": "Initialized",
      "type": "event"
    },
    {
      "anonymous": false,
      "inputs": [
        {
          "indexed": false,
          "internalType": "bool",
          "name": "active",
          "type": "bool"
        }
      ],
      "name": "PoolActive",
      "type": "event"
    },
    {
      "anonymous": false,
      "inputs": [
        {
          "indexed": true,
          "internalType": "address",
          "name": "recipientId",
          "type": "address"
        },
        {
          "indexed": false,
          "internalType": "enum IStrategy.Status",
          "name": "status",
          "type": "uint8"
        },
        {
          "indexed": false,
          "internalType": "address",
          "name": "sender",
          "type": "address"
        }
      ],
      "name": "RecipientStatusUpdated",
      "type": "event"
    },
    {
      "anonymous": false,
      "inputs": [
        {
          "indexed": true,
          "internalType": "address",
          "name": "recipientId",
          "type": "address"
        },
        {
          "indexed": false,
          "internalType": "bytes",
          "name": "data",
          "type": "bytes"
        },
        {
          "indexed": false,
          "internalType": "address",
          "name": "sender",
          "type": "address"
        }
      ],
      "name": "Registered",
      "type": "event"
    },
    {
      "anonymous": false,
      "inputs": [
        {
          "indexed": true,
          "internalType": "address",
          "name": "recipientId",
          "type": "address"
        },
        {
          "indexed": false,
          "internalType": "enum IStrategy.Status",
          "name": "status",
          "type": "uint8"
        },
        {
          "indexed": false,
          "internalType": "address",
          "name": "sender",
          "type": "address"
        }
      ],
      "name": "Reviewed",
      "type": "event"
    },
    {
      "anonymous": false,
      "inputs": [
        {
          "indexed": false,
          "internalType": "uint64",
          "name": "registrationStartTime",
          "type": "uint64"
        },
        {
          "indexed": false,
          "internalType": "uint64",
          "name": "registrationEndTime",
          "type": "uint64"
        },
        {
          "indexed": false,
          "internalType": "uint64",
          "name": "allocationStartTime",
          "type": "uint64"
        },
        {
          "indexed": false,
          "internalType": "uint64",
          "name": "allocationEndTime",
          "type": "uint64"
        },
        {
          "indexed": false,
          "internalType": "address",
          "name": "sender",
          "type": "address"
        }
      ],
      "name": "TimestampsUpdated",
      "type": "event"
    },
    {
      "anonymous": false,
      "inputs": [
        {
          "indexed": true,
          "internalType": "address",
          "name": "recipientId",
          "type": "address"
        },
        {
          "indexed": false,
          "internalType": "bytes",
          "name": "data",
          "type": "bytes"
        },
        {
          "indexed": false,
          "internalType": "address",
          "name": "sender",
          "type": "address"
        },
        {
          "indexed": false,
          "internalType": "enum IStrategy.Status",
          "name": "status",
          "type": "uint8"
        }
      ],
      "name": "UpdatedRegistration",
      "type": "event"
    },
    {
      "inputs": [],
      "name": "NATIVE",
      "outputs": [
        {
          "internalType": "address",
          "name": "",
          "type": "address"
        }
      ],
      "stateMutability": "view",
      "type": "function"
    },
    {
      "inputs": [
        {
          "internalType": "bytes",
          "name": "_data",
          "type": "bytes"
        },
        {
          "internalType": "address",
          "name": "_sender",
          "type": "address"
        }
      ],
      "name": "allocate",
      "outputs": [],
      "stateMutability": "payable",
      "type": "function"
    },
    {
      "inputs": [],
      "name": "allocationEndTime",
      "outputs": [
        {
          "internalType": "uint64",
          "name": "",
          "type": "uint64"
        }
      ],
      "stateMutability": "view",
      "type": "function"
    },
    {
      "inputs": [],
      "name": "allocationStartTime",
      "outputs": [
        {
          "internalType": "uint64",
          "name": "",
          "type": "uint64"
        }
      ],
      "stateMutability": "view",
      "type": "function"
    },
    {
      "inputs": [
        {
          "internalType": "address",
          "name": "",
          "type": "address"
        }
      ],
      "name": "allocators",
      "outputs": [
        {
          "internalType": "uint256",
          "name": "voiceCredits",
          "type": "uint256"
        }
      ],
      "stateMutability": "view",
      "type": "function"
    },
    {
      "inputs": [
        {
          "internalType": "address[]",
          "name": "_recipientIds",
          "type": "address[]"
        },
        {
          "internalType": "bytes",
          "name": "_data",
          "type": "bytes"
        },
        {
          "internalType": "address",
          "name": "_sender",
          "type": "address"
        }
      ],
      "name": "distribute",
      "outputs": [],
      "stateMutability": "nonpayable",
      "type": "function"
    },
    {
      "inputs": [],
      "name": "getAllo",
      "outputs": [
        {
          "internalType": "contract IAllo",
          "name": "",
          "type": "address"
        }
      ],
      "stateMutability": "view",
      "type": "function"
    },
    {
      "inputs": [
        {
          "internalType": "address[]",
          "name": "_recipientIds",
          "type": "address[]"
        },
        {
          "internalType": "bytes[]",
          "name": "_data",
          "type": "bytes[]"
        }
      ],
      "name": "getPayouts",
      "outputs": [
        {
          "components": [
            {
              "internalType": "address",
              "name": "recipientAddress",
              "type": "address"
            },
            {
              "internalType": "uint256",
              "name": "amount",
              "type": "uint256"
            }
          ],
          "internalType": "struct IStrategy.PayoutSummary[]",
          "name": "",
          "type": "tuple[]"
        }
      ],
      "stateMutability": "view",
      "type": "function"
    },
    {
      "inputs": [],
      "name": "getPoolAmount",
      "outputs": [
        {
          "internalType": "uint256",
          "name": "",
          "type": "uint256"
        }
      ],
      "stateMutability": "view",
      "type": "function"
    },
    {
      "inputs": [],
      "name": "getPoolId",
      "outputs": [
        {
          "internalType": "uint256",
          "name": "",
          "type": "uint256"
        }
      ],
      "stateMutability": "view",
      "type": "function"
    },
    {
      "inputs": [
        {
          "internalType": "address",
          "name": "_recipientId",
          "type": "address"
        }
      ],
      "name": "getRecipient",
      "outputs": [
        {
          "components": [
            {
              "internalType": "uint256",
              "name": "totalVotesReceived",
              "type": "uint256"
            },
            {
              "internalType": "bool",
              "name": "useRegistryAnchor",
              "type": "bool"
            },
            {
              "internalType": "address",
              "name": "recipientAddress",
              "type": "address"
            },
            {
              "components": [
                {
                  "internalType": "uint256",
                  "name": "protocol",
                  "type": "uint256"
                },
                {
                  "internalType": "string",
                  "name": "pointer",
                  "type": "string"
                }
              ],
              "internalType": "struct Metadata",
              "name": "metadata",
              "type": "tuple"
            },
            {
              "internalType": "enum IStrategy.Status",
              "name": "recipientStatus",
              "type": "uint8"
            }
          ],
          "internalType": "struct QVBaseStrategy.Recipient",
          "name": "",
          "type": "tuple"
        }
      ],
      "stateMutability": "view",
      "type": "function"
    },
    {
      "inputs": [
        {
          "internalType": "address",
          "name": "_recipientId",
          "type": "address"
        }
      ],
      "name": "getRecipientStatus",
      "outputs": [
        {
          "internalType": "enum IStrategy.Status",
          "name": "",
          "type": "uint8"
        }
      ],
      "stateMutability": "view",
      "type": "function"
    },
    {
      "inputs": [],
      "name": "getStrategyId",
      "outputs": [
        {
          "internalType": "bytes32",
          "name": "",
          "type": "bytes32"
        }
      ],
      "stateMutability": "view",
      "type": "function"
    },
    {
      "inputs": [],
      "name": "govToken",
      "outputs": [
        {
          "internalType": "contract IVotes",
          "name": "",
          "type": "address"
        }
      ],
      "stateMutability": "view",
      "type": "function"
    },
    {
      "inputs": [
        {
          "internalType": "uint256",
          "name": "_amount",
          "type": "uint256"
        }
      ],
      "name": "increasePoolAmount",
      "outputs": [],
      "stateMutability": "nonpayable",
      "type": "function"
    },
    {
      "inputs": [
        {
          "internalType": "uint256",
          "name": "_poolId",
          "type": "uint256"
        },
        {
          "internalType": "bytes",
          "name": "_data",
          "type": "bytes"
        }
      ],
      "name": "initialize",
      "outputs": [],
      "stateMutability": "nonpayable",
      "type": "function"
    },
    {
      "inputs": [],
      "name": "isPoolActive",
      "outputs": [
        {
          "internalType": "bool",
          "name": "",
          "type": "bool"
        }
      ],
      "stateMutability": "view",
      "type": "function"
    },
    {
      "inputs": [
        {
          "internalType": "address",
          "name": "_allocator",
          "type": "address"
        }
      ],
      "name": "isValidAllocator",
      "outputs": [
        {
          "internalType": "bool",
          "name": "",
          "type": "bool"
        }
      ],
      "stateMutability": "view",
      "type": "function"
    },
    {
      "inputs": [],
      "name": "metadataRequired",
      "outputs": [
        {
          "internalType": "bool",
          "name": "",
          "type": "bool"
        }
      ],
      "stateMutability": "view",
      "type": "function"
    },
    {
      "inputs": [
        {
          "internalType": "address",
          "name": "",
          "type": "address"
        }
      ],
      "name": "paidOut",
      "outputs": [
        {
          "internalType": "bool",
          "name": "",
          "type": "bool"
        }
      ],
      "stateMutability": "view",
      "type": "function"
    },
    {
      "inputs": [
        {
          "internalType": "address",
          "name": "",
          "type": "address"
        }
      ],
      "name": "recipients",
      "outputs": [
        {
          "internalType": "uint256",
          "name": "totalVotesReceived",
          "type": "uint256"
        },
        {
          "internalType": "bool",
          "name": "useRegistryAnchor",
          "type": "bool"
        },
        {
          "internalType": "address",
          "name": "recipientAddress",
          "type": "address"
        },
        {
          "components": [
            {
              "internalType": "uint256",
              "name": "protocol",
              "type": "uint256"
            },
            {
              "internalType": "string",
              "name": "pointer",
              "type": "string"
            }
          ],
          "internalType": "struct Metadata",
          "name": "metadata",
          "type": "tuple"
        },
        {
          "internalType": "enum IStrategy.Status",
          "name": "recipientStatus",
          "type": "uint8"
        }
      ],
      "stateMutability": "view",
      "type": "function"
    },
    {
      "inputs": [
        {
          "internalType": "bytes",
          "name": "_data",
          "type": "bytes"
        },
        {
          "internalType": "address",
          "name": "_sender",
          "type": "address"
        }
      ],
      "name": "registerRecipient",
      "outputs": [
        {
          "internalType": "address",
          "name": "recipientId",
          "type": "address"
        }
      ],
      "stateMutability": "payable",
      "type": "function"
    },
    {
      "inputs": [],
      "name": "registrationEndTime",
      "outputs": [
        {
          "internalType": "uint64",
          "name": "",
          "type": "uint64"
        }
      ],
      "stateMutability": "view",
      "type": "function"
    },
    {
      "inputs": [],
      "name": "registrationStartTime",
      "outputs": [
        {
          "internalType": "uint64",
          "name": "",
          "type": "uint64"
        }
      ],
      "stateMutability": "view",
      "type": "function"
    },
    {
      "inputs": [],
      "name": "registryGating",
      "outputs": [
        {
          "internalType": "bool",
          "name": "",
          "type": "bool"
        }
      ],
      "stateMutability": "view",
      "type": "function"
    },
    {
      "inputs": [
        {
          "internalType": "address[]",
          "name": "_recipientIds",
          "type": "address[]"
        },
        {
          "internalType": "enum IStrategy.Status[]",
          "name": "_recipientStatuses",
          "type": "uint8[]"
        }
      ],
      "name": "reviewRecipients",
      "outputs": [],
      "stateMutability": "nonpayable",
      "type": "function"
    },
    {
      "inputs": [],
      "name": "reviewThreshold",
      "outputs": [
        {
          "internalType": "uint256",
          "name": "",
          "type": "uint256"
        }
      ],
      "stateMutability": "view",
      "type": "function"
    },
    {
      "inputs": [
        {
          "internalType": "address",
          "name": "",
          "type": "address"
        },
        {
          "internalType": "enum IStrategy.Status",
          "name": "",
          "type": "uint8"
        }
      ],
      "name": "reviewsByStatus",
      "outputs": [
        {
          "internalType": "uint256",
          "name": "",
          "type": "uint256"
        }
      ],
      "stateMutability": "view",
      "type": "function"
    },
    {
      "inputs": [],
      "name": "timestamp",
      "outputs": [
        {
          "internalType": "uint256",
          "name": "",
          "type": "uint256"
        }
      ],
      "stateMutability": "view",
      "type": "function"
    },
    {
      "inputs": [],
      "name": "totalRecipientVotes",
      "outputs": [
        {
          "internalType": "uint256",
          "name": "",
          "type": "uint256"
        }
      ],
      "stateMutability": "view",
      "type": "function"
    },
    {
      "inputs": [
        {
          "internalType": "uint64",
          "name": "_registrationStartTime",
          "type": "uint64"
        },
        {
          "internalType": "uint64",
          "name": "_registrationEndTime",
          "type": "uint64"
        },
        {
          "internalType": "uint64",
          "name": "_allocationStartTime",
          "type": "uint64"
        },
        {
          "internalType": "uint64",
          "name": "_allocationEndTime",
          "type": "uint64"
        }
      ],
      "name": "updatePoolTimestamps",
      "outputs": [],
      "stateMutability": "nonpayable",
      "type": "function"
    }
  ],
  "bytecode": {
    "object": "0x60c06040523480156200001157600080fd5b50604051620030dc380380620030dc8339810160408190526200003491620000c0565b6001600160a01b03821660805260405182908290829082906200005c9082906020016200019b565b60408051601f19818403018152919052805160209091012060a05250620001d0945050505050565b634e487b7160e01b600052604160045260246000fd5b60005b83811015620000b75781810151838201526020016200009d565b50506000910152565b60008060408385031215620000d457600080fd5b82516001600160a01b0381168114620000ec57600080fd5b60208401519092506001600160401b03808211156200010a57600080fd5b818501915085601f8301126200011f57600080fd5b81518181111562000134576200013462000084565b604051601f8201601f19908116603f011681019083821181831017156200015f576200015f62000084565b816040528281528860208487010111156200017957600080fd5b6200018c8360208301602088016200009a565b80955050505050509250929050565b6020815260008251806020840152620001bc8160408501602087016200009a565b601f01601f19169190910160400192915050565b60805160a051612eca6200021260003960006103390152600081816102be01528181610bf601528181610d9301528181610f040152611cdf0152612eca6000f3fe6080604052600436106101d85760003560e01c80637f83598311610102578063d2e17f5911610095578063eb82031211610064578063eb820312146105e8578063edd146cc14610619578063ef2920fc14610639578063f5b0dfb71461064c57600080fd5b8063d2e17f5914610551578063df868ed314610579578063dff7d2c71461058e578063eb11af93146105bb57600080fd5b8063a647d23e116100d1578063a647d23e146104d5578063b2b878d0146104ef578063b80777ea1461051c578063cb0e85a61461053257600080fd5b80637f8359831461043c57806381f03fcb1461045c5780639af5c09d1461048c578063a0cf0aea146104ad57600080fd5b806338fff2d01161017a5780634d31d087116101495780634d31d087146103b357806357825849146103e357806359010701146103f957806362812a391461040f57600080fd5b806338fff2d01461031557806342fda9c71461032a5780634533d6781461035d5780634ab4ba421461039e57600080fd5b80630d93bb53116101b65780630d93bb531461027757806315cc481e146102af5780632143e92f146102e25780632bbe0cae1461030257600080fd5b806305268cff146101dd578063084ea36e1461021a5780630a6f0ee914610255575b600080fd5b3480156101e957600080fd5b50600b546101fd906001600160a01b031681565b6040516001600160a01b0390911681526020015b60405180910390f35b34801561022657600080fd5b50610247610235366004612106565b60086020526000908152604090205481565b604051908152602001610211565b34801561026157600080fd5b506102756102703660046122f1565b61066c565b005b34801561028357600080fd5b5061024761029236600461237d565b600a60209081526000928352604080842090915290825290205481565b3480156102bb57600080fd5b507f00000000000000000000000000000000000000000000000000000000000000006101fd565b3480156102ee57600080fd5b506102756102fd3660046123c8565b61068c565b6101fd610310366004612424565b6106a9565b34801561032157600080fd5b50600154610247565b34801561033657600080fd5b507f0000000000000000000000000000000000000000000000000000000000000000610247565b34801561036957600080fd5b5060055461038590600160c01b900467ffffffffffffffff1681565b60405167ffffffffffffffff9091168152602001610211565b3480156103aa57600080fd5b50600254610247565b3480156103bf57600080fd5b506103d36103ce366004612106565b6106ce565b6040519015158152602001610211565b3480156103ef57600080fd5b5061024760045481565b34801561040557600080fd5b5061024760035481565b34801561041b57600080fd5b5061042f61042a366004612106565b6106d9565b604051610211919061251d565b34801561044857600080fd5b506102756104573660046125ca565b6106ea565b34801561046857600080fd5b506103d3610477366004612106565b60096020526000908152604090205460ff1681565b34801561049857600080fd5b506005546103859067ffffffffffffffff1681565b3480156104b957600080fd5b506101fd73eeeeeeeeeeeeeeeeeeeeeeeeeeeeeeeeeeeeeeee81565b3480156104e157600080fd5b506006546103d39060ff1681565b3480156104fb57600080fd5b5061050f61050a366004612636565b61096a565b604051610211919061270b565b34801561052857600080fd5b50610247600c5481565b34801561053e57600080fd5b506006546103d390610100900460ff1681565b34801561055d57600080fd5b5060055461038590600160801b900467ffffffffffffffff1681565b34801561058557600080fd5b506103d3610a82565b34801561059a57600080fd5b506005546103859068010000000000000000900467ffffffffffffffff1681565b3480156105c757600080fd5b506105db6105d6366004612106565b610a91565b6040516102119190612763565b3480156105f457600080fd5b50610608610603366004612106565b610a9c565b604051610211959493929190612771565b34801561062557600080fd5b506102756106343660046127ba565b610b81565b610275610647366004612424565b610ba3565b34801561065857600080fd5b50610275610667366004612801565b610bc1565b610674610beb565b61067c610c36565b610687838383610c72565b505050565b3361069681610ec1565b6106a285858585610f8c565b5050505050565b60006106b3610beb565b6106bb610c36565b6106c58383611126565b90505b92915050565b60006106c882611463565b6106e161209d565b6106c8826114e6565b336106f481610ec1565b6106fc61161d565b8382811461071d57604051637fcce2a960e01b815260040160405180910390fd5b60005b8181101561096157600085858381811061073c5761073c61281a565b90506020020160208101906107519190612830565b905060008888848181106107675761076761281a565b905060200201602081019061077c9190612106565b90506000826006811115610792576107926124e5565b14806107af575060048260068111156107ad576107ad6124e5565b145b156107dd5760405163f4a513b960e01b81526001600160a01b03821660048201526024015b60405180910390fd5b6001600160a01b0381166000908152600a6020526040812090836006811115610808576108086124e5565b6006811115610819576108196124e5565b8152602001908152602001600020600081548092919061083890612861565b90915550506004546001600160a01b0382166000908152600a602052604081209084600681111561086b5761086b6124e5565b600681111561087c5761087c6124e5565b81526020019081526020016000205410610914576001600160a01b038116600090815260076020526040902060048101805484919060ff191660018360068111156108c9576108c96124e5565b0217905550816001600160a01b03167f45af2a5942640dc0876474f4fda063eec36dd5518e0bba47622461b993f762a384600060405161090a92919061287a565b60405180910390a2505b806001600160a01b03167f094d003df6c0153ac428d1a45e5827aa8e2aa00c6dbbc96a2dbb9a682115d837833360405161094f92919061287a565b60405180910390a25050600101610720565b50505050505050565b815181516060919081146109aa576040517f7b49805600000000000000000000000000000000000000000000000000000000815260040160405180910390fd5b60008167ffffffffffffffff8111156109c5576109c561212a565b604051908082528060200260200182016040528015610a0a57816020015b60408051808201909152600080825260208201528152602001906001900390816109e35790505b50905060005b82811015610a7957610a54868281518110610a2d57610a2d61281a565b6020026020010151868381518110610a4757610a4761281a565b6020026020010151611687565b828281518110610a6657610a6661281a565b6020908102919091010152600101610a10565b50949350505050565b6000610a8c611836565b905090565b60006106c882611880565b6007602090815260009182526040918290208054600182015484518086019095526002830180548652600384018054939660ff8416966101009094046001600160a01b03169594909384019190610af29061289e565b80601f0160208091040260200160405190810160405280929190818152602001828054610b1e9061289e565b8015610b6b5780601f10610b4057610100808354040283529160200191610b6b565b820191906000526020600020905b815481529060010190602001808311610b4e57829003601f168201915b5050509190925250505060049091015460ff1685565b600081806020019051810190610b9791906128ed565b90506106878382611895565b610bab610beb565b610bb3610c36565b610bbd8282611947565b5050565b610bc9610beb565b8060026000828254610bdb91906129c1565b90915550610be890508181565b50565b336001600160a01b037f00000000000000000000000000000000000000000000000000000000000000001614610c345760405163075fd2b160e01b815260040160405180910390fd5b565b600154600003610c34576040517f3da3f98c00000000000000000000000000000000000000000000000000000000815260040160405180910390fd5b80610c7c81610ec1565b610c84611a78565b835160005b81811015610eb9576000868281518110610ca557610ca561281a565b60200260200101519050600060076000836001600160a01b03166001600160a01b0316815260200190815260200160002090506000610cf38360405180602001604052806000815250611687565b6020808201516001600160a01b038616600090815260099092526040909120549192509060ff1680610d2b5750610d2984611ac5565b155b80610d34575080155b15610d5d5760405163f4a513b960e01b81526001600160a01b03851660048201526024016107d4565b6001546040517f068bcd8d0000000000000000000000000000000000000000000000000000000081526000916001600160a01b037f0000000000000000000000000000000000000000000000000000000000000000169163068bcd8d91610dca9160040190815260200190565b600060405180830381865afa158015610de7573d6000803e3d6000fd5b505050506040513d6000823e601f3d908101601f19168201604052610e0f9190810190612a88565b60408101516001860154919250610e349161010090046001600160a01b031684611b00565b6001600160a01b03858116600081815260096020908152604091829020805460ff19166001908117909155880154825161010090910485168152908101869052928c1690830152907fb5b51454adfa840bd593658325a60a50b0216f12eb5d2937efe6cea935675b7d9060600160405180910390a28560010195505050505050610c89565b505050505050565b6001546040517f29e40d4b00000000000000000000000000000000000000000000000000000000815260048101919091526001600160a01b0382811660248301527f000000000000000000000000000000000000000000000000000000000000000016906329e40d4b90604401602060405180830381865afa158015610f4b573d6000803e3d6000fd5b505050506040513d601f19601f82011682018060405250810190610f6f9190612b3c565b610be85760405163075fd2b160e01b815260040160405180910390fd5b8367ffffffffffffffff16421180610fb757508267ffffffffffffffff168467ffffffffffffffff16115b80610fd557508167ffffffffffffffff168467ffffffffffffffff16115b80610ff357508067ffffffffffffffff168267ffffffffffffffff16115b8061101157508067ffffffffffffffff168367ffffffffffffffff16115b1561102f57604051637fcce2a960e01b815260040160405180910390fd5b6005805467ffffffffffffffff838116600160c01b90810277ffffffffffffffffffffffffffffffffffffffffffffffff878416600160801b908102919091166fffffffffffffffffffffffffffffffff8a8616680100000000000000009081027fffffffffffffffffffffffffffffffff000000000000000000000000000000009098168d88161797909717161791909117948590556040805186851681529486048416602086015290850483169084015290920490911660608201523360808201527fcb0fb7a7b87db2f472ee8977444cfdbc51993ce660aca27a5969a724fae6dcf39060a00160405180910390a150505050565b600061113061161d565b6000806000611152604051806040016040528060008152602001606081525090565b60065460ff16156111a457868060200190518101906111719190612b57565b919650945090506111828587611b45565b61119f5760405163075fd2b160e01b815260040160405180910390fd5b61120e565b868060200190518101906111b89190612b57565b91955093506001600160a01b038416151592509050816111d857856111da565b825b94508180156111f057506111ee8587611b45565b155b1561120e5760405163075fd2b160e01b815260040160405180910390fd5b600654610100900460ff1680156112315750602081015151158061123157508051155b15611268576040517fc19e07c500000000000000000000000000000000000000000000000000000000815260040160405180910390fd5b6001600160a01b03841661129a5760405163f4a513b960e01b81526001600160a01b03861660048201526024016107d4565b6001600160a01b038086166000908152600760209081526040909120600181018054938816610100027fffffffffffffffffffffff0000000000000000000000000000000000000000ff9094169390931790925582516002830190815590830151839190600384019061130d9082612c01565b505060065460ff1690506113215782611324565b60015b60018201805460ff1916911515919091179055600481015460ff166000816006811115611353576113536124e5565b036113b15760048201805460ff191660011790556040516001600160a01b038816907fa197306e3dd5494a61a695381aa809a53b8e377a685e84e404a85d5a8da6cc62906113a4908c908c90612cc1565b60405180910390a2611457565b60028160068111156113c5576113c56124e5565b036113de5760048201805460ff19166001179055611408565b60038160068111156113f2576113f26124e5565b03611408576004828101805460ff191690911790555b60048201546040516001600160a01b038916917fcec1da3f7f0b8a344dd1025d06e2ddd48b14880395997ad97cbdb439acc761d49161144e918d918d9160ff1690612cec565b60405180910390a25b50505050505092915050565b600b54600c54604051630748d63560e31b81526001600160a01b038481166004830152602482019290925260009283921690633a46b1a890604401602060405180830381865afa1580156114bb573d6000803e3d6000fd5b505050506040513d601f19601f820116820180604052508101906114df9190612d1d565b1192915050565b6114ee61209d565b6001600160a01b03808316600090815260076020908152604091829020825160a08101845281548152600182015460ff811615158285015261010090049094168484015282518084019093526002810180548452600382018054929460608701949093908401919061155f9061289e565b80601f016020809104026020016040519081016040528092919081815260200182805461158b9061289e565b80156115d85780601f106115ad576101008083540402835291602001916115d8565b820191906000526020600020905b8154815290600101906020018083116115bb57829003601f168201915b505050919092525050508152600482015460209091019060ff166006811115611603576116036124e5565b6006811115611614576116146124e5565b90525092915050565b6005544267ffffffffffffffff9091161180611650575060055468010000000000000000900467ffffffffffffffff1642115b15610c34576040517fb609ed5a00000000000000000000000000000000000000000000000000000000815260040160405180910390fd5b604080518082018252600080825260208083018290526001600160a01b03868116835260078252848320855160a08101875281548152600182015460ff8116151582860152610100900490921682870152855180870190965260028101805487526003820180549697959693959294606087019490840191906117099061289e565b80601f01602080910402602001604051908101604052809291908181526020018280546117359061289e565b80156117825780601f1061175757610100808354040283529160200191611782565b820191906000526020600020905b81548152906001019060200180831161176557829003601f168201915b505050919092525050508152600482015460209091019060ff1660068111156117ad576117ad6124e5565b60068111156117be576117be6124e5565b9052506001600160a01b0385166000908152600960205260408120549192509060ff161580156117ef575060035415155b156118135760035482516002546118069190612d36565b6118109190612d4d565b90505b6040805180820182529201516001600160a01b0316825260208201529392505050565b6005546000904267ffffffffffffffff9091161180159061186f575060055468010000000000000000900467ffffffffffffffff164211155b1561187a5750600190565b50600090565b600061188b826114e6565b6080015192915050565b6118a3828260400151611c7f565b8051600b80547fffffffffffffffffffffffff0000000000000000000000000000000000000000166001600160a01b0390921691821790556020820151600c55604051630748d63560e31b815230600482015260006024820152633a46b1a890604401602060405180830381865afa158015611923573d6000803e3d6000fd5b505050506040513d601f19601f820116820180604052508101906106879190612d1d565b6000808380602001905181019061195e9190612d6f565b6001600160a01b0382811660009081526007602090815260408083208985168085526008909352818420600b54600c549351630748d63560e31b81526004810195909552602485019390935296985094965093949391929190911690633a46b1a890604401602060405180830381865afa1580156119e0573d6000803e3d6000fd5b505050506040513d601f19601f82011682018060405250810190611a049190612d1d565b8254909150611a1d90611a1790866129c1565b82101590565b611a3a57604051637fcce2a960e01b815260040160405180910390fd5b611a4385611ac5565b611a6b5760405163f4a513b960e01b81526001600160a01b03861660048201526024016107d4565b610961828487878a611d9f565b600554600160c01b900467ffffffffffffffff16421015610c34576040517f8a879da200000000000000000000000000000000000000000000000000000000815260040160405180910390fd5b600060026001600160a01b03831660009081526007602052604090206004015460ff166006811115611af957611af96124e5565b1492915050565b7fffffffffffffffffffffffff11111111111111111111111111111111111111126001600160a01b03841601611b3a576106878282611f06565b610687838383611f22565b6006546040517fdd93da430000000000000000000000000000000000000000000000000000000081526001600160a01b0384811660048301526000928392620100009091049091169063dd93da4390602401600060405180830381865afa158015611bb4573d6000803e3d6000fd5b505050506040513d6000823e601f3d908101601f19168201604052611bdc9190810190612d9d565b60065481516040517f5e8a791500000000000000000000000000000000000000000000000000000000815260048101919091526001600160a01b0386811660248301529293506201000090910490911690635e8a791590604401602060405180830381865afa158015611c53573d6000803e3d6000fd5b505050506040513d601f19601f82011682018060405250810190611c779190612b3c565b949350505050565b611c8882611f71565b80516006805460208085015161ffff1990921693151561ff0019169390931761010091151591909102179055604080517f5ab1bd5300000000000000000000000000000000000000000000000000000000815290517f00000000000000000000000000000000000000000000000000000000000000006001600160a01b031692635ab1bd5392600480820193918290030181865afa158015611d2e573d6000803e3d6000fd5b505050506040513d601f19601f82011682018060405250810190611d529190612e64565b600660026101000a8154816001600160a01b0302191690836001600160a01b031602179055508060400151600481905550610bbd816060015182608001518360a001518460c00151610f8c565b611da7611fd9565b81600003611dc857604051637fcce2a960e01b815260040160405180910390fd5b6001600160a01b0383166000908152600186016020908152604080832054600289019092528220549091611dfc83866129c1565b90506000611e1a611e1583670de0b6b3a7640000612d36565b612044565b9050611e268382612e81565b90508060036000828254611e3a91906129c1565b9091555050875481908990600090611e539084906129c1565b90915550506001600160a01b038716600090815260018a01602052604081208054849290611e829084906129c1565b90915550506001600160a01b038716600090815260028a01602052604081208054839290611eb19084906129c1565b9091555050604080518281526001600160a01b0387811660208301528916917fe19137169fc4bceb2391a0921a61084851c12884df4897f569ec45a4ee46b7e3910160405180910390a2505050505050505050565b60008060008084865af1610bbd5763b12d13eb6000526004601cfd5b81601452806034526fa9059cbb00000000000000000000000060005260206000604460106000875af13d156001600051141716611f67576390b8ec186000526004601cfd5b6000603452505050565b611f79610beb565b60015415611fb3576040517f439a74c900000000000000000000000000000000000000000000000000000000815260040160405180910390fd5b80600003611fd457604051637fcce2a960e01b815260040160405180910390fd5b600155565b60055442600160801b90910467ffffffffffffffff16118061200d5750600554600160c01b900467ffffffffffffffff1642115b15610c34576040517fb828c90000000000000000000000000000000000000000000000000000000000815260040160405180910390fd5b60008060026120548460016129c1565b61205e9190612d4d565b90508291505b818110156120975790508060028161207c8186612d4d565b61208691906129c1565b6120909190612d4d565b9050612064565b50919050565b6040518060a001604052806000815260200160001515815260200160006001600160a01b031681526020016120e5604051806040016040528060008152602001606081525090565b81526020016000905290565b6001600160a01b0381168114610be857600080fd5b60006020828403121561211857600080fd5b8135612123816120f1565b9392505050565b634e487b7160e01b600052604160045260246000fd5b6040516060810167ffffffffffffffff811182821017156121635761216361212a565b60405290565b60405160e0810167ffffffffffffffff811182821017156121635761216361212a565b60405160c0810167ffffffffffffffff811182821017156121635761216361212a565b604051601f8201601f1916810167ffffffffffffffff811182821017156121d8576121d861212a565b604052919050565b600067ffffffffffffffff8211156121fa576121fa61212a565b5060051b60200190565b600082601f83011261221557600080fd5b8135602061222a612225836121e0565b6121af565b82815260059290921b8401810191818101908684111561224957600080fd5b8286015b8481101561226d578035612260816120f1565b835291830191830161224d565b509695505050505050565b600067ffffffffffffffff8211156122925761229261212a565b50601f01601f191660200190565b600082601f8301126122b157600080fd5b81356122bf61222582612278565b8181528460208386010111156122d457600080fd5b816020850160208301376000918101602001919091529392505050565b60008060006060848603121561230657600080fd5b833567ffffffffffffffff8082111561231e57600080fd5b61232a87838801612204565b9450602086013591508082111561234057600080fd5b5061234d868287016122a0565b925050604084013561235e816120f1565b809150509250925092565b80356007811061237857600080fd5b919050565b6000806040838503121561239057600080fd5b823561239b816120f1565b91506123a960208401612369565b90509250929050565b67ffffffffffffffff81168114610be857600080fd5b600080600080608085870312156123de57600080fd5b84356123e9816123b2565b935060208501356123f9816123b2565b92506040850135612409816123b2565b91506060850135612419816123b2565b939692955090935050565b6000806040838503121561243757600080fd5b823567ffffffffffffffff81111561244e57600080fd5b61245a858286016122a0565b925050602083013561246b816120f1565b809150509250929050565b60005b83811015612491578181015183820152602001612479565b50506000910152565b600081518084526124b2816020860160208601612476565b601f01601f19169290920160200192915050565b805182526000602082015160406020850152611c77604085018261249a565b634e487b7160e01b600052602160045260246000fd5b6007811061251957634e487b7160e01b600052602160045260246000fd5b9052565b60208152815160208201526020820151151560408201526001600160a01b0360408301511660608201526000606083015160a0608084015261256260c08401826124c6565b9050608084015161257660a08501826124fb565b509392505050565b60008083601f84011261259057600080fd5b50813567ffffffffffffffff8111156125a857600080fd5b6020830191508360208260051b85010111156125c357600080fd5b9250929050565b600080600080604085870312156125e057600080fd5b843567ffffffffffffffff808211156125f857600080fd5b6126048883890161257e565b9096509450602087013591508082111561261d57600080fd5b5061262a8782880161257e565b95989497509550505050565b6000806040838503121561264957600080fd5b823567ffffffffffffffff8082111561266157600080fd5b61266d86838701612204565b935060209150818501358181111561268457600080fd5b8501601f8101871361269557600080fd5b80356126a3612225826121e0565b81815260059190911b820184019084810190898311156126c257600080fd5b8584015b838110156126fa578035868111156126de5760008081fd5b6126ec8c89838901016122a0565b8452509186019186016126c6565b508096505050505050509250929050565b602080825282518282018190526000919060409081850190868401855b8281101561275657815180516001600160a01b03168552860151868501529284019290850190600101612728565b5091979650505050505050565b602081016106c882846124fb565b85815284151560208201526001600160a01b038416604082015260a0606082015260006127a160a08301856124c6565b90506127b060808301846124fb565b9695505050505050565b600080604083850312156127cd57600080fd5b82359150602083013567ffffffffffffffff8111156127eb57600080fd5b6127f7858286016122a0565b9150509250929050565b60006020828403121561281357600080fd5b5035919050565b634e487b7160e01b600052603260045260246000fd5b60006020828403121561284257600080fd5b61212382612369565b634e487b7160e01b600052601160045260246000fd5b6000600182016128735761287361284b565b5060010190565b6040810161288882856124fb565b6001600160a01b03831660208301529392505050565b600181811c908216806128b257607f821691505b60208210810361209757634e487b7160e01b600052602260045260246000fd5b8051612378816120f1565b8051801515811461237857600080fd5b600081830361012081121561290157600080fd5b612909612140565b8351612914816120f1565b81526020848101519082015260e0603f198301121561293257600080fd5b61293a612169565b9150612948604085016128dd565b8252612956606085016128dd565b60208301526080840151604083015260a0840151612973816123b2565b606083015260c0840151612986816123b2565b608083015260e0840151612999816123b2565b60a08301526101008401516129ad816123b2565b60c083015260408101919091529392505050565b808201808211156106c8576106c861284b565b600082601f8301126129e557600080fd5b81516129f361222582612278565b818152846020838601011115612a0857600080fd5b611c77826020830160208701612476565b600060408284031215612a2b57600080fd5b6040516040810167ffffffffffffffff8282108183111715612a4f57612a4f61212a565b81604052829350845183526020850151915080821115612a6e57600080fd5b50612a7b858286016129d4565b6020830152505092915050565b600060208284031215612a9a57600080fd5b815167ffffffffffffffff80821115612ab257600080fd5b9083019060c08286031215612ac657600080fd5b612ace61218c565b825181526020830151612ae0816120f1565b60208201526040830151612af3816120f1565b6040820152606083015182811115612b0a57600080fd5b612b1687828601612a19565b6060830152506080830151608082015260a083015160a082015280935050505092915050565b600060208284031215612b4e57600080fd5b612123826128dd565b600080600060608486031215612b6c57600080fd5b8351612b77816120f1565b6020850151909350612b88816120f1565b604085015190925067ffffffffffffffff811115612ba557600080fd5b612bb186828701612a19565b9150509250925092565b601f82111561068757600081815260208120601f850160051c81016020861015612be25750805b601f850160051c820191505b81811015610eb957828155600101612bee565b815167ffffffffffffffff811115612c1b57612c1b61212a565b612c2f81612c29845461289e565b84612bbb565b602080601f831160018114612c645760008415612c4c5750858301515b600019600386901b1c1916600185901b178555610eb9565b600085815260208120601f198616915b82811015612c9357888601518255948401946001909101908401612c74565b5085821015612cb15787850151600019600388901b60f8161c191681555b5050505050600190811b01905550565b604081526000612cd4604083018561249a565b90506001600160a01b03831660208301529392505050565b606081526000612cff606083018661249a565b90506001600160a01b0384166020830152611c7760408301846124fb565b600060208284031215612d2f57600080fd5b5051919050565b80820281158282048414176106c8576106c861284b565b600082612d6a57634e487b7160e01b600052601260045260246000fd5b500490565b60008060408385031215612d8257600080fd5b8251612d8d816120f1565b6020939093015192949293505050565b600060208284031215612daf57600080fd5b815167ffffffffffffffff80821115612dc757600080fd5b9083019060c08286031215612ddb57600080fd5b612de361218c565b8251815260208301516020820152604083015182811115612e0357600080fd5b612e0f878286016129d4565b604083015250606083015182811115612e2757600080fd5b612e3387828601612a19565b606083015250612e45608084016128d2565b6080820152612e5660a084016128d2565b60a082015295945050505050565b600060208284031215612e7657600080fd5b8151612123816120f1565b818103818111156106c8576106c861284b56fea2646970667358221220d647ddde850ecaba2e2de3bef6e48a73ad8e7a028b8961a11a86884a14fef00964736f6c63430008130033",
    "linkReferences": {}
  },
  "methodIdentifiers": {
    "NATIVE()": "a0cf0aea",
    "allocate(bytes,address)": "ef2920fc",
    "allocationEndTime()": "4533d678",
    "allocationStartTime()": "d2e17f59",
    "allocators(address)": "084ea36e",
    "distribute(address[],bytes,address)": "0a6f0ee9",
    "getAllo()": "15cc481e",
    "getPayouts(address[],bytes[])": "b2b878d0",
    "getPoolAmount()": "4ab4ba42",
    "getPoolId()": "38fff2d0",
    "getRecipient(address)": "62812a39",
    "getRecipientStatus(address)": "eb11af93",
    "getStrategyId()": "42fda9c7",
    "govToken()": "05268cff",
    "increasePoolAmount(uint256)": "f5b0dfb7",
    "initialize(uint256,bytes)": "edd146cc",
    "isPoolActive()": "df868ed3",
    "isValidAllocator(address)": "4d31d087",
    "metadataRequired()": "cb0e85a6",
    "paidOut(address)": "81f03fcb",
    "recipients(address)": "eb820312",
    "registerRecipient(bytes,address)": "2bbe0cae",
    "registrationEndTime()": "dff7d2c7",
    "registrationStartTime()": "9af5c09d",
    "registryGating()": "a647d23e",
    "reviewRecipients(address[],uint8[])": "7f835983",
    "reviewThreshold()": "57825849",
    "reviewsByStatus(address,uint8)": "0d93bb53",
    "timestamp()": "b80777ea",
    "totalRecipientVotes()": "59010701",
    "updatePoolTimestamps(uint64,uint64,uint64,uint64)": "2143e92f"
  },
  "storageLayout": {
    "storage": [
      {
        "astId": 3267,
        "contract": "contracts/strategies/_poc/qv-governance/QVGovernanceERC20Votes.sol:QVGovernanceERC20Votes",
        "label": "poolActive",
        "offset": 0,
        "slot": "0",
        "type": "t_bool"
      },
      {
        "astId": 3269,
        "contract": "contracts/strategies/_poc/qv-governance/QVGovernanceERC20Votes.sol:QVGovernanceERC20Votes",
        "label": "poolId",
        "offset": 0,
        "slot": "1",
        "type": "t_uint256"
      },
      {
        "astId": 3271,
        "contract": "contracts/strategies/_poc/qv-governance/QVGovernanceERC20Votes.sol:QVGovernanceERC20Votes",
        "label": "poolAmount",
        "offset": 0,
        "slot": "2",
        "type": "t_uint256"
      },
      {
        "astId": 14496,
        "contract": "contracts/strategies/_poc/qv-governance/QVGovernanceERC20Votes.sol:QVGovernanceERC20Votes",
        "label": "totalRecipientVotes",
        "offset": 0,
        "slot": "3",
        "type": "t_uint256"
      },
      {
        "astId": 14499,
        "contract": "contracts/strategies/_poc/qv-governance/QVGovernanceERC20Votes.sol:QVGovernanceERC20Votes",
        "label": "reviewThreshold",
        "offset": 0,
        "slot": "4",
        "type": "t_uint256"
      },
      {
        "astId": 14502,
        "contract": "contracts/strategies/_poc/qv-governance/QVGovernanceERC20Votes.sol:QVGovernanceERC20Votes",
        "label": "registrationStartTime",
        "offset": 0,
        "slot": "5",
        "type": "t_uint64"
      },
      {
        "astId": 14504,
        "contract": "contracts/strategies/_poc/qv-governance/QVGovernanceERC20Votes.sol:QVGovernanceERC20Votes",
        "label": "registrationEndTime",
        "offset": 8,
        "slot": "5",
        "type": "t_uint64"
      },
      {
        "astId": 14506,
        "contract": "contracts/strategies/_poc/qv-governance/QVGovernanceERC20Votes.sol:QVGovernanceERC20Votes",
        "label": "allocationStartTime",
        "offset": 16,
        "slot": "5",
        "type": "t_uint64"
      },
      {
        "astId": 14508,
        "contract": "contracts/strategies/_poc/qv-governance/QVGovernanceERC20Votes.sol:QVGovernanceERC20Votes",
        "label": "allocationEndTime",
        "offset": 24,
        "slot": "5",
        "type": "t_uint64"
      },
      {
        "astId": 14511,
        "contract": "contracts/strategies/_poc/qv-governance/QVGovernanceERC20Votes.sol:QVGovernanceERC20Votes",
        "label": "registryGating",
        "offset": 0,
        "slot": "6",
        "type": "t_bool"
      },
      {
        "astId": 14514,
        "contract": "contracts/strategies/_poc/qv-governance/QVGovernanceERC20Votes.sol:QVGovernanceERC20Votes",
        "label": "metadataRequired",
        "offset": 1,
        "slot": "6",
        "type": "t_bool"
      },
      {
        "astId": 14518,
        "contract": "contracts/strategies/_poc/qv-governance/QVGovernanceERC20Votes.sol:QVGovernanceERC20Votes",
        "label": "_registry",
        "offset": 2,
        "slot": "6",
        "type": "t_contract(IRegistry)2625"
      },
      {
        "astId": 14569,
        "contract": "contracts/strategies/_poc/qv-governance/QVGovernanceERC20Votes.sol:QVGovernanceERC20Votes",
        "label": "recipients",
        "offset": 0,
        "slot": "7",
        "type": "t_mapping(t_address,t_struct(Recipient)14552_storage)"
      },
      {
        "astId": 14575,
        "contract": "contracts/strategies/_poc/qv-governance/QVGovernanceERC20Votes.sol:QVGovernanceERC20Votes",
        "label": "allocators",
        "offset": 0,
        "slot": "8",
        "type": "t_mapping(t_address,t_struct(Allocator)14563_storage)"
      },
      {
        "astId": 14580,
        "contract": "contracts/strategies/_poc/qv-governance/QVGovernanceERC20Votes.sol:QVGovernanceERC20Votes",
        "label": "paidOut",
        "offset": 0,
        "slot": "9",
        "type": "t_mapping(t_address,t_bool)"
      },
      {
        "astId": 14587,
        "contract": "contracts/strategies/_poc/qv-governance/QVGovernanceERC20Votes.sol:QVGovernanceERC20Votes",
        "label": "reviewsByStatus",
        "offset": 0,
        "slot": "10",
        "type": "t_mapping(t_address,t_mapping(t_enum(Status)2638,t_uint256))"
      },
      {
        "astId": 7541,
        "contract": "contracts/strategies/_poc/qv-governance/QVGovernanceERC20Votes.sol:QVGovernanceERC20Votes",
        "label": "govToken",
        "offset": 0,
        "slot": "11",
        "type": "t_contract(IVotes)62170"
      },
      {
        "astId": 7543,
        "contract": "contracts/strategies/_poc/qv-governance/QVGovernanceERC20Votes.sol:QVGovernanceERC20Votes",
        "label": "timestamp",
        "offset": 0,
        "slot": "12",
        "type": "t_uint256"
      }
    ],
    "types": {
      "t_address": {
        "encoding": "inplace",
        "label": "address",
        "numberOfBytes": "20"
      },
      "t_bool": {
        "encoding": "inplace",
        "label": "bool",
        "numberOfBytes": "1"
      },
      "t_contract(IRegistry)2625": {
        "encoding": "inplace",
        "label": "contract IRegistry",
        "numberOfBytes": "20"
      },
      "t_contract(IVotes)62170": {
        "encoding": "inplace",
        "label": "contract IVotes",
        "numberOfBytes": "20"
      },
      "t_enum(Status)2638": {
        "encoding": "inplace",
        "label": "enum IStrategy.Status",
        "numberOfBytes": "1"
      },
      "t_mapping(t_address,t_bool)": {
        "encoding": "mapping",
        "key": "t_address",
        "label": "mapping(address => bool)",
        "numberOfBytes": "32",
        "value": "t_bool"
      },
      "t_mapping(t_address,t_mapping(t_enum(Status)2638,t_uint256))": {
        "encoding": "mapping",
        "key": "t_address",
        "label": "mapping(address => mapping(enum IStrategy.Status => uint256))",
        "numberOfBytes": "32",
        "value": "t_mapping(t_enum(Status)2638,t_uint256)"
      },
      "t_mapping(t_address,t_struct(Allocator)14563_storage)": {
        "encoding": "mapping",
        "key": "t_address",
        "label": "mapping(address => struct QVBaseStrategy.Allocator)",
        "numberOfBytes": "32",
        "value": "t_struct(Allocator)14563_storage"
      },
      "t_mapping(t_address,t_struct(Recipient)14552_storage)": {
        "encoding": "mapping",
        "key": "t_address",
        "label": "mapping(address => struct QVBaseStrategy.Recipient)",
        "numberOfBytes": "32",
        "value": "t_struct(Recipient)14552_storage"
      },
      "t_mapping(t_address,t_uint256)": {
        "encoding": "mapping",
        "key": "t_address",
        "label": "mapping(address => uint256)",
        "numberOfBytes": "32",
        "value": "t_uint256"
      },
      "t_mapping(t_enum(Status)2638,t_uint256)": {
        "encoding": "mapping",
        "key": "t_enum(Status)2638",
        "label": "mapping(enum IStrategy.Status => uint256)",
        "numberOfBytes": "32",
        "value": "t_uint256"
      },
      "t_string_storage": {
        "encoding": "bytes",
        "label": "string",
        "numberOfBytes": "32"
      },
      "t_struct(Allocator)14563_storage": {
        "encoding": "inplace",
        "label": "struct QVBaseStrategy.Allocator",
        "numberOfBytes": "96",
        "members": [
          {
            "astId": 14554,
            "contract": "contracts/strategies/_poc/qv-governance/QVGovernanceERC20Votes.sol:QVGovernanceERC20Votes",
            "label": "voiceCredits",
            "offset": 0,
            "slot": "0",
            "type": "t_uint256"
          },
          {
            "astId": 14558,
            "contract": "contracts/strategies/_poc/qv-governance/QVGovernanceERC20Votes.sol:QVGovernanceERC20Votes",
            "label": "voiceCreditsCastToRecipient",
            "offset": 0,
            "slot": "1",
            "type": "t_mapping(t_address,t_uint256)"
          },
          {
            "astId": 14562,
            "contract": "contracts/strategies/_poc/qv-governance/QVGovernanceERC20Votes.sol:QVGovernanceERC20Votes",
            "label": "votesCastToRecipient",
            "offset": 0,
            "slot": "2",
            "type": "t_mapping(t_address,t_uint256)"
          }
        ]
      },
      "t_struct(Metadata)2922_storage": {
        "encoding": "inplace",
        "label": "struct Metadata",
        "numberOfBytes": "64",
        "members": [
          {
            "astId": 2918,
            "contract": "contracts/strategies/_poc/qv-governance/QVGovernanceERC20Votes.sol:QVGovernanceERC20Votes",
            "label": "protocol",
            "offset": 0,
            "slot": "0",
            "type": "t_uint256"
          },
          {
            "astId": 2921,
            "contract": "contracts/strategies/_poc/qv-governance/QVGovernanceERC20Votes.sol:QVGovernanceERC20Votes",
            "label": "pointer",
            "offset": 0,
            "slot": "1",
            "type": "t_string_storage"
          }
        ]
      },
      "t_struct(Recipient)14552_storage": {
        "encoding": "inplace",
        "label": "struct QVBaseStrategy.Recipient",
        "numberOfBytes": "160",
        "members": [
          {
            "astId": 14541,
            "contract": "contracts/strategies/_poc/qv-governance/QVGovernanceERC20Votes.sol:QVGovernanceERC20Votes",
            "label": "totalVotesReceived",
            "offset": 0,
            "slot": "0",
            "type": "t_uint256"
          },
          {
            "astId": 14543,
            "contract": "contracts/strategies/_poc/qv-governance/QVGovernanceERC20Votes.sol:QVGovernanceERC20Votes",
            "label": "useRegistryAnchor",
            "offset": 0,
            "slot": "1",
            "type": "t_bool"
          },
          {
            "astId": 14545,
            "contract": "contracts/strategies/_poc/qv-governance/QVGovernanceERC20Votes.sol:QVGovernanceERC20Votes",
            "label": "recipientAddress",
            "offset": 1,
            "slot": "1",
            "type": "t_address"
          },
          {
            "astId": 14548,
            "contract": "contracts/strategies/_poc/qv-governance/QVGovernanceERC20Votes.sol:QVGovernanceERC20Votes",
            "label": "metadata",
            "offset": 0,
            "slot": "2",
            "type": "t_struct(Metadata)2922_storage"
          },
          {
            "astId": 14551,
            "contract": "contracts/strategies/_poc/qv-governance/QVGovernanceERC20Votes.sol:QVGovernanceERC20Votes",
            "label": "recipientStatus",
            "offset": 0,
            "slot": "4",
            "type": "t_enum(Status)2638"
          }
        ]
      },
      "t_uint256": {
        "encoding": "inplace",
        "label": "uint256",
        "numberOfBytes": "32"
      },
      "t_uint64": {
        "encoding": "inplace",
        "label": "uint64",
        "numberOfBytes": "8"
      }
    }
  },
  "id": 18
}