{
  "abi": [
    {
      "inputs": [
        {
          "internalType": "address",
          "name": "_initialOwner",
          "type": "address"
        }
      ],
      "stateMutability": "nonpayable",
      "type": "constructor"
    },
    {
      "inputs": [],
      "name": "ALREADY_EXISTS",
      "type": "error"
    },
    {
      "inputs": [],
      "name": "DOESNT_EXIST",
      "type": "error"
    },
    {
      "inputs": [],
      "name": "NewOwnerIsZeroAddress",
      "type": "error"
    },
    {
      "inputs": [],
      "name": "NoHandoverRequest",
      "type": "error"
    },
    {
      "inputs": [],
      "name": "Unauthorized",
      "type": "error"
    },
    {
      "anonymous": false,
      "inputs": [
        {
          "indexed": true,
          "internalType": "address",
          "name": "pendingOwner",
          "type": "address"
        }
      ],
      "name": "OwnershipHandoverCanceled",
      "type": "event"
    },
    {
      "anonymous": false,
      "inputs": [
        {
          "indexed": true,
          "internalType": "address",
          "name": "pendingOwner",
          "type": "address"
        }
      ],
      "name": "OwnershipHandoverRequested",
      "type": "event"
    },
    {
      "anonymous": false,
      "inputs": [
        {
          "indexed": true,
          "internalType": "address",
          "name": "oldOwner",
          "type": "address"
        },
        {
          "indexed": true,
          "internalType": "address",
          "name": "newOwner",
          "type": "address"
        }
      ],
      "name": "OwnershipTransferred",
      "type": "event"
    },
    {
      "anonymous": false,
      "inputs": [
        {
          "indexed": true,
          "internalType": "address",
          "name": "project",
          "type": "address"
        }
      ],
      "name": "ProjectAdded",
      "type": "event"
    },
    {
      "anonymous": false,
      "inputs": [
        {
          "indexed": true,
          "internalType": "address",
          "name": "project",
          "type": "address"
        }
      ],
      "name": "ProjectRemoved",
      "type": "event"
    },
    {
      "inputs": [
        {
          "internalType": "address",
          "name": "_project",
          "type": "address"
        }
      ],
      "name": "addProject",
      "outputs": [],
      "stateMutability": "nonpayable",
      "type": "function"
    },
    {
      "inputs": [
        {
          "internalType": "address[]",
          "name": "_projects",
          "type": "address[]"
        }
      ],
      "name": "addProjects",
      "outputs": [],
      "stateMutability": "nonpayable",
      "type": "function"
    },
    {
      "inputs": [],
      "name": "cancelOwnershipHandover",
      "outputs": [],
      "stateMutability": "payable",
      "type": "function"
    },
    {
      "inputs": [
        {
          "internalType": "address",
          "name": "pendingOwner",
          "type": "address"
        }
      ],
      "name": "completeOwnershipHandover",
      "outputs": [],
      "stateMutability": "payable",
      "type": "function"
    },
    {
      "inputs": [],
      "name": "owner",
      "outputs": [
        {
          "internalType": "address",
          "name": "result",
          "type": "address"
        }
      ],
      "stateMutability": "view",
      "type": "function"
    },
    {
      "inputs": [
        {
          "internalType": "address",
          "name": "pendingOwner",
          "type": "address"
        }
      ],
      "name": "ownershipHandoverExpiresAt",
      "outputs": [
        {
          "internalType": "uint256",
          "name": "result",
          "type": "uint256"
        }
      ],
      "stateMutability": "view",
      "type": "function"
    },
    {
      "inputs": [
        {
          "internalType": "address",
          "name": "",
          "type": "address"
        }
      ],
      "name": "projects",
      "outputs": [
        {
          "internalType": "bool",
          "name": "",
          "type": "bool"
        }
      ],
      "stateMutability": "view",
      "type": "function"
    },
    {
      "inputs": [
        {
          "internalType": "address",
          "name": "_project",
          "type": "address"
        }
      ],
      "name": "removeProject",
      "outputs": [],
      "stateMutability": "nonpayable",
      "type": "function"
    },
    {
      "inputs": [
        {
          "internalType": "address[]",
          "name": "_projects",
          "type": "address[]"
        }
      ],
      "name": "removeProjects",
      "outputs": [],
      "stateMutability": "nonpayable",
      "type": "function"
    },
    {
      "inputs": [],
      "name": "renounceOwnership",
      "outputs": [],
      "stateMutability": "payable",
      "type": "function"
    },
    {
      "inputs": [],
      "name": "requestOwnershipHandover",
      "outputs": [],
      "stateMutability": "payable",
      "type": "function"
    },
    {
      "inputs": [
        {
          "internalType": "address",
          "name": "newOwner",
          "type": "address"
        }
      ],
      "name": "transferOwnership",
      "outputs": [],
      "stateMutability": "payable",
      "type": "function"
    }
  ],
  "bytecode": {
    "object": "0x608060405234801561001057600080fd5b5060405161077838038061077883398101604081905261002f9161007a565b6100388161003e565b506100aa565b6001600160a01b0316638b78c6d8198190558060007f8be0079c531659141344cd1fd0a4f28419497f9722a3daafe3b4186f6b6457e08180a350565b60006020828403121561008c57600080fd5b81516001600160a01b03811681146100a357600080fd5b9392505050565b6106bf806100b96000396000f3fe6080604052600436106100c75760003560e01c80638da5cb5b11610074578063f04e283e1161004e578063f04e283e146101d7578063f2fde38b146101ea578063fee81cf4146101fd57600080fd5b80638da5cb5b1461016b578063a5df6d8514610197578063eec01b37146101b757600080fd5b8063715018a6116100a5578063715018a6146100fe5780637c56b79814610106578063840e78fd1461012657600080fd5b80630c0ad299146100cc57806325692962146100ee57806354d1f13d146100f6575b600080fd5b3480156100d857600080fd5b506100ec6100e73660046105a7565b61023e565b005b6100ec610252565b6100ec6102a2565b6100ec6102de565b34801561011257600080fd5b506100ec6101213660046105a7565b6102f2565b34801561013257600080fd5b506101566101413660046105a7565b60006020819052908152604090205460ff1681565b60405190151581526020015b60405180910390f35b34801561017757600080fd5b50638b78c6d819546040516001600160a01b039091168152602001610162565b3480156101a357600080fd5b506100ec6101b23660046105d7565b610303565b3480156101c357600080fd5b506100ec6101d23660046105d7565b61035c565b6100ec6101e53660046105a7565b6103b0565b6100ec6101f83660046105a7565b6103ed565b34801561020957600080fd5b506102306102183660046105a7565b63389a75e1600c908152600091909152602090205490565b604051908152602001610162565b610246610414565b61024f8161042f565b50565b60006202a30067ffffffffffffffff164201905063389a75e1600c5233600052806020600c2055337fdbf36a107da19e49527a7176a1babf963b4b0ff8cde35ee35d6cd8f1f9ac7e1d600080a250565b63389a75e1600c523360005260006020600c2055337ffa7b8eab7da67f412cc9575ed43464468f9bfbae89d1675917346ca6d8fe3c92600080a2565b6102e6610414565b6102f060006104ca565b565b6102fa610414565b61024f81610508565b61030b610414565b60005b818110156103575761034583838381811061032b5761032b61064c565b905060200201602081019061034091906105a7565b610508565b8061034f81610662565b91505061030e565b505050565b610364610414565b60005b818110156103575761039e8383838181106103845761038461064c565b905060200201602081019061039991906105a7565b61042f565b806103a881610662565b915050610367565b6103b8610414565b63389a75e1600c52806000526020600c2080544211156103e057636f5e88186000526004601cfd5b6000905561024f816104ca565b6103f5610414565b8060601b61040b57637448fbae6000526004601cfd5b61024f816104ca565b638b78c6d8195433146102f0576382b429006000526004601cfd5b6001600160a01b03811660009081526020819052604090205460ff16610481576040517f3d0873fc00000000000000000000000000000000000000000000000000000000815260040160405180910390fd5b6001600160a01b038116600081815260208190526040808220805460ff19169055517f6c2a7bedc1e997c07f41aff265f8b77df645943615e2b039fb2b1f2be37b67da9190a250565b638b78c6d81980546001600160a01b039092169182907f8be0079c531659141344cd1fd0a4f28419497f9722a3daafe3b4186f6b6457e0600080a355565b6001600160a01b03811660009081526020819052604090205460ff161561055b576040517f9d1e55e000000000000000000000000000000000000000000000000000000000815260040160405180910390fd5b6001600160a01b038116600081815260208190526040808220805460ff19166001179055517ff4ddd4a01f076935f5636676ad00367a07143bf5c2d36bdb7522b7c37a0e01e69190a250565b6000602082840312156105b957600080fd5b81356001600160a01b03811681146105d057600080fd5b9392505050565b600080602083850312156105ea57600080fd5b823567ffffffffffffffff8082111561060257600080fd5b818501915085601f83011261061657600080fd5b81358181111561062557600080fd5b8660208260051b850101111561063a57600080fd5b60209290920196919550909350505050565b634e487b7160e01b600052603260045260246000fd5b60006001820161068257634e487b7160e01b600052601160045260246000fd5b506001019056fea2646970667358221220cf077a16c0f0bc02ef56a1eeb5cd8461930e1d2faeca17aaa792fdab2af0628864736f6c63430008130033",
    "linkReferences": {}
  },
  "methodIdentifiers": {
    "addProject(address)": "7c56b798",
    "addProjects(address[])": "a5df6d85",
    "cancelOwnershipHandover()": "54d1f13d",
    "completeOwnershipHandover(address)": "f04e283e",
    "owner()": "8da5cb5b",
    "ownershipHandoverExpiresAt(address)": "fee81cf4",
    "projects(address)": "840e78fd",
    "removeProject(address)": "0c0ad299",
    "removeProjects(address[])": "eec01b37",
    "renounceOwnership()": "715018a6",
    "requestOwnershipHandover()": "25692962",
    "transferOwnership(address)": "f2fde38b"
  },
  "storageLayout": {
    "storage": [
      {
        "astId": 5297,
        "contract": "contracts/strategies/_poc/donation-voting-custom-registry/SimpleProjectRegistry.sol:SimpleProjectRegistry",
        "label": "projects",
        "offset": 0,
        "slot": "0",
        "type": "t_mapping(t_address,t_bool)"
      }
    ],
    "types": {
      "t_address": {
        "encoding": "inplace",
        "label": "address",
        "numberOfBytes": "20"
      },
      "t_bool": {
        "encoding": "inplace",
        "label": "bool",
        "numberOfBytes": "1"
      },
      "t_mapping(t_address,t_bool)": {
        "encoding": "mapping",
        "key": "t_address",
        "label": "mapping(address => bool)",
        "numberOfBytes": "32",
        "value": "t_bool"
      }
    }
  },
  "id": 15
}