{
  "abi": [
    {
      "inputs": [
        {
          "internalType": "uint256",
          "name": "_price",
          "type": "uint256"
        }
      ],
      "stateMutability": "nonpayable",
      "type": "constructor"
    },
    {
      "inputs": [],
      "name": "getPriceUSD",
      "outputs": [
        {
          "internalType": "uint256",
          "name": "",
          "type": "uint256"
        }
      ],
      "stateMutability": "view",
      "type": "function"
    },
    {
      "inputs": [],
      "name": "price",
      "outputs": [
        {
          "internalType": "uint256",
          "name": "",
          "type": "uint256"
        }
      ],
      "stateMutability": "view",
      "type": "function"
    },
    {
      "inputs": [
        {
          "internalType": "uint256",
          "name": "_price",
          "type": "uint256"
        }
      ],
      "name": "setPriceUSD",
      "outputs": [],
      "stateMutability": "nonpayable",
      "type": "function"
    }
  ],
  "bytecode": {
    "object": "0x608060405234801561001057600080fd5b5060405161011d38038061011d83398101604081905261002f91610037565b600055610050565b60006020828403121561004957600080fd5b5051919050565b60bf8061005e6000396000f3fe6080604052348015600f57600080fd5b5060043610603c5760003560e01c80631eed0f2714604157806357a9579e146053578063a035b1fe146069575b600080fd5b6051604c3660046071565b600055565b005b6000545b60405190815260200160405180910390f35b605760005481565b600060208284031215608257600080fd5b503591905056fea26469706673582212200ad9eb16f6a79eb2688a3c66778cb4997b6d8a32b432dc8a99a904d4c5f2296264736f6c634300080f0033",
    "linkReferences": {}
  },
  "methodIdentifiers": {
    "getPriceUSD()": "57a9579e",
    "price()": "a035b1fe",
    "setPriceUSD(uint256)": "1eed0f27"
  },
  "id": 77
}