{
  "abi": [
    {
      "inputs": [
        {
          "internalType": "address",
          "name": "_allo",
          "type": "address"
        },
        {
          "internalType": "string",
          "name": "_name",
          "type": "string"
        }
      ],
      "stateMutability": "nonpayable",
      "type": "constructor"
    },
    {
      "inputs": [],
      "name": "ALLOCATION_ACTIVE",
      "type": "error"
    },
    {
      "inputs": [],
      "name": "ALLOCATION_NOT_ACTIVE",
      "type": "error"
    },
    {
      "inputs": [],
      "name": "ALLOCATION_NOT_ENDED",
      "type": "error"
    },
    {
      "inputs": [],
      "name": "ALREADY_INITIALIZED",
      "type": "error"
    },
    {
      "inputs": [],
      "name": "AMOUNT_MISMATCH",
      "type": "error"
    },
    {
      "inputs": [],
      "name": "ANCHOR_ERROR",
      "type": "error"
    },
    {
      "inputs": [],
      "name": "ARRAY_MISMATCH",
      "type": "error"
    },
    {
      "inputs": [],
      "name": "INVALID",
      "type": "error"
    },
    {
      "inputs": [],
      "name": "INVALID_ADDRESS",
      "type": "error"
    },
    {
      "inputs": [],
      "name": "INVALID_FEE",
      "type": "error"
    },
    {
      "inputs": [],
      "name": "INVALID_METADATA",
      "type": "error"
    },
    {
      "inputs": [],
      "name": "INVALID_REGISTRATION",
      "type": "error"
    },
    {
      "inputs": [],
      "name": "IS_APPROVED_STRATEGY",
      "type": "error"
    },
    {
      "inputs": [],
      "name": "MISMATCH",
      "type": "error"
    },
    {
      "inputs": [],
      "name": "NONCE_NOT_AVAILABLE",
      "type": "error"
    },
    {
      "inputs": [],
      "name": "NOT_APPROVED_STRATEGY",
      "type": "error"
    },
    {
      "inputs": [],
      "name": "NOT_ENOUGH_FUNDS",
      "type": "error"
    },
    {
      "inputs": [],
      "name": "NOT_INITIALIZED",
      "type": "error"
    },
    {
      "inputs": [],
      "name": "NOT_PENDING_OWNER",
      "type": "error"
    },
    {
      "inputs": [],
      "name": "POOL_ACTIVE",
      "type": "error"
    },
    {
      "inputs": [],
      "name": "POOL_INACTIVE",
      "type": "error"
    },
    {
      "inputs": [],
      "name": "RECIPIENT_ALREADY_ACCEPTED",
      "type": "error"
    },
    {
      "inputs": [
        {
          "internalType": "address",
          "name": "recipientId",
          "type": "address"
        }
      ],
      "name": "RECIPIENT_ERROR",
      "type": "error"
    },
    {
      "inputs": [],
      "name": "RECIPIENT_NOT_ACCEPTED",
      "type": "error"
    },
    {
      "inputs": [],
      "name": "REGISTRATION_NOT_ACTIVE",
      "type": "error"
    },
    {
      "inputs": [],
      "name": "UNAUTHORIZED",
      "type": "error"
    },
    {
      "inputs": [],
      "name": "ZERO_ADDRESS",
      "type": "error"
    },
    {
      "anonymous": false,
      "inputs": [
        {
          "indexed": true,
          "internalType": "address",
          "name": "recipientId",
          "type": "address"
        },
        {
          "indexed": false,
          "internalType": "uint256",
          "name": "votes",
          "type": "uint256"
        },
        {
          "indexed": false,
          "internalType": "address",
          "name": "allocator",
          "type": "address"
        }
      ],
      "name": "Allocated",
      "type": "event"
    },
    {
      "anonymous": false,
      "inputs": [
        {
          "indexed": true,
          "internalType": "address",
          "name": "recipientId",
          "type": "address"
        },
        {
          "indexed": false,
          "internalType": "uint256",
          "name": "amount",
          "type": "uint256"
        },
        {
          "indexed": false,
          "internalType": "address",
          "name": "token",
          "type": "address"
        },
        {
          "indexed": false,
          "internalType": "address",
          "name": "sender",
          "type": "address"
        }
      ],
      "name": "Allocated",
      "type": "event"
    },
    {
      "anonymous": false,
      "inputs": [
        {
          "indexed": true,
          "internalType": "address",
          "name": "allocator",
          "type": "address"
        },
        {
          "indexed": false,
          "internalType": "address",
          "name": "sender",
          "type": "address"
        }
      ],
      "name": "AllocatorAdded",
      "type": "event"
    },
    {
      "anonymous": false,
      "inputs": [
        {
          "indexed": true,
          "internalType": "address",
          "name": "allocator",
          "type": "address"
        },
        {
          "indexed": false,
          "internalType": "address",
          "name": "sender",
          "type": "address"
        }
      ],
      "name": "AllocatorRemoved",
      "type": "event"
    },
    {
      "anonymous": false,
      "inputs": [
        {
          "indexed": true,
          "internalType": "address",
          "name": "recipientId",
          "type": "address"
        },
        {
          "indexed": false,
          "internalType": "address",
          "name": "recipientAddress",
          "type": "address"
        },
        {
          "indexed": false,
          "internalType": "uint256",
          "name": "amount",
          "type": "uint256"
        },
        {
          "indexed": false,
          "internalType": "address",
          "name": "sender",
          "type": "address"
        }
      ],
      "name": "Distributed",
      "type": "event"
    },
    {
      "anonymous": false,
      "inputs": [
        {
          "indexed": false,
          "internalType": "address",
          "name": "allo",
          "type": "address"
        },
        {
          "indexed": false,
          "internalType": "bytes32",
          "name": "profileId",
          "type": "bytes32"
        },
        {
          "indexed": false,
          "internalType": "uint256",
          "name": "poolId",
          "type": "uint256"
        },
        {
          "indexed": false,
          "internalType": "bytes",
          "name": "data",
          "type": "bytes"
        }
      ],
      "name": "Initialized",
      "type": "event"
    },
    {
      "anonymous": false,
      "inputs": [
        {
          "indexed": false,
          "internalType": "bool",
          "name": "active",
          "type": "bool"
        }
      ],
      "name": "PoolActive",
      "type": "event"
    },
    {
      "anonymous": false,
      "inputs": [
        {
          "indexed": true,
          "internalType": "address",
          "name": "recipientId",
          "type": "address"
        },
        {
          "indexed": false,
          "internalType": "enum IStrategy.Status",
          "name": "status",
          "type": "uint8"
        },
        {
          "indexed": false,
          "internalType": "address",
          "name": "sender",
          "type": "address"
        }
      ],
      "name": "RecipientStatusUpdated",
      "type": "event"
    },
    {
      "anonymous": false,
      "inputs": [
        {
          "indexed": true,
          "internalType": "address",
          "name": "recipientId",
          "type": "address"
        },
        {
          "indexed": false,
          "internalType": "bytes",
          "name": "data",
          "type": "bytes"
        },
        {
          "indexed": false,
          "internalType": "address",
          "name": "sender",
          "type": "address"
        }
      ],
      "name": "Registered",
      "type": "event"
    },
    {
      "anonymous": false,
      "inputs": [
        {
          "indexed": true,
          "internalType": "address",
          "name": "recipientId",
          "type": "address"
        },
        {
          "indexed": false,
          "internalType": "enum IStrategy.Status",
          "name": "status",
          "type": "uint8"
        },
        {
          "indexed": false,
          "internalType": "address",
          "name": "sender",
          "type": "address"
        }
      ],
      "name": "Reviewed",
      "type": "event"
    },
    {
      "anonymous": false,
      "inputs": [
        {
          "indexed": false,
          "internalType": "uint64",
          "name": "registrationStartTime",
          "type": "uint64"
        },
        {
          "indexed": false,
          "internalType": "uint64",
          "name": "registrationEndTime",
          "type": "uint64"
        },
        {
          "indexed": false,
          "internalType": "uint64",
          "name": "allocationStartTime",
          "type": "uint64"
        },
        {
          "indexed": false,
          "internalType": "uint64",
          "name": "allocationEndTime",
          "type": "uint64"
        },
        {
          "indexed": false,
          "internalType": "address",
          "name": "sender",
          "type": "address"
        }
      ],
      "name": "TimestampsUpdated",
      "type": "event"
    },
    {
      "anonymous": false,
      "inputs": [
        {
          "indexed": true,
          "internalType": "address",
          "name": "recipientId",
          "type": "address"
        },
        {
          "indexed": false,
          "internalType": "bytes",
          "name": "data",
          "type": "bytes"
        },
        {
          "indexed": false,
          "internalType": "address",
          "name": "sender",
          "type": "address"
        },
        {
          "indexed": false,
          "internalType": "enum IStrategy.Status",
          "name": "status",
          "type": "uint8"
        }
      ],
      "name": "UpdatedRegistration",
      "type": "event"
    },
    {
      "inputs": [],
      "name": "NATIVE",
      "outputs": [
        {
          "internalType": "address",
          "name": "",
          "type": "address"
        }
      ],
      "stateMutability": "view",
      "type": "function"
    },
    {
      "inputs": [
        {
          "internalType": "address",
          "name": "_allocator",
          "type": "address"
        }
      ],
      "name": "addAllocator",
      "outputs": [],
      "stateMutability": "nonpayable",
      "type": "function"
    },
    {
      "inputs": [
        {
          "internalType": "bytes",
          "name": "_data",
          "type": "bytes"
        },
        {
          "internalType": "address",
          "name": "_sender",
          "type": "address"
        }
      ],
      "name": "allocate",
      "outputs": [],
      "stateMutability": "payable",
      "type": "function"
    },
    {
      "inputs": [],
      "name": "allocationEndTime",
      "outputs": [
        {
          "internalType": "uint64",
          "name": "",
          "type": "uint64"
        }
      ],
      "stateMutability": "view",
      "type": "function"
    },
    {
      "inputs": [],
      "name": "allocationStartTime",
      "outputs": [
        {
          "internalType": "uint64",
          "name": "",
          "type": "uint64"
        }
      ],
      "stateMutability": "view",
      "type": "function"
    },
    {
      "inputs": [
        {
          "internalType": "address",
          "name": "",
          "type": "address"
        }
      ],
      "name": "allocators",
      "outputs": [
        {
          "internalType": "uint256",
          "name": "voiceCredits",
          "type": "uint256"
        }
      ],
      "stateMutability": "view",
      "type": "function"
    },
    {
      "inputs": [
        {
          "internalType": "address",
          "name": "",
          "type": "address"
        }
      ],
      "name": "allowedAllocators",
      "outputs": [
        {
          "internalType": "bool",
          "name": "",
          "type": "bool"
        }
      ],
      "stateMutability": "view",
      "type": "function"
    },
    {
      "inputs": [
        {
          "internalType": "address[]",
          "name": "_recipientIds",
          "type": "address[]"
        },
        {
          "internalType": "bytes",
          "name": "_data",
          "type": "bytes"
        },
        {
          "internalType": "address",
          "name": "_sender",
          "type": "address"
        }
      ],
      "name": "distribute",
      "outputs": [],
      "stateMutability": "nonpayable",
      "type": "function"
    },
    {
      "inputs": [],
      "name": "getAllo",
      "outputs": [
        {
          "internalType": "contract IAllo",
          "name": "",
          "type": "address"
        }
      ],
      "stateMutability": "view",
      "type": "function"
    },
    {
      "inputs": [
        {
          "internalType": "address[]",
          "name": "_recipientIds",
          "type": "address[]"
        },
        {
          "internalType": "bytes[]",
          "name": "_data",
          "type": "bytes[]"
        }
      ],
      "name": "getPayouts",
      "outputs": [
        {
          "components": [
            {
              "internalType": "address",
              "name": "recipientAddress",
              "type": "address"
            },
            {
              "internalType": "uint256",
              "name": "amount",
              "type": "uint256"
            }
          ],
          "internalType": "struct IStrategy.PayoutSummary[]",
          "name": "",
          "type": "tuple[]"
        }
      ],
      "stateMutability": "view",
      "type": "function"
    },
    {
      "inputs": [],
      "name": "getPoolAmount",
      "outputs": [
        {
          "internalType": "uint256",
          "name": "",
          "type": "uint256"
        }
      ],
      "stateMutability": "view",
      "type": "function"
    },
    {
      "inputs": [],
      "name": "getPoolId",
      "outputs": [
        {
          "internalType": "uint256",
          "name": "",
          "type": "uint256"
        }
      ],
      "stateMutability": "view",
      "type": "function"
    },
    {
      "inputs": [
        {
          "internalType": "address",
          "name": "_recipientId",
          "type": "address"
        }
      ],
      "name": "getRecipient",
      "outputs": [
        {
          "components": [
            {
              "internalType": "uint256",
              "name": "totalVotesReceived",
              "type": "uint256"
            },
            {
              "internalType": "bool",
              "name": "useRegistryAnchor",
              "type": "bool"
            },
            {
              "internalType": "address",
              "name": "recipientAddress",
              "type": "address"
            },
            {
              "components": [
                {
                  "internalType": "uint256",
                  "name": "protocol",
                  "type": "uint256"
                },
                {
                  "internalType": "string",
                  "name": "pointer",
                  "type": "string"
                }
              ],
              "internalType": "struct Metadata",
              "name": "metadata",
              "type": "tuple"
            },
            {
              "internalType": "enum IStrategy.Status",
              "name": "recipientStatus",
              "type": "uint8"
            }
          ],
          "internalType": "struct QVBaseStrategy.Recipient",
          "name": "",
          "type": "tuple"
        }
      ],
      "stateMutability": "view",
      "type": "function"
    },
    {
      "inputs": [
        {
          "internalType": "address",
          "name": "_recipientId",
          "type": "address"
        }
      ],
      "name": "getRecipientStatus",
      "outputs": [
        {
          "internalType": "enum IStrategy.Status",
          "name": "",
          "type": "uint8"
        }
      ],
      "stateMutability": "view",
      "type": "function"
    },
    {
      "inputs": [],
      "name": "getStrategyId",
      "outputs": [
        {
          "internalType": "bytes32",
          "name": "",
          "type": "bytes32"
        }
      ],
      "stateMutability": "view",
      "type": "function"
    },
    {
      "inputs": [
        {
          "internalType": "uint256",
          "name": "_amount",
          "type": "uint256"
        }
      ],
      "name": "increasePoolAmount",
      "outputs": [],
      "stateMutability": "nonpayable",
      "type": "function"
    },
    {
      "inputs": [
        {
          "internalType": "uint256",
          "name": "_poolId",
          "type": "uint256"
        },
        {
          "internalType": "bytes",
          "name": "_data",
          "type": "bytes"
        }
      ],
      "name": "initialize",
      "outputs": [],
      "stateMutability": "nonpayable",
      "type": "function"
    },
    {
      "inputs": [],
      "name": "isPoolActive",
      "outputs": [
        {
          "internalType": "bool",
          "name": "",
          "type": "bool"
        }
      ],
      "stateMutability": "view",
      "type": "function"
    },
    {
      "inputs": [
        {
          "internalType": "address",
          "name": "_allocator",
          "type": "address"
        }
      ],
      "name": "isValidAllocator",
      "outputs": [
        {
          "internalType": "bool",
          "name": "",
          "type": "bool"
        }
      ],
      "stateMutability": "view",
      "type": "function"
    },
    {
      "inputs": [],
      "name": "maxVoiceCreditsPerAllocator",
      "outputs": [
        {
          "internalType": "uint256",
          "name": "",
          "type": "uint256"
        }
      ],
      "stateMutability": "view",
      "type": "function"
    },
    {
      "inputs": [],
      "name": "metadataRequired",
      "outputs": [
        {
          "internalType": "bool",
          "name": "",
          "type": "bool"
        }
      ],
      "stateMutability": "view",
      "type": "function"
    },
    {
      "inputs": [
        {
          "internalType": "bytes[]",
          "name": "data",
          "type": "bytes[]"
        }
      ],
      "name": "multicall",
      "outputs": [
        {
          "internalType": "bytes[]",
          "name": "results",
          "type": "bytes[]"
        }
      ],
      "stateMutability": "nonpayable",
      "type": "function"
    },
    {
      "inputs": [
        {
          "internalType": "address",
          "name": "",
          "type": "address"
        }
      ],
      "name": "paidOut",
      "outputs": [
        {
          "internalType": "bool",
          "name": "",
          "type": "bool"
        }
      ],
      "stateMutability": "view",
      "type": "function"
    },
    {
      "inputs": [
        {
          "internalType": "address",
          "name": "",
          "type": "address"
        }
      ],
      "name": "recipients",
      "outputs": [
        {
          "internalType": "uint256",
          "name": "totalVotesReceived",
          "type": "uint256"
        },
        {
          "internalType": "bool",
          "name": "useRegistryAnchor",
          "type": "bool"
        },
        {
          "internalType": "address",
          "name": "recipientAddress",
          "type": "address"
        },
        {
          "components": [
            {
              "internalType": "uint256",
              "name": "protocol",
              "type": "uint256"
            },
            {
              "internalType": "string",
              "name": "pointer",
              "type": "string"
            }
          ],
          "internalType": "struct Metadata",
          "name": "metadata",
          "type": "tuple"
        },
        {
          "internalType": "enum IStrategy.Status",
          "name": "recipientStatus",
          "type": "uint8"
        }
      ],
      "stateMutability": "view",
      "type": "function"
    },
    {
      "inputs": [
        {
          "internalType": "bytes",
          "name": "_data",
          "type": "bytes"
        },
        {
          "internalType": "address",
          "name": "_sender",
          "type": "address"
        }
      ],
      "name": "registerRecipient",
      "outputs": [
        {
          "internalType": "address",
          "name": "recipientId",
          "type": "address"
        }
      ],
      "stateMutability": "payable",
      "type": "function"
    },
    {
      "inputs": [],
      "name": "registrationEndTime",
      "outputs": [
        {
          "internalType": "uint64",
          "name": "",
          "type": "uint64"
        }
      ],
      "stateMutability": "view",
      "type": "function"
    },
    {
      "inputs": [],
      "name": "registrationStartTime",
      "outputs": [
        {
          "internalType": "uint64",
          "name": "",
          "type": "uint64"
        }
      ],
      "stateMutability": "view",
      "type": "function"
    },
    {
      "inputs": [],
      "name": "registryGating",
      "outputs": [
        {
          "internalType": "bool",
          "name": "",
          "type": "bool"
        }
      ],
      "stateMutability": "view",
      "type": "function"
    },
    {
      "inputs": [
        {
          "internalType": "address",
          "name": "_allocator",
          "type": "address"
        }
      ],
      "name": "removeAllocator",
      "outputs": [],
      "stateMutability": "nonpayable",
      "type": "function"
    },
    {
      "inputs": [
        {
          "internalType": "address[]",
          "name": "_recipientIds",
          "type": "address[]"
        },
        {
          "internalType": "enum IStrategy.Status[]",
          "name": "_recipientStatuses",
          "type": "uint8[]"
        }
      ],
      "name": "reviewRecipients",
      "outputs": [],
      "stateMutability": "nonpayable",
      "type": "function"
    },
    {
      "inputs": [],
      "name": "reviewThreshold",
      "outputs": [
        {
          "internalType": "uint256",
          "name": "",
          "type": "uint256"
        }
      ],
      "stateMutability": "view",
      "type": "function"
    },
    {
      "inputs": [
        {
          "internalType": "address",
          "name": "",
          "type": "address"
        },
        {
          "internalType": "enum IStrategy.Status",
          "name": "",
          "type": "uint8"
        }
      ],
      "name": "reviewsByStatus",
      "outputs": [
        {
          "internalType": "uint256",
          "name": "",
          "type": "uint256"
        }
      ],
      "stateMutability": "view",
      "type": "function"
    },
    {
      "inputs": [],
      "name": "totalRecipientVotes",
      "outputs": [
        {
          "internalType": "uint256",
          "name": "",
          "type": "uint256"
        }
      ],
      "stateMutability": "view",
      "type": "function"
    },
    {
      "inputs": [
        {
          "internalType": "uint64",
          "name": "_registrationStartTime",
          "type": "uint64"
        },
        {
          "internalType": "uint64",
          "name": "_registrationEndTime",
          "type": "uint64"
        },
        {
          "internalType": "uint64",
          "name": "_allocationStartTime",
          "type": "uint64"
        },
        {
          "internalType": "uint64",
          "name": "_allocationEndTime",
          "type": "uint64"
        }
      ],
      "name": "updatePoolTimestamps",
      "outputs": [],
      "stateMutability": "nonpayable",
      "type": "function"
    }
  ],
  "bytecode": {
    "object": "0x60c06040523480156200001157600080fd5b506040516200342e3803806200342e8339810160408190526200003491620000c0565b6001600160a01b03821660805260405182908290829082906200005c9082906020016200019b565b60408051601f19818403018152919052805160209091012060a05250620001d0945050505050565b634e487b7160e01b600052604160045260246000fd5b60005b83811015620000b75781810151838201526020016200009d565b50506000910152565b60008060408385031215620000d457600080fd5b82516001600160a01b0381168114620000ec57600080fd5b60208401519092506001600160401b03808211156200010a57600080fd5b818501915085601f8301126200011f57600080fd5b81518181111562000134576200013462000084565b604051601f8201601f19908116603f011681019083821181831017156200015f576200015f62000084565b816040528281528860208487010111156200017957600080fd5b6200018c8360208301602088016200009a565b80955050505050509250929050565b6020815260008251806020840152620001bc8160408501602087016200009a565b601f01601f19169190910160400192915050565b60805160a05161321c6200021260003960006103d60152600081816102e701528181610ec801528181610f5b015281816110f80152611b31015261321c6000f3fe6080604052600436106102195760003560e01c806362812a391161011d578063cb0e85a6116100b0578063eb11af931161007f578063edd146cc11610064578063edd146cc146106d3578063ef2920fc146106f3578063f5b0dfb71461070657600080fd5b8063eb11af9314610675578063eb820312146106a257600080fd5b8063cb0e85a6146105ec578063d2e17f591461060b578063df868ed314610633578063dff7d2c71461064857600080fd5b8063a0cf0aea116100ec578063a0cf0aea14610550578063a647d23e14610578578063ac9650d814610592578063b2b878d0146105bf57600080fd5b806362812a39146104b25780637f835983146104df57806381f03fcb146104ff5780639af5c09d1461052f57600080fd5b806338fff2d0116101b05780634a4f8e041161017f5780634d31d087116101645780634d31d087146104665780635782584914610486578063590107011461049c57600080fd5b80634a4f8e041461043b5780634ab4ba421461045157600080fd5b806338fff2d01461039257806341f44125146103a757806342fda9c7146103c75780634533d678146103fa57600080fd5b806315cc481e116101ec57806315cc481e146102d85780632143e92f1461031f578063259d6dde1461033f5780632bbe0cae1461037f57600080fd5b806307fca3811461021e578063084ea36e146102405780630a6f0ee9146102805780630d93bb53146102a0575b600080fd5b34801561022a57600080fd5b5061023e61023936600461236b565b610726565b005b34801561024c57600080fd5b5061026d61025b36600461236b565b60086020526000908152604090205481565b6040519081526020015b60405180910390f35b34801561028c57600080fd5b5061023e61029b366004612556565b610789565b3480156102ac57600080fd5b5061026d6102bb3660046125e2565b600a60209081526000928352604080842090915290825290205481565b3480156102e457600080fd5b507f00000000000000000000000000000000000000000000000000000000000000005b6040516001600160a01b039091168152602001610277565b34801561032b57600080fd5b5061023e61033a36600461262d565b6107a9565b34801561034b57600080fd5b5061036f61035a36600461236b565b600c6020526000908152604090205460ff1681565b6040519015158152602001610277565b61030761038d366004612689565b6107c6565b34801561039e57600080fd5b5060015461026d565b3480156103b357600080fd5b5061023e6103c236600461236b565b6107eb565b3480156103d357600080fd5b507f000000000000000000000000000000000000000000000000000000000000000061026d565b34801561040657600080fd5b5060055461042290600160c01b900467ffffffffffffffff1681565b60405167ffffffffffffffff9091168152602001610277565b34801561044757600080fd5b5061026d600b5481565b34801561045d57600080fd5b5060025461026d565b34801561047257600080fd5b5061036f61048136600461236b565b610849565b34801561049257600080fd5b5061026d60045481565b3480156104a857600080fd5b5061026d60035481565b3480156104be57600080fd5b506104d26104cd36600461236b565b61086a565b6040516102779190612782565b3480156104eb57600080fd5b5061023e6104fa36600461282f565b61087b565b34801561050b57600080fd5b5061036f61051a36600461236b565b60096020526000908152604090205460ff1681565b34801561053b57600080fd5b506005546104229067ffffffffffffffff1681565b34801561055c57600080fd5b5061030773eeeeeeeeeeeeeeeeeeeeeeeeeeeeeeeeeeeeeeee81565b34801561058457600080fd5b5060065461036f9060ff1681565b34801561059e57600080fd5b506105b26105ad36600461289b565b610afb565b60405161027791906128dd565b3480156105cb57600080fd5b506105df6105da36600461293f565b610bf0565b6040516102779190612a14565b3480156105f857600080fd5b5060065461036f90610100900460ff1681565b34801561061757600080fd5b5060055461042290600160801b900467ffffffffffffffff1681565b34801561063f57600080fd5b5061036f610d08565b34801561065457600080fd5b506005546104229068010000000000000000900467ffffffffffffffff1681565b34801561068157600080fd5b5061069561069036600461236b565b610d17565b6040516102779190612a6c565b3480156106ae57600080fd5b506106c26106bd36600461236b565b610d22565b604051610277959493929190612a7a565b3480156106df57600080fd5b5061023e6106ee366004612ab9565b610e07565b61023e610701366004612689565b610e3d565b34801561071257600080fd5b5061023e610721366004612b00565b610e5b565b3361073081610e85565b6001600160a01b0382166000818152600c6020908152604091829020805460ff1916905590513381527f4ddda4f889f9f60f81c0cccbc54ac7d1eb39b079ab7f29c2a1ceda4e0187085f91015b60405180910390a25050565b610791610f50565b610799610f9b565b6107a4838383610fd7565b505050565b336107b381610e85565b6107bf85858585611226565b5050505050565b60006107d0610f50565b6107d8610f9b565b6107e283836113c0565b90505b92915050565b336107f581610e85565b6001600160a01b0382166000818152600c6020908152604091829020805460ff1916600117905590513381527fc5137efba0dae412f1520f1f5633a45f7831a93f83d0db6c31d7fc2a877b8887910161077d565b6001600160a01b0381166000908152600c602052604081205460ff166107e5565b610872612302565b6107e5826116fd565b3361088581610e85565b61088d611834565b838281146108ae57604051637fcce2a960e01b815260040160405180910390fd5b60005b81811015610af25760008585838181106108cd576108cd612b19565b90506020020160208101906108e29190612b2f565b905060008888848181106108f8576108f8612b19565b905060200201602081019061090d919061236b565b905060008260068111156109235761092361274a565b14806109405750600482600681111561093e5761093e61274a565b145b1561096e5760405163f4a513b960e01b81526001600160a01b03821660048201526024015b60405180910390fd5b6001600160a01b0381166000908152600a60205260408120908360068111156109995761099961274a565b60068111156109aa576109aa61274a565b815260200190815260200160002060008154809291906109c990612b60565b90915550506004546001600160a01b0382166000908152600a60205260408120908460068111156109fc576109fc61274a565b6006811115610a0d57610a0d61274a565b81526020019081526020016000205410610aa5576001600160a01b038116600090815260076020526040902060048101805484919060ff19166001836006811115610a5a57610a5a61274a565b0217905550816001600160a01b03167f45af2a5942640dc0876474f4fda063eec36dd5518e0bba47622461b993f762a3846000604051610a9b929190612b79565b60405180910390a2505b806001600160a01b03167f094d003df6c0153ac428d1a45e5827aa8e2aa00c6dbbc96a2dbb9a682115d8378333604051610ae0929190612b79565b60405180910390a250506001016108b1565b50505050505050565b60608167ffffffffffffffff811115610b1657610b1661238f565b604051908082528060200260200182016040528015610b4957816020015b6060815260200190600190039081610b345790505b50905060005b82811015610be957610bb930858584818110610b6d57610b6d612b19565b9050602002810190610b7f9190612b9d565b8080601f01602080910402602001604051908101604052809392919081815260200183838082843760009201919091525061189e92505050565b828281518110610bcb57610bcb612b19565b60200260200101819052508080610be190612b60565b915050610b4f565b5092915050565b81518151606091908114610c30576040517f7b49805600000000000000000000000000000000000000000000000000000000815260040160405180910390fd5b60008167ffffffffffffffff811115610c4b57610c4b61238f565b604051908082528060200260200182016040528015610c9057816020015b6040805180820190915260008082526020820152815260200190600190039081610c695790505b50905060005b82811015610cff57610cda868281518110610cb357610cb3612b19565b6020026020010151868381518110610ccd57610ccd612b19565b60200260200101516118c3565b828281518110610cec57610cec612b19565b6020908102919091010152600101610c96565b50949350505050565b6000610d12611a72565b905090565b60006107e582611abc565b6007602090815260009182526040918290208054600182015484518086019095526002830180548652600384018054939660ff8416966101009094046001600160a01b03169594909384019190610d7890612be4565b80601f0160208091040260200160405190810160405280929190818152602001828054610da490612be4565b8015610df15780601f10610dc657610100808354040283529160200191610df1565b820191906000526020600020905b815481529060010190602001808311610dd457829003601f168201915b5050509190925250505060049091015460ff1685565b610e0f610f50565b600081806020019051810190610e259190612c28565b9050610e35838260200151611ad1565b51600b555050565b610e45610f50565b610e4d610f9b565b610e578282611bf1565b5050565b610e63610f50565b8060026000828254610e759190612ce8565b90915550610e8290508181565b50565b6001546040517f29e40d4b00000000000000000000000000000000000000000000000000000000815260048101919091526001600160a01b0382811660248301527f000000000000000000000000000000000000000000000000000000000000000016906329e40d4b90604401602060405180830381865afa158015610f0f573d6000803e3d6000fd5b505050506040513d601f19601f82011682018060405250810190610f339190612cfb565b610e825760405163075fd2b160e01b815260040160405180910390fd5b336001600160a01b037f00000000000000000000000000000000000000000000000000000000000000001614610f995760405163075fd2b160e01b815260040160405180910390fd5b565b600154600003610f99576040517f3da3f98c00000000000000000000000000000000000000000000000000000000815260040160405180910390fd5b80610fe181610e85565b610fe9611cc9565b835160005b8181101561121e57600086828151811061100a5761100a612b19565b60200260200101519050600060076000836001600160a01b03166001600160a01b031681526020019081526020016000209050600061105883604051806020016040528060008152506118c3565b6020808201516001600160a01b038616600090815260099092526040909120549192509060ff1680611090575061108e84611d16565b155b80611099575080155b156110c25760405163f4a513b960e01b81526001600160a01b0385166004820152602401610965565b6001546040517f068bcd8d0000000000000000000000000000000000000000000000000000000081526000916001600160a01b037f0000000000000000000000000000000000000000000000000000000000000000169163068bcd8d9161112f9160040190815260200190565b600060405180830381865afa15801561114c573d6000803e3d6000fd5b505050506040513d6000823e601f3d908101601f191682016040526111749190810190612db8565b604081015160018601549192506111999161010090046001600160a01b031684611d51565b6001600160a01b03858116600081815260096020908152604091829020805460ff19166001908117909155880154825161010090910485168152908101869052928c1690830152907fb5b51454adfa840bd593658325a60a50b0216f12eb5d2937efe6cea935675b7d9060600160405180910390a28560010195505050505050610fee565b505050505050565b8367ffffffffffffffff1642118061125157508267ffffffffffffffff168467ffffffffffffffff16115b8061126f57508167ffffffffffffffff168467ffffffffffffffff16115b8061128d57508067ffffffffffffffff168267ffffffffffffffff16115b806112ab57508067ffffffffffffffff168367ffffffffffffffff16115b156112c957604051637fcce2a960e01b815260040160405180910390fd5b6005805467ffffffffffffffff838116600160c01b90810277ffffffffffffffffffffffffffffffffffffffffffffffff878416600160801b908102919091166fffffffffffffffffffffffffffffffff8a8616680100000000000000009081027fffffffffffffffffffffffffffffffff000000000000000000000000000000009098168d88161797909717161791909117948590556040805186851681529486048416602086015290850483169084015290920490911660608201523360808201527fcb0fb7a7b87db2f472ee8977444cfdbc51993ce660aca27a5969a724fae6dcf39060a00160405180910390a150505050565b60006113ca611834565b60008060006113ec604051806040016040528060008152602001606081525090565b60065460ff161561143e578680602001905181019061140b9190612e6c565b9196509450905061141c8587611d96565b6114395760405163075fd2b160e01b815260040160405180910390fd5b6114a8565b868060200190518101906114529190612e6c565b91955093506001600160a01b038416151592509050816114725785611474565b825b945081801561148a57506114888587611d96565b155b156114a85760405163075fd2b160e01b815260040160405180910390fd5b600654610100900460ff1680156114cb575060208101515115806114cb57508051155b15611502576040517fc19e07c500000000000000000000000000000000000000000000000000000000815260040160405180910390fd5b6001600160a01b0384166115345760405163f4a513b960e01b81526001600160a01b0386166004820152602401610965565b6001600160a01b038086166000908152600760209081526040909120600181018054938816610100027fffffffffffffffffffffff0000000000000000000000000000000000000000ff909416939093179092558251600283019081559083015183919060038401906115a79082612f16565b505060065460ff1690506115bb57826115be565b60015b60018201805460ff1916911515919091179055600481015460ff1660008160068111156115ed576115ed61274a565b0361164b5760048201805460ff191660011790556040516001600160a01b038816907fa197306e3dd5494a61a695381aa809a53b8e377a685e84e404a85d5a8da6cc629061163e908c908c90612fd6565b60405180910390a26116f1565b600281600681111561165f5761165f61274a565b036116785760048201805460ff191660011790556116a2565b600381600681111561168c5761168c61274a565b036116a2576004828101805460ff191690911790555b60048201546040516001600160a01b038916917fcec1da3f7f0b8a344dd1025d06e2ddd48b14880395997ad97cbdb439acc761d4916116e8918d918d9160ff1690613001565b60405180910390a25b50505050505092915050565b611705612302565b6001600160a01b03808316600090815260076020908152604091829020825160a08101845281548152600182015460ff811615158285015261010090049094168484015282518084019093526002810180548452600382018054929460608701949093908401919061177690612be4565b80601f01602080910402602001604051908101604052809291908181526020018280546117a290612be4565b80156117ef5780601f106117c4576101008083540402835291602001916117ef565b820191906000526020600020905b8154815290600101906020018083116117d257829003601f168201915b505050919092525050508152600482015460209091019060ff16600681111561181a5761181a61274a565b600681111561182b5761182b61274a565b90525092915050565b6005544267ffffffffffffffff9091161180611867575060055468010000000000000000900467ffffffffffffffff1642115b15610f99576040517fb609ed5a00000000000000000000000000000000000000000000000000000000815260040160405180910390fd5b60606107e283836040518060600160405280602781526020016131c060279139611ed0565b604080518082018252600080825260208083018290526001600160a01b03868116835260078252848320855160a08101875281548152600182015460ff81161515828601526101009004909216828701528551808701909652600281018054875260038201805496979596939592946060870194908401919061194590612be4565b80601f016020809104026020016040519081016040528092919081815260200182805461197190612be4565b80156119be5780601f10611993576101008083540402835291602001916119be565b820191906000526020600020905b8154815290600101906020018083116119a157829003601f168201915b505050919092525050508152600482015460209091019060ff1660068111156119e9576119e961274a565b60068111156119fa576119fa61274a565b9052506001600160a01b0385166000908152600960205260408120549192509060ff16158015611a2b575060035415155b15611a4f576003548251600254611a429190613032565b611a4c9190613049565b90505b6040805180820182529201516001600160a01b0316825260208201529392505050565b6005546000904267ffffffffffffffff90911611801590611aab575060055468010000000000000000900467ffffffffffffffff164211155b15611ab65750600190565b50600090565b6000611ac7826116fd565b6080015192915050565b611ada82611f48565b80516006805460208085015161ffff1990921693151561ff0019169390931761010091151591909102179055604080517f5ab1bd5300000000000000000000000000000000000000000000000000000000815290517f00000000000000000000000000000000000000000000000000000000000000006001600160a01b031692635ab1bd5392600480820193918290030181865afa158015611b80573d6000803e3d6000fd5b505050506040513d601f19601f82011682018060405250810190611ba4919061306b565b600660026101000a8154816001600160a01b0302191690836001600160a01b031602179055508060400151600481905550610e57816060015182608001518360a001518460c00151611226565b60008083806020019051810190611c089190613088565b6001600160a01b038281166000908152600760209081526040808320938916835260088252808320600c909252909120549395509193509160ff16611c605760405163075fd2b160e01b815260040160405180910390fd5b611c6984611d16565b611c915760405163f4a513b960e01b81526001600160a01b0385166004820152602401610965565b611c9f838260000154611fb0565b611cbc57604051637fcce2a960e01b815260040160405180910390fd5b61121e8183868689611fc9565b600554600160c01b900467ffffffffffffffff16421015610f99576040517f8a879da200000000000000000000000000000000000000000000000000000000815260040160405180910390fd5b600060026001600160a01b03831660009081526007602052604090206004015460ff166006811115611d4a57611d4a61274a565b1492915050565b7fffffffffffffffffffffffff11111111111111111111111111111111111111126001600160a01b03841601611d8b576107a48282612130565b6107a483838361214c565b6006546040517fdd93da430000000000000000000000000000000000000000000000000000000081526001600160a01b0384811660048301526000928392620100009091049091169063dd93da4390602401600060405180830381865afa158015611e05573d6000803e3d6000fd5b505050506040513d6000823e601f3d908101601f19168201604052611e2d91908101906130b6565b60065481516040517f5e8a791500000000000000000000000000000000000000000000000000000000815260048101919091526001600160a01b0386811660248301529293506201000090910490911690635e8a791590604401602060405180830381865afa158015611ea4573d6000803e3d6000fd5b505050506040513d601f19601f82011682018060405250810190611ec89190612cfb565b949350505050565b6060600080856001600160a01b031685604051611eed919061317d565b600060405180830381855af49150503d8060008114611f28576040519150601f19603f3d011682016040523d82523d6000602084013e611f2d565b606091505b5091509150611f3e8683838761219b565b9695505050505050565b611f50610f50565b60015415611f8a576040517f439a74c900000000000000000000000000000000000000000000000000000000815260040160405180910390fd5b80600003611fab57604051637fcce2a960e01b815260040160405180910390fd5b600155565b600b54600090611fc08385612ce8565b11159392505050565b611fd1612214565b81600003611ff257604051637fcce2a960e01b815260040160405180910390fd5b6001600160a01b03831660009081526001860160209081526040808320546002890190925282205490916120268386612ce8565b9050600061204461203f83670de0b6b3a7640000613032565b61227f565b90506120508382613199565b905080600360008282546120649190612ce8565b909155505087548190899060009061207d908490612ce8565b90915550506001600160a01b038716600090815260018a016020526040812080548492906120ac908490612ce8565b90915550506001600160a01b038716600090815260028a016020526040812080548392906120db908490612ce8565b9091555050604080518281526001600160a01b0387811660208301528916917fe19137169fc4bceb2391a0921a61084851c12884df4897f569ec45a4ee46b7e3910160405180910390a2505050505050505050565b60008060008084865af1610e575763b12d13eb6000526004601cfd5b81601452806034526fa9059cbb00000000000000000000000060005260206000604460106000875af13d156001600051141716612191576390b8ec186000526004601cfd5b6000603452505050565b6060831561220a578251600003612203576001600160a01b0385163b6122035760405162461bcd60e51b815260206004820152601d60248201527f416464726573733a2063616c6c20746f206e6f6e2d636f6e74726163740000006044820152606401610965565b5081611ec8565b611ec883836122d8565b60055442600160801b90910467ffffffffffffffff1611806122485750600554600160c01b900467ffffffffffffffff1642115b15610f99576040517fb828c90000000000000000000000000000000000000000000000000000000000815260040160405180910390fd5b600080600261228f846001612ce8565b6122999190613049565b90508291505b818110156122d2579050806002816122b78186613049565b6122c19190612ce8565b6122cb9190613049565b905061229f565b50919050565b8151156122e85781518083602001fd5b8060405162461bcd60e51b815260040161096591906131ac565b6040518060a001604052806000815260200160001515815260200160006001600160a01b0316815260200161234a604051806040016040528060008152602001606081525090565b81526020016000905290565b6001600160a01b0381168114610e8257600080fd5b60006020828403121561237d57600080fd5b813561238881612356565b9392505050565b634e487b7160e01b600052604160045260246000fd5b6040805190810167ffffffffffffffff811182821017156123c8576123c861238f565b60405290565b60405160e0810167ffffffffffffffff811182821017156123c8576123c861238f565b60405160c0810167ffffffffffffffff811182821017156123c8576123c861238f565b604051601f8201601f1916810167ffffffffffffffff8111828210171561243d5761243d61238f565b604052919050565b600067ffffffffffffffff82111561245f5761245f61238f565b5060051b60200190565b600082601f83011261247a57600080fd5b8135602061248f61248a83612445565b612414565b82815260059290921b840181019181810190868411156124ae57600080fd5b8286015b848110156124d25780356124c581612356565b83529183019183016124b2565b509695505050505050565b600067ffffffffffffffff8211156124f7576124f761238f565b50601f01601f191660200190565b600082601f83011261251657600080fd5b813561252461248a826124dd565b81815284602083860101111561253957600080fd5b816020850160208301376000918101602001919091529392505050565b60008060006060848603121561256b57600080fd5b833567ffffffffffffffff8082111561258357600080fd5b61258f87838801612469565b945060208601359150808211156125a557600080fd5b506125b286828701612505565b92505060408401356125c381612356565b809150509250925092565b8035600781106125dd57600080fd5b919050565b600080604083850312156125f557600080fd5b823561260081612356565b915061260e602084016125ce565b90509250929050565b67ffffffffffffffff81168114610e8257600080fd5b6000806000806080858703121561264357600080fd5b843561264e81612617565b9350602085013561265e81612617565b9250604085013561266e81612617565b9150606085013561267e81612617565b939692955090935050565b6000806040838503121561269c57600080fd5b823567ffffffffffffffff8111156126b357600080fd5b6126bf85828601612505565b92505060208301356126d081612356565b809150509250929050565b60005b838110156126f65781810151838201526020016126de565b50506000910152565b600081518084526127178160208601602086016126db565b601f01601f19169290920160200192915050565b805182526000602082015160406020850152611ec860408501826126ff565b634e487b7160e01b600052602160045260246000fd5b6007811061277e57634e487b7160e01b600052602160045260246000fd5b9052565b60208152815160208201526020820151151560408201526001600160a01b0360408301511660608201526000606083015160a060808401526127c760c084018261272b565b905060808401516127db60a0850182612760565b509392505050565b60008083601f8401126127f557600080fd5b50813567ffffffffffffffff81111561280d57600080fd5b6020830191508360208260051b850101111561282857600080fd5b9250929050565b6000806000806040858703121561284557600080fd5b843567ffffffffffffffff8082111561285d57600080fd5b612869888389016127e3565b9096509450602087013591508082111561288257600080fd5b5061288f878288016127e3565b95989497509550505050565b600080602083850312156128ae57600080fd5b823567ffffffffffffffff8111156128c557600080fd5b6128d1858286016127e3565b90969095509350505050565b6000602080830181845280855180835260408601915060408160051b870101925083870160005b8281101561293257603f198886030184526129208583516126ff565b94509285019290850190600101612904565b5092979650505050505050565b6000806040838503121561295257600080fd5b823567ffffffffffffffff8082111561296a57600080fd5b61297686838701612469565b935060209150818501358181111561298d57600080fd5b8501601f8101871361299e57600080fd5b80356129ac61248a82612445565b81815260059190911b820184019084810190898311156129cb57600080fd5b8584015b83811015612a03578035868111156129e75760008081fd5b6129f58c8983890101612505565b8452509186019186016129cf565b508096505050505050509250929050565b602080825282518282018190526000919060409081850190868401855b82811015612a5f57815180516001600160a01b03168552860151868501529284019290850190600101612a31565b5091979650505050505050565b602081016107e58284612760565b85815284151560208201526001600160a01b038416604082015260a060608201526000612aaa60a083018561272b565b9050611f3e6080830184612760565b60008060408385031215612acc57600080fd5b82359150602083013567ffffffffffffffff811115612aea57600080fd5b612af685828601612505565b9150509250929050565b600060208284031215612b1257600080fd5b5035919050565b634e487b7160e01b600052603260045260246000fd5b600060208284031215612b4157600080fd5b6107e2826125ce565b634e487b7160e01b600052601160045260246000fd5b600060018201612b7257612b72612b4a565b5060010190565b60408101612b878285612760565b6001600160a01b03831660208301529392505050565b6000808335601e19843603018112612bb457600080fd5b83018035915067ffffffffffffffff821115612bcf57600080fd5b60200191503681900382131561282857600080fd5b600181811c90821680612bf857607f821691505b6020821081036122d257634e487b7160e01b600052602260045260246000fd5b805180151581146125dd57600080fd5b6000818303610100811215612c3c57600080fd5b612c446123a5565b8351815260e0601f1983011215612c5a57600080fd5b612c626123ce565b9150612c7060208501612c18565b8252612c7e60408501612c18565b6020830152606084015160408301526080840151612c9b81612617565b606083015260a0840151612cae81612617565b608083015260c0840151612cc181612617565b60a083015260e0840151612cd481612617565b60c083015260208101919091529392505050565b808201808211156107e5576107e5612b4a565b600060208284031215612d0d57600080fd5b6107e282612c18565b80516125dd81612356565b600082601f830112612d3257600080fd5b8151612d4061248a826124dd565b818152846020838601011115612d5557600080fd5b611ec88260208301602087016126db565b600060408284031215612d7857600080fd5b612d806123a5565b905081518152602082015167ffffffffffffffff811115612da057600080fd5b612dac84828501612d21565b60208301525092915050565b600060208284031215612dca57600080fd5b815167ffffffffffffffff80821115612de257600080fd5b9083019060c08286031215612df657600080fd5b612dfe6123f1565b825181526020830151612e1081612356565b60208201526040830151612e2381612356565b6040820152606083015182811115612e3a57600080fd5b612e4687828601612d66565b6060830152506080830151608082015260a083015160a082015280935050505092915050565b600080600060608486031215612e8157600080fd5b8351612e8c81612356565b6020850151909350612e9d81612356565b604085015190925067ffffffffffffffff811115612eba57600080fd5b612ec686828701612d66565b9150509250925092565b601f8211156107a457600081815260208120601f850160051c81016020861015612ef75750805b601f850160051c820191505b8181101561121e57828155600101612f03565b815167ffffffffffffffff811115612f3057612f3061238f565b612f4481612f3e8454612be4565b84612ed0565b602080601f831160018114612f795760008415612f615750858301515b600019600386901b1c1916600185901b17855561121e565b600085815260208120601f198616915b82811015612fa857888601518255948401946001909101908401612f89565b5085821015612fc65787850151600019600388901b60f8161c191681555b5050505050600190811b01905550565b604081526000612fe960408301856126ff565b90506001600160a01b03831660208301529392505050565b60608152600061301460608301866126ff565b90506001600160a01b0384166020830152611ec86040830184612760565b80820281158282048414176107e5576107e5612b4a565b60008261306657634e487b7160e01b600052601260045260246000fd5b500490565b60006020828403121561307d57600080fd5b815161238881612356565b6000806040838503121561309b57600080fd5b82516130a681612356565b6020939093015192949293505050565b6000602082840312156130c857600080fd5b815167ffffffffffffffff808211156130e057600080fd5b9083019060c082860312156130f457600080fd5b6130fc6123f1565b825181526020830151602082015260408301518281111561311c57600080fd5b61312887828601612d21565b60408301525060608301518281111561314057600080fd5b61314c87828601612d66565b60608301525061315e60808401612d16565b608082015261316f60a08401612d16565b60a082015295945050505050565b6000825161318f8184602087016126db565b9190910192915050565b818103818111156107e5576107e5612b4a565b6020815260006107e260208301846126ff56fe416464726573733a206c6f772d6c6576656c2064656c65676174652063616c6c206661696c6564a2646970667358221220494c0ecfc003ef82a24c59c6d54831024a24a37cc68a242d6e3afa2994b6021164736f6c63430008130033",
    "linkReferences": {}
  },
  "methodIdentifiers": {
    "NATIVE()": "a0cf0aea",
    "addAllocator(address)": "41f44125",
    "allocate(bytes,address)": "ef2920fc",
    "allocationEndTime()": "4533d678",
    "allocationStartTime()": "d2e17f59",
    "allocators(address)": "084ea36e",
    "allowedAllocators(address)": "259d6dde",
    "distribute(address[],bytes,address)": "0a6f0ee9",
    "getAllo()": "15cc481e",
    "getPayouts(address[],bytes[])": "b2b878d0",
    "getPoolAmount()": "4ab4ba42",
    "getPoolId()": "38fff2d0",
    "getRecipient(address)": "62812a39",
    "getRecipientStatus(address)": "eb11af93",
    "getStrategyId()": "42fda9c7",
    "increasePoolAmount(uint256)": "f5b0dfb7",
    "initialize(uint256,bytes)": "edd146cc",
    "isPoolActive()": "df868ed3",
    "isValidAllocator(address)": "4d31d087",
    "maxVoiceCreditsPerAllocator()": "4a4f8e04",
    "metadataRequired()": "cb0e85a6",
    "multicall(bytes[])": "ac9650d8",
    "paidOut(address)": "81f03fcb",
    "recipients(address)": "eb820312",
    "registerRecipient(bytes,address)": "2bbe0cae",
    "registrationEndTime()": "dff7d2c7",
    "registrationStartTime()": "9af5c09d",
    "registryGating()": "a647d23e",
    "removeAllocator(address)": "07fca381",
    "reviewRecipients(address[],uint8[])": "7f835983",
    "reviewThreshold()": "57825849",
    "reviewsByStatus(address,uint8)": "0d93bb53",
    "totalRecipientVotes()": "59010701",
    "updatePoolTimestamps(uint64,uint64,uint64,uint64)": "2143e92f"
  },
  "storageLayout": {
    "storage": [
      {
        "astId": 3267,
        "contract": "contracts/strategies/qv-simple/QVSimpleStrategy.sol:QVSimpleStrategy",
        "label": "poolActive",
        "offset": 0,
        "slot": "0",
        "type": "t_bool"
      },
      {
        "astId": 3269,
        "contract": "contracts/strategies/qv-simple/QVSimpleStrategy.sol:QVSimpleStrategy",
        "label": "poolId",
        "offset": 0,
        "slot": "1",
        "type": "t_uint256"
      },
      {
        "astId": 3271,
        "contract": "contracts/strategies/qv-simple/QVSimpleStrategy.sol:QVSimpleStrategy",
        "label": "poolAmount",
        "offset": 0,
        "slot": "2",
        "type": "t_uint256"
      },
      {
        "astId": 14496,
        "contract": "contracts/strategies/qv-simple/QVSimpleStrategy.sol:QVSimpleStrategy",
        "label": "totalRecipientVotes",
        "offset": 0,
        "slot": "3",
        "type": "t_uint256"
      },
      {
        "astId": 14499,
        "contract": "contracts/strategies/qv-simple/QVSimpleStrategy.sol:QVSimpleStrategy",
        "label": "reviewThreshold",
        "offset": 0,
        "slot": "4",
        "type": "t_uint256"
      },
      {
        "astId": 14502,
        "contract": "contracts/strategies/qv-simple/QVSimpleStrategy.sol:QVSimpleStrategy",
        "label": "registrationStartTime",
        "offset": 0,
        "slot": "5",
        "type": "t_uint64"
      },
      {
        "astId": 14504,
        "contract": "contracts/strategies/qv-simple/QVSimpleStrategy.sol:QVSimpleStrategy",
        "label": "registrationEndTime",
        "offset": 8,
        "slot": "5",
        "type": "t_uint64"
      },
      {
        "astId": 14506,
        "contract": "contracts/strategies/qv-simple/QVSimpleStrategy.sol:QVSimpleStrategy",
        "label": "allocationStartTime",
        "offset": 16,
        "slot": "5",
        "type": "t_uint64"
      },
      {
        "astId": 14508,
        "contract": "contracts/strategies/qv-simple/QVSimpleStrategy.sol:QVSimpleStrategy",
        "label": "allocationEndTime",
        "offset": 24,
        "slot": "5",
        "type": "t_uint64"
      },
      {
        "astId": 14511,
        "contract": "contracts/strategies/qv-simple/QVSimpleStrategy.sol:QVSimpleStrategy",
        "label": "registryGating",
        "offset": 0,
        "slot": "6",
        "type": "t_bool"
      },
      {
        "astId": 14514,
        "contract": "contracts/strategies/qv-simple/QVSimpleStrategy.sol:QVSimpleStrategy",
        "label": "metadataRequired",
        "offset": 1,
        "slot": "6",
        "type": "t_bool"
      },
      {
        "astId": 14518,
        "contract": "contracts/strategies/qv-simple/QVSimpleStrategy.sol:QVSimpleStrategy",
        "label": "_registry",
        "offset": 2,
        "slot": "6",
        "type": "t_contract(IRegistry)2625"
      },
      {
        "astId": 14569,
        "contract": "contracts/strategies/qv-simple/QVSimpleStrategy.sol:QVSimpleStrategy",
        "label": "recipients",
        "offset": 0,
        "slot": "7",
        "type": "t_mapping(t_address,t_struct(Recipient)14552_storage)"
      },
      {
        "astId": 14575,
        "contract": "contracts/strategies/qv-simple/QVSimpleStrategy.sol:QVSimpleStrategy",
        "label": "allocators",
        "offset": 0,
        "slot": "8",
        "type": "t_mapping(t_address,t_struct(Allocator)14563_storage)"
      },
      {
        "astId": 14580,
        "contract": "contracts/strategies/qv-simple/QVSimpleStrategy.sol:QVSimpleStrategy",
        "label": "paidOut",
        "offset": 0,
        "slot": "9",
        "type": "t_mapping(t_address,t_bool)"
      },
      {
        "astId": 14587,
        "contract": "contracts/strategies/qv-simple/QVSimpleStrategy.sol:QVSimpleStrategy",
        "label": "reviewsByStatus",
        "offset": 0,
        "slot": "10",
        "type": "t_mapping(t_address,t_mapping(t_enum(Status)2638,t_uint256))"
      },
      {
        "astId": 15592,
        "contract": "contracts/strategies/qv-simple/QVSimpleStrategy.sol:QVSimpleStrategy",
        "label": "maxVoiceCreditsPerAllocator",
        "offset": 0,
        "slot": "11",
        "type": "t_uint256"
      },
      {
        "astId": 15597,
        "contract": "contracts/strategies/qv-simple/QVSimpleStrategy.sol:QVSimpleStrategy",
        "label": "allowedAllocators",
        "offset": 0,
        "slot": "12",
        "type": "t_mapping(t_address,t_bool)"
      }
    ],
    "types": {
      "t_address": {
        "encoding": "inplace",
        "label": "address",
        "numberOfBytes": "20"
      },
      "t_bool": {
        "encoding": "inplace",
        "label": "bool",
        "numberOfBytes": "1"
      },
      "t_contract(IRegistry)2625": {
        "encoding": "inplace",
        "label": "contract IRegistry",
        "numberOfBytes": "20"
      },
      "t_enum(Status)2638": {
        "encoding": "inplace",
        "label": "enum IStrategy.Status",
        "numberOfBytes": "1"
      },
      "t_mapping(t_address,t_bool)": {
        "encoding": "mapping",
        "key": "t_address",
        "label": "mapping(address => bool)",
        "numberOfBytes": "32",
        "value": "t_bool"
      },
      "t_mapping(t_address,t_mapping(t_enum(Status)2638,t_uint256))": {
        "encoding": "mapping",
        "key": "t_address",
        "label": "mapping(address => mapping(enum IStrategy.Status => uint256))",
        "numberOfBytes": "32",
        "value": "t_mapping(t_enum(Status)2638,t_uint256)"
      },
      "t_mapping(t_address,t_struct(Allocator)14563_storage)": {
        "encoding": "mapping",
        "key": "t_address",
        "label": "mapping(address => struct QVBaseStrategy.Allocator)",
        "numberOfBytes": "32",
        "value": "t_struct(Allocator)14563_storage"
      },
      "t_mapping(t_address,t_struct(Recipient)14552_storage)": {
        "encoding": "mapping",
        "key": "t_address",
        "label": "mapping(address => struct QVBaseStrategy.Recipient)",
        "numberOfBytes": "32",
        "value": "t_struct(Recipient)14552_storage"
      },
      "t_mapping(t_address,t_uint256)": {
        "encoding": "mapping",
        "key": "t_address",
        "label": "mapping(address => uint256)",
        "numberOfBytes": "32",
        "value": "t_uint256"
      },
      "t_mapping(t_enum(Status)2638,t_uint256)": {
        "encoding": "mapping",
        "key": "t_enum(Status)2638",
        "label": "mapping(enum IStrategy.Status => uint256)",
        "numberOfBytes": "32",
        "value": "t_uint256"
      },
      "t_string_storage": {
        "encoding": "bytes",
        "label": "string",
        "numberOfBytes": "32"
      },
      "t_struct(Allocator)14563_storage": {
        "encoding": "inplace",
        "label": "struct QVBaseStrategy.Allocator",
        "numberOfBytes": "96",
        "members": [
          {
            "astId": 14554,
            "contract": "contracts/strategies/qv-simple/QVSimpleStrategy.sol:QVSimpleStrategy",
            "label": "voiceCredits",
            "offset": 0,
            "slot": "0",
            "type": "t_uint256"
          },
          {
            "astId": 14558,
            "contract": "contracts/strategies/qv-simple/QVSimpleStrategy.sol:QVSimpleStrategy",
            "label": "voiceCreditsCastToRecipient",
            "offset": 0,
            "slot": "1",
            "type": "t_mapping(t_address,t_uint256)"
          },
          {
            "astId": 14562,
            "contract": "contracts/strategies/qv-simple/QVSimpleStrategy.sol:QVSimpleStrategy",
            "label": "votesCastToRecipient",
            "offset": 0,
            "slot": "2",
            "type": "t_mapping(t_address,t_uint256)"
          }
        ]
      },
      "t_struct(Metadata)2922_storage": {
        "encoding": "inplace",
        "label": "struct Metadata",
        "numberOfBytes": "64",
        "members": [
          {
            "astId": 2918,
            "contract": "contracts/strategies/qv-simple/QVSimpleStrategy.sol:QVSimpleStrategy",
            "label": "protocol",
            "offset": 0,
            "slot": "0",
            "type": "t_uint256"
          },
          {
            "astId": 2921,
            "contract": "contracts/strategies/qv-simple/QVSimpleStrategy.sol:QVSimpleStrategy",
            "label": "pointer",
            "offset": 0,
            "slot": "1",
            "type": "t_string_storage"
          }
        ]
      },
      "t_struct(Recipient)14552_storage": {
        "encoding": "inplace",
        "label": "struct QVBaseStrategy.Recipient",
        "numberOfBytes": "160",
        "members": [
          {
            "astId": 14541,
            "contract": "contracts/strategies/qv-simple/QVSimpleStrategy.sol:QVSimpleStrategy",
            "label": "totalVotesReceived",
            "offset": 0,
            "slot": "0",
            "type": "t_uint256"
          },
          {
            "astId": 14543,
            "contract": "contracts/strategies/qv-simple/QVSimpleStrategy.sol:QVSimpleStrategy",
            "label": "useRegistryAnchor",
            "offset": 0,
            "slot": "1",
            "type": "t_bool"
          },
          {
            "astId": 14545,
            "contract": "contracts/strategies/qv-simple/QVSimpleStrategy.sol:QVSimpleStrategy",
            "label": "recipientAddress",
            "offset": 1,
            "slot": "1",
            "type": "t_address"
          },
          {
            "astId": 14548,
            "contract": "contracts/strategies/qv-simple/QVSimpleStrategy.sol:QVSimpleStrategy",
            "label": "metadata",
            "offset": 0,
            "slot": "2",
            "type": "t_struct(Metadata)2922_storage"
          },
          {
            "astId": 14551,
            "contract": "contracts/strategies/qv-simple/QVSimpleStrategy.sol:QVSimpleStrategy",
            "label": "recipientStatus",
            "offset": 0,
            "slot": "4",
            "type": "t_enum(Status)2638"
          }
        ]
      },
      "t_uint256": {
        "encoding": "inplace",
        "label": "uint256",
        "numberOfBytes": "32"
      },
      "t_uint64": {
        "encoding": "inplace",
        "label": "uint64",
        "numberOfBytes": "8"
      }
    }
  },
  "id": 31
}