{
  "abi": [
    {
      "inputs": [
        {
          "internalType": "address",
          "name": "_allo",
          "type": "address"
        },
        {
          "internalType": "string",
          "name": "_name",
          "type": "string"
        },
        {
          "internalType": "contract ISignatureTransfer",
          "name": "_permit2",
          "type": "address"
        }
      ],
      "stateMutability": "nonpayable",
      "type": "constructor"
    },
    {
      "inputs": [],
      "name": "ALLOCATION_ACTIVE",
      "type": "error"
    },
    {
      "inputs": [],
      "name": "ALLOCATION_NOT_ACTIVE",
      "type": "error"
    },
    {
      "inputs": [],
      "name": "ALLOCATION_NOT_ENDED",
      "type": "error"
    },
    {
      "inputs": [],
      "name": "ALREADY_INITIALIZED",
      "type": "error"
    },
    {
      "inputs": [],
      "name": "AMOUNT_MISMATCH",
      "type": "error"
    },
    {
      "inputs": [],
      "name": "ANCHOR_ERROR",
      "type": "error"
    },
    {
      "inputs": [],
      "name": "ARRAY_MISMATCH",
      "type": "error"
    },
    {
      "inputs": [],
      "name": "INVALID",
      "type": "error"
    },
    {
      "inputs": [],
      "name": "INVALID_ADDRESS",
      "type": "error"
    },
    {
      "inputs": [],
      "name": "INVALID_FEE",
      "type": "error"
    },
    {
      "inputs": [],
      "name": "INVALID_METADATA",
      "type": "error"
    },
    {
      "inputs": [],
      "name": "INVALID_REGISTRATION",
      "type": "error"
    },
    {
      "inputs": [],
      "name": "IS_APPROVED_STRATEGY",
      "type": "error"
    },
    {
      "inputs": [],
      "name": "MISMATCH",
      "type": "error"
    },
    {
      "inputs": [],
      "name": "NONCE_NOT_AVAILABLE",
      "type": "error"
    },
    {
      "inputs": [],
      "name": "NOT_APPROVED_STRATEGY",
      "type": "error"
    },
    {
      "inputs": [],
      "name": "NOT_ENOUGH_FUNDS",
      "type": "error"
    },
    {
      "inputs": [],
      "name": "NOT_INITIALIZED",
      "type": "error"
    },
    {
      "inputs": [],
      "name": "NOT_PENDING_OWNER",
      "type": "error"
    },
    {
      "inputs": [],
      "name": "POOL_ACTIVE",
      "type": "error"
    },
    {
      "inputs": [],
      "name": "POOL_INACTIVE",
      "type": "error"
    },
    {
      "inputs": [],
      "name": "RECIPIENT_ALREADY_ACCEPTED",
      "type": "error"
    },
    {
      "inputs": [
        {
          "internalType": "address",
          "name": "recipientId",
          "type": "address"
        }
      ],
      "name": "RECIPIENT_ERROR",
      "type": "error"
    },
    {
      "inputs": [],
      "name": "RECIPIENT_NOT_ACCEPTED",
      "type": "error"
    },
    {
      "inputs": [],
      "name": "REGISTRATION_NOT_ACTIVE",
      "type": "error"
    },
    {
      "inputs": [],
      "name": "UNAUTHORIZED",
      "type": "error"
    },
    {
      "inputs": [],
      "name": "ZERO_ADDRESS",
      "type": "error"
    },
    {
      "anonymous": false,
      "inputs": [
        {
          "indexed": true,
          "internalType": "address",
          "name": "recipientId",
          "type": "address"
        },
        {
          "indexed": false,
          "internalType": "uint256",
          "name": "amount",
          "type": "uint256"
        },
        {
          "indexed": false,
          "internalType": "address",
          "name": "token",
          "type": "address"
        },
        {
          "indexed": false,
          "internalType": "address",
          "name": "sender",
          "type": "address"
        }
      ],
      "name": "Allocated",
      "type": "event"
    },
    {
      "anonymous": false,
      "inputs": [
        {
          "indexed": true,
          "internalType": "address",
          "name": "sender",
          "type": "address"
        }
      ],
      "name": "BatchPayoutSuccessful",
      "type": "event"
    },
    {
      "anonymous": false,
      "inputs": [
        {
          "indexed": true,
          "internalType": "address",
          "name": "recipientId",
          "type": "address"
        },
        {
          "indexed": false,
          "internalType": "address",
          "name": "recipientAddress",
          "type": "address"
        },
        {
          "indexed": false,
          "internalType": "uint256",
          "name": "amount",
          "type": "uint256"
        },
        {
          "indexed": false,
          "internalType": "address",
          "name": "token",
          "type": "address"
        }
      ],
      "name": "Claimed",
      "type": "event"
    },
    {
      "anonymous": false,
      "inputs": [
        {
          "indexed": true,
          "internalType": "address",
          "name": "recipientId",
          "type": "address"
        },
        {
          "indexed": false,
          "internalType": "address",
          "name": "recipientAddress",
          "type": "address"
        },
        {
          "indexed": false,
          "internalType": "uint256",
          "name": "amount",
          "type": "uint256"
        },
        {
          "indexed": false,
          "internalType": "address",
          "name": "sender",
          "type": "address"
        }
      ],
      "name": "Distributed",
      "type": "event"
    },
    {
      "anonymous": false,
      "inputs": [
        {
          "indexed": false,
          "internalType": "bytes32",
          "name": "merkleRoot",
          "type": "bytes32"
        },
        {
          "components": [
            {
              "internalType": "uint256",
              "name": "protocol",
              "type": "uint256"
            },
            {
              "internalType": "string",
              "name": "pointer",
              "type": "string"
            }
          ],
          "indexed": false,
          "internalType": "struct Metadata",
          "name": "metadata",
          "type": "tuple"
        }
      ],
      "name": "DistributionUpdated",
      "type": "event"
    },
    {
      "anonymous": false,
      "inputs": [
        {
          "indexed": false,
          "internalType": "uint256",
          "name": "amount",
          "type": "uint256"
        },
        {
          "indexed": false,
          "internalType": "address",
          "name": "grantee",
          "type": "address"
        },
        {
          "indexed": true,
          "internalType": "address",
          "name": "token",
          "type": "address"
        },
        {
          "indexed": true,
          "internalType": "address",
          "name": "recipientId",
          "type": "address"
        }
      ],
      "name": "FundsDistributed",
      "type": "event"
    },
    {
      "anonymous": false,
      "inputs": [
        {
          "indexed": false,
          "internalType": "uint8",
          "name": "version",
          "type": "uint8"
        }
      ],
      "name": "Initialized",
      "type": "event"
    },
    {
      "anonymous": false,
      "inputs": [
        {
          "indexed": false,
          "internalType": "address",
          "name": "allo",
          "type": "address"
        },
        {
          "indexed": false,
          "internalType": "bytes32",
          "name": "profileId",
          "type": "bytes32"
        },
        {
          "indexed": false,
          "internalType": "uint256",
          "name": "poolId",
          "type": "uint256"
        },
        {
          "indexed": false,
          "internalType": "bytes",
          "name": "data",
          "type": "bytes"
        }
      ],
      "name": "Initialized",
      "type": "event"
    },
    {
      "anonymous": false,
      "inputs": [
        {
          "indexed": false,
          "internalType": "bool",
          "name": "active",
          "type": "bool"
        }
      ],
      "name": "PoolActive",
      "type": "event"
    },
    {
      "anonymous": false,
      "inputs": [
        {
          "indexed": true,
          "internalType": "uint256",
          "name": "rowIndex",
          "type": "uint256"
        },
        {
          "indexed": false,
          "internalType": "uint256",
          "name": "fullRow",
          "type": "uint256"
        },
        {
          "indexed": false,
          "internalType": "address",
          "name": "sender",
          "type": "address"
        }
      ],
      "name": "RecipientStatusUpdated",
      "type": "event"
    },
    {
      "anonymous": false,
      "inputs": [
        {
          "indexed": true,
          "internalType": "address",
          "name": "recipientId",
          "type": "address"
        },
        {
          "indexed": false,
          "internalType": "bytes",
          "name": "data",
          "type": "bytes"
        },
        {
          "indexed": false,
          "internalType": "address",
          "name": "sender",
          "type": "address"
        }
      ],
      "name": "Registered",
      "type": "event"
    },
    {
      "anonymous": false,
      "inputs": [
        {
          "indexed": false,
          "internalType": "uint64",
          "name": "registrationStartTime",
          "type": "uint64"
        },
        {
          "indexed": false,
          "internalType": "uint64",
          "name": "registrationEndTime",
          "type": "uint64"
        },
        {
          "indexed": false,
          "internalType": "uint64",
          "name": "allocationStartTime",
          "type": "uint64"
        },
        {
          "indexed": false,
          "internalType": "uint64",
          "name": "allocationEndTime",
          "type": "uint64"
        },
        {
          "indexed": false,
          "internalType": "address",
          "name": "sender",
          "type": "address"
        }
      ],
      "name": "TimestampsUpdated",
      "type": "event"
    },
    {
      "anonymous": false,
      "inputs": [
        {
          "indexed": true,
          "internalType": "address",
          "name": "recipientId",
          "type": "address"
        },
        {
          "indexed": false,
          "internalType": "bytes",
          "name": "data",
          "type": "bytes"
        },
        {
          "indexed": false,
          "internalType": "address",
          "name": "sender",
          "type": "address"
        },
        {
          "indexed": false,
          "internalType": "uint8",
          "name": "status",
          "type": "uint8"
        }
      ],
      "name": "UpdatedRegistration",
      "type": "event"
    },
    {
      "inputs": [],
      "name": "NATIVE",
      "outputs": [
        {
          "internalType": "address",
          "name": "",
          "type": "address"
        }
      ],
      "stateMutability": "view",
      "type": "function"
    },
    {
      "inputs": [],
      "name": "PERMIT2",
      "outputs": [
        {
          "internalType": "contract ISignatureTransfer",
          "name": "",
          "type": "address"
        }
      ],
      "stateMutability": "view",
      "type": "function"
    },
    {
      "inputs": [
        {
          "internalType": "bytes",
          "name": "_data",
          "type": "bytes"
        },
        {
          "internalType": "address",
          "name": "_sender",
          "type": "address"
        }
      ],
      "name": "allocate",
      "outputs": [],
      "stateMutability": "payable",
      "type": "function"
    },
    {
      "inputs": [],
      "name": "allocationEndTime",
      "outputs": [
        {
          "internalType": "uint64",
          "name": "",
          "type": "uint64"
        }
      ],
      "stateMutability": "view",
      "type": "function"
    },
    {
      "inputs": [],
      "name": "allocationStartTime",
      "outputs": [
        {
          "internalType": "uint64",
          "name": "",
          "type": "uint64"
        }
      ],
      "stateMutability": "view",
      "type": "function"
    },
    {
      "inputs": [
        {
          "internalType": "address",
          "name": "",
          "type": "address"
        }
      ],
      "name": "allowedTokens",
      "outputs": [
        {
          "internalType": "bool",
          "name": "",
          "type": "bool"
        }
      ],
      "stateMutability": "view",
      "type": "function"
    },
    {
      "inputs": [
        {
          "components": [
            {
              "internalType": "address",
              "name": "recipientId",
              "type": "address"
            },
            {
              "internalType": "address",
              "name": "token",
              "type": "address"
            }
          ],
          "internalType": "struct DonationVotingMerkleDistributionVaultStrategy.Claim[]",
          "name": "_claims",
          "type": "tuple[]"
        }
      ],
      "name": "claim",
      "outputs": [],
      "stateMutability": "nonpayable",
      "type": "function"
    },
    {
      "inputs": [
        {
          "internalType": "address",
          "name": "",
          "type": "address"
        },
        {
          "internalType": "address",
          "name": "",
          "type": "address"
        }
      ],
      "name": "claims",
      "outputs": [
        {
          "internalType": "uint256",
          "name": "",
          "type": "uint256"
        }
      ],
      "stateMutability": "view",
      "type": "function"
    },
    {
      "inputs": [
        {
          "internalType": "address[]",
          "name": "_recipientIds",
          "type": "address[]"
        },
        {
          "internalType": "bytes",
          "name": "_data",
          "type": "bytes"
        },
        {
          "internalType": "address",
          "name": "_sender",
          "type": "address"
        }
      ],
      "name": "distribute",
      "outputs": [],
      "stateMutability": "nonpayable",
      "type": "function"
    },
    {
      "inputs": [],
      "name": "distributionMetadata",
      "outputs": [
        {
          "internalType": "uint256",
          "name": "protocol",
          "type": "uint256"
        },
        {
          "internalType": "string",
          "name": "pointer",
          "type": "string"
        }
      ],
      "stateMutability": "view",
      "type": "function"
    },
    {
      "inputs": [],
      "name": "distributionStarted",
      "outputs": [
        {
          "internalType": "bool",
          "name": "",
          "type": "bool"
        }
      ],
      "stateMutability": "view",
      "type": "function"
    },
    {
      "inputs": [],
      "name": "getAllo",
      "outputs": [
        {
          "internalType": "contract IAllo",
          "name": "",
          "type": "address"
        }
      ],
      "stateMutability": "view",
      "type": "function"
    },
    {
      "inputs": [
        {
          "internalType": "address[]",
          "name": "_recipientIds",
          "type": "address[]"
        },
        {
          "internalType": "bytes[]",
          "name": "_data",
          "type": "bytes[]"
        }
      ],
      "name": "getPayouts",
      "outputs": [
        {
          "components": [
            {
              "internalType": "address",
              "name": "recipientAddress",
              "type": "address"
            },
            {
              "internalType": "uint256",
              "name": "amount",
              "type": "uint256"
            }
          ],
          "internalType": "struct IStrategy.PayoutSummary[]",
          "name": "",
          "type": "tuple[]"
        }
      ],
      "stateMutability": "view",
      "type": "function"
    },
    {
      "inputs": [],
      "name": "getPoolAmount",
      "outputs": [
        {
          "internalType": "uint256",
          "name": "",
          "type": "uint256"
        }
      ],
      "stateMutability": "view",
      "type": "function"
    },
    {
      "inputs": [],
      "name": "getPoolId",
      "outputs": [
        {
          "internalType": "uint256",
          "name": "",
          "type": "uint256"
        }
      ],
      "stateMutability": "view",
      "type": "function"
    },
    {
      "inputs": [
        {
          "internalType": "address",
          "name": "_recipientId",
          "type": "address"
        }
      ],
      "name": "getRecipient",
      "outputs": [
        {
          "components": [
            {
              "internalType": "bool",
              "name": "useRegistryAnchor",
              "type": "bool"
            },
            {
              "internalType": "address",
              "name": "recipientAddress",
              "type": "address"
            },
            {
              "components": [
                {
                  "internalType": "uint256",
                  "name": "protocol",
                  "type": "uint256"
                },
                {
                  "internalType": "string",
                  "name": "pointer",
                  "type": "string"
                }
              ],
              "internalType": "struct Metadata",
              "name": "metadata",
              "type": "tuple"
            }
          ],
          "internalType": "struct DonationVotingMerkleDistributionBaseStrategy.Recipient",
          "name": "recipient",
          "type": "tuple"
        }
      ],
      "stateMutability": "view",
      "type": "function"
    },
    {
      "inputs": [
        {
          "internalType": "address",
          "name": "_recipientId",
          "type": "address"
        }
      ],
      "name": "getRecipientStatus",
      "outputs": [
        {
          "internalType": "enum IStrategy.Status",
          "name": "",
          "type": "uint8"
        }
      ],
      "stateMutability": "view",
      "type": "function"
    },
    {
      "inputs": [],
      "name": "getStrategyId",
      "outputs": [
        {
          "internalType": "bytes32",
          "name": "",
          "type": "bytes32"
        }
      ],
      "stateMutability": "view",
      "type": "function"
    },
    {
      "inputs": [
        {
          "internalType": "uint256",
          "name": "_index",
          "type": "uint256"
        }
      ],
      "name": "hasBeenDistributed",
      "outputs": [
        {
          "internalType": "bool",
          "name": "",
          "type": "bool"
        }
      ],
      "stateMutability": "view",
      "type": "function"
    },
    {
      "inputs": [
        {
          "internalType": "uint256",
          "name": "_amount",
          "type": "uint256"
        }
      ],
      "name": "increasePoolAmount",
      "outputs": [],
      "stateMutability": "nonpayable",
      "type": "function"
    },
    {
      "inputs": [
        {
          "internalType": "uint256",
          "name": "_poolId",
          "type": "uint256"
        },
        {
          "internalType": "bytes",
          "name": "_data",
          "type": "bytes"
        }
      ],
      "name": "initialize",
      "outputs": [],
      "stateMutability": "nonpayable",
      "type": "function"
    },
    {
      "inputs": [],
      "name": "isDistributionSet",
      "outputs": [
        {
          "internalType": "bool",
          "name": "",
          "type": "bool"
        }
      ],
      "stateMutability": "view",
      "type": "function"
    },
    {
      "inputs": [],
      "name": "isPoolActive",
      "outputs": [
        {
          "internalType": "bool",
          "name": "",
          "type": "bool"
        }
      ],
      "stateMutability": "view",
      "type": "function"
    },
    {
      "inputs": [
        {
          "internalType": "address",
          "name": "_allocator",
          "type": "address"
        }
      ],
      "name": "isValidAllocator",
      "outputs": [
        {
          "internalType": "bool",
          "name": "",
          "type": "bool"
        }
      ],
      "stateMutability": "view",
      "type": "function"
    },
    {
      "inputs": [],
      "name": "merkleRoot",
      "outputs": [
        {
          "internalType": "bytes32",
          "name": "",
          "type": "bytes32"
        }
      ],
      "stateMutability": "view",
      "type": "function"
    },
    {
      "inputs": [],
      "name": "metadataRequired",
      "outputs": [
        {
          "internalType": "bool",
          "name": "",
          "type": "bool"
        }
      ],
      "stateMutability": "view",
      "type": "function"
    },
    {
      "inputs": [
        {
          "internalType": "bytes[]",
          "name": "data",
          "type": "bytes[]"
        }
      ],
      "name": "multicall",
      "outputs": [
        {
          "internalType": "bytes[]",
          "name": "results",
          "type": "bytes[]"
        }
      ],
      "stateMutability": "nonpayable",
      "type": "function"
    },
    {
      "inputs": [
        {
          "internalType": "address",
          "name": "",
          "type": "address"
        }
      ],
      "name": "recipientToStatusIndexes",
      "outputs": [
        {
          "internalType": "uint256",
          "name": "",
          "type": "uint256"
        }
      ],
      "stateMutability": "view",
      "type": "function"
    },
    {
      "inputs": [],
      "name": "recipientsCounter",
      "outputs": [
        {
          "internalType": "uint256",
          "name": "",
          "type": "uint256"
        }
      ],
      "stateMutability": "view",
      "type": "function"
    },
    {
      "inputs": [
        {
          "internalType": "bytes",
          "name": "_data",
          "type": "bytes"
        },
        {
          "internalType": "address",
          "name": "_sender",
          "type": "address"
        }
      ],
      "name": "registerRecipient",
      "outputs": [
        {
          "internalType": "address",
          "name": "recipientId",
          "type": "address"
        }
      ],
      "stateMutability": "payable",
      "type": "function"
    },
    {
      "inputs": [],
      "name": "registrationEndTime",
      "outputs": [
        {
          "internalType": "uint64",
          "name": "",
          "type": "uint64"
        }
      ],
      "stateMutability": "view",
      "type": "function"
    },
    {
      "inputs": [],
      "name": "registrationStartTime",
      "outputs": [
        {
          "internalType": "uint64",
          "name": "",
          "type": "uint64"
        }
      ],
      "stateMutability": "view",
      "type": "function"
    },
    {
      "inputs": [
        {
          "components": [
            {
              "internalType": "uint256",
              "name": "index",
              "type": "uint256"
            },
            {
              "internalType": "uint256",
              "name": "statusRow",
              "type": "uint256"
            }
          ],
          "internalType": "struct DonationVotingMerkleDistributionBaseStrategy.ApplicationStatus[]",
          "name": "statuses",
          "type": "tuple[]"
        }
      ],
      "name": "reviewRecipients",
      "outputs": [],
      "stateMutability": "nonpayable",
      "type": "function"
    },
    {
      "inputs": [
        {
          "internalType": "uint256",
          "name": "",
          "type": "uint256"
        }
      ],
      "name": "statusesBitMap",
      "outputs": [
        {
          "internalType": "uint256",
          "name": "",
          "type": "uint256"
        }
      ],
      "stateMutability": "view",
      "type": "function"
    },
    {
      "inputs": [],
      "name": "totalPayoutAmount",
      "outputs": [
        {
          "internalType": "uint256",
          "name": "",
          "type": "uint256"
        }
      ],
      "stateMutability": "view",
      "type": "function"
    },
    {
      "inputs": [
        {
          "internalType": "bytes32",
          "name": "_merkleRoot",
          "type": "bytes32"
        },
        {
          "components": [
            {
              "internalType": "uint256",
              "name": "protocol",
              "type": "uint256"
            },
            {
              "internalType": "string",
              "name": "pointer",
              "type": "string"
            }
          ],
          "internalType": "struct Metadata",
          "name": "_distributionMetadata",
          "type": "tuple"
        }
      ],
      "name": "updateDistribution",
      "outputs": [],
      "stateMutability": "nonpayable",
      "type": "function"
    },
    {
      "inputs": [
        {
          "internalType": "uint64",
          "name": "_registrationStartTime",
          "type": "uint64"
        },
        {
          "internalType": "uint64",
          "name": "_registrationEndTime",
          "type": "uint64"
        },
        {
          "internalType": "uint64",
          "name": "_allocationStartTime",
          "type": "uint64"
        },
        {
          "internalType": "uint64",
          "name": "_allocationEndTime",
          "type": "uint64"
        }
      ],
      "name": "updatePoolTimestamps",
      "outputs": [],
      "stateMutability": "nonpayable",
      "type": "function"
    },
    {
      "inputs": [],
      "name": "useRegistryAnchor",
      "outputs": [
        {
          "internalType": "bool",
          "name": "",
          "type": "bool"
        }
      ],
      "stateMutability": "view",
      "type": "function"
    },
    {
      "inputs": [
        {
          "internalType": "uint256",
          "name": "_amount",
          "type": "uint256"
        }
      ],
      "name": "withdraw",
      "outputs": [],
      "stateMutability": "nonpayable",
      "type": "function"
    },
    {
      "stateMutability": "payable",
      "type": "receive"
    }
  ],
  "bytecode": {
    "object": "0x60e06040523480156200001157600080fd5b506040516200407338038062004073833981016040819052620000349162000122565b6001600160a01b038316608052604051839083908390839083906200005e90829060200162000204565b60408051601f19818403018152919052805160209091012060a05250506001600160a01b038116620000a35760405163538ba4f960e01b815260040160405180910390fd5b6001600160a01b031660c05250620002399350505050565b6001600160a01b0381168114620000d157600080fd5b50565b634e487b7160e01b600052604160045260246000fd5b60005b8381101562000107578181015183820152602001620000ed565b50506000910152565b80516200011d81620000bb565b919050565b6000806000606084860312156200013857600080fd5b83516200014581620000bb565b60208501519093506001600160401b03808211156200016357600080fd5b818601915086601f8301126200017857600080fd5b8151818111156200018d576200018d620000d4565b604051601f8201601f19908116603f01168101908382118183101715620001b857620001b8620000d4565b81604052828152896020848701011115620001d257600080fd5b620001e5836020830160208801620000ea565b8096505050505050620001fb6040850162000110565b90509250925092565b602081526000825180602084015262000225816040850160208701620000ea565b601f01601f19169190910160400192915050565b60805160a05160c051613de062000293600039600081816105b4015261215e0152600061046501526000818161032101528181610a16015281816111e20152818161135a01528181611c1001526122760152613de06000f3fe6080604052600436106102a45760003560e01c806362812a391161016e578063d2e17f59116100cb578063eb11af931161007f578063ef2920fc11610064578063ef2920fc146107ed578063f5b0dfb714610800578063f6f258911461082057600080fd5b8063eb11af93146107a0578063edd146cc146107cd57600080fd5b8063dff7d2c7116100b0578063dff7d2c714610732578063e744092e1461075a578063e7efcfc21461078a57600080fd5b8063d2e17f59146106f5578063df868ed31461071d57600080fd5b8063a0cf0aea11610122578063b2b878d011610107578063b2b878d014610689578063cb0e85a6146106b6578063d2683937146106d557600080fd5b8063a0cf0aea14610634578063ac9650d81461065c57600080fd5b806373af34531161015357806373af3453146105d657806395355b3b146105f65780639af5c09d1461060c57600080fd5b806362812a39146105755780636afdd850146105a257600080fd5b806338fff2d01161021c5780634ab4ba42116101d057806357089739116101b5578063570897391461051857806359a3977b146105325780635f1b55f31461055557600080fd5b80634ab4ba42146104e35780634d31d087146104f857600080fd5b806342fda9c71161020157806342fda9c7146104565780634533d67814610489578063465831cd146104c357600080fd5b806338fff2d0146104095780633f733c6b1461041e57600080fd5b806321755088116102735780632d52eff2116102585780632d52eff2146103bc5780632e1a7d4d146103d35780632eb4a7ab146103f357600080fd5b806321755088146103795780632bbe0cae146103a957600080fd5b806301fc1c64146102b05780630a6f0ee9146102f057806315cc481e146103125780632143e92f1461035957600080fd5b366102ab57005b600080fd5b3480156102bc57600080fd5b506102dd6102cb3660046129a6565b600c6020526000908152604090205481565b6040519081526020015b60405180910390f35b3480156102fc57600080fd5b5061031061030b366004612bdf565b61084d565b005b34801561031e57600080fd5b507f00000000000000000000000000000000000000000000000000000000000000005b6040516001600160a01b0390911681526020016102e7565b34801561036557600080fd5b50610310610374366004612c6d565b61086d565b34801561038557600080fd5b506005546103999062010000900460ff1681565b60405190151581526020016102e7565b6103416103b7366004612cc9565b610987565b3480156103c857600080fd5b50600a541515610399565b3480156103df57600080fd5b506103106103ee366004612d1b565b6109ac565b3480156103ff57600080fd5b506102dd600a5481565b34801561041557600080fd5b506001546102dd565b34801561042a57600080fd5b506102dd610439366004612d34565b604360209081526000928352604080842090915290825290205481565b34801561046257600080fd5b507f00000000000000000000000000000000000000000000000000000000000000006102dd565b34801561049557600080fd5b506006546104aa9067ffffffffffffffff1681565b60405167ffffffffffffffff90911681526020016102e7565b3480156104cf57600080fd5b506103106104de366004612d62565b610ade565b3480156104ef57600080fd5b506002546102dd565b34801561050457600080fd5b506103996105133660046129a6565b610b9a565b34801561052457600080fd5b506005546103999060ff1681565b34801561053e57600080fd5b50610547610ba3565b6040516102e7929190612e68565b34801561056157600080fd5b50610399610570366004612d1b565b610c3a565b34801561058157600080fd5b506105956105903660046129a6565b610c45565b6040516102e79190612e81565b3480156105ae57600080fd5b506103417f000000000000000000000000000000000000000000000000000000000000000081565b3480156105e257600080fd5b506103106105f1366004612ed0565b610c56565b34801561060257600080fd5b506102dd60085481565b34801561061857600080fd5b506005546104aa906301000000900467ffffffffffffffff1681565b34801561064057600080fd5b5061034173eeeeeeeeeeeeeeeeeeeeeeeeeeeeeeeeeeeeeeee81565b34801561066857600080fd5b5061067c610677366004612f6a565b610cf8565b6040516102e79190612fdf565b34801561069557600080fd5b506106a96106a4366004613041565b610ded565b6040516102e79190613116565b3480156106c257600080fd5b5060055461039990610100900460ff1681565b3480156106e157600080fd5b506103106106f0366004613176565b610f05565b34801561070157600080fd5b506005546104aa90600160981b900467ffffffffffffffff1681565b34801561072957600080fd5b50610399611145565b34801561073e57600080fd5b506005546104aa90600160581b900467ffffffffffffffff1681565b34801561076657600080fd5b506103996107753660046129a6565b600e6020526000908152604090205460ff1681565b34801561079657600080fd5b506102dd60075481565b3480156107ac57600080fd5b506107c06107bb3660046129a6565b611154565b6040516102e791906131ef565b3480156107d957600080fd5b506103106107e8366004613217565b61115f565b6103106107fb366004612cc9565b611189565b34801561080c57600080fd5b5061031061081b366004612d1b565b6111ad565b34801561082c57600080fd5b506102dd61083b366004612d1b565b600b6020526000908152604090205481565b6108556111d7565b61085d611222565b61086883838361125e565b505050565b3361087781611317565b610883858585856113e2565b6005805472ffffffffffffffffffffffffffffffff0000001916630100000067ffffffffffffffff888116820272ffffffffffffffff0000000000000000000000191692909217600160581b8884168102919091177fffffffffff0000000000000000ffffffffffffffffffffffffffffffffffffff16600160981b888516810291909117948590556006805467ffffffffffffffff191688861690811790915560408051948704861685529286048516602085015294049092169181019190915260608101919091523360808201527fcb0fb7a7b87db2f472ee8977444cfdbc51993ce660aca27a5969a724fae6dcf39060a00160405180910390a15050505050565b60006109916111d7565b610999611222565b6109a3838361148b565b90505b92915050565b336109b681611317565b6006546109d09067ffffffffffffffff1662278d00613274565b67ffffffffffffffff1642116109f957604051637fcce2a960e01b815260040160405180910390fd5b60015460405163068bcd8d60e01b81526000916001600160a01b037f0000000000000000000000000000000000000000000000000000000000000000169163068bcd8d91610a4d9160040190815260200190565b600060405180830381865afa158015610a6a573d6000803e3d6000fd5b505050506040513d6000823e601f3d908101601f19168201604052610a92919081019061333c565b9050600254831115610ab757604051637fcce2a960e01b815260040160405180910390fd5b8260026000828254610ac991906133f0565b909155505060408101516108689033856117e8565b610ae6611822565b33610af081611317565b60005b8251811015610868576000838281518110610b1057610b10613403565b60200260200101516000015190506000848381518110610b3257610b32613403565b6020908102919091018101518101516000848152600b83526040908190208290558051828152339381019390935290925083917f941884a9a55191a7401466aaf8a0d2b7c8b082055a5a2b345b83c73940172ac4910160405180910390a25050600101610af3565b600060016109a6565b6003805460048054919291610bb790613419565b80601f0160208091040260200160405190810160405280929190818152602001828054610be390613419565b8015610c305780601f10610c0557610100808354040283529160200191610c30565b820191906000526020600020905b815481529060010190602001808311610c1357829003601f168201915b5050505050905082565b60006109a68261188d565b610c4d61294b565b6109a6826118ce565b610c5e6119c7565b33610c6881611317565b60055462010000900460ff1615610c9257604051637fcce2a960e01b815260040160405180910390fd5b600a839055815160039081556020830151839190600490610cb39082613499565b509050507fdc7180ca4affc84269428ed20ef950e745126f11691b010c4a7d49458421008f600a546003604051610ceb929190613559565b60405180910390a1505050565b60608167ffffffffffffffff811115610d1357610d136129ca565b604051908082528060200260200182016040528015610d4657816020015b6060815260200190600190039081610d315790505b50905060005b82811015610de657610db630858584818110610d6a57610d6a613403565b9050602002810190610d7c91906135fe565b8080601f016020809104026020016040519081016040528093929190818152602001838380828437600092019190915250611a0d92505050565b828281518110610dc857610dc8613403565b60200260200101819052508080610dde9061364c565b915050610d4c565b5092915050565b81518151606091908114610e2d576040517f7b49805600000000000000000000000000000000000000000000000000000000815260040160405180910390fd5b60008167ffffffffffffffff811115610e4857610e486129ca565b604051908082528060200260200182016040528015610e8d57816020015b6040805180820190915260008082526020820152815260200190600190039081610e665790505b50905060005b82811015610efc57610ed7868281518110610eb057610eb0613403565b6020026020010151868381518110610eca57610eca613403565b6020026020010151611a32565b828281518110610ee957610ee9613403565b6020908102919091010152600101610e93565b50949350505050565b610f0d611aed565b610f156119c7565b8060005b81811015611135576000848483818110610f3557610f35613403565b905060400201803603810190610f4b9190613665565b80516001600160a01b039081166000908152600f602090815260408083208151606081018352815460ff81161515825261010090049095168584015281518083018352600182018054825260028301805498995095979295938701949193909291840191610fb890613419565b80601f0160208091040260200160405190810160405280929190818152602001828054610fe490613419565b80156110315780601f1061100657610100808354040283529160200191611031565b820191906000526020600020905b81548152906001019060200180831161101457829003601f168201915b5050509190925250505090525082516001600160a01b0390811660009081526043602090815260408083208288015190941683529290529081205491925081900361108f57604051637fcce2a960e01b815260040160405180910390fd5b82516001600160a01b0390811660009081526043602090815260408083208288018051909516845282528220919091559051908301516110d1908290846117e8565b8351602084810151604080516001600160a01b03928316815292830186905284821683820152519216917f0ffa55c11cec5055a4f567b0ff6e1e0eef2af17baafddd35f31ab4ed1afb75469181900360600190a2505060019092019150610f199050565b50506111416001601155565b5050565b600061114f611b46565b905090565b60006109a682611b91565b6111676111d7565b60008180602001905181019061117d9190613725565b90506108688382611bb0565b6111916111d7565b611199611222565b6111a38282611ea0565b611141828261207f565b6111b56111d7565b80600260008282546111c791906137f8565b909155506111d490508181565b50565b336001600160a01b037f000000000000000000000000000000000000000000000000000000000000000016146112205760405163075fd2b160e01b815260040160405180910390fd5b565b600154600003611220576040517f3da3f98c00000000000000000000000000000000000000000000000000000000815260040160405180910390fd5b8061126881611317565b60055462010000900460ff1661128a576005805462ff00001916620100001790555b6000838060200190518101906112a091906138ce565b805190915060005b818110156112da576112d28382815181106112c5576112c5613403565b602002602001015161220d565b6001016112a8565b506040516001600160a01b038516907f7ec3272052827f7b50d9e84f98172cbb80c112df1e377c5b97ea77f1812db8d990600090a2505050505050565b6001546040517f29e40d4b00000000000000000000000000000000000000000000000000000000815260048101919091526001600160a01b0382811660248301527f000000000000000000000000000000000000000000000000000000000000000016906329e40d4b90604401602060405180830381865afa1580156113a1573d6000803e3d6000fd5b505050506040513d601f19601f820116820180604052508101906113c5919061397f565b6111d45760405163075fd2b160e01b815260040160405180910390fd5b8367ffffffffffffffff1642118061140d57508267ffffffffffffffff168467ffffffffffffffff16115b8061142b57508167ffffffffffffffff168467ffffffffffffffff16115b8061144957508067ffffffffffffffff168267ffffffffffffffff16115b8061146757508067ffffffffffffffff168367ffffffffffffffff16115b1561148557604051637fcce2a960e01b815260040160405180910390fd5b50505050565b6000611495611822565b60008060006114b7604051806040016040528060008152602001606081525090565b60055460ff161561150957868060200190518101906114d6919061399a565b919650935090506114e785876123a3565b6115045760405163075fd2b160e01b815260040160405180910390fd5b611573565b8680602001905181019061151d919061399a565b6001600160a01b03821615159650919450925090508361153d578561153f565b815b9450838015611555575061155385876123a3565b155b156115735760405163075fd2b160e01b815260040160405180910390fd5b600554610100900460ff1680156115965750602081015151158061159657508051155b156115cd576040517fc19e07c500000000000000000000000000000000000000000000000000000000815260040160405180910390fd5b6001600160a01b0383166116045760405163f4a513b960e01b81526001600160a01b03861660048201526024015b60405180910390fd5b6001600160a01b038086166000908152600f602090815260409091208054928616610100027fffffffffffffffffffffff0000000000000000000000000000000000000000ff9093169290921782558251600183019081559083015183919060028401906116729082613499565b505060055460ff1690506116865784611689565b60015b815460ff191690151517815560006116a0876124cd565b905060ff811661175b576008546001600160a01b0388166000908152600c60205260409020556116d58760015b60ff166124e9565b6000896008546040516020016116ec9291906139fe565b6040516020818303038152906040529050876001600160a01b03167fa197306e3dd5494a61a695381aa809a53b8e377a685e84e404a85d5a8da6cc62828b604051611738929190613a20565b60405180910390a2600880549060006117508361364c565b9190505550506117dc565b60011960ff821601611777576117728760016116cd565b61178e565b60021960ff82160161178e5761178e8760046116cd565b866001600160a01b03167fcec1da3f7f0b8a344dd1025d06e2ddd48b14880395997ad97cbdb439acc761d48a8a6117c48b6124cd565b6040516117d393929190613a4b565b60405180910390a25b50505050505092915050565b73eeeeeeeeeeeeeeeeeeeeeeeeeeeeeeeeeeeeeeed196001600160a01b0384160161181757610868828261251c565b610868838383612538565b60055442630100000090910467ffffffffffffffff1611806118565750600554600160581b900467ffffffffffffffff1642115b15611220576040517fb609ed5a00000000000000000000000000000000000000000000000000000000815260040160405180910390fd5b60008061189c61010084613a96565b905060006118ac61010085613aaa565b6000928352600d602052604090922054600190921b9182169091149392505050565b6118d661294b565b6001600160a01b038083166000908152600f60209081526040918290208251606081018452815460ff81161515825261010090049094168483015282518084018452600182018054825260028301805493958701949293919284019161193b90613419565b80601f016020809104026020016040519081016040528092919081815260200182805461196790613419565b80156119b45780601f10611989576101008083540402835291602001916119b4565b820191906000526020600020905b81548152906001019060200180831161199757829003601f168201915b5050509190925250505090525092915050565b60065467ffffffffffffffff16421015611220576040517f8a879da200000000000000000000000000000000000000000000000000000000815260040160405180910390fd5b60606109a38383604051806060016040528060278152602001613d8460279139612587565b6040805180820190915260008082526020820152600082806020019051810190611a5c9190613abe565b805160208201516040830151606084015193945091929091906000611a80846118ce565b602001519050611a9385858386866125ff565b15611ac3576040518060400160405280826001600160a01b031681526020018481525096505050505050506109a6565b604080518082019091526001600160a01b0390911681526000602082015298975050505050505050565b600260115403611b3f5760405162461bcd60e51b815260206004820152601f60248201527f5265656e7472616e637947756172643a207265656e7472616e742063616c6c0060448201526064016115fb565b6002601155565b60055460009042630100000090910467ffffffffffffffff1611801590611b805750600554600160581b900467ffffffffffffffff164211155b15611b8b5750600190565b50600090565b6000611b9c826124cd565b60ff1660068111156109a6576109a66131d9565b611bb9826126a8565b80516005805460208085015161ffff1990921693151561ff0019169390931761010091151591909102179055604080517f5ab1bd5300000000000000000000000000000000000000000000000000000000815290517f00000000000000000000000000000000000000000000000000000000000000006001600160a01b031692635ab1bd5392600480820193918290030181865afa158015611c5f573d6000803e3d6000fd5b505050506040513d601f19601f82011682018060405250810190611c839190613af3565b600980547fffffffffffffffffffffffff0000000000000000000000000000000000000000166001600160a01b03929092169190911790556040810151600580546060840151608085015172ffffffffffffffffffffffffffffffff00000019909216630100000067ffffffffffffffff958616810272ffffffffffffffff0000000000000000000000191691909117600160581b9286168302177fffffffffff0000000000000000ffffffffffffffffffffffffffffffffffffff16600160981b9386168402179384905560a08601516006805467ffffffffffffffff19169187169182179055611d859591850482169492830482169390920416906113e2565b600554600654604080516301000000840467ffffffffffffffff9081168252600160581b850481166020830152600160981b909404841681830152929091166060830152336080830152517fcb0fb7a7b87db2f472ee8977444cfdbc51993ce660aca27a5969a724fae6dcf39181900360a00190a160c0810151516000819003611e3f5760008052600e6020527fe710864318d4a32f37d6ce54cb3fadbef648dd12d8dbdf53973564d56b7f881c805460ff191660011790555b60005b81811015611485576001600e60008560c001518481518110611e6657611e66613403565b6020908102919091018101516001600160a01b03168252810191909152604001600020805460ff1916911515919091179055600101611e42565b611ea8612710565b60008083806020019051810190611ebf9190613b10565b80515160208101519051929450909250906002611edb856124cd565b60ff166006811115611eef57611eef6131d9565b6006811115611f0057611f006131d9565b14611f295760405163f4a513b960e01b81526001600160a01b03851660048201526024016115fb565b6001600160a01b0381166000908152600e602052604090205460ff16158015611f7d575060008052600e6020527fe710864318d4a32f37d6ce54cb3fadbef648dd12d8dbdf53973564d56b7f881c5460ff16155b15611f9b57604051637fcce2a960e01b815260040160405180910390fd5b600034118015611fc857506001600160a01b03811673eeeeeeeeeeeeeeeeeeeeeeeeeeeeeeeeeeeeeeee14155b80611ffa57506001600160a01b03811673eeeeeeeeeeeeeeeeeeeeeeeeeeeeeeeeeeeeeeee148015611ffa5750813414155b1561201857604051637fcce2a960e01b815260040160405180910390fd5b836001600160a01b03167f463ffc2cf8b1596445c417388ed30e53eb67cf6668cb2be7f0addf8a78c8441b83838860405161206f939291909283526001600160a01b03918216602084015216604082015260600190565b60405180910390a2505050505050565b600080838060200190518101906120969190613b10565b80515180516020909101519294509092509073eeeeeeeeeeeeeeeeeeeeeeeeeeeeeeeeeeeeeeed196001600160a01b038316016121165780341015612107576040517f74c5672b00000000000000000000000000000000000000000000000000000000815260040160405180910390fd5b612111308261251c565b6121c9565b8251604080518082018252308152602080820185905286015191517f30f28b7a0000000000000000000000000000000000000000000000000000000081526001600160a01b037f000000000000000000000000000000000000000000000000000000000000000016936330f28b7a936121969391928b9190600401613bfe565b600060405180830381600087803b1580156121b057600080fd5b505af11580156121c4573d6000803e3d6000fd5b505050505b6001600160a01b038085166000908152604360209081526040808320938616835292905290812080548392906122009084906137f8565b9091555050505050505050565b805160208083015160408085015160608601516001600160a01b038085166000908152600f90965292909420549293909290916101009091041661225485858386866125ff565b156123775760015460405163068bcd8d60e01b81526000916001600160a01b037f0000000000000000000000000000000000000000000000000000000000000000169163068bcd8d916122ad9160040190815260200190565b600060405180830381865afa1580156122ca573d6000803e3d6000fd5b505050506040513d6000823e601f3d908101601f191682016040526122f2919081019061333c565b90506122fd86612774565b836002600082825461230f91906133f0565b909155505060408101516123249083866117e8565b60408082015181518681526001600160a01b038581166020830152808916939216917fa6b66f665010d2f7435f110111aaa34b56564074f66081bef606d996fc8caa6f910160405180910390a35061239b565b60405163f4a513b960e01b81526001600160a01b03851660048201526024016115fb565b505050505050565b6009546040517fdd93da430000000000000000000000000000000000000000000000000000000081526001600160a01b038481166004830152600092839291169063dd93da4390602401600060405180830381865afa15801561240a573d6000803e3d6000fd5b505050506040513d6000823e601f3d908101601f191682016040526124329190810190613c76565b60095481516040517f5e8a791500000000000000000000000000000000000000000000000000000000815260048101919091526001600160a01b038681166024830152929350911690635e8a791590604401602060405180830381865afa1580156124a1573d6000803e3d6000fd5b505050506040513d601f19601f820116820180604052508101906124c5919061397f565b949350505050565b60008060006124db846127b2565b600f911c1695945050505050565b60008060006124f7856127b2565b6000928352600b602052604090922095811b600f90911b199091161790935550505050565b60008060008084865af16111415763b12d13eb6000526004601cfd5b81601452806034526fa9059cbb00000000000000000000000060005260206000604460106000875af13d15600160005114171661257d576390b8ec186000526004601cfd5b6000603452505050565b6060600080856001600160a01b0316856040516125a49190613d3d565b600060405180830381855af49150503d80600081146125df576040519150601f19603f3d011682016040523d82523d6000602084013e6125e4565b606091505b50915091506125f586838387612816565b9695505050505050565b600061260a8661188d565b156126175750600061269f565b60408051602081018890526001600160a01b038088169282019290925290851660608201526080810184905260009060a00160408051601f198184030181528282528051602091820120908301520160405160208183030381529060405280519060200120905061268b83600a548361288f565b61269957600091505061269f565b60019150505b95945050505050565b6126b06111d7565b600154156126ea576040517f439a74c900000000000000000000000000000000000000000000000000000000815260040160405180910390fd5b8060000361270b57604051637fcce2a960e01b815260040160405180910390fd5b600155565b60055442600160981b90910467ffffffffffffffff16118061273d575060065467ffffffffffffffff1642115b15611220576040517fb828c90000000000000000000000000000000000000000000000000000000000815260040160405180910390fd5b600061278261010083613a96565b9050600061279261010084613aaa565b6000928352600d60205260409092208054600190931b9092179091555050565b6001600160a01b0381166000908152600c602052604080822054829182919082906127dd9083613a96565b905060006127ec604084613aaa565b6127f7906004613d59565b6000838152600b60205260409020549298909750919550909350505050565b6060831561288557825160000361287e576001600160a01b0385163b61287e5760405162461bcd60e51b815260206004820152601d60248201527f416464726573733a2063616c6c20746f206e6f6e2d636f6e747261637400000060448201526064016115fb565b50816124c5565b6124c583836128a5565b60008261289c85846128cf565b14949350505050565b8151156128b55781518083602001fd5b8060405162461bcd60e51b81526004016115fb9190613d70565b600081815b845181101561291457612900828683815181106128f3576128f3613403565b602002602001015161291c565b91508061290c8161364c565b9150506128d4565b509392505050565b60008183106129385760008281526020849052604090206109a3565b60008381526020839052604090206109a3565b604051806060016040528060001515815260200160006001600160a01b0316815260200161298c604051806040016040528060008152602001606081525090565b905290565b6001600160a01b03811681146111d457600080fd5b6000602082840312156129b857600080fd5b81356129c381612991565b9392505050565b634e487b7160e01b600052604160045260246000fd5b6040805190810167ffffffffffffffff81118282101715612a0357612a036129ca565b60405290565b60405160c0810167ffffffffffffffff81118282101715612a0357612a036129ca565b60405160e0810167ffffffffffffffff81118282101715612a0357612a036129ca565b6040516080810167ffffffffffffffff81118282101715612a0357612a036129ca565b6040516060810167ffffffffffffffff81118282101715612a0357612a036129ca565b604051601f8201601f1916810167ffffffffffffffff81118282101715612abe57612abe6129ca565b604052919050565b600067ffffffffffffffff821115612ae057612ae06129ca565b5060051b60200190565b600082601f830112612afb57600080fd5b81356020612b10612b0b83612ac6565b612a95565b82815260059290921b84018101918181019086841115612b2f57600080fd5b8286015b84811015612b53578035612b4681612991565b8352918301918301612b33565b509695505050505050565b600067ffffffffffffffff821115612b7857612b786129ca565b50601f01601f191660200190565b6000612b94612b0b84612b5e565b9050828152838383011115612ba857600080fd5b828260208301376000602084830101529392505050565b600082601f830112612bd057600080fd5b6109a383833560208501612b86565b600080600060608486031215612bf457600080fd5b833567ffffffffffffffff80821115612c0c57600080fd5b612c1887838801612aea565b94506020860135915080821115612c2e57600080fd5b50612c3b86828701612bbf565b9250506040840135612c4c81612991565b809150509250925092565b67ffffffffffffffff811681146111d457600080fd5b60008060008060808587031215612c8357600080fd5b8435612c8e81612c57565b93506020850135612c9e81612c57565b92506040850135612cae81612c57565b91506060850135612cbe81612c57565b939692955090935050565b60008060408385031215612cdc57600080fd5b823567ffffffffffffffff811115612cf357600080fd5b612cff85828601612bbf565b9250506020830135612d1081612991565b809150509250929050565b600060208284031215612d2d57600080fd5b5035919050565b60008060408385031215612d4757600080fd5b8235612d5281612991565b91506020830135612d1081612991565b60006020808385031215612d7557600080fd5b823567ffffffffffffffff811115612d8c57600080fd5b8301601f81018513612d9d57600080fd5b8035612dab612b0b82612ac6565b81815260069190911b82018301908381019087831115612dca57600080fd5b928401925b82841015612e0d5760408489031215612de85760008081fd5b612df06129e0565b843581528585013586820152825260409093019290840190612dcf565b979650505050505050565b60005b83811015612e33578181015183820152602001612e1b565b50506000910152565b60008151808452612e54816020860160208601612e18565b601f01601f19169290920160200192915050565b8281526040602082015260006124c56040830184612e3c565b602081528151151560208201526001600160a01b036020830151166040820152600060408301516060808401528051608084015260208101519050604060a08401526124c560c0840182612e3c565b60008060408385031215612ee357600080fd5b82359150602083013567ffffffffffffffff80821115612f0257600080fd5b9084019060408287031215612f1657600080fd5b612f1e6129e0565b82358152602083013582811115612f3457600080fd5b80840193505086601f840112612f4957600080fd5b612f5887843560208601612b86565b60208201528093505050509250929050565b60008060208385031215612f7d57600080fd5b823567ffffffffffffffff80821115612f9557600080fd5b818501915085601f830112612fa957600080fd5b813581811115612fb857600080fd5b8660208260051b8501011115612fcd57600080fd5b60209290920196919550909350505050565b6000602080830181845280855180835260408601915060408160051b870101925083870160005b8281101561303457603f19888603018452613022858351612e3c565b94509285019290850190600101613006565b5092979650505050505050565b6000806040838503121561305457600080fd5b823567ffffffffffffffff8082111561306c57600080fd5b61307886838701612aea565b935060209150818501358181111561308f57600080fd5b8501601f810187136130a057600080fd5b80356130ae612b0b82612ac6565b81815260059190911b820184019084810190898311156130cd57600080fd5b8584015b83811015613105578035868111156130e95760008081fd5b6130f78c8983890101612bbf565b8452509186019186016130d1565b508096505050505050509250929050565b602080825282518282018190526000919060409081850190868401855b828110156131695761315984835180516001600160a01b03168252602090810151910152565b9284019290850190600101613133565b5091979650505050505050565b6000806020838503121561318957600080fd5b823567ffffffffffffffff808211156131a157600080fd5b818501915085601f8301126131b557600080fd5b8135818111156131c457600080fd5b8660208260061b8501011115612fcd57600080fd5b634e487b7160e01b600052602160045260246000fd5b602081016007831061321157634e487b7160e01b600052602160045260246000fd5b91905290565b6000806040838503121561322a57600080fd5b82359150602083013567ffffffffffffffff81111561324857600080fd5b61325485828601612bbf565b9150509250929050565b634e487b7160e01b600052601160045260246000fd5b67ffffffffffffffff818116838216019080821115610de657610de661325e565b80516132a081612991565b919050565b600082601f8301126132b657600080fd5b81516132c4612b0b82612b5e565b8181528460208386010111156132d957600080fd5b6124c5826020830160208701612e18565b6000604082840312156132fc57600080fd5b6133046129e0565b905081518152602082015167ffffffffffffffff81111561332457600080fd5b613330848285016132a5565b60208301525092915050565b60006020828403121561334e57600080fd5b815167ffffffffffffffff8082111561336657600080fd5b9083019060c0828603121561337a57600080fd5b613382612a09565b82518152602083015161339481612991565b602082015260408301516133a781612991565b60408201526060830151828111156133be57600080fd5b6133ca878286016132ea565b6060830152506080830151608082015260a083015160a082015280935050505092915050565b818103818111156109a6576109a661325e565b634e487b7160e01b600052603260045260246000fd5b600181811c9082168061342d57607f821691505b60208210810361344d57634e487b7160e01b600052602260045260246000fd5b50919050565b601f82111561086857600081815260208120601f850160051c8101602086101561347a5750805b601f850160051c820191505b8181101561239b57828155600101613486565b815167ffffffffffffffff8111156134b3576134b36129ca565b6134c7816134c18454613419565b84613453565b602080601f8311600181146134fc57600084156134e45750858301515b600019600386901b1c1916600185901b17855561239b565b600085815260208120601f198616915b8281101561352b5788860151825594840194600190910190840161350c565b50858210156135495787850151600019600388901b60f8161c191681555b5050505050600190811b01905550565b82815260006020604081840152835460408401526001808501604060608601526000815461358681613419565b80608089015260a0858316600081146135a657600181146135c0576135ee565b60ff1984168a83015282151560051b8a01820194506135ee565b856000528760002060005b848110156135e65781548c82018501529088019089016135cb565b8b0183019550505b50929a9950505050505050505050565b6000808335601e1984360301811261361557600080fd5b83018035915067ffffffffffffffff82111561363057600080fd5b60200191503681900382131561364557600080fd5b9250929050565b60006001820161365e5761365e61325e565b5060010190565b60006040828403121561367757600080fd5b61367f6129e0565b823561368a81612991565b8152602083013561369a81612991565b60208201529392505050565b805180151581146132a057600080fd5b80516132a081612c57565b600082601f8301126136d257600080fd5b815160206136e2612b0b83612ac6565b82815260059290921b8401810191818101908684111561370157600080fd5b8286015b84811015612b5357805161371881612991565b8352918301918301613705565b60006020828403121561373757600080fd5b815167ffffffffffffffff8082111561374f57600080fd5b9083019060e0828603121561376357600080fd5b61376b612a2c565b613774836136a6565b8152613782602084016136a6565b6020820152613793604084016136b6565b60408201526137a4606084016136b6565b60608201526137b5608084016136b6565b60808201526137c660a084016136b6565b60a082015260c0830151828111156137dd57600080fd5b6137e9878286016136c1565b60c08301525095945050505050565b808201808211156109a6576109a661325e565b60006080828403121561381d57600080fd5b613825612a4f565b90508151815260208083015161383a81612991565b8282015260408381015190830152606083015167ffffffffffffffff81111561386257600080fd5b8301601f8101851361387357600080fd5b8051613881612b0b82612ac6565b81815260059190911b820183019083810190878311156138a057600080fd5b928401925b828410156138be578351825292840192908401906138a5565b6060860152509295945050505050565b600060208083850312156138e157600080fd5b825167ffffffffffffffff808211156138f957600080fd5b818501915085601f83011261390d57600080fd5b815161391b612b0b82612ac6565b81815260059190911b8301840190848101908883111561393a57600080fd5b8585015b83811015613972578051858111156139565760008081fd5b6139648b89838a010161380b565b84525091860191860161393e565b5098975050505050505050565b60006020828403121561399157600080fd5b6109a3826136a6565b6000806000606084860312156139af57600080fd5b83516139ba81612991565b60208501519093506139cb81612991565b604085015190925067ffffffffffffffff8111156139e857600080fd5b6139f4868287016132ea565b9150509250925092565b604081526000613a116040830185612e3c565b90508260208301529392505050565b604081526000613a336040830185612e3c565b90506001600160a01b03831660208301529392505050565b606081526000613a5e6060830186612e3c565b90506001600160a01b038416602083015260ff83166040830152949350505050565b634e487b7160e01b600052601260045260246000fd5b600082613aa557613aa5613a80565b500490565b600082613ab957613ab9613a80565b500690565b600060208284031215613ad057600080fd5b815167ffffffffffffffff811115613ae757600080fd5b6124c58482850161380b565b600060208284031215613b0557600080fd5b81516129c381612991565b60008060408385031215613b2357600080fd5b8251613b2e81612991565b602084015190925067ffffffffffffffff80821115613b4c57600080fd5b9084019081860360a0811215613b6157600080fd5b613b696129e0565b6080821215613b7757600080fd5b613b7f612a72565b6040831215613b8d57600080fd5b613b956129e0565b92508451613ba281612991565b80845250602085015160208401528281526040850151602082015260608501516040820152808252506080840151915082821115613bdf57600080fd5b613beb888386016132a5565b6020820152809450505050509250929050565b6000610100613c2183885180516001600160a01b03168252602090810151910152565b6020870151604084015260408701516060840152613c55608084018780516001600160a01b03168252602090810151910152565b6001600160a01b03851660c08401528060e0840152612e0d81840185612e3c565b600060208284031215613c8857600080fd5b815167ffffffffffffffff80821115613ca057600080fd5b9083019060c08286031215613cb457600080fd5b613cbc612a09565b8251815260208301516020820152604083015182811115613cdc57600080fd5b613ce8878286016132a5565b604083015250606083015182811115613d0057600080fd5b613d0c878286016132ea565b606083015250613d1e60808401613295565b6080820152613d2f60a08401613295565b60a082015295945050505050565b60008251613d4f818460208701612e18565b9190910192915050565b80820281158282048414176109a6576109a661325e565b6020815260006109a36020830184612e3c56fe416464726573733a206c6f772d6c6576656c2064656c65676174652063616c6c206661696c6564a26469706673582212202ad3e84317245fcf326166ece9eda157c835c07826c6b707027f5c9c8dd2baab64736f6c63430008130033",
    "linkReferences": {}
  },
  "methodIdentifiers": {
    "NATIVE()": "a0cf0aea",
    "PERMIT2()": "6afdd850",
    "allocate(bytes,address)": "ef2920fc",
    "allocationEndTime()": "4533d678",
    "allocationStartTime()": "d2e17f59",
    "allowedTokens(address)": "e744092e",
    "claim((address,address)[])": "d2683937",
    "claims(address,address)": "3f733c6b",
    "distribute(address[],bytes,address)": "0a6f0ee9",
    "distributionMetadata()": "59a3977b",
    "distributionStarted()": "21755088",
    "getAllo()": "15cc481e",
    "getPayouts(address[],bytes[])": "b2b878d0",
    "getPoolAmount()": "4ab4ba42",
    "getPoolId()": "38fff2d0",
    "getRecipient(address)": "62812a39",
    "getRecipientStatus(address)": "eb11af93",
    "getStrategyId()": "42fda9c7",
    "hasBeenDistributed(uint256)": "5f1b55f3",
    "increasePoolAmount(uint256)": "f5b0dfb7",
    "initialize(uint256,bytes)": "edd146cc",
    "isDistributionSet()": "2d52eff2",
    "isPoolActive()": "df868ed3",
    "isValidAllocator(address)": "4d31d087",
    "merkleRoot()": "2eb4a7ab",
    "metadataRequired()": "cb0e85a6",
    "multicall(bytes[])": "ac9650d8",
    "recipientToStatusIndexes(address)": "01fc1c64",
    "recipientsCounter()": "95355b3b",
    "registerRecipient(bytes,address)": "2bbe0cae",
    "registrationEndTime()": "dff7d2c7",
    "registrationStartTime()": "9af5c09d",
    "reviewRecipients((uint256,uint256)[])": "465831cd",
    "statusesBitMap(uint256)": "f6f25891",
    "totalPayoutAmount()": "e7efcfc2",
    "updateDistribution(bytes32,(uint256,string))": "73af3453",
    "updatePoolTimestamps(uint64,uint64,uint64,uint64)": "2143e92f",
    "useRegistryAnchor()": "57089739",
    "withdraw(uint256)": "2e1a7d4d"
  },
  "storageLayout": {
    "storage": [
      {
        "astId": 3267,
        "contract": "contracts/strategies/donation-voting-merkle-distribution-vault/DonationVotingMerkleDistributionVaultStrategy.sol:DonationVotingMerkleDistributionVaultStrategy",
        "label": "poolActive",
        "offset": 0,
        "slot": "0",
        "type": "t_bool"
      },
      {
        "astId": 3269,
        "contract": "contracts/strategies/donation-voting-merkle-distribution-vault/DonationVotingMerkleDistributionVaultStrategy.sol:DonationVotingMerkleDistributionVaultStrategy",
        "label": "poolId",
        "offset": 0,
        "slot": "1",
        "type": "t_uint256"
      },
      {
        "astId": 3271,
        "contract": "contracts/strategies/donation-voting-merkle-distribution-vault/DonationVotingMerkleDistributionVaultStrategy.sol:DonationVotingMerkleDistributionVaultStrategy",
        "label": "poolAmount",
        "offset": 0,
        "slot": "2",
        "type": "t_uint256"
      },
      {
        "astId": 12593,
        "contract": "contracts/strategies/donation-voting-merkle-distribution-vault/DonationVotingMerkleDistributionVaultStrategy.sol:DonationVotingMerkleDistributionVaultStrategy",
        "label": "distributionMetadata",
        "offset": 0,
        "slot": "3",
        "type": "t_struct(Metadata)2922_storage"
      },
      {
        "astId": 12596,
        "contract": "contracts/strategies/donation-voting-merkle-distribution-vault/DonationVotingMerkleDistributionVaultStrategy.sol:DonationVotingMerkleDistributionVaultStrategy",
        "label": "useRegistryAnchor",
        "offset": 0,
        "slot": "5",
        "type": "t_bool"
      },
      {
        "astId": 12599,
        "contract": "contracts/strategies/donation-voting-merkle-distribution-vault/DonationVotingMerkleDistributionVaultStrategy.sol:DonationVotingMerkleDistributionVaultStrategy",
        "label": "metadataRequired",
        "offset": 1,
        "slot": "5",
        "type": "t_bool"
      },
      {
        "astId": 12602,
        "contract": "contracts/strategies/donation-voting-merkle-distribution-vault/DonationVotingMerkleDistributionVaultStrategy.sol:DonationVotingMerkleDistributionVaultStrategy",
        "label": "distributionStarted",
        "offset": 2,
        "slot": "5",
        "type": "t_bool"
      },
      {
        "astId": 12605,
        "contract": "contracts/strategies/donation-voting-merkle-distribution-vault/DonationVotingMerkleDistributionVaultStrategy.sol:DonationVotingMerkleDistributionVaultStrategy",
        "label": "registrationStartTime",
        "offset": 3,
        "slot": "5",
        "type": "t_uint64"
      },
      {
        "astId": 12607,
        "contract": "contracts/strategies/donation-voting-merkle-distribution-vault/DonationVotingMerkleDistributionVaultStrategy.sol:DonationVotingMerkleDistributionVaultStrategy",
        "label": "registrationEndTime",
        "offset": 11,
        "slot": "5",
        "type": "t_uint64"
      },
      {
        "astId": 12609,
        "contract": "contracts/strategies/donation-voting-merkle-distribution-vault/DonationVotingMerkleDistributionVaultStrategy.sol:DonationVotingMerkleDistributionVaultStrategy",
        "label": "allocationStartTime",
        "offset": 19,
        "slot": "5",
        "type": "t_uint64"
      },
      {
        "astId": 12611,
        "contract": "contracts/strategies/donation-voting-merkle-distribution-vault/DonationVotingMerkleDistributionVaultStrategy.sol:DonationVotingMerkleDistributionVaultStrategy",
        "label": "allocationEndTime",
        "offset": 0,
        "slot": "6",
        "type": "t_uint64"
      },
      {
        "astId": 12614,
        "contract": "contracts/strategies/donation-voting-merkle-distribution-vault/DonationVotingMerkleDistributionVaultStrategy.sol:DonationVotingMerkleDistributionVaultStrategy",
        "label": "totalPayoutAmount",
        "offset": 0,
        "slot": "7",
        "type": "t_uint256"
      },
      {
        "astId": 12617,
        "contract": "contracts/strategies/donation-voting-merkle-distribution-vault/DonationVotingMerkleDistributionVaultStrategy.sol:DonationVotingMerkleDistributionVaultStrategy",
        "label": "recipientsCounter",
        "offset": 0,
        "slot": "8",
        "type": "t_uint256"
      },
      {
        "astId": 12621,
        "contract": "contracts/strategies/donation-voting-merkle-distribution-vault/DonationVotingMerkleDistributionVaultStrategy.sol:DonationVotingMerkleDistributionVaultStrategy",
        "label": "_registry",
        "offset": 0,
        "slot": "9",
        "type": "t_contract(IRegistry)2625"
      },
      {
        "astId": 12628,
        "contract": "contracts/strategies/donation-voting-merkle-distribution-vault/DonationVotingMerkleDistributionVaultStrategy.sol:DonationVotingMerkleDistributionVaultStrategy",
        "label": "merkleRoot",
        "offset": 0,
        "slot": "10",
        "type": "t_bytes32"
      },
      {
        "astId": 12633,
        "contract": "contracts/strategies/donation-voting-merkle-distribution-vault/DonationVotingMerkleDistributionVaultStrategy.sol:DonationVotingMerkleDistributionVaultStrategy",
        "label": "statusesBitMap",
        "offset": 0,
        "slot": "11",
        "type": "t_mapping(t_uint256,t_uint256)"
      },
      {
        "astId": 12638,
        "contract": "contracts/strategies/donation-voting-merkle-distribution-vault/DonationVotingMerkleDistributionVaultStrategy.sol:DonationVotingMerkleDistributionVaultStrategy",
        "label": "recipientToStatusIndexes",
        "offset": 0,
        "slot": "12",
        "type": "t_mapping(t_address,t_uint256)"
      },
      {
        "astId": 12643,
        "contract": "contracts/strategies/donation-voting-merkle-distribution-vault/DonationVotingMerkleDistributionVaultStrategy.sol:DonationVotingMerkleDistributionVaultStrategy",
        "label": "distributedBitMap",
        "offset": 0,
        "slot": "13",
        "type": "t_mapping(t_uint256,t_uint256)"
      },
      {
        "astId": 12648,
        "contract": "contracts/strategies/donation-voting-merkle-distribution-vault/DonationVotingMerkleDistributionVaultStrategy.sol:DonationVotingMerkleDistributionVaultStrategy",
        "label": "allowedTokens",
        "offset": 0,
        "slot": "14",
        "type": "t_mapping(t_address,t_bool)"
      },
      {
        "astId": 12654,
        "contract": "contracts/strategies/donation-voting-merkle-distribution-vault/DonationVotingMerkleDistributionVaultStrategy.sol:DonationVotingMerkleDistributionVaultStrategy",
        "label": "_recipients",
        "offset": 0,
        "slot": "15",
        "type": "t_mapping(t_address,t_struct(Recipient)12500_storage)"
      },
      {
        "astId": 61049,
        "contract": "contracts/strategies/donation-voting-merkle-distribution-vault/DonationVotingMerkleDistributionVaultStrategy.sol:DonationVotingMerkleDistributionVaultStrategy",
        "label": "_initialized",
        "offset": 0,
        "slot": "16",
        "type": "t_uint8"
      },
      {
        "astId": 61052,
        "contract": "contracts/strategies/donation-voting-merkle-distribution-vault/DonationVotingMerkleDistributionVaultStrategy.sol:DonationVotingMerkleDistributionVaultStrategy",
        "label": "_initializing",
        "offset": 1,
        "slot": "16",
        "type": "t_bool"
      },
      {
        "astId": 61225,
        "contract": "contracts/strategies/donation-voting-merkle-distribution-vault/DonationVotingMerkleDistributionVaultStrategy.sol:DonationVotingMerkleDistributionVaultStrategy",
        "label": "_status",
        "offset": 0,
        "slot": "17",
        "type": "t_uint256"
      },
      {
        "astId": 61294,
        "contract": "contracts/strategies/donation-voting-merkle-distribution-vault/DonationVotingMerkleDistributionVaultStrategy.sol:DonationVotingMerkleDistributionVaultStrategy",
        "label": "__gap",
        "offset": 0,
        "slot": "18",
        "type": "t_array(t_uint256)49_storage"
      },
      {
        "astId": 14226,
        "contract": "contracts/strategies/donation-voting-merkle-distribution-vault/DonationVotingMerkleDistributionVaultStrategy.sol:DonationVotingMerkleDistributionVaultStrategy",
        "label": "claims",
        "offset": 0,
        "slot": "67",
        "type": "t_mapping(t_address,t_mapping(t_address,t_uint256))"
      }
    ],
    "types": {
      "t_address": {
        "encoding": "inplace",
        "label": "address",
        "numberOfBytes": "20"
      },
      "t_array(t_uint256)49_storage": {
        "encoding": "inplace",
        "label": "uint256[49]",
        "numberOfBytes": "1568",
        "base": "t_uint256"
      },
      "t_bool": {
        "encoding": "inplace",
        "label": "bool",
        "numberOfBytes": "1"
      },
      "t_bytes32": {
        "encoding": "inplace",
        "label": "bytes32",
        "numberOfBytes": "32"
      },
      "t_contract(IRegistry)2625": {
        "encoding": "inplace",
        "label": "contract IRegistry",
        "numberOfBytes": "20"
      },
      "t_mapping(t_address,t_bool)": {
        "encoding": "mapping",
        "key": "t_address",
        "label": "mapping(address => bool)",
        "numberOfBytes": "32",
        "value": "t_bool"
      },
      "t_mapping(t_address,t_mapping(t_address,t_uint256))": {
        "encoding": "mapping",
        "key": "t_address",
        "label": "mapping(address => mapping(address => uint256))",
        "numberOfBytes": "32",
        "value": "t_mapping(t_address,t_uint256)"
      },
      "t_mapping(t_address,t_struct(Recipient)12500_storage)": {
        "encoding": "mapping",
        "key": "t_address",
        "label": "mapping(address => struct DonationVotingMerkleDistributionBaseStrategy.Recipient)",
        "numberOfBytes": "32",
        "value": "t_struct(Recipient)12500_storage"
      },
      "t_mapping(t_address,t_uint256)": {
        "encoding": "mapping",
        "key": "t_address",
        "label": "mapping(address => uint256)",
        "numberOfBytes": "32",
        "value": "t_uint256"
      },
      "t_mapping(t_uint256,t_uint256)": {
        "encoding": "mapping",
        "key": "t_uint256",
        "label": "mapping(uint256 => uint256)",
        "numberOfBytes": "32",
        "value": "t_uint256"
      },
      "t_string_storage": {
        "encoding": "bytes",
        "label": "string",
        "numberOfBytes": "32"
      },
      "t_struct(Metadata)2922_storage": {
        "encoding": "inplace",
        "label": "struct Metadata",
        "numberOfBytes": "64",
        "members": [
          {
            "astId": 2918,
            "contract": "contracts/strategies/donation-voting-merkle-distribution-vault/DonationVotingMerkleDistributionVaultStrategy.sol:DonationVotingMerkleDistributionVaultStrategy",
            "label": "protocol",
            "offset": 0,
            "slot": "0",
            "type": "t_uint256"
          },
          {
            "astId": 2921,
            "contract": "contracts/strategies/donation-voting-merkle-distribution-vault/DonationVotingMerkleDistributionVaultStrategy.sol:DonationVotingMerkleDistributionVaultStrategy",
            "label": "pointer",
            "offset": 0,
            "slot": "1",
            "type": "t_string_storage"
          }
        ]
      },
      "t_struct(Recipient)12500_storage": {
        "encoding": "inplace",
        "label": "struct DonationVotingMerkleDistributionBaseStrategy.Recipient",
        "numberOfBytes": "96",
        "members": [
          {
            "astId": 12494,
            "contract": "contracts/strategies/donation-voting-merkle-distribution-vault/DonationVotingMerkleDistributionVaultStrategy.sol:DonationVotingMerkleDistributionVaultStrategy",
            "label": "useRegistryAnchor",
            "offset": 0,
            "slot": "0",
            "type": "t_bool"
          },
          {
            "astId": 12496,
            "contract": "contracts/strategies/donation-voting-merkle-distribution-vault/DonationVotingMerkleDistributionVaultStrategy.sol:DonationVotingMerkleDistributionVaultStrategy",
            "label": "recipientAddress",
            "offset": 1,
            "slot": "0",
            "type": "t_address"
          },
          {
            "astId": 12499,
            "contract": "contracts/strategies/donation-voting-merkle-distribution-vault/DonationVotingMerkleDistributionVaultStrategy.sol:DonationVotingMerkleDistributionVaultStrategy",
            "label": "metadata",
            "offset": 0,
            "slot": "1",
            "type": "t_struct(Metadata)2922_storage"
          }
        ]
      },
      "t_uint256": {
        "encoding": "inplace",
        "label": "uint256",
        "numberOfBytes": "32"
      },
      "t_uint64": {
        "encoding": "inplace",
        "label": "uint64",
        "numberOfBytes": "8"
      },
      "t_uint8": {
        "encoding": "inplace",
        "label": "uint8",
        "numberOfBytes": "1"
      }
    }
  },
  "id": 29
}