{
  "abi": [
    {
      "inputs": [],
      "name": "lastWeek",
      "outputs": [
        {
          "internalType": "uint256",
          "name": "",
          "type": "uint256"
        }
      ],
      "stateMutability": "view",
      "type": "function"
    },
    {
      "inputs": [],
      "name": "nextWeek",
      "outputs": [
        {
          "internalType": "uint256",
          "name": "",
          "type": "uint256"
        }
      ],
      "stateMutability": "view",
      "type": "function"
    },
    {
      "inputs": [],
      "name": "oneDayInSeconds",
      "outputs": [
        {
          "internalType": "uint256",
          "name": "",
          "type": "uint256"
        }
      ],
      "stateMutability": "view",
      "type": "function"
    },
    {
      "inputs": [],
      "name": "oneMonthFromNow",
      "outputs": [
        {
          "internalType": "uint256",
          "name": "",
          "type": "uint256"
        }
      ],
      "stateMutability": "view",
      "type": "function"
    },
    {
      "inputs": [],
      "name": "today",
      "outputs": [
        {
          "internalType": "uint256",
          "name": "",
          "type": "uint256"
        }
      ],
      "stateMutability": "view",
      "type": "function"
    },
    {
      "inputs": [],
      "name": "tomorrow",
      "outputs": [
        {
          "internalType": "uint256",
          "name": "",
          "type": "uint256"
        }
      ],
      "stateMutability": "view",
      "type": "function"
    },
    {
      "inputs": [],
      "name": "weekAfterNext",
      "outputs": [
        {
          "internalType": "uint256",
          "name": "",
          "type": "uint256"
        }
      ],
      "stateMutability": "view",
      "type": "function"
    },
    {
      "inputs": [],
      "name": "yesterday",
      "outputs": [
        {
          "internalType": "uint256",
          "name": "",
          "type": "uint256"
        }
      ],
      "stateMutability": "view",
      "type": "function"
    }
  ],
  "bytecode": {
    "object": "0x608060405262015180600881905561001890600761008b565b60095542600a55600954600a5461002f91906100a8565b600b55600854600a5461004291906100a8565b600c5560095461005390600261008b565b600a5461006091906100a8565b600d5534801561006f57600080fd5b506100bb565b634e487b7160e01b600052601160045260246000fd5b80820281158282048414176100a2576100a2610075565b92915050565b808201808211156100a2576100a2610075565b610203806100ca6000396000f3fe608060405234801561001057600080fd5b50600436106100885760003560e01c8063c9666d431161005b578063c9666d43146100bf578063da3e24f9146100c7578063fe256cef146100cf578063fec09214146100d757600080fd5b806307cd851e1461008d578063401d92b0146100a7578063634cae0e146100af578063b74e452b146100b7575b600080fd5b6100956100df565b60405190815260200160405180910390f35b600854610095565b6100956100f6565b600a54610095565b610095610108565b610095610126565b610095610138565b610095610149565b6000600854600a546100f1919061018a565b905090565b6000600954600a546100f191906101a3565b6000600954600461011991906101b6565b600a546100f1919061018a565b6000600954600a546100f1919061018a565b6000600954600261011991906101b6565b6000600854600a546100f191906101a3565b7f4e487b7100000000000000000000000000000000000000000000000000000000600052601160045260246000fd5b8082018082111561019d5761019d61015b565b92915050565b8181038181111561019d5761019d61015b565b808202811582820484141761019d5761019d61015b56fea2646970667358221220a22a195bf9bb8a2d63080eed0e9449a4e0eaa9264c96ca2226743b381b4915ee64736f6c63430008130033",
    "linkReferences": {}
  },
  "methodIdentifiers": {
    "lastWeek()": "634cae0e",
    "nextWeek()": "da3e24f9",
    "oneDayInSeconds()": "401d92b0",
    "oneMonthFromNow()": "c9666d43",
    "today()": "b74e452b",
    "tomorrow()": "07cd851e",
    "weekAfterNext()": "fe256cef",
    "yesterday()": "fec09214"
  },
  "storageLayout": {
    "storage": [
      {
        "astId": 22101,
        "contract": "test/foundry/shared/Time.sol:Time",
        "label": "gasMeteringOff",
        "offset": 0,
        "slot": "0",
        "type": "t_bool"
      },
      {
        "astId": 24138,
        "contract": "test/foundry/shared/Time.sol:Time",
        "label": "stdstore",
        "offset": 0,
        "slot": "1",
        "type": "t_struct(StdStorage)25997_storage"
      },
      {
        "astId": 84329,
        "contract": "test/foundry/shared/Time.sol:Time",
        "label": "_oneDayInSeconds",
        "offset": 0,
        "slot": "8",
        "type": "t_uint256"
      },
      {
        "astId": 84334,
        "contract": "test/foundry/shared/Time.sol:Time",
        "label": "_oneWeekInSeconds",
        "offset": 0,
        "slot": "9",
        "type": "t_uint256"
      },
      {
        "astId": 84338,
        "contract": "test/foundry/shared/Time.sol:Time",
        "label": "_today",
        "offset": 0,
        "slot": "10",
        "type": "t_uint256"
      },
      {
        "astId": 84343,
        "contract": "test/foundry/shared/Time.sol:Time",
        "label": "_nextWeek",
        "offset": 0,
        "slot": "11",
        "type": "t_uint256"
      },
      {
        "astId": 84348,
        "contract": "test/foundry/shared/Time.sol:Time",
        "label": "_tomorrow",
        "offset": 0,
        "slot": "12",
        "type": "t_uint256"
      },
      {
        "astId": 84355,
        "contract": "test/foundry/shared/Time.sol:Time",
        "label": "_weekAfterNext",
        "offset": 0,
        "slot": "13",
        "type": "t_uint256"
      }
    ],
    "types": {
      "t_address": {
        "encoding": "inplace",
        "label": "address",
        "numberOfBytes": "20"
      },
      "t_array(t_bytes32)dyn_storage": {
        "encoding": "dynamic_array",
        "label": "bytes32[]",
        "numberOfBytes": "32",
        "base": "t_bytes32"
      },
      "t_bool": {
        "encoding": "inplace",
        "label": "bool",
        "numberOfBytes": "1"
      },
      "t_bytes32": {
        "encoding": "inplace",
        "label": "bytes32",
        "numberOfBytes": "32"
      },
      "t_bytes4": {
        "encoding": "inplace",
        "label": "bytes4",
        "numberOfBytes": "4"
      },
      "t_mapping(t_address,t_mapping(t_bytes4,t_mapping(t_bytes32,t_bool)))": {
        "encoding": "mapping",
        "key": "t_address",
        "label": "mapping(address => mapping(bytes4 => mapping(bytes32 => bool)))",
        "numberOfBytes": "32",
        "value": "t_mapping(t_bytes4,t_mapping(t_bytes32,t_bool))"
      },
      "t_mapping(t_address,t_mapping(t_bytes4,t_mapping(t_bytes32,t_uint256)))": {
        "encoding": "mapping",
        "key": "t_address",
        "label": "mapping(address => mapping(bytes4 => mapping(bytes32 => uint256)))",
        "numberOfBytes": "32",
        "value": "t_mapping(t_bytes4,t_mapping(t_bytes32,t_uint256))"
      },
      "t_mapping(t_bytes32,t_bool)": {
        "encoding": "mapping",
        "key": "t_bytes32",
        "label": "mapping(bytes32 => bool)",
        "numberOfBytes": "32",
        "value": "t_bool"
      },
      "t_mapping(t_bytes32,t_uint256)": {
        "encoding": "mapping",
        "key": "t_bytes32",
        "label": "mapping(bytes32 => uint256)",
        "numberOfBytes": "32",
        "value": "t_uint256"
      },
      "t_mapping(t_bytes4,t_mapping(t_bytes32,t_bool))": {
        "encoding": "mapping",
        "key": "t_bytes4",
        "label": "mapping(bytes4 => mapping(bytes32 => bool))",
        "numberOfBytes": "32",
        "value": "t_mapping(t_bytes32,t_bool)"
      },
      "t_mapping(t_bytes4,t_mapping(t_bytes32,t_uint256))": {
        "encoding": "mapping",
        "key": "t_bytes4",
        "label": "mapping(bytes4 => mapping(bytes32 => uint256))",
        "numberOfBytes": "32",
        "value": "t_mapping(t_bytes32,t_uint256)"
      },
      "t_struct(StdStorage)25997_storage": {
        "encoding": "inplace",
        "label": "struct StdStorage",
        "numberOfBytes": "224",
        "members": [
          {
            "astId": 25977,
            "contract": "test/foundry/shared/Time.sol:Time",
            "label": "slots",
            "offset": 0,
            "slot": "0",
            "type": "t_mapping(t_address,t_mapping(t_bytes4,t_mapping(t_bytes32,t_uint256)))"
          },
          {
            "astId": 25985,
            "contract": "test/foundry/shared/Time.sol:Time",
            "label": "finds",
            "offset": 0,
            "slot": "1",
            "type": "t_mapping(t_address,t_mapping(t_bytes4,t_mapping(t_bytes32,t_bool)))"
          },
          {
            "astId": 25988,
            "contract": "test/foundry/shared/Time.sol:Time",
            "label": "_keys",
            "offset": 0,
            "slot": "2",
            "type": "t_array(t_bytes32)dyn_storage"
          },
          {
            "astId": 25990,
            "contract": "test/foundry/shared/Time.sol:Time",
            "label": "_sig",
            "offset": 0,
            "slot": "3",
            "type": "t_bytes4"
          },
          {
            "astId": 25992,
            "contract": "test/foundry/shared/Time.sol:Time",
            "label": "_depth",
            "offset": 0,
            "slot": "4",
            "type": "t_uint256"
          },
          {
            "astId": 25994,
            "contract": "test/foundry/shared/Time.sol:Time",
            "label": "_target",
            "offset": 0,
            "slot": "5",
            "type": "t_address"
          },
          {
            "astId": 25996,
            "contract": "test/foundry/shared/Time.sol:Time",
            "label": "_set",
            "offset": 0,
            "slot": "6",
            "type": "t_bytes32"
          }
        ]
      },
      "t_uint256": {
        "encoding": "inplace",
        "label": "uint256",
        "numberOfBytes": "32"
      }
    }
  },
  "id": 150
}