{
  "abi": [
    {
      "inputs": [
        {
          "internalType": "address",
          "name": "_allo",
          "type": "address"
        },
        {
          "internalType": "string",
          "name": "_name",
          "type": "string"
        }
      ],
      "stateMutability": "nonpayable",
      "type": "constructor"
    },
    {
      "inputs": [],
      "name": "ALLOCATION_ACTIVE",
      "type": "error"
    },
    {
      "inputs": [],
      "name": "ALLOCATION_NOT_ACTIVE",
      "type": "error"
    },
    {
      "inputs": [],
      "name": "ALLOCATION_NOT_ENDED",
      "type": "error"
    },
    {
      "inputs": [],
      "name": "ALREADY_INITIALIZED",
      "type": "error"
    },
    {
      "inputs": [],
      "name": "AMOUNT_MISMATCH",
      "type": "error"
    },
    {
      "inputs": [],
      "name": "ANCHOR_ERROR",
      "type": "error"
    },
    {
      "inputs": [],
      "name": "ARRAY_MISMATCH",
      "type": "error"
    },
    {
      "inputs": [],
      "name": "INVALID",
      "type": "error"
    },
    {
      "inputs": [],
      "name": "INVALID_ADDRESS",
      "type": "error"
    },
    {
      "inputs": [],
      "name": "INVALID_FEE",
      "type": "error"
    },
    {
      "inputs": [],
      "name": "INVALID_METADATA",
      "type": "error"
    },
    {
      "inputs": [],
      "name": "INVALID_REGISTRATION",
      "type": "error"
    },
    {
      "inputs": [],
      "name": "IS_APPROVED_STRATEGY",
      "type": "error"
    },
    {
      "inputs": [],
      "name": "MAX_REACHED",
      "type": "error"
    },
    {
      "inputs": [],
      "name": "MISMATCH",
      "type": "error"
    },
    {
      "inputs": [],
      "name": "NONCE_NOT_AVAILABLE",
      "type": "error"
    },
    {
      "inputs": [],
      "name": "NOT_APPROVED_STRATEGY",
      "type": "error"
    },
    {
      "inputs": [],
      "name": "NOT_ENOUGH_FUNDS",
      "type": "error"
    },
    {
      "inputs": [],
      "name": "NOT_INITIALIZED",
      "type": "error"
    },
    {
      "inputs": [],
      "name": "NOT_PENDING_OWNER",
      "type": "error"
    },
    {
      "inputs": [],
      "name": "POOL_ACTIVE",
      "type": "error"
    },
    {
      "inputs": [],
      "name": "POOL_INACTIVE",
      "type": "error"
    },
    {
      "inputs": [],
      "name": "RECIPIENT_ALREADY_ACCEPTED",
      "type": "error"
    },
    {
      "inputs": [
        {
          "internalType": "address",
          "name": "recipientId",
          "type": "address"
        }
      ],
      "name": "RECIPIENT_ERROR",
      "type": "error"
    },
    {
      "inputs": [],
      "name": "RECIPIENT_NOT_ACCEPTED",
      "type": "error"
    },
    {
      "inputs": [],
      "name": "REGISTRATION_NOT_ACTIVE",
      "type": "error"
    },
    {
      "inputs": [],
      "name": "UNAUTHORIZED",
      "type": "error"
    },
    {
      "inputs": [],
      "name": "ZERO_ADDRESS",
      "type": "error"
    },
    {
      "anonymous": false,
      "inputs": [
        {
          "indexed": true,
          "internalType": "address",
          "name": "recipientId",
          "type": "address"
        },
        {
          "indexed": false,
          "internalType": "uint256",
          "name": "amount",
          "type": "uint256"
        },
        {
          "indexed": false,
          "internalType": "address",
          "name": "token",
          "type": "address"
        },
        {
          "indexed": false,
          "internalType": "address",
          "name": "sender",
          "type": "address"
        }
      ],
      "name": "Allocated",
      "type": "event"
    },
    {
      "anonymous": false,
      "inputs": [
        {
          "indexed": false,
          "internalType": "uint256",
          "name": "startTime",
          "type": "uint256"
        },
        {
          "indexed": false,
          "internalType": "uint256",
          "name": "endTime",
          "type": "uint256"
        }
      ],
      "name": "AllocationTimeSet",
      "type": "event"
    },
    {
      "anonymous": false,
      "inputs": [
        {
          "indexed": true,
          "internalType": "address",
          "name": "recipientId",
          "type": "address"
        },
        {
          "indexed": false,
          "internalType": "address",
          "name": "recipientAddress",
          "type": "address"
        },
        {
          "indexed": false,
          "internalType": "uint256",
          "name": "amount",
          "type": "uint256"
        },
        {
          "indexed": false,
          "internalType": "address",
          "name": "sender",
          "type": "address"
        }
      ],
      "name": "Distributed",
      "type": "event"
    },
    {
      "anonymous": false,
      "inputs": [
        {
          "indexed": false,
          "internalType": "address",
          "name": "allo",
          "type": "address"
        },
        {
          "indexed": false,
          "internalType": "bytes32",
          "name": "profileId",
          "type": "bytes32"
        },
        {
          "indexed": false,
          "internalType": "uint256",
          "name": "poolId",
          "type": "uint256"
        },
        {
          "indexed": false,
          "internalType": "bytes",
          "name": "data",
          "type": "bytes"
        }
      ],
      "name": "Initialized",
      "type": "event"
    },
    {
      "anonymous": false,
      "inputs": [
        {
          "indexed": false,
          "internalType": "bool",
          "name": "active",
          "type": "bool"
        }
      ],
      "name": "PoolActive",
      "type": "event"
    },
    {
      "anonymous": false,
      "inputs": [
        {
          "indexed": true,
          "internalType": "address",
          "name": "recipientId",
          "type": "address"
        },
        {
          "indexed": false,
          "internalType": "bytes",
          "name": "data",
          "type": "bytes"
        },
        {
          "indexed": false,
          "internalType": "address",
          "name": "sender",
          "type": "address"
        }
      ],
      "name": "Registered",
      "type": "event"
    },
    {
      "inputs": [],
      "name": "NATIVE",
      "outputs": [
        {
          "internalType": "address",
          "name": "",
          "type": "address"
        }
      ],
      "stateMutability": "view",
      "type": "function"
    },
    {
      "inputs": [
        {
          "internalType": "bytes",
          "name": "_data",
          "type": "bytes"
        },
        {
          "internalType": "address",
          "name": "_sender",
          "type": "address"
        }
      ],
      "name": "allocate",
      "outputs": [],
      "stateMutability": "payable",
      "type": "function"
    },
    {
      "inputs": [],
      "name": "allocationEndTime",
      "outputs": [
        {
          "internalType": "uint64",
          "name": "",
          "type": "uint64"
        }
      ],
      "stateMutability": "view",
      "type": "function"
    },
    {
      "inputs": [],
      "name": "allocationStartTime",
      "outputs": [
        {
          "internalType": "uint64",
          "name": "",
          "type": "uint64"
        }
      ],
      "stateMutability": "view",
      "type": "function"
    },
    {
      "inputs": [
        {
          "internalType": "address[]",
          "name": "_recipientIds",
          "type": "address[]"
        },
        {
          "internalType": "bytes",
          "name": "_data",
          "type": "bytes"
        },
        {
          "internalType": "address",
          "name": "_sender",
          "type": "address"
        }
      ],
      "name": "distribute",
      "outputs": [],
      "stateMutability": "nonpayable",
      "type": "function"
    },
    {
      "inputs": [],
      "name": "getAllo",
      "outputs": [
        {
          "internalType": "contract IAllo",
          "name": "",
          "type": "address"
        }
      ],
      "stateMutability": "view",
      "type": "function"
    },
    {
      "inputs": [
        {
          "internalType": "address[]",
          "name": "_recipientIds",
          "type": "address[]"
        },
        {
          "internalType": "bytes[]",
          "name": "_data",
          "type": "bytes[]"
        }
      ],
      "name": "getPayouts",
      "outputs": [
        {
          "components": [
            {
              "internalType": "address",
              "name": "recipientAddress",
              "type": "address"
            },
            {
              "internalType": "uint256",
              "name": "amount",
              "type": "uint256"
            }
          ],
          "internalType": "struct IStrategy.PayoutSummary[]",
          "name": "",
          "type": "tuple[]"
        }
      ],
      "stateMutability": "view",
      "type": "function"
    },
    {
      "inputs": [],
      "name": "getPoolAmount",
      "outputs": [
        {
          "internalType": "uint256",
          "name": "",
          "type": "uint256"
        }
      ],
      "stateMutability": "view",
      "type": "function"
    },
    {
      "inputs": [],
      "name": "getPoolId",
      "outputs": [
        {
          "internalType": "uint256",
          "name": "",
          "type": "uint256"
        }
      ],
      "stateMutability": "view",
      "type": "function"
    },
    {
      "inputs": [
        {
          "internalType": "address",
          "name": "_recipientId",
          "type": "address"
        }
      ],
      "name": "getRecipient",
      "outputs": [
        {
          "components": [
            {
              "internalType": "address",
              "name": "recipientAddress",
              "type": "address"
            },
            {
              "components": [
                {
                  "internalType": "uint256",
                  "name": "protocol",
                  "type": "uint256"
                },
                {
                  "internalType": "string",
                  "name": "pointer",
                  "type": "string"
                }
              ],
              "internalType": "struct Metadata",
              "name": "metadata",
              "type": "tuple"
            },
            {
              "internalType": "enum IStrategy.Status",
              "name": "recipientStatus",
              "type": "uint8"
            },
            {
              "internalType": "uint256",
              "name": "totalVotesReceived",
              "type": "uint256"
            }
          ],
          "internalType": "struct ProportionalPayoutStrategy.Recipient",
          "name": "",
          "type": "tuple"
        }
      ],
      "stateMutability": "view",
      "type": "function"
    },
    {
      "inputs": [
        {
          "internalType": "address",
          "name": "_recipientId",
          "type": "address"
        }
      ],
      "name": "getRecipientStatus",
      "outputs": [
        {
          "internalType": "enum IStrategy.Status",
          "name": "",
          "type": "uint8"
        }
      ],
      "stateMutability": "view",
      "type": "function"
    },
    {
      "inputs": [],
      "name": "getStrategyId",
      "outputs": [
        {
          "internalType": "bytes32",
          "name": "",
          "type": "bytes32"
        }
      ],
      "stateMutability": "view",
      "type": "function"
    },
    {
      "inputs": [
        {
          "internalType": "uint256",
          "name": "",
          "type": "uint256"
        }
      ],
      "name": "hasAllocated",
      "outputs": [
        {
          "internalType": "bool",
          "name": "",
          "type": "bool"
        }
      ],
      "stateMutability": "view",
      "type": "function"
    },
    {
      "inputs": [
        {
          "internalType": "uint256",
          "name": "_amount",
          "type": "uint256"
        }
      ],
      "name": "increasePoolAmount",
      "outputs": [],
      "stateMutability": "nonpayable",
      "type": "function"
    },
    {
      "inputs": [
        {
          "internalType": "uint256",
          "name": "_poolId",
          "type": "uint256"
        },
        {
          "internalType": "bytes",
          "name": "_data",
          "type": "bytes"
        }
      ],
      "name": "initialize",
      "outputs": [],
      "stateMutability": "nonpayable",
      "type": "function"
    },
    {
      "inputs": [],
      "name": "isPoolActive",
      "outputs": [
        {
          "internalType": "bool",
          "name": "",
          "type": "bool"
        }
      ],
      "stateMutability": "view",
      "type": "function"
    },
    {
      "inputs": [
        {
          "internalType": "address",
          "name": "_allocator",
          "type": "address"
        }
      ],
      "name": "isValidAllocator",
      "outputs": [
        {
          "internalType": "bool",
          "name": "",
          "type": "bool"
        }
      ],
      "stateMutability": "view",
      "type": "function"
    },
    {
      "inputs": [],
      "name": "maxRecipientsAllowed",
      "outputs": [
        {
          "internalType": "uint256",
          "name": "",
          "type": "uint256"
        }
      ],
      "stateMutability": "view",
      "type": "function"
    },
    {
      "inputs": [],
      "name": "nft",
      "outputs": [
        {
          "internalType": "contract ERC721",
          "name": "",
          "type": "address"
        }
      ],
      "stateMutability": "view",
      "type": "function"
    },
    {
      "inputs": [
        {
          "internalType": "address",
          "name": "",
          "type": "address"
        }
      ],
      "name": "paidOut",
      "outputs": [
        {
          "internalType": "bool",
          "name": "",
          "type": "bool"
        }
      ],
      "stateMutability": "view",
      "type": "function"
    },
    {
      "inputs": [
        {
          "internalType": "address",
          "name": "",
          "type": "address"
        }
      ],
      "name": "recipients",
      "outputs": [
        {
          "internalType": "address",
          "name": "recipientAddress",
          "type": "address"
        },
        {
          "components": [
            {
              "internalType": "uint256",
              "name": "protocol",
              "type": "uint256"
            },
            {
              "internalType": "string",
              "name": "pointer",
              "type": "string"
            }
          ],
          "internalType": "struct Metadata",
          "name": "metadata",
          "type": "tuple"
        },
        {
          "internalType": "enum IStrategy.Status",
          "name": "recipientStatus",
          "type": "uint8"
        },
        {
          "internalType": "uint256",
          "name": "totalVotesReceived",
          "type": "uint256"
        }
      ],
      "stateMutability": "view",
      "type": "function"
    },
    {
      "inputs": [],
      "name": "recipientsCounter",
      "outputs": [
        {
          "internalType": "uint256",
          "name": "",
          "type": "uint256"
        }
      ],
      "stateMutability": "view",
      "type": "function"
    },
    {
      "inputs": [
        {
          "internalType": "bytes",
          "name": "_data",
          "type": "bytes"
        },
        {
          "internalType": "address",
          "name": "_sender",
          "type": "address"
        }
      ],
      "name": "registerRecipient",
      "outputs": [
        {
          "internalType": "address",
          "name": "recipientId",
          "type": "address"
        }
      ],
      "stateMutability": "payable",
      "type": "function"
    },
    {
      "inputs": [
        {
          "internalType": "uint64",
          "name": "_allocationStartTime",
          "type": "uint64"
        },
        {
          "internalType": "uint64",
          "name": "_allocationEndTime",
          "type": "uint64"
        }
      ],
      "name": "setAllocationTime",
      "outputs": [],
      "stateMutability": "nonpayable",
      "type": "function"
    },
    {
      "inputs": [],
      "name": "totalAllocations",
      "outputs": [
        {
          "internalType": "uint256",
          "name": "",
          "type": "uint256"
        }
      ],
      "stateMutability": "view",
      "type": "function"
    }
  ],
  "bytecode": {
    "object": "0x60c06040523480156200001157600080fd5b50604051620022cb380380620022cb8339810160408190526200003491620000ba565b6001600160a01b038216608052604051829082906200005890829060200162000195565b60408051601f19818403018152919052805160209091012060a05250620001ca92505050565b634e487b7160e01b600052604160045260246000fd5b60005b83811015620000b157818101518382015260200162000097565b50506000910152565b60008060408385031215620000ce57600080fd5b82516001600160a01b0381168114620000e657600080fd5b60208401519092506001600160401b03808211156200010457600080fd5b818501915085601f8301126200011957600080fd5b8151818111156200012e576200012e6200007e565b604051601f8201601f19908116603f011681019083821181831017156200015957620001596200007e565b816040528281528860208487010111156200017357600080fd5b6200018683602083016020880162000094565b80955050505050509250929050565b6020815260008251806020840152620001b681604085016020870162000094565b601f01601f19169190910160400192915050565b60805160a0516120c662000205600039600061026a0152600081816101cc01528181610839015281816109e40152610d9a01526120c66000f3fe6080604052600436106101965760003560e01c806381f03fcb116100e1578063d2e17f591161008a578063eb82031211610064578063eb820312146104c3578063edd146cc146104f3578063ef2920fc14610513578063f5b0dfb71461052657600080fd5b8063d2e17f591461045d578063df868ed31461047e578063eb11af931461049657600080fd5b8063b2b878d0116100bb578063b2b878d0146103ea578063bb83067414610417578063bcda201e1461044757600080fd5b806381f03fcb1461037c57806395355b3b146103ac578063a0cf0aea146103c257600080fd5b80634533d678116101435780634d31d0871161011d5780634d31d0871461030957806362812a391461033957806363b51ac01461036657600080fd5b80634533d6781461028e57806347ccca02146102d45780634ab4ba42146102f457600080fd5b806338fff2d01161017457806338fff2d01461021c5780633eca0ca71461023b57806342fda9c71461025b57600080fd5b80630a6f0ee91461019b57806315cc481e146101bd5780632bbe0cae14610209575b600080fd5b3480156101a757600080fd5b506101bb6101b6366004611784565b610546565b005b3480156101c957600080fd5b507f00000000000000000000000000000000000000000000000000000000000000005b6040516001600160a01b0390911681526020015b60405180910390f35b6101ec6102173660046117fc565b610566565b34801561022857600080fd5b506001545b604051908152602001610200565b34801561024757600080fd5b506101bb610256366004611864565b61058b565b34801561026757600080fd5b507f000000000000000000000000000000000000000000000000000000000000000061022d565b34801561029a57600080fd5b50600a546102bb9068010000000000000000900467ffffffffffffffff1681565b60405167ffffffffffffffff9091168152602001610200565b3480156102e057600080fd5b506006546101ec906001600160a01b031681565b34801561030057600080fd5b5060025461022d565b34801561031557600080fd5b50610329610324366004611892565b61059f565b6040519015158152602001610200565b34801561034557600080fd5b50610359610354366004611892565b6105aa565b6040516102009190611965565b34801561037257600080fd5b5061022d60095481565b34801561038857600080fd5b50610329610397366004611892565b60056020526000908152604090205460ff1681565b3480156103b857600080fd5b5061022d60085481565b3480156103ce57600080fd5b506101ec73eeeeeeeeeeeeeeeeeeeeeeeeeeeeeeeeeeeeeeee81565b3480156103f657600080fd5b5061040a6104053660046119bd565b6105bb565b6040516102009190611a92565b34801561042357600080fd5b50610329610432366004611aea565b60046020526000908152604090205460ff1681565b34801561045357600080fd5b5061022d60075481565b34801561046957600080fd5b50600a546102bb9067ffffffffffffffff1681565b34801561048a57600080fd5b5060005460ff16610329565b3480156104a257600080fd5b506104b66104b1366004611892565b6106d3565b6040516102009190611b03565b3480156104cf57600080fd5b506104e36104de366004611892565b6106de565b6040516102009493929190611b11565b3480156104ff57600080fd5b506101bb61050e366004611b51565b6107bc565b6101bb6105213660046117fc565b6107e6565b34801561053257600080fd5b506101bb610541366004611aea565b610804565b61054e61082e565b610556610879565b6105618383836108b5565b505050565b600061057061082e565b610578610879565b6105828383610b01565b90505b92915050565b3361059581610d57565b6105618383610e22565b600061058582610ef3565b6105b26115a2565b61058582610f85565b815181516060919081146105fb576040517f7b49805600000000000000000000000000000000000000000000000000000000815260040160405180910390fd5b60008167ffffffffffffffff811115610616576106166115ee565b60405190808252806020026020018201604052801561065b57816020015b60408051808201909152600080825260208201528152602001906001900390816106345790505b50905060005b828110156106ca576106a586828151811061067e5761067e611b98565b602002602001015186838151811061069857610698611b98565b60200260200101516110af565b8282815181106106b7576106b7611b98565b6020908102919091010152600101610661565b50949350505050565b600061058582611133565b6003602090815260009182526040918290208054835180850190945260018201805485526002830180546001600160a01b0390931695939491929184019161072590611bae565b80601f016020809104026020016040519081016040528092919081815260200182805461075190611bae565b801561079e5780601f106107735761010080835404028352916020019161079e565b820191906000526020600020905b81548152906001019060200180831161078157829003601f168201915b505050919092525050506003820154600490920154909160ff169084565b6107c461082e565b6000818060200190518101906107da9190611be8565b90506105618382611148565b6107ee61082e565b6107f6610879565b61080082826111a5565b5050565b61080c61082e565b806002600082825461081e9190611c7a565b9091555061082b90508181565b50565b336001600160a01b037f000000000000000000000000000000000000000000000000000000000000000016146108775760405163075fd2b160e01b815260040160405180910390fd5b565b600154600003610877576040517f3da3f98c00000000000000000000000000000000000000000000000000000000815260040160405180910390fd5b6108bd611387565b825160005b81811015610afa5760008582815181106108de576108de611b98565b60200260200101519050600060036000836001600160a01b03166001600160a01b031681526020019081526020016000209050600061092c83604051806020016040528060008152506110af565b6020808201516001600160a01b038616600090815260059092526040909120549192509060ff168061097757506002600384015460ff1660068111156109745761097461192d565b14155b80610980575080155b156109ae5760405163f4a513b960e01b81526001600160a01b03851660048201526024015b60405180910390fd5b6001546040517f068bcd8d0000000000000000000000000000000000000000000000000000000081526000916001600160a01b037f0000000000000000000000000000000000000000000000000000000000000000169163068bcd8d91610a1b9160040190815260200190565b600060405180830381865afa158015610a38573d6000803e3d6000fd5b505050506040513d6000823e601f3d908101601f19168201604052610a609190810190611d38565b60408101518554919250610a7d916001600160a01b0316846113d9565b6001600160a01b03858116600081815260056020908152604091829020805460ff19166001179055875482519085168152908101869052928b1690830152907fb5b51454adfa840bd593658325a60a50b0216f12eb5d2937efe6cea935675b7d9060600160405180910390a25050600190930192506108c2915050565b5050505050565b600081610b0d81610d57565b60008060008087806020019051810190610b279190611dec565b929650909450925090506001600160a01b0384161580610b4e57506001600160a01b038316155b15610b775760405163f4a513b960e01b81526001600160a01b03851660048201526024016109a5565b6001600160a01b03841660009081526003602052604090206002600382015460ff166006811115610baa57610baa61192d565b14158015610bc957506002836006811115610bc757610bc761192d565b145b15610be85760088054906000610bde83611e68565b9190505550610c5a565b6002600382015460ff166006811115610c0357610c0361192d565b148015610c2157506003836006811115610c1f57610c1f61192d565b145b15610c365760088054906000610bde83611e81565b60405163f4a513b960e01b81526001600160a01b03861660048201526024016109a5565b6007546008541115610c98576040517f3a516f0a00000000000000000000000000000000000000000000000000000000815260040160405180910390fd5b805473ffffffffffffffffffffffffffffffffffffffff19166001600160a01b03851617815581516001820190815560208301518391906002840190610cde9082611ee6565b50505060038101805484919060ff19166001836006811115610d0257610d0261192d565b0217905550846001600160a01b03167fa197306e3dd5494a61a695381aa809a53b8e377a685e84e404a85d5a8da6cc628a8a604051610d42929190611fa6565b60405180910390a25092979650505050505050565b6001546040517f29e40d4b00000000000000000000000000000000000000000000000000000000815260048101919091526001600160a01b0382811660248301527f000000000000000000000000000000000000000000000000000000000000000016906329e40d4b90604401602060405180830381865afa158015610de1573d6000803e3d6000fd5b505050506040513d601f19601f82011682018060405250810190610e059190611fd1565b61082b5760405163075fd2b160e01b815260040160405180910390fd5b428267ffffffffffffffff161080610e4d57508167ffffffffffffffff168167ffffffffffffffff16105b15610e6b57604051637fcce2a960e01b815260040160405180910390fd5b600a805467ffffffffffffffff8481167fffffffffffffffffffffffffffffffff00000000000000000000000000000000909216821768010000000000000000918516918202179092556040805191825260208201929092527fa4da6f404ffc03f33ad8f5921ceb27bd413b654d22f2b97e3074f1c1358635c7910160405180910390a15050565b6006546040517f70a082310000000000000000000000000000000000000000000000000000000081526001600160a01b03838116600483015260009283929116906370a0823190602401602060405180830381865afa158015610f5a573d6000803e3d6000fd5b505050506040513d601f19601f82011682018060405250810190610f7e9190611ff3565b1192915050565b610f8d6115a2565b6001600160a01b038083166000908152600360209081526040918290208251608081018452815490941684528251808401909352600181018054845260028201805492948685019490939084019190610fe590611bae565b80601f016020809104026020016040519081016040528092919081815260200182805461101190611bae565b801561105e5780601f106110335761010080835404028352916020019161105e565b820191906000526020600020905b81548152906001019060200180831161104157829003601f168201915b505050919092525050508152600382015460209091019060ff1660068111156110895761108961192d565b600681111561109a5761109a61192d565b81526020016004820154815250509050919050565b60408051808201909152600080825260208201526001600160a01b03831660009081526003602052604081206004810154600954919290916110f257600061110d565b60095482600254611103919061200c565b61110d9190612023565b6040805180820190915293546001600160a01b0316845260208401525090949350505050565b600061113e82610f85565b6040015192915050565b6111518261141e565b80516006805473ffffffffffffffffffffffffffffffffffffffff19166001600160a01b0390921691909117905560208101516007556040810151606082015161119b9190610e22565b6108006001611486565b6111ad6114cd565b600080838060200190518101906111c49190612045565b600081815260046020526040902054919350915060ff168061127557506006546040517f6352211e000000000000000000000000000000000000000000000000000000008152600481018390526001600160a01b03858116921690636352211e90602401602060405180830381865afa158015611245573d6000803e3d6000fd5b505050506040513d601f19601f820116820180604052508101906112699190612073565b6001600160a01b031614155b156112935760405163075fd2b160e01b815260040160405180910390fd5b6000818152600460209081526040808320805460ff191660011790556001600160a01b0385168352600390915290206002600382015460ff1660068111156112dd576112dd61192d565b146113065760405163f4a513b960e01b81526001600160a01b03841660048201526024016109a5565b60048101805490600061131883611e68565b90915550506009805490600061132d83611e68565b90915550506040805160018152600060208201526001600160a01b03868116828401529151918516917f463ffc2cf8b1596445c417388ed30e53eb67cf6668cb2be7f0addf8a78c8441b9181900360600190a25050505050565b600a5468010000000000000000900467ffffffffffffffff16421015610877576040517f8a879da200000000000000000000000000000000000000000000000000000000815260040160405180910390fd5b7fffffffffffffffffffffffff11111111111111111111111111111111111111126001600160a01b03841601611413576105618282611537565b610561838383611553565b61142661082e565b60015415611460576040517f439a74c900000000000000000000000000000000000000000000000000000000815260040160405180910390fd5b8060000361148157604051637fcce2a960e01b815260040160405180910390fd5b600155565b6000805460ff19168215159081179091556040519081527fd94c9bc4d43c51d8dc345a016d8e3d994432fac68e72832e4cf3a616bd8efae09060200160405180910390a150565b600a544267ffffffffffffffff90911611806115005750600a5468010000000000000000900467ffffffffffffffff1642115b15610877576040517fb828c90000000000000000000000000000000000000000000000000000000000815260040160405180910390fd5b60008060008084865af16108005763b12d13eb6000526004601cfd5b81601452806034526fa9059cbb00000000000000000000000060005260206000604460106000875af13d156001600051141716611598576390b8ec186000526004601cfd5b6000603452505050565b604051806080016040528060006001600160a01b031681526020016115da604051806040016040528060008152602001606081525090565b815260200160008152602001600081525090565b634e487b7160e01b600052604160045260246000fd5b60405160c0810167ffffffffffffffff81118282101715611627576116276115ee565b60405290565b604051601f8201601f1916810167ffffffffffffffff81118282101715611656576116566115ee565b604052919050565b600067ffffffffffffffff821115611678576116786115ee565b5060051b60200190565b6001600160a01b038116811461082b57600080fd5b600082601f8301126116a857600080fd5b813560206116bd6116b88361165e565b61162d565b82815260059290921b840181019181810190868411156116dc57600080fd5b8286015b848110156117005780356116f381611682565b83529183019183016116e0565b509695505050505050565b600067ffffffffffffffff821115611725576117256115ee565b50601f01601f191660200190565b600082601f83011261174457600080fd5b81356117526116b88261170b565b81815284602083860101111561176757600080fd5b816020850160208301376000918101602001919091529392505050565b60008060006060848603121561179957600080fd5b833567ffffffffffffffff808211156117b157600080fd5b6117bd87838801611697565b945060208601359150808211156117d357600080fd5b506117e086828701611733565b92505060408401356117f181611682565b809150509250925092565b6000806040838503121561180f57600080fd5b823567ffffffffffffffff81111561182657600080fd5b61183285828601611733565b925050602083013561184381611682565b809150509250929050565b67ffffffffffffffff8116811461082b57600080fd5b6000806040838503121561187757600080fd5b82356118828161184e565b915060208301356118438161184e565b6000602082840312156118a457600080fd5b81356118af81611682565b9392505050565b60005b838110156118d15781810151838201526020016118b9565b50506000910152565b600081518084526118f28160208601602086016118b6565b601f01601f19169290920160200192915050565b80518252600060208201516040602085015261192560408501826118da565b949350505050565b634e487b7160e01b600052602160045260246000fd5b6007811061196157634e487b7160e01b600052602160045260246000fd5b9052565b602081526001600160a01b038251166020820152600060208301516080604084015261199460a0840182611906565b905060408401516119a86060850182611943565b50606084015160808401528091505092915050565b600080604083850312156119d057600080fd5b823567ffffffffffffffff808211156119e857600080fd5b6119f486838701611697565b9350602091508185013581811115611a0b57600080fd5b8501601f81018713611a1c57600080fd5b8035611a2a6116b88261165e565b81815260059190911b82018401908481019089831115611a4957600080fd5b8584015b83811015611a8157803586811115611a655760008081fd5b611a738c8983890101611733565b845250918601918601611a4d565b508096505050505050509250929050565b602080825282518282018190526000919060409081850190868401855b82811015611add57815180516001600160a01b03168552860151868501529284019290850190600101611aaf565b5091979650505050505050565b600060208284031215611afc57600080fd5b5035919050565b602081016105858284611943565b6001600160a01b0385168152608060208201526000611b336080830186611906565b9050611b426040830185611943565b82606083015295945050505050565b60008060408385031215611b6457600080fd5b82359150602083013567ffffffffffffffff811115611b8257600080fd5b611b8e85828601611733565b9150509250929050565b634e487b7160e01b600052603260045260246000fd5b600181811c90821680611bc257607f821691505b602082108103611be257634e487b7160e01b600052602260045260246000fd5b50919050565b600060808284031215611bfa57600080fd5b6040516080810181811067ffffffffffffffff82111715611c1d57611c1d6115ee565b6040528251611c2b81611682565b8152602083810151908201526040830151611c458161184e565b60408201526060830151611c588161184e565b60608201529392505050565b634e487b7160e01b600052601160045260246000fd5b8082018082111561058557610585611c64565b600060408284031215611c9f57600080fd5b6040516040810167ffffffffffffffff8282108183111715611cc357611cc36115ee565b81604052829350845183526020850151915080821115611ce257600080fd5b508301601f81018513611cf457600080fd5b8051611d026116b88261170b565b818152866020838501011115611d1757600080fd5b611d288260208301602086016118b6565b8060208501525050505092915050565b600060208284031215611d4a57600080fd5b815167ffffffffffffffff80821115611d6257600080fd5b9083019060c08286031215611d7657600080fd5b611d7e611604565b825181526020830151611d9081611682565b60208201526040830151611da381611682565b6040820152606083015182811115611dba57600080fd5b611dc687828601611c8d565b6060830152506080830151608082015260a083015160a082015280935050505092915050565b60008060008060808587031215611e0257600080fd5b8451611e0d81611682565b6020860151909450611e1e81611682565b604086015190935060078110611e3357600080fd5b606086015190925067ffffffffffffffff811115611e5057600080fd5b611e5c87828801611c8d565b91505092959194509250565b600060018201611e7a57611e7a611c64565b5060010190565b600081611e9057611e90611c64565b506000190190565b601f82111561056157600081815260208120601f850160051c81016020861015611ebf5750805b601f850160051c820191505b81811015611ede57828155600101611ecb565b505050505050565b815167ffffffffffffffff811115611f0057611f006115ee565b611f1481611f0e8454611bae565b84611e98565b602080601f831160018114611f495760008415611f315750858301515b600019600386901b1c1916600185901b178555611ede565b600085815260208120601f198616915b82811015611f7857888601518255948401946001909101908401611f59565b5085821015611f965787850151600019600388901b60f8161c191681555b5050505050600190811b01905550565b604081526000611fb960408301856118da565b90506001600160a01b03831660208301529392505050565b600060208284031215611fe357600080fd5b815180151581146118af57600080fd5b60006020828403121561200557600080fd5b5051919050565b808202811582820484141761058557610585611c64565b60008261204057634e487b7160e01b600052601260045260246000fd5b500490565b6000806040838503121561205857600080fd5b825161206381611682565b6020939093015192949293505050565b60006020828403121561208557600080fd5b81516118af8161168256fea26469706673582212209cce8633627bd136c3167ca5b1a3f706ceeac38ba49a5f2e0e93786eee4a644064736f6c63430008130033",
    "linkReferences": {}
  },
  "methodIdentifiers": {
    "NATIVE()": "a0cf0aea",
    "allocate(bytes,address)": "ef2920fc",
    "allocationEndTime()": "4533d678",
    "allocationStartTime()": "d2e17f59",
    "distribute(address[],bytes,address)": "0a6f0ee9",
    "getAllo()": "15cc481e",
    "getPayouts(address[],bytes[])": "b2b878d0",
    "getPoolAmount()": "4ab4ba42",
    "getPoolId()": "38fff2d0",
    "getRecipient(address)": "62812a39",
    "getRecipientStatus(address)": "eb11af93",
    "getStrategyId()": "42fda9c7",
    "hasAllocated(uint256)": "bb830674",
    "increasePoolAmount(uint256)": "f5b0dfb7",
    "initialize(uint256,bytes)": "edd146cc",
    "isPoolActive()": "df868ed3",
    "isValidAllocator(address)": "4d31d087",
    "maxRecipientsAllowed()": "bcda201e",
    "nft()": "47ccca02",
    "paidOut(address)": "81f03fcb",
    "recipients(address)": "eb820312",
    "recipientsCounter()": "95355b3b",
    "registerRecipient(bytes,address)": "2bbe0cae",
    "setAllocationTime(uint64,uint64)": "3eca0ca7",
    "totalAllocations()": "63b51ac0"
  },
  "storageLayout": {
    "storage": [
      {
        "astId": 3267,
        "contract": "contracts/strategies/_poc/proportional-payout/ProportionalPayoutStrategy.sol:ProportionalPayoutStrategy",
        "label": "poolActive",
        "offset": 0,
        "slot": "0",
        "type": "t_bool"
      },
      {
        "astId": 3269,
        "contract": "contracts/strategies/_poc/proportional-payout/ProportionalPayoutStrategy.sol:ProportionalPayoutStrategy",
        "label": "poolId",
        "offset": 0,
        "slot": "1",
        "type": "t_uint256"
      },
      {
        "astId": 3271,
        "contract": "contracts/strategies/_poc/proportional-payout/ProportionalPayoutStrategy.sol:ProportionalPayoutStrategy",
        "label": "poolAmount",
        "offset": 0,
        "slot": "2",
        "type": "t_uint256"
      },
      {
        "astId": 6907,
        "contract": "contracts/strategies/_poc/proportional-payout/ProportionalPayoutStrategy.sol:ProportionalPayoutStrategy",
        "label": "recipients",
        "offset": 0,
        "slot": "3",
        "type": "t_mapping(t_address,t_struct(Recipient)6892_storage)"
      },
      {
        "astId": 6912,
        "contract": "contracts/strategies/_poc/proportional-payout/ProportionalPayoutStrategy.sol:ProportionalPayoutStrategy",
        "label": "hasAllocated",
        "offset": 0,
        "slot": "4",
        "type": "t_mapping(t_uint256,t_bool)"
      },
      {
        "astId": 6917,
        "contract": "contracts/strategies/_poc/proportional-payout/ProportionalPayoutStrategy.sol:ProportionalPayoutStrategy",
        "label": "paidOut",
        "offset": 0,
        "slot": "5",
        "type": "t_mapping(t_address,t_bool)"
      },
      {
        "astId": 6920,
        "contract": "contracts/strategies/_poc/proportional-payout/ProportionalPayoutStrategy.sol:ProportionalPayoutStrategy",
        "label": "nft",
        "offset": 0,
        "slot": "6",
        "type": "t_contract(ERC721)76863"
      },
      {
        "astId": 6922,
        "contract": "contracts/strategies/_poc/proportional-payout/ProportionalPayoutStrategy.sol:ProportionalPayoutStrategy",
        "label": "maxRecipientsAllowed",
        "offset": 0,
        "slot": "7",
        "type": "t_uint256"
      },
      {
        "astId": 6924,
        "contract": "contracts/strategies/_poc/proportional-payout/ProportionalPayoutStrategy.sol:ProportionalPayoutStrategy",
        "label": "recipientsCounter",
        "offset": 0,
        "slot": "8",
        "type": "t_uint256"
      },
      {
        "astId": 6926,
        "contract": "contracts/strategies/_poc/proportional-payout/ProportionalPayoutStrategy.sol:ProportionalPayoutStrategy",
        "label": "totalAllocations",
        "offset": 0,
        "slot": "9",
        "type": "t_uint256"
      },
      {
        "astId": 6928,
        "contract": "contracts/strategies/_poc/proportional-payout/ProportionalPayoutStrategy.sol:ProportionalPayoutStrategy",
        "label": "allocationStartTime",
        "offset": 0,
        "slot": "10",
        "type": "t_uint64"
      },
      {
        "astId": 6930,
        "contract": "contracts/strategies/_poc/proportional-payout/ProportionalPayoutStrategy.sol:ProportionalPayoutStrategy",
        "label": "allocationEndTime",
        "offset": 8,
        "slot": "10",
        "type": "t_uint64"
      }
    ],
    "types": {
      "t_address": {
        "encoding": "inplace",
        "label": "address",
        "numberOfBytes": "20"
      },
      "t_bool": {
        "encoding": "inplace",
        "label": "bool",
        "numberOfBytes": "1"
      },
      "t_contract(ERC721)76863": {
        "encoding": "inplace",
        "label": "contract ERC721",
        "numberOfBytes": "20"
      },
      "t_enum(Status)2638": {
        "encoding": "inplace",
        "label": "enum IStrategy.Status",
        "numberOfBytes": "1"
      },
      "t_mapping(t_address,t_bool)": {
        "encoding": "mapping",
        "key": "t_address",
        "label": "mapping(address => bool)",
        "numberOfBytes": "32",
        "value": "t_bool"
      },
      "t_mapping(t_address,t_struct(Recipient)6892_storage)": {
        "encoding": "mapping",
        "key": "t_address",
        "label": "mapping(address => struct ProportionalPayoutStrategy.Recipient)",
        "numberOfBytes": "32",
        "value": "t_struct(Recipient)6892_storage"
      },
      "t_mapping(t_uint256,t_bool)": {
        "encoding": "mapping",
        "key": "t_uint256",
        "label": "mapping(uint256 => bool)",
        "numberOfBytes": "32",
        "value": "t_bool"
      },
      "t_string_storage": {
        "encoding": "bytes",
        "label": "string",
        "numberOfBytes": "32"
      },
      "t_struct(Metadata)2922_storage": {
        "encoding": "inplace",
        "label": "struct Metadata",
        "numberOfBytes": "64",
        "members": [
          {
            "astId": 2918,
            "contract": "contracts/strategies/_poc/proportional-payout/ProportionalPayoutStrategy.sol:ProportionalPayoutStrategy",
            "label": "protocol",
            "offset": 0,
            "slot": "0",
            "type": "t_uint256"
          },
          {
            "astId": 2921,
            "contract": "contracts/strategies/_poc/proportional-payout/ProportionalPayoutStrategy.sol:ProportionalPayoutStrategy",
            "label": "pointer",
            "offset": 0,
            "slot": "1",
            "type": "t_string_storage"
          }
        ]
      },
      "t_struct(Recipient)6892_storage": {
        "encoding": "inplace",
        "label": "struct ProportionalPayoutStrategy.Recipient",
        "numberOfBytes": "160",
        "members": [
          {
            "astId": 6883,
            "contract": "contracts/strategies/_poc/proportional-payout/ProportionalPayoutStrategy.sol:ProportionalPayoutStrategy",
            "label": "recipientAddress",
            "offset": 0,
            "slot": "0",
            "type": "t_address"
          },
          {
            "astId": 6886,
            "contract": "contracts/strategies/_poc/proportional-payout/ProportionalPayoutStrategy.sol:ProportionalPayoutStrategy",
            "label": "metadata",
            "offset": 0,
            "slot": "1",
            "type": "t_struct(Metadata)2922_storage"
          },
          {
            "astId": 6889,
            "contract": "contracts/strategies/_poc/proportional-payout/ProportionalPayoutStrategy.sol:ProportionalPayoutStrategy",
            "label": "recipientStatus",
            "offset": 0,
            "slot": "3",
            "type": "t_enum(Status)2638"
          },
          {
            "astId": 6891,
            "contract": "contracts/strategies/_poc/proportional-payout/ProportionalPayoutStrategy.sol:ProportionalPayoutStrategy",
            "label": "totalVotesReceived",
            "offset": 0,
            "slot": "4",
            "type": "t_uint256"
          }
        ]
      },
      "t_uint256": {
        "encoding": "inplace",
        "label": "uint256",
        "numberOfBytes": "32"
      },
      "t_uint64": {
        "encoding": "inplace",
        "label": "uint64",
        "numberOfBytes": "8"
      }
    }
  },
  "id": 17
}