{
  "abi": [
    {
      "inputs": [
        {
          "components": [
            {
              "internalType": "bytes32",
              "name": "schema",
              "type": "bytes32"
            },
            {
              "components": [
                {
                  "internalType": "address",
                  "name": "recipient",
                  "type": "address"
                },
                {
                  "internalType": "uint64",
                  "name": "expirationTime",
                  "type": "uint64"
                },
                {
                  "internalType": "bool",
                  "name": "revocable",
                  "type": "bool"
                },
                {
                  "internalType": "bytes32",
                  "name": "refUID",
                  "type": "bytes32"
                },
                {
                  "internalType": "bytes",
                  "name": "data",
                  "type": "bytes"
                },
                {
                  "internalType": "uint256",
                  "name": "value",
                  "type": "uint256"
                }
              ],
              "internalType": "struct AttestationRequestData",
              "name": "data",
              "type": "tuple"
            }
          ],
          "internalType": "struct AttestationRequest",
          "name": "request",
          "type": "tuple"
        }
      ],
      "name": "attest",
      "outputs": [
        {
          "internalType": "bytes32",
          "name": "",
          "type": "bytes32"
        }
      ],
      "stateMutability": "payable",
      "type": "function"
    },
    {
      "inputs": [
        {
          "internalType": "bytes32",
          "name": "uid",
          "type": "bytes32"
        }
      ],
      "name": "getAttestation",
      "outputs": [
        {
          "components": [
            {
              "internalType": "bytes32",
              "name": "uid",
              "type": "bytes32"
            },
            {
              "internalType": "bytes32",
              "name": "schema",
              "type": "bytes32"
            },
            {
              "internalType": "uint64",
              "name": "time",
              "type": "uint64"
            },
            {
              "internalType": "uint64",
              "name": "expirationTime",
              "type": "uint64"
            },
            {
              "internalType": "uint64",
              "name": "revocationTime",
              "type": "uint64"
            },
            {
              "internalType": "bytes32",
              "name": "refUID",
              "type": "bytes32"
            },
            {
              "internalType": "address",
              "name": "recipient",
              "type": "address"
            },
            {
              "internalType": "address",
              "name": "attester",
              "type": "address"
            },
            {
              "internalType": "bool",
              "name": "revocable",
              "type": "bool"
            },
            {
              "internalType": "bytes",
              "name": "data",
              "type": "bytes"
            }
          ],
          "internalType": "struct Attestation",
          "name": "",
          "type": "tuple"
        }
      ],
      "stateMutability": "view",
      "type": "function"
    },
    {
      "inputs": [],
      "name": "mockAttestation",
      "outputs": [
        {
          "internalType": "bytes32",
          "name": "uid",
          "type": "bytes32"
        },
        {
          "internalType": "bytes32",
          "name": "schema",
          "type": "bytes32"
        },
        {
          "internalType": "uint64",
          "name": "time",
          "type": "uint64"
        },
        {
          "internalType": "uint64",
          "name": "expirationTime",
          "type": "uint64"
        },
        {
          "internalType": "uint64",
          "name": "revocationTime",
          "type": "uint64"
        },
        {
          "internalType": "bytes32",
          "name": "refUID",
          "type": "bytes32"
        },
        {
          "internalType": "address",
          "name": "recipient",
          "type": "address"
        },
        {
          "internalType": "address",
          "name": "attester",
          "type": "address"
        },
        {
          "internalType": "bool",
          "name": "revocable",
          "type": "bool"
        },
        {
          "internalType": "bytes",
          "name": "data",
          "type": "bytes"
        }
      ],
      "stateMutability": "view",
      "type": "function"
    }
  ],
  "bytecode": {
    "object": "0x6231323360e81b608081815260a0829052600160c0819052600260e08190526003610100819052610120859052607b61014081905261016081905261018084905260206101e05261020082905261022086905260606101c09081526102406040526101a081905260008781559487905583546001600160c01b03191670030000000000000002000000000000000117909355949055600480546001600160a01b031916909417909355600580546001600160a81b0319167401000000000000000000000000000000000000007b17905590916006906100de9082610192565b5050503480156100ed57600080fd5b50610251565b634e487b7160e01b600052604160045260246000fd5b600181811c9082168061011d57607f821691505b60208210810361013d57634e487b7160e01b600052602260045260246000fd5b50919050565b601f82111561018d57600081815260208120601f850160051c8101602086101561016a5750805b601f850160051c820191505b8181101561018957828155600101610176565b5050505b505050565b81516001600160401b038111156101ab576101ab6100f3565b6101bf816101b98454610109565b84610143565b602080601f8311600181146101f457600084156101dc5750858301515b600019600386901b1c1916600185901b178555610189565b600085815260208120601f198616915b8281101561022357888601518255948401946001909101908401610204565b50858210156102415787850151600019600388901b60f8161c191681555b5050505050600190811b01905550565b6105d9806102606000396000f3fe6080604052600436106100345760003560e01c8063a3112a6414610039578063f17325e71461006f578063ff580502146100b0575b600080fd5b34801561004557600080fd5b5061005961005436600461035c565b6100db565b60405161006691906103bb565b60405180910390f35b6100a261007d366004610492565b507f313233000000000000000000000000000000000000000000000000000000000090565b604051908152602001610066565b3480156100bc57600080fd5b506100c5610264565b6040516100669a999897969594939291906104d4565b604080516101408101825260008082526020820181905291810182905260608082018390526080820183905260a0820183905260c0820183905260e082018390526101008201929092526101208101919091526040805161014081018252600080548252600154602083015260025467ffffffffffffffff80821694840194909452680100000000000000008104841660608401527001000000000000000000000000000000009004909216608082015260035460a08201526004546001600160a01b0390811660c083015260055490811660e0830152600160a01b900460ff16151561010082015260068054919291610120840191906101db90610550565b80601f016020809104026020016040519081016040528092919081815260200182805461020790610550565b80156102545780601f1061022957610100808354040283529160200191610254565b820191906000526020600020905b81548152906001019060200180831161023757829003601f168201915b5050505050815250509050919050565b60008054600154600254600354600454600554600680549697959667ffffffffffffffff80871697680100000000000000008804821697700100000000000000000000000000000000900490911695946001600160a01b039081169490811693600160a01b90910460ff16926102d990610550565b80601f016020809104026020016040519081016040528092919081815260200182805461030590610550565b80156103525780601f1061032757610100808354040283529160200191610352565b820191906000526020600020905b81548152906001019060200180831161033557829003601f168201915b505050505090508a565b60006020828403121561036e57600080fd5b5035919050565b6000815180845260005b8181101561039b5760208185018101518683018201520161037f565b506000602082860101526020601f19601f83011685010191505092915050565b602081528151602082015260208201516040820152600060408301516103ed606084018267ffffffffffffffff169052565b50606083015167ffffffffffffffff8116608084015250608083015167ffffffffffffffff811660a08401525060a083015160c083015260c083015161043e60e08401826001600160a01b03169052565b5060e083015161010061045b818501836001600160a01b03169052565b84015190506101206104708482018315159052565b84015161014084810152905061048a610160840182610375565b949350505050565b6000602082840312156104a457600080fd5b813567ffffffffffffffff8111156104bb57600080fd5b8201604081850312156104cd57600080fd5b9392505050565b60006101408c83528b602084015267ffffffffffffffff808c166040850152808b166060850152808a166080850152508760a08401526001600160a01b0380881660c085015280871660e0850152508415156101008401528061012084015261053f81840185610375565b9d9c50505050505050505050505050565b600181811c9082168061056457607f821691505b60208210810361059d577f4e487b7100000000000000000000000000000000000000000000000000000000600052602260045260246000fd5b5091905056fea26469706673582212203a313da2515b1c641cb8829411611f489c9a0940f58dd1b44280df09fdfb83b764736f6c63430008130033",
    "linkReferences": {}
  },
  "methodIdentifiers": {
    "attest((bytes32,(address,uint64,bool,bytes32,bytes,uint256)))": "f17325e7",
    "getAttestation(bytes32)": "a3112a64",
    "mockAttestation()": "ff580502"
  },
  "storageLayout": {
    "storage": [
      {
        "astId": 120194,
        "contract": "test/utils/MockEAS.sol:MockEAS",
        "label": "mockAttestation",
        "offset": 0,
        "slot": "0",
        "type": "t_struct(Attestation)17133_storage"
      }
    ],
    "types": {
      "t_address": {
        "encoding": "inplace",
        "label": "address",
        "numberOfBytes": "20"
      },
      "t_bool": {
        "encoding": "inplace",
        "label": "bool",
        "numberOfBytes": "1"
      },
      "t_bytes32": {
        "encoding": "inplace",
        "label": "bytes32",
        "numberOfBytes": "32"
      },
      "t_bytes_storage": {
        "encoding": "bytes",
        "label": "bytes",
        "numberOfBytes": "32"
      },
      "t_struct(Attestation)17133_storage": {
        "encoding": "inplace",
        "label": "struct Attestation",
        "numberOfBytes": "224",
        "members": [
          {
            "astId": 17114,
            "contract": "test/utils/MockEAS.sol:MockEAS",
            "label": "uid",
            "offset": 0,
            "slot": "0",
            "type": "t_bytes32"
          },
          {
            "astId": 17116,
            "contract": "test/utils/MockEAS.sol:MockEAS",
            "label": "schema",
            "offset": 0,
            "slot": "1",
            "type": "t_bytes32"
          },
          {
            "astId": 17118,
            "contract": "test/utils/MockEAS.sol:MockEAS",
            "label": "time",
            "offset": 0,
            "slot": "2",
            "type": "t_uint64"
          },
          {
            "astId": 17120,
            "contract": "test/utils/MockEAS.sol:MockEAS",
            "label": "expirationTime",
            "offset": 8,
            "slot": "2",
            "type": "t_uint64"
          },
          {
            "astId": 17122,
            "contract": "test/utils/MockEAS.sol:MockEAS",
            "label": "revocationTime",
            "offset": 16,
            "slot": "2",
            "type": "t_uint64"
          },
          {
            "astId": 17124,
            "contract": "test/utils/MockEAS.sol:MockEAS",
            "label": "refUID",
            "offset": 0,
            "slot": "3",
            "type": "t_bytes32"
          },
          {
            "astId": 17126,
            "contract": "test/utils/MockEAS.sol:MockEAS",
            "label": "recipient",
            "offset": 0,
            "slot": "4",
            "type": "t_address"
          },
          {
            "astId": 17128,
            "contract": "test/utils/MockEAS.sol:MockEAS",
            "label": "attester",
            "offset": 0,
            "slot": "5",
            "type": "t_address"
          },
          {
            "astId": 17130,
            "contract": "test/utils/MockEAS.sol:MockEAS",
            "label": "revocable",
            "offset": 20,
            "slot": "5",
            "type": "t_bool"
          },
          {
            "astId": 17132,
            "contract": "test/utils/MockEAS.sol:MockEAS",
            "label": "data",
            "offset": 0,
            "slot": "6",
            "type": "t_bytes_storage"
          }
        ]
      },
      "t_uint64": {
        "encoding": "inplace",
        "label": "uint64",
        "numberOfBytes": "8"
      }
    }
  },
  "id": 172
}