{
  "abi": [
    {
      "inputs": [
        {
          "internalType": "bytes32",
          "name": "uid",
          "type": "bytes32"
        }
      ],
      "name": "getSchema",
      "outputs": [
        {
          "components": [
            {
              "internalType": "bytes32",
              "name": "uid",
              "type": "bytes32"
            },
            {
              "internalType": "contract ISchemaResolver",
              "name": "resolver",
              "type": "address"
            },
            {
              "internalType": "bool",
              "name": "revocable",
              "type": "bool"
            },
            {
              "internalType": "string",
              "name": "schema",
              "type": "string"
            }
          ],
          "internalType": "struct SchemaRecord",
          "name": "",
          "type": "tuple"
        }
      ],
      "stateMutability": "pure",
      "type": "function"
    },
    {
      "inputs": [
        {
          "internalType": "string",
          "name": "schema",
          "type": "string"
        },
        {
          "internalType": "address",
          "name": "resolver",
          "type": "address"
        },
        {
          "internalType": "bool",
          "name": "revocable",
          "type": "bool"
        }
      ],
      "name": "register",
      "outputs": [
        {
          "internalType": "bytes32",
          "name": "",
          "type": "bytes32"
        }
      ],
      "stateMutability": "pure",
      "type": "function"
    }
  ],
  "bytecode": {
    "object": "0x608060405234801561001057600080fd5b506102f8806100206000396000f3fe608060405234801561001057600080fd5b50600436106100365760003560e01c806360d7a2781461003b578063a2ea7c6e1461006a575b600080fd5b61005761004936600461014b565b6231323360e81b9392505050565b6040519081526020015b60405180910390f35b6100d661007836600461021d565b506040805160808082018352600080835260208084018290528385018290526060938401849052845192830185526231323360e81b808452838201929092526001838601528451808601909552600385528401529081019190915290565b6040516100619190610236565b7f4e487b7100000000000000000000000000000000000000000000000000000000600052604160045260246000fd5b803573ffffffffffffffffffffffffffffffffffffffff8116811461013657600080fd5b919050565b8035801515811461013657600080fd5b60008060006060848603121561016057600080fd5b833567ffffffffffffffff8082111561017857600080fd5b818601915086601f83011261018c57600080fd5b81358181111561019e5761019e6100e3565b604051601f8201601f19908116603f011681019083821181831017156101c6576101c66100e3565b816040528281528960208487010111156101df57600080fd5b82602086016020830137600060208483010152809750505050505061020660208501610112565b91506102146040850161013b565b90509250925092565b60006020828403121561022f57600080fd5b5035919050565b6000602080835283518184015273ffffffffffffffffffffffffffffffffffffffff81850151166040840152604084015115156060840152606084015160808085015280518060a086015260005b818110156102a05782810184015186820160c001528301610284565b50600060c0828701015260c0601f19601f83011686010193505050509291505056fea2646970667358221220a92ec93b345d34fbfc0a9879de9040bc38d2321ac11eed32e75cb04a8a3425e564736f6c63430008130033",
    "linkReferences": {}
  },
  "methodIdentifiers": {
    "getSchema(bytes32)": "a2ea7c6e",
    "register(string,address,bool)": "60d7a278"
  },
  "storageLayout": {
    "storage": [],
    "types": {}
  },
  "id": 172
}