{
  "abi": [
    {
      "inputs": [
        {
          "internalType": "contract ISablierV2LockupLinear",
          "name": "_lockupLinear",
          "type": "address"
        },
        {
          "internalType": "address",
          "name": "_allo",
          "type": "address"
        },
        {
          "internalType": "string",
          "name": "_name",
          "type": "string"
        }
      ],
      "stateMutability": "nonpayable",
      "type": "constructor"
    },
    {
      "inputs": [],
      "name": "ALLOCATION_ACTIVE",
      "type": "error"
    },
    {
      "inputs": [],
      "name": "ALLOCATION_EXCEEDS_POOL_AMOUNT",
      "type": "error"
    },
    {
      "inputs": [],
      "name": "ALLOCATION_NOT_ACTIVE",
      "type": "error"
    },
    {
      "inputs": [],
      "name": "ALLOCATION_NOT_ENDED",
      "type": "error"
    },
    {
      "inputs": [],
      "name": "ALREADY_INITIALIZED",
      "type": "error"
    },
    {
      "inputs": [],
      "name": "AMOUNT_MISMATCH",
      "type": "error"
    },
    {
      "inputs": [],
      "name": "ANCHOR_ERROR",
      "type": "error"
    },
    {
      "inputs": [],
      "name": "ARRAY_MISMATCH",
      "type": "error"
    },
    {
      "inputs": [],
      "name": "INVALID",
      "type": "error"
    },
    {
      "inputs": [],
      "name": "INVALID_ADDRESS",
      "type": "error"
    },
    {
      "inputs": [],
      "name": "INVALID_FEE",
      "type": "error"
    },
    {
      "inputs": [],
      "name": "INVALID_METADATA",
      "type": "error"
    },
    {
      "inputs": [],
      "name": "INVALID_REGISTRATION",
      "type": "error"
    },
    {
      "inputs": [],
      "name": "IS_APPROVED_STRATEGY",
      "type": "error"
    },
    {
      "inputs": [],
      "name": "MISMATCH",
      "type": "error"
    },
    {
      "inputs": [],
      "name": "NONCE_NOT_AVAILABLE",
      "type": "error"
    },
    {
      "inputs": [],
      "name": "NOT_APPROVED_STRATEGY",
      "type": "error"
    },
    {
      "inputs": [],
      "name": "NOT_ENOUGH_FUNDS",
      "type": "error"
    },
    {
      "inputs": [],
      "name": "NOT_INITIALIZED",
      "type": "error"
    },
    {
      "inputs": [],
      "name": "NOT_PENDING_OWNER",
      "type": "error"
    },
    {
      "inputs": [],
      "name": "POOL_ACTIVE",
      "type": "error"
    },
    {
      "inputs": [],
      "name": "POOL_INACTIVE",
      "type": "error"
    },
    {
      "inputs": [],
      "name": "RECIPIENT_ALREADY_ACCEPTED",
      "type": "error"
    },
    {
      "inputs": [
        {
          "internalType": "address",
          "name": "recipientId",
          "type": "address"
        }
      ],
      "name": "RECIPIENT_ERROR",
      "type": "error"
    },
    {
      "inputs": [],
      "name": "RECIPIENT_NOT_ACCEPTED",
      "type": "error"
    },
    {
      "inputs": [],
      "name": "REGISTRATION_NOT_ACTIVE",
      "type": "error"
    },
    {
      "inputs": [],
      "name": "STATUS_NOT_ACCEPTED",
      "type": "error"
    },
    {
      "inputs": [],
      "name": "STATUS_NOT_PENDING_OR_INREVIEW",
      "type": "error"
    },
    {
      "inputs": [],
      "name": "UNAUTHORIZED",
      "type": "error"
    },
    {
      "inputs": [],
      "name": "ZERO_ADDRESS",
      "type": "error"
    },
    {
      "anonymous": false,
      "inputs": [
        {
          "indexed": true,
          "internalType": "address",
          "name": "recipientId",
          "type": "address"
        },
        {
          "indexed": false,
          "internalType": "uint256",
          "name": "amount",
          "type": "uint256"
        },
        {
          "indexed": false,
          "internalType": "address",
          "name": "token",
          "type": "address"
        },
        {
          "indexed": false,
          "internalType": "address",
          "name": "sender",
          "type": "address"
        }
      ],
      "name": "Allocated",
      "type": "event"
    },
    {
      "anonymous": false,
      "inputs": [
        {
          "components": [
            {
              "internalType": "address",
              "name": "account",
              "type": "address"
            },
            {
              "internalType": "UD60x18",
              "name": "fee",
              "type": "uint256"
            }
          ],
          "indexed": false,
          "internalType": "struct Broker",
          "name": "broker",
          "type": "tuple"
        }
      ],
      "name": "BrokerSet",
      "type": "event"
    },
    {
      "anonymous": false,
      "inputs": [
        {
          "indexed": true,
          "internalType": "address",
          "name": "recipientId",
          "type": "address"
        },
        {
          "indexed": false,
          "internalType": "address",
          "name": "recipientAddress",
          "type": "address"
        },
        {
          "indexed": false,
          "internalType": "uint256",
          "name": "amount",
          "type": "uint256"
        },
        {
          "indexed": false,
          "internalType": "address",
          "name": "sender",
          "type": "address"
        }
      ],
      "name": "Distributed",
      "type": "event"
    },
    {
      "anonymous": false,
      "inputs": [
        {
          "indexed": false,
          "internalType": "address",
          "name": "allo",
          "type": "address"
        },
        {
          "indexed": false,
          "internalType": "bytes32",
          "name": "profileId",
          "type": "bytes32"
        },
        {
          "indexed": false,
          "internalType": "uint256",
          "name": "poolId",
          "type": "uint256"
        },
        {
          "indexed": false,
          "internalType": "bytes",
          "name": "data",
          "type": "bytes"
        }
      ],
      "name": "Initialized",
      "type": "event"
    },
    {
      "anonymous": false,
      "inputs": [
        {
          "indexed": false,
          "internalType": "bool",
          "name": "active",
          "type": "bool"
        }
      ],
      "name": "PoolActive",
      "type": "event"
    },
    {
      "anonymous": false,
      "inputs": [
        {
          "indexed": false,
          "internalType": "address",
          "name": "recipientId",
          "type": "address"
        },
        {
          "components": [
            {
              "internalType": "uint40",
              "name": "cliff",
              "type": "uint40"
            },
            {
              "internalType": "uint40",
              "name": "total",
              "type": "uint40"
            }
          ],
          "indexed": false,
          "internalType": "struct LockupLinear.Durations",
          "name": "durations",
          "type": "tuple"
        }
      ],
      "name": "RecipientDurationsChanged",
      "type": "event"
    },
    {
      "anonymous": false,
      "inputs": [
        {
          "indexed": false,
          "internalType": "address",
          "name": "recipientId",
          "type": "address"
        },
        {
          "indexed": false,
          "internalType": "enum IStrategy.Status",
          "name": "status",
          "type": "uint8"
        }
      ],
      "name": "RecipientStatusChanged",
      "type": "event"
    },
    {
      "anonymous": false,
      "inputs": [
        {
          "indexed": true,
          "internalType": "address",
          "name": "recipientId",
          "type": "address"
        },
        {
          "indexed": false,
          "internalType": "bytes",
          "name": "data",
          "type": "bytes"
        },
        {
          "indexed": false,
          "internalType": "address",
          "name": "sender",
          "type": "address"
        }
      ],
      "name": "Registered",
      "type": "event"
    },
    {
      "inputs": [],
      "name": "NATIVE",
      "outputs": [
        {
          "internalType": "address",
          "name": "",
          "type": "address"
        }
      ],
      "stateMutability": "view",
      "type": "function"
    },
    {
      "inputs": [
        {
          "internalType": "bytes",
          "name": "_data",
          "type": "bytes"
        },
        {
          "internalType": "address",
          "name": "_sender",
          "type": "address"
        }
      ],
      "name": "allocate",
      "outputs": [],
      "stateMutability": "payable",
      "type": "function"
    },
    {
      "inputs": [],
      "name": "allocatedGrantAmount",
      "outputs": [
        {
          "internalType": "uint256",
          "name": "",
          "type": "uint256"
        }
      ],
      "stateMutability": "view",
      "type": "function"
    },
    {
      "inputs": [],
      "name": "broker",
      "outputs": [
        {
          "internalType": "address",
          "name": "account",
          "type": "address"
        },
        {
          "internalType": "UD60x18",
          "name": "fee",
          "type": "uint256"
        }
      ],
      "stateMutability": "view",
      "type": "function"
    },
    {
      "inputs": [
        {
          "internalType": "address",
          "name": "_recipientId",
          "type": "address"
        },
        {
          "internalType": "uint256",
          "name": "_streamId",
          "type": "uint256"
        }
      ],
      "name": "cancelStream",
      "outputs": [],
      "stateMutability": "nonpayable",
      "type": "function"
    },
    {
      "inputs": [
        {
          "internalType": "address",
          "name": "_recipientId",
          "type": "address"
        },
        {
          "components": [
            {
              "internalType": "uint40",
              "name": "cliff",
              "type": "uint40"
            },
            {
              "internalType": "uint40",
              "name": "total",
              "type": "uint40"
            }
          ],
          "internalType": "struct LockupLinear.Durations",
          "name": "_durations",
          "type": "tuple"
        }
      ],
      "name": "changeRecipientDurations",
      "outputs": [],
      "stateMutability": "nonpayable",
      "type": "function"
    },
    {
      "inputs": [
        {
          "internalType": "address[]",
          "name": "_recipientIds",
          "type": "address[]"
        },
        {
          "internalType": "bytes",
          "name": "_data",
          "type": "bytes"
        },
        {
          "internalType": "address",
          "name": "_sender",
          "type": "address"
        }
      ],
      "name": "distribute",
      "outputs": [],
      "stateMutability": "nonpayable",
      "type": "function"
    },
    {
      "inputs": [
        {
          "internalType": "address",
          "name": "_recipientId",
          "type": "address"
        }
      ],
      "name": "getAllRecipientStreamIds",
      "outputs": [
        {
          "internalType": "uint256[]",
          "name": "",
          "type": "uint256[]"
        }
      ],
      "stateMutability": "view",
      "type": "function"
    },
    {
      "inputs": [],
      "name": "getAllo",
      "outputs": [
        {
          "internalType": "contract IAllo",
          "name": "",
          "type": "address"
        }
      ],
      "stateMutability": "view",
      "type": "function"
    },
    {
      "inputs": [],
      "name": "getBroker",
      "outputs": [
        {
          "components": [
            {
              "internalType": "address",
              "name": "account",
              "type": "address"
            },
            {
              "internalType": "UD60x18",
              "name": "fee",
              "type": "uint256"
            }
          ],
          "internalType": "struct Broker",
          "name": "",
          "type": "tuple"
        }
      ],
      "stateMutability": "view",
      "type": "function"
    },
    {
      "inputs": [
        {
          "internalType": "address[]",
          "name": "_recipientIds",
          "type": "address[]"
        },
        {
          "internalType": "bytes[]",
          "name": "_data",
          "type": "bytes[]"
        }
      ],
      "name": "getPayouts",
      "outputs": [
        {
          "components": [
            {
              "internalType": "address",
              "name": "recipientAddress",
              "type": "address"
            },
            {
              "internalType": "uint256",
              "name": "amount",
              "type": "uint256"
            }
          ],
          "internalType": "struct IStrategy.PayoutSummary[]",
          "name": "",
          "type": "tuple[]"
        }
      ],
      "stateMutability": "view",
      "type": "function"
    },
    {
      "inputs": [
        {
          "internalType": "address[]",
          "name": "_recipientIds",
          "type": "address[]"
        },
        {
          "internalType": "bytes",
          "name": "",
          "type": "bytes"
        }
      ],
      "name": "getPayouts",
      "outputs": [
        {
          "components": [
            {
              "internalType": "address",
              "name": "recipientAddress",
              "type": "address"
            },
            {
              "internalType": "uint256",
              "name": "amount",
              "type": "uint256"
            }
          ],
          "internalType": "struct IStrategy.PayoutSummary[]",
          "name": "payouts",
          "type": "tuple[]"
        }
      ],
      "stateMutability": "view",
      "type": "function"
    },
    {
      "inputs": [],
      "name": "getPoolAmount",
      "outputs": [
        {
          "internalType": "uint256",
          "name": "",
          "type": "uint256"
        }
      ],
      "stateMutability": "view",
      "type": "function"
    },
    {
      "inputs": [],
      "name": "getPoolId",
      "outputs": [
        {
          "internalType": "uint256",
          "name": "",
          "type": "uint256"
        }
      ],
      "stateMutability": "view",
      "type": "function"
    },
    {
      "inputs": [
        {
          "internalType": "address",
          "name": "_recipientId",
          "type": "address"
        }
      ],
      "name": "getRecipient",
      "outputs": [
        {
          "components": [
            {
              "internalType": "bool",
              "name": "useRegistryAnchor",
              "type": "bool"
            },
            {
              "internalType": "bool",
              "name": "cancelable",
              "type": "bool"
            },
            {
              "internalType": "enum IStrategy.Status",
              "name": "recipientStatus",
              "type": "uint8"
            },
            {
              "internalType": "address",
              "name": "recipientAddress",
              "type": "address"
            },
            {
              "internalType": "uint256",
              "name": "grantAmount",
              "type": "uint256"
            },
            {
              "components": [
                {
                  "internalType": "uint40",
                  "name": "cliff",
                  "type": "uint40"
                },
                {
                  "internalType": "uint40",
                  "name": "total",
                  "type": "uint40"
                }
              ],
              "internalType": "struct LockupLinear.Durations",
              "name": "durations",
              "type": "tuple"
            },
            {
              "components": [
                {
                  "internalType": "uint256",
                  "name": "protocol",
                  "type": "uint256"
                },
                {
                  "internalType": "string",
                  "name": "pointer",
                  "type": "string"
                }
              ],
              "internalType": "struct Metadata",
              "name": "metadata",
              "type": "tuple"
            }
          ],
          "internalType": "struct LockupLinearStrategy.Recipient",
          "name": "",
          "type": "tuple"
        }
      ],
      "stateMutability": "view",
      "type": "function"
    },
    {
      "inputs": [
        {
          "internalType": "address",
          "name": "_recipientId",
          "type": "address"
        }
      ],
      "name": "getRecipientStatus",
      "outputs": [
        {
          "internalType": "enum IStrategy.Status",
          "name": "",
          "type": "uint8"
        }
      ],
      "stateMutability": "view",
      "type": "function"
    },
    {
      "inputs": [
        {
          "internalType": "address",
          "name": "_recipientId",
          "type": "address"
        },
        {
          "internalType": "uint256",
          "name": "streamIdIndex",
          "type": "uint256"
        }
      ],
      "name": "getRecipientStreamId",
      "outputs": [
        {
          "internalType": "uint256",
          "name": "",
          "type": "uint256"
        }
      ],
      "stateMutability": "view",
      "type": "function"
    },
    {
      "inputs": [
        {
          "internalType": "address",
          "name": "_recipientId",
          "type": "address"
        }
      ],
      "name": "getStatus",
      "outputs": [
        {
          "internalType": "enum IStrategy.Status",
          "name": "",
          "type": "uint8"
        }
      ],
      "stateMutability": "view",
      "type": "function"
    },
    {
      "inputs": [],
      "name": "getStrategyId",
      "outputs": [
        {
          "internalType": "bytes32",
          "name": "",
          "type": "bytes32"
        }
      ],
      "stateMutability": "view",
      "type": "function"
    },
    {
      "inputs": [],
      "name": "grantAmountRequired",
      "outputs": [
        {
          "internalType": "bool",
          "name": "",
          "type": "bool"
        }
      ],
      "stateMutability": "view",
      "type": "function"
    },
    {
      "inputs": [
        {
          "internalType": "uint256",
          "name": "_amount",
          "type": "uint256"
        }
      ],
      "name": "increasePoolAmount",
      "outputs": [],
      "stateMutability": "nonpayable",
      "type": "function"
    },
    {
      "inputs": [
        {
          "internalType": "uint256",
          "name": "_poolId",
          "type": "uint256"
        },
        {
          "internalType": "bytes",
          "name": "_data",
          "type": "bytes"
        }
      ],
      "name": "initialize",
      "outputs": [],
      "stateMutability": "nonpayable",
      "type": "function"
    },
    {
      "inputs": [],
      "name": "isPoolActive",
      "outputs": [
        {
          "internalType": "bool",
          "name": "",
          "type": "bool"
        }
      ],
      "stateMutability": "view",
      "type": "function"
    },
    {
      "inputs": [
        {
          "internalType": "address",
          "name": "_allocator",
          "type": "address"
        }
      ],
      "name": "isValidAllocator",
      "outputs": [
        {
          "internalType": "bool",
          "name": "",
          "type": "bool"
        }
      ],
      "stateMutability": "view",
      "type": "function"
    },
    {
      "inputs": [],
      "name": "lockupLinear",
      "outputs": [
        {
          "internalType": "contract ISablierV2LockupLinear",
          "name": "",
          "type": "address"
        }
      ],
      "stateMutability": "view",
      "type": "function"
    },
    {
      "inputs": [],
      "name": "metadataRequired",
      "outputs": [
        {
          "internalType": "bool",
          "name": "",
          "type": "bool"
        }
      ],
      "stateMutability": "view",
      "type": "function"
    },
    {
      "inputs": [
        {
          "internalType": "bytes",
          "name": "_data",
          "type": "bytes"
        },
        {
          "internalType": "address",
          "name": "_sender",
          "type": "address"
        }
      ],
      "name": "registerRecipient",
      "outputs": [
        {
          "internalType": "address",
          "name": "recipientId",
          "type": "address"
        }
      ],
      "stateMutability": "payable",
      "type": "function"
    },
    {
      "inputs": [],
      "name": "registryGating",
      "outputs": [
        {
          "internalType": "bool",
          "name": "",
          "type": "bool"
        }
      ],
      "stateMutability": "view",
      "type": "function"
    },
    {
      "inputs": [
        {
          "components": [
            {
              "internalType": "address",
              "name": "account",
              "type": "address"
            },
            {
              "internalType": "UD60x18",
              "name": "fee",
              "type": "uint256"
            }
          ],
          "internalType": "struct Broker",
          "name": "_broker",
          "type": "tuple"
        }
      ],
      "name": "setBroker",
      "outputs": [],
      "stateMutability": "nonpayable",
      "type": "function"
    },
    {
      "inputs": [
        {
          "internalType": "address[]",
          "name": "_recipientIds",
          "type": "address[]"
        }
      ],
      "name": "setRecipientStatusToInReview",
      "outputs": [],
      "stateMutability": "nonpayable",
      "type": "function"
    },
    {
      "inputs": [
        {
          "internalType": "uint256",
          "name": "_amount",
          "type": "uint256"
        }
      ],
      "name": "withdraw",
      "outputs": [],
      "stateMutability": "nonpayable",
      "type": "function"
    }
  ],
  "bytecode": {
    "object": "0x60c06040523480156200001157600080fd5b5060405162003a3238038062003a32833981016040819052620000349162000101565b6001600160a01b0382166080526040518290829062000058908290602001620001e6565b60408051601f19818403018152919052805160209091012060a052505060016003555050600480546001600160a01b039092166301000000026301000000600160b81b03199092169190911790556200021b565b6001600160a01b0381168114620000c257600080fd5b50565b634e487b7160e01b600052604160045260246000fd5b60005b83811015620000f8578181015183820152602001620000de565b50506000910152565b6000806000606084860312156200011757600080fd5b83516200012481620000ac565b60208501519093506200013781620000ac565b60408501519092506001600160401b03808211156200015557600080fd5b818601915086601f8301126200016a57600080fd5b8151818111156200017f576200017f620000c5565b604051601f8201601f19908116603f01168101908382118183101715620001aa57620001aa620000c5565b81604052828152896020848701011115620001c457600080fd5b620001d7836020830160208801620000db565b80955050505050509250925092565b602081526000825180602084015262000207816040850160208701620000db565b601f01601f19169190910160400192915050565b60805160a0516137c062000272600039600061034001526000818161020e0152818161080301528181610f5901528181611049015281816116ed01528181611a9901528181611e44015261210e01526137c06000f3fe6080604052600436106101d85760003560e01c80639be2ccf511610102578063df868ed311610095578063edd146cc11610064578063edd146cc146105ed578063ee8ea63b1461060d578063ef2920fc1461062d578063f5b0dfb71461064057600080fd5b8063df868ed314610572578063e8eeb8061461058a578063eb11af93146105a0578063ed66cd49146105c057600080fd5b8063b2b878d0116100d1578063b2b878d0146104bb578063b45a3263146104e8578063cb0e85a614610508578063d1314ee01461052757600080fd5b80639be2ccf514610416578063a0cf0aea14610436578063a647d23e1461045e578063abff01101461047857600080fd5b806338fff2d01161017a5780634d31d087116101495780634d31d08714610379578063618ca154146103a957806362812a39146103c95780637dc14a8e146103f657600080fd5b806338fff2d0146102f257806339b25a9a1461031157806342fda9c7146103315780634ab4ba421461036457600080fd5b80632bbe0cae116101b65780632bbe0cae1461026b5780632e1a7d4d1461027e57806330ccebb51461029e57806337fb15c0146102cb57600080fd5b80630a6f0ee9146101dd57806315cc481e146101ff5780632b33b8dd1461024b575b600080fd5b3480156101e957600080fd5b506101fd6101f8366004612a1a565b610660565b005b34801561020b57600080fd5b507f00000000000000000000000000000000000000000000000000000000000000005b6040516001600160a01b0390911681526020015b60405180910390f35b34801561025757600080fd5b506101fd610266366004612aa4565b610680565b61022e610279366004612ada565b61079f565b34801561028a57600080fd5b506101fd610299366004612b2c565b6107c4565b3480156102aa57600080fd5b506102be6102b9366004612b45565b61088e565b6040516102429190612b9a565b3480156102d757600080fd5b5060045461022e90630100000090046001600160a01b031681565b3480156102fe57600080fd5b506001545b604051908152602001610242565b34801561031d57600080fd5b506101fd61032c366004612ba8565b6108a3565b34801561033d57600080fd5b507f0000000000000000000000000000000000000000000000000000000000000000610303565b34801561037057600080fd5b50600254610303565b34801561038557600080fd5b50610399610394366004612b45565b61094c565b6040519015158152602001610242565b3480156103b557600080fd5b506103036103c4366004612c1d565b610957565b3480156103d557600080fd5b506103e96103e4366004612b45565b610994565b6040516102429190612c99565b34801561040257600080fd5b506101fd610411366004612c1d565b6109f8565b34801561042257600080fd5b506004546103999062010000900460ff1681565b34801561044257600080fd5b5061022e73eeeeeeeeeeeeeeeeeeeeeeeeeeeeeeeeeeeeeeee81565b34801561046a57600080fd5b506004546103999060ff1681565b34801561048457600080fd5b5060065460075461049c916001600160a01b03169082565b604080516001600160a01b039093168352602083019190915201610242565b3480156104c757600080fd5b506104db6104d6366004612d39565b610c22565b6040516102429190612e0e565b3480156104f457600080fd5b506101fd610503366004612e66565b610d3a565b34801561051457600080fd5b5060045461039990610100900460ff1681565b34801561053357600080fd5b50604080518082018252600080825260209182015281518083019092526006546001600160a01b03168252600754908201526040516102429190612e82565b34801561057e57600080fd5b5060005460ff16610399565b34801561059657600080fd5b5061030360055481565b3480156105ac57600080fd5b506102be6105bb366004612b45565b610d9c565b3480156105cc57600080fd5b506105e06105db366004612b45565b610da7565b6040516102429190612ea2565b3480156105f957600080fd5b506101fd610608366004612ee6565b610e13565b34801561061957600080fd5b506104db610628366004612f2d565b610e35565b6101fd61063b366004612ada565b610f0a565b34801561064c57600080fd5b506101fd61065b366004612b2c565b610f24565b610668610f4e565b610670610f99565b61067b838383610fd5565b505050565b3361068a8161101f565b60016001600160a01b03841660009081526008602052604090205462010000900460ff1660068111156106bf576106bf612b62565b14158015610700575060056001600160a01b03841660009081526008602052604090205462010000900460ff1660068111156106fd576106fd612b62565b14155b15610737576040517f90da7a1600000000000000000000000000000000000000000000000000000000815260040160405180910390fd5b6001600160a01b0383166000908152600860205260409020829060020161075e8282612f9a565b9050507f527d2f315243efa5bc73605feb7a33a08853cc95ba4e2fd5d0fc2f2cd75ddbfc8383604051610792929190612ff6565b60405180910390a1505050565b60006107a9610f4e565b6107b1610f99565b6107bb83836110d1565b90505b92915050565b336107ce8161101f565b81600260008282546107e09190613056565b909155505060015460405163068bcd8d60e01b815261088a916001600160a01b037f0000000000000000000000000000000000000000000000000000000000000000169163068bcd8d9161083a9160040190815260200190565b600060405180830381865afa158015610857573d6000803e3d6000fd5b505050506040513d6000823e601f3d908101601f1916820160405261087f9190810190613110565b6040015133846114b0565b5050565b6000610899826114f5565b6040015192915050565b8060005b818110156109465760008484838181106108c3576108c36131c4565b90506020020160208101906108d89190612b45565b6001600160a01b03811660009081526008602052604090819020805462ff0000191662050000179055519091507f94593b52aa436dd31a63e313045c2eb23d43eb2d6f5b4d7797b4432e7b277490906109359083906005906131da565b60405180910390a1506001016108a7565b50505050565b60006107be826116d0565b6001600160a01b0382166000908152600960205260408120805483908110610981576109816131c4565b9060005260206000200154905092915050565b6109ef6040805160e081018252600080825260208083018290528284018290526060808401839052608084018390528451808601865283815280830184905260a085015284518086019095529184528301529060c082015290565b6107be826114f5565b33610a028161101f565b60026001600160a01b03841660009081526008602052604090205462010000900460ff166006811115610a3757610a37612b62565b14610a6e576040517f8c70c20a00000000000000000000000000000000000000000000000000000000815260040160405180910390fd5b6001600160a01b0383811660009081526008602052604080822080546206000062ff0000199091161790556004805491517f1400ecec000000000000000000000000000000000000000000000000000000008152908101869052919263010000009091041690631400ecec90602401602060405180830381865afa158015610afa573d6000803e3d6000fd5b505050506040513d601f19601f82011682018060405250810190610b1e91906131f7565b6001600160a01b038516600090815260086020526040812060010180549293506001600160801b03841692909190610b57908490613056565b92505081905550806001600160801b031660056000828254610b799190613056565b92505081905550806001600160801b031660026000828254610b9b9190613220565b9091555050600480546040517f40e58ee5000000000000000000000000000000000000000000000000000000008152918201859052630100000090046001600160a01b0316906340e58ee590602401600060405180830381600087803b158015610c0457600080fd5b505af1158015610c18573d6000803e3d6000fd5b5050505050505050565b81518151606091908114610c62576040517f7b49805600000000000000000000000000000000000000000000000000000000815260040160405180910390fd5b60008167ffffffffffffffff811115610c7d57610c7d612861565b604051908082528060200260200182016040528015610cc257816020015b6040805180820190915260008082526020820152815260200190600190039081610c9b5790505b50905060005b82811015610d3157610d0c868281518110610ce557610ce56131c4565b6020026020010151868381518110610cff57610cff6131c4565b6020026020010151611775565b828281518110610d1e57610d1e6131c4565b6020908102919091010152600101610cc8565b50949350505050565b33610d448161101f565b816006610d518282613233565b5050604080516006546001600160a01b0316815260075460208201527f245139c36f7eb3923d0d086cf7457d41d7474fa407b6f2f0237484f51afd4114910160405180910390a15050565b60006107be8261192e565b6001600160a01b038116600090815260096020908152604091829020805483518184028101840190945280845260609392830182828015610e0757602002820191906000526020600020905b815481526020019060010190808311610df3575b50505050509050919050565b600081806020019051810190610e29919061328e565b905061067b8382611995565b81516060908067ffffffffffffffff811115610e5357610e53612861565b604051908082528060200260200182016040528015610e9857816020015b6040805180820190915260008082526020820152815260200190600190039081610e715790505b5091506000805b82811015610f0157858181518110610eb957610eb96131c4565b60200260200101519150610edc8260405180602001604052806000815250611775565b848281518110610eee57610eee6131c4565b6020908102919091010152600101610e9f565b50505092915050565b610f12610f4e565b610f1a610f99565b61088a82826119ef565b610f2c610f4e565b8060026000828254610f3e9190613220565b90915550610f4b90508181565b50565b336001600160a01b037f00000000000000000000000000000000000000000000000000000000000000001614610f975760405163075fd2b160e01b815260040160405180910390fd5b565b600154600003610f97576040517f3da3f98c00000000000000000000000000000000000000000000000000000000815260040160405180910390fd5b80610fdf8161101f565b835160005b818110156110175761100f868281518110611001576110016131c4565b602002602001015185611cc6565b600101610fe4565b505050505050565b6001546040516329e40d4b60e01b815260048101919091526001600160a01b0382811660248301527f000000000000000000000000000000000000000000000000000000000000000016906329e40d4b90604401602060405180830381865afa158015611090573d6000803e3d6000fd5b505050506040513d601f19601f820116820180604052508101906110b491906132fa565b610f4b5760405163075fd2b160e01b815260040160405180910390fd5b60006110db6120cd565b60008060008061110c6040518060400160405280600064ffffffffff168152602001600064ffffffffff1681525090565b60408051808201909152600081526060602082015260045460ff161561117b57888060200190518101906111409190613357565b949b509299509096509450925090506111598789612109565b6111765760405163075fd2b160e01b815260040160405180910390fd5b6111d3565b8880602001905181019061118f91906133e5565b8d9c50949a509298509096509450925090508480156111b557506111b38789612109565b155b156111d35760405163075fd2b160e01b815260040160405180910390fd5b60045462010000900460ff1680156111e9575082155b15611220576040517f03b167dd00000000000000000000000000000000000000000000000000000000815260040160405180910390fd5b60026001600160a01b03881660009081526008602052604090205462010000900460ff16600681111561125557611255612b62565b0361128c576040517f41d40fb800000000000000000000000000000000000000000000000000000000815260040160405180910390fd5b600454610100900460ff1680156112af575060208101515115806112af57508051155b156112e6576040517fc19e07c500000000000000000000000000000000000000000000000000000000815260040160405180910390fd5b6040805160e0810190915260045460009190819060ff16611307578761130a565b60015b151581528615156020820152604001600181526001600160a01b038981166020808401919091526040808401899052606084018890526080909301869052908b16600090815260088252829020835181549285015161ffff1990931690151561ff0019161761010092151592909202919091178082559183015192935083929091829062ff00001916620100008360068111156113a9576113a9612b62565b0217905550606082015181546001600160a01b039091166301000000027fffffffffffffffffff0000000000000000000000000000000000000000ffffff9091161781556080820151600182015560a0820151805160028301805460209384015164ffffffffff908116650100000000000269ffffffffffffffffffff1990921693169290921791909117905560c083015180516003840190815591810151909190600484019061145a9082613491565b505050905050876001600160a01b03167fa197306e3dd5494a61a695381aa809a53b8e377a685e84e404a85d5a8da6cc628b8b60405161149b929190613551565b60405180910390a25050505050505092915050565b7fffffffffffffffffffffffff11111111111111111111111111111111111111126001600160a01b038416016114ea5761067b82826122c1565b61067b8383836122dd565b6115506040805160e081018252600080825260208083018290528284018290526060808401839052608084018390528451808601865283815280830184905260a085015284518086019095529184528301529060c082015290565b6001600160a01b038216600090815260086020908152604091829020825160e081018452815460ff80821615158352610100820481161515948301949094529093919291840191620100009091041660068111156115b0576115b0612b62565b60068111156115c1576115c1612b62565b81528154630100000090046001600160a01b0316602080830191909152600183015460408084019190915280518082018252600285015464ffffffffff8082168352650100000000009091041681840152606084015280518082019091526003840180548252600485018054608090950194929391929184019161164490613417565b80601f016020809104026020016040519081016040528092919081815260200182805461167090613417565b80156116bd5780601f10611692576101008083540402835291602001916116bd565b820191906000526020600020905b8154815290600101906020018083116116a057829003601f168201915b5050509190925250505090525092915050565b6001546040516329e40d4b60e01b81526000916001600160a01b037f000000000000000000000000000000000000000000000000000000000000000016916329e40d4b916117349186906004019182526001600160a01b0316602082015260400190565b602060405180830381865afa158015611751573d6000803e3d6000fd5b505050506040513d601f19601f820116820180604052508101906107be91906132fa565b60408051808201909152600080825260208201526001600160a01b0383166000908152600860209081526040808320815160e081018352815460ff808216151583526101008204811615159583019590955290939192840191620100009091041660068111156117e7576117e7612b62565b60068111156117f8576117f8612b62565b81528154630100000090046001600160a01b0316602080830191909152600183015460408084019190915280518082018252600285015464ffffffffff8082168352650100000000009091041681840152606084015280518082019091526003840180548252600485018054608090950194929391929184019161187b90613417565b80601f01602080910402602001604051908101604052809291908181526020018280546118a790613417565b80156118f45780601f106118c9576101008083540402835291602001916118f4565b820191906000526020600020905b8154815290600101906020018083116118d757829003601f168201915b505050919092525050509052506040805180820190915260608201516001600160a01b031681526080909101516020820152949350505050565b60008061193a836114f5565b604001519050600581600681111561195457611954612b62565b036119625750600192915050565b80600681111561197457611974612b62565b60ff16600681111561198857611988612b62565b9392505050565b50919050565b61199e8261232c565b805160048054602084015160408501511515620100000262ff0000199115156101000261ff00199515159590951661ffff1990931692909217939093179290921691909117905561088a60016123ad565b6119f76123f4565b80611a018161101f565b600080600085806020019051810190611a1a919061357c565b6001600160a01b038316600090815260086020526040902092955090935091506002815462010000900460ff166006811115611a5857611a58612b62565b14158015611a7757506002836006811115611a7557611a75612b62565b145b15611c2a5760015460405163068bcd8d60e01b81526000916001600160a01b037f0000000000000000000000000000000000000000000000000000000000000000169163068bcd8d91611ad09160040190815260200190565b600060405180830381865afa158015611aed573d6000803e3d6000fd5b505050506040513d6000823e601f3d908101601f19168201604052611b159190810190613110565b90508260056000828254611b299190613220565b90915550506002546005541115611b6c576040517f8e81b16f00000000000000000000000000000000000000000000000000000000815260040160405180910390fd5b60018201839055815462ff00001916620200001782556040517f94593b52aa436dd31a63e313045c2eb23d43eb2d6f5b4d7797b4432e7b27749090611bb59087906002906131da565b60405180910390a1846001600160a01b03167f463ffc2cf8b1596445c417388ed30e53eb67cf6668cb2be7f0addf8a78c8441b836001015483604001518a604051611c1c939291909283526001600160a01b03918216602084015216604082015260600190565b60405180910390a250611cb7565b6003815462010000900460ff166006811115611c4857611c48612b62565b14158015611c6757506003836006811115611c6557611c65612b62565b145b15611cb757805462ff00001916620300001781556040517f94593b52aa436dd31a63e313045c2eb23d43eb2d6f5b4d7797b4432e7b27749090611cae9086906003906131da565b60405180910390a15b505050505061088a6001600355565b6001600160a01b0382166000908152600860209081526040808320815160e081018352815460ff80821615158352610100820481161515958301959095529093919284019162010000909104166006811115611d2457611d24612b62565b6006811115611d3557611d35612b62565b81528154630100000090046001600160a01b0316602080830191909152600183015460408084019190915280518082018252600285015464ffffffffff80821683526501000000000090910416818401526060840152805180820190915260038401805482526004850180546080909501949293919291840191611db890613417565b80601f0160208091040260200160405190810160405280929190818152602001828054611de490613417565b8015611e315780601f10611e0657610100808354040283529160200191611e31565b820191906000526020600020905b815481529060010190602001808311611e1457829003601f168201915b50505050508152505081525050905060007f00000000000000000000000000000000000000000000000000000000000000006001600160a01b031663068bcd8d6001546040518263ffffffff1660e01b8152600401611e9291815260200190565b600060405180830381865afa158015611eaf573d6000803e3d6000fd5b505050506040513d6000823e601f3d908101601f19168201604052611ed79190810190613110565b6080808401516040805160e0810182523081526060808801516001600160a01b039081166020808501919091526001600160801b03861684860181905285890151831693850193909352808a015115159684019690965260a0808a01519084015283518085019094526006541683526007549483019490945260c081019190915260028054949550919390929190600090611f73908490613056565b90915550506004546040840151611fa8916001600160a01b03918216916301000000909104166001600160801b038516612452565b600480546040517f1b4103a900000000000000000000000000000000000000000000000000000000815260009263010000009092046001600160a01b031691631b4103a991611ff9918691016135c3565b6020604051808303816000875af1158015612018573d6000803e3d6000fd5b505050506040513d601f19601f8201168201806040525081019061203c919061365e565b6001600160a01b03888116600081815260096020908152604080832080546001810182559084529282902090920185905560608a810151835190861681526001600160801b038a1692810192909252938b1691810191909152929350917fb5b51454adfa840bd593658325a60a50b0216f12eb5d2937efe6cea935675b7d910160405180910390a250505050505050565b60005460ff16610f97576040517fcfe7975b00000000000000000000000000000000000000000000000000000000815260040160405180910390fd5b6000807f00000000000000000000000000000000000000000000000000000000000000006001600160a01b0316635ab1bd536040518163ffffffff1660e01b8152600401602060405180830381865afa15801561216a573d6000803e3d6000fd5b505050506040513d601f19601f8201168201806040525081019061218e9190613677565b6040517fdd93da430000000000000000000000000000000000000000000000000000000081526001600160a01b03868116600483015291925060009183169063dd93da4390602401600060405180830381865afa1580156121f3573d6000803e3d6000fd5b505050506040513d6000823e601f3d908101601f1916820160405261221b9190810190613694565b80516040517f5e8a79150000000000000000000000000000000000000000000000000000000081529192506001600160a01b03841691635e8a7915916122779188906004019182526001600160a01b0316602082015260400190565b602060405180830381865afa158015612294573d6000803e3d6000fd5b505050506040513d601f19601f820116820180604052508101906122b891906132fa565b95945050505050565b60008060008084865af161088a5763b12d13eb6000526004601cfd5b81601452806034526fa9059cbb00000000000000000000000060005260206000604460106000875af13d156001600051141716612322576390b8ec186000526004601cfd5b6000603452505050565b612334610f4e565b6001541561236e576040517f439a74c900000000000000000000000000000000000000000000000000000000815260040160405180910390fd5b806000036123a8576040517f7fcce2a900000000000000000000000000000000000000000000000000000000815260040160405180910390fd5b600155565b6000805460ff19168215159081179091556040519081527fd94c9bc4d43c51d8dc345a016d8e3d994432fac68e72832e4cf3a616bd8efae09060200160405180910390a150565b60026003540361244b5760405162461bcd60e51b815260206004820152601f60248201527f5265656e7472616e637947756172643a207265656e7472616e742063616c6c0060448201526064015b60405180910390fd5b6002600355565b604080516001600160a01b038416602482015260448082018490528251808303909101815260649091019091526020810180517bffffffffffffffffffffffffffffffffffffffffffffffffffffffff1663095ea7b360e01b1790526124b88482612530565b61094657604080516001600160a01b038516602482015260006044808301919091528251808303909101815260649091019091526020810180517bffffffffffffffffffffffffffffffffffffffffffffffffffffffff1663095ea7b360e01b1790526125269085906125d2565b61094684826125d2565b6000806000846001600160a01b03168460405161254d919061375b565b6000604051808303816000865af19150503d806000811461258a576040519150601f19603f3d011682016040523d82523d6000602084013e61258f565b606091505b50915091508180156125b95750805115806125b95750808060200190518101906125b991906132fa565b80156122b857506001600160a01b0385163b15156122b8565b6000612627826040518060400160405280602081526020017f5361666545524332303a206c6f772d6c6576656c2063616c6c206661696c6564815250856001600160a01b03166126ba9092919063ffffffff16565b905080516000148061264857508080602001905181019061264891906132fa565b61067b5760405162461bcd60e51b815260206004820152602a60248201527f5361666545524332303a204552433230206f7065726174696f6e20646964206e60448201527f6f742073756363656564000000000000000000000000000000000000000000006064820152608401612442565b60606126c984846000856126d1565b949350505050565b6060824710156127495760405162461bcd60e51b815260206004820152602660248201527f416464726573733a20696e73756666696369656e742062616c616e636520666f60448201527f722063616c6c00000000000000000000000000000000000000000000000000006064820152608401612442565b600080866001600160a01b03168587604051612765919061375b565b60006040518083038185875af1925050503d80600081146127a2576040519150601f19603f3d011682016040523d82523d6000602084013e6127a7565b606091505b50915091506127b8878383876127c3565b979650505050505050565b6060831561283257825160000361282b576001600160a01b0385163b61282b5760405162461bcd60e51b815260206004820152601d60248201527f416464726573733a2063616c6c20746f206e6f6e2d636f6e74726163740000006044820152606401612442565b50816126c9565b6126c983838151156128475781518083602001fd5b8060405162461bcd60e51b81526004016124429190613777565b634e487b7160e01b600052604160045260246000fd5b6040805190810167ffffffffffffffff8111828210171561289a5761289a612861565b60405290565b60405160c0810167ffffffffffffffff8111828210171561289a5761289a612861565b604051601f8201601f1916810167ffffffffffffffff811182821017156128ec576128ec612861565b604052919050565b600067ffffffffffffffff82111561290e5761290e612861565b5060051b60200190565b6001600160a01b0381168114610f4b57600080fd5b600082601f83011261293e57600080fd5b8135602061295361294e836128f4565b6128c3565b82815260059290921b8401810191818101908684111561297257600080fd5b8286015b8481101561299657803561298981612918565b8352918301918301612976565b509695505050505050565b600067ffffffffffffffff8211156129bb576129bb612861565b50601f01601f191660200190565b600082601f8301126129da57600080fd5b81356129e861294e826129a1565b8181528460208386010111156129fd57600080fd5b816020850160208301376000918101602001919091529392505050565b600080600060608486031215612a2f57600080fd5b833567ffffffffffffffff80821115612a4757600080fd5b612a538783880161292d565b94506020860135915080821115612a6957600080fd5b50612a76868287016129c9565b9250506040840135612a8781612918565b809150509250925092565b60006040828403121561198f57600080fd5b60008060608385031215612ab757600080fd5b8235612ac281612918565b9150612ad18460208501612a92565b90509250929050565b60008060408385031215612aed57600080fd5b823567ffffffffffffffff811115612b0457600080fd5b612b10858286016129c9565b9250506020830135612b2181612918565b809150509250929050565b600060208284031215612b3e57600080fd5b5035919050565b600060208284031215612b5757600080fd5b813561198881612918565b634e487b7160e01b600052602160045260246000fd5b60078110612b9657634e487b7160e01b600052602160045260246000fd5b9052565b602081016107be8284612b78565b60008060208385031215612bbb57600080fd5b823567ffffffffffffffff80821115612bd357600080fd5b818501915085601f830112612be757600080fd5b813581811115612bf657600080fd5b8660208260051b8501011115612c0b57600080fd5b60209290920196919550909350505050565b60008060408385031215612c3057600080fd5b8235612c3b81612918565b946020939093013593505050565b60005b83811015612c64578181015183820152602001612c4c565b50506000910152565b60008151808452612c85816020860160208601612c49565b601f01601f19169290920160200192915050565b6020815281511515602082015260208201511515604082015260006040830151612cc66060840182612b78565b506001600160a01b036060840151166080830152608083015160a083015260a0830151612d0a60c0840182805164ffffffffff908116835260209182015116910152565b5060c08301516101008381015280516101208401526020015160406101408401526126c9610160840182612c6d565b60008060408385031215612d4c57600080fd5b823567ffffffffffffffff80821115612d6457600080fd5b612d708683870161292d565b9350602091508185013581811115612d8757600080fd5b8501601f81018713612d9857600080fd5b8035612da661294e826128f4565b81815260059190911b82018401908481019089831115612dc557600080fd5b8584015b83811015612dfd57803586811115612de15760008081fd5b612def8c89838901016129c9565b845250918601918601612dc9565b508096505050505050509250929050565b602080825282518282018190526000919060409081850190868401855b82811015612e5957815180516001600160a01b03168552860151868501529284019290850190600101612e2b565b5091979650505050505050565b600060408284031215612e7857600080fd5b6119888383612a92565b81516001600160a01b0316815260208083015190820152604081016107be565b6020808252825182820181905260009190848201906040850190845b81811015612eda57835183529284019291840191600101612ebe565b50909695505050505050565b60008060408385031215612ef957600080fd5b82359150602083013567ffffffffffffffff811115612f1757600080fd5b612f23858286016129c9565b9150509250929050565b60008060408385031215612f4057600080fd5b823567ffffffffffffffff80821115612f5857600080fd5b612f648683870161292d565b93506020850135915080821115612f7a57600080fd5b50612f23858286016129c9565b64ffffffffff81168114610f4b57600080fd5b8135612fa581612f87565b64ffffffffff8116905081548164ffffffffff1982161783556020840135612fcc81612f87565b69ffffffffff00000000008160281b168369ffffffffffffffffffff198416171784555050505050565b6001600160a01b038316815260608101823561301181612f87565b64ffffffffff80821660208501526020850135915061302f82612f87565b808216604085015250509392505050565b634e487b7160e01b600052601160045260246000fd5b818103818111156107be576107be613040565b805161307481612918565b919050565b600082601f83011261308a57600080fd5b815161309861294e826129a1565b8181528460208386010111156130ad57600080fd5b6126c9826020830160208701612c49565b6000604082840312156130d057600080fd5b6130d8612877565b905081518152602082015167ffffffffffffffff8111156130f857600080fd5b61310484828501613079565b60208301525092915050565b60006020828403121561312257600080fd5b815167ffffffffffffffff8082111561313a57600080fd5b9083019060c0828603121561314e57600080fd5b6131566128a0565b82518152602083015161316881612918565b6020820152604083015161317b81612918565b604082015260608301518281111561319257600080fd5b61319e878286016130be565b6060830152506080830151608082015260a083015160a082015280935050505092915050565b634e487b7160e01b600052603260045260246000fd5b6001600160a01b0383168152604081016119886020830184612b78565b60006020828403121561320957600080fd5b81516001600160801b038116811461198857600080fd5b808201808211156107be576107be613040565b813561323e81612918565b6001600160a01b0381167fffffffffffffffffffffffff000000000000000000000000000000000000000083541617825550602082013560018201555050565b8051801515811461307457600080fd5b6000606082840312156132a057600080fd5b6040516060810181811067ffffffffffffffff821117156132c3576132c3612861565b6040526132cf8361327e565b81526132dd6020840161327e565b60208201526132ee6040840161327e565b60408201529392505050565b60006020828403121561330c57600080fd5b6119888261327e565b60006040828403121561332757600080fd5b61332f612877565b9050815161333c81612f87565b8152602082015161334c81612f87565b602082015292915050565b60008060008060008060e0878903121561337057600080fd5b865161337b81612918565b602088015190965061338c81612918565b945061339a6040880161327e565b9350606087015192506133b08860808901613315565b915060c087015167ffffffffffffffff8111156133cc57600080fd5b6133d889828a016130be565b9150509295509295509295565b60008060008060008060e087890312156133fe57600080fd5b865161340981612918565b955061338c6020880161327e565b600181811c9082168061342b57607f821691505b60208210810361198f57634e487b7160e01b600052602260045260246000fd5b601f82111561067b57600081815260208120601f850160051c810160208610156134725750805b601f850160051c820191505b818110156110175782815560010161347e565b815167ffffffffffffffff8111156134ab576134ab612861565b6134bf816134b98454613417565b8461344b565b602080601f8311600181146134f457600084156134dc5750858301515b600019600386901b1c1916600185901b178555611017565b600085815260208120601f198616915b8281101561352357888601518255948401946001909101908401613504565b50858210156135415787850151600019600388901b60f8161c191681555b5050505050600190811b01905550565b6040815260006135646040830185612c6d565b90506001600160a01b03831660208301529392505050565b60008060006060848603121561359157600080fd5b835161359c81612918565b6020850151909350600781106135b157600080fd5b80925050604084015190509250925092565b6000610120820190506001600160a01b038084511683528060208501511660208401526001600160801b0360408501511660408401528060608501511660608401525060808301511515608083015260a083015161363860a0840182805164ffffffffff908116835260209182015116910152565b5060c0929092015180516001600160a01b031660e0830152602001516101009091015290565b60006020828403121561367057600080fd5b5051919050565b60006020828403121561368957600080fd5b815161198881612918565b6000602082840312156136a657600080fd5b815167ffffffffffffffff808211156136be57600080fd5b9083019060c082860312156136d257600080fd5b6136da6128a0565b82518152602083015160208201526040830151828111156136fa57600080fd5b61370687828601613079565b60408301525060608301518281111561371e57600080fd5b61372a878286016130be565b60608301525061373c60808401613069565b608082015261374d60a08401613069565b60a082015295945050505050565b6000825161376d818460208701612c49565b9190910192915050565b6020815260006119886020830184612c6d56fea2646970667358221220e85d9f7befdff58a2358d6f491d83ccfb1536ef21e319e5463e5200e8a01fb0764736f6c63430008130033",
    "linkReferences": {}
  },
  "methodIdentifiers": {
    "NATIVE()": "a0cf0aea",
    "allocate(bytes,address)": "ef2920fc",
    "allocatedGrantAmount()": "e8eeb806",
    "broker()": "abff0110",
    "cancelStream(address,uint256)": "7dc14a8e",
    "changeRecipientDurations(address,(uint40,uint40))": "2b33b8dd",
    "distribute(address[],bytes,address)": "0a6f0ee9",
    "getAllRecipientStreamIds(address)": "ed66cd49",
    "getAllo()": "15cc481e",
    "getBroker()": "d1314ee0",
    "getPayouts(address[],bytes)": "ee8ea63b",
    "getPayouts(address[],bytes[])": "b2b878d0",
    "getPoolAmount()": "4ab4ba42",
    "getPoolId()": "38fff2d0",
    "getRecipient(address)": "62812a39",
    "getRecipientStatus(address)": "eb11af93",
    "getRecipientStreamId(address,uint256)": "618ca154",
    "getStatus(address)": "30ccebb5",
    "getStrategyId()": "42fda9c7",
    "grantAmountRequired()": "9be2ccf5",
    "increasePoolAmount(uint256)": "f5b0dfb7",
    "initialize(uint256,bytes)": "edd146cc",
    "isPoolActive()": "df868ed3",
    "isValidAllocator(address)": "4d31d087",
    "lockupLinear()": "37fb15c0",
    "metadataRequired()": "cb0e85a6",
    "registerRecipient(bytes,address)": "2bbe0cae",
    "registryGating()": "a647d23e",
    "setBroker((address,uint256))": "b45a3263",
    "setRecipientStatusToInReview(address[])": "39b25a9a",
    "withdraw(uint256)": "2e1a7d4d"
  },
  "storageLayout": {
    "storage": [
      {
        "astId": 3267,
        "contract": "contracts/strategies/_poc/sablier-v2/LockupLinearStrategy.sol:LockupLinearStrategy",
        "label": "poolActive",
        "offset": 0,
        "slot": "0",
        "type": "t_bool"
      },
      {
        "astId": 3269,
        "contract": "contracts/strategies/_poc/sablier-v2/LockupLinearStrategy.sol:LockupLinearStrategy",
        "label": "poolId",
        "offset": 0,
        "slot": "1",
        "type": "t_uint256"
      },
      {
        "astId": 3271,
        "contract": "contracts/strategies/_poc/sablier-v2/LockupLinearStrategy.sol:LockupLinearStrategy",
        "label": "poolAmount",
        "offset": 0,
        "slot": "2",
        "type": "t_uint256"
      },
      {
        "astId": 62206,
        "contract": "contracts/strategies/_poc/sablier-v2/LockupLinearStrategy.sol:LockupLinearStrategy",
        "label": "_status",
        "offset": 0,
        "slot": "3",
        "type": "t_uint256"
      },
      {
        "astId": 10674,
        "contract": "contracts/strategies/_poc/sablier-v2/LockupLinearStrategy.sol:LockupLinearStrategy",
        "label": "registryGating",
        "offset": 0,
        "slot": "4",
        "type": "t_bool"
      },
      {
        "astId": 10676,
        "contract": "contracts/strategies/_poc/sablier-v2/LockupLinearStrategy.sol:LockupLinearStrategy",
        "label": "metadataRequired",
        "offset": 1,
        "slot": "4",
        "type": "t_bool"
      },
      {
        "astId": 10678,
        "contract": "contracts/strategies/_poc/sablier-v2/LockupLinearStrategy.sol:LockupLinearStrategy",
        "label": "grantAmountRequired",
        "offset": 2,
        "slot": "4",
        "type": "t_bool"
      },
      {
        "astId": 10681,
        "contract": "contracts/strategies/_poc/sablier-v2/LockupLinearStrategy.sol:LockupLinearStrategy",
        "label": "lockupLinear",
        "offset": 3,
        "slot": "4",
        "type": "t_contract(ISablierV2LockupLinear)74310"
      },
      {
        "astId": 10683,
        "contract": "contracts/strategies/_poc/sablier-v2/LockupLinearStrategy.sol:LockupLinearStrategy",
        "label": "allocatedGrantAmount",
        "offset": 0,
        "slot": "5",
        "type": "t_uint256"
      },
      {
        "astId": 10687,
        "contract": "contracts/strategies/_poc/sablier-v2/LockupLinearStrategy.sol:LockupLinearStrategy",
        "label": "broker",
        "offset": 0,
        "slot": "6",
        "type": "t_struct(Broker)74341_storage"
      },
      {
        "astId": 10692,
        "contract": "contracts/strategies/_poc/sablier-v2/LockupLinearStrategy.sol:LockupLinearStrategy",
        "label": "_recipients",
        "offset": 0,
        "slot": "8",
        "type": "t_mapping(t_address,t_struct(Recipient)10715_storage)"
      },
      {
        "astId": 10697,
        "contract": "contracts/strategies/_poc/sablier-v2/LockupLinearStrategy.sol:LockupLinearStrategy",
        "label": "_recipientStreamIds",
        "offset": 0,
        "slot": "9",
        "type": "t_mapping(t_address,t_array(t_uint256)dyn_storage)"
      }
    ],
    "types": {
      "t_address": {
        "encoding": "inplace",
        "label": "address",
        "numberOfBytes": "20"
      },
      "t_array(t_uint256)dyn_storage": {
        "encoding": "dynamic_array",
        "label": "uint256[]",
        "numberOfBytes": "32",
        "base": "t_uint256"
      },
      "t_bool": {
        "encoding": "inplace",
        "label": "bool",
        "numberOfBytes": "1"
      },
      "t_contract(ISablierV2LockupLinear)74310": {
        "encoding": "inplace",
        "label": "contract ISablierV2LockupLinear",
        "numberOfBytes": "20"
      },
      "t_enum(Status)2638": {
        "encoding": "inplace",
        "label": "enum IStrategy.Status",
        "numberOfBytes": "1"
      },
      "t_mapping(t_address,t_array(t_uint256)dyn_storage)": {
        "encoding": "mapping",
        "key": "t_address",
        "label": "mapping(address => uint256[])",
        "numberOfBytes": "32",
        "value": "t_array(t_uint256)dyn_storage"
      },
      "t_mapping(t_address,t_struct(Recipient)10715_storage)": {
        "encoding": "mapping",
        "key": "t_address",
        "label": "mapping(address => struct LockupLinearStrategy.Recipient)",
        "numberOfBytes": "32",
        "value": "t_struct(Recipient)10715_storage"
      },
      "t_string_storage": {
        "encoding": "bytes",
        "label": "string",
        "numberOfBytes": "32"
      },
      "t_struct(Broker)74341_storage": {
        "encoding": "inplace",
        "label": "struct Broker",
        "numberOfBytes": "64",
        "members": [
          {
            "astId": 74337,
            "contract": "contracts/strategies/_poc/sablier-v2/LockupLinearStrategy.sol:LockupLinearStrategy",
            "label": "account",
            "offset": 0,
            "slot": "0",
            "type": "t_address"
          },
          {
            "astId": 74340,
            "contract": "contracts/strategies/_poc/sablier-v2/LockupLinearStrategy.sol:LockupLinearStrategy",
            "label": "fee",
            "offset": 0,
            "slot": "1",
            "type": "t_userDefinedValueType(UD60x18)73582"
          }
        ]
      },
      "t_struct(Durations)74493_storage": {
        "encoding": "inplace",
        "label": "struct LockupLinear.Durations",
        "numberOfBytes": "32",
        "members": [
          {
            "astId": 74490,
            "contract": "contracts/strategies/_poc/sablier-v2/LockupLinearStrategy.sol:LockupLinearStrategy",
            "label": "cliff",
            "offset": 0,
            "slot": "0",
            "type": "t_uint40"
          },
          {
            "astId": 74492,
            "contract": "contracts/strategies/_poc/sablier-v2/LockupLinearStrategy.sol:LockupLinearStrategy",
            "label": "total",
            "offset": 5,
            "slot": "0",
            "type": "t_uint40"
          }
        ]
      },
      "t_struct(Metadata)2922_storage": {
        "encoding": "inplace",
        "label": "struct Metadata",
        "numberOfBytes": "64",
        "members": [
          {
            "astId": 2918,
            "contract": "contracts/strategies/_poc/sablier-v2/LockupLinearStrategy.sol:LockupLinearStrategy",
            "label": "protocol",
            "offset": 0,
            "slot": "0",
            "type": "t_uint256"
          },
          {
            "astId": 2921,
            "contract": "contracts/strategies/_poc/sablier-v2/LockupLinearStrategy.sol:LockupLinearStrategy",
            "label": "pointer",
            "offset": 0,
            "slot": "1",
            "type": "t_string_storage"
          }
        ]
      },
      "t_struct(Recipient)10715_storage": {
        "encoding": "inplace",
        "label": "struct LockupLinearStrategy.Recipient",
        "numberOfBytes": "160",
        "members": [
          {
            "astId": 10699,
            "contract": "contracts/strategies/_poc/sablier-v2/LockupLinearStrategy.sol:LockupLinearStrategy",
            "label": "useRegistryAnchor",
            "offset": 0,
            "slot": "0",
            "type": "t_bool"
          },
          {
            "astId": 10701,
            "contract": "contracts/strategies/_poc/sablier-v2/LockupLinearStrategy.sol:LockupLinearStrategy",
            "label": "cancelable",
            "offset": 1,
            "slot": "0",
            "type": "t_bool"
          },
          {
            "astId": 10704,
            "contract": "contracts/strategies/_poc/sablier-v2/LockupLinearStrategy.sol:LockupLinearStrategy",
            "label": "recipientStatus",
            "offset": 2,
            "slot": "0",
            "type": "t_enum(Status)2638"
          },
          {
            "astId": 10706,
            "contract": "contracts/strategies/_poc/sablier-v2/LockupLinearStrategy.sol:LockupLinearStrategy",
            "label": "recipientAddress",
            "offset": 3,
            "slot": "0",
            "type": "t_address"
          },
          {
            "astId": 10708,
            "contract": "contracts/strategies/_poc/sablier-v2/LockupLinearStrategy.sol:LockupLinearStrategy",
            "label": "grantAmount",
            "offset": 0,
            "slot": "1",
            "type": "t_uint256"
          },
          {
            "astId": 10711,
            "contract": "contracts/strategies/_poc/sablier-v2/LockupLinearStrategy.sol:LockupLinearStrategy",
            "label": "durations",
            "offset": 0,
            "slot": "2",
            "type": "t_struct(Durations)74493_storage"
          },
          {
            "astId": 10714,
            "contract": "contracts/strategies/_poc/sablier-v2/LockupLinearStrategy.sol:LockupLinearStrategy",
            "label": "metadata",
            "offset": 0,
            "slot": "3",
            "type": "t_struct(Metadata)2922_storage"
          }
        ]
      },
      "t_uint256": {
        "encoding": "inplace",
        "label": "uint256",
        "numberOfBytes": "32"
      },
      "t_uint40": {
        "encoding": "inplace",
        "label": "uint40",
        "numberOfBytes": "5"
      },
      "t_userDefinedValueType(UD60x18)73582": {
        "encoding": "inplace",
        "label": "UD60x18",
        "numberOfBytes": "32"
      }
    }
  },
  "id": 23
}