{"abi":[{"type":"constructor","inputs":[{"name":"_asset","type":"address","internalType":"address"},{"name":"_strategist","type":"address","internalType":"address"},{"name":"_vaultManager","type":"address","internalType":"address"},{"name":"_name","type":"string","internalType":"string"},{"name":"_symbol","type":"string","internalType":"string"},{"name":"_depositLimit","type":"uint256","internalType":"uint256"}],"stateMutability":"nonpayable"},{"type":"function","name":"allowance","inputs":[{"name":"owner","type":"address","internalType":"address"},{"name":"spender","type":"address","internalType":"address"}],"outputs":[{"name":"","type":"uint256","internalType":"uint256"}],"stateMutability":"view"},{"type":"function","name":"approve","inputs":[{"name":"spender","type":"address","internalType":"address"},{"name":"value","type":"uint256","internalType":"uint256"}],"outputs":[{"name":"","type":"bool","internalType":"bool"}],"stateMutability":"nonpayable"},{"type":"function","name":"asset","inputs":[],"outputs":[{"name":"","type":"address","internalType":"address"}],"stateMutability":"view"},{"type":"function","name":"balanceOf","inputs":[{"name":"account","type":"address","internalType":"address"}],"outputs":[{"name":"","type":"uint256","internalType":"uint256"}],"stateMutability":"view"},{"type":"function","name":"checkDepositLimit","inputs":[{"name":"_assets","type":"uint256","internalType":"uint256"}],"outputs":[{"name":"_result","type":"bool","internalType":"bool"}],"stateMutability":"view"},{"type":"function","name":"convertToAssets","inputs":[{"name":"shares","type":"uint256","internalType":"uint256"}],"outputs":[{"name":"","type":"uint256","internalType":"uint256"}],"stateMutability":"view"},{"type":"function","name":"convertToShares","inputs":[{"name":"assets","type":"uint256","internalType":"uint256"}],"outputs":[{"name":"","type":"uint256","internalType":"uint256"}],"stateMutability":"view"},{"type":"function","name":"decimals","inputs":[],"outputs":[{"name":"","type":"uint8","internalType":"uint8"}],"stateMutability":"view"},{"type":"function","name":"deposit","inputs":[{"name":"_assets","type":"uint256","internalType":"uint256"},{"name":"_recipient","type":"address","internalType":"address"}],"outputs":[{"name":"_shares","type":"uint256","internalType":"uint256"}],"stateMutability":"nonpayable"},{"type":"function","name":"depositFunds","inputs":[],"outputs":[],"stateMutability":"nonpayable"},{"type":"function","name":"depositLimit","inputs":[],"outputs":[{"name":"","type":"uint256","internalType":"uint256"}],"stateMutability":"view"},{"type":"function","name":"forwardDustToVaultManager","inputs":[],"outputs":[],"stateMutability":"nonpayable"},{"type":"function","name":"getBrinkVaultData","inputs":[],"outputs":[{"name":"","type":"tuple[]","internalType":"struct IBrinkVault.StrategyConfig[]","components":[{"name":"strategy","type":"address","internalType":"address"},{"name":"weight","type":"uint256","internalType":"uint256"}]}],"stateMutability":"view"},{"type":"function","name":"getIsWhitelisted","inputs":[{"name":"_strategies","type":"address[]","internalType":"address[]"}],"outputs":[{"name":"_isWhitelisted","type":"bool[]","internalType":"bool[]"}],"stateMutability":"view"},{"type":"function","name":"getWhitelist","inputs":[],"outputs":[{"name":"","type":"address[]","internalType":"address[]"}],"stateMutability":"view"},{"type":"function","name":"harvest","inputs":[],"outputs":[],"stateMutability":"nonpayable"},{"type":"function","name":"initialize","inputs":[{"name":"_strategies","type":"address[]","internalType":"address[]"},{"name":"_weights","type":"uint256[]","internalType":"uint256[]"}],"outputs":[],"stateMutability":"nonpayable"},{"type":"function","name":"initialized","inputs":[],"outputs":[{"name":"","type":"bool","internalType":"bool"}],"stateMutability":"view"},{"type":"function","name":"maxDeposit","inputs":[{"name":"","type":"address","internalType":"address"}],"outputs":[{"name":"","type":"uint256","internalType":"uint256"}],"stateMutability":"view"},{"type":"function","name":"maxMint","inputs":[{"name":"","type":"address","internalType":"address"}],"outputs":[{"name":"","type":"uint256","internalType":"uint256"}],"stateMutability":"view"},{"type":"function","name":"maxRedeem","inputs":[{"name":"owner","type":"address","internalType":"address"}],"outputs":[{"name":"","type":"uint256","internalType":"uint256"}],"stateMutability":"view"},{"type":"function","name":"maxWithdraw","inputs":[{"name":"owner","type":"address","internalType":"address"}],"outputs":[{"name":"","type":"uint256","internalType":"uint256"}],"stateMutability":"view"},{"type":"function","name":"mint","inputs":[{"name":"_shares","type":"uint256","internalType":"uint256"},{"name":"_recipient","type":"address","internalType":"address"}],"outputs":[{"name":"_assets","type":"uint256","internalType":"uint256"}],"stateMutability":"nonpayable"},{"type":"function","name":"name","inputs":[],"outputs":[{"name":"","type":"string","internalType":"string"}],"stateMutability":"view"},{"type":"function","name":"numberOfStrategies","inputs":[],"outputs":[{"name":"","type":"uint256","internalType":"uint256"}],"stateMutability":"view"},{"type":"function","name":"previewDeposit","inputs":[{"name":"assets","type":"uint256","internalType":"uint256"}],"outputs":[{"name":"","type":"uint256","internalType":"uint256"}],"stateMutability":"view"},{"type":"function","name":"previewMint","inputs":[{"name":"shares","type":"uint256","internalType":"uint256"}],"outputs":[{"name":"","type":"uint256","internalType":"uint256"}],"stateMutability":"view"},{"type":"function","name":"previewRedeem","inputs":[{"name":"shares","type":"uint256","internalType":"uint256"}],"outputs":[{"name":"","type":"uint256","internalType":"uint256"}],"stateMutability":"view"},{"type":"function","name":"previewWithdraw","inputs":[{"name":"assets","type":"uint256","internalType":"uint256"}],"outputs":[{"name":"","type":"uint256","internalType":"uint256"}],"stateMutability":"view"},{"type":"function","name":"rebalance","inputs":[{"name":"_rebalanceArgs","type":"tuple","internalType":"struct IBrinkVault.RebalanceArgs","components":[{"name":"strategiesRebalanceFrom","type":"address[]","internalType":"address[]"},{"name":"weightsRebalanceFrom","type":"uint256[]","internalType":"uint256[]"},{"name":"strategiesRebalanceTo","type":"address[]","internalType":"address[]"},{"name":"weightsOfRedestribution","type":"uint256[]","internalType":"uint256[]"}]}],"outputs":[],"stateMutability":"nonpayable"},{"type":"function","name":"redeem","inputs":[{"name":"_shares","type":"uint256","internalType":"uint256"},{"name":"_recipient","type":"address","internalType":"address"},{"name":"_owner","type":"address","internalType":"address"}],"outputs":[{"name":"_assets","type":"uint256","internalType":"uint256"}],"stateMutability":"nonpayable"},{"type":"function","name":"setDepositLimit","inputs":[{"name":"_depositLimit","type":"uint256","internalType":"uint256"}],"outputs":[],"stateMutability":"nonpayable"},{"type":"function","name":"setStrategist","inputs":[{"name":"strategist_","type":"address","internalType":"address"}],"outputs":[],"stateMutability":"nonpayable"},{"type":"function","name":"setStrategy","inputs":[{"name":"_strategy","type":"address","internalType":"address"},{"name":"_isWhitelisted","type":"bool","internalType":"bool"}],"outputs":[],"stateMutability":"nonpayable"},{"type":"function","name":"setVaultManager","inputs":[{"name":"_vaultManager","type":"address","internalType":"address"}],"outputs":[],"stateMutability":"nonpayable"},{"type":"function","name":"strategist","inputs":[],"outputs":[{"name":"","type":"address","internalType":"address"}],"stateMutability":"view"},{"type":"function","name":"strategyConfigs","inputs":[{"name":"","type":"uint256","internalType":"uint256"}],"outputs":[{"name":"strategy","type":"address","internalType":"address"},{"name":"weight","type":"uint256","internalType":"uint256"}],"stateMutability":"view"},{"type":"function","name":"symbol","inputs":[],"outputs":[{"name":"","type":"string","internalType":"string"}],"stateMutability":"view"},{"type":"function","name":"totalAssets","inputs":[],"outputs":[{"name":"_totalAssets","type":"uint256","internalType":"uint256"}],"stateMutability":"view"},{"type":"function","name":"totalSupply","inputs":[],"outputs":[{"name":"","type":"uint256","internalType":"uint256"}],"stateMutability":"view"},{"type":"function","name":"transfer","inputs":[{"name":"to","type":"address","internalType":"address"},{"name":"value","type":"uint256","internalType":"uint256"}],"outputs":[{"name":"","type":"bool","internalType":"bool"}],"stateMutability":"nonpayable"},{"type":"function","name":"transferFrom","inputs":[{"name":"from","type":"address","internalType":"address"},{"name":"to","type":"address","internalType":"address"},{"name":"value","type":"uint256","internalType":"uint256"}],"outputs":[{"name":"","type":"bool","internalType":"bool"}],"stateMutability":"nonpayable"},{"type":"function","name":"vaultManager","inputs":[],"outputs":[{"name":"","type":"address","internalType":"address"}],"stateMutability":"view"},{"type":"function","name":"withdraw","inputs":[{"name":"_assets","type":"uint256","internalType":"uint256"},{"name":"_recipient","type":"address","internalType":"address"},{"name":"_owner","type":"address","internalType":"address"}],"outputs":[{"name":"_shares","type":"uint256","internalType":"uint256"}],"stateMutability":"nonpayable"},{"type":"function","name":"withdrawFunds","inputs":[],"outputs":[],"stateMutability":"nonpayable"},{"type":"event","name":"Approval","inputs":[{"name":"owner","type":"address","indexed":true,"internalType":"address"},{"name":"spender","type":"address","indexed":true,"internalType":"address"},{"name":"value","type":"uint256","indexed":false,"internalType":"uint256"}],"anonymous":false},{"type":"event","name":"Deposit","inputs":[{"name":"sender","type":"address","indexed":true,"internalType":"address"},{"name":"owner","type":"address","indexed":true,"internalType":"address"},{"name":"assets","type":"uint256","indexed":false,"internalType":"uint256"},{"name":"shares","type":"uint256","indexed":false,"internalType":"uint256"}],"anonymous":false},{"type":"event","name":"DepositFunds","inputs":[{"name":"assets","type":"uint256","indexed":false,"internalType":"uint256"}],"anonymous":false},{"type":"event","name":"DepositLimitSet","inputs":[{"name":"depositLimit","type":"uint256","indexed":false,"internalType":"uint256"}],"anonymous":false},{"type":"event","name":"Deposited","inputs":[{"name":"caller","type":"address","indexed":false,"internalType":"address"},{"name":"receiver","type":"address","indexed":false,"internalType":"address"},{"name":"assetAmount","type":"uint256","indexed":false,"internalType":"uint256"},{"name":"shares","type":"uint256","indexed":false,"internalType":"uint256"}],"anonymous":false},{"type":"event","name":"DustForwardedToPaymaster","inputs":[{"name":"dust","type":"uint256","indexed":false,"internalType":"uint256"}],"anonymous":false},{"type":"event","name":"Initialized","inputs":[{"name":"strategies","type":"address[]","indexed":false,"internalType":"address[]"},{"name":"weights","type":"uint256[]","indexed":false,"internalType":"uint256[]"}],"anonymous":false},{"type":"event","name":"RebalanceComplete","inputs":[{"name":"strategies","type":"address[]","indexed":false,"internalType":"address[]"},{"name":"finalWeights","type":"uint256[]","indexed":false,"internalType":"uint256[]"}],"anonymous":false},{"type":"event","name":"StrategistSet","inputs":[{"name":"strategist","type":"address","indexed":false,"internalType":"address"}],"anonymous":false},{"type":"event","name":"StrategyWhitelisted","inputs":[{"name":"strategy","type":"address","indexed":false,"internalType":"address"},{"name":"isWhitelisted","type":"bool","indexed":false,"internalType":"bool"}],"anonymous":false},{"type":"event","name":"Transfer","inputs":[{"name":"from","type":"address","indexed":true,"internalType":"address"},{"name":"to","type":"address","indexed":true,"internalType":"address"},{"name":"value","type":"uint256","indexed":false,"internalType":"uint256"}],"anonymous":false},{"type":"event","name":"VaultManagerSet","inputs":[{"name":"vaultManager","type":"address","indexed":false,"internalType":"address"}],"anonymous":false},{"type":"event","name":"Withdraw","inputs":[{"name":"sender","type":"address","indexed":true,"internalType":"address"},{"name":"receiver","type":"address","indexed":true,"internalType":"address"},{"name":"owner","type":"address","indexed":true,"internalType":"address"},{"name":"assets","type":"uint256","indexed":false,"internalType":"uint256"},{"name":"shares","type":"uint256","indexed":false,"internalType":"uint256"}],"anonymous":false},{"type":"event","name":"WithdrawFunds","inputs":[{"name":"assets","type":"uint256","indexed":false,"internalType":"uint256"}],"anonymous":false},{"type":"event","name":"Withdrawal","inputs":[{"name":"caller","type":"address","indexed":false,"internalType":"address"},{"name":"receiver","type":"address","indexed":false,"internalType":"address"},{"name":"assetAmount","type":"uint256","indexed":false,"internalType":"uint256"},{"name":"shares","type":"uint256","indexed":false,"internalType":"uint256"}],"anonymous":false},{"type":"error","name":"ALREADY_INITIALIZED","inputs":[]},{"type":"error","name":"ARRAY_LENGTH_MISMATCH","inputs":[]},{"type":"error","name":"CANNOT_REMOVE_LAST_STRATEGY","inputs":[]},{"type":"error","name":"CANNOT_REMOVE_NOT_EMPTY_STRATEGY","inputs":[]},{"type":"error","name":"DEPOSIT_LIMIT_EXCEEDED","inputs":[]},{"type":"error","name":"DUPLICATE_STRATEGIES_REBALANCE_TO","inputs":[]},{"type":"error","name":"DUPLICATE_STRATEGY","inputs":[{"name":"strategy","type":"address","internalType":"address"}]},{"type":"error","name":"DUPLICATE_STRATEGY_REBALANCE_FROM","inputs":[]},{"type":"error","name":"EMPTY_STRATEGY_ARRAYS","inputs":[]},{"type":"error","name":"EMPTY_WEIGHTS_REBALANCE_FROM","inputs":[]},{"type":"error","name":"ERC20InsufficientAllowance","inputs":[{"name":"spender","type":"address","internalType":"address"},{"name":"allowance","type":"uint256","internalType":"uint256"},{"name":"needed","type":"uint256","internalType":"uint256"}]},{"type":"error","name":"ERC20InsufficientBalance","inputs":[{"name":"sender","type":"address","internalType":"address"},{"name":"balance","type":"uint256","internalType":"uint256"},{"name":"needed","type":"uint256","internalType":"uint256"}]},{"type":"error","name":"ERC20InvalidApprover","inputs":[{"name":"approver","type":"address","internalType":"address"}]},{"type":"error","name":"ERC20InvalidReceiver","inputs":[{"name":"receiver","type":"address","internalType":"address"}]},{"type":"error","name":"ERC20InvalidSender","inputs":[{"name":"sender","type":"address","internalType":"address"}]},{"type":"error","name":"ERC20InvalidSpender","inputs":[{"name":"spender","type":"address","internalType":"address"}]},{"type":"error","name":"ERC4626ExceededMaxDeposit","inputs":[{"name":"receiver","type":"address","internalType":"address"},{"name":"assets","type":"uint256","internalType":"uint256"},{"name":"max","type":"uint256","internalType":"uint256"}]},{"type":"error","name":"ERC4626ExceededMaxMint","inputs":[{"name":"receiver","type":"address","internalType":"address"},{"name":"shares","type":"uint256","internalType":"uint256"},{"name":"max","type":"uint256","internalType":"uint256"}]},{"type":"error","name":"ERC4626ExceededMaxRedeem","inputs":[{"name":"owner","type":"address","internalType":"address"},{"name":"shares","type":"uint256","internalType":"uint256"},{"name":"max","type":"uint256","internalType":"uint256"}]},{"type":"error","name":"ERC4626ExceededMaxWithdraw","inputs":[{"name":"owner","type":"address","internalType":"address"},{"name":"assets","type":"uint256","internalType":"uint256"},{"name":"max","type":"uint256","internalType":"uint256"}]},{"type":"error","name":"INVALID_STRATEGY_REBALANCE_FROM","inputs":[]},{"type":"error","name":"INVALID_WEIGHTS","inputs":[]},{"type":"error","name":"NOT_VAULT_MANAGER","inputs":[]},{"type":"error","name":"NOT_VAULT_STRATEGIST","inputs":[]},{"type":"error","name":"ReentrancyGuardReentrantCall","inputs":[]},{"type":"error","name":"SLIPPAGE_TOO_HIGH","inputs":[]},{"type":"error","name":"STRATEGY_ALREADY_EXISTS","inputs":[]},{"type":"error","name":"STRATEGY_DOES_NOT_EXIST","inputs":[]},{"type":"error","name":"STRATEGY_DOES_NOT_SUPPORT_ASSET","inputs":[]},{"type":"error","name":"STRATEGY_DOES_NOT_SUPPORT_VAULT","inputs":[]},{"type":"error","name":"STRATEGY_NOT_WHITELISTED","inputs":[]},{"type":"error","name":"SafeERC20FailedOperation","inputs":[{"name":"token","type":"address","internalType":"address"}]},{"type":"error","name":"ZERO_ADDRESS","inputs":[]},{"type":"error","name":"ZERO_AMOUNT","inputs":[]},{"type":"error","name":"ZERO_STRATEGIES","inputs":[]}],"bytecode":{"object":"0x60c060405234801561000f575f5ffd5b5060405161728d38038061728d833981810160405281019061003191906104d6565b8583838160039081610043919061079e565b508060049081610053919061079e565b5050505f5f610067836101f360201b60201c565b9150915081610077576012610079565b805b60ff1660a08160ff16815250508273ffffffffffffffffffffffffffffffffffffffff1660808173ffffffffffffffffffffffffffffffffffffffff168152505050505060016005819055505f73ffffffffffffffffffffffffffffffffffffffff168573ffffffffffffffffffffffffffffffffffffffff16148061012a57505f73ffffffffffffffffffffffffffffffffffffffff168473ffffffffffffffffffffffffffffffffffffffff16145b15610161576040517f538ba4f900000000000000000000000000000000000000000000000000000000815260040160405180910390fd5b8460085f6101000a81548173ffffffffffffffffffffffffffffffffffffffff021916908373ffffffffffffffffffffffffffffffffffffffff1602179055508360095f6101000a81548173ffffffffffffffffffffffffffffffffffffffff021916908373ffffffffffffffffffffffffffffffffffffffff160217905550806007819055505050505050506108f2565b5f5f5f5f8473ffffffffffffffffffffffffffffffffffffffff1660405160240160405160208183030381529060405263313ce56760e01b6020820180517bffffffffffffffffffffffffffffffffffffffffffffffffffffffff838183161783525050505060405161026691906108b1565b5f60405180830381855afa9150503d805f811461029e576040519150601f19603f3d011682016040523d82523d5f602084013e6102a3565b606091505b50915091508180156102b757506020815110155b156102ee575f818060200190518101906102d191906108c7565b905060ff801681116102ec57600181945094505050506102f7565b505b5f5f9350935050505b915091565b5f604051905090565b5f5ffd5b5f5ffd5b5f73ffffffffffffffffffffffffffffffffffffffff82169050919050565b5f6103368261030d565b9050919050565b6103468161032c565b8114610350575f5ffd5b50565b5f815190506103618161033d565b92915050565b5f5ffd5b5f5ffd5b5f601f19601f8301169050919050565b7f4e487b71000000000000000000000000000000000000000000000000000000005f52604160045260245ffd5b6103b58261036f565b810181811067ffffffffffffffff821117156103d4576103d361037f565b5b80604052505050565b5f6103e66102fc565b90506103f282826103ac565b919050565b5f67ffffffffffffffff8211156104115761041061037f565b5b61041a8261036f565b9050602081019050919050565b8281835e5f83830152505050565b5f610447610442846103f7565b6103dd565b9050828152602081018484840111156104635761046261036b565b5b61046e848285610427565b509392505050565b5f82601f83011261048a57610489610367565b5b815161049a848260208601610435565b91505092915050565b5f819050919050565b6104b5816104a3565b81146104bf575f5ffd5b50565b5f815190506104d0816104ac565b92915050565b5f5f5f5f5f5f60c087890312156104f0576104ef610305565b5b5f6104fd89828a01610353565b965050602061050e89828a01610353565b955050604061051f89828a01610353565b945050606087015167ffffffffffffffff8111156105405761053f610309565b5b61054c89828a01610476565b935050608087015167ffffffffffffffff81111561056d5761056c610309565b5b61057989828a01610476565b92505060a061058a89828a016104c2565b9150509295509295509295565b5f81519050919050565b7f4e487b71000000000000000000000000000000000000000000000000000000005f52602260045260245ffd5b5f60028204905060018216806105e557607f821691505b6020821081036105f8576105f76105a1565b5b50919050565b5f819050815f5260205f209050919050565b5f6020601f8301049050919050565b5f82821b905092915050565b5f6008830261065a7fffffffffffffffffffffffffffffffffffffffffffffffffffffffffffffffff8261061f565b610664868361061f565b95508019841693508086168417925050509392505050565b5f819050919050565b5f61069f61069a610695846104a3565b61067c565b6104a3565b9050919050565b5f819050919050565b6106b883610685565b6106cc6106c4826106a6565b84845461062b565b825550505050565b5f5f905090565b6106e36106d4565b6106ee8184846106af565b505050565b5b81811015610711576107065f826106db565b6001810190506106f4565b5050565b601f82111561075657610727816105fe565b61073084610610565b8101602085101561073f578190505b61075361074b85610610565b8301826106f3565b50505b505050565b5f82821c905092915050565b5f6107765f198460080261075b565b1980831691505092915050565b5f61078e8383610767565b9150826002028217905092915050565b6107a782610597565b67ffffffffffffffff8111156107c0576107bf61037f565b5b6107ca82546105ce565b6107d5828285610715565b5f60209050601f831160018114610806575f84156107f4578287015190505b6107fe8582610783565b865550610865565b601f198416610814866105fe565b5f5b8281101561083b57848901518255600182019150602085019450602081019050610816565b868310156108585784890151610854601f891682610767565b8355505b6001600288020188555050505b505050505050565b5f81519050919050565b5f81905092915050565b5f61088b8261086d565b6108958185610877565b93506108a5818560208601610427565b80840191505092915050565b5f6108bc8284610881565b915081905092915050565b5f602082840312156108dc576108db610305565b5b5f6108e9848285016104c2565b91505092915050565b60805160a05161697a6109135f395f610e3701525f610e68015261697a5ff3fe608060405234801561000f575f5ffd5b506004361061027c575f3560e01c80638a4adf241161015a578063bdc8144b116100cc578063d905777e11610085578063d905777e1461080f578063dd62ed3e1461083f578063de6dd7a41461086f578063e2c41dbc1461089f578063ecf70858146108a9578063ef8b30f7146108c75761027c565b8063bdc8144b14610729578063c63d75b614610745578063c6e6f59214610775578063c7b9d530146107a5578063ce96cb77146107c1578063d01f63f5146107f15761027c565b8063a9059cbb1161011e578063a9059cbb14610631578063b3d7f6b914610661578063b460af9414610691578063b543503e146106c1578063ba087652146106dd578063baa82a341461070d5761027c565b80638a4adf241461057957806394bf804d1461059757806395d89b41146105c75780639b91d946146105e5578063a720d027146106155761027c565b806324600fc3116101f35780634cdad506116101b75780634cdad506146104a557806364bfceec146104d55780636e553f65146104df57806370a082311461050f57806374111b501461053f5780637fbbe46f1461055d5761027c565b806324600fc314610425578063313ce5671461042f57806338d52e0f1461044d578063402d267d1461046b5780634641257d1461049b5761027c565b8063095ea7b311610245578063095ea7b31461033b5780630a28a4771461036b578063158ef93e1461039b57806318160ddd146103b95780631fe4a686146103d757806323b872dd146103f55761027c565b8062e6e2d81461028057806301e1d114146102b157806306fdde03146102cf57806307a2d13a146102ed5780630956e5a61461031d575b5f5ffd5b61029a600480360381019061029591906155e0565b6108f7565b6040516102a8929190615659565b60405180910390f35b6102b9610945565b6040516102c69190615680565b60405180910390f35b6102d7610a3e565b6040516102e49190615709565b60405180910390f35b610307600480360381019061030291906155e0565b610ace565b6040516103149190615680565b60405180910390f35b610325610ae0565b6040516103329190615680565b60405180910390f35b61035560048036038101906103509190615753565b610ae6565b60405161036291906157ab565b60405180910390f35b610385600480360381019061038091906155e0565b610b08565b6040516103929190615680565b60405180910390f35b6103a3610b1b565b6040516103b091906157ab565b60405180910390f35b6103c1610b2d565b6040516103ce9190615680565b60405180910390f35b6103df610b36565b6040516103ec91906157c4565b60405180910390f35b61040f600480360381019061040a91906157dd565b610b5b565b60405161041c91906157ab565b60405180910390f35b61042d610b89565b005b610437610e2c565b6040516104449190615848565b60405180910390f35b610455610e65565b60405161046291906157c4565b60405180910390f35b61048560048036038101906104809190615861565b610e8c565b6040516104929190615680565b60405180910390f35b6104a3610eb5565b005b6104bf60048036038101906104ba91906155e0565b610f70565b6040516104cc9190615680565b60405180910390f35b6104dd610f82565b005b6104f960048036038101906104f4919061588c565b6110ae565b6040516105069190615680565b60405180910390f35b61052960048036038101906105249190615861565b61124e565b6040516105369190615680565b60405180910390f35b610547611293565b60405161055491906159bd565b60405180910390f35b61057760048036038101906105729190615a93565b61134d565b005b6105816118da565b60405161058e91906157c4565b60405180910390f35b6105b160048036038101906105ac919061588c565b6118ff565b6040516105be9190615680565b60405180910390f35b6105cf611a9f565b6040516105dc9190615709565b60405180910390f35b6105ff60048036038101906105fa9190615c49565b611b2f565b60405161060c9190615d47565b60405180910390f35b61062f600480360381019061062a9190615d89565b611bf0565b005b61064b60048036038101906106469190615753565b612375565b60405161065891906157ab565b60405180910390f35b61067b600480360381019061067691906155e0565b612397565b6040516106889190615680565b60405180910390f35b6106ab60048036038101906106a69190615dd0565b6123aa565b6040516106b89190615680565b60405180910390f35b6106db60048036038101906106d69190615861565b612528565b005b6106f760048036038101906106f29190615dd0565b61268d565b6040516107049190615680565b60405180910390f35b61072760048036038101906107229190615e4a565b61280b565b005b610743600480360381019061073e91906155e0565b6129fe565b005b61075f600480360381019061075a9190615861565b612ac5565b60405161076c9190615680565b60405180910390f35b61078f600480360381019061078a91906155e0565b612aee565b60405161079c9190615680565b60405180910390f35b6107bf60048036038101906107ba9190615861565b612b00565b005b6107db60048036038101906107d69190615861565b612c00565b6040516107e89190615680565b60405180910390f35b6107f9612c1a565b6040516108069190615f30565b60405180910390f35b61082960048036038101906108249190615861565b612c2b565b6040516108369190615680565b60405180910390f35b61085960048036038101906108549190615f50565b612c3c565b6040516108669190615680565b60405180910390f35b610889600480360381019061088491906155e0565b612cbe565b60405161089691906157ab565b60405180910390f35b6108a7612ce3565b005b6108b1612e80565b6040516108be9190615680565b60405180910390f35b6108e160048036038101906108dc91906155e0565b612e86565b6040516108ee9190615680565b60405180910390f35b600c8181548110610906575f80fd5b905f5260205f2090600202015f91509050805f015f9054906101000a900473ffffffffffffffffffffffffffffffffffffffff16908060010154905082565b5f5f60065490505f5b81811015610a1c57600c818154811061096a57610969615f8e565b5b905f5260205f2090600202015f015f9054906101000a900473ffffffffffffffffffffffffffffffffffffffff1673ffffffffffffffffffffffffffffffffffffffff1663b69ef8a86040518163ffffffff1660e01b8152600401602060405180830381865afa1580156109e0573d5f5f3e3d5ffd5b505050506040513d601f19601f82011682018060405250810190610a049190615fcf565b83610a0f9190616027565b925080600101905061094e565b50610a2d610a28610e65565b612e98565b82610a389190616027565b91505090565b606060038054610a4d90616087565b80601f0160208091040260200160405190810160405280929190818152602001828054610a7990616087565b8015610ac45780601f10610a9b57610100808354040283529160200191610ac4565b820191905f5260205f20905b815481529060010190602001808311610aa757829003601f168201915b5050505050905090565b5f610ad9825f612f62565b9050919050565b60065481565b5f5f610af0612fba565b9050610afd818585612fc1565b600191505092915050565b5f610b14826001612fd3565b9050919050565b600d5f9054906101000a900460ff1681565b5f600254905090565b60085f9054906101000a900473ffffffffffffffffffffffffffffffffffffffff1681565b5f5f610b65612fba565b9050610b7285828561302b565b610b7d8585856130be565b60019150509392505050565b3373ffffffffffffffffffffffffffffffffffffffff1660085f9054906101000a900473ffffffffffffffffffffffffffffffffffffffff1673ffffffffffffffffffffffffffffffffffffffff1614610c0f576040517fc80d5fa500000000000000000000000000000000000000000000000000000000815260040160405180910390fd5b5f600c805480602002602001604051908101604052809291908181526020015f905b82821015610cbf578382905f5260205f2090600202016040518060400160405290815f82015f9054906101000a900473ffffffffffffffffffffffffffffffffffffffff1673ffffffffffffffffffffffffffffffffffffffff1673ffffffffffffffffffffffffffffffffffffffff16815260200160018201548152505081526020019060010190610c31565b5050505090505f60065490505f5f5b82811015610de057610cde610eb5565b838181518110610cf157610cf0615f8e565b5b60200260200101515f015191505f8273ffffffffffffffffffffffffffffffffffffffff1663b69ef8a86040518163ffffffff1660e01b8152600401602060405180830381865afa158015610d48573d5f5f3e3d5ffd5b505050506040513d601f19601f82011682018060405250810190610d6c9190615fcf565b90508273ffffffffffffffffffffffffffffffffffffffff16632e1a7d4d826040518263ffffffff1660e01b8152600401610da79190615680565b5f604051808303815f87803b158015610dbe575f5ffd5b505af1158015610dd0573d5f5f3e3d5ffd5b5050505081600101915050610cce565b507fc67387b8229e689a6f1e2c3feafcfae2206a4d6e581bf95e25dbb0c934432a64610e12610e0d610e65565b612e98565b604051610e1f9190615680565b60405180910390a1505050565b5f610e356131ae565b7f0000000000000000000000000000000000000000000000000000000000000000610e6091906160b7565b905090565b5f7f0000000000000000000000000000000000000000000000000000000000000000905090565b5f7fffffffffffffffffffffffffffffffffffffffffffffffffffffffffffffffff9050919050565b5f60065490505f5b81811015610f6c57600c8181548110610ed957610ed8615f8e565b5b905f5260205f2090600202015f015f9054906101000a900473ffffffffffffffffffffffffffffffffffffffff1673ffffffffffffffffffffffffffffffffffffffff16634641257d6040518163ffffffff1660e01b81526004015f604051808303815f87803b158015610f4b575f5ffd5b505af1158015610f5d573d5f5f3e3d5ffd5b50505050806001019050610ebd565b5050565b5f610f7b825f612f62565b9050919050565b3373ffffffffffffffffffffffffffffffffffffffff1660095f9054906101000a900473ffffffffffffffffffffffffffffffffffffffff1673ffffffffffffffffffffffffffffffffffffffff1614611008576040517f9f35422e00000000000000000000000000000000000000000000000000000000815260040160405180910390fd5b5f611011610e65565b90505f61101d82612e98565b90505f81146110aa5761107260095f9054906101000a900473ffffffffffffffffffffffffffffffffffffffff16828473ffffffffffffffffffffffffffffffffffffffff166131b59092919063ffffffff16565b7f76a820ad5e56aebcfa13f60a4ec2e8453550cca0e77446a259782e547c68b32b816040516110a19190615680565b60405180910390a15b5050565b5f6110b7613234565b5f83036110f0576040517ff6fa545000000000000000000000000000000000000000000000000000000000815260040160405180910390fd5b6110f983612cbe565b61112f576040517f3cac003800000000000000000000000000000000000000000000000000000000815260040160405180910390fd5b611137610eb5565b61114083612e86565b90505f6040518060a001604052808473ffffffffffffffffffffffffffffffffffffffff1681526020018581526020018381526020016006548152602001600c805480602002602001604051908101604052809291908181526020015f905b8282101561122d578382905f5260205f2090600202016040518060400160405290815f82015f9054906101000a900473ffffffffffffffffffffffffffffffffffffffff1673ffffffffffffffffffffffffffffffffffffffff1673ffffffffffffffffffffffffffffffffffffffff1681526020016001820154815250508152602001906001019061119f565b50505050815250905061123f8161327a565b50611248613339565b92915050565b5f5f5f8373ffffffffffffffffffffffffffffffffffffffff1673ffffffffffffffffffffffffffffffffffffffff1681526020019081526020015f20549050919050565b6060600c805480602002602001604051908101604052809291908181526020015f905b82821015611344578382905f5260205f2090600202016040518060400160405290815f82015f9054906101000a900473ffffffffffffffffffffffffffffffffffffffff1673ffffffffffffffffffffffffffffffffffffffff1673ffffffffffffffffffffffffffffffffffffffff168152602001600182015481525050815260200190600101906112b6565b50505050905090565b3373ffffffffffffffffffffffffffffffffffffffff1660095f9054906101000a900473ffffffffffffffffffffffffffffffffffffffff1673ffffffffffffffffffffffffffffffffffffffff16146113d3576040517f9f35422e00000000000000000000000000000000000000000000000000000000815260040160405180910390fd5b600d5f9054906101000a900460ff1615611419576040517f439a74c900000000000000000000000000000000000000000000000000000000815260040160405180910390fd5b5f8484905090505f8103611459576040517f8c305f6d00000000000000000000000000000000000000000000000000000000815260040160405180910390fd5b828290508114611495576040517f88adebd200000000000000000000000000000000000000000000000000000000815260040160405180910390fd5b5f5f61149f615500565b5f5b84811015611831578888828181106114bc576114bb615f8e565b5b90506020020160208101906114d19190615861565b92506114db610e65565b73ffffffffffffffffffffffffffffffffffffffff168373ffffffffffffffffffffffffffffffffffffffff166338d52e0f6040518163ffffffff1660e01b8152600401602060405180830381865afa15801561153a573d5f5f3e3d5ffd5b505050506040513d601f19601f8201168201806040525081019061155e91906160ff565b73ffffffffffffffffffffffffffffffffffffffff16146115ab576040517f010fa87100000000000000000000000000000000000000000000000000000000815260040160405180910390fd5b3073ffffffffffffffffffffffffffffffffffffffff168373ffffffffffffffffffffffffffffffffffffffff1663e9d3c1546040518163ffffffff1660e01b8152600401602060405180830381865afa15801561160b573d5f5f3e3d5ffd5b505050506040513d601f19601f8201168201806040525081019061162f91906160ff565b73ffffffffffffffffffffffffffffffffffffffff161461167c576040517f1a9bf9a400000000000000000000000000000000000000000000000000000000815260040160405180910390fd5b5f6116ad8a8a8481811061169357611692615f8e565b5b90506020020160208101906116a89190615861565b613343565b905080611718578989838181106116c7576116c6615f8e565b5b90506020020160208101906116dc9190615861565b6040517f0e23e61500000000000000000000000000000000000000000000000000000000815260040161170f91906157c4565b60405180910390fd5b60405180604001604052808b8b8581811061173657611735615f8e565b5b905060200201602081019061174b9190615861565b73ffffffffffffffffffffffffffffffffffffffff16815260200189898581811061177957611778615f8e565b5b905060200201358152509250600c83908060018154018082558091505060019003905f5260205f2090600202015f909190919091505f820151815f015f6101000a81548173ffffffffffffffffffffffffffffffffffffffff021916908373ffffffffffffffffffffffffffffffffffffffff16021790555060208201518160010155505087878381811061181157611810615f8e565b5b90506020020135856118239190616027565b9450508060010190506114a1565b50612710831461186d576040517fa667b0b800000000000000000000000000000000000000000000000000000000815260040160405180910390fd5b600c805490506006819055506001600d5f6101000a81548160ff0219169083151502179055507fab8addcb3e4c6388fadb3059c28a92327ce30ea8c442e6c45e9caaddb4466faf888888886040516118c89493929190616228565b60405180910390a15050505050505050565b60095f9054906101000a900473ffffffffffffffffffffffffffffffffffffffff1681565b5f611908613234565b611910610eb5565b61191983612397565b90505f8103611954576040517ff6fa545000000000000000000000000000000000000000000000000000000000815260040160405180910390fd5b61195d81612cbe565b611993576040517f3cac003800000000000000000000000000000000000000000000000000000000815260040160405180910390fd5b5f6040518060a001604052808473ffffffffffffffffffffffffffffffffffffffff1681526020018381526020018581526020016006548152602001600c805480602002602001604051908101604052809291908181526020015f905b82821015611a7e578382905f5260205f2090600202016040518060400160405290815f82015f9054906101000a900473ffffffffffffffffffffffffffffffffffffffff1673ffffffffffffffffffffffffffffffffffffffff1673ffffffffffffffffffffffffffffffffffffffff168152602001600182015481525050815260200190600101906119f0565b505050508152509050611a908161327a565b50611a99613339565b92915050565b606060048054611aae90616087565b80601f0160208091040260200160405190810160405280929190818152602001828054611ada90616087565b8015611b255780601f10611afc57610100808354040283529160200191611b25565b820191905f5260205f20905b815481529060010190602001808311611b0857829003601f168201915b5050505050905090565b60605f825190508067ffffffffffffffff811115611b5057611b4f615b11565b5b604051908082528060200260200182016040528015611b7e5781602001602082028036833780820191505090505b5091505f5b81811015611be957611bb9848281518110611ba157611ba0615f8e565b5b6020026020010151600a61335f90919063ffffffff16565b838281518110611bcc57611bcb615f8e565b5b602002602001019015159081151581525050806001019050611b83565b5050919050565b3373ffffffffffffffffffffffffffffffffffffffff1660085f9054906101000a900473ffffffffffffffffffffffffffffffffffffffff1673ffffffffffffffffffffffffffffffffffffffff1614611c76576040517fc80d5fa500000000000000000000000000000000000000000000000000000000815260040160405180910390fd5b5f81805f0190611c86919061626d565b905090505f828060200190611c9b91906162cf565b905090505f838060400190611cb0919061626d565b905090505f8203611ced576040517f7eacd5f800000000000000000000000000000000000000000000000000000000815260040160405180910390fd5b5f811480611cfa57505f83145b15611d31576040517ff9184e4a00000000000000000000000000000000000000000000000000000000815260040160405180910390fd5b8183141580611d515750838060600190611d4b91906162cf565b90508114155b15611d88576040517f88adebd200000000000000000000000000000000000000000000000000000000815260040160405180910390fd5b5f5f60065490505f5b85811015611e75575f5b82811015611e6957600c8181548110611db757611db6615f8e565b5b905f5260205f2090600202015f015f9054906101000a900473ffffffffffffffffffffffffffffffffffffffff1673ffffffffffffffffffffffffffffffffffffffff1688805f0190611e0a919061626d565b84818110611e1b57611e1a615f8e565b5b9050602002016020810190611e309190615861565b73ffffffffffffffffffffffffffffffffffffffff1603611e5e578380611e5690616331565b945050611e69565b806001019050611d9b565b50806001019050611d91565b50848214611eaf576040517f090f7d9000000000000000000000000000000000000000000000000000000000815260040160405180910390fd5b50505f600190505b83811015611fa35784805f0190611ece919061626d565b600183611edb9190616378565b818110611eeb57611eea615f8e565b5b9050602002016020810190611f009190615861565b73ffffffffffffffffffffffffffffffffffffffff1685805f0190611f25919061626d565b83818110611f3657611f35615f8e565b5b9050602002016020810190611f4b9190615861565b73ffffffffffffffffffffffffffffffffffffffff1611611f98576040517f9829a6c400000000000000000000000000000000000000000000000000000000815260040160405180910390fd5b806001019050611eb7565b505f5b8181101561212257600181101580156120615750848060400190611fca919061626d565b600183611fd79190616378565b818110611fe757611fe6615f8e565b5b9050602002016020810190611ffc9190615861565b73ffffffffffffffffffffffffffffffffffffffff16858060400190612022919061626d565b8381811061203357612032615f8e565b5b90506020020160208101906120489190615861565b73ffffffffffffffffffffffffffffffffffffffff1611155b15612098576040517ffa6979a900000000000000000000000000000000000000000000000000000000815260040160405180910390fd5b6120e18580604001906120ab919061626d565b838181106120bc576120bb615f8e565b5b90506020020160208101906120d19190615861565b600a61335f90919063ffffffff16565b612117576040517f698d01d600000000000000000000000000000000000000000000000000000000815260040160405180910390fd5b806001019050611fa6565b505f8367ffffffffffffffff81111561213e5761213d615b11565b5b60405190808252806020026020018201604052801561217757816020015b612164615500565b81526020019060019003908161215c5790505b5090505f5f90505b8481101561223657604051806040016040528087805f01906121a1919061626d565b848181106121b2576121b1615f8e565b5b90506020020160208101906121c79190615861565b73ffffffffffffffffffffffffffffffffffffffff1681526020018780602001906121f291906162cf565b8481811061220357612202615f8e565b5b905060200201358152508282815181106122205761221f615f8e565b5b602002602001018190525080600101905061217f565b505f6040518060c001604052803073ffffffffffffffffffffffffffffffffffffffff1681526020013073ffffffffffffffffffffffffffffffffffffffff1681526020015f81526020015f815260200187805f0190612296919061626d565b905081526020018381525090505f6122bc826080015183604001518460a001515f61338c565b90505f6122e78880604001906122d2919061626d565b8a80606001906122e291906162cf565b61386d565b90505f6122f383612e86565b90505f6040518060a001604052803073ffffffffffffffffffffffffffffffffffffffff1681526020018581526020018381526020018b8060400190612339919061626d565b9050815260200184815250905061235f816060015182602001518360800151600161338c565b5061236983613a50565b50505050505050505050565b5f5f61237f612fba565b905061238c8185856130be565b600191505092915050565b5f6123a3826001612f62565b9050919050565b5f6123b3613234565b5f84036123ec576040517ff6fa545000000000000000000000000000000000000000000000000000000000815260040160405180910390fd5b6123f4610eb5565b6123fd84610b08565b90505f6040518060c001604052808573ffffffffffffffffffffffffffffffffffffffff1681526020018473ffffffffffffffffffffffffffffffffffffffff1681526020018681526020018381526020016006548152602001600c805480602002602001604051908101604052809291908181526020015f905b82821015612506578382905f5260205f2090600202016040518060400160405290815f82015f9054906101000a900473ffffffffffffffffffffffffffffffffffffffff1673ffffffffffffffffffffffffffffffffffffffff1673ffffffffffffffffffffffffffffffffffffffff16815260200160018201548152505081526020019060010190612478565b50505050815250905061251881614350565b50612521613339565b9392505050565b3373ffffffffffffffffffffffffffffffffffffffff1660095f9054906101000a900473ffffffffffffffffffffffffffffffffffffffff1673ffffffffffffffffffffffffffffffffffffffff16146125ae576040517f9f35422e00000000000000000000000000000000000000000000000000000000815260040160405180910390fd5b5f73ffffffffffffffffffffffffffffffffffffffff168173ffffffffffffffffffffffffffffffffffffffff1603612613576040517f538ba4f900000000000000000000000000000000000000000000000000000000815260040160405180910390fd5b8060095f6101000a81548173ffffffffffffffffffffffffffffffffffffffff021916908373ffffffffffffffffffffffffffffffffffffffff1602179055507f8e902340d35762a5a36507c20fe38e5d549a721d9f846d6de7f397b5c26ab8538160405161268291906157c4565b60405180910390a150565b5f612696613234565b61269f84610f70565b90505f81036126da576040517ff6fa545000000000000000000000000000000000000000000000000000000000815260040160405180910390fd5b6126e2610eb5565b5f6040518060c001604052808573ffffffffffffffffffffffffffffffffffffffff1681526020018473ffffffffffffffffffffffffffffffffffffffff1681526020018381526020018681526020016006548152602001600c805480602002602001604051908101604052809291908181526020015f905b828210156127e9578382905f5260205f2090600202016040518060400160405290815f82015f9054906101000a900473ffffffffffffffffffffffffffffffffffffffff1673ffffffffffffffffffffffffffffffffffffffff1673ffffffffffffffffffffffffffffffffffffffff1681526020016001820154815250508152602001906001019061275b565b5050505081525090506127fb81614350565b50612804613339565b9392505050565b3373ffffffffffffffffffffffffffffffffffffffff1660095f9054906101000a900473ffffffffffffffffffffffffffffffffffffffff1673ffffffffffffffffffffffffffffffffffffffff1614612891576040517f9f35422e00000000000000000000000000000000000000000000000000000000815260040160405180910390fd5b5f6128a683600a61335f90919063ffffffff16565b9050811515811515146129f95781156128c8576128c283613343565b506129bf565b5f8373ffffffffffffffffffffffffffffffffffffffff1663b69ef8a86040518163ffffffff1660e01b8152600401602060405180830381865afa158015612912573d5f5f3e3d5ffd5b505050506040513d601f19601f820116820180604052508101906129369190615fcf565b90505f8114612971576040517f3caedbaa00000000000000000000000000000000000000000000000000000000815260040160405180910390fd5b600161297d600a614456565b036129b4576040517f16b0551b00000000000000000000000000000000000000000000000000000000815260040160405180910390fd5b6129bd84614469565b505b7f8bec79f539f27f15b7cbae2d61ec86cf9788feb3166ac06d6ae2cd4d3d06c2f583836040516129f09291906163ab565b60405180910390a15b505050565b3373ffffffffffffffffffffffffffffffffffffffff1660095f9054906101000a900473ffffffffffffffffffffffffffffffffffffffff1673ffffffffffffffffffffffffffffffffffffffff1614612a84576040517f9f35422e00000000000000000000000000000000000000000000000000000000815260040160405180910390fd5b806007819055507f5d2e73196f8ba1b44e887e2bcc9bcd1f3e657add341d4a0a632ffff00d6903f281604051612aba9190615680565b60405180910390a150565b5f7fffffffffffffffffffffffffffffffffffffffffffffffffffffffffffffffff9050919050565b5f612af9825f612fd3565b9050919050565b3373ffffffffffffffffffffffffffffffffffffffff1660095f9054906101000a900473ffffffffffffffffffffffffffffffffffffffff1673ffffffffffffffffffffffffffffffffffffffff1614612b86576040517f9f35422e00000000000000000000000000000000000000000000000000000000815260040160405180910390fd5b8060085f6101000a81548173ffffffffffffffffffffffffffffffffffffffff021916908373ffffffffffffffffffffffffffffffffffffffff1602179055507f276625620b877c2ddc0a05d68b81971639085fa26d23dfa86eec6460e6fac5b981604051612bf591906157c4565b60405180910390a150565b5f612c13612c0d8361124e565b5f612f62565b9050919050565b6060612c26600a614481565b905090565b5f612c358261124e565b9050919050565b5f60015f8473ffffffffffffffffffffffffffffffffffffffff1673ffffffffffffffffffffffffffffffffffffffff1681526020019081526020015f205f8373ffffffffffffffffffffffffffffffffffffffff1673ffffffffffffffffffffffffffffffffffffffff1681526020019081526020015f2054905092915050565b5f5f612cc95f612e98565b90506007548184612cda9190616027565b10915050919050565b3373ffffffffffffffffffffffffffffffffffffffff1660085f9054906101000a900473ffffffffffffffffffffffffffffffffffffffff1673ffffffffffffffffffffffffffffffffffffffff1614612d69576040517fc80d5fa500000000000000000000000000000000000000000000000000000000815260040160405180910390fd5b5f612d7a612d75610e65565b612e98565b9050612e3d60065482600c805480602002602001604051908101604052809291908181526020015f905b82821015612e32578382905f5260205f2090600202016040518060400160405290815f82015f9054906101000a900473ffffffffffffffffffffffffffffffffffffffff1673ffffffffffffffffffffffffffffffffffffffff1673ffffffffffffffffffffffffffffffffffffffff16815260200160018201548152505081526020019060010190612da4565b50505050600161338c565b507fea9d44aea9d9b19064c11e8d92087621b04bda9bc740e82436a7cd583ffa7a90612e685f612e98565b604051612e759190615680565b60405180910390a150565b60075481565b5f612e91825f612fd3565b9050919050565b5f5f73ffffffffffffffffffffffffffffffffffffffff168273ffffffffffffffffffffffffffffffffffffffff1614612f49578173ffffffffffffffffffffffffffffffffffffffff166370a08231306040518263ffffffff1660e01b8152600401612f0591906157c4565b602060405180830381865afa158015612f20573d5f5f3e3d5ffd5b505050506040513d601f19601f82011682018060405250810190612f449190615fcf565b612f5b565b612f5a612f54610b2d565b5f612f62565b5b9050919050565b5f612fb26001612f70610945565b612f7a9190616027565b612f826131ae565b600a612f8e9190616501565b612f96610b2d565b612fa09190616027565b84866144a0909392919063ffffffff16565b905092915050565b5f33905090565b612fce83838360016144ed565b505050565b5f613023612fdf6131ae565b600a612feb9190616501565b612ff3610b2d565b612ffd9190616027565b6001613007610945565b6130119190616027565b84866144a0909392919063ffffffff16565b905092915050565b5f6130368484612c3c565b90507fffffffffffffffffffffffffffffffffffffffffffffffffffffffffffffffff8110156130b857818110156130a9578281836040517ffb8f41b20000000000000000000000000000000000000000000000000000000081526004016130a09392919061654b565b60405180910390fd5b6130b784848484035f6144ed565b5b50505050565b5f73ffffffffffffffffffffffffffffffffffffffff168373ffffffffffffffffffffffffffffffffffffffff160361312e575f6040517f96c6fd1e00000000000000000000000000000000000000000000000000000000815260040161312591906157c4565b60405180910390fd5b5f73ffffffffffffffffffffffffffffffffffffffff168273ffffffffffffffffffffffffffffffffffffffff160361319e575f6040517fec442f0500000000000000000000000000000000000000000000000000000000815260040161319591906157c4565b60405180910390fd5b6131a98383836146bc565b505050565b5f5f905090565b61322f838473ffffffffffffffffffffffffffffffffffffffff1663a9059cbb85856040516024016131e8929190615659565b604051602081830303815290604052915060e01b6020820180517bffffffffffffffffffffffffffffffffffffffffffffffffffffffff83818316178352505050506148d5565b505050565b600260055403613270576040517f3ee5aeb500000000000000000000000000000000000000000000000000000000815260040160405180910390fd5b6002600581905550565b5f613283612fba565b90505f61328e610e65565b90506132c1823085602001518473ffffffffffffffffffffffffffffffffffffffff16614970909392919063ffffffff16565b6132da836060015184602001518560800151600161338c565b506132ec835f015184604001516149f2565b7ff5681f9d0db1b911ac18ee83d515a1cf1051853a9eae418316a2fdf7dea427c582845f01518560200151866040015160405161332c9493929190616580565b60405180910390a1505050565b6001600581905550565b5f61335882600a614a7190919063ffffffff16565b9050919050565b5f613384835f018373ffffffffffffffffffffffffffffffffffffffff165f1b614a9e565b905092915050565b5f5f613396610e65565b90505f8190505f8767ffffffffffffffff8111156133b7576133b6615b11565b5b6040519080825280602002602001820160405280156133e55781602001602082028036833780820191505090505b5090505f851561364c575f5b898110156136465787818151811061340c5761340b615f8e565b5b60200260200101515f0151915061345088828151811061342f5761342e615f8e565b5b6020026020010151602001516127105f8c6144a0909392919063ffffffff16565b83828151811061346357613462615f8e565b5b6020026020010181815250506134b48284838151811061348657613485615f8e565b5b60200260200101518673ffffffffffffffffffffffffffffffffffffffff16614abe9092919063ffffffff16565b61350e6040518060400160405280601681526020017f5f6465706f73697420257320616d6f756e743a202565000000000000000000008152508285848151811061350157613500615f8e565b5b6020026020010151614b57565b8173ffffffffffffffffffffffffffffffffffffffff16633540302384838151811061353d5761353c615f8e565b5b60200260200101516040518263ffffffff1660e01b81526004016135619190615680565b5f604051808303815f87803b158015613578575f5ffd5b505af115801561358a573d5f5f3e3d5ffd5b505050505f8473ffffffffffffffffffffffffffffffffffffffff1663dd62ed3e30856040518363ffffffff1660e01b81526004016135ca9291906165c3565b602060405180830381865afa1580156135e5573d5f5f3e3d5ffd5b505050506040513d601f19601f820116820180604052508101906136099190615fcf565b111561363b5761363a825f8673ffffffffffffffffffffffffffffffffffffffff16614bf69092919063ffffffff16565b5b8060010190506133f1565b50613861565b5f61365685612e98565b90505f5f5b8b8110156138385789818151811061367657613675615f8e565b5b60200260200101515f015193508a91505f8b036136fd578373ffffffffffffffffffffffffffffffffffffffff1663b69ef8a86040518163ffffffff1660e01b8152600401602060405180830381865afa1580156136d6573d5f5f3e3d5ffd5b505050506040513d601f19601f820116820180604052508101906136fa9190615fcf565b91505b6137348a828151811061371357613712615f8e565b5b6020026020010151602001516127105f856144a0909392919063ffffffff16565b85828151811061374757613746615f8e565b5b6020026020010181815250506137ad6040518060400160405280601781526020017f5f776974686472617720257320616d6f756e743a202565000000000000000000815250828784815181106137a05761379f615f8e565b5b6020026020010151614b57565b8373ffffffffffffffffffffffffffffffffffffffff16632e1a7d4d8683815181106137dc576137db615f8e565b5b60200260200101516040518263ffffffff1660e01b81526004016138009190615680565b5f604051808303815f87803b158015613817575f5ffd5b505af1158015613829573d5f5f3e3d5ffd5b5050505080600101905061365b565b505f61384387612e98565b905082816138519190616378565b975061385d8b89614d03565b5050505b50505050949350505050565b60605f5f8484905090505f5b818110156138bb575f86868381811061389557613894615f8e565b5b90506020020135146138b05782806138ac90616331565b9350505b806001019050613879565b508167ffffffffffffffff8111156138d6576138d5615b11565b5b60405190808252806020026020018201604052801561390f57816020015b6138fc615500565b8152602001906001900390816138f45790505b5092505f5f5f5b83811015613a08575f88888381811061393257613931615f8e565b5b90506020020135146139fd5760405180604001604052808b8b8481811061395c5761395b615f8e565b5b90506020020160208101906139719190615861565b73ffffffffffffffffffffffffffffffffffffffff16815260200189898481811061399f5761399e615f8e565b5b905060200201358152508684815181106139bc576139bb615f8e565b5b60200260200101819052508787828181106139da576139d9615f8e565b5b90506020020135826139ec9190616027565b915082806139f990616331565b9350505b806001019050613916565b506127108114613a44576040517fa667b0b800000000000000000000000000000000000000000000000000000000815260040160405180910390fd5b50505050949350505050565b5f600c805480602002602001604051908101604052809291908181526020015f905b82821015613b00578382905f5260205f2090600202016040518060400160405290815f82015f9054906101000a900473ffffffffffffffffffffffffffffffffffffffff1673ffffffffffffffffffffffffffffffffffffffff1673ffffffffffffffffffffffffffffffffffffffff16815260200160018201548152505081526020019060010190613a72565b5050505090505f613b0f610e65565b90505f835190505f835190505f8203613b54576040517f8c305f6d00000000000000000000000000000000000000000000000000000000815260040160405180910390fd5b5f5f90505f5b82811015613c43575f5f90505f5b85811015613bf157888181518110613b8357613b82615f8e565b5b60200260200101515f015173ffffffffffffffffffffffffffffffffffffffff16888481518110613bb757613bb6615f8e565b5b60200260200101515f015173ffffffffffffffffffffffffffffffffffffffff1603613be65760019150613bf1565b806001019050613b68565b5080158015613c235750613c21878381518110613c1157613c10615f8e565b5b60200260200101515f0151614df6565b155b15613c37578280613c3390616331565b9350505b81600101915050613b5a565b505f8184613c519190616027565b90505f8167ffffffffffffffff811115613c6e57613c6d615b11565b5b604051908082528060200260200182016040528015613ca757816020015b613c94615500565b815260200190600190039081613c8c5790505b5090505f5b85811015613cf857888181518110613cc757613cc6615f8e565b5b6020026020010151828281518110613ce257613ce1615f8e565b5b6020026020010181905250806001019050613cac565b505f8590505f5b85811015613e46575f5f90505f5b88811015613d96578b8181518110613d2857613d27615f8e565b5b60200260200101515f015173ffffffffffffffffffffffffffffffffffffffff168b8481518110613d5c57613d5b615f8e565b5b60200260200101515f015173ffffffffffffffffffffffffffffffffffffffff1603613d8b5760019150613d96565b806001019050613d0d565b5080158015613dc85750613dc68a8381518110613db657613db5615f8e565b5b60200260200101515f0151614df6565b155b15613e3a5760405180604001604052808b8481518110613deb57613dea615f8e565b5b60200260200101515f015173ffffffffffffffffffffffffffffffffffffffff1681526020015f815250848481518110613e2857613e27615f8e565b5b60200260200101819052508260010192505b81600101915050613cff565b505f5f90505f5b848110156140c7575f848281518110613e6957613e68615f8e565b5b60200260200101515f015190508973ffffffffffffffffffffffffffffffffffffffff168173ffffffffffffffffffffffffffffffffffffffff166338d52e0f6040518163ffffffff1660e01b8152600401602060405180830381865afa158015613ed6573d5f5f3e3d5ffd5b505050506040513d601f19601f82011682018060405250810190613efa91906160ff565b73ffffffffffffffffffffffffffffffffffffffff1614613f47576040517f010fa87100000000000000000000000000000000000000000000000000000000815260040160405180910390fd5b3073ffffffffffffffffffffffffffffffffffffffff168173ffffffffffffffffffffffffffffffffffffffff1663e9d3c1546040518163ffffffff1660e01b8152600401602060405180830381865afa158015613fa7573d5f5f3e3d5ffd5b505050506040513d601f19601f82011682018060405250810190613fcb91906160ff565b73ffffffffffffffffffffffffffffffffffffffff1614614018576040517f1a9bf9a400000000000000000000000000000000000000000000000000000000815260040160405180910390fd5b5f8173ffffffffffffffffffffffffffffffffffffffff1663b69ef8a86040518163ffffffff1660e01b8152600401602060405180830381865afa158015614062573d5f5f3e3d5ffd5b505050506040513d601f19601f820116820180604052508101906140869190615fcf565b90508086848151811061409c5761409b615f8e565b5b6020026020010151602001818152505080846140b89190616027565b93508260010192505050613e4d565b505f8111156141bf575f5f90505f5b6001866140e39190616378565b81101561417b57614121612710845f88858151811061410557614104615f8e565b5b6020026020010151602001516144a0909392919063ffffffff16565b85828151811061413457614133615f8e565b5b6020026020010151602001818152505084818151811061415757614156615f8e565b5b6020026020010151602001518261416e9190616027565b91508060010190506140d6565b508061271061418a9190616378565b846001876141989190616378565b815181106141a9576141a8615f8e565b5b602002602001015160200181815250505061423b565b5f846127106141ce9190616617565b90505f856127106141df9190616647565b90505f5b86811015614237578181106141f8575f6141fb565b60015b60ff16836142099190616027565b86828151811061421c5761421b615f8e565b5b602002602001015160200181815250508060010190506141e3565b5050505b600c5f614248919061552e565b5f5f90505b848110156142f357600c84828151811061426a57614269615f8e565b5b6020026020010151908060018154018082558091505060019003905f5260205f2090600202015f909190919091505f820151815f015f6101000a81548173ffffffffffffffffffffffffffffffffffffffff021916908373ffffffffffffffffffffffffffffffffffffffff16021790555060208201518160010155505080600101905061424d565b50836006819055507fb4ea704c0ca1f1317ac7737b8105ac22eb9e9d7f6bbf36b335784817e2ecc43c61432584614e6d565b61432e85614f46565b60405161433c92919061670f565b60405180910390a150505050505050505050565b5f614359612fba565b90505f614364610e65565b90505f61437f846080015185604001518660a001515f61338c565b9050836020015173ffffffffffffffffffffffffffffffffffffffff168373ffffffffffffffffffffffffffffffffffffffff16146143cc576143cb846020015184866060015161302b565b5b6143de84602001518560600151614ff2565b61440c845f0151828473ffffffffffffffffffffffffffffffffffffffff166131b59092919063ffffffff16565b7fc2b4a290c20fb28939d29f102514fbffd2b73c059ffba8b78250c94161d5fcc683855f01518387606001516040516144489493929190616580565b60405180910390a150505050565b5f614462825f01615071565b9050919050565b61447d81600a61508090919063ffffffff16565b5050565b60605f61448f835f016150ad565b905060608190508092505050919050565b5f6144ce6144ad83615106565b80156144c957505f84806144c4576144c36165ea565b5b868809115b615133565b6144d986868661513e565b6144e39190616027565b9050949350505050565b5f73ffffffffffffffffffffffffffffffffffffffff168473ffffffffffffffffffffffffffffffffffffffff160361455d575f6040517fe602df0500000000000000000000000000000000000000000000000000000000815260040161455491906157c4565b60405180910390fd5b5f73ffffffffffffffffffffffffffffffffffffffff168373ffffffffffffffffffffffffffffffffffffffff16036145cd575f6040517f94280d620000000000000000000000000000000000000000000000000000000081526004016145c491906157c4565b60405180910390fd5b8160015f8673ffffffffffffffffffffffffffffffffffffffff1673ffffffffffffffffffffffffffffffffffffffff1681526020019081526020015f205f8573ffffffffffffffffffffffffffffffffffffffff1673ffffffffffffffffffffffffffffffffffffffff1681526020019081526020015f208190555080156146b6578273ffffffffffffffffffffffffffffffffffffffff168473ffffffffffffffffffffffffffffffffffffffff167f8c5be1e5ebec7d5bd14f71427d1e84f3dd0314c0f7b2291e5b200ac8c7c3b925846040516146ad9190615680565b60405180910390a35b50505050565b5f73ffffffffffffffffffffffffffffffffffffffff168373ffffffffffffffffffffffffffffffffffffffff160361470c578060025f8282546147009190616027565b925050819055506147da565b5f5f5f8573ffffffffffffffffffffffffffffffffffffffff1673ffffffffffffffffffffffffffffffffffffffff1681526020019081526020015f2054905081811015614795578381836040517fe450d38c00000000000000000000000000000000000000000000000000000000815260040161478c9392919061654b565b60405180910390fd5b8181035f5f8673ffffffffffffffffffffffffffffffffffffffff1673ffffffffffffffffffffffffffffffffffffffff1681526020019081526020015f2081905550505b5f73ffffffffffffffffffffffffffffffffffffffff168273ffffffffffffffffffffffffffffffffffffffff1603614821578060025f828254039250508190555061486b565b805f5f8473ffffffffffffffffffffffffffffffffffffffff1673ffffffffffffffffffffffffffffffffffffffff1681526020019081526020015f205f82825401925050819055505b8173ffffffffffffffffffffffffffffffffffffffff168373ffffffffffffffffffffffffffffffffffffffff167fddf252ad1be2c89b69c2b068fc378daa952ba7f163c4a11628f55a4df523b3ef836040516148c89190615680565b60405180910390a3505050565b5f5f60205f8451602086015f885af1806148f4576040513d5f823e3d81fd5b3d92505f519150505f821461490d576001811415614928565b5f8473ffffffffffffffffffffffffffffffffffffffff163b145b1561496a57836040517f5274afe700000000000000000000000000000000000000000000000000000000815260040161496191906157c4565b60405180910390fd5b50505050565b6149ec848573ffffffffffffffffffffffffffffffffffffffff166323b872dd8686866040516024016149a593929190616744565b604051602081830303815290604052915060e01b6020820180517bffffffffffffffffffffffffffffffffffffffffffffffffffffffff83818316178352505050506148d5565b50505050565b5f73ffffffffffffffffffffffffffffffffffffffff168273ffffffffffffffffffffffffffffffffffffffff1603614a62575f6040517fec442f05000000000000000000000000000000000000000000000000000000008152600401614a5991906157c4565b60405180910390fd5b614a6d5f83836146bc565b5050565b5f614a96835f018373ffffffffffffffffffffffffffffffffffffffff165f1b61521d565b905092915050565b5f5f836001015f8481526020019081526020015f20541415905092915050565b5f8373ffffffffffffffffffffffffffffffffffffffff1663dd62ed3e30856040518363ffffffff1660e01b8152600401614afa9291906165c3565b602060405180830381865afa158015614b15573d5f5f3e3d5ffd5b505050506040513d601f19601f82011682018060405250810190614b399190615fcf565b9050614b5184848484614b4c9190616027565b614bf6565b50505050565b614bf1838383604051602401614b6f93929190616779565b6040516020818303038152906040527fca47c4eb000000000000000000000000000000000000000000000000000000007bffffffffffffffffffffffffffffffffffffffffffffffffffffffff19166020820180517bffffffffffffffffffffffffffffffffffffffffffffffffffffffff8381831617835250505050615284565b505050565b5f8373ffffffffffffffffffffffffffffffffffffffff1663095ea7b38484604051602401614c26929190615659565b604051602081830303815290604052915060e01b6020820180517bffffffffffffffffffffffffffffffffffffffffffffffffffffffff83818316178352505050509050614c74848261529e565b614cfd57614cf2848573ffffffffffffffffffffffffffffffffffffffff1663095ea7b3865f604051602401614cab9291906167f7565b604051602081830303815290604052915060e01b6020820180517bffffffffffffffffffffffffffffffffffffffffffffffffffffffff83818316178352505050506148d5565b614cfc84826148d5565b5b50505050565b5f818311614d11575f614d36565b826127108385614d219190616378565b614d2b919061681e565b614d359190616617565b5b90506064811115614df157614d806040518060400160405280600c81526020017f65787065637465643a2025650000000000000000000000000000000000000000815250846152f7565b614dbf6040518060400160405280600a81526020017f61637475616c3a20256500000000000000000000000000000000000000000000815250836152f7565b6040517f04a6523300000000000000000000000000000000000000000000000000000000815260040160405180910390fd5b505050565b5f5f8273ffffffffffffffffffffffffffffffffffffffff1663b69ef8a86040518163ffffffff1660e01b8152600401602060405180830381865afa158015614e41573d5f5f3e3d5ffd5b505050506040513d601f19601f82011682018060405250810190614e659190615fcf565b149050919050565b60605f825190508067ffffffffffffffff811115614e8e57614e8d615b11565b5b604051908082528060200260200182016040528015614ebc5781602001602082028036833780820191505090505b5091505f5b81811015614f3f57838181518110614edc57614edb615f8e565b5b60200260200101515f0151838281518110614efa57614ef9615f8e565b5b602002602001019073ffffffffffffffffffffffffffffffffffffffff16908173ffffffffffffffffffffffffffffffffffffffff1681525050806001019050614ec1565b5050919050565b60605f825190508067ffffffffffffffff811115614f6757614f66615b11565b5b604051908082528060200260200182016040528015614f955781602001602082028036833780820191505090505b5091505f5b81811015614feb57838181518110614fb557614fb4615f8e565b5b602002602001015160200151838281518110614fd457614fd3615f8e565b5b602002602001018181525050806001019050614f9a565b5050919050565b5f73ffffffffffffffffffffffffffffffffffffffff168273ffffffffffffffffffffffffffffffffffffffff1603615062575f6040517f96c6fd1e00000000000000000000000000000000000000000000000000000000815260040161505991906157c4565b60405180910390fd5b61506d825f836146bc565b5050565b5f815f01805490509050919050565b5f6150a5835f018373ffffffffffffffffffffffffffffffffffffffff165f1b615393565b905092915050565b6060815f018054806020026020016040519081016040528092919081815260200182805480156150fa57602002820191905f5260205f20905b8154815260200190600101908083116150e6575b50505050509050919050565b5f6001600283600381111561511e5761511d61685f565b5b615128919061688c565b60ff16149050919050565b5f8115159050919050565b5f5f5f61514b868661548f565b915091505f820361517057838181615166576151656165ea565b5b0492505050615216565b81841161518f5761518e6151895f8614601260116154ac565b6154c5565b5b5f8486880990508181118303925080820391505f855f038616905080860495508083049250600181825f0304019050808402831792505f600287600302189050808702600203810290508087026002038102905080870260020381029050808702600203810290508087026002038102905080870260020381029050808402955050505050505b9392505050565b5f6152288383614a9e565b61527a57825f0182908060018154018082558091505060019003905f5260205f20015f9091909190915055825f0180549050836001015f8481526020019081526020015f20819055506001905061527e565b5f90505b92915050565b61529b816152936154d66154f5565b63ffffffff16565b50565b5f5f5f5f60205f8651602088015f8a5af192503d91505f5190508280156152ec57505f82146152d057600181146152eb565b5f8673ffffffffffffffffffffffffffffffffffffffff163b115b5b935050505092915050565b61538f828260405160240161530d9291906168bc565b6040516020818303038152906040527fb60e72cc000000000000000000000000000000000000000000000000000000007bffffffffffffffffffffffffffffffffffffffffffffffffffffffff19166020820180517bffffffffffffffffffffffffffffffffffffffffffffffffffffffff8381831617835250505050615284565b5050565b5f5f836001015f8481526020019081526020015f205490505f8114615484575f6001826153c09190616378565b90505f6001865f01805490506153d69190616378565b905080821461543c575f865f0182815481106153f5576153f4615f8e565b5b905f5260205f200154905080875f01848154811061541657615415615f8e565b5b905f5260205f20018190555083876001015f8381526020019081526020015f2081905550505b855f0180548061544f5761544e6168ea565b5b600190038181905f5260205f20015f90559055856001015f8681526020019081526020015f205f905560019350505050615489565b5f9150505b92915050565b5f5f5f198385098385029150818110828203039250509250929050565b5f6154b684615133565b82841802821890509392505050565b634e487b715f52806020526024601cfd5b5f6a636f6e736f6c652e6c6f6790505f5f835160208501845afa505050565b61554f819050919050565b60405180604001604052805f73ffffffffffffffffffffffffffffffffffffffff1681526020015f81525090565b5080545f8255600202905f5260205f209081019061554c9190615559565b50565b615557616917565b565b5b80821115615598575f5f82015f6101000a81549073ffffffffffffffffffffffffffffffffffffffff0219169055600182015f90555060020161555a565b5090565b5f604051905090565b5f5ffd5b5f5ffd5b5f819050919050565b6155bf816155ad565b81146155c9575f5ffd5b50565b5f813590506155da816155b6565b92915050565b5f602082840312156155f5576155f46155a5565b5b5f615602848285016155cc565b91505092915050565b5f73ffffffffffffffffffffffffffffffffffffffff82169050919050565b5f6156348261560b565b9050919050565b6156448161562a565b82525050565b615653816155ad565b82525050565b5f60408201905061566c5f83018561563b565b615679602083018461564a565b9392505050565b5f6020820190506156935f83018461564a565b92915050565b5f81519050919050565b5f82825260208201905092915050565b8281835e5f83830152505050565b5f601f19601f8301169050919050565b5f6156db82615699565b6156e581856156a3565b93506156f58185602086016156b3565b6156fe816156c1565b840191505092915050565b5f6020820190508181035f83015261572181846156d1565b905092915050565b6157328161562a565b811461573c575f5ffd5b50565b5f8135905061574d81615729565b92915050565b5f5f60408385031215615769576157686155a5565b5b5f6157768582860161573f565b9250506020615787858286016155cc565b9150509250929050565b5f8115159050919050565b6157a581615791565b82525050565b5f6020820190506157be5f83018461579c565b92915050565b5f6020820190506157d75f83018461563b565b92915050565b5f5f5f606084860312156157f4576157f36155a5565b5b5f6158018682870161573f565b93505060206158128682870161573f565b9250506040615823868287016155cc565b9150509250925092565b5f60ff82169050919050565b6158428161582d565b82525050565b5f60208201905061585b5f830184615839565b92915050565b5f60208284031215615876576158756155a5565b5b5f6158838482850161573f565b91505092915050565b5f5f604083850312156158a2576158a16155a5565b5b5f6158af858286016155cc565b92505060206158c08582860161573f565b9150509250929050565b5f81519050919050565b5f82825260208201905092915050565b5f819050602082019050919050565b6158fc8161562a565b82525050565b61590b816155ad565b82525050565b604082015f8201516159255f8501826158f3565b5060208201516159386020850182615902565b50505050565b5f6159498383615911565b60408301905092915050565b5f602082019050919050565b5f61596b826158ca565b61597581856158d4565b9350615980836158e4565b805f5b838110156159b0578151615997888261593e565b97506159a283615955565b925050600181019050615983565b5085935050505092915050565b5f6020820190508181035f8301526159d58184615961565b905092915050565b5f5ffd5b5f5ffd5b5f5ffd5b5f5f83601f8401126159fe576159fd6159dd565b5b8235905067ffffffffffffffff811115615a1b57615a1a6159e1565b5b602083019150836020820283011115615a3757615a366159e5565b5b9250929050565b5f5f83601f840112615a5357615a526159dd565b5b8235905067ffffffffffffffff811115615a7057615a6f6159e1565b5b602083019150836020820283011115615a8c57615a8b6159e5565b5b9250929050565b5f5f5f5f60408587031215615aab57615aaa6155a5565b5b5f85013567ffffffffffffffff811115615ac857615ac76155a9565b5b615ad4878288016159e9565b9450945050602085013567ffffffffffffffff811115615af757615af66155a9565b5b615b0387828801615a3e565b925092505092959194509250565b7f4e487b71000000000000000000000000000000000000000000000000000000005f52604160045260245ffd5b615b47826156c1565b810181811067ffffffffffffffff82111715615b6657615b65615b11565b5b80604052505050565b5f615b7861559c565b9050615b848282615b3e565b919050565b5f67ffffffffffffffff821115615ba357615ba2615b11565b5b602082029050602081019050919050565b5f615bc6615bc184615b89565b615b6f565b90508083825260208201905060208402830185811115615be957615be86159e5565b5b835b81811015615c125780615bfe888261573f565b845260208401935050602081019050615beb565b5050509392505050565b5f82601f830112615c3057615c2f6159dd565b5b8135615c40848260208601615bb4565b91505092915050565b5f60208284031215615c5e57615c5d6155a5565b5b5f82013567ffffffffffffffff811115615c7b57615c7a6155a9565b5b615c8784828501615c1c565b91505092915050565b5f81519050919050565b5f82825260208201905092915050565b5f819050602082019050919050565b615cc281615791565b82525050565b5f615cd38383615cb9565b60208301905092915050565b5f602082019050919050565b5f615cf582615c90565b615cff8185615c9a565b9350615d0a83615caa565b805f5b83811015615d3a578151615d218882615cc8565b9750615d2c83615cdf565b925050600181019050615d0d565b5085935050505092915050565b5f6020820190508181035f830152615d5f8184615ceb565b905092915050565b5f5ffd5b5f60808284031215615d8057615d7f615d67565b5b81905092915050565b5f60208284031215615d9e57615d9d6155a5565b5b5f82013567ffffffffffffffff811115615dbb57615dba6155a9565b5b615dc784828501615d6b565b91505092915050565b5f5f5f60608486031215615de757615de66155a5565b5b5f615df4868287016155cc565b9350506020615e058682870161573f565b9250506040615e168682870161573f565b9150509250925092565b615e2981615791565b8114615e33575f5ffd5b50565b5f81359050615e4481615e20565b92915050565b5f5f60408385031215615e6057615e5f6155a5565b5b5f615e6d8582860161573f565b9250506020615e7e85828601615e36565b9150509250929050565b5f81519050919050565b5f82825260208201905092915050565b5f819050602082019050919050565b5f615ebc83836158f3565b60208301905092915050565b5f602082019050919050565b5f615ede82615e88565b615ee88185615e92565b9350615ef383615ea2565b805f5b83811015615f23578151615f0a8882615eb1565b9750615f1583615ec8565b925050600181019050615ef6565b5085935050505092915050565b5f6020820190508181035f830152615f488184615ed4565b905092915050565b5f5f60408385031215615f6657615f656155a5565b5b5f615f738582860161573f565b9250506020615f848582860161573f565b9150509250929050565b7f4e487b71000000000000000000000000000000000000000000000000000000005f52603260045260245ffd5b5f81519050615fc9816155b6565b92915050565b5f60208284031215615fe457615fe36155a5565b5b5f615ff184828501615fbb565b91505092915050565b7f4e487b71000000000000000000000000000000000000000000000000000000005f52601160045260245ffd5b5f616031826155ad565b915061603c836155ad565b925082820190508082111561605457616053615ffa565b5b92915050565b7f4e487b71000000000000000000000000000000000000000000000000000000005f52602260045260245ffd5b5f600282049050600182168061609e57607f821691505b6020821081036160b1576160b061605a565b5b50919050565b5f6160c18261582d565b91506160cc8361582d565b9250828201905060ff8111156160e5576160e4615ffa565b5b92915050565b5f815190506160f981615729565b92915050565b5f60208284031215616114576161136155a5565b5b5f616121848285016160eb565b91505092915050565b5f819050919050565b5f616141602084018461573f565b905092915050565b5f602082019050919050565b5f6161608385615e92565b935061616b8261612a565b805f5b858110156161a3576161808284616133565b61618a8882615eb1565b975061619583616149565b92505060018101905061616e565b5085925050509392505050565b5f82825260208201905092915050565b5f5ffd5b82818337505050565b5f6161d883856161b0565b93507f07ffffffffffffffffffffffffffffffffffffffffffffffffffffffffffffff83111561620b5761620a6161c0565b5b60208302925061621c8385846161c4565b82840190509392505050565b5f6040820190508181035f830152616241818688616155565b905081810360208301526162568184866161cd565b905095945050505050565b5f5ffd5b5f5ffd5b5f5ffd5b5f5f8335600160200384360303811261628957616288616261565b5b80840192508235915067ffffffffffffffff8211156162ab576162aa616265565b5b6020830192506020820236038313156162c7576162c6616269565b5b509250929050565b5f5f833560016020038436030381126162eb576162ea616261565b5b80840192508235915067ffffffffffffffff82111561630d5761630c616265565b5b60208301925060208202360383131561632957616328616269565b5b509250929050565b5f61633b826155ad565b91507fffffffffffffffffffffffffffffffffffffffffffffffffffffffffffffffff820361636d5761636c615ffa565b5b600182019050919050565b5f616382826155ad565b915061638d836155ad565b92508282039050818111156163a5576163a4615ffa565b5b92915050565b5f6040820190506163be5f83018561563b565b6163cb602083018461579c565b9392505050565b5f8160011c9050919050565b5f5f8291508390505b60018511156164275780860481111561640357616402615ffa565b5b60018516156164125780820291505b8081029050616420856163d2565b94506163e7565b94509492505050565b5f8261643f57600190506164fa565b8161644c575f90506164fa565b8160018114616462576002811461646c5761649b565b60019150506164fa565b60ff84111561647e5761647d615ffa565b5b8360020a91508482111561649557616494615ffa565b5b506164fa565b5060208310610133831016604e8410600b84101617156164d05782820a9050838111156164cb576164ca615ffa565b5b6164fa565b6164dd84848460016163de565b925090508184048111156164f4576164f3615ffa565b5b81810290505b9392505050565b5f61650b826155ad565b91506165168361582d565b92506165437fffffffffffffffffffffffffffffffffffffffffffffffffffffffffffffffff8484616430565b905092915050565b5f60608201905061655e5f83018661563b565b61656b602083018561564a565b616578604083018461564a565b949350505050565b5f6080820190506165935f83018761563b565b6165a0602083018661563b565b6165ad604083018561564a565b6165ba606083018461564a565b95945050505050565b5f6040820190506165d65f83018561563b565b6165e3602083018461563b565b9392505050565b7f4e487b71000000000000000000000000000000000000000000000000000000005f52601260045260245ffd5b5f616621826155ad565b915061662c836155ad565b92508261663c5761663b6165ea565b5b828204905092915050565b5f616651826155ad565b915061665c836155ad565b92508261666c5761666b6165ea565b5b828206905092915050565b5f81519050919050565b5f819050602082019050919050565b5f61669b8383615902565b60208301905092915050565b5f602082019050919050565b5f6166bd82616677565b6166c781856161b0565b93506166d283616681565b805f5b838110156167025781516166e98882616690565b97506166f4836166a7565b9250506001810190506166d5565b5085935050505092915050565b5f6040820190508181035f8301526167278185615ed4565b9050818103602083015261673b81846166b3565b90509392505050565b5f6060820190506167575f83018661563b565b616764602083018561563b565b616771604083018461564a565b949350505050565b5f6060820190508181035f83015261679181866156d1565b90506167a0602083018561564a565b6167ad604083018461564a565b949350505050565b5f819050919050565b5f819050919050565b5f6167e16167dc6167d7846167b5565b6167be565b6155ad565b9050919050565b6167f1816167c7565b82525050565b5f60408201905061680a5f83018561563b565b61681760208301846167e8565b9392505050565b5f616828826155ad565b9150616833836155ad565b9250828202616841816155ad565b9150828204841483151761685857616857615ffa565b5b5092915050565b7f4e487b71000000000000000000000000000000000000000000000000000000005f52602160045260245ffd5b5f6168968261582d565b91506168a18361582d565b9250826168b1576168b06165ea565b5b828206905092915050565b5f6040820190508181035f8301526168d481856156d1565b90506168e3602083018461564a565b9392505050565b7f4e487b71000000000000000000000000000000000000000000000000000000005f52603160045260245ffd5b7f4e487b71000000000000000000000000000000000000000000000000000000005f52605160045260245ffdfea2646970667358221220e0d8b8fc0143db576cda319dd33bec63b523f2a836041a7b2c946657d25512e364736f6c634300081c0033","linkReferences":{}},"methodIdentifiers":{"allowance(address,address)":"dd62ed3e","approve(address,uint256)":"095ea7b3","asset()":"38d52e0f","balanceOf(address)":"70a08231","checkDepositLimit(uint256)":"de6dd7a4","convertToAssets(uint256)":"07a2d13a","convertToShares(uint256)":"c6e6f592","decimals()":"313ce567","deposit(uint256,address)":"6e553f65","depositFunds()":"e2c41dbc","depositLimit()":"ecf70858","forwardDustToVaultManager()":"64bfceec","getBrinkVaultData()":"74111b50","getIsWhitelisted(address[])":"9b91d946","getWhitelist()":"d01f63f5","harvest()":"4641257d","initialize(address[],uint256[])":"7fbbe46f","initialized()":"158ef93e","maxDeposit(address)":"402d267d","maxMint(address)":"c63d75b6","maxRedeem(address)":"d905777e","maxWithdraw(address)":"ce96cb77","mint(uint256,address)":"94bf804d","name()":"06fdde03","numberOfStrategies()":"0956e5a6","previewDeposit(uint256)":"ef8b30f7","previewMint(uint256)":"b3d7f6b9","previewRedeem(uint256)":"4cdad506","previewWithdraw(uint256)":"0a28a477","rebalance((address[],uint256[],address[],uint256[]))":"a720d027","redeem(uint256,address,address)":"ba087652","setDepositLimit(uint256)":"bdc8144b","setStrategist(address)":"c7b9d530","setStrategy(address,bool)":"baa82a34","setVaultManager(address)":"b543503e","strategist()":"1fe4a686","strategyConfigs(uint256)":"00e6e2d8","symbol()":"95d89b41","totalAssets()":"01e1d114","totalSupply()":"18160ddd","transfer(address,uint256)":"a9059cbb","transferFrom(address,address,uint256)":"23b872dd","vaultManager()":"8a4adf24","withdraw(uint256,address,address)":"b460af94","withdrawFunds()":"24600fc3"},"id":1}