{
  "abi": [
    {
      "inputs": [
        {
          "internalType": "address",
          "name": "_allo",
          "type": "address"
        },
        {
          "internalType": "string",
          "name": "_name",
          "type": "string"
        }
      ],
      "stateMutability": "nonpayable",
      "type": "constructor"
    },
    {
      "inputs": [],
      "name": "ALLOCATION_ACTIVE",
      "type": "error"
    },
    {
      "inputs": [],
      "name": "ALLOCATION_NOT_ACTIVE",
      "type": "error"
    },
    {
      "inputs": [],
      "name": "ALLOCATION_NOT_ENDED",
      "type": "error"
    },
    {
      "inputs": [],
      "name": "ALREADY_INITIALIZED",
      "type": "error"
    },
    {
      "inputs": [],
      "name": "AMOUNT_MISMATCH",
      "type": "error"
    },
    {
      "inputs": [],
      "name": "ANCHOR_ERROR",
      "type": "error"
    },
    {
      "inputs": [],
      "name": "ARRAY_MISMATCH",
      "type": "error"
    },
    {
      "inputs": [],
      "name": "INVALID",
      "type": "error"
    },
    {
      "inputs": [],
      "name": "INVALID_ADDRESS",
      "type": "error"
    },
    {
      "inputs": [],
      "name": "INVALID_FEE",
      "type": "error"
    },
    {
      "inputs": [],
      "name": "INVALID_METADATA",
      "type": "error"
    },
    {
      "inputs": [],
      "name": "INVALID_REGISTRATION",
      "type": "error"
    },
    {
      "inputs": [],
      "name": "IS_APPROVED_STRATEGY",
      "type": "error"
    },
    {
      "inputs": [],
      "name": "MISMATCH",
      "type": "error"
    },
    {
      "inputs": [],
      "name": "NONCE_NOT_AVAILABLE",
      "type": "error"
    },
    {
      "inputs": [],
      "name": "NOT_APPROVED_STRATEGY",
      "type": "error"
    },
    {
      "inputs": [],
      "name": "NOT_ENOUGH_FUNDS",
      "type": "error"
    },
    {
      "inputs": [],
      "name": "NOT_INITIALIZED",
      "type": "error"
    },
    {
      "inputs": [],
      "name": "NOT_PENDING_OWNER",
      "type": "error"
    },
    {
      "inputs": [],
      "name": "POOL_ACTIVE",
      "type": "error"
    },
    {
      "inputs": [],
      "name": "POOL_INACTIVE",
      "type": "error"
    },
    {
      "inputs": [],
      "name": "RECIPIENT_ALREADY_ACCEPTED",
      "type": "error"
    },
    {
      "inputs": [
        {
          "internalType": "address",
          "name": "recipientId",
          "type": "address"
        }
      ],
      "name": "RECIPIENT_ERROR",
      "type": "error"
    },
    {
      "inputs": [],
      "name": "RECIPIENT_NOT_ACCEPTED",
      "type": "error"
    },
    {
      "inputs": [],
      "name": "REGISTRATION_NOT_ACTIVE",
      "type": "error"
    },
    {
      "inputs": [],
      "name": "UNAUTHORIZED",
      "type": "error"
    },
    {
      "inputs": [],
      "name": "ZERO_ADDRESS",
      "type": "error"
    },
    {
      "anonymous": false,
      "inputs": [
        {
          "indexed": true,
          "internalType": "address",
          "name": "recipientId",
          "type": "address"
        },
        {
          "indexed": false,
          "internalType": "uint256",
          "name": "amount",
          "type": "uint256"
        },
        {
          "indexed": false,
          "internalType": "address",
          "name": "token",
          "type": "address"
        },
        {
          "indexed": false,
          "internalType": "address",
          "name": "sender",
          "type": "address"
        }
      ],
      "name": "Allocated",
      "type": "event"
    },
    {
      "anonymous": false,
      "inputs": [
        {
          "indexed": true,
          "internalType": "address",
          "name": "recipientId",
          "type": "address"
        },
        {
          "indexed": false,
          "internalType": "address",
          "name": "recipientAddress",
          "type": "address"
        },
        {
          "indexed": false,
          "internalType": "uint256",
          "name": "amount",
          "type": "uint256"
        },
        {
          "indexed": false,
          "internalType": "address",
          "name": "token",
          "type": "address"
        }
      ],
      "name": "Claimed",
      "type": "event"
    },
    {
      "anonymous": false,
      "inputs": [
        {
          "indexed": true,
          "internalType": "address",
          "name": "recipientId",
          "type": "address"
        },
        {
          "indexed": false,
          "internalType": "address",
          "name": "recipientAddress",
          "type": "address"
        },
        {
          "indexed": false,
          "internalType": "uint256",
          "name": "amount",
          "type": "uint256"
        },
        {
          "indexed": false,
          "internalType": "address",
          "name": "sender",
          "type": "address"
        }
      ],
      "name": "Distributed",
      "type": "event"
    },
    {
      "anonymous": false,
      "inputs": [
        {
          "indexed": false,
          "internalType": "address",
          "name": "allo",
          "type": "address"
        },
        {
          "indexed": false,
          "internalType": "bytes32",
          "name": "profileId",
          "type": "bytes32"
        },
        {
          "indexed": false,
          "internalType": "uint256",
          "name": "poolId",
          "type": "uint256"
        },
        {
          "indexed": false,
          "internalType": "bytes",
          "name": "data",
          "type": "bytes"
        }
      ],
      "name": "Initialized",
      "type": "event"
    },
    {
      "anonymous": false,
      "inputs": [
        {
          "indexed": false,
          "internalType": "bytes",
          "name": "recipientIds",
          "type": "bytes"
        }
      ],
      "name": "PayoutSet",
      "type": "event"
    },
    {
      "anonymous": false,
      "inputs": [
        {
          "indexed": false,
          "internalType": "bool",
          "name": "active",
          "type": "bool"
        }
      ],
      "name": "PoolActive",
      "type": "event"
    },
    {
      "anonymous": false,
      "inputs": [
        {
          "indexed": true,
          "internalType": "address",
          "name": "recipientId",
          "type": "address"
        },
        {
          "indexed": false,
          "internalType": "enum IStrategy.Status",
          "name": "recipientStatus",
          "type": "uint8"
        },
        {
          "indexed": false,
          "internalType": "address",
          "name": "sender",
          "type": "address"
        }
      ],
      "name": "RecipientStatusUpdated",
      "type": "event"
    },
    {
      "anonymous": false,
      "inputs": [
        {
          "indexed": true,
          "internalType": "address",
          "name": "recipientId",
          "type": "address"
        },
        {
          "indexed": false,
          "internalType": "bytes",
          "name": "data",
          "type": "bytes"
        },
        {
          "indexed": false,
          "internalType": "address",
          "name": "sender",
          "type": "address"
        }
      ],
      "name": "Registered",
      "type": "event"
    },
    {
      "anonymous": false,
      "inputs": [
        {
          "indexed": false,
          "internalType": "uint64",
          "name": "registrationStartTime",
          "type": "uint64"
        },
        {
          "indexed": false,
          "internalType": "uint64",
          "name": "registrationEndTime",
          "type": "uint64"
        },
        {
          "indexed": false,
          "internalType": "uint64",
          "name": "allocationStartTime",
          "type": "uint64"
        },
        {
          "indexed": false,
          "internalType": "uint64",
          "name": "allocationEndTime",
          "type": "uint64"
        },
        {
          "indexed": false,
          "internalType": "address",
          "name": "sender",
          "type": "address"
        }
      ],
      "name": "TimestampsUpdated",
      "type": "event"
    },
    {
      "anonymous": false,
      "inputs": [
        {
          "indexed": true,
          "internalType": "address",
          "name": "recipientId",
          "type": "address"
        },
        {
          "indexed": false,
          "internalType": "bytes",
          "name": "data",
          "type": "bytes"
        },
        {
          "indexed": false,
          "internalType": "address",
          "name": "sender",
          "type": "address"
        },
        {
          "indexed": false,
          "internalType": "enum IStrategy.Status",
          "name": "status",
          "type": "uint8"
        }
      ],
      "name": "UpdatedRegistration",
      "type": "event"
    },
    {
      "inputs": [],
      "name": "NATIVE",
      "outputs": [
        {
          "internalType": "address",
          "name": "",
          "type": "address"
        }
      ],
      "stateMutability": "view",
      "type": "function"
    },
    {
      "inputs": [
        {
          "internalType": "bytes",
          "name": "_data",
          "type": "bytes"
        },
        {
          "internalType": "address",
          "name": "_sender",
          "type": "address"
        }
      ],
      "name": "allocate",
      "outputs": [],
      "stateMutability": "payable",
      "type": "function"
    },
    {
      "inputs": [],
      "name": "allocationEndTime",
      "outputs": [
        {
          "internalType": "uint64",
          "name": "",
          "type": "uint64"
        }
      ],
      "stateMutability": "view",
      "type": "function"
    },
    {
      "inputs": [],
      "name": "allocationStartTime",
      "outputs": [
        {
          "internalType": "uint64",
          "name": "",
          "type": "uint64"
        }
      ],
      "stateMutability": "view",
      "type": "function"
    },
    {
      "inputs": [
        {
          "internalType": "address",
          "name": "",
          "type": "address"
        }
      ],
      "name": "allowedTokens",
      "outputs": [
        {
          "internalType": "bool",
          "name": "",
          "type": "bool"
        }
      ],
      "stateMutability": "view",
      "type": "function"
    },
    {
      "inputs": [
        {
          "components": [
            {
              "internalType": "address",
              "name": "recipientId",
              "type": "address"
            },
            {
              "internalType": "address",
              "name": "token",
              "type": "address"
            }
          ],
          "internalType": "struct DonationVotingStrategy.Claim[]",
          "name": "_claims",
          "type": "tuple[]"
        }
      ],
      "name": "claim",
      "outputs": [],
      "stateMutability": "nonpayable",
      "type": "function"
    },
    {
      "inputs": [
        {
          "internalType": "address",
          "name": "",
          "type": "address"
        },
        {
          "internalType": "address",
          "name": "",
          "type": "address"
        }
      ],
      "name": "claims",
      "outputs": [
        {
          "internalType": "uint256",
          "name": "",
          "type": "uint256"
        }
      ],
      "stateMutability": "view",
      "type": "function"
    },
    {
      "inputs": [
        {
          "internalType": "address[]",
          "name": "_recipientIds",
          "type": "address[]"
        },
        {
          "internalType": "bytes",
          "name": "_data",
          "type": "bytes"
        },
        {
          "internalType": "address",
          "name": "_sender",
          "type": "address"
        }
      ],
      "name": "distribute",
      "outputs": [],
      "stateMutability": "nonpayable",
      "type": "function"
    },
    {
      "inputs": [],
      "name": "getAllo",
      "outputs": [
        {
          "internalType": "contract IAllo",
          "name": "",
          "type": "address"
        }
      ],
      "stateMutability": "view",
      "type": "function"
    },
    {
      "inputs": [
        {
          "internalType": "address[]",
          "name": "_recipientIds",
          "type": "address[]"
        },
        {
          "internalType": "bytes[]",
          "name": "_data",
          "type": "bytes[]"
        }
      ],
      "name": "getPayouts",
      "outputs": [
        {
          "components": [
            {
              "internalType": "address",
              "name": "recipientAddress",
              "type": "address"
            },
            {
              "internalType": "uint256",
              "name": "amount",
              "type": "uint256"
            }
          ],
          "internalType": "struct IStrategy.PayoutSummary[]",
          "name": "",
          "type": "tuple[]"
        }
      ],
      "stateMutability": "view",
      "type": "function"
    },
    {
      "inputs": [],
      "name": "getPoolAmount",
      "outputs": [
        {
          "internalType": "uint256",
          "name": "",
          "type": "uint256"
        }
      ],
      "stateMutability": "view",
      "type": "function"
    },
    {
      "inputs": [],
      "name": "getPoolId",
      "outputs": [
        {
          "internalType": "uint256",
          "name": "",
          "type": "uint256"
        }
      ],
      "stateMutability": "view",
      "type": "function"
    },
    {
      "inputs": [
        {
          "internalType": "address",
          "name": "_recipientId",
          "type": "address"
        }
      ],
      "name": "getRecipient",
      "outputs": [
        {
          "components": [
            {
              "internalType": "bool",
              "name": "useRegistryAnchor",
              "type": "bool"
            },
            {
              "internalType": "address",
              "name": "recipientAddress",
              "type": "address"
            },
            {
              "components": [
                {
                  "internalType": "uint256",
                  "name": "protocol",
                  "type": "uint256"
                },
                {
                  "internalType": "string",
                  "name": "pointer",
                  "type": "string"
                }
              ],
              "internalType": "struct Metadata",
              "name": "metadata",
              "type": "tuple"
            },
            {
              "internalType": "enum IStrategy.Status",
              "name": "recipientStatus",
              "type": "uint8"
            }
          ],
          "internalType": "struct DonationVotingStrategy.Recipient",
          "name": "",
          "type": "tuple"
        }
      ],
      "stateMutability": "view",
      "type": "function"
    },
    {
      "inputs": [
        {
          "internalType": "address",
          "name": "_recipientId",
          "type": "address"
        }
      ],
      "name": "getRecipientStatus",
      "outputs": [
        {
          "internalType": "enum IStrategy.Status",
          "name": "",
          "type": "uint8"
        }
      ],
      "stateMutability": "view",
      "type": "function"
    },
    {
      "inputs": [],
      "name": "getStrategyId",
      "outputs": [
        {
          "internalType": "bytes32",
          "name": "",
          "type": "bytes32"
        }
      ],
      "stateMutability": "view",
      "type": "function"
    },
    {
      "inputs": [
        {
          "internalType": "uint256",
          "name": "_amount",
          "type": "uint256"
        }
      ],
      "name": "increasePoolAmount",
      "outputs": [],
      "stateMutability": "nonpayable",
      "type": "function"
    },
    {
      "inputs": [
        {
          "internalType": "uint256",
          "name": "_poolId",
          "type": "uint256"
        },
        {
          "internalType": "bytes",
          "name": "_data",
          "type": "bytes"
        }
      ],
      "name": "initialize",
      "outputs": [],
      "stateMutability": "nonpayable",
      "type": "function"
    },
    {
      "inputs": [],
      "name": "isPoolActive",
      "outputs": [
        {
          "internalType": "bool",
          "name": "",
          "type": "bool"
        }
      ],
      "stateMutability": "view",
      "type": "function"
    },
    {
      "inputs": [
        {
          "internalType": "address",
          "name": "_allocator",
          "type": "address"
        }
      ],
      "name": "isValidAllocator",
      "outputs": [
        {
          "internalType": "bool",
          "name": "",
          "type": "bool"
        }
      ],
      "stateMutability": "view",
      "type": "function"
    },
    {
      "inputs": [],
      "name": "metadataRequired",
      "outputs": [
        {
          "internalType": "bool",
          "name": "",
          "type": "bool"
        }
      ],
      "stateMutability": "view",
      "type": "function"
    },
    {
      "inputs": [
        {
          "internalType": "address",
          "name": "",
          "type": "address"
        }
      ],
      "name": "payoutSummaries",
      "outputs": [
        {
          "internalType": "address",
          "name": "recipientAddress",
          "type": "address"
        },
        {
          "internalType": "uint256",
          "name": "amount",
          "type": "uint256"
        }
      ],
      "stateMutability": "view",
      "type": "function"
    },
    {
      "inputs": [
        {
          "internalType": "bytes",
          "name": "_data",
          "type": "bytes"
        },
        {
          "internalType": "address",
          "name": "_sender",
          "type": "address"
        }
      ],
      "name": "registerRecipient",
      "outputs": [
        {
          "internalType": "address",
          "name": "recipientId",
          "type": "address"
        }
      ],
      "stateMutability": "payable",
      "type": "function"
    },
    {
      "inputs": [],
      "name": "registrationEndTime",
      "outputs": [
        {
          "internalType": "uint64",
          "name": "",
          "type": "uint64"
        }
      ],
      "stateMutability": "view",
      "type": "function"
    },
    {
      "inputs": [],
      "name": "registrationStartTime",
      "outputs": [
        {
          "internalType": "uint64",
          "name": "",
          "type": "uint64"
        }
      ],
      "stateMutability": "view",
      "type": "function"
    },
    {
      "inputs": [
        {
          "internalType": "address[]",
          "name": "_recipientIds",
          "type": "address[]"
        },
        {
          "internalType": "enum IStrategy.Status[]",
          "name": "_recipientStatuses",
          "type": "uint8[]"
        }
      ],
      "name": "reviewRecipients",
      "outputs": [],
      "stateMutability": "nonpayable",
      "type": "function"
    },
    {
      "inputs": [
        {
          "internalType": "address[]",
          "name": "_recipientIds",
          "type": "address[]"
        },
        {
          "internalType": "uint256[]",
          "name": "_amounts",
          "type": "uint256[]"
        }
      ],
      "name": "setPayout",
      "outputs": [],
      "stateMutability": "nonpayable",
      "type": "function"
    },
    {
      "inputs": [],
      "name": "totalPayoutAmount",
      "outputs": [
        {
          "internalType": "uint256",
          "name": "",
          "type": "uint256"
        }
      ],
      "stateMutability": "view",
      "type": "function"
    },
    {
      "inputs": [
        {
          "internalType": "uint64",
          "name": "_registrationStartTime",
          "type": "uint64"
        },
        {
          "internalType": "uint64",
          "name": "_registrationEndTime",
          "type": "uint64"
        },
        {
          "internalType": "uint64",
          "name": "_allocationStartTime",
          "type": "uint64"
        },
        {
          "internalType": "uint64",
          "name": "_allocationEndTime",
          "type": "uint64"
        }
      ],
      "name": "updatePoolTimestamps",
      "outputs": [],
      "stateMutability": "nonpayable",
      "type": "function"
    },
    {
      "inputs": [],
      "name": "useRegistryAnchor",
      "outputs": [
        {
          "internalType": "bool",
          "name": "",
          "type": "bool"
        }
      ],
      "stateMutability": "view",
      "type": "function"
    },
    {
      "inputs": [
        {
          "internalType": "uint256",
          "name": "_amount",
          "type": "uint256"
        }
      ],
      "name": "withdraw",
      "outputs": [],
      "stateMutability": "nonpayable",
      "type": "function"
    },
    {
      "stateMutability": "payable",
      "type": "receive"
    }
  ],
  "bytecode": {
    "object": "0x60c06040523480156200001157600080fd5b506040516200348a3803806200348a8339810160408190526200003491620000bf565b6001600160a01b03821660805260405182908290620000589082906020016200019a565b60408051601f19818403018152919052805160209091012060a0525050600160035550620001cf9050565b634e487b7160e01b600052604160045260246000fd5b60005b83811015620000b65781810151838201526020016200009c565b50506000910152565b60008060408385031215620000d357600080fd5b82516001600160a01b0381168114620000eb57600080fd5b60208401519092506001600160401b03808211156200010957600080fd5b818501915085601f8301126200011e57600080fd5b81518181111562000133576200013362000083565b604051601f8201601f19908116603f011681019083821181831017156200015e576200015e62000083565b816040528281528860208487010111156200017857600080fd5b6200018b83602083016020880162000099565b80955050505050509250929050565b6020815260008251806020840152620001bb81604085016020870162000099565b601f01601f19169190910160400192915050565b60805160a05161327262000218600039600061038301526000818161020e01528181610a4901528181611149015281816112c3015281816114120152611c5101526132726000f3fe6080604052600436106101d15760003560e01c80637f835983116100f7578063df868ed311610095578063eb11af9311610064578063eb11af93146105f9578063edd146cc14610626578063ef2920fc14610646578063f5b0dfb71461065957600080fd5b8063df868ed314610571578063dff7d2c714610586578063e744092e146105b3578063e7efcfc2146105e357600080fd5b8063b2b878d0116100d1578063b2b878d0146104dd578063cb0e85a61461050a578063d268393714610529578063d2e17f591461054957600080fd5b80637f835983146104745780639af5c09d14610494578063a0cf0aea146104b557600080fd5b806338fff2d01161016f5780634ab4ba421161013e5780634ab4ba42146103e85780634d31d087146103fd578063570897391461042d57806362812a391461044757600080fd5b806338fff2d01461031d5780633f733c6b1461033c57806342fda9c7146103745780634533d678146103a757600080fd5b806329ce44ab116101ab57806329ce44ab1461026b5780632bbe0cae1461028b5780632e1a7d4d1461029e578063385d7aec146102be57600080fd5b80630a6f0ee9146101dd57806315cc481e146101ff5780632143e92f1461024b57600080fd5b366101d857005b600080fd5b3480156101e957600080fd5b506101fd6101f83660046124e7565b610679565b005b34801561020b57600080fd5b507f00000000000000000000000000000000000000000000000000000000000000005b6040516001600160a01b0390911681526020015b60405180910390f35b34801561025757600080fd5b506101fd610266366004612575565b610699565b34801561027757600080fd5b506101fd6102863660046125d1565b610798565b61022e61029936600461268c565b6109b3565b3480156102aa57600080fd5b506101fd6102b93660046126de565b6109d8565b3480156102ca57600080fd5b506102fe6102d93660046126f7565b600960205260009081526040902080546001909101546001600160a01b039091169082565b604080516001600160a01b039093168352602083019190915201610242565b34801561032957600080fd5b506001545b604051908152602001610242565b34801561034857600080fd5b5061032e610357366004612714565b600a60209081526000928352604080842090915290825290205481565b34801561038057600080fd5b507f000000000000000000000000000000000000000000000000000000000000000061032e565b3480156103b357600080fd5b506006546103cf90600160c01b900467ffffffffffffffff1681565b60405167ffffffffffffffff9091168152602001610242565b3480156103f457600080fd5b5060025461032e565b34801561040957600080fd5b5061041d6104183660046126f7565b610b1e565b6040519015158152602001610242565b34801561043957600080fd5b5060045461041d9060ff1681565b34801561045357600080fd5b506104676104623660046126f7565b610b27565b60405161024291906127ca565b34801561048057600080fd5b506101fd61048f366004612882565b610b6b565b3480156104a057600080fd5b506006546103cf9067ffffffffffffffff1681565b3480156104c157600080fd5b5061022e73eeeeeeeeeeeeeeeeeeeeeeeeeeeeeeeeeeeeeeee81565b3480156104e957600080fd5b506104fd6104f83660046128ee565b610cee565b60405161024291906129c3565b34801561051657600080fd5b5060045461041d90610100900460ff1681565b34801561053557600080fd5b506101fd610544366004612a1b565b610e44565b34801561055557600080fd5b506006546103cf90600160801b900467ffffffffffffffff1681565b34801561057d57600080fd5b5061041d6110b6565b34801561059257600080fd5b506006546103cf9068010000000000000000900467ffffffffffffffff1681565b3480156105bf57600080fd5b5061041d6105ce3660046126f7565b60076020526000908152604090205460ff1681565b3480156105ef57600080fd5b5061032e60055481565b34801561060557600080fd5b506106196106143660046126f7565b6110c5565b6040516102429190612a90565b34801561063257600080fd5b506101fd610641366004612a9e565b6110d0565b6101fd61065436600461268c565b6110fa565b34801561066557600080fd5b506101fd6106743660046126de565b611114565b61068161113e565b610689611189565b6106948383836111c5565b505050565b336106a3816113cf565b6106af8585858561149a565b6006805467ffffffffffffffff848116600160c01b90810277ffffffffffffffffffffffffffffffffffffffffffffffff888416600160801b908102919091166fffffffffffffffffffffffffffffffff8b8616680100000000000000009081026fffffffffffffffffffffffffffffffff199098168e88161797909717161791909117948590556040805186851681529486048416602086015290850483169084015290920490911660608201523360808201527fcb0fb7a7b87db2f472ee8977444cfdbc51993ce660aca27a5969a724fae6dcf39060a00160405180910390a15050505050565b336107a2816113cf565b6107aa611543565b8251825181146107cd57604051637fcce2a960e01b815260040160405180910390fd5b60005b818110156109585760008582815181106107ec576107ec612ae5565b602002602001015190506002600681111561080957610809612792565b6001600160a01b03821660009081526008602052604090206003015460ff16600681111561083957610839612792565b1461085757604051637fcce2a960e01b815260040160405180910390fd5b6001600160a01b03811660009081526009602052604090206001810154156108a25760405163f4a513b960e01b81526001600160a01b03831660048201526024015b60405180910390fd5b60008684815181106108b6576108b6612ae5565b6020026020010151905080600560008282546108d29190612b11565b909155505060025460055411156108fc57604051637fcce2a960e01b815260040160405180910390fd5b6001808301919091556001600160a01b0392831660009081526008602052604090205482547fffffffffffffffffffffffff000000000000000000000000000000000000000016610100909104909316929092179055016107d0565b507f323401fe9146df9057cd41d07a1c29cb6127c70d82114e48769a66d502b7a6878460405160200161098b9190612b24565b60408051601f19818403018152908290526109a591612b71565b60405180910390a150505050565b60006109bd61113e565b6109c5611189565b6109cf8383611590565b90505b92915050565b336109e2816113cf565b600654610a0390600160c01b900467ffffffffffffffff1662278d00612b84565b67ffffffffffffffff164211610a2c57604051637fcce2a960e01b815260040160405180910390fd5b60015460405163068bcd8d60e01b81526000916001600160a01b037f0000000000000000000000000000000000000000000000000000000000000000169163068bcd8d91610a809160040190815260200190565b600060405180830381865afa158015610a9d573d6000803e3d6000fd5b505050506040513d6000823e601f3d908101601f19168201604052610ac59190810190612c53565b905082600554600254610ad89190612d07565b1015610af757604051637fcce2a960e01b815260040160405180910390fd5b8260026000828254610b099190612d07565b909155505060408101516106949033856118c0565b600060016109d2565b610b62604080516080810182526000808252602080830182905283518085018552918252606090820152909182019081526020016000905290565b6109d282611905565b33610b75816113cf565b610b7d611a63565b83828114610b9e57604051637fcce2a960e01b815260040160405180910390fd5b60005b81811015610ce5576000858583818110610bbd57610bbd612ae5565b9050602002016020810190610bd29190612d1a565b90506000888884818110610be857610be8612ae5565b9050602002016020810190610bfd91906126f7565b90506000826006811115610c1357610c13612792565b1480610c3057506004826006811115610c2e57610c2e612792565b145b15610c595760405163f4a513b960e01b81526001600160a01b0382166004820152602401610899565b6001600160a01b038116600090815260086020526040902060038101805484919060ff19166001836006811115610c9257610c92612792565b0217905550816001600160a01b03167f45af2a5942640dc0876474f4fda063eec36dd5518e0bba47622461b993f762a38433604051610cd2929190612d3b565b60405180910390a2505050600101610ba1565b50505050505050565b81518151606091908114610d2e576040517f7b49805600000000000000000000000000000000000000000000000000000000815260040160405180910390fd5b60008167ffffffffffffffff811115610d4957610d4961230b565b604051908082528060200260200182016040528015610d8e57816020015b6040805180820190915260008082526020820152815260200190600190039081610d675790505b50905060005b82811015610e3b57610e16868281518110610db157610db1612ae5565b6020026020010151868381518110610dcb57610dcb612ae5565b5050604080518082018252600080825260209182018190526001600160a01b039384168152600982528290208251808401909352805490931682526001909201549181019190915290565b828281518110610e2857610e28612ae5565b6020908102919091010152600101610d94565b50949350505050565b610e4c611acd565b610e54611543565b8060005b818110156110a6576000848483818110610e7457610e74612ae5565b905060400201803603810190610e8a9190612d5f565b80516001600160a01b0390811660009081526008602090815260408083208151608081018352815460ff81161515825261010090049095168584015281518083018352600182018054825260028301805498995095979295938701949193909291840191610ef790612da0565b80601f0160208091040260200160405190810160405280929190818152602001828054610f2390612da0565b8015610f705780601f10610f4557610100808354040283529160200191610f70565b820191906000526020600020905b815481529060010190602001808311610f5357829003601f168201915b505050919092525050508152600382015460209091019060ff166006811115610f9b57610f9b612792565b6006811115610fac57610fac612792565b90525082516001600160a01b039081166000908152600a602090815260408083208288015190941683529290529081205491925081900361100057604051637fcce2a960e01b815260040160405180910390fd5b82516001600160a01b039081166000908152600a60209081526040808320828801805190951684528252822091909155905190830151611042908290846118c0565b8351602084810151604080516001600160a01b03928316815292830186905284821683820152519216917f0ffa55c11cec5055a4f567b0ff6e1e0eef2af17baafddd35f31ab4ed1afb75469181900360600190a2505060019092019150610e589050565b50506110b26001600355565b5050565b60006110c0611b40565b905090565b60006109d282611b8a565b6110d861113e565b6000818060200190518101906110ee9190612e53565b90506106948382611bf1565b61110261113e565b61110a611189565b6110b28282611eab565b61111c61113e565b806002600082825461112e9190612b11565b9091555061113b90508181565b50565b336001600160a01b037f000000000000000000000000000000000000000000000000000000000000000016146111875760405163075fd2b160e01b815260040160405180910390fd5b565b600154600003611187576040517f3da3f98c00000000000000000000000000000000000000000000000000000000815260040160405180910390fd5b806111cf816113cf565b6111d7611543565b835160005b818110156113c75760008682815181106111f8576111f8612ae5565b6020908102919091018101516001600160a01b0381166000908152600890925260409091209091506002600382015460ff16600681111561123b5761123b612792565b146112645760405163f4a513b960e01b81526001600160a01b0383166004820152602401610899565b6001600160a01b0382166000908152600960205260408120600101805490829055908190036112a657604051637fcce2a960e01b815260040160405180910390fd5b60015460405163068bcd8d60e01b81526000916001600160a01b037f0000000000000000000000000000000000000000000000000000000000000000169163068bcd8d916112fa9160040190815260200190565b600060405180830381865afa158015611317573d6000803e3d6000fd5b505050506040513d6000823e601f3d908101601f1916820160405261133f9190810190612c53565b604081015184549192506113619161010090046001600160a01b0316846118c0565b8254604080516001600160a01b0361010090930483168152602081018590528a8316818301529051918616917fb5b51454adfa840bd593658325a60a50b0216f12eb5d2937efe6cea935675b7d9181900360600190a25050600190920191506111dc9050565b505050505050565b6001546040517f29e40d4b00000000000000000000000000000000000000000000000000000000815260048101919091526001600160a01b0382811660248301527f000000000000000000000000000000000000000000000000000000000000000016906329e40d4b90604401602060405180830381865afa158015611459573d6000803e3d6000fd5b505050506040513d601f19601f8201168201806040525081019061147d9190612f26565b61113b5760405163075fd2b160e01b815260040160405180910390fd5b8367ffffffffffffffff164211806114c557508267ffffffffffffffff168467ffffffffffffffff16115b806114e357508167ffffffffffffffff168467ffffffffffffffff16115b8061150157508067ffffffffffffffff168267ffffffffffffffff16115b8061151f57508067ffffffffffffffff168367ffffffffffffffff16115b1561153d57604051637fcce2a960e01b815260040160405180910390fd5b50505050565b600654600160c01b900467ffffffffffffffff16421015611187576040517f8a879da200000000000000000000000000000000000000000000000000000000815260040160405180910390fd5b600061159a611a63565b60008060006115bc604051806040016040528060008152602001606081525090565b60045460ff161561160e57868060200190518101906115db9190612f41565b919650945090506115ec8587612097565b6116095760405163075fd2b160e01b815260040160405180910390fd5b611678565b868060200190518101906116229190612f41565b91955093506001600160a01b038416151592509050816116425785611644565b825b945081801561165a57506116588587612097565b155b156116785760405163075fd2b160e01b815260040160405180910390fd5b600454610100900460ff16801561169b5750602081015151158061169b57508051155b156116d2576040517fc19e07c500000000000000000000000000000000000000000000000000000000815260040160405180910390fd5b6001600160a01b0384166117045760405163f4a513b960e01b81526001600160a01b0386166004820152602401610899565b6001600160a01b0380861660009081526008602090815260409091208054928716610100027fffffffffffffffffffffff0000000000000000000000000000000000000000ff9093169290921782558251600183019081559083015183919060028401906117729082612feb565b505060045460ff1690506117865782611789565b60015b815460ff1916901515178155600381015460ff1660008160068111156117b1576117b1612792565b0361180f5760038201805460ff191660011790556040516001600160a01b038816907fa197306e3dd5494a61a695381aa809a53b8e377a685e84e404a85d5a8da6cc6290611802908c908c906130ab565b60405180910390a26118b4565b600281600681111561182357611823612792565b0361183c5760038201805460ff19166001179055611865565b600381600681111561185057611850612792565b036118655760038201805460ff191660041790555b60038201546040516001600160a01b038916917fcec1da3f7f0b8a344dd1025d06e2ddd48b14880395997ad97cbdb439acc761d4916118ab918d918d9160ff16906130d6565b60405180910390a25b50505050505092915050565b7fffffffffffffffffffffffff11111111111111111111111111111111111111126001600160a01b038416016118fa5761069482826121cd565b6106948383836121e9565b611940604080516080810182526000808252602080830182905283518085018552918252606090820152909182019081526020016000905290565b6001600160a01b038083166000908152600860209081526040918290208251608081018452815460ff8116151582526101009004909416848301528251808401845260018201805482526002830180549395870194929391928401916119a590612da0565b80601f01602080910402602001604051908101604052809291908181526020018280546119d190612da0565b8015611a1e5780601f106119f357610100808354040283529160200191611a1e565b820191906000526020600020905b815481529060010190602001808311611a0157829003601f168201915b505050919092525050508152600382015460209091019060ff166006811115611a4957611a49612792565b6006811115611a5a57611a5a612792565b90525092915050565b6006544267ffffffffffffffff9091161180611a96575060065468010000000000000000900467ffffffffffffffff1642115b15611187576040517fb609ed5a00000000000000000000000000000000000000000000000000000000815260040160405180910390fd5b600260035403611b39576040517f08c379a000000000000000000000000000000000000000000000000000000000815260206004820152601f60248201527f5265656e7472616e637947756172643a207265656e7472616e742063616c6c006044820152606401610899565b6002600355565b6006546000904267ffffffffffffffff90911611801590611b79575060065468010000000000000000900467ffffffffffffffff164211155b15611b845750600190565b50600090565b600080611b9683611905565b6060015190506004816006811115611bb057611bb0612792565b03611bbe5750600192915050565b806006811115611bd057611bd0612792565b60ff166006811115611be457611be4612792565b9392505050565b50919050565b611bfa82612238565b80516004805460208085015161ffff1990921693151561ff0019169390931761010091151591909102178155604080517f5ab1bd5300000000000000000000000000000000000000000000000000000000815290517f00000000000000000000000000000000000000000000000000000000000000006001600160a01b031693635ab1bd5393838101939192918290030181865afa158015611ca0573d6000803e3d6000fd5b505050506040513d601f19601f82011682018060405250810190611cc49190613107565b600460026101000a8154816001600160a01b0302191690836001600160a01b03160217905550611d068160400151826060015183608001518460a0015161149a565b6040818101516006805460608086015160808088015160a0808a015167ffffffffffffffff9889166fffffffffffffffffffffffffffffffff1990971696909617680100000000000000009489168502176fffffffffffffffffffffffffffffffff16600160801b928916830277ffffffffffffffffffffffffffffffffffffffffffffffff1617600160c01b968916870217968790558851878916815293870488166020850152908604871697830197909752929093049093169282019290925233918101919091527fcb0fb7a7b87db2f472ee8977444cfdbc51993ce660aca27a5969a724fae6dcf3910160405180910390a160c0810151516000819003611e40576000805260076020527f6d5257204ebe7d88fd91ae87941cb2dd9d8062b64ae5a2bd2d28ec40b9fbf6df805460ff191660011790555b60005b8181101561153d576001600760008560c001518481518110611e6757611e67612ae5565b6020908102919091018101516001600160a01b03168252810191909152604001600020805460ff191691151591909117905580611ea381613124565b915050611e43565b611eb3611acd565b611ebb6122a0565b600080600084806020019051810190611ed4919061313d565b6001600160a01b038316600090815260086020526040902092955090935091506002600382015460ff166006811115611f0f57611f0f612792565b14611f385760405163f4a513b960e01b81526001600160a01b0385166004820152602401610899565b6001600160a01b03821660009081526007602052604090205460ff16158015611f8c57506000805260076020527f6d5257204ebe7d88fd91ae87941cb2dd9d8062b64ae5a2bd2d28ec40b9fbf6df5460ff16155b15611faa57604051637fcce2a960e01b815260040160405180910390fd5b6001600160a01b03821673eeeeeeeeeeeeeeeeeeeeeeeeeeeeeeeeeeeeeeee148015611fd65750823414155b15611ff457604051637fcce2a960e01b815260040160405180910390fd5b611fff8230856118c0565b6001600160a01b038085166000908152600a6020908152604080832093861683529290529081208054859290612036908490612b11565b9091555050604080518481526001600160a01b038481166020830152878116828401529151918616917f463ffc2cf8b1596445c417388ed30e53eb67cf6668cb2be7f0addf8a78c8441b9181900360600190a2505050506110b26001600355565b600480546040517fdd93da430000000000000000000000000000000000000000000000000000000081526001600160a01b03858116938201939093526000928392620100009004169063dd93da4390602401600060405180830381865afa158015612106573d6000803e3d6000fd5b505050506040513d6000823e601f3d908101601f1916820160405261212e9190810190613175565b6004805482516040517f5e8a7915000000000000000000000000000000000000000000000000000000008152928301526001600160a01b03868116602484015292935062010000900490911690635e8a791590604401602060405180830381865afa1580156121a1573d6000803e3d6000fd5b505050506040513d601f19601f820116820180604052508101906121c59190612f26565b949350505050565b60008060008084865af16110b25763b12d13eb6000526004601cfd5b81601452806034526fa9059cbb00000000000000000000000060005260206000604460106000875af13d15600160005114171661222e576390b8ec186000526004601cfd5b6000603452505050565b61224061113e565b6001541561227a576040517f439a74c900000000000000000000000000000000000000000000000000000000815260040160405180910390fd5b8060000361229b57604051637fcce2a960e01b815260040160405180910390fd5b600155565b60065442600160801b90910467ffffffffffffffff1611806122d45750600654600160c01b900467ffffffffffffffff1642115b15611187576040517fb828c90000000000000000000000000000000000000000000000000000000000815260040160405180910390fd5b634e487b7160e01b600052604160045260246000fd5b6040805190810167ffffffffffffffff811182821017156123445761234461230b565b60405290565b60405160c0810167ffffffffffffffff811182821017156123445761234461230b565b60405160e0810167ffffffffffffffff811182821017156123445761234461230b565b604051601f8201601f1916810167ffffffffffffffff811182821017156123b9576123b961230b565b604052919050565b600067ffffffffffffffff8211156123db576123db61230b565b5060051b60200190565b6001600160a01b038116811461113b57600080fd5b600082601f83011261240b57600080fd5b8135602061242061241b836123c1565b612390565b82815260059290921b8401810191818101908684111561243f57600080fd5b8286015b84811015612463578035612456816123e5565b8352918301918301612443565b509695505050505050565b600067ffffffffffffffff8211156124885761248861230b565b50601f01601f191660200190565b600082601f8301126124a757600080fd5b81356124b561241b8261246e565b8181528460208386010111156124ca57600080fd5b816020850160208301376000918101602001919091529392505050565b6000806000606084860312156124fc57600080fd5b833567ffffffffffffffff8082111561251457600080fd5b612520878388016123fa565b9450602086013591508082111561253657600080fd5b5061254386828701612496565b9250506040840135612554816123e5565b809150509250925092565b67ffffffffffffffff8116811461113b57600080fd5b6000806000806080858703121561258b57600080fd5b84356125968161255f565b935060208501356125a68161255f565b925060408501356125b68161255f565b915060608501356125c68161255f565b939692955090935050565b600080604083850312156125e457600080fd5b823567ffffffffffffffff808211156125fc57600080fd5b612608868387016123fa565b935060209150818501358181111561261f57600080fd5b85019050601f8101861361263257600080fd5b803561264061241b826123c1565b81815260059190911b8201830190838101908883111561265f57600080fd5b928401925b8284101561267d57833582529284019290840190612664565b80955050505050509250929050565b6000806040838503121561269f57600080fd5b823567ffffffffffffffff8111156126b657600080fd5b6126c285828601612496565b92505060208301356126d3816123e5565b809150509250929050565b6000602082840312156126f057600080fd5b5035919050565b60006020828403121561270957600080fd5b8135611be4816123e5565b6000806040838503121561272757600080fd5b8235612732816123e5565b915060208301356126d3816123e5565b60005b8381101561275d578181015183820152602001612745565b50506000910152565b6000815180845261277e816020860160208601612742565b601f01601f19169290920160200192915050565b634e487b7160e01b600052602160045260246000fd5b600781106127c657634e487b7160e01b600052602160045260246000fd5b9052565b602081528151151560208201526001600160a01b0360208301511660408201526000604083015160806060840152805160a084015260208101519050604060c084015261281a60e0840182612766565b9050606084015161282e60808501826127a8565b509392505050565b60008083601f84011261284857600080fd5b50813567ffffffffffffffff81111561286057600080fd5b6020830191508360208260051b850101111561287b57600080fd5b9250929050565b6000806000806040858703121561289857600080fd5b843567ffffffffffffffff808211156128b057600080fd5b6128bc88838901612836565b909650945060208701359150808211156128d557600080fd5b506128e287828801612836565b95989497509550505050565b6000806040838503121561290157600080fd5b823567ffffffffffffffff8082111561291957600080fd5b612925868387016123fa565b935060209150818501358181111561293c57600080fd5b8501601f8101871361294d57600080fd5b803561295b61241b826123c1565b81815260059190911b8201840190848101908983111561297a57600080fd5b8584015b838110156129b2578035868111156129965760008081fd5b6129a48c8983890101612496565b84525091860191860161297e565b508096505050505050509250929050565b602080825282518282018190526000919060409081850190868401855b82811015612a0e57815180516001600160a01b031685528601518685015292840192908501906001016129e0565b5091979650505050505050565b60008060208385031215612a2e57600080fd5b823567ffffffffffffffff80821115612a4657600080fd5b818501915085601f830112612a5a57600080fd5b813581811115612a6957600080fd5b8660208260061b8501011115612a7e57600080fd5b60209290920196919550909350505050565b602081016109d282846127a8565b60008060408385031215612ab157600080fd5b82359150602083013567ffffffffffffffff811115612acf57600080fd5b612adb85828601612496565b9150509250929050565b634e487b7160e01b600052603260045260246000fd5b634e487b7160e01b600052601160045260246000fd5b808201808211156109d2576109d2612afb565b6020808252825182820181905260009190848201906040850190845b81811015612b655783516001600160a01b031683529284019291840191600101612b40565b50909695505050505050565b602081526000611be46020830184612766565b67ffffffffffffffff818116838216019080821115612ba557612ba5612afb565b5092915050565b8051612bb7816123e5565b919050565b600082601f830112612bcd57600080fd5b8151612bdb61241b8261246e565b818152846020838601011115612bf057600080fd5b6121c5826020830160208701612742565b600060408284031215612c1357600080fd5b612c1b612321565b905081518152602082015167ffffffffffffffff811115612c3b57600080fd5b612c4784828501612bbc565b60208301525092915050565b600060208284031215612c6557600080fd5b815167ffffffffffffffff80821115612c7d57600080fd5b9083019060c08286031215612c9157600080fd5b612c9961234a565b825181526020830151612cab816123e5565b60208201526040830151612cbe816123e5565b6040820152606083015182811115612cd557600080fd5b612ce187828601612c01565b6060830152506080830151608082015260a083015160a082015280935050505092915050565b818103818111156109d2576109d2612afb565b600060208284031215612d2c57600080fd5b813560078110611be457600080fd5b60408101612d4982856127a8565b6001600160a01b03831660208301529392505050565b600060408284031215612d7157600080fd5b612d79612321565b8235612d84816123e5565b81526020830135612d94816123e5565b60208201529392505050565b600181811c90821680612db457607f821691505b602082108103611beb57634e487b7160e01b600052602260045260246000fd5b80518015158114612bb757600080fd5b8051612bb78161255f565b600082601f830112612e0057600080fd5b81516020612e1061241b836123c1565b82815260059290921b84018101918181019086841115612e2f57600080fd5b8286015b84811015612463578051612e46816123e5565b8352918301918301612e33565b600060208284031215612e6557600080fd5b815167ffffffffffffffff80821115612e7d57600080fd5b9083019060e08286031215612e9157600080fd5b612e9961236d565b612ea283612dd4565b8152612eb060208401612dd4565b6020820152612ec160408401612de4565b6040820152612ed260608401612de4565b6060820152612ee360808401612de4565b6080820152612ef460a08401612de4565b60a082015260c083015182811115612f0b57600080fd5b612f1787828601612def565b60c08301525095945050505050565b600060208284031215612f3857600080fd5b611be482612dd4565b600080600060608486031215612f5657600080fd5b8351612f61816123e5565b6020850151909350612f72816123e5565b604085015190925067ffffffffffffffff811115612f8f57600080fd5b612f9b86828701612c01565b9150509250925092565b601f82111561069457600081815260208120601f850160051c81016020861015612fcc5750805b601f850160051c820191505b818110156113c757828155600101612fd8565b815167ffffffffffffffff8111156130055761300561230b565b613019816130138454612da0565b84612fa5565b602080601f83116001811461304e57600084156130365750858301515b600019600386901b1c1916600185901b1785556113c7565b600085815260208120601f198616915b8281101561307d5788860151825594840194600190910190840161305e565b508582101561309b5787850151600019600388901b60f8161c191681555b5050505050600190811b01905550565b6040815260006130be6040830185612766565b90506001600160a01b03831660208301529392505050565b6060815260006130e96060830186612766565b90506001600160a01b03841660208301526121c560408301846127a8565b60006020828403121561311957600080fd5b8151611be4816123e5565b60006001820161313657613136612afb565b5060010190565b60008060006060848603121561315257600080fd5b835161315d816123e5565b602085015160408601519194509250612554816123e5565b60006020828403121561318757600080fd5b815167ffffffffffffffff8082111561319f57600080fd5b9083019060c082860312156131b357600080fd5b6131bb61234a565b82518152602083015160208201526040830151828111156131db57600080fd5b6131e787828601612bbc565b6040830152506060830151828111156131ff57600080fd5b61320b87828601612c01565b60608301525061321d60808401612bac565b608082015261322e60a08401612bac565b60a08201529594505050505056fea264697066735822122039dea31913c6174b47381bd6829adfa3e5e226526dd66111d4a400bedfa9d2b264736f6c63430008130033",
    "linkReferences": {}
  },
  "methodIdentifiers": {
    "NATIVE()": "a0cf0aea",
    "allocate(bytes,address)": "ef2920fc",
    "allocationEndTime()": "4533d678",
    "allocationStartTime()": "d2e17f59",
    "allowedTokens(address)": "e744092e",
    "claim((address,address)[])": "d2683937",
    "claims(address,address)": "3f733c6b",
    "distribute(address[],bytes,address)": "0a6f0ee9",
    "getAllo()": "15cc481e",
    "getPayouts(address[],bytes[])": "b2b878d0",
    "getPoolAmount()": "4ab4ba42",
    "getPoolId()": "38fff2d0",
    "getRecipient(address)": "62812a39",
    "getRecipientStatus(address)": "eb11af93",
    "getStrategyId()": "42fda9c7",
    "increasePoolAmount(uint256)": "f5b0dfb7",
    "initialize(uint256,bytes)": "edd146cc",
    "isPoolActive()": "df868ed3",
    "isValidAllocator(address)": "4d31d087",
    "metadataRequired()": "cb0e85a6",
    "payoutSummaries(address)": "385d7aec",
    "registerRecipient(bytes,address)": "2bbe0cae",
    "registrationEndTime()": "dff7d2c7",
    "registrationStartTime()": "9af5c09d",
    "reviewRecipients(address[],uint8[])": "7f835983",
    "setPayout(address[],uint256[])": "29ce44ab",
    "totalPayoutAmount()": "e7efcfc2",
    "updatePoolTimestamps(uint64,uint64,uint64,uint64)": "2143e92f",
    "useRegistryAnchor()": "57089739",
    "withdraw(uint256)": "2e1a7d4d"
  },
  "storageLayout": {
    "storage": [
      {
        "astId": 3267,
        "contract": "contracts/strategies/_poc/donation-voting/DonationVotingStrategy.sol:DonationVotingStrategy",
        "label": "poolActive",
        "offset": 0,
        "slot": "0",
        "type": "t_bool"
      },
      {
        "astId": 3269,
        "contract": "contracts/strategies/_poc/donation-voting/DonationVotingStrategy.sol:DonationVotingStrategy",
        "label": "poolId",
        "offset": 0,
        "slot": "1",
        "type": "t_uint256"
      },
      {
        "astId": 3271,
        "contract": "contracts/strategies/_poc/donation-voting/DonationVotingStrategy.sol:DonationVotingStrategy",
        "label": "poolAmount",
        "offset": 0,
        "slot": "2",
        "type": "t_uint256"
      },
      {
        "astId": 62206,
        "contract": "contracts/strategies/_poc/donation-voting/DonationVotingStrategy.sol:DonationVotingStrategy",
        "label": "_status",
        "offset": 0,
        "slot": "3",
        "type": "t_uint256"
      },
      {
        "astId": 5556,
        "contract": "contracts/strategies/_poc/donation-voting/DonationVotingStrategy.sol:DonationVotingStrategy",
        "label": "useRegistryAnchor",
        "offset": 0,
        "slot": "4",
        "type": "t_bool"
      },
      {
        "astId": 5558,
        "contract": "contracts/strategies/_poc/donation-voting/DonationVotingStrategy.sol:DonationVotingStrategy",
        "label": "metadataRequired",
        "offset": 1,
        "slot": "4",
        "type": "t_bool"
      },
      {
        "astId": 5561,
        "contract": "contracts/strategies/_poc/donation-voting/DonationVotingStrategy.sol:DonationVotingStrategy",
        "label": "_registry",
        "offset": 2,
        "slot": "4",
        "type": "t_contract(IRegistry)2625"
      },
      {
        "astId": 5563,
        "contract": "contracts/strategies/_poc/donation-voting/DonationVotingStrategy.sol:DonationVotingStrategy",
        "label": "totalPayoutAmount",
        "offset": 0,
        "slot": "5",
        "type": "t_uint256"
      },
      {
        "astId": 5565,
        "contract": "contracts/strategies/_poc/donation-voting/DonationVotingStrategy.sol:DonationVotingStrategy",
        "label": "registrationStartTime",
        "offset": 0,
        "slot": "6",
        "type": "t_uint64"
      },
      {
        "astId": 5567,
        "contract": "contracts/strategies/_poc/donation-voting/DonationVotingStrategy.sol:DonationVotingStrategy",
        "label": "registrationEndTime",
        "offset": 8,
        "slot": "6",
        "type": "t_uint64"
      },
      {
        "astId": 5569,
        "contract": "contracts/strategies/_poc/donation-voting/DonationVotingStrategy.sol:DonationVotingStrategy",
        "label": "allocationStartTime",
        "offset": 16,
        "slot": "6",
        "type": "t_uint64"
      },
      {
        "astId": 5571,
        "contract": "contracts/strategies/_poc/donation-voting/DonationVotingStrategy.sol:DonationVotingStrategy",
        "label": "allocationEndTime",
        "offset": 24,
        "slot": "6",
        "type": "t_uint64"
      },
      {
        "astId": 5576,
        "contract": "contracts/strategies/_poc/donation-voting/DonationVotingStrategy.sol:DonationVotingStrategy",
        "label": "allowedTokens",
        "offset": 0,
        "slot": "7",
        "type": "t_mapping(t_address,t_bool)"
      },
      {
        "astId": 5582,
        "contract": "contracts/strategies/_poc/donation-voting/DonationVotingStrategy.sol:DonationVotingStrategy",
        "label": "_recipients",
        "offset": 0,
        "slot": "8",
        "type": "t_mapping(t_address,t_struct(Recipient)5485_storage)"
      },
      {
        "astId": 5588,
        "contract": "contracts/strategies/_poc/donation-voting/DonationVotingStrategy.sol:DonationVotingStrategy",
        "label": "payoutSummaries",
        "offset": 0,
        "slot": "9",
        "type": "t_mapping(t_address,t_struct(PayoutSummary)2643_storage)"
      },
      {
        "astId": 5595,
        "contract": "contracts/strategies/_poc/donation-voting/DonationVotingStrategy.sol:DonationVotingStrategy",
        "label": "claims",
        "offset": 0,
        "slot": "10",
        "type": "t_mapping(t_address,t_mapping(t_address,t_uint256))"
      }
    ],
    "types": {
      "t_address": {
        "encoding": "inplace",
        "label": "address",
        "numberOfBytes": "20"
      },
      "t_bool": {
        "encoding": "inplace",
        "label": "bool",
        "numberOfBytes": "1"
      },
      "t_contract(IRegistry)2625": {
        "encoding": "inplace",
        "label": "contract IRegistry",
        "numberOfBytes": "20"
      },
      "t_enum(Status)2638": {
        "encoding": "inplace",
        "label": "enum IStrategy.Status",
        "numberOfBytes": "1"
      },
      "t_mapping(t_address,t_bool)": {
        "encoding": "mapping",
        "key": "t_address",
        "label": "mapping(address => bool)",
        "numberOfBytes": "32",
        "value": "t_bool"
      },
      "t_mapping(t_address,t_mapping(t_address,t_uint256))": {
        "encoding": "mapping",
        "key": "t_address",
        "label": "mapping(address => mapping(address => uint256))",
        "numberOfBytes": "32",
        "value": "t_mapping(t_address,t_uint256)"
      },
      "t_mapping(t_address,t_struct(PayoutSummary)2643_storage)": {
        "encoding": "mapping",
        "key": "t_address",
        "label": "mapping(address => struct IStrategy.PayoutSummary)",
        "numberOfBytes": "32",
        "value": "t_struct(PayoutSummary)2643_storage"
      },
      "t_mapping(t_address,t_struct(Recipient)5485_storage)": {
        "encoding": "mapping",
        "key": "t_address",
        "label": "mapping(address => struct DonationVotingStrategy.Recipient)",
        "numberOfBytes": "32",
        "value": "t_struct(Recipient)5485_storage"
      },
      "t_mapping(t_address,t_uint256)": {
        "encoding": "mapping",
        "key": "t_address",
        "label": "mapping(address => uint256)",
        "numberOfBytes": "32",
        "value": "t_uint256"
      },
      "t_string_storage": {
        "encoding": "bytes",
        "label": "string",
        "numberOfBytes": "32"
      },
      "t_struct(Metadata)2922_storage": {
        "encoding": "inplace",
        "label": "struct Metadata",
        "numberOfBytes": "64",
        "members": [
          {
            "astId": 2918,
            "contract": "contracts/strategies/_poc/donation-voting/DonationVotingStrategy.sol:DonationVotingStrategy",
            "label": "protocol",
            "offset": 0,
            "slot": "0",
            "type": "t_uint256"
          },
          {
            "astId": 2921,
            "contract": "contracts/strategies/_poc/donation-voting/DonationVotingStrategy.sol:DonationVotingStrategy",
            "label": "pointer",
            "offset": 0,
            "slot": "1",
            "type": "t_string_storage"
          }
        ]
      },
      "t_struct(PayoutSummary)2643_storage": {
        "encoding": "inplace",
        "label": "struct IStrategy.PayoutSummary",
        "numberOfBytes": "64",
        "members": [
          {
            "astId": 2640,
            "contract": "contracts/strategies/_poc/donation-voting/DonationVotingStrategy.sol:DonationVotingStrategy",
            "label": "recipientAddress",
            "offset": 0,
            "slot": "0",
            "type": "t_address"
          },
          {
            "astId": 2642,
            "contract": "contracts/strategies/_poc/donation-voting/DonationVotingStrategy.sol:DonationVotingStrategy",
            "label": "amount",
            "offset": 0,
            "slot": "1",
            "type": "t_uint256"
          }
        ]
      },
      "t_struct(Recipient)5485_storage": {
        "encoding": "inplace",
        "label": "struct DonationVotingStrategy.Recipient",
        "numberOfBytes": "128",
        "members": [
          {
            "astId": 5476,
            "contract": "contracts/strategies/_poc/donation-voting/DonationVotingStrategy.sol:DonationVotingStrategy",
            "label": "useRegistryAnchor",
            "offset": 0,
            "slot": "0",
            "type": "t_bool"
          },
          {
            "astId": 5478,
            "contract": "contracts/strategies/_poc/donation-voting/DonationVotingStrategy.sol:DonationVotingStrategy",
            "label": "recipientAddress",
            "offset": 1,
            "slot": "0",
            "type": "t_address"
          },
          {
            "astId": 5481,
            "contract": "contracts/strategies/_poc/donation-voting/DonationVotingStrategy.sol:DonationVotingStrategy",
            "label": "metadata",
            "offset": 0,
            "slot": "1",
            "type": "t_struct(Metadata)2922_storage"
          },
          {
            "astId": 5484,
            "contract": "contracts/strategies/_poc/donation-voting/DonationVotingStrategy.sol:DonationVotingStrategy",
            "label": "recipientStatus",
            "offset": 0,
            "slot": "3",
            "type": "t_enum(Status)2638"
          }
        ]
      },
      "t_uint256": {
        "encoding": "inplace",
        "label": "uint256",
        "numberOfBytes": "32"
      },
      "t_uint64": {
        "encoding": "inplace",
        "label": "uint64",
        "numberOfBytes": "8"
      }
    }
  },
  "id": 16
}