{"abi":[{"type":"constructor","inputs":[{"name":"eETH_","type":"address","internalType":"contract MockERC20"}],"stateMutability":"nonpayable"},{"type":"function","name":"DOMAIN_SEPARATOR","inputs":[],"outputs":[{"name":"","type":"bytes32","internalType":"bytes32"}],"stateMutability":"view"},{"type":"function","name":"PERMIT_TYPEHASH","inputs":[],"outputs":[{"name":"","type":"bytes32","internalType":"bytes32"}],"stateMutability":"view"},{"type":"function","name":"allowance","inputs":[{"name":"","type":"address","internalType":"address"},{"name":"","type":"address","internalType":"address"}],"outputs":[{"name":"","type":"uint256","internalType":"uint256"}],"stateMutability":"view"},{"type":"function","name":"approve","inputs":[{"name":"usr","type":"address","internalType":"address"},{"name":"wad","type":"uint256","internalType":"uint256"}],"outputs":[{"name":"","type":"bool","internalType":"bool"}],"stateMutability":"nonpayable"},{"type":"function","name":"balanceOf","inputs":[{"name":"","type":"address","internalType":"address"}],"outputs":[{"name":"","type":"uint256","internalType":"uint256"}],"stateMutability":"view"},{"type":"function","name":"burn","inputs":[{"name":"usr","type":"address","internalType":"address"},{"name":"wad","type":"uint256","internalType":"uint256"}],"outputs":[],"stateMutability":"nonpayable"},{"type":"function","name":"decimals","inputs":[],"outputs":[{"name":"","type":"uint8","internalType":"uint8"}],"stateMutability":"view"},{"type":"function","name":"eETH","inputs":[],"outputs":[{"name":"","type":"address","internalType":"contract MockERC20"}],"stateMutability":"view"},{"type":"function","name":"eETHPerToken","inputs":[],"outputs":[{"name":"","type":"uint256","internalType":"uint256"}],"stateMutability":"view"},{"type":"function","name":"getWeETHByeETH","inputs":[{"name":"_eETHAmount","type":"uint256","internalType":"uint256"}],"outputs":[{"name":"","type":"uint256","internalType":"uint256"}],"stateMutability":"view"},{"type":"function","name":"geteETHByWeETH","inputs":[{"name":"_weETHAmount","type":"uint256","internalType":"uint256"}],"outputs":[{"name":"","type":"uint256","internalType":"uint256"}],"stateMutability":"view"},{"type":"function","name":"mint","inputs":[{"name":"usr","type":"address","internalType":"address"},{"name":"wad","type":"uint256","internalType":"uint256"}],"outputs":[],"stateMutability":"nonpayable"},{"type":"function","name":"name","inputs":[],"outputs":[{"name":"","type":"string","internalType":"string"}],"stateMutability":"view"},{"type":"function","name":"nonces","inputs":[{"name":"","type":"address","internalType":"address"}],"outputs":[{"name":"","type":"uint256","internalType":"uint256"}],"stateMutability":"view"},{"type":"function","name":"permit","inputs":[{"name":"owner","type":"address","internalType":"address"},{"name":"spender","type":"address","internalType":"address"},{"name":"value","type":"uint256","internalType":"uint256"},{"name":"deadline","type":"uint256","internalType":"uint256"},{"name":"v","type":"uint8","internalType":"uint8"},{"name":"r","type":"bytes32","internalType":"bytes32"},{"name":"s","type":"bytes32","internalType":"bytes32"}],"outputs":[],"stateMutability":"nonpayable"},{"type":"function","name":"symbol","inputs":[],"outputs":[{"name":"","type":"string","internalType":"string"}],"stateMutability":"view"},{"type":"function","name":"tokensPereETH","inputs":[],"outputs":[{"name":"","type":"uint256","internalType":"uint256"}],"stateMutability":"view"},{"type":"function","name":"totalSupply","inputs":[],"outputs":[{"name":"","type":"uint256","internalType":"uint256"}],"stateMutability":"view"},{"type":"function","name":"transfer","inputs":[{"name":"dst","type":"address","internalType":"address"},{"name":"wad","type":"uint256","internalType":"uint256"}],"outputs":[{"name":"","type":"bool","internalType":"bool"}],"stateMutability":"nonpayable"},{"type":"function","name":"transferFrom","inputs":[{"name":"src","type":"address","internalType":"address"},{"name":"dst","type":"address","internalType":"address"},{"name":"wad","type":"uint256","internalType":"uint256"}],"outputs":[{"name":"","type":"bool","internalType":"bool"}],"stateMutability":"nonpayable"},{"type":"function","name":"unwrap","inputs":[{"name":"_weETHAmount","type":"uint256","internalType":"uint256"}],"outputs":[{"name":"","type":"uint256","internalType":"uint256"}],"stateMutability":"nonpayable"},{"type":"function","name":"wrap","inputs":[{"name":"_eETHAmount","type":"uint256","internalType":"uint256"}],"outputs":[{"name":"","type":"uint256","internalType":"uint256"}],"stateMutability":"nonpayable"},{"type":"event","name":"Approval","inputs":[{"name":"owner","type":"address","indexed":true,"internalType":"address"},{"name":"spender","type":"address","indexed":true,"internalType":"address"},{"name":"amount","type":"uint256","indexed":false,"internalType":"uint256"}],"anonymous":false},{"type":"event","name":"Transfer","inputs":[{"name":"from","type":"address","indexed":true,"internalType":"address"},{"name":"to","type":"address","indexed":true,"internalType":"address"},{"name":"amount","type":"uint256","indexed":false,"internalType":"uint256"}],"anonymous":false},{"type":"error","name":"TransferOutFailed","inputs":[]},{"type":"error","name":"Unsupported","inputs":[]}],"bytecode":{"object":"0x60c060405234801561000f575f80fd5b506040516111c13803806111c183398101604081905261002e91610160565b6040518060400160405280601181526020017009adec6d640aee4c2e0e0cac840ca8aa89607b1b8152506040518060400160405280600981526020016809adec6d6aeca8aa8960bb1b8152506012825f908161008a9190610225565b5060016100978382610225565b5060ff81166080526040517f8b73c3c69bb8fe3d512ecc4cf759cc79239f7b179b0ffacaa9a75d522b39400f906100cf905f906102e4565b60408051918290038220828201825260018352603160f81b6020938401528151928301939093528101919091527fc89efdaa54c0f20c7adf612882df0950f5a951637e0307cdcb4c672f298b8bc660608201524660808201523060a082015260c00160408051601f1981840301815291905280516020909101206006555050506001600160a01b031660a052610356565b5f60208284031215610170575f80fd5b81516001600160a01b0381168114610186575f80fd5b9392505050565b634e487b7160e01b5f52604160045260245ffd5b600181811c908216806101b557607f821691505b6020821081036101d357634e487b7160e01b5f52602260045260245ffd5b50919050565b601f82111561022057805f5260205f20601f840160051c810160208510156101fe5750805b601f840160051c820191505b8181101561021d575f815560010161020a565b50505b505050565b81516001600160401b0381111561023e5761023e61018d565b6102528161024c84546101a1565b846101d9565b602080601f831160018114610285575f841561026e5750858301515b5f19600386901b1c1916600185901b1785556102dc565b5f85815260208120601f198616915b828110156102b357888601518255948401946001909101908401610294565b50858210156102d057878501515f19600388901b60f8161c191681555b505060018460011b0185555b505050505050565b5f8083546102f1816101a1565b60018281168015610309576001811461031e5761034a565b60ff198416875282151583028701945061034a565b875f526020805f205f5b858110156103415781548a820152908401908201610328565b50505082870194505b50929695505050505050565b60805160a051610e3c6103855f395f8181610187015281816109cd0152610a6a01525f61022a0152610e3c5ff3fe608060405234801561000f575f80fd5b506004361061013d575f3560e01c80637ecebe00116100b4578063d505accf11610079578063d505accf146102e8578063dd62ed3e146102fb578063de0e9a3e14610325578063e087b73214610338578063ea598cb014610346578063fafad6d014610359575f80fd5b80637ecebe001461029b57806395d89b41146102ba5780639dc29fac14610267578063a9059cbb146102c2578063d044fe9b146102d5575f80fd5b806328f5d8f51161010557806328f5d8f5146101eb57806330adf81f146101fe578063313ce567146102255780633644e5151461025e57806340c10f191461026757806370a082311461027c575f80fd5b806306fdde0314610141578063095ea7b31461015f5780630de371e21461018257806318160ddd146101c157806323b872dd146101d8575b5f80fd5b610149610367565b6040516101569190610b91565b60405180910390f35b61017261016d366004610bf8565b6103f2565b6040519015158152602001610156565b6101a97f000000000000000000000000000000000000000000000000000000000000000081565b6040516001600160a01b039091168152602001610156565b6101ca60025481565b604051908152602001610156565b6101726101e6366004610c20565b61045e565b6101ca6101f9366004610c59565b610673565b6101ca7f6e71edae12b1b97f4d1f60370fef10105fa2faae0126114a169c64845d6126c981565b61024c7f000000000000000000000000000000000000000000000000000000000000000081565b60405160ff9091168152602001610156565b6101ca60065481565b61027a610275366004610bf8565b61069b565b005b6101ca61028a366004610c70565b60036020525f908152604090205481565b6101ca6102a9366004610c70565b60056020525f908152604090205481565b6101496106b4565b6101726102d0366004610bf8565b6106c1565b6101ca6102e3366004610c59565b6106d4565b61027a6102f6366004610c89565b6106ec565b6101ca610309366004610cf6565b600460209081525f928352604080842090915290825290205481565b6101ca610333366004610c59565b610935565b67101d56e76d50be956101ca565b6101ca610354366004610c59565b610a46565b670bf392841b5dca9b6101ca565b5f805461037390610d27565b80601f016020809104026020016040519081016040528092919081815260200182805461039f90610d27565b80156103ea5780601f106103c1576101008083540402835291602001916103ea565b820191905f5260205f20905b8154815290600101906020018083116103cd57829003601f168201915b505050505081565b335f8181526004602090815260408083206001600160a01b038716808552925280832085905551919290917f8c5be1e5ebec7d5bd14f71427d1e84f3dd0314c0f7b2291e5b200ac8c7c3b9259061044c9086815260200190565b60405180910390a35060015b92915050565b6001600160a01b0383165f908152600360205260408120548211156104c15760405162461bcd60e51b8152602060048201526014602482015273696e73756666696369656e742d62616c616e636560601b60448201526064015b60405180910390fd5b6001600160a01b03841633148015906104fd57506001600160a01b0384165f9081526004602090815260408083203384529091529020545f1914155b156105be576001600160a01b0384165f90815260046020908152604080832033845290915290205482111561056d5760405162461bcd60e51b8152602060048201526016602482015275696e73756666696369656e742d616c6c6f77616e636560501b60448201526064016104b8565b6001600160a01b0384165f90815260046020908152604080832033845290915290205461059a9083610b5f565b6001600160a01b0385165f9081526004602090815260408083203384529091529020555b6001600160a01b0384165f908152600360205260409020546105e09083610b5f565b6001600160a01b038086165f90815260036020526040808220939093559085168152205461060e9083610b78565b6001600160a01b038085165f8181526003602052604090819020939093559151908616907fddf252ad1be2c89b69c2b068fc378daa952ba7f163c4a11628f55a4df523b3ef906106619086815260200190565b60405180910390a35060019392505050565b5f670de0b6b3a764000067101d56e76d50be955b6106919084610d73565b6104589190610d8a565b604051634851657960e11b815260040160405180910390fd5b6001805461037390610d27565b5f6106cd33848461045e565b9392505050565b5f670de0b6b3a7640000670bf392841b5dca9b610687565b428410156107265760405162461bcd60e51b81526020600482015260076024820152661156141254915160ca1b60448201526064016104b8565b6006546001600160a01b0388165f90815260056020526040812080549192917f6e71edae12b1b97f4d1f60370fef10105fa2faae0126114a169c64845d6126c9918b918b918b91908761077883610da9565b909155506040805160208101969096526001600160a01b0394851690860152929091166060840152608083015260a082015260c0810187905260e001604051602081830303815290604052805190602001206040516020016107f192919061190160f01b81526002810192909252602282015260420190565b60408051601f1981840301815282825280516020918201205f80855291840180845281905260ff88169284019290925260608301869052608083018590529092509060019060a0016020604051602081039080840390855afa158015610859573d5f803e3d5ffd5b5050604051601f1901519150506001600160a01b0381161580159061088f5750886001600160a01b0316816001600160a01b0316145b6108cf5760405162461bcd60e51b8152602060048201526011602482015270494e56414c49445f5349474e415455524560781b60448201526064016104b8565b6001600160a01b038981165f818152600460209081526040808320948d16808452948252918290208b905590518a81527f8c5be1e5ebec7d5bd14f71427d1e84f3dd0314c0f7b2291e5b200ac8c7c3b925910160405180910390a3505050505050505050565b335f9081526003602052604081205461094e9083610b5f565b335f9081526003602052604090205560025461096a9083610b5f565b6002556040518281525f9033907fddf252ad1be2c89b69c2b068fc378daa952ba7f163c4a11628f55a4df523b3ef9060200160405180910390a35f6109ae83610673565b60405163a9059cbb60e01b8152336004820152602481018290529091507f00000000000000000000000000000000000000000000000000000000000000006001600160a01b03169063a9059cbb906044016020604051808303815f875af1158015610a1b573d5f803e3d5ffd5b505050506040513d601f19601f82011682018060405250810190610a3f9190610dc1565b5092915050565b6040516323b872dd60e01b8152336004820152306024820152604481018290525f907f00000000000000000000000000000000000000000000000000000000000000006001600160a01b0316906323b872dd906064016020604051808303815f875af1158015610ab8573d5f803e3d5ffd5b505050506040513d601f19601f82011682018060405250810190610adc9190610dc1565b505f610ae7836106d4565b335f90815260036020526040902054909150610b039082610b78565b335f90815260036020526040902055600254610b1f9082610b78565b60025560405181815233905f907fddf252ad1be2c89b69c2b068fc378daa952ba7f163c4a11628f55a4df523b3ef9060200160405180910390a392915050565b5f82610b6b8382610de0565b9150811115610458575f80fd5b5f82610b848382610df3565b9150811015610458575f80fd5b5f602080835283518060208501525f5b81811015610bbd57858101830151858201604001528201610ba1565b505f604082860101526040601f19601f8301168501019250505092915050565b80356001600160a01b0381168114610bf3575f80fd5b919050565b5f8060408385031215610c09575f80fd5b610c1283610bdd565b946020939093013593505050565b5f805f60608486031215610c32575f80fd5b610c3b84610bdd565b9250610c4960208501610bdd565b9150604084013590509250925092565b5f60208284031215610c69575f80fd5b5035919050565b5f60208284031215610c80575f80fd5b6106cd82610bdd565b5f805f805f805f60e0888a031215610c9f575f80fd5b610ca888610bdd565b9650610cb660208901610bdd565b95506040880135945060608801359350608088013560ff81168114610cd9575f80fd5b9699959850939692959460a0840135945060c09093013592915050565b5f8060408385031215610d07575f80fd5b610d1083610bdd565b9150610d1e60208401610bdd565b90509250929050565b600181811c90821680610d3b57607f821691505b602082108103610d5957634e487b7160e01b5f52602260045260245ffd5b50919050565b634e487b7160e01b5f52601160045260245ffd5b808202811582820484141761045857610458610d5f565b5f82610da457634e487b7160e01b5f52601260045260245ffd5b500490565b5f60018201610dba57610dba610d5f565b5060010190565b5f60208284031215610dd1575f80fd5b815180151581146106cd575f80fd5b8181038181111561045857610458610d5f565b8082018082111561045857610458610d5f56fea26469706673582212208c38e029038016865dce74a348e8c9f4af33e452b0b611de745e7b69de30b6ad64736f6c63430008190033","linkReferences":{}},"methodIdentifiers":{"DOMAIN_SEPARATOR()":"3644e515","PERMIT_TYPEHASH()":"30adf81f","allowance(address,address)":"dd62ed3e","approve(address,uint256)":"095ea7b3","balanceOf(address)":"70a08231","burn(address,uint256)":"9dc29fac","decimals()":"313ce567","eETH()":"0de371e2","eETHPerToken()":"e087b732","getWeETHByeETH(uint256)":"d044fe9b","geteETHByWeETH(uint256)":"28f5d8f5","mint(address,uint256)":"40c10f19","name()":"06fdde03","nonces(address)":"7ecebe00","permit(address,address,uint256,uint256,uint8,bytes32,bytes32)":"d505accf","symbol()":"95d89b41","tokensPereETH()":"fafad6d0","totalSupply()":"18160ddd","transfer(address,uint256)":"a9059cbb","transferFrom(address,address,uint256)":"23b872dd","unwrap(uint256)":"de0e9a3e","wrap(uint256)":"ea598cb0"},"id":16}