{"abi":[{"type":"constructor","inputs":[{"name":"impl_","type":"address","internalType":"address"}],"stateMutability":"nonpayable"},{"type":"fallback","stateMutability":"payable"},{"type":"receive","stateMutability":"payable"},{"type":"function","name":"acceptImplementation","inputs":[],"outputs":[],"stateMutability":"nonpayable"},{"type":"function","name":"acceptOwnership","inputs":[],"outputs":[],"stateMutability":"nonpayable"},{"type":"function","name":"becomeImplementation","inputs":[{"name":"proxy","type":"address","internalType":"contract Upgradeable2Step"}],"outputs":[],"stateMutability":"nonpayable"},{"type":"function","name":"implementation","inputs":[],"outputs":[{"name":"","type":"address","internalType":"address"}],"stateMutability":"view"},{"type":"function","name":"owner","inputs":[],"outputs":[{"name":"","type":"address","internalType":"address"}],"stateMutability":"view"},{"type":"function","name":"pendingImplementation","inputs":[],"outputs":[{"name":"","type":"address","internalType":"address"}],"stateMutability":"view"},{"type":"function","name":"pendingOwner","inputs":[],"outputs":[{"name":"","type":"address","internalType":"address"}],"stateMutability":"view"},{"type":"function","name":"renounceOwnership","inputs":[],"outputs":[],"stateMutability":"nonpayable"},{"type":"function","name":"replaceImplementation","inputs":[{"name":"impl_","type":"address","internalType":"address"}],"outputs":[],"stateMutability":"nonpayable"},{"type":"function","name":"transferOwnership","inputs":[{"name":"newOwner","type":"address","internalType":"address"}],"outputs":[],"stateMutability":"nonpayable"},{"type":"event","name":"OwnershipTransferStarted","inputs":[{"name":"previousOwner","type":"address","indexed":true,"internalType":"address"},{"name":"newOwner","type":"address","indexed":true,"internalType":"address"}],"anonymous":false},{"type":"event","name":"OwnershipTransferred","inputs":[{"name":"previousOwner","type":"address","indexed":true,"internalType":"address"},{"name":"newOwner","type":"address","indexed":true,"internalType":"address"}],"anonymous":false},{"type":"event","name":"ReplaceImplementation","inputs":[{"name":"previousImplementation","type":"address","indexed":true,"internalType":"address"},{"name":"newImplementation","type":"address","indexed":true,"internalType":"address"}],"anonymous":false},{"type":"event","name":"ReplaceImplementationStarted","inputs":[{"name":"previousImplementation","type":"address","indexed":true,"internalType":"address"},{"name":"newImplementation","type":"address","indexed":true,"internalType":"address"}],"anonymous":false},{"type":"error","name":"OwnableInvalidOwner","inputs":[{"name":"owner","type":"address","internalType":"address"}]},{"type":"error","name":"OwnableUnauthorizedAccount","inputs":[{"name":"account","type":"address","internalType":"address"}]},{"type":"error","name":"Unauthorized","inputs":[]}],"bytecode":{"object":"0x608060405234801561000f575f80fd5b506040516106b03803806106b083398101604081905261002e916100ed565b338061005357604051631e4fbdf760e01b81525f600482015260240160405180910390fd5b61005c81610082565b50600380546001600160a01b0319166001600160a01b039290921691909117905561011a565b600180546001600160a01b031916905561009b8161009e565b50565b5f80546001600160a01b038381166001600160a01b0319831681178455604051919092169283917f8be0079c531659141344cd1fd0a4f28419497f9722a3daafe3b4186f6b6457e09190a35050565b5f602082840312156100fd575f80fd5b81516001600160a01b0381168114610113575f80fd5b9392505050565b610589806101275f395ff3fe608060405260043610610094575f3560e01c80638da5cb5b116100585780638da5cb5b14610153578063d69efdc51461016f578063e30c39781461018e578063eaac8c32146101ab578063f2fde38b146101ca5761009b565b806315ba56e5146100bd578063396f7b23146100d15780635c60da1b1461010c578063715018a61461012b57806379ba50971461013f5761009b565b3661009b57005b365f80375f80365f6003545af43d5f803e8080156100b7573d5ff35b3d5ffd5b005b3480156100c8575f80fd5b506100bb6101e9565b3480156100dc575f80fd5b506002546100f0906001600160a01b031681565b6040516001600160a01b03909116815260200160405180910390f35b348015610117575f80fd5b506003546100f0906001600160a01b031681565b348015610136575f80fd5b506100bb610272565b34801561014a575f80fd5b506100bb610285565b34801561015e575f80fd5b505f546001600160a01b03166100f0565b34801561017a575f80fd5b506100bb610189366004610516565b6102c9565b348015610199575f80fd5b506001546001600160a01b03166100f0565b3480156101b6575f80fd5b506100bb6101c5366004610516565b610322565b3480156101d5575f80fd5b506100bb6101e4366004610516565b610403565b6002546001600160a01b0316331461021b5760405163118cdaa760e01b81523360048201526024015b60405180910390fd5b60035460405133916001600160a01b0316907feb7a7d62743daf8cf4055aea544d0a89e2011279ed4105567d010759e6fa4de2905f90a3600280546001600160a01b03199081169091556003805490911633179055565b61027a610473565b6102835f61049f565b565b60015433906001600160a01b031681146102bd5760405163118cdaa760e01b81526001600160a01b0382166004820152602401610212565b6102c68161049f565b50565b6102d1610473565b600280546001600160a01b0319166001600160a01b03838116918217909255600354604051919216907f67f679e13fe9dca16f3079221965ec41838cb8881cbc0f440bc13507c6b214c2905f90a350565b806001600160a01b0316638da5cb5b6040518163ffffffff1660e01b8152600401602060405180830381865afa15801561035e573d5f803e3d5ffd5b505050506040513d601f19601f820116820180604052508101906103829190610538565b6001600160a01b0316336001600160a01b0316146103b2576040516282b42960e81b815260040160405180910390fd5b806001600160a01b03166315ba56e56040518163ffffffff1660e01b81526004015f604051808303815f87803b1580156103ea575f80fd5b505af11580156103fc573d5f803e3d5ffd5b5050505050565b61040b610473565b600180546001600160a01b0383166001600160a01b0319909116811790915561043b5f546001600160a01b031690565b6001600160a01b03167f38d16b8cac22d99fc7c124b9cd0de2d3fa1faef420bfe791d8c362d765e2270060405160405180910390a350565b5f546001600160a01b031633146102835760405163118cdaa760e01b8152336004820152602401610212565b600180546001600160a01b03191690556102c6815f80546001600160a01b038381166001600160a01b0319831681178455604051919092169283917f8be0079c531659141344cd1fd0a4f28419497f9722a3daafe3b4186f6b6457e09190a35050565b6001600160a01b03811681146102c6575f80fd5b5f60208284031215610526575f80fd5b813561053181610502565b9392505050565b5f60208284031215610548575f80fd5b81516105318161050256fea2646970667358221220b7aaaa2fbb4cdfb92405b0baf170ce025f1d9ee06ca1662a54466fad424464e864736f6c63430008190033","linkReferences":{}},"methodIdentifiers":{"acceptImplementation()":"15ba56e5","acceptOwnership()":"79ba5097","becomeImplementation(address)":"eaac8c32","implementation()":"5c60da1b","owner()":"8da5cb5b","pendingImplementation()":"396f7b23","pendingOwner()":"e30c3978","renounceOwnership()":"715018a6","replaceImplementation(address)":"d69efdc5","transferOwnership(address)":"f2fde38b"},"id":18}