{"abi":[{"type":"constructor","inputs":[],"stateMutability":"nonpayable"},{"type":"function","name":"acceptImplementation","inputs":[],"outputs":[],"stateMutability":"nonpayable"},{"type":"function","name":"acceptOwnership","inputs":[],"outputs":[],"stateMutability":"nonpayable"},{"type":"function","name":"becomeImplementation","inputs":[{"name":"proxy","type":"address","internalType":"contract Upgradeable2Step"}],"outputs":[],"stateMutability":"nonpayable"},{"type":"function","name":"implementation","inputs":[],"outputs":[{"name":"","type":"address","internalType":"address"}],"stateMutability":"view"},{"type":"function","name":"owner","inputs":[],"outputs":[{"name":"","type":"address","internalType":"address"}],"stateMutability":"view"},{"type":"function","name":"pendingImplementation","inputs":[],"outputs":[{"name":"","type":"address","internalType":"address"}],"stateMutability":"view"},{"type":"function","name":"pendingOwner","inputs":[],"outputs":[{"name":"","type":"address","internalType":"address"}],"stateMutability":"view"},{"type":"function","name":"renounceOwnership","inputs":[],"outputs":[],"stateMutability":"nonpayable"},{"type":"function","name":"replaceImplementation","inputs":[{"name":"impl_","type":"address","internalType":"address"}],"outputs":[],"stateMutability":"nonpayable"},{"type":"function","name":"transferOwnership","inputs":[{"name":"newOwner","type":"address","internalType":"address"}],"outputs":[],"stateMutability":"nonpayable"},{"type":"event","name":"OwnershipTransferStarted","inputs":[{"name":"previousOwner","type":"address","indexed":true,"internalType":"address"},{"name":"newOwner","type":"address","indexed":true,"internalType":"address"}],"anonymous":false},{"type":"event","name":"OwnershipTransferred","inputs":[{"name":"previousOwner","type":"address","indexed":true,"internalType":"address"},{"name":"newOwner","type":"address","indexed":true,"internalType":"address"}],"anonymous":false},{"type":"event","name":"ReplaceImplementation","inputs":[{"name":"previousImplementation","type":"address","indexed":true,"internalType":"address"},{"name":"newImplementation","type":"address","indexed":true,"internalType":"address"}],"anonymous":false},{"type":"event","name":"ReplaceImplementationStarted","inputs":[{"name":"previousImplementation","type":"address","indexed":true,"internalType":"address"},{"name":"newImplementation","type":"address","indexed":true,"internalType":"address"}],"anonymous":false},{"type":"error","name":"OwnableInvalidOwner","inputs":[{"name":"owner","type":"address","internalType":"address"}]},{"type":"error","name":"OwnableUnauthorizedAccount","inputs":[{"name":"account","type":"address","internalType":"address"}]},{"type":"error","name":"Unauthorized","inputs":[]}],"bytecode":{"object":"0x6080604052348015600e575f80fd5b503380603357604051631e4fbdf760e01b81525f600482015260240160405180910390fd5b603a81603f565b5060a8565b600180546001600160a01b03191690556056816059565b50565b5f80546001600160a01b038381166001600160a01b0319831681178455604051919092169283917f8be0079c531659141344cd1fd0a4f28419497f9722a3daafe3b4186f6b6457e09190a35050565b6104f5806100b55f395ff3fe608060405234801561000f575f80fd5b506004361061009b575f3560e01c80638da5cb5b116100635780638da5cb5b146100fb578063d69efdc51461010b578063e30c39781461011e578063eaac8c321461012f578063f2fde38b14610142575f80fd5b806315ba56e51461009f578063396f7b23146100a95780635c60da1b146100d8578063715018a6146100eb57806379ba5097146100f3575b5f80fd5b6100a7610155565b005b6002546100bc906001600160a01b031681565b6040516001600160a01b03909116815260200160405180910390f35b6003546100bc906001600160a01b031681565b6100a76101de565b6100a76101f1565b5f546001600160a01b03166100bc565b6100a7610119366004610482565b610235565b6001546001600160a01b03166100bc565b6100a761013d366004610482565b61028e565b6100a7610150366004610482565b61036f565b6002546001600160a01b031633146101875760405163118cdaa760e01b81523360048201526024015b60405180910390fd5b60035460405133916001600160a01b0316907feb7a7d62743daf8cf4055aea544d0a89e2011279ed4105567d010759e6fa4de2905f90a3600280546001600160a01b03199081169091556003805490911633179055565b6101e66103df565b6101ef5f61040b565b565b60015433906001600160a01b031681146102295760405163118cdaa760e01b81526001600160a01b038216600482015260240161017e565b6102328161040b565b50565b61023d6103df565b600280546001600160a01b0319166001600160a01b03838116918217909255600354604051919216907f67f679e13fe9dca16f3079221965ec41838cb8881cbc0f440bc13507c6b214c2905f90a350565b806001600160a01b0316638da5cb5b6040518163ffffffff1660e01b8152600401602060405180830381865afa1580156102ca573d5f803e3d5ffd5b505050506040513d601f19601f820116820180604052508101906102ee91906104a4565b6001600160a01b0316336001600160a01b03161461031e576040516282b42960e81b815260040160405180910390fd5b806001600160a01b03166315ba56e56040518163ffffffff1660e01b81526004015f604051808303815f87803b158015610356575f80fd5b505af1158015610368573d5f803e3d5ffd5b5050505050565b6103776103df565b600180546001600160a01b0383166001600160a01b031990911681179091556103a75f546001600160a01b031690565b6001600160a01b03167f38d16b8cac22d99fc7c124b9cd0de2d3fa1faef420bfe791d8c362d765e2270060405160405180910390a350565b5f546001600160a01b031633146101ef5760405163118cdaa760e01b815233600482015260240161017e565b600180546001600160a01b0319169055610232815f80546001600160a01b038381166001600160a01b0319831681178455604051919092169283917f8be0079c531659141344cd1fd0a4f28419497f9722a3daafe3b4186f6b6457e09190a35050565b6001600160a01b0381168114610232575f80fd5b5f60208284031215610492575f80fd5b813561049d8161046e565b9392505050565b5f602082840312156104b4575f80fd5b815161049d8161046e56fea2646970667358221220598535f100b532a55b42ce69014b4fb6697c8a119373f7a816145455bc75027264736f6c63430008190033","linkReferences":{}},"methodIdentifiers":{"acceptImplementation()":"15ba56e5","acceptOwnership()":"79ba5097","becomeImplementation(address)":"eaac8c32","implementation()":"5c60da1b","owner()":"8da5cb5b","pendingImplementation()":"396f7b23","pendingOwner()":"e30c3978","renounceOwnership()":"715018a6","replaceImplementation(address)":"d69efdc5","transferOwnership(address)":"f2fde38b"},"id":21}