{
  "abi": [
    {
      "inputs": [
        {
          "internalType": "address",
          "name": "_allo",
          "type": "address"
        },
        {
          "internalType": "string",
          "name": "_name",
          "type": "string"
        }
      ],
      "stateMutability": "nonpayable",
      "type": "constructor"
    },
    {
      "inputs": [],
      "name": "ALLOCATION_ACTIVE",
      "type": "error"
    },
    {
      "inputs": [],
      "name": "ALLOCATION_NOT_ACTIVE",
      "type": "error"
    },
    {
      "inputs": [],
      "name": "ALLOCATION_NOT_ENDED",
      "type": "error"
    },
    {
      "inputs": [],
      "name": "ALREADY_INITIALIZED",
      "type": "error"
    },
    {
      "inputs": [],
      "name": "AMOUNT_MISMATCH",
      "type": "error"
    },
    {
      "inputs": [],
      "name": "ANCHOR_ERROR",
      "type": "error"
    },
    {
      "inputs": [],
      "name": "ARRAY_MISMATCH",
      "type": "error"
    },
    {
      "inputs": [],
      "name": "INVALID",
      "type": "error"
    },
    {
      "inputs": [],
      "name": "INVALID_ADDRESS",
      "type": "error"
    },
    {
      "inputs": [],
      "name": "INVALID_FEE",
      "type": "error"
    },
    {
      "inputs": [],
      "name": "INVALID_METADATA",
      "type": "error"
    },
    {
      "inputs": [],
      "name": "INVALID_REGISTRATION",
      "type": "error"
    },
    {
      "inputs": [],
      "name": "IS_APPROVED_STRATEGY",
      "type": "error"
    },
    {
      "inputs": [],
      "name": "MISMATCH",
      "type": "error"
    },
    {
      "inputs": [],
      "name": "NONCE_NOT_AVAILABLE",
      "type": "error"
    },
    {
      "inputs": [],
      "name": "NOT_APPROVED_STRATEGY",
      "type": "error"
    },
    {
      "inputs": [],
      "name": "NOT_ENOUGH_FUNDS",
      "type": "error"
    },
    {
      "inputs": [],
      "name": "NOT_INITIALIZED",
      "type": "error"
    },
    {
      "inputs": [],
      "name": "NOT_PENDING_OWNER",
      "type": "error"
    },
    {
      "inputs": [],
      "name": "POOL_ACTIVE",
      "type": "error"
    },
    {
      "inputs": [],
      "name": "POOL_INACTIVE",
      "type": "error"
    },
    {
      "inputs": [],
      "name": "RECIPIENT_ALREADY_ACCEPTED",
      "type": "error"
    },
    {
      "inputs": [
        {
          "internalType": "address",
          "name": "recipientId",
          "type": "address"
        }
      ],
      "name": "RECIPIENT_ERROR",
      "type": "error"
    },
    {
      "inputs": [],
      "name": "RECIPIENT_NOT_ACCEPTED",
      "type": "error"
    },
    {
      "inputs": [],
      "name": "REGISTRATION_NOT_ACTIVE",
      "type": "error"
    },
    {
      "inputs": [],
      "name": "UNAUTHORIZED",
      "type": "error"
    },
    {
      "inputs": [],
      "name": "ZERO_ADDRESS",
      "type": "error"
    },
    {
      "anonymous": false,
      "inputs": [
        {
          "indexed": true,
          "internalType": "address",
          "name": "recipientId",
          "type": "address"
        },
        {
          "indexed": false,
          "internalType": "uint256",
          "name": "amount",
          "type": "uint256"
        },
        {
          "indexed": false,
          "internalType": "address",
          "name": "token",
          "type": "address"
        },
        {
          "indexed": false,
          "internalType": "address",
          "name": "sender",
          "type": "address"
        }
      ],
      "name": "Allocated",
      "type": "event"
    },
    {
      "anonymous": false,
      "inputs": [
        {
          "indexed": true,
          "internalType": "address",
          "name": "recipientId",
          "type": "address"
        },
        {
          "indexed": false,
          "internalType": "address",
          "name": "recipientAddress",
          "type": "address"
        },
        {
          "indexed": false,
          "internalType": "uint256",
          "name": "amount",
          "type": "uint256"
        },
        {
          "indexed": false,
          "internalType": "address",
          "name": "token",
          "type": "address"
        }
      ],
      "name": "Claimed",
      "type": "event"
    },
    {
      "anonymous": false,
      "inputs": [
        {
          "indexed": true,
          "internalType": "address",
          "name": "recipientId",
          "type": "address"
        },
        {
          "indexed": false,
          "internalType": "address",
          "name": "recipientAddress",
          "type": "address"
        },
        {
          "indexed": false,
          "internalType": "uint256",
          "name": "amount",
          "type": "uint256"
        },
        {
          "indexed": false,
          "internalType": "address",
          "name": "sender",
          "type": "address"
        }
      ],
      "name": "Distributed",
      "type": "event"
    },
    {
      "anonymous": false,
      "inputs": [
        {
          "indexed": false,
          "internalType": "address",
          "name": "allo",
          "type": "address"
        },
        {
          "indexed": false,
          "internalType": "bytes32",
          "name": "profileId",
          "type": "bytes32"
        },
        {
          "indexed": false,
          "internalType": "uint256",
          "name": "poolId",
          "type": "uint256"
        },
        {
          "indexed": false,
          "internalType": "bytes",
          "name": "data",
          "type": "bytes"
        }
      ],
      "name": "Initialized",
      "type": "event"
    },
    {
      "anonymous": false,
      "inputs": [
        {
          "indexed": false,
          "internalType": "bytes",
          "name": "recipientIds",
          "type": "bytes"
        }
      ],
      "name": "PayoutSet",
      "type": "event"
    },
    {
      "anonymous": false,
      "inputs": [
        {
          "indexed": false,
          "internalType": "bool",
          "name": "active",
          "type": "bool"
        }
      ],
      "name": "PoolActive",
      "type": "event"
    },
    {
      "anonymous": false,
      "inputs": [
        {
          "indexed": true,
          "internalType": "address",
          "name": "recipientId",
          "type": "address"
        },
        {
          "indexed": false,
          "internalType": "enum IStrategy.Status",
          "name": "recipientStatus",
          "type": "uint8"
        },
        {
          "indexed": false,
          "internalType": "address",
          "name": "sender",
          "type": "address"
        }
      ],
      "name": "RecipientStatusUpdated",
      "type": "event"
    },
    {
      "anonymous": false,
      "inputs": [
        {
          "indexed": true,
          "internalType": "address",
          "name": "recipientId",
          "type": "address"
        },
        {
          "indexed": false,
          "internalType": "bytes",
          "name": "data",
          "type": "bytes"
        },
        {
          "indexed": false,
          "internalType": "address",
          "name": "sender",
          "type": "address"
        }
      ],
      "name": "Registered",
      "type": "event"
    },
    {
      "anonymous": false,
      "inputs": [
        {
          "indexed": false,
          "internalType": "uint64",
          "name": "registrationStartTime",
          "type": "uint64"
        },
        {
          "indexed": false,
          "internalType": "uint64",
          "name": "registrationEndTime",
          "type": "uint64"
        },
        {
          "indexed": false,
          "internalType": "uint64",
          "name": "allocationStartTime",
          "type": "uint64"
        },
        {
          "indexed": false,
          "internalType": "uint64",
          "name": "allocationEndTime",
          "type": "uint64"
        },
        {
          "indexed": false,
          "internalType": "address",
          "name": "sender",
          "type": "address"
        }
      ],
      "name": "TimestampsUpdated",
      "type": "event"
    },
    {
      "anonymous": false,
      "inputs": [
        {
          "indexed": true,
          "internalType": "address",
          "name": "recipientId",
          "type": "address"
        },
        {
          "indexed": false,
          "internalType": "bytes",
          "name": "data",
          "type": "bytes"
        },
        {
          "indexed": false,
          "internalType": "address",
          "name": "sender",
          "type": "address"
        },
        {
          "indexed": false,
          "internalType": "enum IStrategy.Status",
          "name": "status",
          "type": "uint8"
        }
      ],
      "name": "UpdatedRegistration",
      "type": "event"
    },
    {
      "inputs": [],
      "name": "NATIVE",
      "outputs": [
        {
          "internalType": "address",
          "name": "",
          "type": "address"
        }
      ],
      "stateMutability": "view",
      "type": "function"
    },
    {
      "inputs": [
        {
          "internalType": "bytes",
          "name": "_data",
          "type": "bytes"
        },
        {
          "internalType": "address",
          "name": "_sender",
          "type": "address"
        }
      ],
      "name": "allocate",
      "outputs": [],
      "stateMutability": "payable",
      "type": "function"
    },
    {
      "inputs": [],
      "name": "allocationEndTime",
      "outputs": [
        {
          "internalType": "uint64",
          "name": "",
          "type": "uint64"
        }
      ],
      "stateMutability": "view",
      "type": "function"
    },
    {
      "inputs": [],
      "name": "allocationStartTime",
      "outputs": [
        {
          "internalType": "uint64",
          "name": "",
          "type": "uint64"
        }
      ],
      "stateMutability": "view",
      "type": "function"
    },
    {
      "inputs": [
        {
          "internalType": "address",
          "name": "",
          "type": "address"
        }
      ],
      "name": "allowedTokens",
      "outputs": [
        {
          "internalType": "bool",
          "name": "",
          "type": "bool"
        }
      ],
      "stateMutability": "view",
      "type": "function"
    },
    {
      "inputs": [
        {
          "components": [
            {
              "internalType": "address",
              "name": "recipientId",
              "type": "address"
            },
            {
              "internalType": "address",
              "name": "token",
              "type": "address"
            }
          ],
          "internalType": "struct DonationVotingStrategy.Claim[]",
          "name": "_claims",
          "type": "tuple[]"
        }
      ],
      "name": "claim",
      "outputs": [],
      "stateMutability": "nonpayable",
      "type": "function"
    },
    {
      "inputs": [
        {
          "internalType": "address",
          "name": "",
          "type": "address"
        },
        {
          "internalType": "address",
          "name": "",
          "type": "address"
        }
      ],
      "name": "claims",
      "outputs": [
        {
          "internalType": "uint256",
          "name": "",
          "type": "uint256"
        }
      ],
      "stateMutability": "view",
      "type": "function"
    },
    {
      "inputs": [
        {
          "internalType": "address[]",
          "name": "_recipientIds",
          "type": "address[]"
        },
        {
          "internalType": "bytes",
          "name": "_data",
          "type": "bytes"
        },
        {
          "internalType": "address",
          "name": "_sender",
          "type": "address"
        }
      ],
      "name": "distribute",
      "outputs": [],
      "stateMutability": "nonpayable",
      "type": "function"
    },
    {
      "inputs": [],
      "name": "getAllo",
      "outputs": [
        {
          "internalType": "contract IAllo",
          "name": "",
          "type": "address"
        }
      ],
      "stateMutability": "view",
      "type": "function"
    },
    {
      "inputs": [
        {
          "internalType": "address[]",
          "name": "_recipientIds",
          "type": "address[]"
        },
        {
          "internalType": "bytes[]",
          "name": "_data",
          "type": "bytes[]"
        }
      ],
      "name": "getPayouts",
      "outputs": [
        {
          "components": [
            {
              "internalType": "address",
              "name": "recipientAddress",
              "type": "address"
            },
            {
              "internalType": "uint256",
              "name": "amount",
              "type": "uint256"
            }
          ],
          "internalType": "struct IStrategy.PayoutSummary[]",
          "name": "",
          "type": "tuple[]"
        }
      ],
      "stateMutability": "view",
      "type": "function"
    },
    {
      "inputs": [],
      "name": "getPoolAmount",
      "outputs": [
        {
          "internalType": "uint256",
          "name": "",
          "type": "uint256"
        }
      ],
      "stateMutability": "view",
      "type": "function"
    },
    {
      "inputs": [],
      "name": "getPoolId",
      "outputs": [
        {
          "internalType": "uint256",
          "name": "",
          "type": "uint256"
        }
      ],
      "stateMutability": "view",
      "type": "function"
    },
    {
      "inputs": [
        {
          "internalType": "address",
          "name": "_recipientId",
          "type": "address"
        }
      ],
      "name": "getRecipient",
      "outputs": [
        {
          "components": [
            {
              "internalType": "bool",
              "name": "useRegistryAnchor",
              "type": "bool"
            },
            {
              "internalType": "address",
              "name": "recipientAddress",
              "type": "address"
            },
            {
              "components": [
                {
                  "internalType": "uint256",
                  "name": "protocol",
                  "type": "uint256"
                },
                {
                  "internalType": "string",
                  "name": "pointer",
                  "type": "string"
                }
              ],
              "internalType": "struct Metadata",
              "name": "metadata",
              "type": "tuple"
            },
            {
              "internalType": "enum IStrategy.Status",
              "name": "recipientStatus",
              "type": "uint8"
            }
          ],
          "internalType": "struct DonationVotingStrategy.Recipient",
          "name": "",
          "type": "tuple"
        }
      ],
      "stateMutability": "view",
      "type": "function"
    },
    {
      "inputs": [
        {
          "internalType": "address",
          "name": "_recipientId",
          "type": "address"
        }
      ],
      "name": "getRecipientStatus",
      "outputs": [
        {
          "internalType": "enum IStrategy.Status",
          "name": "",
          "type": "uint8"
        }
      ],
      "stateMutability": "view",
      "type": "function"
    },
    {
      "inputs": [],
      "name": "getStrategyId",
      "outputs": [
        {
          "internalType": "bytes32",
          "name": "",
          "type": "bytes32"
        }
      ],
      "stateMutability": "view",
      "type": "function"
    },
    {
      "inputs": [
        {
          "internalType": "uint256",
          "name": "_amount",
          "type": "uint256"
        }
      ],
      "name": "increasePoolAmount",
      "outputs": [],
      "stateMutability": "nonpayable",
      "type": "function"
    },
    {
      "inputs": [
        {
          "internalType": "uint256",
          "name": "_poolId",
          "type": "uint256"
        },
        {
          "internalType": "bytes",
          "name": "_data",
          "type": "bytes"
        }
      ],
      "name": "initialize",
      "outputs": [],
      "stateMutability": "nonpayable",
      "type": "function"
    },
    {
      "inputs": [],
      "name": "isPoolActive",
      "outputs": [
        {
          "internalType": "bool",
          "name": "",
          "type": "bool"
        }
      ],
      "stateMutability": "view",
      "type": "function"
    },
    {
      "inputs": [
        {
          "internalType": "address",
          "name": "_allocator",
          "type": "address"
        }
      ],
      "name": "isValidAllocator",
      "outputs": [
        {
          "internalType": "bool",
          "name": "",
          "type": "bool"
        }
      ],
      "stateMutability": "view",
      "type": "function"
    },
    {
      "inputs": [],
      "name": "metadataRequired",
      "outputs": [
        {
          "internalType": "bool",
          "name": "",
          "type": "bool"
        }
      ],
      "stateMutability": "view",
      "type": "function"
    },
    {
      "inputs": [
        {
          "internalType": "address",
          "name": "",
          "type": "address"
        }
      ],
      "name": "payoutSummaries",
      "outputs": [
        {
          "internalType": "address",
          "name": "recipientAddress",
          "type": "address"
        },
        {
          "internalType": "uint256",
          "name": "amount",
          "type": "uint256"
        }
      ],
      "stateMutability": "view",
      "type": "function"
    },
    {
      "inputs": [
        {
          "internalType": "bytes",
          "name": "_data",
          "type": "bytes"
        },
        {
          "internalType": "address",
          "name": "_sender",
          "type": "address"
        }
      ],
      "name": "registerRecipient",
      "outputs": [
        {
          "internalType": "address",
          "name": "recipientId",
          "type": "address"
        }
      ],
      "stateMutability": "payable",
      "type": "function"
    },
    {
      "inputs": [],
      "name": "registrationEndTime",
      "outputs": [
        {
          "internalType": "uint64",
          "name": "",
          "type": "uint64"
        }
      ],
      "stateMutability": "view",
      "type": "function"
    },
    {
      "inputs": [],
      "name": "registrationStartTime",
      "outputs": [
        {
          "internalType": "uint64",
          "name": "",
          "type": "uint64"
        }
      ],
      "stateMutability": "view",
      "type": "function"
    },
    {
      "inputs": [],
      "name": "registry",
      "outputs": [
        {
          "internalType": "contract SimpleProjectRegistry",
          "name": "",
          "type": "address"
        }
      ],
      "stateMutability": "view",
      "type": "function"
    },
    {
      "inputs": [
        {
          "internalType": "address[]",
          "name": "_recipientIds",
          "type": "address[]"
        },
        {
          "internalType": "enum IStrategy.Status[]",
          "name": "_recipientStatuses",
          "type": "uint8[]"
        }
      ],
      "name": "reviewRecipients",
      "outputs": [],
      "stateMutability": "nonpayable",
      "type": "function"
    },
    {
      "inputs": [
        {
          "internalType": "address[]",
          "name": "_recipientIds",
          "type": "address[]"
        },
        {
          "internalType": "uint256[]",
          "name": "_amounts",
          "type": "uint256[]"
        }
      ],
      "name": "setPayout",
      "outputs": [],
      "stateMutability": "nonpayable",
      "type": "function"
    },
    {
      "inputs": [],
      "name": "totalPayoutAmount",
      "outputs": [
        {
          "internalType": "uint256",
          "name": "",
          "type": "uint256"
        }
      ],
      "stateMutability": "view",
      "type": "function"
    },
    {
      "inputs": [
        {
          "internalType": "uint64",
          "name": "_registrationStartTime",
          "type": "uint64"
        },
        {
          "internalType": "uint64",
          "name": "_registrationEndTime",
          "type": "uint64"
        },
        {
          "internalType": "uint64",
          "name": "_allocationStartTime",
          "type": "uint64"
        },
        {
          "internalType": "uint64",
          "name": "_allocationEndTime",
          "type": "uint64"
        }
      ],
      "name": "updatePoolTimestamps",
      "outputs": [],
      "stateMutability": "nonpayable",
      "type": "function"
    },
    {
      "inputs": [],
      "name": "useRegistryAnchor",
      "outputs": [
        {
          "internalType": "bool",
          "name": "",
          "type": "bool"
        }
      ],
      "stateMutability": "view",
      "type": "function"
    },
    {
      "inputs": [
        {
          "internalType": "uint256",
          "name": "_amount",
          "type": "uint256"
        }
      ],
      "name": "withdraw",
      "outputs": [],
      "stateMutability": "nonpayable",
      "type": "function"
    },
    {
      "stateMutability": "payable",
      "type": "receive"
    }
  ],
  "bytecode": {
    "object": "0x60c06040523480156200001157600080fd5b50604051620033e5380380620033e58339810160408190526200003491620000c5565b6001600160a01b03821660805260405182908290829082906200005c908290602001620001a0565b60408051601f19818403018152919052805160209091012060a0525050600160035550620001d592505050565b634e487b7160e01b600052604160045260246000fd5b60005b83811015620000bc578181015183820152602001620000a2565b50506000910152565b60008060408385031215620000d957600080fd5b82516001600160a01b0381168114620000f157600080fd5b60208401519092506001600160401b03808211156200010f57600080fd5b818501915085601f8301126200012457600080fd5b81518181111562000139576200013962000089565b604051601f8201601f19908116603f0116810190838211818310171562000164576200016462000089565b816040528281528860208487010111156200017e57600080fd5b620001918360208301602088016200009f565b80955050505050509250929050565b6020815260008251806020840152620001c18160408501602087016200009f565b601f01601f19169190910160400192915050565b60805160a0516131c76200021e600039600061038e01526000818161021901528181610a69015281816111df01528181611359015281816114a80152611ce701526131c76000f3fe6080604052600436106101dc5760003560e01c80637b10399911610102578063df868ed311610095578063eb11af9311610064578063eb11af9314610624578063edd146cc14610651578063ef2920fc14610671578063f5b0dfb71461068457600080fd5b8063df868ed31461059c578063dff7d2c7146105b1578063e744092e146105de578063e7efcfc21461060e57600080fd5b8063b2b878d0116100d1578063b2b878d014610508578063cb0e85a614610535578063d268393714610554578063d2e17f591461057457600080fd5b80637b1039991461047f5780637f8359831461049f5780639af5c09d146104bf578063a0cf0aea146104e057600080fd5b806338fff2d01161017a5780634ab4ba42116101495780634ab4ba42146103f35780634d31d08714610408578063570897391461043857806362812a391461045257600080fd5b806338fff2d0146103285780633f733c6b1461034757806342fda9c71461037f5780634533d678146103b257600080fd5b806329ce44ab116101b657806329ce44ab146102765780632bbe0cae146102965780632e1a7d4d146102a9578063385d7aec146102c957600080fd5b80630a6f0ee9146101e857806315cc481e1461020a5780632143e92f1461025657600080fd5b366101e357005b600080fd5b3480156101f457600080fd5b506102086102033660046124cf565b6106a4565b005b34801561021657600080fd5b507f00000000000000000000000000000000000000000000000000000000000000005b6040516001600160a01b0390911681526020015b60405180910390f35b34801561026257600080fd5b5061020861027136600461255d565b6106c4565b34801561028257600080fd5b506102086102913660046125b9565b6107c3565b6102396102a4366004612674565b6109d3565b3480156102b557600080fd5b506102086102c43660046126c6565b6109f8565b3480156102d557600080fd5b506103096102e43660046126df565b600960205260009081526040902080546001909101546001600160a01b039091169082565b604080516001600160a01b03909316835260208301919091520161024d565b34801561033457600080fd5b506001545b60405190815260200161024d565b34801561035357600080fd5b506103396103623660046126fc565b600a60209081526000928352604080842090915290825290205481565b34801561038b57600080fd5b507f0000000000000000000000000000000000000000000000000000000000000000610339565b3480156103be57600080fd5b506006546103da90600160c01b900467ffffffffffffffff1681565b60405167ffffffffffffffff909116815260200161024d565b3480156103ff57600080fd5b50600254610339565b34801561041457600080fd5b506104286104233660046126df565b610b3e565b604051901515815260200161024d565b34801561044457600080fd5b506004546104289060ff1681565b34801561045e57600080fd5b5061047261046d3660046126df565b610b47565b60405161024d91906127b2565b34801561048b57600080fd5b50600b54610239906001600160a01b031681565b3480156104ab57600080fd5b506102086104ba36600461286a565b610b8b565b3480156104cb57600080fd5b506006546103da9067ffffffffffffffff1681565b3480156104ec57600080fd5b5061023973eeeeeeeeeeeeeeeeeeeeeeeeeeeeeeeeeeeeeeee81565b34801561051457600080fd5b506105286105233660046128d6565b610d0e565b60405161024d91906129ab565b34801561054157600080fd5b5060045461042890610100900460ff1681565b34801561056057600080fd5b5061020861056f366004612a03565b610e64565b34801561058057600080fd5b506006546103da90600160801b900467ffffffffffffffff1681565b3480156105a857600080fd5b506104286110d6565b3480156105bd57600080fd5b506006546103da9068010000000000000000900467ffffffffffffffff1681565b3480156105ea57600080fd5b506104286105f93660046126df565b60076020526000908152604090205460ff1681565b34801561061a57600080fd5b5061033960055481565b34801561063057600080fd5b5061064461063f3660046126df565b6110e5565b60405161024d9190612a78565b34801561065d57600080fd5b5061020861066c366004612a86565b6110f0565b61020861067f366004612674565b611190565b34801561069057600080fd5b5061020861069f3660046126c6565b6111aa565b6106ac6111d4565b6106b461121f565b6106bf83838361125b565b505050565b336106ce81611465565b6106da85858585611530565b6006805467ffffffffffffffff848116600160c01b90810277ffffffffffffffffffffffffffffffffffffffffffffffff888416600160801b908102919091166fffffffffffffffffffffffffffffffff8b8616680100000000000000009081026fffffffffffffffffffffffffffffffff199098168e88161797909717161791909117948590556040805186851681529486048416602086015290850483169084015290920490911660608201523360808201527fcb0fb7a7b87db2f472ee8977444cfdbc51993ce660aca27a5969a724fae6dcf39060a00160405180910390a15050505050565b336107cd81611465565b6107d56115d9565b8251825181146107f857604051637fcce2a960e01b815260040160405180910390fd5b60005b8181101561097857600085828151811061081757610817612acd565b60200260200101519050600260068111156108345761083461277a565b6001600160a01b03821660009081526008602052604090206003015460ff1660068111156108645761086461277a565b1461088257604051637fcce2a960e01b815260040160405180910390fd5b6001600160a01b03811660009081526009602052604090206001810154156108cd5760405163f4a513b960e01b81526001600160a01b03831660048201526024015b60405180910390fd5b60008684815181106108e1576108e1612acd565b6020026020010151905080600560008282546108fd9190612af9565b9091555050600254600554111561092757604051637fcce2a960e01b815260040160405180910390fd5b6001808301919091556001600160a01b03928316600090815260086020526040902054825473ffffffffffffffffffffffffffffffffffffffff1916610100909104909316929092179055016107fb565b507f323401fe9146df9057cd41d07a1c29cb6127c70d82114e48769a66d502b7a687846040516020016109ab9190612b0c565b60408051601f19818403018152908290526109c591612b59565b60405180910390a150505050565b60006109dd6111d4565b6109e561121f565b6109ef8383611626565b90505b92915050565b33610a0281611465565b600654610a2390600160c01b900467ffffffffffffffff1662278d00612b6c565b67ffffffffffffffff164211610a4c57604051637fcce2a960e01b815260040160405180910390fd5b60015460405163068bcd8d60e01b81526000916001600160a01b037f0000000000000000000000000000000000000000000000000000000000000000169163068bcd8d91610aa09160040190815260200190565b600060405180830381865afa158015610abd573d6000803e3d6000fd5b505050506040513d6000823e601f3d908101601f19168201604052610ae59190810190612c21565b905082600554600254610af89190612cd5565b1015610b1757604051637fcce2a960e01b815260040160405180910390fd5b8260026000828254610b299190612cd5565b909155505060408101516106bf903385611956565b600060016109f2565b610b82604080516080810182526000808252602080830182905283518085018552918252606090820152909182019081526020016000905290565b6109f28261199b565b33610b9581611465565b610b9d611af9565b83828114610bbe57604051637fcce2a960e01b815260040160405180910390fd5b60005b81811015610d05576000858583818110610bdd57610bdd612acd565b9050602002016020810190610bf29190612ce8565b90506000888884818110610c0857610c08612acd565b9050602002016020810190610c1d91906126df565b90506000826006811115610c3357610c3361277a565b1480610c5057506004826006811115610c4e57610c4e61277a565b145b15610c795760405163f4a513b960e01b81526001600160a01b03821660048201526024016108c4565b6001600160a01b038116600090815260086020526040902060038101805484919060ff19166001836006811115610cb257610cb261277a565b0217905550816001600160a01b03167f45af2a5942640dc0876474f4fda063eec36dd5518e0bba47622461b993f762a38433604051610cf2929190612d09565b60405180910390a2505050600101610bc1565b50505050505050565b81518151606091908114610d4e576040517f7b49805600000000000000000000000000000000000000000000000000000000815260040160405180910390fd5b60008167ffffffffffffffff811115610d6957610d696122f3565b604051908082528060200260200182016040528015610dae57816020015b6040805180820190915260008082526020820152815260200190600190039081610d875790505b50905060005b82811015610e5b57610e36868281518110610dd157610dd1612acd565b6020026020010151868381518110610deb57610deb612acd565b5050604080518082018252600080825260209182018190526001600160a01b039384168152600982528290208251808401909352805490931682526001909201549181019190915290565b828281518110610e4857610e48612acd565b6020908102919091010152600101610db4565b50949350505050565b610e6c611b63565b610e746115d9565b8060005b818110156110c6576000848483818110610e9457610e94612acd565b905060400201803603810190610eaa9190612d2d565b80516001600160a01b0390811660009081526008602090815260408083208151608081018352815460ff81161515825261010090049095168584015281518083018352600182018054825260028301805498995095979295938701949193909291840191610f1790612d6e565b80601f0160208091040260200160405190810160405280929190818152602001828054610f4390612d6e565b8015610f905780601f10610f6557610100808354040283529160200191610f90565b820191906000526020600020905b815481529060010190602001808311610f7357829003601f168201915b505050919092525050508152600382015460209091019060ff166006811115610fbb57610fbb61277a565b6006811115610fcc57610fcc61277a565b90525082516001600160a01b039081166000908152600a602090815260408083208288015190941683529290529081205491925081900361102057604051637fcce2a960e01b815260040160405180910390fd5b82516001600160a01b039081166000908152600a6020908152604080832082880180519095168452825282209190915590519083015161106290829084611956565b8351602084810151604080516001600160a01b03928316815292830186905284821683820152519216917f0ffa55c11cec5055a4f567b0ff6e1e0eef2af17baafddd35f31ab4ed1afb75469181900360600190a2505060019092019150610e789050565b50506110d26001600355565b5050565b60006110e0611bd6565b905090565b60006109f282611c20565b6110f86111d4565b60008180602001905181019061110e9190612e26565b905061111e838260200151611c87565b80516001600160a01b031661115f576040517f5963709b00000000000000000000000000000000000000000000000000000000815260040160405180910390fd5b51600b805473ffffffffffffffffffffffffffffffffffffffff19166001600160a01b039092169190911790555050565b6111986111d4565b6111a061121f565b6110d28282611f41565b6111b26111d4565b80600260008282546111c49190612af9565b909155506111d190508181565b50565b336001600160a01b037f0000000000000000000000000000000000000000000000000000000000000000161461121d5760405163075fd2b160e01b815260040160405180910390fd5b565b60015460000361121d576040517f3da3f98c00000000000000000000000000000000000000000000000000000000815260040160405180910390fd5b8061126581611465565b61126d6115d9565b835160005b8181101561145d57600086828151811061128e5761128e612acd565b6020908102919091018101516001600160a01b0381166000908152600890925260409091209091506002600382015460ff1660068111156112d1576112d161277a565b146112fa5760405163f4a513b960e01b81526001600160a01b03831660048201526024016108c4565b6001600160a01b03821660009081526009602052604081206001018054908290559081900361133c57604051637fcce2a960e01b815260040160405180910390fd5b60015460405163068bcd8d60e01b81526000916001600160a01b037f0000000000000000000000000000000000000000000000000000000000000000169163068bcd8d916113909160040190815260200190565b600060405180830381865afa1580156113ad573d6000803e3d6000fd5b505050506040513d6000823e601f3d908101601f191682016040526113d59190810190612c21565b604081015184549192506113f79161010090046001600160a01b031684611956565b8254604080516001600160a01b0361010090930483168152602081018590528a8316818301529051918616917fb5b51454adfa840bd593658325a60a50b0216f12eb5d2937efe6cea935675b7d9181900360600190a25050600190920191506112729050565b505050505050565b6001546040517f29e40d4b00000000000000000000000000000000000000000000000000000000815260048101919091526001600160a01b0382811660248301527f000000000000000000000000000000000000000000000000000000000000000016906329e40d4b90604401602060405180830381865afa1580156114ef573d6000803e3d6000fd5b505050506040513d601f19601f820116820180604052508101906115139190612f3a565b6111d15760405163075fd2b160e01b815260040160405180910390fd5b8367ffffffffffffffff1642118061155b57508267ffffffffffffffff168467ffffffffffffffff16115b8061157957508167ffffffffffffffff168467ffffffffffffffff16115b8061159757508067ffffffffffffffff168267ffffffffffffffff16115b806115b557508067ffffffffffffffff168367ffffffffffffffff16115b156115d357604051637fcce2a960e01b815260040160405180910390fd5b50505050565b600654600160c01b900467ffffffffffffffff1642101561121d576040517f8a879da200000000000000000000000000000000000000000000000000000000815260040160405180910390fd5b6000611630611af9565b6000806000611652604051806040016040528060008152602001606081525090565b60045460ff16156116a457868060200190518101906116719190612f55565b91965094509050611682858761212d565b61169f5760405163075fd2b160e01b815260040160405180910390fd5b61170e565b868060200190518101906116b89190612f55565b91955093506001600160a01b038416151592509050816116d857856116da565b825b94508180156116f057506116ee858761212d565b155b1561170e5760405163075fd2b160e01b815260040160405180910390fd5b600454610100900460ff1680156117315750602081015151158061173157508051155b15611768576040517fc19e07c500000000000000000000000000000000000000000000000000000000815260040160405180910390fd5b6001600160a01b03841661179a5760405163f4a513b960e01b81526001600160a01b03861660048201526024016108c4565b6001600160a01b0380861660009081526008602090815260409091208054928716610100027fffffffffffffffffffffff0000000000000000000000000000000000000000ff9093169290921782558251600183019081559083015183919060028401906118089082612fff565b505060045460ff16905061181c578261181f565b60015b815460ff1916901515178155600381015460ff1660008160068111156118475761184761277a565b036118a55760038201805460ff191660011790556040516001600160a01b038816907fa197306e3dd5494a61a695381aa809a53b8e377a685e84e404a85d5a8da6cc6290611898908c908c906130bf565b60405180910390a261194a565b60028160068111156118b9576118b961277a565b036118d25760038201805460ff191660011790556118fb565b60038160068111156118e6576118e661277a565b036118fb5760038201805460ff191660041790555b60038201546040516001600160a01b038916917fcec1da3f7f0b8a344dd1025d06e2ddd48b14880395997ad97cbdb439acc761d491611941918d918d9160ff16906130ea565b60405180910390a25b50505050505092915050565b7fffffffffffffffffffffffff11111111111111111111111111111111111111126001600160a01b03841601611990576106bf82826121b5565b6106bf8383836121d1565b6119d6604080516080810182526000808252602080830182905283518085018552918252606090820152909182019081526020016000905290565b6001600160a01b038083166000908152600860209081526040918290208251608081018452815460ff811615158252610100900490941684830152825180840184526001820180548252600283018054939587019492939192840191611a3b90612d6e565b80601f0160208091040260200160405190810160405280929190818152602001828054611a6790612d6e565b8015611ab45780601f10611a8957610100808354040283529160200191611ab4565b820191906000526020600020905b815481529060010190602001808311611a9757829003601f168201915b505050919092525050508152600382015460209091019060ff166006811115611adf57611adf61277a565b6006811115611af057611af061277a565b90525092915050565b6006544267ffffffffffffffff9091161180611b2c575060065468010000000000000000900467ffffffffffffffff1642115b1561121d576040517fb609ed5a00000000000000000000000000000000000000000000000000000000815260040160405180910390fd5b600260035403611bcf576040517f08c379a000000000000000000000000000000000000000000000000000000000815260206004820152601f60248201527f5265656e7472616e637947756172643a207265656e7472616e742063616c6c0060448201526064016108c4565b6002600355565b6006546000904267ffffffffffffffff90911611801590611c0f575060065468010000000000000000900467ffffffffffffffff164211155b15611c1a5750600190565b50600090565b600080611c2c8361199b565b6060015190506004816006811115611c4657611c4661277a565b03611c545750600192915050565b806006811115611c6657611c6661277a565b60ff166006811115611c7a57611c7a61277a565b9392505050565b50919050565b611c9082612220565b80516004805460208085015161ffff1990921693151561ff0019169390931761010091151591909102178155604080517f5ab1bd5300000000000000000000000000000000000000000000000000000000815290517f00000000000000000000000000000000000000000000000000000000000000006001600160a01b031693635ab1bd5393838101939192918290030181865afa158015611d36573d6000803e3d6000fd5b505050506040513d601f19601f82011682018060405250810190611d5a9190613123565b600460026101000a8154816001600160a01b0302191690836001600160a01b03160217905550611d9c8160400151826060015183608001518460a00151611530565b6040818101516006805460608086015160808088015160a0808a015167ffffffffffffffff9889166fffffffffffffffffffffffffffffffff1990971696909617680100000000000000009489168502176fffffffffffffffffffffffffffffffff16600160801b928916830277ffffffffffffffffffffffffffffffffffffffffffffffff1617600160c01b968916870217968790558851878916815293870488166020850152908604871697830197909752929093049093169282019290925233918101919091527fcb0fb7a7b87db2f472ee8977444cfdbc51993ce660aca27a5969a724fae6dcf3910160405180910390a160c0810151516000819003611ed6576000805260076020527f6d5257204ebe7d88fd91ae87941cb2dd9d8062b64ae5a2bd2d28ec40b9fbf6df805460ff191660011790555b60005b818110156115d3576001600760008560c001518481518110611efd57611efd612acd565b6020908102919091018101516001600160a01b03168252810191909152604001600020805460ff191691151591909117905580611f3981613140565b915050611ed9565b611f49611b63565b611f51612288565b600080600084806020019051810190611f6a9190613159565b6001600160a01b038316600090815260086020526040902092955090935091506002600382015460ff166006811115611fa557611fa561277a565b14611fce5760405163f4a513b960e01b81526001600160a01b03851660048201526024016108c4565b6001600160a01b03821660009081526007602052604090205460ff1615801561202257506000805260076020527f6d5257204ebe7d88fd91ae87941cb2dd9d8062b64ae5a2bd2d28ec40b9fbf6df5460ff16155b1561204057604051637fcce2a960e01b815260040160405180910390fd5b6001600160a01b03821673eeeeeeeeeeeeeeeeeeeeeeeeeeeeeeeeeeeeeeee14801561206c5750823414155b1561208a57604051637fcce2a960e01b815260040160405180910390fd5b612095823085611956565b6001600160a01b038085166000908152600a60209081526040808320938616835292905290812080548592906120cc908490612af9565b9091555050604080518481526001600160a01b038481166020830152878116828401529151918616917f463ffc2cf8b1596445c417388ed30e53eb67cf6668cb2be7f0addf8a78c8441b9181900360600190a2505050506110d26001600355565b600b546040517f840e78fd0000000000000000000000000000000000000000000000000000000081526001600160a01b038481166004830152600092169063840e78fd90602401602060405180830381865afa158015612191573d6000803e3d6000fd5b505050506040513d601f19601f820116820180604052508101906109ef9190612f3a565b60008060008084865af16110d25763b12d13eb6000526004601cfd5b81601452806034526fa9059cbb00000000000000000000000060005260206000604460106000875af13d156001600051141716612216576390b8ec186000526004601cfd5b6000603452505050565b6122286111d4565b60015415612262576040517f439a74c900000000000000000000000000000000000000000000000000000000815260040160405180910390fd5b8060000361228357604051637fcce2a960e01b815260040160405180910390fd5b600155565b60065442600160801b90910467ffffffffffffffff1611806122bc5750600654600160c01b900467ffffffffffffffff1642115b1561121d576040517fb828c90000000000000000000000000000000000000000000000000000000000815260040160405180910390fd5b634e487b7160e01b600052604160045260246000fd5b6040805190810167ffffffffffffffff8111828210171561232c5761232c6122f3565b60405290565b60405160c0810167ffffffffffffffff8111828210171561232c5761232c6122f3565b60405160e0810167ffffffffffffffff8111828210171561232c5761232c6122f3565b604051601f8201601f1916810167ffffffffffffffff811182821017156123a1576123a16122f3565b604052919050565b600067ffffffffffffffff8211156123c3576123c36122f3565b5060051b60200190565b6001600160a01b03811681146111d157600080fd5b600082601f8301126123f357600080fd5b81356020612408612403836123a9565b612378565b82815260059290921b8401810191818101908684111561242757600080fd5b8286015b8481101561244b57803561243e816123cd565b835291830191830161242b565b509695505050505050565b600067ffffffffffffffff821115612470576124706122f3565b50601f01601f191660200190565b600082601f83011261248f57600080fd5b813561249d61240382612456565b8181528460208386010111156124b257600080fd5b816020850160208301376000918101602001919091529392505050565b6000806000606084860312156124e457600080fd5b833567ffffffffffffffff808211156124fc57600080fd5b612508878388016123e2565b9450602086013591508082111561251e57600080fd5b5061252b8682870161247e565b925050604084013561253c816123cd565b809150509250925092565b67ffffffffffffffff811681146111d157600080fd5b6000806000806080858703121561257357600080fd5b843561257e81612547565b9350602085013561258e81612547565b9250604085013561259e81612547565b915060608501356125ae81612547565b939692955090935050565b600080604083850312156125cc57600080fd5b823567ffffffffffffffff808211156125e457600080fd5b6125f0868387016123e2565b935060209150818501358181111561260757600080fd5b85019050601f8101861361261a57600080fd5b8035612628612403826123a9565b81815260059190911b8201830190838101908883111561264757600080fd5b928401925b828410156126655783358252928401929084019061264c565b80955050505050509250929050565b6000806040838503121561268757600080fd5b823567ffffffffffffffff81111561269e57600080fd5b6126aa8582860161247e565b92505060208301356126bb816123cd565b809150509250929050565b6000602082840312156126d857600080fd5b5035919050565b6000602082840312156126f157600080fd5b8135611c7a816123cd565b6000806040838503121561270f57600080fd5b823561271a816123cd565b915060208301356126bb816123cd565b60005b8381101561274557818101518382015260200161272d565b50506000910152565b6000815180845261276681602086016020860161272a565b601f01601f19169290920160200192915050565b634e487b7160e01b600052602160045260246000fd5b600781106127ae57634e487b7160e01b600052602160045260246000fd5b9052565b602081528151151560208201526001600160a01b0360208301511660408201526000604083015160806060840152805160a084015260208101519050604060c084015261280260e084018261274e565b905060608401516128166080850182612790565b509392505050565b60008083601f84011261283057600080fd5b50813567ffffffffffffffff81111561284857600080fd5b6020830191508360208260051b850101111561286357600080fd5b9250929050565b6000806000806040858703121561288057600080fd5b843567ffffffffffffffff8082111561289857600080fd5b6128a48883890161281e565b909650945060208701359150808211156128bd57600080fd5b506128ca8782880161281e565b95989497509550505050565b600080604083850312156128e957600080fd5b823567ffffffffffffffff8082111561290157600080fd5b61290d868387016123e2565b935060209150818501358181111561292457600080fd5b8501601f8101871361293557600080fd5b8035612943612403826123a9565b81815260059190911b8201840190848101908983111561296257600080fd5b8584015b8381101561299a5780358681111561297e5760008081fd5b61298c8c898389010161247e565b845250918601918601612966565b508096505050505050509250929050565b602080825282518282018190526000919060409081850190868401855b828110156129f657815180516001600160a01b031685528601518685015292840192908501906001016129c8565b5091979650505050505050565b60008060208385031215612a1657600080fd5b823567ffffffffffffffff80821115612a2e57600080fd5b818501915085601f830112612a4257600080fd5b813581811115612a5157600080fd5b8660208260061b8501011115612a6657600080fd5b60209290920196919550909350505050565b602081016109f28284612790565b60008060408385031215612a9957600080fd5b82359150602083013567ffffffffffffffff811115612ab757600080fd5b612ac38582860161247e565b9150509250929050565b634e487b7160e01b600052603260045260246000fd5b634e487b7160e01b600052601160045260246000fd5b808201808211156109f2576109f2612ae3565b6020808252825182820181905260009190848201906040850190845b81811015612b4d5783516001600160a01b031683529284019291840191600101612b28565b50909695505050505050565b6020815260006109ef602083018461274e565b67ffffffffffffffff818116838216019080821115612b8d57612b8d612ae3565b5092915050565b600060408284031215612ba657600080fd5b612bae612309565b905081518152602082015167ffffffffffffffff811115612bce57600080fd5b8201601f81018413612bdf57600080fd5b8051612bed61240382612456565b818152856020838501011115612c0257600080fd5b612c1382602083016020860161272a565b602084015250909392505050565b600060208284031215612c3357600080fd5b815167ffffffffffffffff80821115612c4b57600080fd5b9083019060c08286031215612c5f57600080fd5b612c67612332565b825181526020830151612c79816123cd565b60208201526040830151612c8c816123cd565b6040820152606083015182811115612ca357600080fd5b612caf87828601612b94565b6060830152506080830151608082015260a083015160a082015280935050505092915050565b818103818111156109f2576109f2612ae3565b600060208284031215612cfa57600080fd5b813560078110611c7a57600080fd5b60408101612d178285612790565b6001600160a01b03831660208301529392505050565b600060408284031215612d3f57600080fd5b612d47612309565b8235612d52816123cd565b81526020830135612d62816123cd565b60208201529392505050565b600181811c90821680612d8257607f821691505b602082108103611c8157634e487b7160e01b600052602260045260246000fd5b80518015158114612db257600080fd5b919050565b8051612db281612547565b600082601f830112612dd357600080fd5b81516020612de3612403836123a9565b82815260059290921b84018101918181019086841115612e0257600080fd5b8286015b8481101561244b578051612e19816123cd565b8352918301918301612e06565b600060208284031215612e3857600080fd5b815167ffffffffffffffff80821115612e5057600080fd5b9083019060408286031215612e6457600080fd5b612e6c612309565b8251612e77816123cd565b8152602083015182811115612e8b57600080fd5b929092019160e08387031215612ea057600080fd5b612ea8612355565b612eb184612da2565b8152612ebf60208501612da2565b6020820152612ed060408501612db7565b6040820152612ee160608501612db7565b6060820152612ef260808501612db7565b6080820152612f0360a08501612db7565b60a082015260c084015183811115612f1a57600080fd5b612f2688828701612dc2565b60c083015250602082015295945050505050565b600060208284031215612f4c57600080fd5b6109ef82612da2565b600080600060608486031215612f6a57600080fd5b8351612f75816123cd565b6020850151909350612f86816123cd565b604085015190925067ffffffffffffffff811115612fa357600080fd5b612faf86828701612b94565b9150509250925092565b601f8211156106bf57600081815260208120601f850160051c81016020861015612fe05750805b601f850160051c820191505b8181101561145d57828155600101612fec565b815167ffffffffffffffff811115613019576130196122f3565b61302d816130278454612d6e565b84612fb9565b602080601f831160018114613062576000841561304a5750858301515b600019600386901b1c1916600185901b17855561145d565b600085815260208120601f198616915b8281101561309157888601518255948401946001909101908401613072565b50858210156130af5787850151600019600388901b60f8161c191681555b5050505050600190811b01905550565b6040815260006130d2604083018561274e565b90506001600160a01b03831660208301529392505050565b6060815260006130fd606083018661274e565b90506001600160a01b038416602083015261311b6040830184612790565b949350505050565b60006020828403121561313557600080fd5b8151611c7a816123cd565b60006001820161315257613152612ae3565b5060010190565b60008060006060848603121561316e57600080fd5b8351613179816123cd565b60208501516040860151919450925061253c816123cd56fea26469706673582212200a91b78ec1c6edf364193f578104255ba6abdc8fdd8fe73bdde5cdf6cf812cc464736f6c63430008130033",
    "linkReferences": {}
  },
  "methodIdentifiers": {
    "NATIVE()": "a0cf0aea",
    "allocate(bytes,address)": "ef2920fc",
    "allocationEndTime()": "4533d678",
    "allocationStartTime()": "d2e17f59",
    "allowedTokens(address)": "e744092e",
    "claim((address,address)[])": "d2683937",
    "claims(address,address)": "3f733c6b",
    "distribute(address[],bytes,address)": "0a6f0ee9",
    "getAllo()": "15cc481e",
    "getPayouts(address[],bytes[])": "b2b878d0",
    "getPoolAmount()": "4ab4ba42",
    "getPoolId()": "38fff2d0",
    "getRecipient(address)": "62812a39",
    "getRecipientStatus(address)": "eb11af93",
    "getStrategyId()": "42fda9c7",
    "increasePoolAmount(uint256)": "f5b0dfb7",
    "initialize(uint256,bytes)": "edd146cc",
    "isPoolActive()": "df868ed3",
    "isValidAllocator(address)": "4d31d087",
    "metadataRequired()": "cb0e85a6",
    "payoutSummaries(address)": "385d7aec",
    "registerRecipient(bytes,address)": "2bbe0cae",
    "registrationEndTime()": "dff7d2c7",
    "registrationStartTime()": "9af5c09d",
    "registry()": "7b103999",
    "reviewRecipients(address[],uint8[])": "7f835983",
    "setPayout(address[],uint256[])": "29ce44ab",
    "totalPayoutAmount()": "e7efcfc2",
    "updatePoolTimestamps(uint64,uint64,uint64,uint64)": "2143e92f",
    "useRegistryAnchor()": "57089739",
    "withdraw(uint256)": "2e1a7d4d"
  },
  "storageLayout": {
    "storage": [
      {
        "astId": 3267,
        "contract": "contracts/strategies/_poc/donation-voting-custom-registry/DonationVotingCustomRegistryStrategy.sol:DonationVotingCustomRegistryStrategy",
        "label": "poolActive",
        "offset": 0,
        "slot": "0",
        "type": "t_bool"
      },
      {
        "astId": 3269,
        "contract": "contracts/strategies/_poc/donation-voting-custom-registry/DonationVotingCustomRegistryStrategy.sol:DonationVotingCustomRegistryStrategy",
        "label": "poolId",
        "offset": 0,
        "slot": "1",
        "type": "t_uint256"
      },
      {
        "astId": 3271,
        "contract": "contracts/strategies/_poc/donation-voting-custom-registry/DonationVotingCustomRegistryStrategy.sol:DonationVotingCustomRegistryStrategy",
        "label": "poolAmount",
        "offset": 0,
        "slot": "2",
        "type": "t_uint256"
      },
      {
        "astId": 62206,
        "contract": "contracts/strategies/_poc/donation-voting-custom-registry/DonationVotingCustomRegistryStrategy.sol:DonationVotingCustomRegistryStrategy",
        "label": "_status",
        "offset": 0,
        "slot": "3",
        "type": "t_uint256"
      },
      {
        "astId": 5556,
        "contract": "contracts/strategies/_poc/donation-voting-custom-registry/DonationVotingCustomRegistryStrategy.sol:DonationVotingCustomRegistryStrategy",
        "label": "useRegistryAnchor",
        "offset": 0,
        "slot": "4",
        "type": "t_bool"
      },
      {
        "astId": 5558,
        "contract": "contracts/strategies/_poc/donation-voting-custom-registry/DonationVotingCustomRegistryStrategy.sol:DonationVotingCustomRegistryStrategy",
        "label": "metadataRequired",
        "offset": 1,
        "slot": "4",
        "type": "t_bool"
      },
      {
        "astId": 5561,
        "contract": "contracts/strategies/_poc/donation-voting-custom-registry/DonationVotingCustomRegistryStrategy.sol:DonationVotingCustomRegistryStrategy",
        "label": "_registry",
        "offset": 2,
        "slot": "4",
        "type": "t_contract(IRegistry)2625"
      },
      {
        "astId": 5563,
        "contract": "contracts/strategies/_poc/donation-voting-custom-registry/DonationVotingCustomRegistryStrategy.sol:DonationVotingCustomRegistryStrategy",
        "label": "totalPayoutAmount",
        "offset": 0,
        "slot": "5",
        "type": "t_uint256"
      },
      {
        "astId": 5565,
        "contract": "contracts/strategies/_poc/donation-voting-custom-registry/DonationVotingCustomRegistryStrategy.sol:DonationVotingCustomRegistryStrategy",
        "label": "registrationStartTime",
        "offset": 0,
        "slot": "6",
        "type": "t_uint64"
      },
      {
        "astId": 5567,
        "contract": "contracts/strategies/_poc/donation-voting-custom-registry/DonationVotingCustomRegistryStrategy.sol:DonationVotingCustomRegistryStrategy",
        "label": "registrationEndTime",
        "offset": 8,
        "slot": "6",
        "type": "t_uint64"
      },
      {
        "astId": 5569,
        "contract": "contracts/strategies/_poc/donation-voting-custom-registry/DonationVotingCustomRegistryStrategy.sol:DonationVotingCustomRegistryStrategy",
        "label": "allocationStartTime",
        "offset": 16,
        "slot": "6",
        "type": "t_uint64"
      },
      {
        "astId": 5571,
        "contract": "contracts/strategies/_poc/donation-voting-custom-registry/DonationVotingCustomRegistryStrategy.sol:DonationVotingCustomRegistryStrategy",
        "label": "allocationEndTime",
        "offset": 24,
        "slot": "6",
        "type": "t_uint64"
      },
      {
        "astId": 5576,
        "contract": "contracts/strategies/_poc/donation-voting-custom-registry/DonationVotingCustomRegistryStrategy.sol:DonationVotingCustomRegistryStrategy",
        "label": "allowedTokens",
        "offset": 0,
        "slot": "7",
        "type": "t_mapping(t_address,t_bool)"
      },
      {
        "astId": 5582,
        "contract": "contracts/strategies/_poc/donation-voting-custom-registry/DonationVotingCustomRegistryStrategy.sol:DonationVotingCustomRegistryStrategy",
        "label": "_recipients",
        "offset": 0,
        "slot": "8",
        "type": "t_mapping(t_address,t_struct(Recipient)5485_storage)"
      },
      {
        "astId": 5588,
        "contract": "contracts/strategies/_poc/donation-voting-custom-registry/DonationVotingCustomRegistryStrategy.sol:DonationVotingCustomRegistryStrategy",
        "label": "payoutSummaries",
        "offset": 0,
        "slot": "9",
        "type": "t_mapping(t_address,t_struct(PayoutSummary)2643_storage)"
      },
      {
        "astId": 5595,
        "contract": "contracts/strategies/_poc/donation-voting-custom-registry/DonationVotingCustomRegistryStrategy.sol:DonationVotingCustomRegistryStrategy",
        "label": "claims",
        "offset": 0,
        "slot": "10",
        "type": "t_mapping(t_address,t_mapping(t_address,t_uint256))"
      },
      {
        "astId": 5211,
        "contract": "contracts/strategies/_poc/donation-voting-custom-registry/DonationVotingCustomRegistryStrategy.sol:DonationVotingCustomRegistryStrategy",
        "label": "registry",
        "offset": 0,
        "slot": "11",
        "type": "t_contract(SimpleProjectRegistry)5456"
      }
    ],
    "types": {
      "t_address": {
        "encoding": "inplace",
        "label": "address",
        "numberOfBytes": "20"
      },
      "t_bool": {
        "encoding": "inplace",
        "label": "bool",
        "numberOfBytes": "1"
      },
      "t_contract(IRegistry)2625": {
        "encoding": "inplace",
        "label": "contract IRegistry",
        "numberOfBytes": "20"
      },
      "t_contract(SimpleProjectRegistry)5456": {
        "encoding": "inplace",
        "label": "contract SimpleProjectRegistry",
        "numberOfBytes": "20"
      },
      "t_enum(Status)2638": {
        "encoding": "inplace",
        "label": "enum IStrategy.Status",
        "numberOfBytes": "1"
      },
      "t_mapping(t_address,t_bool)": {
        "encoding": "mapping",
        "key": "t_address",
        "label": "mapping(address => bool)",
        "numberOfBytes": "32",
        "value": "t_bool"
      },
      "t_mapping(t_address,t_mapping(t_address,t_uint256))": {
        "encoding": "mapping",
        "key": "t_address",
        "label": "mapping(address => mapping(address => uint256))",
        "numberOfBytes": "32",
        "value": "t_mapping(t_address,t_uint256)"
      },
      "t_mapping(t_address,t_struct(PayoutSummary)2643_storage)": {
        "encoding": "mapping",
        "key": "t_address",
        "label": "mapping(address => struct IStrategy.PayoutSummary)",
        "numberOfBytes": "32",
        "value": "t_struct(PayoutSummary)2643_storage"
      },
      "t_mapping(t_address,t_struct(Recipient)5485_storage)": {
        "encoding": "mapping",
        "key": "t_address",
        "label": "mapping(address => struct DonationVotingStrategy.Recipient)",
        "numberOfBytes": "32",
        "value": "t_struct(Recipient)5485_storage"
      },
      "t_mapping(t_address,t_uint256)": {
        "encoding": "mapping",
        "key": "t_address",
        "label": "mapping(address => uint256)",
        "numberOfBytes": "32",
        "value": "t_uint256"
      },
      "t_string_storage": {
        "encoding": "bytes",
        "label": "string",
        "numberOfBytes": "32"
      },
      "t_struct(Metadata)2922_storage": {
        "encoding": "inplace",
        "label": "struct Metadata",
        "numberOfBytes": "64",
        "members": [
          {
            "astId": 2918,
            "contract": "contracts/strategies/_poc/donation-voting-custom-registry/DonationVotingCustomRegistryStrategy.sol:DonationVotingCustomRegistryStrategy",
            "label": "protocol",
            "offset": 0,
            "slot": "0",
            "type": "t_uint256"
          },
          {
            "astId": 2921,
            "contract": "contracts/strategies/_poc/donation-voting-custom-registry/DonationVotingCustomRegistryStrategy.sol:DonationVotingCustomRegistryStrategy",
            "label": "pointer",
            "offset": 0,
            "slot": "1",
            "type": "t_string_storage"
          }
        ]
      },
      "t_struct(PayoutSummary)2643_storage": {
        "encoding": "inplace",
        "label": "struct IStrategy.PayoutSummary",
        "numberOfBytes": "64",
        "members": [
          {
            "astId": 2640,
            "contract": "contracts/strategies/_poc/donation-voting-custom-registry/DonationVotingCustomRegistryStrategy.sol:DonationVotingCustomRegistryStrategy",
            "label": "recipientAddress",
            "offset": 0,
            "slot": "0",
            "type": "t_address"
          },
          {
            "astId": 2642,
            "contract": "contracts/strategies/_poc/donation-voting-custom-registry/DonationVotingCustomRegistryStrategy.sol:DonationVotingCustomRegistryStrategy",
            "label": "amount",
            "offset": 0,
            "slot": "1",
            "type": "t_uint256"
          }
        ]
      },
      "t_struct(Recipient)5485_storage": {
        "encoding": "inplace",
        "label": "struct DonationVotingStrategy.Recipient",
        "numberOfBytes": "128",
        "members": [
          {
            "astId": 5476,
            "contract": "contracts/strategies/_poc/donation-voting-custom-registry/DonationVotingCustomRegistryStrategy.sol:DonationVotingCustomRegistryStrategy",
            "label": "useRegistryAnchor",
            "offset": 0,
            "slot": "0",
            "type": "t_bool"
          },
          {
            "astId": 5478,
            "contract": "contracts/strategies/_poc/donation-voting-custom-registry/DonationVotingCustomRegistryStrategy.sol:DonationVotingCustomRegistryStrategy",
            "label": "recipientAddress",
            "offset": 1,
            "slot": "0",
            "type": "t_address"
          },
          {
            "astId": 5481,
            "contract": "contracts/strategies/_poc/donation-voting-custom-registry/DonationVotingCustomRegistryStrategy.sol:DonationVotingCustomRegistryStrategy",
            "label": "metadata",
            "offset": 0,
            "slot": "1",
            "type": "t_struct(Metadata)2922_storage"
          },
          {
            "astId": 5484,
            "contract": "contracts/strategies/_poc/donation-voting-custom-registry/DonationVotingCustomRegistryStrategy.sol:DonationVotingCustomRegistryStrategy",
            "label": "recipientStatus",
            "offset": 0,
            "slot": "3",
            "type": "t_enum(Status)2638"
          }
        ]
      },
      "t_uint256": {
        "encoding": "inplace",
        "label": "uint256",
        "numberOfBytes": "32"
      },
      "t_uint64": {
        "encoding": "inplace",
        "label": "uint64",
        "numberOfBytes": "8"
      }
    }
  },
  "id": 14
}