{"abi":[{"type":"constructor","inputs":[{"name":"impl_","type":"address","internalType":"address"}],"stateMutability":"nonpayable"},{"type":"fallback","stateMutability":"payable"},{"type":"function","name":"implementation","inputs":[],"outputs":[{"name":"","type":"address","internalType":"address"}],"stateMutability":"view"},{"type":"function","name":"owner","inputs":[],"outputs":[{"name":"","type":"address","internalType":"address"}],"stateMutability":"view"},{"type":"function","name":"renounceOwnership","inputs":[],"outputs":[],"stateMutability":"nonpayable"},{"type":"function","name":"replaceImplementation","inputs":[{"name":"impl_","type":"address","internalType":"address"}],"outputs":[],"stateMutability":"nonpayable"},{"type":"function","name":"transferOwnership","inputs":[{"name":"newOwner","type":"address","internalType":"address"}],"outputs":[],"stateMutability":"nonpayable"},{"type":"event","name":"OwnershipTransferred","inputs":[{"name":"previousOwner","type":"address","indexed":true,"internalType":"address"},{"name":"newOwner","type":"address","indexed":true,"internalType":"address"}],"anonymous":false},{"type":"error","name":"OwnableInvalidOwner","inputs":[{"name":"owner","type":"address","internalType":"address"}]},{"type":"error","name":"OwnableUnauthorizedAccount","inputs":[{"name":"account","type":"address","internalType":"address"}]}],"bytecode":{"object":"0x608060405234801561000f575f80fd5b506040516103bf3803806103bf83398101604081905261002e91610114565b338061005457604051631e4fbdf760e01b81525f60048201526024015b60405180910390fd5b61005d8161006d565b50610067816100bc565b50610141565b5f80546001600160a01b038381166001600160a01b0319831681178455604051919092169283917f8be0079c531659141344cd1fd0a4f28419497f9722a3daafe3b4186f6b6457e09190a35050565b6100c46100e6565b600180546001600160a01b0319166001600160a01b0392909216919091179055565b5f546001600160a01b031633146101125760405163118cdaa760e01b815233600482015260240161004b565b565b5f60208284031215610124575f80fd5b81516001600160a01b038116811461013a575f80fd5b9392505050565b6102718061014e5f395ff3fe608060405260043610610049575f3560e01c80635c60da1b1461006b578063715018a6146100a65780638da5cb5b146100ba578063d69efdc5146100d6578063f2fde38b146100f5575b365f80375f80365f6001545af43d5f803e808015610065573d5ff35b3d5ffd5b005b348015610076575f80fd5b5060015461008a906001600160a01b031681565b6040516001600160a01b03909116815260200160405180910390f35b3480156100b1575f80fd5b50610069610114565b3480156100c5575f80fd5b505f546001600160a01b031661008a565b3480156100e1575f80fd5b506100696100f036600461020e565b610127565b348015610100575f80fd5b5061006961010f36600461020e565b610151565b61011c610193565b6101255f6101bf565b565b61012f610193565b600180546001600160a01b0319166001600160a01b0392909216919091179055565b610159610193565b6001600160a01b03811661018757604051631e4fbdf760e01b81525f60048201526024015b60405180910390fd5b610190816101bf565b50565b5f546001600160a01b031633146101255760405163118cdaa760e01b815233600482015260240161017e565b5f80546001600160a01b038381166001600160a01b0319831681178455604051919092169283917f8be0079c531659141344cd1fd0a4f28419497f9722a3daafe3b4186f6b6457e09190a35050565b5f6020828403121561021e575f80fd5b81356001600160a01b0381168114610234575f80fd5b939250505056fea26469706673582212208d74322cad1849dbd8a1a044f4c52ac1d88ae3c47b20ea8cfd3b01d5090a10b464736f6c63430008190033","linkReferences":{}},"methodIdentifiers":{"implementation()":"5c60da1b","owner()":"8da5cb5b","renounceOwnership()":"715018a6","replaceImplementation(address)":"d69efdc5","transferOwnership(address)":"f2fde38b"},"id":17}