{
  "abi": [
    {
      "inputs": [],
      "name": "allo_owner",
      "outputs": [
        {
          "internalType": "address",
          "name": "",
          "type": "address"
        }
      ],
      "stateMutability": "nonpayable",
      "type": "function"
    },
    {
      "inputs": [],
      "name": "allo_treasury",
      "outputs": [
        {
          "internalType": "address payable",
          "name": "",
          "type": "address"
        }
      ],
      "stateMutability": "nonpayable",
      "type": "function"
    },
    {
      "inputs": [],
      "name": "local",
      "outputs": [
        {
          "internalType": "address",
          "name": "",
          "type": "address"
        }
      ],
      "stateMutability": "pure",
      "type": "function"
    },
    {
      "inputs": [],
      "name": "no_recipient",
      "outputs": [
        {
          "internalType": "address",
          "name": "",
          "type": "address"
        }
      ],
      "stateMutability": "nonpayable",
      "type": "function"
    },
    {
      "inputs": [],
      "name": "nullProfile_member1",
      "outputs": [
        {
          "internalType": "address",
          "name": "",
          "type": "address"
        }
      ],
      "stateMutability": "pure",
      "type": "function"
    },
    {
      "inputs": [],
      "name": "nullProfile_member2",
      "outputs": [
        {
          "internalType": "address",
          "name": "",
          "type": "address"
        }
      ],
      "stateMutability": "pure",
      "type": "function"
    },
    {
      "inputs": [],
      "name": "nullProfile_members",
      "outputs": [
        {
          "internalType": "address[]",
          "name": "",
          "type": "address[]"
        }
      ],
      "stateMutability": "pure",
      "type": "function"
    },
    {
      "inputs": [],
      "name": "nullProfile_notAMember",
      "outputs": [
        {
          "internalType": "address",
          "name": "",
          "type": "address"
        }
      ],
      "stateMutability": "pure",
      "type": "function"
    },
    {
      "inputs": [],
      "name": "nullProfile_owner",
      "outputs": [
        {
          "internalType": "address",
          "name": "",
          "type": "address"
        }
      ],
      "stateMutability": "pure",
      "type": "function"
    },
    {
      "inputs": [],
      "name": "pool_admin",
      "outputs": [
        {
          "internalType": "address",
          "name": "",
          "type": "address"
        }
      ],
      "stateMutability": "nonpayable",
      "type": "function"
    },
    {
      "inputs": [],
      "name": "pool_manager1",
      "outputs": [
        {
          "internalType": "address",
          "name": "",
          "type": "address"
        }
      ],
      "stateMutability": "nonpayable",
      "type": "function"
    },
    {
      "inputs": [],
      "name": "pool_manager2",
      "outputs": [
        {
          "internalType": "address",
          "name": "",
          "type": "address"
        }
      ],
      "stateMutability": "nonpayable",
      "type": "function"
    },
    {
      "inputs": [],
      "name": "pool_managers",
      "outputs": [
        {
          "internalType": "address[]",
          "name": "",
          "type": "address[]"
        }
      ],
      "stateMutability": "nonpayable",
      "type": "function"
    },
    {
      "inputs": [],
      "name": "pool_notAManager",
      "outputs": [
        {
          "internalType": "address",
          "name": "",
          "type": "address"
        }
      ],
      "stateMutability": "nonpayable",
      "type": "function"
    },
    {
      "inputs": [],
      "name": "profile1_member1",
      "outputs": [
        {
          "internalType": "address",
          "name": "",
          "type": "address"
        }
      ],
      "stateMutability": "nonpayable",
      "type": "function"
    },
    {
      "inputs": [],
      "name": "profile1_member2",
      "outputs": [
        {
          "internalType": "address",
          "name": "",
          "type": "address"
        }
      ],
      "stateMutability": "nonpayable",
      "type": "function"
    },
    {
      "inputs": [],
      "name": "profile1_members",
      "outputs": [
        {
          "internalType": "address[]",
          "name": "",
          "type": "address[]"
        }
      ],
      "stateMutability": "nonpayable",
      "type": "function"
    },
    {
      "inputs": [],
      "name": "profile1_notAMember",
      "outputs": [
        {
          "internalType": "address",
          "name": "",
          "type": "address"
        }
      ],
      "stateMutability": "nonpayable",
      "type": "function"
    },
    {
      "inputs": [],
      "name": "profile1_owner",
      "outputs": [
        {
          "internalType": "address",
          "name": "",
          "type": "address"
        }
      ],
      "stateMutability": "nonpayable",
      "type": "function"
    },
    {
      "inputs": [],
      "name": "profile2_member1",
      "outputs": [
        {
          "internalType": "address",
          "name": "",
          "type": "address"
        }
      ],
      "stateMutability": "nonpayable",
      "type": "function"
    },
    {
      "inputs": [],
      "name": "profile2_member2",
      "outputs": [
        {
          "internalType": "address",
          "name": "",
          "type": "address"
        }
      ],
      "stateMutability": "nonpayable",
      "type": "function"
    },
    {
      "inputs": [],
      "name": "profile2_members",
      "outputs": [
        {
          "internalType": "address[]",
          "name": "",
          "type": "address[]"
        }
      ],
      "stateMutability": "nonpayable",
      "type": "function"
    },
    {
      "inputs": [],
      "name": "profile2_notAMember",
      "outputs": [
        {
          "internalType": "address",
          "name": "",
          "type": "address"
        }
      ],
      "stateMutability": "nonpayable",
      "type": "function"
    },
    {
      "inputs": [],
      "name": "profile2_owner",
      "outputs": [
        {
          "internalType": "address",
          "name": "",
          "type": "address"
        }
      ],
      "stateMutability": "nonpayable",
      "type": "function"
    },
    {
      "inputs": [],
      "name": "randomAddress",
      "outputs": [
        {
          "internalType": "address",
          "name": "",
          "type": "address"
        }
      ],
      "stateMutability": "nonpayable",
      "type": "function"
    },
    {
      "inputs": [],
      "name": "recipient",
      "outputs": [
        {
          "internalType": "address",
          "name": "",
          "type": "address"
        }
      ],
      "stateMutability": "nonpayable",
      "type": "function"
    },
    {
      "inputs": [],
      "name": "recipient1",
      "outputs": [
        {
          "internalType": "address",
          "name": "",
          "type": "address"
        }
      ],
      "stateMutability": "nonpayable",
      "type": "function"
    },
    {
      "inputs": [],
      "name": "recipient2",
      "outputs": [
        {
          "internalType": "address",
          "name": "",
          "type": "address"
        }
      ],
      "stateMutability": "nonpayable",
      "type": "function"
    },
    {
      "inputs": [],
      "name": "recipientAddress",
      "outputs": [
        {
          "internalType": "address",
          "name": "",
          "type": "address"
        }
      ],
      "stateMutability": "nonpayable",
      "type": "function"
    },
    {
      "inputs": [],
      "name": "registry_owner",
      "outputs": [
        {
          "internalType": "address",
          "name": "",
          "type": "address"
        }
      ],
      "stateMutability": "nonpayable",
      "type": "function"
    }
  ],
  "bytecode": {
    "object": "0x608060405234801561001057600080fd5b50610c79806100206000396000f3fe608060405234801561001057600080fd5b50600436106101d95760003560e01c806379e62d0d11610104578063a407c67a116100a2578063d5bee9f511610071578063d5bee9f5146102d1578063da4bf087146102d9578063dac4eb16146102e1578063ef0d790f146102e957600080fd5b8063a407c67a146102b1578063aa3744bd146102b9578063d1e82b58146102c1578063d1f2cd88146102c957600080fd5b8063829e423f116100de578063829e423f1461022d5780638c7408c41461022d5780638e0d1a50146102a15780638e3c2493146102a957600080fd5b806379e62d0d146102895780637b2edf32146102915780637cbe79ed1461029957600080fd5b80634bf4ba211161017c5780636a38dd0a1161014b5780636a38dd0a1461027157806370a329441461027957806374d9284e1461022d578063759c9a861461028157600080fd5b80634bf4ba2114610244578063587c1243146102595780635aff59991461026157806366d003ac1461026957600080fd5b80630f166ad4116101b85780630f166ad414610213578063174eedde1461022d5780631b96dce6146102345780631e7bcb2e1461023c57600080fd5b8062b1fad7146101de578063030e4006146102035780630688b1351461020b575b600080fd5b6101e66102f1565b6040516001600160a01b0390911681526020015b60405180910390f35b6101e6610336565b6101e6610376565b737fa9385be102ac3eac297483dd6233d62b3e14966101e6565b60006101e6565b6101e66103b6565b6101e66103f6565b61024c610436565b6040516101fa9190610b14565b6101e6610459565b6101e6610499565b6101e66104d9565b6101e6610519565b61024c610559565b6101e66105f1565b61024c610631565b6101e6610699565b6101e66106d9565b6101e6610719565b6101e6610759565b61024c610799565b6101e6610801565b6101e6610841565b6101e6610881565b6101e66108c1565b6101e6610901565b6101e6610941565b6101e6610981565b60006103316040518060400160405280600d81526020017f706f6f6c5f6d616e6167657231000000000000000000000000000000000000008152506109bd565b905090565b60006103316040518060400160405280601381526020017f70726f66696c65315f6e6f74414d656d626572000000000000000000000000008152506109bd565b60006103316040518060400160405280600a81526020017f726563697069656e7432000000000000000000000000000000000000000000008152506109bd565b60006103316040518060400160405280600e81526020017f70726f66696c65325f6f776e65720000000000000000000000000000000000008152506109bd565b60006103316040518060400160405280601081526020017f70726f66696c65315f6d656d62657231000000000000000000000000000000008152506109bd565b604080516002808252606080830184529260208301908036833701905050905090565b60006103316040518060400160405280601081526020017f70726f66696c65325f6d656d62657231000000000000000000000000000000008152506109bd565b60006103316040518060400160405280601081526020017f726563697069656e7441646472657373000000000000000000000000000000008152506109bd565b60006103316040518060400160405280600981526020017f726563697069656e7400000000000000000000000000000000000000000000008152506109bd565b60006103316040518060400160405280600d81526020017f706f6f6c5f6d616e6167657232000000000000000000000000000000000000008152506109bd565b604080516002808252606080830184529260009291906020830190803683370190505090506105866103f6565b8160008151811061059957610599610b61565b60200260200101906001600160a01b031690816001600160a01b0316815250506105c1610699565b816001815181106105d4576105d4610b61565b6001600160a01b0390921660209283029190910190910152919050565b60006103316040518060400160405280600c81526020017f6e6f5f726563697069656e7400000000000000000000000000000000000000008152506109bd565b6040805160028082526060808301845292600092919060208301908036833701905050905061065e6102f1565b8160008151811061067157610671610b61565b60200260200101906001600160a01b031690816001600160a01b0316815250506105c1610519565b60006103316040518060400160405280601081526020017f70726f66696c65315f6d656d62657232000000000000000000000000000000008152506109bd565b60006103316040518060400160405280600a81526020017f616c6c6f5f6f776e6572000000000000000000000000000000000000000000008152506109bd565b60006103316040518060400160405280600a81526020017f706f6f6c5f61646d696e000000000000000000000000000000000000000000008152506109bd565b60006103316040518060400160405280601081526020017f70726f66696c65325f6d656d62657232000000000000000000000000000000008152506109bd565b604080516002808252606080830184529260009291906020830190803683370190505090506107c6610459565b816000815181106107d9576107d9610b61565b60200260200101906001600160a01b031690816001600160a01b0316815250506105c1610759565b60006103316040518060400160405280600a81526020017f726563697069656e7431000000000000000000000000000000000000000000008152506109bd565b60006103316040518060400160405280601081526020017f706f6f6c5f6e6f74414d616e61676572000000000000000000000000000000008152506109bd565b60006103316040518060400160405280600e81526020017f70726f66696c65315f6f776e65720000000000000000000000000000000000008152506109bd565b60006103316040518060400160405280600b81526020017f72616e646f6d20636861640000000000000000000000000000000000000000008152506109bd565b60006103316040518060400160405280600d81526020017f616c6c6f5f7472656173757279000000000000000000000000000000000000008152506109bd565b60006103316040518060400160405280600e81526020017f72656769737472795f6f776e65720000000000000000000000000000000000008152506109bd565b60006103316040518060400160405280601381526020017f70726f66696c65325f6e6f74414d656d626572000000000000000000000000008152505b60006109c8826109cf565b5092915050565b600080826040516020016109e39190610bb4565b60408051808303601f190181529082905280516020909101207fffa18649000000000000000000000000000000000000000000000000000000008252600482018190529150737109709ecfa91a80626ff3989d68f67f5b1dd12d9063ffa1864990602401602060405180830381865afa158015610a64573d6000803e3d6000fd5b505050506040513d601f19601f82011682018060405250810190610a889190610bd0565b6040517fc657c718000000000000000000000000000000000000000000000000000000008152909250737109709ecfa91a80626ff3989d68f67f5b1dd12d9063c657c71890610add9085908790600401610c00565b600060405180830381600087803b158015610af757600080fd5b505af1158015610b0b573d6000803e3d6000fd5b50505050915091565b6020808252825182820181905260009190848201906040850190845b81811015610b555783516001600160a01b031683529284019291840191600101610b30565b50909695505050505050565b7f4e487b7100000000000000000000000000000000000000000000000000000000600052603260045260246000fd5b60005b83811015610bab578181015183820152602001610b93565b50506000910152565b60008251610bc6818460208701610b90565b9190910192915050565b600060208284031215610be257600080fd5b81516001600160a01b0381168114610bf957600080fd5b9392505050565b6001600160a01b03831681526040602082015260008251806040840152610c2e816060850160208701610b90565b601f01601f191691909101606001939250505056fea2646970667358221220ccdbafbca960215ce254fab18bb8fa76e6b580fb8ccadfb4cf362360ba1365e164736f6c63430008130033",
    "linkReferences": {}
  },
  "methodIdentifiers": {
    "allo_owner()": "7cbe79ed",
    "allo_treasury()": "da4bf087",
    "local()": "0f166ad4",
    "no_recipient()": "759c9a86",
    "nullProfile_member1()": "829e423f",
    "nullProfile_member2()": "8c7408c4",
    "nullProfile_members()": "4bf4ba21",
    "nullProfile_notAMember()": "174eedde",
    "nullProfile_owner()": "74d9284e",
    "pool_admin()": "8e0d1a50",
    "pool_manager1()": "00b1fad7",
    "pool_manager2()": "6a38dd0a",
    "pool_managers()": "79e62d0d",
    "pool_notAManager()": "d1e82b58",
    "profile1_member1()": "1e7bcb2e",
    "profile1_member2()": "7b2edf32",
    "profile1_members()": "70a32944",
    "profile1_notAMember()": "030e4006",
    "profile1_owner()": "d1f2cd88",
    "profile2_member1()": "587c1243",
    "profile2_member2()": "8e3c2493",
    "profile2_members()": "a407c67a",
    "profile2_notAMember()": "ef0d790f",
    "profile2_owner()": "1b96dce6",
    "randomAddress()": "d5bee9f5",
    "recipient()": "66d003ac",
    "recipient1()": "aa3744bd",
    "recipient2()": "0688b135",
    "recipientAddress()": "5aff5999",
    "registry_owner()": "dac4eb16"
  },
  "storageLayout": {
    "storage": [
      {
        "astId": 22101,
        "contract": "test/foundry/shared/Accounts.sol:Accounts",
        "label": "gasMeteringOff",
        "offset": 0,
        "slot": "0",
        "type": "t_bool"
      },
      {
        "astId": 24138,
        "contract": "test/foundry/shared/Accounts.sol:Accounts",
        "label": "stdstore",
        "offset": 0,
        "slot": "1",
        "type": "t_struct(StdStorage)25997_storage"
      }
    ],
    "types": {
      "t_address": {
        "encoding": "inplace",
        "label": "address",
        "numberOfBytes": "20"
      },
      "t_array(t_bytes32)dyn_storage": {
        "encoding": "dynamic_array",
        "label": "bytes32[]",
        "numberOfBytes": "32",
        "base": "t_bytes32"
      },
      "t_bool": {
        "encoding": "inplace",
        "label": "bool",
        "numberOfBytes": "1"
      },
      "t_bytes32": {
        "encoding": "inplace",
        "label": "bytes32",
        "numberOfBytes": "32"
      },
      "t_bytes4": {
        "encoding": "inplace",
        "label": "bytes4",
        "numberOfBytes": "4"
      },
      "t_mapping(t_address,t_mapping(t_bytes4,t_mapping(t_bytes32,t_bool)))": {
        "encoding": "mapping",
        "key": "t_address",
        "label": "mapping(address => mapping(bytes4 => mapping(bytes32 => bool)))",
        "numberOfBytes": "32",
        "value": "t_mapping(t_bytes4,t_mapping(t_bytes32,t_bool))"
      },
      "t_mapping(t_address,t_mapping(t_bytes4,t_mapping(t_bytes32,t_uint256)))": {
        "encoding": "mapping",
        "key": "t_address",
        "label": "mapping(address => mapping(bytes4 => mapping(bytes32 => uint256)))",
        "numberOfBytes": "32",
        "value": "t_mapping(t_bytes4,t_mapping(t_bytes32,t_uint256))"
      },
      "t_mapping(t_bytes32,t_bool)": {
        "encoding": "mapping",
        "key": "t_bytes32",
        "label": "mapping(bytes32 => bool)",
        "numberOfBytes": "32",
        "value": "t_bool"
      },
      "t_mapping(t_bytes32,t_uint256)": {
        "encoding": "mapping",
        "key": "t_bytes32",
        "label": "mapping(bytes32 => uint256)",
        "numberOfBytes": "32",
        "value": "t_uint256"
      },
      "t_mapping(t_bytes4,t_mapping(t_bytes32,t_bool))": {
        "encoding": "mapping",
        "key": "t_bytes4",
        "label": "mapping(bytes4 => mapping(bytes32 => bool))",
        "numberOfBytes": "32",
        "value": "t_mapping(t_bytes32,t_bool)"
      },
      "t_mapping(t_bytes4,t_mapping(t_bytes32,t_uint256))": {
        "encoding": "mapping",
        "key": "t_bytes4",
        "label": "mapping(bytes4 => mapping(bytes32 => uint256))",
        "numberOfBytes": "32",
        "value": "t_mapping(t_bytes32,t_uint256)"
      },
      "t_struct(StdStorage)25997_storage": {
        "encoding": "inplace",
        "label": "struct StdStorage",
        "numberOfBytes": "224",
        "members": [
          {
            "astId": 25977,
            "contract": "test/foundry/shared/Accounts.sol:Accounts",
            "label": "slots",
            "offset": 0,
            "slot": "0",
            "type": "t_mapping(t_address,t_mapping(t_bytes4,t_mapping(t_bytes32,t_uint256)))"
          },
          {
            "astId": 25985,
            "contract": "test/foundry/shared/Accounts.sol:Accounts",
            "label": "finds",
            "offset": 0,
            "slot": "1",
            "type": "t_mapping(t_address,t_mapping(t_bytes4,t_mapping(t_bytes32,t_bool)))"
          },
          {
            "astId": 25988,
            "contract": "test/foundry/shared/Accounts.sol:Accounts",
            "label": "_keys",
            "offset": 0,
            "slot": "2",
            "type": "t_array(t_bytes32)dyn_storage"
          },
          {
            "astId": 25990,
            "contract": "test/foundry/shared/Accounts.sol:Accounts",
            "label": "_sig",
            "offset": 0,
            "slot": "3",
            "type": "t_bytes4"
          },
          {
            "astId": 25992,
            "contract": "test/foundry/shared/Accounts.sol:Accounts",
            "label": "_depth",
            "offset": 0,
            "slot": "4",
            "type": "t_uint256"
          },
          {
            "astId": 25994,
            "contract": "test/foundry/shared/Accounts.sol:Accounts",
            "label": "_target",
            "offset": 0,
            "slot": "5",
            "type": "t_address"
          },
          {
            "astId": 25996,
            "contract": "test/foundry/shared/Accounts.sol:Accounts",
            "label": "_set",
            "offset": 0,
            "slot": "6",
            "type": "t_bytes32"
          }
        ]
      },
      "t_uint256": {
        "encoding": "inplace",
        "label": "uint256",
        "numberOfBytes": "32"
      }
    }
  },
  "id": 145
}