{
  "abi": [
    {
      "inputs": [],
      "name": "AMOUNT_MISMATCH",
      "type": "error"
    },
    {
      "inputs": [],
      "name": "NATIVE",
      "outputs": [
        {
          "internalType": "address",
          "name": "",
          "type": "address"
        }
      ],
      "stateMutability": "view",
      "type": "function"
    }
  ],
  "bytecode": {
    "object": "0x6080604052348015600f57600080fd5b5060a68061001e6000396000f3fe6080604052348015600f57600080fd5b506004361060285760003560e01c8063a0cf0aea14602d575b600080fd5b604773eeeeeeeeeeeeeeeeeeeeeeeeeeeeeeeeeeeeeeee81565b60405173ffffffffffffffffffffffffffffffffffffffff909116815260200160405180910390f3fea26469706673582212205a270fe80a8ed45b685696adf526e7c54f399c44047b7f9dc843b0cfff270da864736f6c63430008130033",
    "linkReferences": {}
  },
  "methodIdentifiers": {
    "NATIVE()": "a0cf0aea"
  },
  "storageLayout": {
    "storage": [],
    "types": {}
  },
  "id": 10
}