{
  "abi": [
    {
      "inputs": [
        {
          "internalType": "address",
          "name": "_allo",
          "type": "address"
        }
      ],
      "stateMutability": "nonpayable",
      "type": "constructor"
    },
    {
      "inputs": [],
      "name": "ALLOCATION_ACTIVE",
      "type": "error"
    },
    {
      "inputs": [],
      "name": "ALLOCATION_NOT_ACTIVE",
      "type": "error"
    },
    {
      "inputs": [],
      "name": "ALLOCATION_NOT_ENDED",
      "type": "error"
    },
    {
      "inputs": [],
      "name": "ALREADY_INITIALIZED",
      "type": "error"
    },
    {
      "inputs": [],
      "name": "AMOUNT_MISMATCH",
      "type": "error"
    },
    {
      "inputs": [],
      "name": "ANCHOR_ERROR",
      "type": "error"
    },
    {
      "inputs": [],
      "name": "ARRAY_MISMATCH",
      "type": "error"
    },
    {
      "inputs": [],
      "name": "INVALID",
      "type": "error"
    },
    {
      "inputs": [],
      "name": "INVALID_ADDRESS",
      "type": "error"
    },
    {
      "inputs": [],
      "name": "INVALID_FEE",
      "type": "error"
    },
    {
      "inputs": [],
      "name": "INVALID_METADATA",
      "type": "error"
    },
    {
      "inputs": [],
      "name": "INVALID_REGISTRATION",
      "type": "error"
    },
    {
      "inputs": [],
      "name": "IS_APPROVED_STRATEGY",
      "type": "error"
    },
    {
      "inputs": [],
      "name": "MISMATCH",
      "type": "error"
    },
    {
      "inputs": [],
      "name": "NONCE_NOT_AVAILABLE",
      "type": "error"
    },
    {
      "inputs": [],
      "name": "NOT_APPROVED_STRATEGY",
      "type": "error"
    },
    {
      "inputs": [],
      "name": "NOT_ENOUGH_FUNDS",
      "type": "error"
    },
    {
      "inputs": [],
      "name": "NOT_INITIALIZED",
      "type": "error"
    },
    {
      "inputs": [],
      "name": "NOT_PENDING_OWNER",
      "type": "error"
    },
    {
      "inputs": [],
      "name": "POOL_ACTIVE",
      "type": "error"
    },
    {
      "inputs": [],
      "name": "POOL_INACTIVE",
      "type": "error"
    },
    {
      "inputs": [],
      "name": "RECIPIENT_ALREADY_ACCEPTED",
      "type": "error"
    },
    {
      "inputs": [
        {
          "internalType": "address",
          "name": "recipientId",
          "type": "address"
        }
      ],
      "name": "RECIPIENT_ERROR",
      "type": "error"
    },
    {
      "inputs": [],
      "name": "RECIPIENT_NOT_ACCEPTED",
      "type": "error"
    },
    {
      "inputs": [],
      "name": "REGISTRATION_NOT_ACTIVE",
      "type": "error"
    },
    {
      "inputs": [],
      "name": "UNAUTHORIZED",
      "type": "error"
    },
    {
      "inputs": [],
      "name": "ZERO_ADDRESS",
      "type": "error"
    },
    {
      "anonymous": false,
      "inputs": [
        {
          "indexed": true,
          "internalType": "address",
          "name": "recipientId",
          "type": "address"
        },
        {
          "indexed": false,
          "internalType": "uint256",
          "name": "amount",
          "type": "uint256"
        },
        {
          "indexed": false,
          "internalType": "address",
          "name": "token",
          "type": "address"
        },
        {
          "indexed": false,
          "internalType": "address",
          "name": "sender",
          "type": "address"
        }
      ],
      "name": "Allocated",
      "type": "event"
    },
    {
      "anonymous": false,
      "inputs": [
        {
          "indexed": true,
          "internalType": "address",
          "name": "recipientId",
          "type": "address"
        },
        {
          "indexed": false,
          "internalType": "address",
          "name": "recipientAddress",
          "type": "address"
        },
        {
          "indexed": false,
          "internalType": "uint256",
          "name": "amount",
          "type": "uint256"
        },
        {
          "indexed": false,
          "internalType": "address",
          "name": "sender",
          "type": "address"
        }
      ],
      "name": "Distributed",
      "type": "event"
    },
    {
      "anonymous": false,
      "inputs": [
        {
          "indexed": false,
          "internalType": "address",
          "name": "allo",
          "type": "address"
        },
        {
          "indexed": false,
          "internalType": "bytes32",
          "name": "profileId",
          "type": "bytes32"
        },
        {
          "indexed": false,
          "internalType": "uint256",
          "name": "poolId",
          "type": "uint256"
        },
        {
          "indexed": false,
          "internalType": "bytes",
          "name": "data",
          "type": "bytes"
        }
      ],
      "name": "Initialized",
      "type": "event"
    },
    {
      "anonymous": false,
      "inputs": [
        {
          "indexed": false,
          "internalType": "bool",
          "name": "active",
          "type": "bool"
        }
      ],
      "name": "PoolActive",
      "type": "event"
    },
    {
      "anonymous": false,
      "inputs": [
        {
          "indexed": true,
          "internalType": "address",
          "name": "recipientId",
          "type": "address"
        },
        {
          "indexed": false,
          "internalType": "bytes",
          "name": "data",
          "type": "bytes"
        },
        {
          "indexed": false,
          "internalType": "address",
          "name": "sender",
          "type": "address"
        }
      ],
      "name": "Registered",
      "type": "event"
    },
    {
      "inputs": [],
      "name": "NATIVE",
      "outputs": [
        {
          "internalType": "address",
          "name": "",
          "type": "address"
        }
      ],
      "stateMutability": "view",
      "type": "function"
    },
    {
      "inputs": [
        {
          "internalType": "bytes",
          "name": "_data",
          "type": "bytes"
        },
        {
          "internalType": "address",
          "name": "_sender",
          "type": "address"
        }
      ],
      "name": "allocate",
      "outputs": [],
      "stateMutability": "payable",
      "type": "function"
    },
    {
      "inputs": [
        {
          "internalType": "address[]",
          "name": "_recipientIds",
          "type": "address[]"
        },
        {
          "internalType": "bytes",
          "name": "_data",
          "type": "bytes"
        },
        {
          "internalType": "address",
          "name": "_sender",
          "type": "address"
        }
      ],
      "name": "distribute",
      "outputs": [],
      "stateMutability": "nonpayable",
      "type": "function"
    },
    {
      "inputs": [],
      "name": "getAllo",
      "outputs": [
        {
          "internalType": "contract IAllo",
          "name": "",
          "type": "address"
        }
      ],
      "stateMutability": "view",
      "type": "function"
    },
    {
      "inputs": [
        {
          "internalType": "address[]",
          "name": "_recipientIds",
          "type": "address[]"
        },
        {
          "internalType": "bytes[]",
          "name": "_data",
          "type": "bytes[]"
        }
      ],
      "name": "getPayouts",
      "outputs": [
        {
          "components": [
            {
              "internalType": "address",
              "name": "recipientAddress",
              "type": "address"
            },
            {
              "internalType": "uint256",
              "name": "amount",
              "type": "uint256"
            }
          ],
          "internalType": "struct IStrategy.PayoutSummary[]",
          "name": "",
          "type": "tuple[]"
        }
      ],
      "stateMutability": "view",
      "type": "function"
    },
    {
      "inputs": [],
      "name": "getPoolAmount",
      "outputs": [
        {
          "internalType": "uint256",
          "name": "",
          "type": "uint256"
        }
      ],
      "stateMutability": "view",
      "type": "function"
    },
    {
      "inputs": [],
      "name": "getPoolId",
      "outputs": [
        {
          "internalType": "uint256",
          "name": "",
          "type": "uint256"
        }
      ],
      "stateMutability": "view",
      "type": "function"
    },
    {
      "inputs": [
        {
          "internalType": "address",
          "name": "_recipientId",
          "type": "address"
        }
      ],
      "name": "getRecipientStatus",
      "outputs": [
        {
          "internalType": "enum IStrategy.Status",
          "name": "",
          "type": "uint8"
        }
      ],
      "stateMutability": "view",
      "type": "function"
    },
    {
      "inputs": [],
      "name": "getStrategyId",
      "outputs": [
        {
          "internalType": "bytes32",
          "name": "",
          "type": "bytes32"
        }
      ],
      "stateMutability": "view",
      "type": "function"
    },
    {
      "inputs": [
        {
          "internalType": "uint256",
          "name": "_amount",
          "type": "uint256"
        }
      ],
      "name": "increasePoolAmount",
      "outputs": [],
      "stateMutability": "nonpayable",
      "type": "function"
    },
    {
      "inputs": [
        {
          "internalType": "uint256",
          "name": "_poolId",
          "type": "uint256"
        },
        {
          "internalType": "bytes",
          "name": "_data",
          "type": "bytes"
        }
      ],
      "name": "initialize",
      "outputs": [],
      "stateMutability": "nonpayable",
      "type": "function"
    },
    {
      "inputs": [],
      "name": "isPoolActive",
      "outputs": [
        {
          "internalType": "bool",
          "name": "",
          "type": "bool"
        }
      ],
      "stateMutability": "view",
      "type": "function"
    },
    {
      "inputs": [
        {
          "internalType": "address",
          "name": "_allocator",
          "type": "address"
        }
      ],
      "name": "isValidAllocator",
      "outputs": [
        {
          "internalType": "bool",
          "name": "",
          "type": "bool"
        }
      ],
      "stateMutability": "view",
      "type": "function"
    },
    {
      "inputs": [
        {
          "internalType": "bytes",
          "name": "_data",
          "type": "bytes"
        },
        {
          "internalType": "address",
          "name": "_sender",
          "type": "address"
        }
      ],
      "name": "registerRecipient",
      "outputs": [
        {
          "internalType": "address",
          "name": "recipientId",
          "type": "address"
        }
      ],
      "stateMutability": "payable",
      "type": "function"
    },
    {
      "inputs": [
        {
          "internalType": "bool",
          "name": "_active",
          "type": "bool"
        }
      ],
      "name": "setPoolActive",
      "outputs": [],
      "stateMutability": "nonpayable",
      "type": "function"
    }
  ],
  "bytecode": {
    "object": "0x60c060405234801561001057600080fd5b50604051610ce5380380610ce583398101604081905261002f91610096565b604080518082018252600c81526b4d6f636b537472617465677960a01b6020808301919091526001600160a01b03841660805291518392610072918391016100c6565b60408051601f19818403018152919052805160209091012060a05250610114915050565b6000602082840312156100a857600080fd5b81516001600160a01b03811681146100bf57600080fd5b9392505050565b600060208083528351808285015260005b818110156100f3578581018301518582016040015282016100d7565b506000604082860101526040601f19601f8301168501019250505092915050565b60805160a051610ba5610140600039600061019c01526000818161011e01526104a90152610ba56000f3fe6080604052600436106100e85760003560e01c8063a0cf0aea1161008a578063eb11af9311610059578063eb11af9314610292578063edd146cc146102bf578063ef2920fc146102df578063f5b0dfb7146102f257600080fd5b8063a0cf0aea14610205578063b2b878d01461022d578063b5f620ce1461025a578063df868ed31461027a57600080fd5b806338fff2d0116100c657806338fff2d01461016e57806342fda9c71461018d5780634ab4ba42146101c05780634d31d087146101d557600080fd5b80630a6f0ee9146100ed57806315cc481e1461010f5780632bbe0cae1461015b575b600080fd5b3480156100f957600080fd5b5061010d6101083660046107fa565b610312565b005b34801561011b57600080fd5b507f00000000000000000000000000000000000000000000000000000000000000005b6040516001600160a01b0390911681526020015b60405180910390f35b61013e610169366004610872565b610332565b34801561017a57600080fd5b506001545b604051908152602001610152565b34801561019957600080fd5b507f000000000000000000000000000000000000000000000000000000000000000061017f565b3480156101cc57600080fd5b5060025461017f565b3480156101e157600080fd5b506101f56101f03660046108c4565b610357565b6040519015158152602001610152565b34801561021157600080fd5b5061013e73eeeeeeeeeeeeeeeeeeeeeeeeeeeeeeeeeeeeeeee81565b34801561023957600080fd5b5061024d6102483660046108e8565b610362565b60405161015291906109bd565b34801561026657600080fd5b5061010d610275366004610a15565b610439565b34801561028657600080fd5b5060005460ff166101f5565b34801561029e57600080fd5b506102b26102ad3660046108c4565b610445565b6040516101529190610a37565b3480156102cb57600080fd5b5061010d6102da366004610a5f565b610450565b61010d6102ed366004610872565b61045d565b3480156102fe57600080fd5b5061010d61030d366004610aa6565b610477565b61031a61049e565b610322610502565b61032d83838361053e565b505050565b600061033c61049e565b610344610502565b61034e8383610558565b90505b92915050565b600061035182610575565b60606000835167ffffffffffffffff81111561038057610380610696565b6040519080825280602002602001820160405280156103c557816020015b604080518082019091526000808252602082015281526020019060019003908161039e5790505b50905060005b8451811015610431578381815181106103e6576103e6610abf565b60200260200101518060200190518101906104019190610ad5565b82828151811061041357610413610abf565b6020026020010181905250808061042990610b43565b9150506103cb565b509392505050565b61044281610595565b50565b6000610351826105dc565b610459826105fc565b5050565b61046561049e565b61046d610502565b610459828261067d565b61047f61049e565b80600260008282546104919190610b5c565b9091555061044290508181565b336001600160a01b037f00000000000000000000000000000000000000000000000000000000000000001614610500576040517f075fd2b100000000000000000000000000000000000000000000000000000000815260040160405180910390fd5b565b600154600003610500576040517f3da3f98c00000000000000000000000000000000000000000000000000000000815260040160405180910390fd5b6003805490600061054e83610b43565b9190505550505050565b600380546000918261056983610b43565b90915550919392505050565b60006001600160a01b0382161561058d576001610351565b600092915050565b6000805460ff19168215159081179091556040519081527fd94c9bc4d43c51d8dc345a016d8e3d994432fac68e72832e4cf3a616bd8efae09060200160405180910390a150565b60006001600160a01b038216156105f4576002610351565b600392915050565b61060461049e565b6001541561063e576040517f439a74c900000000000000000000000000000000000000000000000000000000815260040160405180910390fd5b80600003610678576040517f7fcce2a900000000000000000000000000000000000000000000000000000000815260040160405180910390fd5b600155565b6003805490600061068d83610b43565b91905055505050565b634e487b7160e01b600052604160045260246000fd5b604051601f8201601f1916810167ffffffffffffffff811182821017156106d5576106d5610696565b604052919050565b600067ffffffffffffffff8211156106f7576106f7610696565b5060051b60200190565b6001600160a01b038116811461044257600080fd5b600082601f83011261072757600080fd5b8135602061073c610737836106dd565b6106ac565b82815260059290921b8401810191818101908684111561075b57600080fd5b8286015b8481101561077f57803561077281610701565b835291830191830161075f565b509695505050505050565b600082601f83011261079b57600080fd5b813567ffffffffffffffff8111156107b5576107b5610696565b6107c8601f8201601f19166020016106ac565b8181528460208386010111156107dd57600080fd5b816020850160208301376000918101602001919091529392505050565b60008060006060848603121561080f57600080fd5b833567ffffffffffffffff8082111561082757600080fd5b61083387838801610716565b9450602086013591508082111561084957600080fd5b506108568682870161078a565b925050604084013561086781610701565b809150509250925092565b6000806040838503121561088557600080fd5b823567ffffffffffffffff81111561089c57600080fd5b6108a88582860161078a565b92505060208301356108b981610701565b809150509250929050565b6000602082840312156108d657600080fd5b81356108e181610701565b9392505050565b600080604083850312156108fb57600080fd5b823567ffffffffffffffff8082111561091357600080fd5b61091f86838701610716565b935060209150818501358181111561093657600080fd5b8501601f8101871361094757600080fd5b8035610955610737826106dd565b81815260059190911b8201840190848101908983111561097457600080fd5b8584015b838110156109ac578035868111156109905760008081fd5b61099e8c898389010161078a565b845250918601918601610978565b508096505050505050509250929050565b602080825282518282018190526000919060409081850190868401855b82811015610a0857815180516001600160a01b031685528601518685015292840192908501906001016109da565b5091979650505050505050565b600060208284031215610a2757600080fd5b813580151581146108e157600080fd5b6020810160078310610a5957634e487b7160e01b600052602160045260246000fd5b91905290565b60008060408385031215610a7257600080fd5b82359150602083013567ffffffffffffffff811115610a9057600080fd5b610a9c8582860161078a565b9150509250929050565b600060208284031215610ab857600080fd5b5035919050565b634e487b7160e01b600052603260045260246000fd5b600060408284031215610ae757600080fd5b6040516040810181811067ffffffffffffffff82111715610b0a57610b0a610696565b6040528251610b1881610701565b81526020928301519281019290925250919050565b634e487b7160e01b600052601160045260246000fd5b600060018201610b5557610b55610b2d565b5060010190565b8082018082111561035157610351610b2d56fea2646970667358221220978847c3305e017d194f9ab50aa5e7f5eef14b13004c92f78d87f007b797c13164736f6c63430008130033",
    "linkReferences": {}
  },
  "methodIdentifiers": {
    "NATIVE()": "a0cf0aea",
    "allocate(bytes,address)": "ef2920fc",
    "distribute(address[],bytes,address)": "0a6f0ee9",
    "getAllo()": "15cc481e",
    "getPayouts(address[],bytes[])": "b2b878d0",
    "getPoolAmount()": "4ab4ba42",
    "getPoolId()": "38fff2d0",
    "getRecipientStatus(address)": "eb11af93",
    "getStrategyId()": "42fda9c7",
    "increasePoolAmount(uint256)": "f5b0dfb7",
    "initialize(uint256,bytes)": "edd146cc",
    "isPoolActive()": "df868ed3",
    "isValidAllocator(address)": "4d31d087",
    "registerRecipient(bytes,address)": "2bbe0cae",
    "setPoolActive(bool)": "b5f620ce"
  },
  "storageLayout": {
    "storage": [
      {
        "astId": 3267,
        "contract": "test/utils/MockStrategy.sol:MockStrategy",
        "label": "poolActive",
        "offset": 0,
        "slot": "0",
        "type": "t_bool"
      },
      {
        "astId": 3269,
        "contract": "test/utils/MockStrategy.sol:MockStrategy",
        "label": "poolId",
        "offset": 0,
        "slot": "1",
        "type": "t_uint256"
      },
      {
        "astId": 3271,
        "contract": "test/utils/MockStrategy.sol:MockStrategy",
        "label": "poolAmount",
        "offset": 0,
        "slot": "2",
        "type": "t_uint256"
      },
      {
        "astId": 121049,
        "contract": "test/utils/MockStrategy.sol:MockStrategy",
        "label": "surpressStateMutabilityWarning",
        "offset": 0,
        "slot": "3",
        "type": "t_uint256"
      }
    ],
    "types": {
      "t_bool": {
        "encoding": "inplace",
        "label": "bool",
        "numberOfBytes": "1"
      },
      "t_uint256": {
        "encoding": "inplace",
        "label": "uint256",
        "numberOfBytes": "32"
      }
    }
  },
  "id": 177
}