{
  "abi": [
    {
      "inputs": [
        {
          "internalType": "address",
          "name": "_allo",
          "type": "address"
        },
        {
          "internalType": "string",
          "name": "_name",
          "type": "string"
        }
      ],
      "stateMutability": "nonpayable",
      "type": "constructor"
    },
    {
      "inputs": [],
      "name": "ALLOCATION_ACTIVE",
      "type": "error"
    },
    {
      "inputs": [],
      "name": "ALLOCATION_EXCEEDS_POOL_AMOUNT",
      "type": "error"
    },
    {
      "inputs": [],
      "name": "ALLOCATION_NOT_ACTIVE",
      "type": "error"
    },
    {
      "inputs": [],
      "name": "ALLOCATION_NOT_ENDED",
      "type": "error"
    },
    {
      "inputs": [],
      "name": "ALREADY_INITIALIZED",
      "type": "error"
    },
    {
      "inputs": [],
      "name": "AMOUNT_MISMATCH",
      "type": "error"
    },
    {
      "inputs": [],
      "name": "ANCHOR_ERROR",
      "type": "error"
    },
    {
      "inputs": [],
      "name": "ARRAY_MISMATCH",
      "type": "error"
    },
    {
      "inputs": [],
      "name": "INVALID",
      "type": "error"
    },
    {
      "inputs": [],
      "name": "INVALID_ADDRESS",
      "type": "error"
    },
    {
      "inputs": [],
      "name": "INVALID_FEE",
      "type": "error"
    },
    {
      "inputs": [],
      "name": "INVALID_METADATA",
      "type": "error"
    },
    {
      "inputs": [],
      "name": "INVALID_MILESTONE",
      "type": "error"
    },
    {
      "inputs": [],
      "name": "INVALID_REGISTRATION",
      "type": "error"
    },
    {
      "inputs": [],
      "name": "IS_APPROVED_STRATEGY",
      "type": "error"
    },
    {
      "inputs": [],
      "name": "MILESTONES_ALREADY_SET",
      "type": "error"
    },
    {
      "inputs": [],
      "name": "MILESTONE_ALREADY_ACCEPTED",
      "type": "error"
    },
    {
      "inputs": [],
      "name": "MISMATCH",
      "type": "error"
    },
    {
      "inputs": [],
      "name": "NONCE_NOT_AVAILABLE",
      "type": "error"
    },
    {
      "inputs": [],
      "name": "NOT_APPROVED_STRATEGY",
      "type": "error"
    },
    {
      "inputs": [],
      "name": "NOT_ENOUGH_FUNDS",
      "type": "error"
    },
    {
      "inputs": [],
      "name": "NOT_INITIALIZED",
      "type": "error"
    },
    {
      "inputs": [],
      "name": "NOT_PENDING_OWNER",
      "type": "error"
    },
    {
      "inputs": [],
      "name": "POOL_ACTIVE",
      "type": "error"
    },
    {
      "inputs": [],
      "name": "POOL_INACTIVE",
      "type": "error"
    },
    {
      "inputs": [],
      "name": "RECIPIENT_ALREADY_ACCEPTED",
      "type": "error"
    },
    {
      "inputs": [
        {
          "internalType": "address",
          "name": "recipientId",
          "type": "address"
        }
      ],
      "name": "RECIPIENT_ERROR",
      "type": "error"
    },
    {
      "inputs": [],
      "name": "RECIPIENT_NOT_ACCEPTED",
      "type": "error"
    },
    {
      "inputs": [],
      "name": "REGISTRATION_NOT_ACTIVE",
      "type": "error"
    },
    {
      "inputs": [],
      "name": "UNAUTHORIZED",
      "type": "error"
    },
    {
      "inputs": [],
      "name": "ZERO_ADDRESS",
      "type": "error"
    },
    {
      "anonymous": false,
      "inputs": [
        {
          "indexed": true,
          "internalType": "address",
          "name": "recipientId",
          "type": "address"
        },
        {
          "indexed": false,
          "internalType": "uint256",
          "name": "amount",
          "type": "uint256"
        },
        {
          "indexed": false,
          "internalType": "address",
          "name": "token",
          "type": "address"
        },
        {
          "indexed": false,
          "internalType": "address",
          "name": "sender",
          "type": "address"
        }
      ],
      "name": "Allocated",
      "type": "event"
    },
    {
      "anonymous": false,
      "inputs": [
        {
          "indexed": true,
          "internalType": "address",
          "name": "recipientId",
          "type": "address"
        },
        {
          "indexed": false,
          "internalType": "address",
          "name": "recipientAddress",
          "type": "address"
        },
        {
          "indexed": false,
          "internalType": "uint256",
          "name": "amount",
          "type": "uint256"
        },
        {
          "indexed": false,
          "internalType": "address",
          "name": "sender",
          "type": "address"
        }
      ],
      "name": "Distributed",
      "type": "event"
    },
    {
      "anonymous": false,
      "inputs": [
        {
          "indexed": false,
          "internalType": "address",
          "name": "allo",
          "type": "address"
        },
        {
          "indexed": false,
          "internalType": "bytes32",
          "name": "profileId",
          "type": "bytes32"
        },
        {
          "indexed": false,
          "internalType": "uint256",
          "name": "poolId",
          "type": "uint256"
        },
        {
          "indexed": false,
          "internalType": "bytes",
          "name": "data",
          "type": "bytes"
        }
      ],
      "name": "Initialized",
      "type": "event"
    },
    {
      "anonymous": false,
      "inputs": [
        {
          "indexed": false,
          "internalType": "address",
          "name": "recipientId",
          "type": "address"
        },
        {
          "indexed": false,
          "internalType": "uint256",
          "name": "milestoneId",
          "type": "uint256"
        },
        {
          "indexed": false,
          "internalType": "enum IStrategy.Status",
          "name": "status",
          "type": "uint8"
        }
      ],
      "name": "MilestoneStatusChanged",
      "type": "event"
    },
    {
      "anonymous": false,
      "inputs": [
        {
          "indexed": false,
          "internalType": "address",
          "name": "recipientId",
          "type": "address"
        },
        {
          "indexed": false,
          "internalType": "uint256",
          "name": "milestoneId",
          "type": "uint256"
        },
        {
          "components": [
            {
              "internalType": "uint256",
              "name": "protocol",
              "type": "uint256"
            },
            {
              "internalType": "string",
              "name": "pointer",
              "type": "string"
            }
          ],
          "indexed": false,
          "internalType": "struct Metadata",
          "name": "metadata",
          "type": "tuple"
        }
      ],
      "name": "MilestoneSubmitted",
      "type": "event"
    },
    {
      "anonymous": false,
      "inputs": [
        {
          "indexed": false,
          "internalType": "address",
          "name": "recipientId",
          "type": "address"
        },
        {
          "indexed": false,
          "internalType": "enum IStrategy.Status",
          "name": "status",
          "type": "uint8"
        }
      ],
      "name": "MilestonesReviewed",
      "type": "event"
    },
    {
      "anonymous": false,
      "inputs": [
        {
          "indexed": false,
          "internalType": "address",
          "name": "recipientId",
          "type": "address"
        }
      ],
      "name": "MilestonesSet",
      "type": "event"
    },
    {
      "anonymous": false,
      "inputs": [
        {
          "indexed": false,
          "internalType": "bool",
          "name": "active",
          "type": "bool"
        }
      ],
      "name": "PoolActive",
      "type": "event"
    },
    {
      "anonymous": false,
      "inputs": [
        {
          "indexed": false,
          "internalType": "address",
          "name": "recipientId",
          "type": "address"
        },
        {
          "indexed": false,
          "internalType": "enum IStrategy.Status",
          "name": "status",
          "type": "uint8"
        }
      ],
      "name": "RecipientStatusChanged",
      "type": "event"
    },
    {
      "anonymous": false,
      "inputs": [
        {
          "indexed": true,
          "internalType": "address",
          "name": "recipientId",
          "type": "address"
        },
        {
          "indexed": false,
          "internalType": "bytes",
          "name": "data",
          "type": "bytes"
        },
        {
          "indexed": false,
          "internalType": "address",
          "name": "sender",
          "type": "address"
        }
      ],
      "name": "Registered",
      "type": "event"
    },
    {
      "inputs": [],
      "name": "NATIVE",
      "outputs": [
        {
          "internalType": "address",
          "name": "",
          "type": "address"
        }
      ],
      "stateMutability": "view",
      "type": "function"
    },
    {
      "inputs": [
        {
          "internalType": "bytes",
          "name": "_data",
          "type": "bytes"
        },
        {
          "internalType": "address",
          "name": "_sender",
          "type": "address"
        }
      ],
      "name": "allocate",
      "outputs": [],
      "stateMutability": "payable",
      "type": "function"
    },
    {
      "inputs": [],
      "name": "allocatedGrantAmount",
      "outputs": [
        {
          "internalType": "uint256",
          "name": "",
          "type": "uint256"
        }
      ],
      "stateMutability": "view",
      "type": "function"
    },
    {
      "inputs": [
        {
          "internalType": "address[]",
          "name": "_recipientIds",
          "type": "address[]"
        },
        {
          "internalType": "bytes",
          "name": "_data",
          "type": "bytes"
        },
        {
          "internalType": "address",
          "name": "_sender",
          "type": "address"
        }
      ],
      "name": "distribute",
      "outputs": [],
      "stateMutability": "nonpayable",
      "type": "function"
    },
    {
      "inputs": [],
      "name": "getAllo",
      "outputs": [
        {
          "internalType": "contract IAllo",
          "name": "",
          "type": "address"
        }
      ],
      "stateMutability": "view",
      "type": "function"
    },
    {
      "inputs": [
        {
          "internalType": "address",
          "name": "_recipientId",
          "type": "address"
        },
        {
          "internalType": "uint256",
          "name": "_milestoneId",
          "type": "uint256"
        }
      ],
      "name": "getMilestoneStatus",
      "outputs": [
        {
          "internalType": "enum IStrategy.Status",
          "name": "",
          "type": "uint8"
        }
      ],
      "stateMutability": "view",
      "type": "function"
    },
    {
      "inputs": [
        {
          "internalType": "address",
          "name": "_recipientId",
          "type": "address"
        }
      ],
      "name": "getMilestones",
      "outputs": [
        {
          "components": [
            {
              "internalType": "uint256",
              "name": "amountPercentage",
              "type": "uint256"
            },
            {
              "components": [
                {
                  "internalType": "uint256",
                  "name": "protocol",
                  "type": "uint256"
                },
                {
                  "internalType": "string",
                  "name": "pointer",
                  "type": "string"
                }
              ],
              "internalType": "struct Metadata",
              "name": "metadata",
              "type": "tuple"
            },
            {
              "internalType": "enum IStrategy.Status",
              "name": "milestoneStatus",
              "type": "uint8"
            }
          ],
          "internalType": "struct DirectGrantsSimpleStrategy.Milestone[]",
          "name": "",
          "type": "tuple[]"
        }
      ],
      "stateMutability": "view",
      "type": "function"
    },
    {
      "inputs": [
        {
          "internalType": "address[]",
          "name": "_recipientIds",
          "type": "address[]"
        },
        {
          "internalType": "bytes[]",
          "name": "_data",
          "type": "bytes[]"
        }
      ],
      "name": "getPayouts",
      "outputs": [
        {
          "components": [
            {
              "internalType": "address",
              "name": "recipientAddress",
              "type": "address"
            },
            {
              "internalType": "uint256",
              "name": "amount",
              "type": "uint256"
            }
          ],
          "internalType": "struct IStrategy.PayoutSummary[]",
          "name": "",
          "type": "tuple[]"
        }
      ],
      "stateMutability": "view",
      "type": "function"
    },
    {
      "inputs": [],
      "name": "getPoolAmount",
      "outputs": [
        {
          "internalType": "uint256",
          "name": "",
          "type": "uint256"
        }
      ],
      "stateMutability": "view",
      "type": "function"
    },
    {
      "inputs": [],
      "name": "getPoolId",
      "outputs": [
        {
          "internalType": "uint256",
          "name": "",
          "type": "uint256"
        }
      ],
      "stateMutability": "view",
      "type": "function"
    },
    {
      "inputs": [
        {
          "internalType": "address",
          "name": "_recipientId",
          "type": "address"
        }
      ],
      "name": "getRecipient",
      "outputs": [
        {
          "components": [
            {
              "internalType": "bool",
              "name": "useRegistryAnchor",
              "type": "bool"
            },
            {
              "internalType": "address",
              "name": "recipientAddress",
              "type": "address"
            },
            {
              "internalType": "uint256",
              "name": "grantAmount",
              "type": "uint256"
            },
            {
              "components": [
                {
                  "internalType": "uint256",
                  "name": "protocol",
                  "type": "uint256"
                },
                {
                  "internalType": "string",
                  "name": "pointer",
                  "type": "string"
                }
              ],
              "internalType": "struct Metadata",
              "name": "metadata",
              "type": "tuple"
            },
            {
              "internalType": "enum IStrategy.Status",
              "name": "recipientStatus",
              "type": "uint8"
            },
            {
              "internalType": "enum IStrategy.Status",
              "name": "milestonesReviewStatus",
              "type": "uint8"
            }
          ],
          "internalType": "struct DirectGrantsSimpleStrategy.Recipient",
          "name": "",
          "type": "tuple"
        }
      ],
      "stateMutability": "view",
      "type": "function"
    },
    {
      "inputs": [
        {
          "internalType": "address",
          "name": "_recipientId",
          "type": "address"
        }
      ],
      "name": "getRecipientStatus",
      "outputs": [
        {
          "internalType": "enum IStrategy.Status",
          "name": "",
          "type": "uint8"
        }
      ],
      "stateMutability": "view",
      "type": "function"
    },
    {
      "inputs": [],
      "name": "getStrategyId",
      "outputs": [
        {
          "internalType": "bytes32",
          "name": "",
          "type": "bytes32"
        }
      ],
      "stateMutability": "view",
      "type": "function"
    },
    {
      "inputs": [],
      "name": "grantAmountRequired",
      "outputs": [
        {
          "internalType": "bool",
          "name": "",
          "type": "bool"
        }
      ],
      "stateMutability": "view",
      "type": "function"
    },
    {
      "inputs": [
        {
          "internalType": "uint256",
          "name": "_amount",
          "type": "uint256"
        }
      ],
      "name": "increasePoolAmount",
      "outputs": [],
      "stateMutability": "nonpayable",
      "type": "function"
    },
    {
      "inputs": [
        {
          "internalType": "uint256",
          "name": "_poolId",
          "type": "uint256"
        },
        {
          "internalType": "bytes",
          "name": "_data",
          "type": "bytes"
        }
      ],
      "name": "initialize",
      "outputs": [],
      "stateMutability": "nonpayable",
      "type": "function"
    },
    {
      "inputs": [],
      "name": "isPoolActive",
      "outputs": [
        {
          "internalType": "bool",
          "name": "",
          "type": "bool"
        }
      ],
      "stateMutability": "view",
      "type": "function"
    },
    {
      "inputs": [
        {
          "internalType": "address",
          "name": "_allocator",
          "type": "address"
        }
      ],
      "name": "isValidAllocator",
      "outputs": [
        {
          "internalType": "bool",
          "name": "",
          "type": "bool"
        }
      ],
      "stateMutability": "view",
      "type": "function"
    },
    {
      "inputs": [],
      "name": "metadataRequired",
      "outputs": [
        {
          "internalType": "bool",
          "name": "",
          "type": "bool"
        }
      ],
      "stateMutability": "view",
      "type": "function"
    },
    {
      "inputs": [
        {
          "internalType": "address",
          "name": "",
          "type": "address"
        },
        {
          "internalType": "uint256",
          "name": "",
          "type": "uint256"
        }
      ],
      "name": "milestones",
      "outputs": [
        {
          "internalType": "uint256",
          "name": "amountPercentage",
          "type": "uint256"
        },
        {
          "components": [
            {
              "internalType": "uint256",
              "name": "protocol",
              "type": "uint256"
            },
            {
              "internalType": "string",
              "name": "pointer",
              "type": "string"
            }
          ],
          "internalType": "struct Metadata",
          "name": "metadata",
          "type": "tuple"
        },
        {
          "internalType": "enum IStrategy.Status",
          "name": "milestoneStatus",
          "type": "uint8"
        }
      ],
      "stateMutability": "view",
      "type": "function"
    },
    {
      "inputs": [
        {
          "internalType": "bytes",
          "name": "_data",
          "type": "bytes"
        },
        {
          "internalType": "address",
          "name": "_sender",
          "type": "address"
        }
      ],
      "name": "registerRecipient",
      "outputs": [
        {
          "internalType": "address",
          "name": "recipientId",
          "type": "address"
        }
      ],
      "stateMutability": "payable",
      "type": "function"
    },
    {
      "inputs": [],
      "name": "registryGating",
      "outputs": [
        {
          "internalType": "bool",
          "name": "",
          "type": "bool"
        }
      ],
      "stateMutability": "view",
      "type": "function"
    },
    {
      "inputs": [
        {
          "internalType": "address",
          "name": "_recipientId",
          "type": "address"
        },
        {
          "internalType": "uint256",
          "name": "_milestoneId",
          "type": "uint256"
        }
      ],
      "name": "rejectMilestone",
      "outputs": [],
      "stateMutability": "nonpayable",
      "type": "function"
    },
    {
      "inputs": [
        {
          "internalType": "address",
          "name": "_recipientId",
          "type": "address"
        },
        {
          "internalType": "enum IStrategy.Status",
          "name": "_status",
          "type": "uint8"
        }
      ],
      "name": "reviewSetMilestones",
      "outputs": [],
      "stateMutability": "nonpayable",
      "type": "function"
    },
    {
      "inputs": [
        {
          "internalType": "address",
          "name": "_recipientId",
          "type": "address"
        },
        {
          "components": [
            {
              "internalType": "uint256",
              "name": "amountPercentage",
              "type": "uint256"
            },
            {
              "components": [
                {
                  "internalType": "uint256",
                  "name": "protocol",
                  "type": "uint256"
                },
                {
                  "internalType": "string",
                  "name": "pointer",
                  "type": "string"
                }
              ],
              "internalType": "struct Metadata",
              "name": "metadata",
              "type": "tuple"
            },
            {
              "internalType": "enum IStrategy.Status",
              "name": "milestoneStatus",
              "type": "uint8"
            }
          ],
          "internalType": "struct DirectGrantsSimpleStrategy.Milestone[]",
          "name": "_milestones",
          "type": "tuple[]"
        }
      ],
      "name": "setMilestones",
      "outputs": [],
      "stateMutability": "nonpayable",
      "type": "function"
    },
    {
      "inputs": [
        {
          "internalType": "bool",
          "name": "_flag",
          "type": "bool"
        }
      ],
      "name": "setPoolActive",
      "outputs": [],
      "stateMutability": "nonpayable",
      "type": "function"
    },
    {
      "inputs": [
        {
          "internalType": "address[]",
          "name": "_recipientIds",
          "type": "address[]"
        }
      ],
      "name": "setRecipientStatusToInReview",
      "outputs": [],
      "stateMutability": "nonpayable",
      "type": "function"
    },
    {
      "inputs": [
        {
          "internalType": "address",
          "name": "_recipientId",
          "type": "address"
        },
        {
          "internalType": "uint256",
          "name": "_milestoneId",
          "type": "uint256"
        },
        {
          "components": [
            {
              "internalType": "uint256",
              "name": "protocol",
              "type": "uint256"
            },
            {
              "internalType": "string",
              "name": "pointer",
              "type": "string"
            }
          ],
          "internalType": "struct Metadata",
          "name": "_metadata",
          "type": "tuple"
        }
      ],
      "name": "submitMilestone",
      "outputs": [],
      "stateMutability": "nonpayable",
      "type": "function"
    },
    {
      "inputs": [
        {
          "internalType": "address",
          "name": "",
          "type": "address"
        }
      ],
      "name": "upcomingMilestone",
      "outputs": [
        {
          "internalType": "uint256",
          "name": "",
          "type": "uint256"
        }
      ],
      "stateMutability": "view",
      "type": "function"
    },
    {
      "inputs": [
        {
          "internalType": "uint256",
          "name": "_amount",
          "type": "uint256"
        }
      ],
      "name": "withdraw",
      "outputs": [],
      "stateMutability": "nonpayable",
      "type": "function"
    },
    {
      "stateMutability": "payable",
      "type": "receive"
    }
  ],
  "bytecode": {
    "object": "0x60c06040523480156200001157600080fd5b5060405162003b8738038062003b878339810160408190526200003491620000bf565b6001600160a01b03821660805260405182908290620000589082906020016200019a565b60408051601f19818403018152919052805160209091012060a0525050600160035550620001cf9050565b634e487b7160e01b600052604160045260246000fd5b60005b83811015620000b65781810151838201526020016200009c565b50506000910152565b60008060408385031215620000d357600080fd5b82516001600160a01b0381168114620000eb57600080fd5b60208401519092506001600160401b03808211156200010957600080fd5b818501915085601f8301126200011e57600080fd5b81518181111562000133576200013362000083565b604051601f8201601f19908116603f011681019083821181831017156200015e576200015e62000083565b816040528281528860208487010111156200017857600080fd5b6200018b83602083016020880162000099565b80955050505050509250929050565b6020815260008251806020840152620001bb81604085016020870162000099565b601f01601f19169190910160400192915050565b60805160a05161395a6200022d600039600061037901526000818161026e0152818161088f01528181610bde0152818161133e015281816113d101528181611bcb01528181611eea015281816120560152612495015261395a6000f3fe6080604052600436106101d15760003560e01c80639be2ccf5116100f7578063df868ed311610095578063edd146cc11610064578063edd146cc14610594578063ef2920fc146105b4578063f5b0dfb7146105c7578063f83067e7146105e757600080fd5b8063df868ed31461050c578063e2372b5814610524578063e8eeb80614610551578063eb11af931461056757600080fd5b8063b2b878d0116100d1578063b2b878d014610471578063b5f620ce1461049e578063c7a892bf146104be578063cb0e85a6146104ed57600080fd5b80639be2ccf51461040f578063a0cf0aea1461042f578063a647d23e1461045757600080fd5b80632e1a7d4d1161016f57806342fda9c71161013e57806342fda9c71461036a5780634ab4ba421461039d5780634d31d087146103b257806362812a39146103e257600080fd5b80632e1a7d4d146102eb57806338fff2d01461030b57806339b25a9a1461032a5780633bf3577d1461034a57600080fd5b80630cfad8ee116101ab5780630cfad8ee1461023f57806315cc481e1461025f57806322a4e42d146102ab5780632bbe0cae146102d857600080fd5b8063068ae461146101dd57806309c4b8df146101ff5780630a6f0ee91461021f57600080fd5b366101d857005b600080fd5b3480156101e957600080fd5b506101fd6101f83660046128db565b610607565b005b34801561020b57600080fd5b506101fd61021a366004612924565b6106fa565b34801561022b57600080fd5b506101fd61023a366004612b33565b610823565b34801561024b57600080fd5b506101fd61025a366004612bab565b610843565b34801561026b57600080fd5b507f00000000000000000000000000000000000000000000000000000000000000005b6040516001600160a01b0390911681526020015b60405180910390f35b3480156102b757600080fd5b506102cb6102c6366004612d22565b610a10565b6040516102a29190612de6565b61028e6102e6366004612e71565b610b72565b3480156102f757600080fd5b506101fd610306366004612eb8565b610b97565b34801561031757600080fd5b506001545b6040519081526020016102a2565b34801561033657600080fd5b506101fd610345366004612ed1565b610c69565b34801561035657600080fd5b506101fd610365366004612f46565b610d16565b34801561037657600080fd5b507f000000000000000000000000000000000000000000000000000000000000000061031c565b3480156103a957600080fd5b5060025461031c565b3480156103be57600080fd5b506103d26103cd366004612d22565b610fec565b60405190151581526020016102a2565b3480156103ee57600080fd5b506104026103fd366004612d22565b610ff7565b6040516102a29190612f9b565b34801561041b57600080fd5b506004546103d29062010000900460ff1681565b34801561043b57600080fd5b5061028e73eeeeeeeeeeeeeeeeeeeeeeeeeeeeeeeeeeeeeeee81565b34801561046357600080fd5b506004546103d29060ff1681565b34801561047d57600080fd5b5061049161048c36600461300f565b611008565b6040516102a291906130e4565b3480156104aa57600080fd5b506101fd6104b936600461314a565b611120565b3480156104ca57600080fd5b506104de6104d93660046128db565b61116c565b6040516102a293929190613167565b3480156104f957600080fd5b506004546103d290610100900460ff1681565b34801561051857600080fd5b5060005460ff166103d2565b34801561053057600080fd5b5061031c61053f366004612d22565b60096020526000908152604090205481565b34801561055d57600080fd5b5061031c60055481565b34801561057357600080fd5b50610587610582366004612d22565b61125b565b6040516102a2919061318f565b3480156105a057600080fd5b506101fd6105af36600461319d565b611266565b6101fd6105c2366004612e71565b611288565b3480156105d357600080fd5b506101fd6105e2366004612eb8565b6112a2565b3480156105f357600080fd5b506105876106023660046128db565b6112cc565b3361061181611314565b6001600160a01b0383166000908152600860205260409020805483111561064b57604051632f1f68e160e11b815260040160405180910390fd5b600081848154811061065f5761065f6131e4565b6000918252602090912060049091020190506002600382015460ff16600681111561068c5761068c612dae565b036106aa57604051637f46ed2760e11b815260040160405180910390fd5b6003818101805460ff1916821790556040517ff1af82b65c631a030029b10ea8f00f68290285c7c797644155b8f23969ca1d63916106eb91889188916131fa565b60405180910390a15050505050565b3361070481611314565b6001600160a01b0383166000908152600760209081526040808320600890925282205490910361074757604051632f1f68e160e11b815260040160405180910390fd5b60026004820154610100900460ff16600681111561076757610767612dae565b03610785576040516305ca31d360e51b815260040160405180910390fd5b600283600681111561079957610799612dae565b14806107b6575060038360068111156107b4576107b4612dae565b145b1561081d5760048101805484919061ff0019166101008360068111156107de576107de612dae565b02179055507f30dae55c386c6176f3f7b7ee6ad4df33970f2e442cb0142e978cf78fd8ae138d848460405161081492919061321e565b60405180910390a15b50505050565b61082b6113c6565b610833611411565b61083e83838361144d565b505050565b6000336001600160a01b038416148061086157506108618333611497565b6001546040516329e40d4b60e01b815260048101919091523360248201529091506000906001600160a01b037f000000000000000000000000000000000000000000000000000000000000000016906329e40d4b90604401602060405180830381865afa1580156108d6573d6000803e3d6000fd5b505050506040513d601f19601f820116820180604052508101906108fa919061323b565b905081158015610908575080155b156109265760405163075fd2b160e01b815260040160405180910390fd5b6001600160a01b03841660009081526007602052604090206002600482015460ff16600681111561095957610959612dae565b146109775760405163392c16fb60e21b815260040160405180910390fd5b60026004820154610100900460ff16600681111561099757610997612dae565b036109b5576040516305ca31d360e51b815260040160405180910390fd5b6109bf85856115cf565b8115610a095760048101805461ff0019166102001790556040517f30dae55c386c6176f3f7b7ee6ad4df33970f2e442cb0142e978cf78fd8ae138d906106eb90879060029061321e565b5050505050565b6001600160a01b0381166000908152600860209081526040808320805482518185028101850190935280835260609492939192909184015b82821015610b675783829060005260206000209060040201604051806060016040529081600082015481526020016001820160405180604001604052908160008201548152602001600182018054610a9f90613258565b80601f0160208091040260200160405190810160405280929190818152602001828054610acb90613258565b8015610b185780601f10610aed57610100808354040283529160200191610b18565b820191906000526020600020905b815481529060010190602001808311610afb57829003601f168201915b505050919092525050508152600382015460209091019060ff166006811115610b4357610b43612dae565b6006811115610b5457610b54612dae565b8152505081526020019060010190610a48565b505050509050919050565b6000610b7c6113c6565b610b84611411565b610b8e8383611781565b90505b92915050565b33610ba181611314565b610ba9611b2c565b8160026000828254610bbb91906132a8565b909155505060015460405163068bcd8d60e01b8152610c65916001600160a01b037f0000000000000000000000000000000000000000000000000000000000000000169163068bcd8d91610c159160040190815260200190565b600060405180830381865afa158015610c32573d6000803e3d6000fd5b505050506040513d6000823e601f3d908101601f19168201604052610c5a919081019061335d565b604001513384611b69565b5050565b33610c7381611314565b8160005b81811015610a09576000858583818110610c9357610c936131e4565b9050602002016020810190610ca89190612d22565b6001600160a01b03811660009081526007602052604090819020600401805460ff1916600590811790915590519192507f94593b52aa436dd31a63e313045c2eb23d43eb2d6f5b4d7797b4432e7b27749091610d0591849161321e565b60405180910390a150600101610c77565b6001600160a01b0383163314801590610d365750610d348333611497565b155b15610d545760405163075fd2b160e01b815260040160405180910390fd5b6001600160a01b038084166000908152600760209081526040808320815160c081018352815460ff8116151582526101009004909516858401526001810154858301528151808301909252600281018054835260038201805495969592946060870194939084019190610dc690613258565b80601f0160208091040260200160405190810160405280929190818152602001828054610df290613258565b8015610e3f5780601f10610e1457610100808354040283529160200191610e3f565b820191906000526020600020905b815481529060010190602001808311610e2257829003601f168201915b505050919092525050508152600482015460209091019060ff166006811115610e6a57610e6a612dae565b6006811115610e7b57610e7b612dae565b81526020016004820160019054906101000a900460ff166006811115610ea357610ea3612dae565b6006811115610eb457610eb4612dae565b9052509050600281608001516006811115610ed157610ed1612dae565b14610eef5760405163392c16fb60e21b815260040160405180910390fd5b6001600160a01b03841660009081526008602052604090208054841115610f2957604051632f1f68e160e11b815260040160405180910390fd5b6000818581548110610f3d57610f3d6131e4565b6000918252602090912060049091020190506002600382015460ff166006811115610f6a57610f6a612dae565b03610f8857604051637f46ed2760e11b815260040160405180910390fd5b8360018201610f978282613457565b505060038101805460ff191660011790556040517f8673cfb5a2cbad812463bdfd7c85511f29c804579a86d318889ab9251553996190610fdc90889088908890613550565b60405180910390a1505050505050565b6000610b9182611bae565b610fff6127c7565b610b9182611c53565b81518151606091908114611048576040517f7b49805600000000000000000000000000000000000000000000000000000000815260040160405180910390fd5b60008167ffffffffffffffff8111156110635761106361295d565b6040519080825280602002602001820160405280156110a857816020015b60408051808201909152600080825260208201528152602001906001900390816110815790505b50905060005b82811015611117576110f28682815181106110cb576110cb6131e4565b60200260200101518683815181106110e5576110e56131e4565b6020026020010151611dc3565b828281518110611104576111046131e4565b60209081029190910101526001016110ae565b50949350505050565b3361112a81611314565b61113382611e0e565b60405182151581527fd94c9bc4d43c51d8dc345a016d8e3d994432fac68e72832e4cf3a616bd8efae09060200160405180910390a15050565b6008602052816000526040600020818154811061118857600080fd5b90600052602060002090600402016000915091505080600001549080600101604051806040016040529081600082015481526020016001820180546111cc90613258565b80601f01602080910402602001604051908101604052809291908181526020018280546111f890613258565b80156112455780601f1061121a57610100808354040283529160200191611245565b820191906000526020600020905b81548152906001019060200180831161122857829003601f168201915b5050509190925250505060039091015460ff1683565b6000610b9182611e55565b60008180602001905181019061127c91906135eb565b905061083e8382611e6a565b6112906113c6565b611298611411565b610c658282611f84565b6112aa6113c6565b80600260008282546112bc919061363f565b909155506112c990508181565b50565b6001600160a01b03821660009081526008602052604081208054839081106112f6576112f66131e4565b600091825260209091206004909102016003015460ff169392505050565b6001546040516329e40d4b60e01b815260048101919091526001600160a01b0382811660248301527f000000000000000000000000000000000000000000000000000000000000000016906329e40d4b90604401602060405180830381865afa158015611385573d6000803e3d6000fd5b505050506040513d601f19601f820116820180604052508101906113a9919061323b565b6112c95760405163075fd2b160e01b815260040160405180910390fd5b336001600160a01b037f0000000000000000000000000000000000000000000000000000000000000000161461140f5760405163075fd2b160e01b815260040160405180910390fd5b565b60015460000361140f576040517f3da3f98c00000000000000000000000000000000000000000000000000000000815260040160405180910390fd5b8061145781611314565b835160005b8181101561148f57611487868281518110611479576114796131e4565b602002602001015185612282565b60010161145c565b505050505050565b600480546040517fdd93da430000000000000000000000000000000000000000000000000000000081526001600160a01b0385811693820193909352600092839263010000009004169063dd93da4390602401600060405180830381865afa158015611507573d6000803e3d6000fd5b505050506040513d6000823e601f3d908101601f1916820160405261152f9190810190613652565b6004805482516040517f5e8a7915000000000000000000000000000000000000000000000000000000008152928301526001600160a01b0386811660248401529293506301000000900490911690635e8a791590604401602060405180830381865afa1580156115a3573d6000803e3d6000fd5b505050506040513d601f19601f820116820180604052508101906115c7919061323b565b949350505050565b6001600160a01b0382166000908152600860205260408120541561160e576001600160a01b038316600090815260086020526040812061160e91612822565b815160005b8181101561171f57600084828151811061162f5761162f6131e4565b602002602001015190506000600681111561164c5761164c612dae565b8160400151600681111561166257611662612dae565b1461168057604051632f1f68e160e11b815260040160405180910390fd5b805161168c908561363f565b6001600160a01b0387166000908152600860209081526040822080546001818101835591845292829020855160049094020192835584820151805191840191825591820151939750849360028401906116e59082613719565b505050604082015160038201805460ff1916600183600681111561170b5761170b612dae565b021790555050600190920191506116139050565b5081670de0b6b3a76400001461174857604051632f1f68e160e11b815260040160405180910390fd5b6040516001600160a01b03851681527f93af0a575956c230cf8abe8efe9ea01bc8cd513cc99454de2996d3c191e1dbd090602001610814565b600061178b612628565b6000806000806117ae604051806040016040528060008152602001606081525090565b60045460ff161561180357878060200190518101906117cd91906137d9565b929850909650925090506117e18688611497565b6117fe5760405163075fd2b160e01b815260040160405180910390fd5b611870565b8780602001905181019061181791906137d9565b9297509095506001600160a01b03861615159450925090508261183a578661183c565b835b955082801561185257506118508688611497565b155b156118705760405163075fd2b160e01b815260040160405180910390fd5b60045462010000900460ff168015611886575081155b156118bd576040517f03b167dd00000000000000000000000000000000000000000000000000000000815260040160405180910390fd5b60026001600160a01b03871660009081526007602052604090206004015460ff1660068111156118ef576118ef612dae565b03611926576040517f41d40fb800000000000000000000000000000000000000000000000000000000815260040160405180910390fd5b600454610100900460ff1680156119495750602081015151158061194957508051155b15611980576040517fc19e07c500000000000000000000000000000000000000000000000000000000815260040160405180910390fd5b6040805160c0810190915260045460009190819060ff166119a157856119a4565b60015b151581526001600160a01b0388166020820152604081018590526060810184905260800160018152602001600190526001600160a01b0388811660009081526007602090815260409182902084518154868401517fffffffffffffffffffffff0000000000000000000000000000000000000000009091169115157fffffffffffffffffffffff0000000000000000000000000000000000000000ff1691909117610100919095160293909317835590830151600183015560608301518051600284019081559181015193945084939091906003840190611a859082613719565b505050608082015160048201805460ff19166001836006811115611aab57611aab612dae565b021790555060a082015160048201805461ff001916610100836006811115611ad557611ad5612dae565b0217905550905050866001600160a01b03167fa197306e3dd5494a61a695381aa809a53b8e377a685e84e404a85d5a8da6cc628a8a604051611b18929190613847565b60405180910390a250505050505092915050565b60005460ff161561140f576040517fb186267000000000000000000000000000000000000000000000000000000000815260040160405180910390fd5b7fffffffffffffffffffffffff11111111111111111111111111111111111111126001600160a01b03841601611ba35761083e8282612664565b61083e838383612680565b6001546040516329e40d4b60e01b81526000916001600160a01b037f000000000000000000000000000000000000000000000000000000000000000016916329e40d4b91611c129186906004019182526001600160a01b0316602082015260400190565b602060405180830381865afa158015611c2f573d6000803e3d6000fd5b505050506040513d601f19601f82011682018060405250810190610b91919061323b565b611c5b6127c7565b6001600160a01b03808316600090815260076020908152604091829020825160c081018452815460ff811615158252610100900490941684830152600181015484840152825180840190935260028101805484526003820180549294606087019490939084019190611ccc90613258565b80601f0160208091040260200160405190810160405280929190818152602001828054611cf890613258565b8015611d455780601f10611d1a57610100808354040283529160200191611d45565b820191906000526020600020905b815481529060010190602001808311611d2857829003601f168201915b505050919092525050508152600482015460209091019060ff166006811115611d7057611d70612dae565b6006811115611d8157611d81612dae565b81526020016004820160019054906101000a900460ff166006811115611da957611da9612dae565b6006811115611dba57611dba612dae565b90525092915050565b60408051808201909152600080825260208201526000611de284611c53565b6040805180820182526020808401516001600160a01b0316825291909201519082015291505092915050565b6000805460ff19168215159081179091556040519081527fd94c9bc4d43c51d8dc345a016d8e3d994432fac68e72832e4cf3a616bd8efae09060200160405180910390a150565b6000611e6082611c53565b6080015192915050565b611e73826126cf565b8051600480546020808501516040808701511515620100000262ff0000199215156101000261ff00199715159790971661ffff1990951694909417959095171691909117825582517f5ab1bd5300000000000000000000000000000000000000000000000000000000815292516001600160a01b037f00000000000000000000000000000000000000000000000000000000000000001693635ab1bd53938181019392918290030181865afa158015611f30573d6000803e3d6000fd5b505050506040513d601f19601f82011682018060405250810190611f549190613872565b600460036101000a8154816001600160a01b0302191690836001600160a01b03160217905550610c656001611e0e565b611f8c612750565b80611f9681611314565b600080600085806020019051810190611faf919061388f565b6001600160a01b038316600090815260076020908152604080832060099092529091205493965091945092509015611ffa576040516305ca31d360e51b815260040160405180910390fd5b6002600482015460ff16600681111561201557612015612dae565b141580156120345750600283600681111561203257612032612dae565b145b156121e85760015460405163068bcd8d60e01b81526000916001600160a01b037f0000000000000000000000000000000000000000000000000000000000000000169163068bcd8d9161208d9160040190815260200190565b600060405180830381865afa1580156120aa573d6000803e3d6000fd5b505050506040513d6000823e601f3d908101601f191682016040526120d2919081019061335d565b905082600560008282546120e6919061363f565b90915550506002546005541115612129576040517f8e81b16f00000000000000000000000000000000000000000000000000000000815260040160405180910390fd5b6001820183905560048201805460ff191660029081179091556040517f94593b52aa436dd31a63e313045c2eb23d43eb2d6f5b4d7797b4432e7b277490916121739188919061321e565b60405180910390a1846001600160a01b03167f463ffc2cf8b1596445c417388ed30e53eb67cf6668cb2be7f0addf8a78c8441b836001015483604001518a6040516121da939291909283526001600160a01b03918216602084015216604082015260600190565b60405180910390a250612273565b6003600482015460ff16600681111561220357612203612dae565b141580156122225750600383600681111561222057612220612dae565b145b156122735760048101805460ff191660039081179091556040517f94593b52aa436dd31a63e313045c2eb23d43eb2d6f5b4d7797b4432e7b2774909161226a9187919061321e565b60405180910390a15b5050505050610c656001600355565b6001600160a01b038083166000908152600960209081526040808320546008835281842060078452828520835160c081018552815460ff8116151582526101009004909716878601526001810154878501528351808501909452600281018054855260038201805494989397969395929460608701948401919061230590613258565b80601f016020809104026020016040519081016040528092919081815260200182805461233190613258565b801561237e5780601f106123535761010080835404028352916020019161237e565b820191906000526020600020905b81548152906001019060200180831161236157829003601f168201915b505050919092525050508152600482015460209091019060ff1660068111156123a9576123a9612dae565b60068111156123ba576123ba612dae565b81526020016004820160019054906101000a900460ff1660068111156123e2576123e2612dae565b60068111156123f3576123f3612dae565b815250509050600082848154811061240d5761240d6131e4565b90600052602060002090600402019050828054905084118061244857506001600382015460ff16600681111561244557612445612dae565b14155b1561246657604051632f1f68e160e11b815260040160405180910390fd5b6000670de0b6b3a76400008260000154846040015161248591906138d2565b61248f91906138e9565b905060007f00000000000000000000000000000000000000000000000000000000000000006001600160a01b031663068bcd8d6001546040518263ffffffff1660e01b81526004016124e391815260200190565b600060405180830381865afa158015612500573d6000803e3d6000fd5b505050506040513d6000823e601f3d908101601f19168201604052612528919081019061335d565b9050816002600082825461253c91906132a8565b925050819055506125568160400151856020015184611b69565b60038301805460ff191660021790556001600160a01b03881660009081526009602052604081208054916125898361390b565b91905055507ff1af82b65c631a030029b10ea8f00f68290285c7c797644155b8f23969ca1d63888760026040516125c2939291906131fa565b60405180910390a1602080850151604080516001600160a01b039283168152928301859052898216908301528916907fb5b51454adfa840bd593658325a60a50b0216f12eb5d2937efe6cea935675b7d9060600160405180910390a25050505050505050565b60005460ff1661140f576040517fcfe7975b00000000000000000000000000000000000000000000000000000000815260040160405180910390fd5b60008060008084865af1610c655763b12d13eb6000526004601cfd5b81601452806034526fa9059cbb00000000000000000000000060005260206000604460106000875af13d1560016000511417166126c5576390b8ec186000526004601cfd5b6000603452505050565b6126d76113c6565b60015415612711576040517f439a74c900000000000000000000000000000000000000000000000000000000815260040160405180910390fd5b8060000361274b576040517f7fcce2a900000000000000000000000000000000000000000000000000000000815260040160405180910390fd5b600155565b6002600354036127c0576040517f08c379a000000000000000000000000000000000000000000000000000000000815260206004820152601f60248201527f5265656e7472616e637947756172643a207265656e7472616e742063616c6c00604482015260640160405180910390fd5b6002600355565b6040518060c0016040528060001515815260200160006001600160a01b031681526020016000815260200161280f604051806040016040528060008152602001606081525090565b8152602001600081526020016000905290565b50805460008255600402906000526020600020908101906112c991905b808211156128785760008082556001820181815581612861600285018261287c565b50505060038101805460ff1916905560040161283f565b5090565b50805461288890613258565b6000825580601f10612898575050565b601f0160209004906000526020600020908101906112c991905b8082111561287857600081556001016128b2565b6001600160a01b03811681146112c957600080fd5b600080604083850312156128ee57600080fd5b82356128f9816128c6565b946020939093013593505050565b600781106112c957600080fd5b803561291f81612907565b919050565b6000806040838503121561293757600080fd5b8235612942816128c6565b9150602083013561295281612907565b809150509250929050565b634e487b7160e01b600052604160045260246000fd5b6040516060810167ffffffffffffffff811182821017156129965761299661295d565b60405290565b6040805190810167ffffffffffffffff811182821017156129965761299661295d565b60405160c0810167ffffffffffffffff811182821017156129965761299661295d565b604051601f8201601f1916810167ffffffffffffffff81118282101715612a0b57612a0b61295d565b604052919050565b600067ffffffffffffffff821115612a2d57612a2d61295d565b5060051b60200190565b600082601f830112612a4857600080fd5b81356020612a5d612a5883612a13565b6129e2565b82815260059290921b84018101918181019086841115612a7c57600080fd5b8286015b84811015612aa0578035612a93816128c6565b8352918301918301612a80565b509695505050505050565b600067ffffffffffffffff821115612ac557612ac561295d565b50601f01601f191660200190565b6000612ae1612a5884612aab565b9050828152838383011115612af557600080fd5b828260208301376000602084830101529392505050565b600082601f830112612b1d57600080fd5b612b2c83833560208501612ad3565b9392505050565b600080600060608486031215612b4857600080fd5b833567ffffffffffffffff80821115612b6057600080fd5b612b6c87838801612a37565b94506020860135915080821115612b8257600080fd5b50612b8f86828701612b0c565b9250506040840135612ba0816128c6565b809150509250925092565b60008060408385031215612bbe57600080fd5b612bc883356128c6565b8235915067ffffffffffffffff8060208501351115612be657600080fd5b6020840135840185601f820112612bfc57600080fd5b612c09612a588235612a13565b81358082526020808301929160051b840101881015612c2757600080fd5b602083015b6020843560051b850101811015612d13578481351115612c4b57600080fd5b80358401601f196060828c0382011215612c6457600080fd5b612c6c612973565b602083013581528760408401351115612c8457600080fd5b60408301358301604083828f03011215612c9d57600080fd5b612ca561299c565b9250602081013583528860408201351115612cbf57600080fd5b604081013501603f81018d13612cd457600080fd5b612ce68d602083013560408401612ad3565b602084015250816020820152612cfe60608401612914565b60408201528552505060209283019201612c2c565b50809450505050509250929050565b600060208284031215612d3457600080fd5b8135612b2c816128c6565b60005b83811015612d5a578181015183820152602001612d42565b50506000910152565b60008151808452612d7b816020860160208601612d3f565b601f01601f19169290920160200192915050565b8051825260006020820151604060208501526115c76040850182612d63565b634e487b7160e01b600052602160045260246000fd5b60078110612de257634e487b7160e01b600052602160045260246000fd5b9052565b60006020808301818452808551808352604092508286019150828160051b87010184880160005b83811015612e6357603f19898403018552815160608151855288820151818a870152612e3b82870182612d8f565b915050878201519150612e5088860183612dc4565b9588019593505090860190600101612e0d565b509098975050505050505050565b60008060408385031215612e8457600080fd5b823567ffffffffffffffff811115612e9b57600080fd5b612ea785828601612b0c565b9250506020830135612952816128c6565b600060208284031215612eca57600080fd5b5035919050565b60008060208385031215612ee457600080fd5b823567ffffffffffffffff80821115612efc57600080fd5b818501915085601f830112612f1057600080fd5b813581811115612f1f57600080fd5b8660208260051b8501011115612f3457600080fd5b60209290920196919550909350505050565b600080600060608486031215612f5b57600080fd5b8335612f66816128c6565b925060208401359150604084013567ffffffffffffffff811115612f8957600080fd5b840160408187031215612ba057600080fd5b602081528151151560208201526001600160a01b036020830151166040820152604082015160608201526000606083015160c06080840152612fe060e0840182612d8f565b90506080840151612ff460a0850182612dc4565b5060a084015161300760c0850182612dc4565b509392505050565b6000806040838503121561302257600080fd5b823567ffffffffffffffff8082111561303a57600080fd5b61304686838701612a37565b935060209150818501358181111561305d57600080fd5b8501601f8101871361306e57600080fd5b803561307c612a5882612a13565b81815260059190911b8201840190848101908983111561309b57600080fd5b8584015b838110156130d3578035868111156130b75760008081fd5b6130c58c8983890101612b0c565b84525091860191860161309f565b508096505050505050509250929050565b602080825282518282018190526000919060409081850190868401855b8281101561312f57815180516001600160a01b03168552860151868501529284019290850190600101613101565b5091979650505050505050565b80151581146112c957600080fd5b60006020828403121561315c57600080fd5b8135612b2c8161313c565b8381526060602082015260006131806060830185612d8f565b90506115c76040830184612dc4565b60208101610b918284612dc4565b600080604083850312156131b057600080fd5b82359150602083013567ffffffffffffffff8111156131ce57600080fd5b6131da85828601612b0c565b9150509250929050565b634e487b7160e01b600052603260045260246000fd5b6001600160a01b038416815260208101839052606081016115c76040830184612dc4565b6001600160a01b038316815260408101612b2c6020830184612dc4565b60006020828403121561324d57600080fd5b8151612b2c8161313c565b600181811c9082168061326c57607f821691505b60208210810361328c57634e487b7160e01b600052602260045260246000fd5b50919050565b634e487b7160e01b600052601160045260246000fd5b81810381811115610b9157610b91613292565b805161291f816128c6565b600082601f8301126132d757600080fd5b81516132e5612a5882612aab565b8181528460208386010111156132fa57600080fd5b6115c7826020830160208701612d3f565b60006040828403121561331d57600080fd5b61332561299c565b905081518152602082015167ffffffffffffffff81111561334557600080fd5b613351848285016132c6565b60208301525092915050565b60006020828403121561336f57600080fd5b815167ffffffffffffffff8082111561338757600080fd5b9083019060c0828603121561339b57600080fd5b6133a36129bf565b8251815260208301516133b5816128c6565b602082015260408301516133c8816128c6565b60408201526060830151828111156133df57600080fd5b6133eb8782860161330b565b6060830152506080830151608082015260a083015160a082015280935050505092915050565b601f82111561083e57600081815260208120601f850160051c810160208610156134385750805b601f850160051c820191505b8181101561148f57828155600101613444565b813581556001808201602080850135601e1986360301811261347857600080fd5b8501803567ffffffffffffffff81111561349157600080fd5b80360383830113156134a257600080fd5b6134b6816134b08654613258565b86613411565b6000601f8211600181146134ec57600083156134d457508382018501355b600019600385901b1c1916600184901b178655613545565b600086815260209020601f19841690835b8281101561351c578685018801358255938701939089019087016134fd565b508482101561353b5760001960f88660031b161c198785880101351681555b50508683881b0186555b505050505050505050565b6001600160a01b0384168152826020820152606060408201528135606082015260006020830135601e1984360301811261358957600080fd5b830160208101903567ffffffffffffffff8111156135a657600080fd5b8036038213156135b557600080fd5b604060808501528060a0850152808260c0860137600060c0828601015260c0601f19601f83011685010192505050949350505050565b6000606082840312156135fd57600080fd5b613605612973565b82516136108161313c565b815260208301516136208161313c565b602082015260408301516136338161313c565b60408201529392505050565b80820180821115610b9157610b91613292565b60006020828403121561366457600080fd5b815167ffffffffffffffff8082111561367c57600080fd5b9083019060c0828603121561369057600080fd5b6136986129bf565b82518152602083015160208201526040830151828111156136b857600080fd5b6136c4878286016132c6565b6040830152506060830151828111156136dc57600080fd5b6136e88782860161330b565b6060830152506136fa608084016132bb565b608082015261370b60a084016132bb565b60a082015295945050505050565b815167ffffffffffffffff8111156137335761373361295d565b613747816137418454613258565b84613411565b602080601f83116001811461377c57600084156137645750858301515b600019600386901b1c1916600185901b17855561148f565b600085815260208120601f198616915b828110156137ab5788860151825594840194600190910190840161378c565b50858210156137c95787850151600019600388901b60f8161c191681555b5050505050600190811b01905550565b600080600080608085870312156137ef57600080fd5b84516137fa816128c6565b602086015190945061380b816128c6565b60408601516060870151919450925067ffffffffffffffff81111561382f57600080fd5b61383b8782880161330b565b91505092959194509250565b60408152600061385a6040830185612d63565b90506001600160a01b03831660208301529392505050565b60006020828403121561388457600080fd5b8151612b2c816128c6565b6000806000606084860312156138a457600080fd5b83516138af816128c6565b60208501519093506138c081612907565b80925050604084015190509250925092565b8082028115828204841417610b9157610b91613292565b60008261390657634e487b7160e01b600052601260045260246000fd5b500490565b60006001820161391d5761391d613292565b506001019056fea2646970667358221220e7740c7fcfd2604b5d8b660b66cc548be5b7d2cc1f3a148ea049abd7b2d98a4c64736f6c63430008130033",
    "linkReferences": {}
  },
  "methodIdentifiers": {
    "NATIVE()": "a0cf0aea",
    "allocate(bytes,address)": "ef2920fc",
    "allocatedGrantAmount()": "e8eeb806",
    "distribute(address[],bytes,address)": "0a6f0ee9",
    "getAllo()": "15cc481e",
    "getMilestoneStatus(address,uint256)": "f83067e7",
    "getMilestones(address)": "22a4e42d",
    "getPayouts(address[],bytes[])": "b2b878d0",
    "getPoolAmount()": "4ab4ba42",
    "getPoolId()": "38fff2d0",
    "getRecipient(address)": "62812a39",
    "getRecipientStatus(address)": "eb11af93",
    "getStrategyId()": "42fda9c7",
    "grantAmountRequired()": "9be2ccf5",
    "increasePoolAmount(uint256)": "f5b0dfb7",
    "initialize(uint256,bytes)": "edd146cc",
    "isPoolActive()": "df868ed3",
    "isValidAllocator(address)": "4d31d087",
    "metadataRequired()": "cb0e85a6",
    "milestones(address,uint256)": "c7a892bf",
    "registerRecipient(bytes,address)": "2bbe0cae",
    "registryGating()": "a647d23e",
    "rejectMilestone(address,uint256)": "068ae461",
    "reviewSetMilestones(address,uint8)": "09c4b8df",
    "setMilestones(address,(uint256,(uint256,string),uint8)[])": "0cfad8ee",
    "setPoolActive(bool)": "b5f620ce",
    "setRecipientStatusToInReview(address[])": "39b25a9a",
    "submitMilestone(address,uint256,(uint256,string))": "3bf3577d",
    "upcomingMilestone(address)": "e2372b58",
    "withdraw(uint256)": "2e1a7d4d"
  },
  "storageLayout": {
    "storage": [
      {
        "astId": 3267,
        "contract": "contracts/strategies/_poc/direct-grants-simple/DirectGrantsSimpleStrategy.sol:DirectGrantsSimpleStrategy",
        "label": "poolActive",
        "offset": 0,
        "slot": "0",
        "type": "t_bool"
      },
      {
        "astId": 3269,
        "contract": "contracts/strategies/_poc/direct-grants-simple/DirectGrantsSimpleStrategy.sol:DirectGrantsSimpleStrategy",
        "label": "poolId",
        "offset": 0,
        "slot": "1",
        "type": "t_uint256"
      },
      {
        "astId": 3271,
        "contract": "contracts/strategies/_poc/direct-grants-simple/DirectGrantsSimpleStrategy.sol:DirectGrantsSimpleStrategy",
        "label": "poolAmount",
        "offset": 0,
        "slot": "2",
        "type": "t_uint256"
      },
      {
        "astId": 62206,
        "contract": "contracts/strategies/_poc/direct-grants-simple/DirectGrantsSimpleStrategy.sol:DirectGrantsSimpleStrategy",
        "label": "_status",
        "offset": 0,
        "slot": "3",
        "type": "t_uint256"
      },
      {
        "astId": 3955,
        "contract": "contracts/strategies/_poc/direct-grants-simple/DirectGrantsSimpleStrategy.sol:DirectGrantsSimpleStrategy",
        "label": "registryGating",
        "offset": 0,
        "slot": "4",
        "type": "t_bool"
      },
      {
        "astId": 3958,
        "contract": "contracts/strategies/_poc/direct-grants-simple/DirectGrantsSimpleStrategy.sol:DirectGrantsSimpleStrategy",
        "label": "metadataRequired",
        "offset": 1,
        "slot": "4",
        "type": "t_bool"
      },
      {
        "astId": 3961,
        "contract": "contracts/strategies/_poc/direct-grants-simple/DirectGrantsSimpleStrategy.sol:DirectGrantsSimpleStrategy",
        "label": "grantAmountRequired",
        "offset": 2,
        "slot": "4",
        "type": "t_bool"
      },
      {
        "astId": 3965,
        "contract": "contracts/strategies/_poc/direct-grants-simple/DirectGrantsSimpleStrategy.sol:DirectGrantsSimpleStrategy",
        "label": "_registry",
        "offset": 3,
        "slot": "4",
        "type": "t_contract(IRegistry)2625"
      },
      {
        "astId": 3968,
        "contract": "contracts/strategies/_poc/direct-grants-simple/DirectGrantsSimpleStrategy.sol:DirectGrantsSimpleStrategy",
        "label": "allocatedGrantAmount",
        "offset": 0,
        "slot": "5",
        "type": "t_uint256"
      },
      {
        "astId": 3972,
        "contract": "contracts/strategies/_poc/direct-grants-simple/DirectGrantsSimpleStrategy.sol:DirectGrantsSimpleStrategy",
        "label": "_acceptedRecipientIds",
        "offset": 0,
        "slot": "6",
        "type": "t_array(t_address)dyn_storage"
      },
      {
        "astId": 3978,
        "contract": "contracts/strategies/_poc/direct-grants-simple/DirectGrantsSimpleStrategy.sol:DirectGrantsSimpleStrategy",
        "label": "_recipients",
        "offset": 0,
        "slot": "7",
        "type": "t_mapping(t_address,t_struct(Recipient)3884_storage)"
      },
      {
        "astId": 3985,
        "contract": "contracts/strategies/_poc/direct-grants-simple/DirectGrantsSimpleStrategy.sol:DirectGrantsSimpleStrategy",
        "label": "milestones",
        "offset": 0,
        "slot": "8",
        "type": "t_mapping(t_address,t_array(t_struct(Milestone)3893_storage)dyn_storage)"
      },
      {
        "astId": 3990,
        "contract": "contracts/strategies/_poc/direct-grants-simple/DirectGrantsSimpleStrategy.sol:DirectGrantsSimpleStrategy",
        "label": "upcomingMilestone",
        "offset": 0,
        "slot": "9",
        "type": "t_mapping(t_address,t_uint256)"
      }
    ],
    "types": {
      "t_address": {
        "encoding": "inplace",
        "label": "address",
        "numberOfBytes": "20"
      },
      "t_array(t_address)dyn_storage": {
        "encoding": "dynamic_array",
        "label": "address[]",
        "numberOfBytes": "32",
        "base": "t_address"
      },
      "t_array(t_struct(Milestone)3893_storage)dyn_storage": {
        "encoding": "dynamic_array",
        "label": "struct DirectGrantsSimpleStrategy.Milestone[]",
        "numberOfBytes": "32",
        "base": "t_struct(Milestone)3893_storage"
      },
      "t_bool": {
        "encoding": "inplace",
        "label": "bool",
        "numberOfBytes": "1"
      },
      "t_contract(IRegistry)2625": {
        "encoding": "inplace",
        "label": "contract IRegistry",
        "numberOfBytes": "20"
      },
      "t_enum(Status)2638": {
        "encoding": "inplace",
        "label": "enum IStrategy.Status",
        "numberOfBytes": "1"
      },
      "t_mapping(t_address,t_array(t_struct(Milestone)3893_storage)dyn_storage)": {
        "encoding": "mapping",
        "key": "t_address",
        "label": "mapping(address => struct DirectGrantsSimpleStrategy.Milestone[])",
        "numberOfBytes": "32",
        "value": "t_array(t_struct(Milestone)3893_storage)dyn_storage"
      },
      "t_mapping(t_address,t_struct(Recipient)3884_storage)": {
        "encoding": "mapping",
        "key": "t_address",
        "label": "mapping(address => struct DirectGrantsSimpleStrategy.Recipient)",
        "numberOfBytes": "32",
        "value": "t_struct(Recipient)3884_storage"
      },
      "t_mapping(t_address,t_uint256)": {
        "encoding": "mapping",
        "key": "t_address",
        "label": "mapping(address => uint256)",
        "numberOfBytes": "32",
        "value": "t_uint256"
      },
      "t_string_storage": {
        "encoding": "bytes",
        "label": "string",
        "numberOfBytes": "32"
      },
      "t_struct(Metadata)2922_storage": {
        "encoding": "inplace",
        "label": "struct Metadata",
        "numberOfBytes": "64",
        "members": [
          {
            "astId": 2918,
            "contract": "contracts/strategies/_poc/direct-grants-simple/DirectGrantsSimpleStrategy.sol:DirectGrantsSimpleStrategy",
            "label": "protocol",
            "offset": 0,
            "slot": "0",
            "type": "t_uint256"
          },
          {
            "astId": 2921,
            "contract": "contracts/strategies/_poc/direct-grants-simple/DirectGrantsSimpleStrategy.sol:DirectGrantsSimpleStrategy",
            "label": "pointer",
            "offset": 0,
            "slot": "1",
            "type": "t_string_storage"
          }
        ]
      },
      "t_struct(Milestone)3893_storage": {
        "encoding": "inplace",
        "label": "struct DirectGrantsSimpleStrategy.Milestone",
        "numberOfBytes": "128",
        "members": [
          {
            "astId": 3886,
            "contract": "contracts/strategies/_poc/direct-grants-simple/DirectGrantsSimpleStrategy.sol:DirectGrantsSimpleStrategy",
            "label": "amountPercentage",
            "offset": 0,
            "slot": "0",
            "type": "t_uint256"
          },
          {
            "astId": 3889,
            "contract": "contracts/strategies/_poc/direct-grants-simple/DirectGrantsSimpleStrategy.sol:DirectGrantsSimpleStrategy",
            "label": "metadata",
            "offset": 0,
            "slot": "1",
            "type": "t_struct(Metadata)2922_storage"
          },
          {
            "astId": 3892,
            "contract": "contracts/strategies/_poc/direct-grants-simple/DirectGrantsSimpleStrategy.sol:DirectGrantsSimpleStrategy",
            "label": "milestoneStatus",
            "offset": 0,
            "slot": "3",
            "type": "t_enum(Status)2638"
          }
        ]
      },
      "t_struct(Recipient)3884_storage": {
        "encoding": "inplace",
        "label": "struct DirectGrantsSimpleStrategy.Recipient",
        "numberOfBytes": "160",
        "members": [
          {
            "astId": 3870,
            "contract": "contracts/strategies/_poc/direct-grants-simple/DirectGrantsSimpleStrategy.sol:DirectGrantsSimpleStrategy",
            "label": "useRegistryAnchor",
            "offset": 0,
            "slot": "0",
            "type": "t_bool"
          },
          {
            "astId": 3872,
            "contract": "contracts/strategies/_poc/direct-grants-simple/DirectGrantsSimpleStrategy.sol:DirectGrantsSimpleStrategy",
            "label": "recipientAddress",
            "offset": 1,
            "slot": "0",
            "type": "t_address"
          },
          {
            "astId": 3874,
            "contract": "contracts/strategies/_poc/direct-grants-simple/DirectGrantsSimpleStrategy.sol:DirectGrantsSimpleStrategy",
            "label": "grantAmount",
            "offset": 0,
            "slot": "1",
            "type": "t_uint256"
          },
          {
            "astId": 3877,
            "contract": "contracts/strategies/_poc/direct-grants-simple/DirectGrantsSimpleStrategy.sol:DirectGrantsSimpleStrategy",
            "label": "metadata",
            "offset": 0,
            "slot": "2",
            "type": "t_struct(Metadata)2922_storage"
          },
          {
            "astId": 3880,
            "contract": "contracts/strategies/_poc/direct-grants-simple/DirectGrantsSimpleStrategy.sol:DirectGrantsSimpleStrategy",
            "label": "recipientStatus",
            "offset": 0,
            "slot": "4",
            "type": "t_enum(Status)2638"
          },
          {
            "astId": 3883,
            "contract": "contracts/strategies/_poc/direct-grants-simple/DirectGrantsSimpleStrategy.sol:DirectGrantsSimpleStrategy",
            "label": "milestonesReviewStatus",
            "offset": 1,
            "slot": "4",
            "type": "t_enum(Status)2638"
          }
        ]
      },
      "t_uint256": {
        "encoding": "inplace",
        "label": "uint256",
        "numberOfBytes": "32"
      }
    }
  },
  "id": 13
}