{
  "abi": [
    {
      "inputs": [
        {
          "internalType": "contract ISablierV2LockupDynamic",
          "name": "_lockupDynamic",
          "type": "address"
        },
        {
          "internalType": "address",
          "name": "_allo",
          "type": "address"
        },
        {
          "internalType": "string",
          "name": "_name",
          "type": "string"
        }
      ],
      "stateMutability": "nonpayable",
      "type": "constructor"
    },
    {
      "inputs": [],
      "name": "ALLOCATION_ACTIVE",
      "type": "error"
    },
    {
      "inputs": [],
      "name": "ALLOCATION_EXCEEDS_POOL_AMOUNT",
      "type": "error"
    },
    {
      "inputs": [],
      "name": "ALLOCATION_NOT_ACTIVE",
      "type": "error"
    },
    {
      "inputs": [],
      "name": "ALLOCATION_NOT_ENDED",
      "type": "error"
    },
    {
      "inputs": [],
      "name": "ALREADY_INITIALIZED",
      "type": "error"
    },
    {
      "inputs": [],
      "name": "AMOUNT_MISMATCH",
      "type": "error"
    },
    {
      "inputs": [],
      "name": "ANCHOR_ERROR",
      "type": "error"
    },
    {
      "inputs": [],
      "name": "ARRAY_MISMATCH",
      "type": "error"
    },
    {
      "inputs": [],
      "name": "INVALID",
      "type": "error"
    },
    {
      "inputs": [],
      "name": "INVALID_ADDRESS",
      "type": "error"
    },
    {
      "inputs": [],
      "name": "INVALID_FEE",
      "type": "error"
    },
    {
      "inputs": [],
      "name": "INVALID_METADATA",
      "type": "error"
    },
    {
      "inputs": [],
      "name": "INVALID_REGISTRATION",
      "type": "error"
    },
    {
      "inputs": [],
      "name": "IS_APPROVED_STRATEGY",
      "type": "error"
    },
    {
      "inputs": [],
      "name": "MISMATCH",
      "type": "error"
    },
    {
      "inputs": [],
      "name": "NONCE_NOT_AVAILABLE",
      "type": "error"
    },
    {
      "inputs": [],
      "name": "NOT_APPROVED_STRATEGY",
      "type": "error"
    },
    {
      "inputs": [],
      "name": "NOT_ENOUGH_FUNDS",
      "type": "error"
    },
    {
      "inputs": [],
      "name": "NOT_INITIALIZED",
      "type": "error"
    },
    {
      "inputs": [],
      "name": "NOT_PENDING_OWNER",
      "type": "error"
    },
    {
      "inputs": [],
      "name": "POOL_ACTIVE",
      "type": "error"
    },
    {
      "inputs": [],
      "name": "POOL_INACTIVE",
      "type": "error"
    },
    {
      "inputs": [],
      "name": "RECIPIENT_ALREADY_ACCEPTED",
      "type": "error"
    },
    {
      "inputs": [
        {
          "internalType": "address",
          "name": "recipientId",
          "type": "address"
        }
      ],
      "name": "RECIPIENT_ERROR",
      "type": "error"
    },
    {
      "inputs": [],
      "name": "RECIPIENT_NOT_ACCEPTED",
      "type": "error"
    },
    {
      "inputs": [],
      "name": "REGISTRATION_NOT_ACTIVE",
      "type": "error"
    },
    {
      "inputs": [],
      "name": "STATUS_NOT_ACCEPTED",
      "type": "error"
    },
    {
      "inputs": [],
      "name": "STATUS_NOT_PENDING_OR_INREVIEW",
      "type": "error"
    },
    {
      "inputs": [],
      "name": "UNAUTHORIZED",
      "type": "error"
    },
    {
      "inputs": [],
      "name": "ZERO_ADDRESS",
      "type": "error"
    },
    {
      "anonymous": false,
      "inputs": [
        {
          "indexed": true,
          "internalType": "address",
          "name": "recipientId",
          "type": "address"
        },
        {
          "indexed": false,
          "internalType": "uint256",
          "name": "amount",
          "type": "uint256"
        },
        {
          "indexed": false,
          "internalType": "address",
          "name": "token",
          "type": "address"
        },
        {
          "indexed": false,
          "internalType": "address",
          "name": "sender",
          "type": "address"
        }
      ],
      "name": "Allocated",
      "type": "event"
    },
    {
      "anonymous": false,
      "inputs": [
        {
          "components": [
            {
              "internalType": "address",
              "name": "account",
              "type": "address"
            },
            {
              "internalType": "UD60x18",
              "name": "fee",
              "type": "uint256"
            }
          ],
          "indexed": false,
          "internalType": "struct Broker",
          "name": "broker",
          "type": "tuple"
        }
      ],
      "name": "BrokerSet",
      "type": "event"
    },
    {
      "anonymous": false,
      "inputs": [
        {
          "indexed": true,
          "internalType": "address",
          "name": "recipientId",
          "type": "address"
        },
        {
          "indexed": false,
          "internalType": "address",
          "name": "recipientAddress",
          "type": "address"
        },
        {
          "indexed": false,
          "internalType": "uint256",
          "name": "amount",
          "type": "uint256"
        },
        {
          "indexed": false,
          "internalType": "address",
          "name": "sender",
          "type": "address"
        }
      ],
      "name": "Distributed",
      "type": "event"
    },
    {
      "anonymous": false,
      "inputs": [
        {
          "indexed": false,
          "internalType": "address",
          "name": "allo",
          "type": "address"
        },
        {
          "indexed": false,
          "internalType": "bytes32",
          "name": "profileId",
          "type": "bytes32"
        },
        {
          "indexed": false,
          "internalType": "uint256",
          "name": "poolId",
          "type": "uint256"
        },
        {
          "indexed": false,
          "internalType": "bytes",
          "name": "data",
          "type": "bytes"
        }
      ],
      "name": "Initialized",
      "type": "event"
    },
    {
      "anonymous": false,
      "inputs": [
        {
          "indexed": false,
          "internalType": "bool",
          "name": "active",
          "type": "bool"
        }
      ],
      "name": "PoolActive",
      "type": "event"
    },
    {
      "anonymous": false,
      "inputs": [
        {
          "indexed": false,
          "internalType": "address",
          "name": "recipientId",
          "type": "address"
        },
        {
          "components": [
            {
              "internalType": "uint128",
              "name": "amount",
              "type": "uint128"
            },
            {
              "internalType": "UD2x18",
              "name": "exponent",
              "type": "uint64"
            },
            {
              "internalType": "uint40",
              "name": "delta",
              "type": "uint40"
            }
          ],
          "indexed": false,
          "internalType": "struct LockupDynamic.SegmentWithDelta[]",
          "name": "segments",
          "type": "tuple[]"
        }
      ],
      "name": "RecipientSegmentsChanged",
      "type": "event"
    },
    {
      "anonymous": false,
      "inputs": [
        {
          "indexed": false,
          "internalType": "address",
          "name": "recipientId",
          "type": "address"
        },
        {
          "indexed": false,
          "internalType": "enum IStrategy.Status",
          "name": "status",
          "type": "uint8"
        }
      ],
      "name": "RecipientStatusChanged",
      "type": "event"
    },
    {
      "anonymous": false,
      "inputs": [
        {
          "indexed": true,
          "internalType": "address",
          "name": "recipientId",
          "type": "address"
        },
        {
          "indexed": false,
          "internalType": "bytes",
          "name": "data",
          "type": "bytes"
        },
        {
          "indexed": false,
          "internalType": "address",
          "name": "sender",
          "type": "address"
        }
      ],
      "name": "Registered",
      "type": "event"
    },
    {
      "inputs": [],
      "name": "NATIVE",
      "outputs": [
        {
          "internalType": "address",
          "name": "",
          "type": "address"
        }
      ],
      "stateMutability": "view",
      "type": "function"
    },
    {
      "inputs": [
        {
          "internalType": "bytes",
          "name": "_data",
          "type": "bytes"
        },
        {
          "internalType": "address",
          "name": "_sender",
          "type": "address"
        }
      ],
      "name": "allocate",
      "outputs": [],
      "stateMutability": "payable",
      "type": "function"
    },
    {
      "inputs": [],
      "name": "allocatedGrantAmount",
      "outputs": [
        {
          "internalType": "uint256",
          "name": "",
          "type": "uint256"
        }
      ],
      "stateMutability": "view",
      "type": "function"
    },
    {
      "inputs": [],
      "name": "broker",
      "outputs": [
        {
          "internalType": "address",
          "name": "account",
          "type": "address"
        },
        {
          "internalType": "UD60x18",
          "name": "fee",
          "type": "uint256"
        }
      ],
      "stateMutability": "view",
      "type": "function"
    },
    {
      "inputs": [
        {
          "internalType": "address",
          "name": "_recipientId",
          "type": "address"
        },
        {
          "internalType": "uint256",
          "name": "_streamId",
          "type": "uint256"
        }
      ],
      "name": "cancelStream",
      "outputs": [],
      "stateMutability": "nonpayable",
      "type": "function"
    },
    {
      "inputs": [
        {
          "internalType": "address",
          "name": "_recipientId",
          "type": "address"
        },
        {
          "components": [
            {
              "internalType": "uint128",
              "name": "amount",
              "type": "uint128"
            },
            {
              "internalType": "UD2x18",
              "name": "exponent",
              "type": "uint64"
            },
            {
              "internalType": "uint40",
              "name": "delta",
              "type": "uint40"
            }
          ],
          "internalType": "struct LockupDynamic.SegmentWithDelta[]",
          "name": "_segments",
          "type": "tuple[]"
        }
      ],
      "name": "changeRecipientSegments",
      "outputs": [],
      "stateMutability": "nonpayable",
      "type": "function"
    },
    {
      "inputs": [
        {
          "internalType": "address[]",
          "name": "_recipientIds",
          "type": "address[]"
        },
        {
          "internalType": "bytes",
          "name": "_data",
          "type": "bytes"
        },
        {
          "internalType": "address",
          "name": "_sender",
          "type": "address"
        }
      ],
      "name": "distribute",
      "outputs": [],
      "stateMutability": "nonpayable",
      "type": "function"
    },
    {
      "inputs": [
        {
          "internalType": "address",
          "name": "_recipientId",
          "type": "address"
        }
      ],
      "name": "getAllRecipientStreamIds",
      "outputs": [
        {
          "internalType": "uint256[]",
          "name": "",
          "type": "uint256[]"
        }
      ],
      "stateMutability": "view",
      "type": "function"
    },
    {
      "inputs": [],
      "name": "getAllo",
      "outputs": [
        {
          "internalType": "contract IAllo",
          "name": "",
          "type": "address"
        }
      ],
      "stateMutability": "view",
      "type": "function"
    },
    {
      "inputs": [],
      "name": "getBroker",
      "outputs": [
        {
          "components": [
            {
              "internalType": "address",
              "name": "account",
              "type": "address"
            },
            {
              "internalType": "UD60x18",
              "name": "fee",
              "type": "uint256"
            }
          ],
          "internalType": "struct Broker",
          "name": "",
          "type": "tuple"
        }
      ],
      "stateMutability": "view",
      "type": "function"
    },
    {
      "inputs": [
        {
          "internalType": "address[]",
          "name": "_recipientIds",
          "type": "address[]"
        },
        {
          "internalType": "bytes[]",
          "name": "_data",
          "type": "bytes[]"
        }
      ],
      "name": "getPayouts",
      "outputs": [
        {
          "components": [
            {
              "internalType": "address",
              "name": "recipientAddress",
              "type": "address"
            },
            {
              "internalType": "uint256",
              "name": "amount",
              "type": "uint256"
            }
          ],
          "internalType": "struct IStrategy.PayoutSummary[]",
          "name": "",
          "type": "tuple[]"
        }
      ],
      "stateMutability": "view",
      "type": "function"
    },
    {
      "inputs": [
        {
          "internalType": "address[]",
          "name": "_recipientIds",
          "type": "address[]"
        },
        {
          "internalType": "bytes",
          "name": "",
          "type": "bytes"
        }
      ],
      "name": "getPayouts",
      "outputs": [
        {
          "components": [
            {
              "internalType": "address",
              "name": "recipientAddress",
              "type": "address"
            },
            {
              "internalType": "uint256",
              "name": "amount",
              "type": "uint256"
            }
          ],
          "internalType": "struct IStrategy.PayoutSummary[]",
          "name": "payouts",
          "type": "tuple[]"
        }
      ],
      "stateMutability": "view",
      "type": "function"
    },
    {
      "inputs": [],
      "name": "getPoolAmount",
      "outputs": [
        {
          "internalType": "uint256",
          "name": "",
          "type": "uint256"
        }
      ],
      "stateMutability": "view",
      "type": "function"
    },
    {
      "inputs": [],
      "name": "getPoolId",
      "outputs": [
        {
          "internalType": "uint256",
          "name": "",
          "type": "uint256"
        }
      ],
      "stateMutability": "view",
      "type": "function"
    },
    {
      "inputs": [
        {
          "internalType": "address",
          "name": "_recipientId",
          "type": "address"
        }
      ],
      "name": "getRecipient",
      "outputs": [
        {
          "components": [
            {
              "internalType": "bool",
              "name": "useRegistryAnchor",
              "type": "bool"
            },
            {
              "internalType": "bool",
              "name": "cancelable",
              "type": "bool"
            },
            {
              "internalType": "enum IStrategy.Status",
              "name": "recipientStatus",
              "type": "uint8"
            },
            {
              "internalType": "address",
              "name": "recipientAddress",
              "type": "address"
            },
            {
              "internalType": "uint256",
              "name": "grantAmount",
              "type": "uint256"
            },
            {
              "components": [
                {
                  "internalType": "uint256",
                  "name": "protocol",
                  "type": "uint256"
                },
                {
                  "internalType": "string",
                  "name": "pointer",
                  "type": "string"
                }
              ],
              "internalType": "struct Metadata",
              "name": "metadata",
              "type": "tuple"
            },
            {
              "components": [
                {
                  "internalType": "uint128",
                  "name": "amount",
                  "type": "uint128"
                },
                {
                  "internalType": "UD2x18",
                  "name": "exponent",
                  "type": "uint64"
                },
                {
                  "internalType": "uint40",
                  "name": "delta",
                  "type": "uint40"
                }
              ],
              "internalType": "struct LockupDynamic.SegmentWithDelta[]",
              "name": "segments",
              "type": "tuple[]"
            }
          ],
          "internalType": "struct LockupDynamicStrategy.Recipient",
          "name": "",
          "type": "tuple"
        }
      ],
      "stateMutability": "view",
      "type": "function"
    },
    {
      "inputs": [
        {
          "internalType": "address",
          "name": "_recipientId",
          "type": "address"
        }
      ],
      "name": "getRecipientStatus",
      "outputs": [
        {
          "internalType": "enum IStrategy.Status",
          "name": "",
          "type": "uint8"
        }
      ],
      "stateMutability": "view",
      "type": "function"
    },
    {
      "inputs": [
        {
          "internalType": "address",
          "name": "_recipientId",
          "type": "address"
        },
        {
          "internalType": "uint256",
          "name": "streamIdIndex",
          "type": "uint256"
        }
      ],
      "name": "getRecipientStreamId",
      "outputs": [
        {
          "internalType": "uint256",
          "name": "",
          "type": "uint256"
        }
      ],
      "stateMutability": "view",
      "type": "function"
    },
    {
      "inputs": [
        {
          "internalType": "address",
          "name": "_recipientId",
          "type": "address"
        }
      ],
      "name": "getStatus",
      "outputs": [
        {
          "internalType": "enum IStrategy.Status",
          "name": "",
          "type": "uint8"
        }
      ],
      "stateMutability": "view",
      "type": "function"
    },
    {
      "inputs": [],
      "name": "getStrategyId",
      "outputs": [
        {
          "internalType": "bytes32",
          "name": "",
          "type": "bytes32"
        }
      ],
      "stateMutability": "view",
      "type": "function"
    },
    {
      "inputs": [],
      "name": "grantAmountRequired",
      "outputs": [
        {
          "internalType": "bool",
          "name": "",
          "type": "bool"
        }
      ],
      "stateMutability": "view",
      "type": "function"
    },
    {
      "inputs": [
        {
          "internalType": "uint256",
          "name": "_amount",
          "type": "uint256"
        }
      ],
      "name": "increasePoolAmount",
      "outputs": [],
      "stateMutability": "nonpayable",
      "type": "function"
    },
    {
      "inputs": [
        {
          "internalType": "uint256",
          "name": "_poolId",
          "type": "uint256"
        },
        {
          "internalType": "bytes",
          "name": "_data",
          "type": "bytes"
        }
      ],
      "name": "initialize",
      "outputs": [],
      "stateMutability": "nonpayable",
      "type": "function"
    },
    {
      "inputs": [],
      "name": "isPoolActive",
      "outputs": [
        {
          "internalType": "bool",
          "name": "",
          "type": "bool"
        }
      ],
      "stateMutability": "view",
      "type": "function"
    },
    {
      "inputs": [
        {
          "internalType": "address",
          "name": "_allocator",
          "type": "address"
        }
      ],
      "name": "isValidAllocator",
      "outputs": [
        {
          "internalType": "bool",
          "name": "",
          "type": "bool"
        }
      ],
      "stateMutability": "view",
      "type": "function"
    },
    {
      "inputs": [],
      "name": "lockupDynamic",
      "outputs": [
        {
          "internalType": "contract ISablierV2LockupDynamic",
          "name": "",
          "type": "address"
        }
      ],
      "stateMutability": "view",
      "type": "function"
    },
    {
      "inputs": [],
      "name": "metadataRequired",
      "outputs": [
        {
          "internalType": "bool",
          "name": "",
          "type": "bool"
        }
      ],
      "stateMutability": "view",
      "type": "function"
    },
    {
      "inputs": [
        {
          "internalType": "bytes",
          "name": "_data",
          "type": "bytes"
        },
        {
          "internalType": "address",
          "name": "_sender",
          "type": "address"
        }
      ],
      "name": "registerRecipient",
      "outputs": [
        {
          "internalType": "address",
          "name": "recipientId",
          "type": "address"
        }
      ],
      "stateMutability": "payable",
      "type": "function"
    },
    {
      "inputs": [],
      "name": "registryGating",
      "outputs": [
        {
          "internalType": "bool",
          "name": "",
          "type": "bool"
        }
      ],
      "stateMutability": "view",
      "type": "function"
    },
    {
      "inputs": [
        {
          "components": [
            {
              "internalType": "address",
              "name": "account",
              "type": "address"
            },
            {
              "internalType": "UD60x18",
              "name": "fee",
              "type": "uint256"
            }
          ],
          "internalType": "struct Broker",
          "name": "_broker",
          "type": "tuple"
        }
      ],
      "name": "setBroker",
      "outputs": [],
      "stateMutability": "nonpayable",
      "type": "function"
    },
    {
      "inputs": [
        {
          "internalType": "address[]",
          "name": "_recipientIds",
          "type": "address[]"
        }
      ],
      "name": "setRecipientStatusToInReview",
      "outputs": [],
      "stateMutability": "nonpayable",
      "type": "function"
    },
    {
      "inputs": [
        {
          "internalType": "uint256",
          "name": "_amount",
          "type": "uint256"
        }
      ],
      "name": "withdraw",
      "outputs": [],
      "stateMutability": "nonpayable",
      "type": "function"
    }
  ],
  "bytecode": {
    "object": "0x60c06040523480156200001157600080fd5b5060405162003e3c38038062003e3c833981016040819052620000349162000101565b6001600160a01b0382166080526040518290829062000058908290602001620001e6565b60408051601f19818403018152919052805160209091012060a052505060016003555050600480546001600160a01b039092166301000000026301000000600160b81b03199092169190911790556200021b565b6001600160a01b0381168114620000c257600080fd5b50565b634e487b7160e01b600052604160045260246000fd5b60005b83811015620000f8578181015183820152602001620000de565b50506000910152565b6000806000606084860312156200011757600080fd5b83516200012481620000ac565b60208501519093506200013781620000ac565b60408501519092506001600160401b03808211156200015557600080fd5b818601915086601f8301126200016a57600080fd5b8151818111156200017f576200017f620000c5565b604051601f8201601f19908116603f01168101908382118183101715620001aa57620001aa620000c5565b81604052828152896020848701011115620001c457600080fd5b620001d7836020830160208801620000db565b80955050505050509250925092565b602081526000825180602084015262000207816040850160208701620000db565b601f01601f19169190910160400192915050565b60805160a051613bca62000272600039600061031901526000818161022e0152818161086701528181610f8f0152818161107f0152818161174301528181611b6101528181611f98015261223f0152613bca6000f3fe6080604052600436106101d85760003560e01c8063a0cf0aea11610102578063df868ed311610095578063edd146cc11610064578063edd146cc146105ed578063ee8ea63b1461060d578063ef2920fc1461062d578063f5b0dfb71461064057600080fd5b8063df868ed314610572578063e8eeb8061461058a578063eb11af93146105a0578063ed66cd49146105c057600080fd5b8063b45a3263116100d1578063b45a3263146104c1578063c776063b146104e1578063cb0e85a614610508578063d1314ee01461052757600080fd5b8063a0cf0aea1461040f578063a647d23e14610437578063abff011014610451578063b2b878d01461049457600080fd5b806339b25a9a1161017a578063618ca15411610149578063618ca1541461038257806362812a39146103a25780637dc14a8e146103cf5780639be2ccf5146103ef57600080fd5b806339b25a9a146102ea57806342fda9c71461030a5780634ab4ba421461033d5780634d31d0871461035257600080fd5b80632bbe0cae116101b65780632bbe0cae1461026b5780632e1a7d4d1461027e57806330ccebb51461029e57806338fff2d0146102cb57600080fd5b80630a6f0ee9146101dd57806315328902146101ff57806315cc481e1461021f575b600080fd5b3480156101e957600080fd5b506101fd6101f8366004612c28565b610660565b005b34801561020b57600080fd5b506101fd61021a366004612ca0565b610680565b34801561022b57600080fd5b507f00000000000000000000000000000000000000000000000000000000000000005b6040516001600160a01b0390911681526020015b60405180910390f35b61024e610279366004612d28565b610803565b34801561028a57600080fd5b506101fd610299366004612d7a565b610828565b3480156102aa57600080fd5b506102be6102b9366004612d93565b6108f2565b6040516102629190612de8565b3480156102d757600080fd5b506001545b604051908152602001610262565b3480156102f657600080fd5b506101fd610305366004612df6565b610907565b34801561031657600080fd5b507f00000000000000000000000000000000000000000000000000000000000000006102dc565b34801561034957600080fd5b506002546102dc565b34801561035e57600080fd5b5061037261036d366004612d93565b6109b0565b6040519015158152602001610262565b34801561038e57600080fd5b506102dc61039d366004612e6b565b6109bb565b3480156103ae57600080fd5b506103c26103bd366004612d93565b6109f8565b6040516102629190612f71565b3480156103db57600080fd5b506101fd6103ea366004612e6b565b610a09565b3480156103fb57600080fd5b506004546103729062010000900460ff1681565b34801561041b57600080fd5b5061024e73eeeeeeeeeeeeeeeeeeeeeeeeeeeeeeeeeeeeeeee81565b34801561044357600080fd5b506004546103729060ff1681565b34801561045d57600080fd5b50600654600754610475916001600160a01b03169082565b604080516001600160a01b039093168352602083019190915201610262565b3480156104a057600080fd5b506104b46104af366004612ff3565b610c33565b60405161026291906130c8565b3480156104cd57600080fd5b506101fd6104dc366004613120565b610d4b565b3480156104ed57600080fd5b5060045461024e90630100000090046001600160a01b031681565b34801561051457600080fd5b5060045461037290610100900460ff1681565b34801561053357600080fd5b50604080518082018252600080825260209182015281518083019092526006546001600160a01b0316825260075490820152604051610262919061315a565b34801561057e57600080fd5b5060005460ff16610372565b34801561059657600080fd5b506102dc60055481565b3480156105ac57600080fd5b506102be6105bb366004612d93565b610dd2565b3480156105cc57600080fd5b506105e06105db366004612d93565b610ddd565b604051610262919061317a565b3480156105f957600080fd5b506101fd6106083660046131be565b610e49565b34801561061957600080fd5b506104b4610628366004613205565b610e6b565b6101fd61063b366004612d28565b610f40565b34801561064c57600080fd5b506101fd61065b366004612d7a565b610f5a565b610668610f84565b610670610fcf565b61067b83838361100b565b505050565b3361068a81611055565b60016001600160a01b03851660009081526008602052604090205462010000900460ff1660068111156106bf576106bf612db0565b14158015610700575060056001600160a01b03851660009081526008602052604090205462010000900460ff1660068111156106fd576106fd612db0565b14155b15610737576040517f90da7a1600000000000000000000000000000000000000000000000000000000815260040160405180910390fd5b6001600160a01b03841660009081526008602052604081209061075e906004830190612992565b8260005b818110156107bf57826004018686838181106107805761078061325f565b835460018101855560009485526020909420606090910292909201929190910190506107ac82826132b3565b5050806107b8906133c3565b9050610762565b507f614032afb7434208008c32d87256a512fd4ad8e13198c4ef639d8d1c1538a43f8686866040516107f3939291906133dc565b60405180910390a1505050505050565b600061080d610f84565b610815610fcf565b61081f8383611107565b90505b92915050565b3361083281611055565b81600260008282546108449190613475565b909155505060015460405163068bcd8d60e01b81526108ee916001600160a01b037f0000000000000000000000000000000000000000000000000000000000000000169163068bcd8d9161089e9160040190815260200190565b600060405180830381865afa1580156108bb573d6000803e3d6000fd5b505050506040513d6000823e601f3d908101601f191682016040526108e3919081019061352f565b6040015133846114e6565b5050565b60006108fd8261152b565b6040015192915050565b8060005b818110156109aa5760008484838181106109275761092761325f565b905060200201602081019061093c9190612d93565b6001600160a01b03811660009081526008602052604090819020805462ff0000191662050000179055519091507f94593b52aa436dd31a63e313045c2eb23d43eb2d6f5b4d7797b4432e7b277490906109999083906005906135e3565b60405180910390a15060010161090b565b50505050565b600061082282611726565b6001600160a01b03821660009081526009602052604081208054839081106109e5576109e561325f565b9060005260206000200154905092915050565b610a006129b0565b6108228261152b565b33610a1381611055565b60026001600160a01b03841660009081526008602052604090205462010000900460ff166006811115610a4857610a48612db0565b14610a7f576040517f8c70c20a00000000000000000000000000000000000000000000000000000000815260040160405180910390fd5b6001600160a01b0383811660009081526008602052604080822080546206000062ff0000199091161790556004805491517f1400ecec000000000000000000000000000000000000000000000000000000008152908101869052919263010000009091041690631400ecec90602401602060405180830381865afa158015610b0b573d6000803e3d6000fd5b505050506040513d601f19601f82011682018060405250810190610b2f9190613600565b6001600160a01b038516600090815260086020526040812060010180549293506001600160801b03841692909190610b68908490613475565b92505081905550806001600160801b031660056000828254610b8a9190613475565b92505081905550806001600160801b031660026000828254610bac919061361d565b9091555050600480546040517f40e58ee5000000000000000000000000000000000000000000000000000000008152918201859052630100000090046001600160a01b0316906340e58ee590602401600060405180830381600087803b158015610c1557600080fd5b505af1158015610c29573d6000803e3d6000fd5b5050505050505050565b81518151606091908114610c73576040517f7b49805600000000000000000000000000000000000000000000000000000000815260040160405180910390fd5b60008167ffffffffffffffff811115610c8e57610c8e612a4c565b604051908082528060200260200182016040528015610cd357816020015b6040805180820190915260008082526020820152815260200190600190039081610cac5790505b50905060005b82811015610d4257610d1d868281518110610cf657610cf661325f565b6020026020010151868381518110610d1057610d1061325f565b60200260200101516117cb565b828281518110610d2f57610d2f61325f565b6020908102919091010152600101610cd9565b50949350505050565b33610d5581611055565b8151600680547fffffffffffffffffffffffff0000000000000000000000000000000000000000166001600160a01b039092169182179055602080840151600781905560408051938452918301527f245139c36f7eb3923d0d086cf7457d41d7474fa407b6f2f0237484f51afd4114910160405180910390a15050565b6000610822826119f6565b6001600160a01b038116600090815260096020908152604091829020805483518184028101840190945280845260609392830182828015610e3d57602002820191906000526020600020905b815481526020019060010190808311610e29575b50505050509050919050565b600081806020019051810190610e5f9190613640565b905061067b8382611a5d565b81516060908067ffffffffffffffff811115610e8957610e89612a4c565b604051908082528060200260200182016040528015610ece57816020015b6040805180820190915260008082526020820152815260200190600190039081610ea75790505b5091506000805b82811015610f3757858181518110610eef57610eef61325f565b60200260200101519150610f1282604051806020016040528060008152506117cb565b848281518110610f2457610f2461325f565b6020908102919091010152600101610ed5565b50505092915050565b610f48610f84565b610f50610fcf565b6108ee8282611ab7565b610f62610f84565b8060026000828254610f74919061361d565b90915550610f8190508181565b50565b336001600160a01b037f00000000000000000000000000000000000000000000000000000000000000001614610fcd5760405163075fd2b160e01b815260040160405180910390fd5b565b600154600003610fcd576040517f3da3f98c00000000000000000000000000000000000000000000000000000000815260040160405180910390fd5b8061101581611055565b835160005b8181101561104d576110458682815181106110375761103761325f565b602002602001015185611d8e565b60010161101a565b505050505050565b6001546040516329e40d4b60e01b815260048101919091526001600160a01b0382811660248301527f000000000000000000000000000000000000000000000000000000000000000016906329e40d4b90604401602060405180830381865afa1580156110c6573d6000803e3d6000fd5b505050506040513d601f19601f820116820180604052508101906110ea919061368e565b610f815760405163075fd2b160e01b815260040160405180910390fd5b60006111116121fe565b600080611131604051806040016040528060008152602001606081525090565b600454600090606090829060ff161561119357888060200190518101906111589190613758565b949b50919950975091955093509150611171878961223a565b61118e5760405163075fd2b160e01b815260040160405180910390fd5b6111ed565b888060200190518101906111a791906137fb565b8d9c50929a5090985090965091945090925090508080156111cf57506111cd878961223a565b155b156111ed5760405163075fd2b160e01b815260040160405180910390fd5b60045462010000900460ff168015611203575084155b1561123a576040517f03b167dd00000000000000000000000000000000000000000000000000000000815260040160405180910390fd5b60026001600160a01b03881660009081526008602052604090205462010000900460ff16600681111561126f5761126f612db0565b036112a6576040517f41d40fb800000000000000000000000000000000000000000000000000000000815260040160405180910390fd5b600454610100900460ff1680156112c9575060208401515115806112c957508351155b15611300576040517fc19e07c500000000000000000000000000000000000000000000000000000000815260040160405180910390fd5b6001600160a01b0387166000908152600860205260408120835190915b818110156113f6578260040185828151811061133b5761133b61325f565b60209081029190910181015182546001810184556000938452928290208151930180549282015160409092015164ffffffffff16600160c01b027fffffff0000000000ffffffffffffffffffffffffffffffffffffffffffffffff67ffffffffffffffff909316600160801b027fffffffffffffffff0000000000000000000000000000000000000000000000009094166001600160801b039095169490941792909217169190911790556113ef816133c3565b905061131d565b50815461ff00191661010089151502178255600182018790558551600283019081556020870151879190600385019061142f90826138a7565b505082547fffffffffffffffffff000000000000000000000000000000000000000000ffff1663010000006001600160a01b0388160262ff0000191617620100001783555060045460ff166114845782611487565b60015b825460ff19169015151782556040516001600160a01b038a16907fa197306e3dd5494a61a695381aa809a53b8e377a685e84e404a85d5a8da6cc62906114d0908e908e90613967565b60405180910390a2505050505050505092915050565b7fffffffffffffffffffffffff11111111111111111111111111111111111111126001600160a01b038416016115205761067b82826123f2565b61067b83838361240e565b6115336129b0565b6001600160a01b038216600090815260086020908152604091829020825160e081018452815460ff808216151583526101008204811615159483019490945290939192918401916201000090910416600681111561159357611593612db0565b60068111156115a4576115a4612db0565b81526020016000820160039054906101000a90046001600160a01b03166001600160a01b03166001600160a01b0316815260200160018201548152602001600282016040518060400160405290816000820154815260200160018201805461160b9061382d565b80601f01602080910402602001604051908101604052809291908181526020018280546116379061382d565b80156116845780601f1061165957610100808354040283529160200191611684565b820191906000526020600020905b81548152906001019060200180831161166757829003601f168201915b505050505081525050815260200160048201805480602002602001604051908101604052809291908181526020016000905b8282101561171857600084815260209081902060408051606081018252918501546001600160801b0381168352600160801b810467ffffffffffffffff1683850152600160c01b900464ffffffffff16908201528252600190920191016116b6565b505050915250909392505050565b6001546040516329e40d4b60e01b81526000916001600160a01b037f000000000000000000000000000000000000000000000000000000000000000016916329e40d4b9161178a9186906004019182526001600160a01b0316602082015260400190565b602060405180830381865afa1580156117a7573d6000803e3d6000fd5b505050506040513d601f19601f82011682018060405250810190610822919061368e565b60408051808201909152600080825260208201526001600160a01b0383166000908152600860209081526040808320815160e081018352815460ff8082161515835261010082048116151595830195909552909391928401916201000090910416600681111561183d5761183d612db0565b600681111561184e5761184e612db0565b81526020016000820160039054906101000a90046001600160a01b03166001600160a01b03166001600160a01b031681526020016001820154815260200160028201604051806040016040529081600082015481526020016001820180546118b59061382d565b80601f01602080910402602001604051908101604052809291908181526020018280546118e19061382d565b801561192e5780601f106119035761010080835404028352916020019161192e565b820191906000526020600020905b81548152906001019060200180831161191157829003601f168201915b505050505081525050815260200160048201805480602002602001604051908101604052809291908181526020016000905b828210156119c257600084815260209081902060408051606081018252918501546001600160801b0381168352600160801b810467ffffffffffffffff1683850152600160c01b900464ffffffffff1690820152825260019092019101611960565b505050915250506040805180820190915260608201516001600160a01b031681526080909101516020820152949350505050565b600080611a028361152b565b6040015190506005816006811115611a1c57611a1c612db0565b03611a2a5750600192915050565b806006811115611a3c57611a3c612db0565b60ff166006811115611a5057611a50612db0565b9392505050565b50919050565b611a668261245d565b805160048054602084015160408501511515620100000262ff0000199115156101000261ff00199515159590951661ffff199093169290921793909317929092169190911790556108ee60016124de565b611abf612525565b80611ac981611055565b600080600085806020019051810190611ae29190613992565b6001600160a01b038316600090815260086020526040902092955090935091506002815462010000900460ff166006811115611b2057611b20612db0565b14158015611b3f57506002836006811115611b3d57611b3d612db0565b145b15611cf25760015460405163068bcd8d60e01b81526000916001600160a01b037f0000000000000000000000000000000000000000000000000000000000000000169163068bcd8d91611b989160040190815260200190565b600060405180830381865afa158015611bb5573d6000803e3d6000fd5b505050506040513d6000823e601f3d908101601f19168201604052611bdd919081019061352f565b90508260056000828254611bf1919061361d565b90915550506002546005541115611c34576040517f8e81b16f00000000000000000000000000000000000000000000000000000000815260040160405180910390fd5b60018201839055815462ff00001916620200001782556040517f94593b52aa436dd31a63e313045c2eb23d43eb2d6f5b4d7797b4432e7b27749090611c7d9087906002906135e3565b60405180910390a1846001600160a01b03167f463ffc2cf8b1596445c417388ed30e53eb67cf6668cb2be7f0addf8a78c8441b836001015483604001518a604051611ce4939291909283526001600160a01b03918216602084015216604082015260600190565b60405180910390a250611d7f565b6003815462010000900460ff166006811115611d1057611d10612db0565b14158015611d2f57506003836006811115611d2d57611d2d612db0565b145b15611d7f57805462ff00001916620300001781556040517f94593b52aa436dd31a63e313045c2eb23d43eb2d6f5b4d7797b4432e7b27749090611d769086906003906135e3565b60405180910390a15b50505050506108ee6001600355565b6001600160a01b0382166000908152600860209081526040808320815160e081018352815460ff80821615158352610100820481161515958301959095529093919284019162010000909104166006811115611dec57611dec612db0565b6006811115611dfd57611dfd612db0565b81526020016000820160039054906101000a90046001600160a01b03166001600160a01b03166001600160a01b03168152602001600182015481526020016002820160405180604001604052908160008201548152602001600182018054611e649061382d565b80601f0160208091040260200160405190810160405280929190818152602001828054611e909061382d565b8015611edd5780601f10611eb257610100808354040283529160200191611edd565b820191906000526020600020905b815481529060010190602001808311611ec057829003601f168201915b505050505081525050815260200160048201805480602002602001604051908101604052809291908181526020016000905b82821015611f7157600084815260209081902060408051606081018252918501546001600160801b0381168352600160801b810467ffffffffffffffff1683850152600160c01b900464ffffffffff1690820152825260019092019101611f0f565b5050509152505060015460405163068bcd8d60e01b815260048101919091529091506000907f00000000000000000000000000000000000000000000000000000000000000006001600160a01b03169063068bcd8d90602401600060405180830381865afa158015611fe7573d6000803e3d6000fd5b505050506040513d6000823e601f3d908101601f1916820160405261200f919081019061352f565b6080808401516040805160e0810182523081526020808801511515818301526060808901516001600160a01b03908116848601526001600160801b03861691840182905284880151811696840196909652835180850190945260065490951683526007549083015260a081019190915260c08087015190820152600280549495509193909291906000906120a4908490613475565b909155505060045460408401516120d9916001600160a01b03918216916301000000909104166001600160801b038516612583565b600480546040517fbf061d0a00000000000000000000000000000000000000000000000000000000815260009263010000009092046001600160a01b03169163bf061d0a9161212a918691016139d9565b6020604051808303816000875af1158015612149573d6000803e3d6000fd5b505050506040513d601f19601f8201168201806040525081019061216d9190613a68565b6001600160a01b03888116600081815260096020908152604080832080546001810182559084529282902090920185905560608a810151835190861681526001600160801b038a1692810192909252938b1691810191909152929350917fb5b51454adfa840bd593658325a60a50b0216f12eb5d2937efe6cea935675b7d910160405180910390a250505050505050565b60005460ff16610fcd576040517fcfe7975b00000000000000000000000000000000000000000000000000000000815260040160405180910390fd5b6000807f00000000000000000000000000000000000000000000000000000000000000006001600160a01b0316635ab1bd536040518163ffffffff1660e01b8152600401602060405180830381865afa15801561229b573d6000803e3d6000fd5b505050506040513d601f19601f820116820180604052508101906122bf9190613a81565b6040517fdd93da430000000000000000000000000000000000000000000000000000000081526001600160a01b03868116600483015291925060009183169063dd93da4390602401600060405180830381865afa158015612324573d6000803e3d6000fd5b505050506040513d6000823e601f3d908101601f1916820160405261234c9190810190613a9e565b80516040517f5e8a79150000000000000000000000000000000000000000000000000000000081529192506001600160a01b03841691635e8a7915916123a89188906004019182526001600160a01b0316602082015260400190565b602060405180830381865afa1580156123c5573d6000803e3d6000fd5b505050506040513d601f19601f820116820180604052508101906123e9919061368e565b95945050505050565b60008060008084865af16108ee5763b12d13eb6000526004601cfd5b81601452806034526fa9059cbb00000000000000000000000060005260206000604460106000875af13d156001600051141716612453576390b8ec186000526004601cfd5b6000603452505050565b612465610f84565b6001541561249f576040517f439a74c900000000000000000000000000000000000000000000000000000000815260040160405180910390fd5b806000036124d9576040517f7fcce2a900000000000000000000000000000000000000000000000000000000815260040160405180910390fd5b600155565b6000805460ff19168215159081179091556040519081527fd94c9bc4d43c51d8dc345a016d8e3d994432fac68e72832e4cf3a616bd8efae09060200160405180910390a150565b60026003540361257c5760405162461bcd60e51b815260206004820152601f60248201527f5265656e7472616e637947756172643a207265656e7472616e742063616c6c0060448201526064015b60405180910390fd5b6002600355565b604080516001600160a01b038416602482015260448082018490528251808303909101815260649091019091526020810180517bffffffffffffffffffffffffffffffffffffffffffffffffffffffff1663095ea7b360e01b1790526125e98482612661565b6109aa57604080516001600160a01b038516602482015260006044808301919091528251808303909101815260649091019091526020810180517bffffffffffffffffffffffffffffffffffffffffffffffffffffffff1663095ea7b360e01b179052612657908590612703565b6109aa8482612703565b6000806000846001600160a01b03168460405161267e9190613b65565b6000604051808303816000865af19150503d80600081146126bb576040519150601f19603f3d011682016040523d82523d6000602084013e6126c0565b606091505b50915091508180156126ea5750805115806126ea5750808060200190518101906126ea919061368e565b80156123e957506001600160a01b0385163b15156123e9565b6000612758826040518060400160405280602081526020017f5361666545524332303a206c6f772d6c6576656c2063616c6c206661696c6564815250856001600160a01b03166127eb9092919063ffffffff16565b9050805160001480612779575080806020019051810190612779919061368e565b61067b5760405162461bcd60e51b815260206004820152602a60248201527f5361666545524332303a204552433230206f7065726174696f6e20646964206e60448201527f6f742073756363656564000000000000000000000000000000000000000000006064820152608401612573565b60606127fa8484600085612802565b949350505050565b60608247101561287a5760405162461bcd60e51b815260206004820152602660248201527f416464726573733a20696e73756666696369656e742062616c616e636520666f60448201527f722063616c6c00000000000000000000000000000000000000000000000000006064820152608401612573565b600080866001600160a01b031685876040516128969190613b65565b60006040518083038185875af1925050503d80600081146128d3576040519150601f19603f3d011682016040523d82523d6000602084013e6128d8565b606091505b50915091506128e9878383876128f4565b979650505050505050565b6060831561296357825160000361295c576001600160a01b0385163b61295c5760405162461bcd60e51b815260206004820152601d60248201527f416464726573733a2063616c6c20746f206e6f6e2d636f6e74726163740000006044820152606401612573565b50816127fa565b6127fa83838151156129785781518083602001fd5b8060405162461bcd60e51b81526004016125739190613b81565b5080546000825590600052602060002090810190610f819190612a11565b6040805160e0810182526000808252602082018190529091820190815260200160006001600160a01b0316815260200160008152602001612a04604051806040016040528060008152602001606081525090565b8152602001606081525090565b5b80821115612a485780547fffffff0000000000000000000000000000000000000000000000000000000000168155600101612a12565b5090565b634e487b7160e01b600052604160045260246000fd5b6040805190810167ffffffffffffffff81118282101715612a8557612a85612a4c565b60405290565b60405160c0810167ffffffffffffffff81118282101715612a8557612a85612a4c565b6040516060810167ffffffffffffffff81118282101715612a8557612a85612a4c565b604051601f8201601f1916810167ffffffffffffffff81118282101715612afa57612afa612a4c565b604052919050565b600067ffffffffffffffff821115612b1c57612b1c612a4c565b5060051b60200190565b6001600160a01b0381168114610f8157600080fd5b600082601f830112612b4c57600080fd5b81356020612b61612b5c83612b02565b612ad1565b82815260059290921b84018101918181019086841115612b8057600080fd5b8286015b84811015612ba4578035612b9781612b26565b8352918301918301612b84565b509695505050505050565b600067ffffffffffffffff821115612bc957612bc9612a4c565b50601f01601f191660200190565b600082601f830112612be857600080fd5b8135612bf6612b5c82612baf565b818152846020838601011115612c0b57600080fd5b816020850160208301376000918101602001919091529392505050565b600080600060608486031215612c3d57600080fd5b833567ffffffffffffffff80821115612c5557600080fd5b612c6187838801612b3b565b94506020860135915080821115612c7757600080fd5b50612c8486828701612bd7565b9250506040840135612c9581612b26565b809150509250925092565b600080600060408486031215612cb557600080fd5b8335612cc081612b26565b9250602084013567ffffffffffffffff80821115612cdd57600080fd5b818601915086601f830112612cf157600080fd5b813581811115612d0057600080fd5b876020606083028501011115612d1557600080fd5b6020830194508093505050509250925092565b60008060408385031215612d3b57600080fd5b823567ffffffffffffffff811115612d5257600080fd5b612d5e85828601612bd7565b9250506020830135612d6f81612b26565b809150509250929050565b600060208284031215612d8c57600080fd5b5035919050565b600060208284031215612da557600080fd5b8135611a5081612b26565b634e487b7160e01b600052602160045260246000fd5b60078110612de457634e487b7160e01b600052602160045260246000fd5b9052565b602081016108228284612dc6565b60008060208385031215612e0957600080fd5b823567ffffffffffffffff80821115612e2157600080fd5b818501915085601f830112612e3557600080fd5b813581811115612e4457600080fd5b8660208260051b8501011115612e5957600080fd5b60209290920196919550909350505050565b60008060408385031215612e7e57600080fd5b8235612e8981612b26565b946020939093013593505050565b60005b83811015612eb2578181015183820152602001612e9a565b50506000910152565b60008151808452612ed3816020860160208601612e97565b601f01601f19169290920160200192915050565b8051825260006020820151604060208501526127fa6040850182612ebb565b600081518084526020808501945080840160005b83811015612f6657815180516001600160801b031688528381015167ffffffffffffffff168489015260409081015164ffffffffff169088015260609096019590820190600101612f1a565b509495945050505050565b6020815281511515602082015260208201511515604082015260006040830151612f9e6060840182612dc6565b506001600160a01b036060840151166080830152608083015160a083015260a083015160e060c0840152612fd6610100840182612ee7565b905060c0840151601f198483030160e08501526123e98282612f06565b6000806040838503121561300657600080fd5b823567ffffffffffffffff8082111561301e57600080fd5b61302a86838701612b3b565b935060209150818501358181111561304157600080fd5b8501601f8101871361305257600080fd5b8035613060612b5c82612b02565b81815260059190911b8201840190848101908983111561307f57600080fd5b8584015b838110156130b75780358681111561309b5760008081fd5b6130a98c8983890101612bd7565b845250918601918601613083565b508096505050505050509250929050565b602080825282518282018190526000919060409081850190868401855b8281101561311357815180516001600160a01b031685528601518685015292840192908501906001016130e5565b5091979650505050505050565b60006040828403121561313257600080fd5b61313a612a62565b823561314581612b26565b81526020928301359281019290925250919050565b81516001600160a01b031681526020808301519082015260408101610822565b6020808252825182820181905260009190848201906040850190845b818110156131b257835183529284019291840191600101613196565b50909695505050505050565b600080604083850312156131d157600080fd5b82359150602083013567ffffffffffffffff8111156131ef57600080fd5b6131fb85828601612bd7565b9150509250929050565b6000806040838503121561321857600080fd5b823567ffffffffffffffff8082111561323057600080fd5b61323c86838701612b3b565b9350602085013591508082111561325257600080fd5b506131fb85828601612bd7565b634e487b7160e01b600052603260045260246000fd5b6001600160801b0381168114610f8157600080fd5b67ffffffffffffffff81168114610f8157600080fd5b64ffffffffff81168114610f8157600080fd5b81356132be81613275565b6001600160801b03811690508154817fffffffffffffffffffffffffffffffff00000000000000000000000000000000821617835560208401356133018161328a565b77ffffffffffffffff000000000000000000000000000000008160801b16905080837fffffffffffffffff0000000000000000000000000000000000000000000000008416171784556040850135613358816132a0565b7cffffffffff0000000000000000000000000000000000000000000000008160c01b16847fffffff00000000000000000000000000000000000000000000000000000000008516178317178555505050505050565b634e487b7160e01b600052601160045260246000fd5b6000600182016133d5576133d56133ad565b5060010190565b6001600160a01b0384168152604060208083018290528282018490526000919060609081850187855b8881101561346657813561341881613275565b6001600160801b03168352818401356134308161328a565b67ffffffffffffffff16838501528186013561344b816132a0565b64ffffffffff16838701529184019190840190600101613405565b50909998505050505050505050565b81810381811115610822576108226133ad565b805161349381612b26565b919050565b600082601f8301126134a957600080fd5b81516134b7612b5c82612baf565b8181528460208386010111156134cc57600080fd5b6127fa826020830160208701612e97565b6000604082840312156134ef57600080fd5b6134f7612a62565b905081518152602082015167ffffffffffffffff81111561351757600080fd5b61352384828501613498565b60208301525092915050565b60006020828403121561354157600080fd5b815167ffffffffffffffff8082111561355957600080fd5b9083019060c0828603121561356d57600080fd5b613575612a8b565b82518152602083015161358781612b26565b6020820152604083015161359a81612b26565b60408201526060830151828111156135b157600080fd5b6135bd878286016134dd565b6060830152506080830151608082015260a083015160a082015280935050505092915050565b6001600160a01b038316815260408101611a506020830184612dc6565b60006020828403121561361257600080fd5b8151611a5081613275565b80820180821115610822576108226133ad565b8051801515811461349357600080fd5b60006060828403121561365257600080fd5b61365a612aae565b61366383613630565b815261367160208401613630565b602082015261368260408401613630565b60408201529392505050565b6000602082840312156136a057600080fd5b611a5082613630565b600082601f8301126136ba57600080fd5b815160206136ca612b5c83612b02565b828152606092830285018201928282019190878511156136e957600080fd5b8387015b8581101561374b5781818a0312156137055760008081fd5b61370d612aae565b815161371881613275565b8152818601516137278161328a565b8187015260408281015161373a816132a0565b9082015284529284019281016136ed565b5090979650505050505050565b60008060008060008060c0878903121561377157600080fd5b865161377c81612b26565b602088015190965061378d81612b26565b945061379b60408801613630565b935060608701519250608087015167ffffffffffffffff808211156137bf57600080fd5b6137cb8a838b016136a9565b935060a08901519150808211156137e157600080fd5b506137ee89828a016134dd565b9150509295509295509295565b60008060008060008060c0878903121561381457600080fd5b865161381f81612b26565b955061378d60208801613630565b600181811c9082168061384157607f821691505b602082108103611a5757634e487b7160e01b600052602260045260246000fd5b601f82111561067b57600081815260208120601f850160051c810160208610156138885750805b601f850160051c820191505b8181101561104d57828155600101613894565b815167ffffffffffffffff8111156138c1576138c1612a4c565b6138d5816138cf845461382d565b84613861565b602080601f83116001811461390a57600084156138f25750858301515b600019600386901b1c1916600185901b17855561104d565b600085815260208120601f198616915b828110156139395788860151825594840194600190910190840161391a565b50858210156139575787850151600019600388901b60f8161c191681555b5050505050600190811b01905550565b60408152600061397a6040830185612ebb565b90506001600160a01b03831660208301529392505050565b6000806000606084860312156139a757600080fd5b83516139b281612b26565b6020850151909350600781106139c757600080fd5b80925050604084015190509250925092565b6020815260006001600160a01b038084511660208401526020840151151560408401528060408501511660608401526001600160801b0360608501511660808401528060808501511660a08401525060a0830151613a4d60c084018280516001600160a01b03168252602090810151910152565b5060c0830151610100838101526127fa610120840182612f06565b600060208284031215613a7a57600080fd5b5051919050565b600060208284031215613a9357600080fd5b8151611a5081612b26565b600060208284031215613ab057600080fd5b815167ffffffffffffffff80821115613ac857600080fd5b9083019060c08286031215613adc57600080fd5b613ae4612a8b565b8251815260208301516020820152604083015182811115613b0457600080fd5b613b1087828601613498565b604083015250606083015182811115613b2857600080fd5b613b34878286016134dd565b606083015250613b4660808401613488565b6080820152613b5760a08401613488565b60a082015295945050505050565b60008251613b77818460208701612e97565b9190910192915050565b602081526000611a506020830184612ebb56fea2646970667358221220f9ed69c91cd38145b263ded5c3857fc3b27dac2869d1e783b2da9ddb47d4644764736f6c63430008130033",
    "linkReferences": {}
  },
  "methodIdentifiers": {
    "NATIVE()": "a0cf0aea",
    "allocate(bytes,address)": "ef2920fc",
    "allocatedGrantAmount()": "e8eeb806",
    "broker()": "abff0110",
    "cancelStream(address,uint256)": "7dc14a8e",
    "changeRecipientSegments(address,(uint128,uint64,uint40)[])": "15328902",
    "distribute(address[],bytes,address)": "0a6f0ee9",
    "getAllRecipientStreamIds(address)": "ed66cd49",
    "getAllo()": "15cc481e",
    "getBroker()": "d1314ee0",
    "getPayouts(address[],bytes)": "ee8ea63b",
    "getPayouts(address[],bytes[])": "b2b878d0",
    "getPoolAmount()": "4ab4ba42",
    "getPoolId()": "38fff2d0",
    "getRecipient(address)": "62812a39",
    "getRecipientStatus(address)": "eb11af93",
    "getRecipientStreamId(address,uint256)": "618ca154",
    "getStatus(address)": "30ccebb5",
    "getStrategyId()": "42fda9c7",
    "grantAmountRequired()": "9be2ccf5",
    "increasePoolAmount(uint256)": "f5b0dfb7",
    "initialize(uint256,bytes)": "edd146cc",
    "isPoolActive()": "df868ed3",
    "isValidAllocator(address)": "4d31d087",
    "lockupDynamic()": "c776063b",
    "metadataRequired()": "cb0e85a6",
    "registerRecipient(bytes,address)": "2bbe0cae",
    "registryGating()": "a647d23e",
    "setBroker((address,uint256))": "b45a3263",
    "setRecipientStatusToInReview(address[])": "39b25a9a",
    "withdraw(uint256)": "2e1a7d4d"
  },
  "storageLayout": {
    "storage": [
      {
        "astId": 3267,
        "contract": "contracts/strategies/_poc/sablier-v2/LockupDynamicStrategy.sol:LockupDynamicStrategy",
        "label": "poolActive",
        "offset": 0,
        "slot": "0",
        "type": "t_bool"
      },
      {
        "astId": 3269,
        "contract": "contracts/strategies/_poc/sablier-v2/LockupDynamicStrategy.sol:LockupDynamicStrategy",
        "label": "poolId",
        "offset": 0,
        "slot": "1",
        "type": "t_uint256"
      },
      {
        "astId": 3271,
        "contract": "contracts/strategies/_poc/sablier-v2/LockupDynamicStrategy.sol:LockupDynamicStrategy",
        "label": "poolAmount",
        "offset": 0,
        "slot": "2",
        "type": "t_uint256"
      },
      {
        "astId": 62206,
        "contract": "contracts/strategies/_poc/sablier-v2/LockupDynamicStrategy.sol:LockupDynamicStrategy",
        "label": "_status",
        "offset": 0,
        "slot": "3",
        "type": "t_uint256"
      },
      {
        "astId": 9496,
        "contract": "contracts/strategies/_poc/sablier-v2/LockupDynamicStrategy.sol:LockupDynamicStrategy",
        "label": "registryGating",
        "offset": 0,
        "slot": "4",
        "type": "t_bool"
      },
      {
        "astId": 9498,
        "contract": "contracts/strategies/_poc/sablier-v2/LockupDynamicStrategy.sol:LockupDynamicStrategy",
        "label": "metadataRequired",
        "offset": 1,
        "slot": "4",
        "type": "t_bool"
      },
      {
        "astId": 9500,
        "contract": "contracts/strategies/_poc/sablier-v2/LockupDynamicStrategy.sol:LockupDynamicStrategy",
        "label": "grantAmountRequired",
        "offset": 2,
        "slot": "4",
        "type": "t_bool"
      },
      {
        "astId": 9503,
        "contract": "contracts/strategies/_poc/sablier-v2/LockupDynamicStrategy.sol:LockupDynamicStrategy",
        "label": "lockupDynamic",
        "offset": 3,
        "slot": "4",
        "type": "t_contract(ISablierV2LockupDynamic)74221"
      },
      {
        "astId": 9505,
        "contract": "contracts/strategies/_poc/sablier-v2/LockupDynamicStrategy.sol:LockupDynamicStrategy",
        "label": "allocatedGrantAmount",
        "offset": 0,
        "slot": "5",
        "type": "t_uint256"
      },
      {
        "astId": 9509,
        "contract": "contracts/strategies/_poc/sablier-v2/LockupDynamicStrategy.sol:LockupDynamicStrategy",
        "label": "broker",
        "offset": 0,
        "slot": "6",
        "type": "t_struct(Broker)74341_storage"
      },
      {
        "astId": 9514,
        "contract": "contracts/strategies/_poc/sablier-v2/LockupDynamicStrategy.sol:LockupDynamicStrategy",
        "label": "_recipients",
        "offset": 0,
        "slot": "8",
        "type": "t_mapping(t_address,t_struct(Recipient)9538_storage)"
      },
      {
        "astId": 9519,
        "contract": "contracts/strategies/_poc/sablier-v2/LockupDynamicStrategy.sol:LockupDynamicStrategy",
        "label": "_recipientStreamIds",
        "offset": 0,
        "slot": "9",
        "type": "t_mapping(t_address,t_array(t_uint256)dyn_storage)"
      }
    ],
    "types": {
      "t_address": {
        "encoding": "inplace",
        "label": "address",
        "numberOfBytes": "20"
      },
      "t_array(t_struct(SegmentWithDelta)74425_storage)dyn_storage": {
        "encoding": "dynamic_array",
        "label": "struct LockupDynamic.SegmentWithDelta[]",
        "numberOfBytes": "32",
        "base": "t_struct(SegmentWithDelta)74425_storage"
      },
      "t_array(t_uint256)dyn_storage": {
        "encoding": "dynamic_array",
        "label": "uint256[]",
        "numberOfBytes": "32",
        "base": "t_uint256"
      },
      "t_bool": {
        "encoding": "inplace",
        "label": "bool",
        "numberOfBytes": "1"
      },
      "t_contract(ISablierV2LockupDynamic)74221": {
        "encoding": "inplace",
        "label": "contract ISablierV2LockupDynamic",
        "numberOfBytes": "20"
      },
      "t_enum(Status)2638": {
        "encoding": "inplace",
        "label": "enum IStrategy.Status",
        "numberOfBytes": "1"
      },
      "t_mapping(t_address,t_array(t_uint256)dyn_storage)": {
        "encoding": "mapping",
        "key": "t_address",
        "label": "mapping(address => uint256[])",
        "numberOfBytes": "32",
        "value": "t_array(t_uint256)dyn_storage"
      },
      "t_mapping(t_address,t_struct(Recipient)9538_storage)": {
        "encoding": "mapping",
        "key": "t_address",
        "label": "mapping(address => struct LockupDynamicStrategy.Recipient)",
        "numberOfBytes": "32",
        "value": "t_struct(Recipient)9538_storage"
      },
      "t_string_storage": {
        "encoding": "bytes",
        "label": "string",
        "numberOfBytes": "32"
      },
      "t_struct(Broker)74341_storage": {
        "encoding": "inplace",
        "label": "struct Broker",
        "numberOfBytes": "64",
        "members": [
          {
            "astId": 74337,
            "contract": "contracts/strategies/_poc/sablier-v2/LockupDynamicStrategy.sol:LockupDynamicStrategy",
            "label": "account",
            "offset": 0,
            "slot": "0",
            "type": "t_address"
          },
          {
            "astId": 74340,
            "contract": "contracts/strategies/_poc/sablier-v2/LockupDynamicStrategy.sol:LockupDynamicStrategy",
            "label": "fee",
            "offset": 0,
            "slot": "1",
            "type": "t_userDefinedValueType(UD60x18)73582"
          }
        ]
      },
      "t_struct(Metadata)2922_storage": {
        "encoding": "inplace",
        "label": "struct Metadata",
        "numberOfBytes": "64",
        "members": [
          {
            "astId": 2918,
            "contract": "contracts/strategies/_poc/sablier-v2/LockupDynamicStrategy.sol:LockupDynamicStrategy",
            "label": "protocol",
            "offset": 0,
            "slot": "0",
            "type": "t_uint256"
          },
          {
            "astId": 2921,
            "contract": "contracts/strategies/_poc/sablier-v2/LockupDynamicStrategy.sol:LockupDynamicStrategy",
            "label": "pointer",
            "offset": 0,
            "slot": "1",
            "type": "t_string_storage"
          }
        ]
      },
      "t_struct(Recipient)9538_storage": {
        "encoding": "inplace",
        "label": "struct LockupDynamicStrategy.Recipient",
        "numberOfBytes": "160",
        "members": [
          {
            "astId": 9521,
            "contract": "contracts/strategies/_poc/sablier-v2/LockupDynamicStrategy.sol:LockupDynamicStrategy",
            "label": "useRegistryAnchor",
            "offset": 0,
            "slot": "0",
            "type": "t_bool"
          },
          {
            "astId": 9523,
            "contract": "contracts/strategies/_poc/sablier-v2/LockupDynamicStrategy.sol:LockupDynamicStrategy",
            "label": "cancelable",
            "offset": 1,
            "slot": "0",
            "type": "t_bool"
          },
          {
            "astId": 9526,
            "contract": "contracts/strategies/_poc/sablier-v2/LockupDynamicStrategy.sol:LockupDynamicStrategy",
            "label": "recipientStatus",
            "offset": 2,
            "slot": "0",
            "type": "t_enum(Status)2638"
          },
          {
            "astId": 9528,
            "contract": "contracts/strategies/_poc/sablier-v2/LockupDynamicStrategy.sol:LockupDynamicStrategy",
            "label": "recipientAddress",
            "offset": 3,
            "slot": "0",
            "type": "t_address"
          },
          {
            "astId": 9530,
            "contract": "contracts/strategies/_poc/sablier-v2/LockupDynamicStrategy.sol:LockupDynamicStrategy",
            "label": "grantAmount",
            "offset": 0,
            "slot": "1",
            "type": "t_uint256"
          },
          {
            "astId": 9533,
            "contract": "contracts/strategies/_poc/sablier-v2/LockupDynamicStrategy.sol:LockupDynamicStrategy",
            "label": "metadata",
            "offset": 0,
            "slot": "2",
            "type": "t_struct(Metadata)2922_storage"
          },
          {
            "astId": 9537,
            "contract": "contracts/strategies/_poc/sablier-v2/LockupDynamicStrategy.sol:LockupDynamicStrategy",
            "label": "segments",
            "offset": 0,
            "slot": "4",
            "type": "t_array(t_struct(SegmentWithDelta)74425_storage)dyn_storage"
          }
        ]
      },
      "t_struct(SegmentWithDelta)74425_storage": {
        "encoding": "inplace",
        "label": "struct LockupDynamic.SegmentWithDelta",
        "numberOfBytes": "32",
        "members": [
          {
            "astId": 74419,
            "contract": "contracts/strategies/_poc/sablier-v2/LockupDynamicStrategy.sol:LockupDynamicStrategy",
            "label": "amount",
            "offset": 0,
            "slot": "0",
            "type": "t_uint128"
          },
          {
            "astId": 74422,
            "contract": "contracts/strategies/_poc/sablier-v2/LockupDynamicStrategy.sol:LockupDynamicStrategy",
            "label": "exponent",
            "offset": 16,
            "slot": "0",
            "type": "t_userDefinedValueType(UD2x18)71778"
          },
          {
            "astId": 74424,
            "contract": "contracts/strategies/_poc/sablier-v2/LockupDynamicStrategy.sol:LockupDynamicStrategy",
            "label": "delta",
            "offset": 24,
            "slot": "0",
            "type": "t_uint40"
          }
        ]
      },
      "t_uint128": {
        "encoding": "inplace",
        "label": "uint128",
        "numberOfBytes": "16"
      },
      "t_uint256": {
        "encoding": "inplace",
        "label": "uint256",
        "numberOfBytes": "32"
      },
      "t_uint40": {
        "encoding": "inplace",
        "label": "uint40",
        "numberOfBytes": "5"
      },
      "t_userDefinedValueType(UD2x18)71778": {
        "encoding": "inplace",
        "label": "UD2x18",
        "numberOfBytes": "8"
      },
      "t_userDefinedValueType(UD60x18)73582": {
        "encoding": "inplace",
        "label": "UD60x18",
        "numberOfBytes": "32"
      }
    }
  },
  "id": 22
}