{"abi":[{"type":"constructor","inputs":[{"name":"tokens_","type":"address[8]","internalType":"address[8]"}],"stateMutability":"nonpayable"},{"type":"receive","stateMutability":"payable"},{"type":"function","name":"acceptImplementation","inputs":[],"outputs":[],"stateMutability":"nonpayable"},{"type":"function","name":"acceptOwnership","inputs":[],"outputs":[],"stateMutability":"nonpayable"},{"type":"function","name":"add","inputs":[{"name":"_allocPoint","type":"uint256","internalType":"uint256"},{"name":"_lpToken","type":"address","internalType":"address"},{"name":"_description","type":"string","internalType":"string"},{"name":"_withUpdate","type":"bool","internalType":"bool"}],"outputs":[{"name":"","type":"uint256","internalType":"uint256"}],"stateMutability":"nonpayable"},{"type":"function","name":"becomeImplementation","inputs":[{"name":"proxy","type":"address","internalType":"contract Upgradeable2Step"}],"outputs":[],"stateMutability":"nonpayable"},{"type":"function","name":"boosterMultiplier","inputs":[],"outputs":[{"name":"","type":"uint256","internalType":"uint256"}],"stateMutability":"view"},{"type":"function","name":"bridge","inputs":[],"outputs":[{"name":"","type":"address","internalType":"contract BridgeLike"}],"stateMutability":"view"},{"type":"function","name":"bridgePool","inputs":[{"name":"_pid","type":"uint256","internalType":"uint256"}],"outputs":[],"stateMutability":"nonpayable"},{"type":"function","name":"dai","inputs":[],"outputs":[{"name":"","type":"address","internalType":"address"}],"stateMutability":"view"},{"type":"function","name":"deposit","inputs":[{"name":"_pid","type":"uint256","internalType":"uint256"},{"name":"_amount","type":"uint256","internalType":"uint256"},{"name":"_boostAmount","type":"uint256","internalType":"uint256"}],"outputs":[],"stateMutability":"nonpayable"},{"type":"function","name":"depositDai","inputs":[{"name":"_amount","type":"uint256","internalType":"uint256"},{"name":"_boostAmount","type":"uint256","internalType":"uint256"}],"outputs":[],"stateMutability":"nonpayable"},{"type":"function","name":"depositEth","inputs":[{"name":"_boostAmount","type":"uint256","internalType":"uint256"},{"name":"_predefinedPool","type":"uint8","internalType":"enum SophonFarmingState.PredefinedPool"}],"outputs":[],"stateMutability":"payable"},{"type":"function","name":"depositStEth","inputs":[{"name":"_amount","type":"uint256","internalType":"uint256"},{"name":"_boostAmount","type":"uint256","internalType":"uint256"}],"outputs":[],"stateMutability":"nonpayable"},{"type":"function","name":"depositWeth","inputs":[{"name":"_amount","type":"uint256","internalType":"uint256"},{"name":"_boostAmount","type":"uint256","internalType":"uint256"},{"name":"_predefinedPool","type":"uint8","internalType":"enum SophonFarmingState.PredefinedPool"}],"outputs":[],"stateMutability":"nonpayable"},{"type":"function","name":"depositeEth","inputs":[{"name":"_amount","type":"uint256","internalType":"uint256"},{"name":"_boostAmount","type":"uint256","internalType":"uint256"}],"outputs":[],"stateMutability":"nonpayable"},{"type":"function","name":"eETH","inputs":[],"outputs":[{"name":"","type":"address","internalType":"address"}],"stateMutability":"view"},{"type":"function","name":"eETHLiquidityPool","inputs":[],"outputs":[{"name":"","type":"address","internalType":"address"}],"stateMutability":"view"},{"type":"function","name":"endBlock","inputs":[],"outputs":[{"name":"","type":"uint256","internalType":"uint256"}],"stateMutability":"view"},{"type":"function","name":"endBlockForWithdrawals","inputs":[],"outputs":[{"name":"","type":"uint256","internalType":"uint256"}],"stateMutability":"view"},{"type":"function","name":"getBlockNumber","inputs":[],"outputs":[{"name":"","type":"uint256","internalType":"uint256"}],"stateMutability":"view"},{"type":"function","name":"getMaxAdditionalBoost","inputs":[{"name":"_user","type":"address","internalType":"address"},{"name":"_pid","type":"uint256","internalType":"uint256"}],"outputs":[{"name":"","type":"uint256","internalType":"uint256"}],"stateMutability":"view"},{"type":"function","name":"getOptimizedUserInfo","inputs":[{"name":"_users","type":"address[]","internalType":"address[]"}],"outputs":[{"name":"userInfos","type":"uint256[4][][]","internalType":"uint256[4][][]"}],"stateMutability":"view"},{"type":"function","name":"getPendingPoints","inputs":[{"name":"_users","type":"address[]","internalType":"address[]"}],"outputs":[{"name":"pendings","type":"uint256[][]","internalType":"uint256[][]"}],"stateMutability":"view"},{"type":"function","name":"getPoolInfo","inputs":[],"outputs":[{"name":"poolInfos","type":"tuple[]","internalType":"struct SophonFarmingState.PoolInfo[]","components":[{"name":"lpToken","type":"address","internalType":"contract IERC20"},{"name":"l2Farm","type":"address","internalType":"address"},{"name":"amount","type":"uint256","internalType":"uint256"},{"name":"boostAmount","type":"uint256","internalType":"uint256"},{"name":"depositAmount","type":"uint256","internalType":"uint256"},{"name":"allocPoint","type":"uint256","internalType":"uint256"},{"name":"lastRewardBlock","type":"uint256","internalType":"uint256"},{"name":"accPointsPerShare","type":"uint256","internalType":"uint256"},{"name":"description","type":"string","internalType":"string"}]}],"stateMutability":"view"},{"type":"function","name":"heldProceeds","inputs":[{"name":"","type":"uint256","internalType":"uint256"}],"outputs":[{"name":"","type":"uint256","internalType":"uint256"}],"stateMutability":"view"},{"type":"function","name":"implementation","inputs":[],"outputs":[{"name":"","type":"address","internalType":"address"}],"stateMutability":"view"},{"type":"function","name":"increaseBoost","inputs":[{"name":"_pid","type":"uint256","internalType":"uint256"},{"name":"_boostAmount","type":"uint256","internalType":"uint256"}],"outputs":[],"stateMutability":"nonpayable"},{"type":"function","name":"initialize","inputs":[{"name":"ethAllocPoint_","type":"uint256","internalType":"uint256"},{"name":"sDAIAllocPoint_","type":"uint256","internalType":"uint256"},{"name":"_pointsPerBlock","type":"uint256","internalType":"uint256"},{"name":"_startBlock","type":"uint256","internalType":"uint256"},{"name":"_boosterMultiplier","type":"uint256","internalType":"uint256"}],"outputs":[],"stateMutability":"nonpayable"},{"type":"function","name":"isBridged","inputs":[{"name":"","type":"uint256","internalType":"uint256"}],"outputs":[{"name":"","type":"bool","internalType":"bool"}],"stateMutability":"view"},{"type":"function","name":"isFarmingEnded","inputs":[],"outputs":[{"name":"","type":"bool","internalType":"bool"}],"stateMutability":"view"},{"type":"function","name":"isWithdrawPeriodEnded","inputs":[],"outputs":[{"name":"","type":"bool","internalType":"bool"}],"stateMutability":"view"},{"type":"function","name":"massUpdatePools","inputs":[],"outputs":[],"stateMutability":"nonpayable"},{"type":"function","name":"owner","inputs":[],"outputs":[{"name":"","type":"address","internalType":"address"}],"stateMutability":"view"},{"type":"function","name":"pendingImplementation","inputs":[],"outputs":[{"name":"","type":"address","internalType":"address"}],"stateMutability":"view"},{"type":"function","name":"pendingOwner","inputs":[],"outputs":[{"name":"","type":"address","internalType":"address"}],"stateMutability":"view"},{"type":"function","name":"pendingPoints","inputs":[{"name":"_pid","type":"uint256","internalType":"uint256"},{"name":"_user","type":"address","internalType":"address"}],"outputs":[{"name":"","type":"uint256","internalType":"uint256"}],"stateMutability":"view"},{"type":"function","name":"pointsPerBlock","inputs":[],"outputs":[{"name":"","type":"uint256","internalType":"uint256"}],"stateMutability":"view"},{"type":"function","name":"poolExists","inputs":[{"name":"","type":"address","internalType":"address"}],"outputs":[{"name":"","type":"bool","internalType":"bool"}],"stateMutability":"view"},{"type":"function","name":"poolInfo","inputs":[{"name":"","type":"uint256","internalType":"uint256"}],"outputs":[{"name":"lpToken","type":"address","internalType":"contract IERC20"},{"name":"l2Farm","type":"address","internalType":"address"},{"name":"amount","type":"uint256","internalType":"uint256"},{"name":"boostAmount","type":"uint256","internalType":"uint256"},{"name":"depositAmount","type":"uint256","internalType":"uint256"},{"name":"allocPoint","type":"uint256","internalType":"uint256"},{"name":"lastRewardBlock","type":"uint256","internalType":"uint256"},{"name":"accPointsPerShare","type":"uint256","internalType":"uint256"},{"name":"description","type":"string","internalType":"string"}],"stateMutability":"view"},{"type":"function","name":"poolLength","inputs":[],"outputs":[{"name":"","type":"uint256","internalType":"uint256"}],"stateMutability":"view"},{"type":"function","name":"renounceOwnership","inputs":[],"outputs":[],"stateMutability":"nonpayable"},{"type":"function","name":"replaceImplementation","inputs":[{"name":"impl_","type":"address","internalType":"address"}],"outputs":[],"stateMutability":"nonpayable"},{"type":"function","name":"revertFailedBridge","inputs":[{"name":"_pid","type":"uint256","internalType":"uint256"}],"outputs":[],"stateMutability":"nonpayable"},{"type":"function","name":"sDAI","inputs":[],"outputs":[{"name":"","type":"address","internalType":"address"}],"stateMutability":"view"},{"type":"function","name":"set","inputs":[{"name":"_pid","type":"uint256","internalType":"uint256"},{"name":"_allocPoint","type":"uint256","internalType":"uint256"},{"name":"_withUpdate","type":"bool","internalType":"bool"}],"outputs":[],"stateMutability":"nonpayable"},{"type":"function","name":"setBoosterMultiplier","inputs":[{"name":"_boosterMultiplier","type":"uint256","internalType":"uint256"}],"outputs":[],"stateMutability":"nonpayable"},{"type":"function","name":"setBridge","inputs":[{"name":"_bridge","type":"address","internalType":"contract BridgeLike"}],"outputs":[],"stateMutability":"nonpayable"},{"type":"function","name":"setEndBlock","inputs":[{"name":"_endBlock","type":"uint256","internalType":"uint256"},{"name":"_withdrawalBlocks","type":"uint256","internalType":"uint256"}],"outputs":[],"stateMutability":"nonpayable"},{"type":"function","name":"setL2FarmForPool","inputs":[{"name":"_pid","type":"uint256","internalType":"uint256"},{"name":"_l2Farm","type":"address","internalType":"address"}],"outputs":[],"stateMutability":"nonpayable"},{"type":"function","name":"setPointsPerBlock","inputs":[{"name":"_pointsPerBlock","type":"uint256","internalType":"uint256"}],"outputs":[],"stateMutability":"nonpayable"},{"type":"function","name":"setStartBlock","inputs":[{"name":"_startBlock","type":"uint256","internalType":"uint256"}],"outputs":[],"stateMutability":"nonpayable"},{"type":"function","name":"stETH","inputs":[],"outputs":[{"name":"","type":"address","internalType":"address"}],"stateMutability":"view"},{"type":"function","name":"startBlock","inputs":[],"outputs":[{"name":"","type":"uint256","internalType":"uint256"}],"stateMutability":"view"},{"type":"function","name":"totalAllocPoint","inputs":[],"outputs":[{"name":"","type":"uint256","internalType":"uint256"}],"stateMutability":"view"},{"type":"function","name":"transferOwnership","inputs":[{"name":"newOwner","type":"address","internalType":"address"}],"outputs":[],"stateMutability":"nonpayable"},{"type":"function","name":"typeToId","inputs":[{"name":"","type":"uint8","internalType":"enum SophonFarmingState.PredefinedPool"}],"outputs":[{"name":"","type":"uint256","internalType":"uint256"}],"stateMutability":"view"},{"type":"function","name":"updatePool","inputs":[{"name":"_pid","type":"uint256","internalType":"uint256"}],"outputs":[],"stateMutability":"nonpayable"},{"type":"function","name":"userInfo","inputs":[{"name":"","type":"uint256","internalType":"uint256"},{"name":"","type":"address","internalType":"address"}],"outputs":[{"name":"amount","type":"uint256","internalType":"uint256"},{"name":"boostAmount","type":"uint256","internalType":"uint256"},{"name":"depositAmount","type":"uint256","internalType":"uint256"},{"name":"rewardSettled","type":"uint256","internalType":"uint256"},{"name":"rewardDebt","type":"uint256","internalType":"uint256"}],"stateMutability":"view"},{"type":"function","name":"weETH","inputs":[],"outputs":[{"name":"","type":"address","internalType":"address"}],"stateMutability":"view"},{"type":"function","name":"weth","inputs":[],"outputs":[{"name":"","type":"address","internalType":"address"}],"stateMutability":"view"},{"type":"function","name":"withdraw","inputs":[{"name":"_pid","type":"uint256","internalType":"uint256"},{"name":"_withdrawAmount","type":"uint256","internalType":"uint256"}],"outputs":[],"stateMutability":"nonpayable"},{"type":"function","name":"withdrawProceeds","inputs":[{"name":"_pid","type":"uint256","internalType":"uint256"}],"outputs":[],"stateMutability":"nonpayable"},{"type":"function","name":"wstETH","inputs":[],"outputs":[{"name":"","type":"address","internalType":"address"}],"stateMutability":"view"},{"type":"event","name":"Add","inputs":[{"name":"lpToken","type":"address","indexed":true,"internalType":"address"},{"name":"pid","type":"uint256","indexed":true,"internalType":"uint256"},{"name":"allocPoint","type":"uint256","indexed":false,"internalType":"uint256"}],"anonymous":false},{"type":"event","name":"Bridge","inputs":[{"name":"user","type":"address","indexed":true,"internalType":"address"},{"name":"pid","type":"uint256","indexed":true,"internalType":"uint256"},{"name":"amount","type":"uint256","indexed":false,"internalType":"uint256"}],"anonymous":false},{"type":"event","name":"Deposit","inputs":[{"name":"user","type":"address","indexed":true,"internalType":"address"},{"name":"pid","type":"uint256","indexed":true,"internalType":"uint256"},{"name":"depositAmount","type":"uint256","indexed":false,"internalType":"uint256"},{"name":"boostAmount","type":"uint256","indexed":false,"internalType":"uint256"}],"anonymous":false},{"type":"event","name":"IncreaseBoost","inputs":[{"name":"user","type":"address","indexed":true,"internalType":"address"},{"name":"pid","type":"uint256","indexed":true,"internalType":"uint256"},{"name":"boostAmount","type":"uint256","indexed":false,"internalType":"uint256"}],"anonymous":false},{"type":"event","name":"OwnershipTransferStarted","inputs":[{"name":"previousOwner","type":"address","indexed":true,"internalType":"address"},{"name":"newOwner","type":"address","indexed":true,"internalType":"address"}],"anonymous":false},{"type":"event","name":"OwnershipTransferred","inputs":[{"name":"previousOwner","type":"address","indexed":true,"internalType":"address"},{"name":"newOwner","type":"address","indexed":true,"internalType":"address"}],"anonymous":false},{"type":"event","name":"ReplaceImplementation","inputs":[{"name":"previousImplementation","type":"address","indexed":true,"internalType":"address"},{"name":"newImplementation","type":"address","indexed":true,"internalType":"address"}],"anonymous":false},{"type":"event","name":"ReplaceImplementationStarted","inputs":[{"name":"previousImplementation","type":"address","indexed":true,"internalType":"address"},{"name":"newImplementation","type":"address","indexed":true,"internalType":"address"}],"anonymous":false},{"type":"event","name":"Set","inputs":[{"name":"lpToken","type":"address","indexed":true,"internalType":"address"},{"name":"pid","type":"uint256","indexed":true,"internalType":"uint256"},{"name":"allocPoint","type":"uint256","indexed":false,"internalType":"uint256"}],"anonymous":false},{"type":"event","name":"Withdraw","inputs":[{"name":"user","type":"address","indexed":true,"internalType":"address"},{"name":"pid","type":"uint256","indexed":true,"internalType":"uint256"},{"name":"amount","type":"uint256","indexed":false,"internalType":"uint256"}],"anonymous":false},{"type":"event","name":"WithdrawProceeds","inputs":[{"name":"pid","type":"uint256","indexed":true,"internalType":"uint256"},{"name":"proceeds","type":"uint256","indexed":false,"internalType":"uint256"}],"anonymous":false},{"type":"error","name":"AddressEmptyCode","inputs":[{"name":"target","type":"address","internalType":"address"}]},{"type":"error","name":"AddressInsufficientBalance","inputs":[{"name":"account","type":"address","internalType":"address"}]},{"type":"error","name":"AlreadyInitialized","inputs":[]},{"type":"error","name":"BoostIsZero","inputs":[]},{"type":"error","name":"BoostTooHigh","inputs":[{"name":"maxAllowed","type":"uint256","internalType":"uint256"}]},{"type":"error","name":"BridgeInvalid","inputs":[]},{"type":"error","name":"FailedInnerCall","inputs":[]},{"type":"error","name":"FarmingIsEnded","inputs":[]},{"type":"error","name":"FarmingIsStarted","inputs":[]},{"type":"error","name":"InvalidBooster","inputs":[]},{"type":"error","name":"InvalidDeposit","inputs":[]},{"type":"error","name":"InvalidEndBlock","inputs":[]},{"type":"error","name":"InvalidStartBlock","inputs":[]},{"type":"error","name":"NoEthSent","inputs":[]},{"type":"error","name":"NotFound","inputs":[{"name":"lpToken","type":"address","internalType":"address"}]},{"type":"error","name":"NothingInPool","inputs":[]},{"type":"error","name":"OwnableInvalidOwner","inputs":[{"name":"owner","type":"address","internalType":"address"}]},{"type":"error","name":"OwnableUnauthorizedAccount","inputs":[{"name":"account","type":"address","internalType":"address"}]},{"type":"error","name":"PoolDoesNotExist","inputs":[]},{"type":"error","name":"PoolExists","inputs":[]},{"type":"error","name":"SafeERC20FailedOperation","inputs":[{"name":"token","type":"address","internalType":"address"}]},{"type":"error","name":"Unauthorized","inputs":[]},{"type":"error","name":"WithdrawIsZero","inputs":[]},{"type":"error","name":"WithdrawNotAllowed","inputs":[]},{"type":"error","name":"WithdrawTooHigh","inputs":[{"name":"maxAllowed","type":"uint256","internalType":"uint256"}]}],"bytecode":{"object":"0x610180604052348015610010575f80fd5b5060405161425838038061425883398101604081905261002f91610145565b338061005457604051631e4fbdf760e01b81525f600482015260240160405180910390fd5b61005d816100bf565b5080516001600160a01b0390811660809081526020830151821660a09081526040840151831660c09081526060850151841660e090815292850151841661010052908401518316610120528301518216610140529091015116610160526101d2565b600180546001600160a01b03191690556100d8816100db565b50565b5f80546001600160a01b038381166001600160a01b0319831681178455604051919092169283917f8be0079c531659141344cd1fd0a4f28419497f9722a3daafe3b4186f6b6457e09190a35050565b80516001600160a01b0381168114610140575f80fd5b919050565b5f610100808385031215610157575f80fd5b83601f840112610165575f80fd5b6040518181016001600160401b038111828210171561019257634e487b7160e01b5f52604160045260245ffd5b6040529083019080858311156101a6575f80fd5b845b838110156101c7576101b98161012a565b8252602091820191016101a8565b509095945050505050565b60805160a05160c05160e05161010051610120516101405161016051613f756102e35f395f8181610a56015281816126e301528181612755015261349201525f81816108100152612d3101525f8181610477015281816114990152818161248c015261278401525f81816106c5015281816125d001528181612643015261344301525f8181610a23015281816119fb0152818161245c0152818161267201528181612b8901528181612c120152612c9701525f81816103d60152818161061801528181611a3d0152818161242c01526131f901525f8181610b38015281816124dc0152818161253001526133b801525f8181610c17015281816115bb015281816123e9015261255f0152613f755ff3fe60806040526004361061039f575f3560e01c806372e26a6f116101de578063cca8d95611610108578063e78cea921161009d578063f35e4a6e1161006d578063f35e4a6e14610be7578063f4b9fa7514610c06578063fb8d81f114610c39578063fff52ee814610c58575f80fd5b8063e78cea9214610b77578063e8760c1414610b96578063eaac8c3214610ba9578063f2fde38b14610bc8575f80fd5b8063dcbab608116100d8578063dcbab60814610af4578063de26c3c614610b13578063de8b614914610b27578063e30c397814610b5a575f80fd5b8063cca8d95614610a78578063cdb7657f14610a97578063d69efdc514610ab6578063d9f1aed914610ad5575f80fd5b8063958df1641161017e578063aff206d81161014e578063aff206d8146109de578063beece24b146109fd578063c1fe3e4814610a12578063c72bf7a514610a45575f80fd5b8063958df164146109555780639644369c1461097457806399d8f74a14610993578063a8a77a19146109bf575f80fd5b80638da5cb5b116101b95780638da5cb5b146108715780638dd148021461088d578063933f3958146108ac57806393f1a40b146108da575f80fd5b806372e26a6f146107ff57806379ba5097146108325780637a94c06814610846575f80fd5b80633fdb1e8f116102ca5780635c60da1b1161025f57806364482f791161022f57806364482f79146107985780636e910bfd146107b75780636f52daaf146107d6578063715018a6146107eb575f80fd5b80635c60da1b146107255780635dfd7e9b1461074457806360246c8814610763578063630b5ba114610784575f80fd5b806348cd4cb11161029a57806348cd4cb11461069f5780634aa07e64146106b457806351bd7875146106e757806351eb05a614610706575f80fd5b80633fdb1e8f1461063a57806342cbb15c1461064f578063441a3e701461066157806347c8b1a914610680575f80fd5b806317caf6f1116103405780632c8e418a116103105780632c8e418a1461059e57806330cdb3c6146105bd578063396f7b23146105e85780633fc8cef314610607575f80fd5b806317caf6f11461051d5780631abbeb54146105325780631e1c6a07146105515780632a4f6df21461057f575f80fd5b80630de371e21161037b5780630de371e21461046657806312863f02146104b15780631526fe27146104d557806315ba56e514610509575f80fd5b8062aeef8a1461040f578063081e3eda1461042e578063083c632314610451575f80fd5b3661040b576103cc604051806040016040528060078152602001667265636569766560c81b815250610c84565b6001600160a01b037f00000000000000000000000000000000000000000000000000000000000000001633036103fe57005b6104095f6001610cca565b005b5f80fd5b34801561041a575f80fd5b506104096104293660046136ae565b610d4a565b348015610439575f80fd5b506008545b6040519081526020015b60405180910390f35b34801561045c575f80fd5b5061043e600c5481565b348015610471575f80fd5b506104997f000000000000000000000000000000000000000000000000000000000000000081565b6040516001600160a01b039091168152602001610448565b3480156104bc575f80fd5b506104c5610d8f565b6040519015158152602001610448565b3480156104e0575f80fd5b506104f46104ef3660046136d7565b610db7565b6040516104489998979695949392919061373b565b348015610514575f80fd5b50610409610ea9565b348015610528575f80fd5b5061043e600a5481565b34801561053d575f80fd5b5061040961054c36600461379b565b610f32565b34801561055c575f80fd5b506104c561056b3660046137cf565b600e6020525f908152604090205460ff1681565b34801561058a575f80fd5b506104096105993660046137ea565b610fbd565b3480156105a9575f80fd5b506104096105b83660046136d7565b61100f565b3480156105c8575f80fd5b5061043e6105d736600461382b565b60046020525f908152604090205481565b3480156105f3575f80fd5b50600254610499906001600160a01b031681565b348015610612575f80fd5b506104997f000000000000000000000000000000000000000000000000000000000000000081565b348015610645575f80fd5b5061043e60075481565b34801561065a575f80fd5b504361043e565b34801561066c575f80fd5b5061040961067b36600461379b565b611073565b34801561068b575f80fd5b5061040961069a36600461379b565b611245565b3480156106aa575f80fd5b5061043e600b5481565b3480156106bf575f80fd5b506104997f000000000000000000000000000000000000000000000000000000000000000081565b3480156106f2575f80fd5b5061040961070136600461379b565b61148c565b348015610711575f80fd5b506104096107203660046136d7565b6114d2565b348015610730575f80fd5b50600354610499906001600160a01b031681565b34801561074f575f80fd5b5061040961075e36600461379b565b6115ae565b34801561076e575f80fd5b506107776115ef565b6040516104489190613844565b34801561078f575f80fd5b506104096117ef565b3480156107a3575f80fd5b506104096107b236600461392e565b61180d565b3480156107c2575f80fd5b5061043e6107d1366004613964565b611944565b3480156107e1575f80fd5b5061043e60065481565b3480156107f6575f80fd5b50610409611970565b34801561080a575f80fd5b506104997f000000000000000000000000000000000000000000000000000000000000000081565b34801561083d575f80fd5b50610409611983565b348015610851575f80fd5b5061043e6108603660046136d7565b60056020525f908152604090205481565b34801561087c575f80fd5b505f546001600160a01b0316610499565b348015610898575f80fd5b506104096108a73660046137cf565b6119c4565b3480156108b7575f80fd5b506104c56108c63660046136d7565b60116020525f908152604090205460ff1681565b3480156108e5575f80fd5b5061092d6108f43660046137ea565b600960209081525f9283526040808420909152908252902080546001820154600283015460038401546004909401549293919290919085565b604080519586526020860194909452928401919091526060830152608082015260a001610448565b348015610960575f80fd5b5061040961096f36600461379b565b6119ee565b34801561097f575f80fd5b5061040961098e36600461398e565b611a30565b34801561099e575f80fd5b506109b26109ad366004613a05565b611ad1565b6040516104489190613ab2565b3480156109ca575f80fd5b5061043e6109d93660046137ea565b611d80565b3480156109e9575f80fd5b506104096109f83660046136d7565b611d92565b348015610a08575f80fd5b5061043e600f5481565b348015610a1d575f80fd5b506104997f000000000000000000000000000000000000000000000000000000000000000081565b348015610a50575f80fd5b506104997f000000000000000000000000000000000000000000000000000000000000000081565b348015610a83575f80fd5b5061043e610a92366004613b5c565b611db1565b348015610aa2575f80fd5b50610409610ab13660046136d7565b61200e565b348015610ac1575f80fd5b50610409610ad03660046137cf565b61226e565b348015610ae0575f80fd5b50610409610aef3660046136d7565b6122c7565b348015610aff575f80fd5b50610409610b0e366004613c17565b61235b565b348015610b1e575f80fd5b506104c5612803565b348015610b32575f80fd5b506104997f000000000000000000000000000000000000000000000000000000000000000081565b348015610b65575f80fd5b506001546001600160a01b0316610499565b348015610b82575f80fd5b50601054610499906001600160a01b031681565b610409610ba4366004613c4e565b610cca565b348015610bb4575f80fd5b50610409610bc33660046137cf565b612819565b348015610bd3575f80fd5b50610409610be23660046137cf565b6128fa565b348015610bf2575f80fd5b50610409610c013660046136d7565b61296a565b348015610c11575f80fd5b506104997f000000000000000000000000000000000000000000000000000000000000000081565b348015610c44575f80fd5b50610409610c533660046136d7565b6129d3565b348015610c63575f80fd5b50610c77610c72366004613a05565b612a0e565b6040516104489190613c78565b610cc781604051602401610c989190613cf1565b60408051601f198184030181529190526020810180516001600160e01b031663104c13eb60e21b179052612b48565b50565b345f03610cea5760405163717e6b7b60e01b815260040160405180910390fd5b346001826002811115610cff57610cff613d03565b03610d1457610d0d81612b68565b9050610d39565b6002826002811115610d2857610d28613d03565b03610d3957610d3681612d12565b90505b610d4581348585612d9e565b505050565b610d8433308460088781548110610d6357610d63613d17565b5f9182526020909120600990910201546001600160a01b0316929190612e79565b610d45838383612ee0565b600f545f908015801590610da3575080435b115b15610db057600191505090565b5f91505090565b60088181548110610dc6575f80fd5b5f9182526020909120600990910201805460018201546002830154600384015460048501546005860154600687015460078801546008890180546001600160a01b03998a169b50989097169895979496939592949193909291610e2890613d2b565b80601f0160208091040260200160405190810160405280929190818152602001828054610e5490613d2b565b8015610e9f5780601f10610e7657610100808354040283529160200191610e9f565b820191905f5260205f20905b815481529060010190602001808311610e8257829003601f168201915b5050505050905089565b6002546001600160a01b03163314610edb5760405163118cdaa760e01b81523360048201526024015b60405180910390fd5b60035460405133916001600160a01b0316907feb7a7d62743daf8cf4055aea544d0a89e2011279ed4105567d010759e6fa4de2905f90a3600280546001600160a01b03199081169091556003805490911633179055565b610f3a61311e565b5f8215610fa657600b5483111580610f5157508243115b15610f6f57604051633dea3a3b60e11b815260040160405180910390fd5b610f77612803565b15610f955760405163442400af60e01b815260040160405180910390fd5b610f9f8284613d77565b9050610fa9565b505f5b610fb16117ef565b600c9290925550600f55565b610fc561311e565b8060088381548110610fd957610fd9613d17565b905f5260205f2090600902016001015f6101000a8154816001600160a01b0302191690836001600160a01b031602179055505050565b61101761311e565b670de0b6b3a76400008110156110405760405163135257c760e21b815260040160405180910390fd5b611048612803565b156110665760405163442400af60e01b815260040160405180910390fd5b61106e6117ef565b600655565b61107b610d8f565b15611099576040516315e34e0560e01b815260040160405180910390fd5b805f036110b95760405163214671ad60e01b815260040160405180910390fd5b5f600883815481106110cd576110cd613d17565b5f91825260208083208684526009808352604080862033875290935291909320910290910191506110fd846114d2565b60028101546001840161111257809350611136565b8084111561113657604051632f14e52760e21b815260048101829052602401610ed2565b8154600483015460038401546007860154670de0b6b3a76400009061115b9085613d8a565b6111659190613da1565b61116f9190613d77565b6111799190613dc0565b60038401556111888583613dc0565b6002840155600484015461119d908690613dc0565b60048501556111ac8582613dc0565b80845560028501549091506111c2908690613dc0565b600285015583546111dd906001600160a01b0316338761314a565b670de0b6b3a76400008460070154826111f69190613d8a565b6112009190613da1565b6004840155604051858152869033907ff279e6a1f5e320cca91135676d9cb6e44ca8a08c0b88342bcdb1144f6511b568906020015b60405180910390a3505050505050565b61124d612803565b1561126b5760405163442400af60e01b815260040160405180910390fd5b805f0361128b57604051633ff7215360e01b815260040160405180910390fd5b5f6112963384611944565b9050808211156112bc576040516301bdd0f160e21b815260048101829052602401610ed2565b5f600884815481106112d0576112d0613d17565b5f9182526020808320878452600980835260408086203387529093529190932091029091019150611300856114d2565b8054600482015460038301546007850154670de0b6b3a7640000906113259085613d8a565b61132f9190613da1565b6113399190613d77565b6113439190613dc0565b60038301555f86815260056020526040902054611361908690613d77565b5f87815260056020526040902055600282015461137f908690613dc0565b60028301556004830154611394908690613dc0565b60048401556006545f90670de0b6b3a7640000906113b29088613d8a565b6113bc9190613da1565b90508083600101546113ce9190613d77565b600184015560038401546113e3908290613d77565b6003850155856113f38284613d77565b6113fd9190613dc0565b80845560028501549092508690611415908390613d77565b61141f9190613dc0565b60028501556007840154670de0b6b3a76400009061143d9084613d8a565b6114479190613da1565b6004840155604051818152879033907fc0314854fdea1f413e5498dd58aa7953bae1e4e5d587ea2f4e3dacceaa244dea9060200160405180910390a350505050505050565b6114c16001600160a01b037f000000000000000000000000000000000000000000000000000000000000000016333085612e79565b6114ce8283836002612d9e565b5050565b5f600882815481106114e6576114e6613d17565b905f5260205f209060090201905080600601546115004390565b11611509575050565b60028101546007546005830154821580611521575081155b8061152a575080155b1561153f574384600601819055505050505050565b5f611554856006015461154f4390565b61317b565b90505f600a548385846115679190613d8a565b6115719190613d8a565b61157b9190613da1565b600787015490915061158d8683613da1565b6115979190613d77565b600787015543866006018190555050505050505050565b6115e36001600160a01b037f000000000000000000000000000000000000000000000000000000000000000016333085612e79565b6114ce8283835f612d9e565b6008546060908067ffffffffffffffff81111561160e5761160e6139c0565b60405190808252806020026020018201604052801561169857816020015b6116856040518061012001604052805f6001600160a01b031681526020015f6001600160a01b031681526020015f81526020015f81526020015f81526020015f81526020015f81526020015f8152602001606081525090565b81526020019060019003908161162c5790505b5091505f5b818110156117ea57600881815481106116b8576116b8613d17565b5f9182526020918290206040805161012081018252600990930290910180546001600160a01b039081168452600182015416938301939093526002830154908201526003820154606082015260048201546080820152600582015460a0820152600682015460c0820152600782015460e08201526008820180549192916101008401919061174590613d2b565b80601f016020809104026020016040519081016040528092919081815260200182805461177190613d2b565b80156117bc5780601f10611793576101008083540402835291602001916117bc565b820191905f5260205f20905b81548152906001019060200180831161179f57829003601f168201915b5050505050815250508382815181106117d7576117d7613d17565b602090810291909101015260010161169d565b505090565b6008545f5b818110156114ce57611805816114d2565b6001016117f4565b61181561311e565b61181d612803565b1561183b5760405163442400af60e01b815260040160405180910390fd5b8015611849576118496117ef565b5f6008848154811061185d5761185d613d17565b5f918252602090912060099091020180549091506001600160a01b031680158061189f57506001600160a01b0381165f908152600e602052604090205460ff16155b156118bd576040516302721e1f60e61b815260040160405180910390fd5b838260050154600a546118d09190613dc0565b6118da9190613d77565b600a556005820184905560068201544310156118f957600b5460068301555b84816001600160a01b03167f9eca8f7bcfb868d72b4ed95b71c627c194ab6bcb9b83adb2280e8a0320bb84768660405161193591815260200190565b60405180910390a35050505050565b5f8181526009602090815260408083206001600160a01b03861684529091529020600201545b92915050565b61197861311e565b6119815f6131c8565b565b60015433906001600160a01b031681146119bb5760405163118cdaa760e01b81526001600160a01b0382166004820152602401610ed2565b610cc7816131c8565b6119cc61311e565b601080546001600160a01b0319166001600160a01b0392909216919091179055565b611a236001600160a01b037f000000000000000000000000000000000000000000000000000000000000000016333085612e79565b6114ce8283836001612d9e565b611a656001600160a01b037f000000000000000000000000000000000000000000000000000000000000000016333086612e79565b5f611a6f846131e1565b90506001826002811115611a8557611a85613d03565b03611a9a57611a9381612b68565b9050611abf565b6002826002811115611aae57611aae613d03565b03611abf57611abc81612d12565b90505b611acb81858585612d9e565b50505050565b6060815167ffffffffffffffff811115611aed57611aed6139c0565b604051908082528060200260200182016040528015611b2057816020015b6060815260200190600190039081611b0b5790505b506008549091505f5b8351811015611d79575f848281518110611b4557611b45613d17565b602002602001015190508267ffffffffffffffff811115611b6857611b686139c0565b604051908082528060200260200182016040528015611ba157816020015b611b8e613690565b815260200190600190039081611b865790505b50848381518110611bb457611bb4613d17565b60200260200101819052505f5b83811015611d6f575f8181526009602090815260408083206001600160a01b0386168452825291829020825160a0810184528154808252600183015493820193909352600282015493810193909352600381015460608401526004015460808301528651879086908110611c3757611c37613d17565b60200260200101518381518110611c5057611c50613d17565b60200260200101515f60048110611c6957611c69613d17565b6020020181815250508060200151868581518110611c8957611c89613d17565b60200260200101518381518110611ca257611ca2613d17565b6020026020010151600160048110611cbc57611cbc613d17565b602002015260408101518651879086908110611cda57611cda613d17565b60200260200101518381518110611cf357611cf3613d17565b6020026020010151600260048110611d0d57611d0d613d17565b6020020152611d1c828461325e565b868581518110611d2e57611d2e613d17565b60200260200101518381518110611d4757611d47613d17565b6020026020010151600360048110611d6157611d61613d17565b602002015250600101611bc1565b5050600101611b29565b5050919050565b5f611d8b838361325e565b9392505050565b611d9a61311e565b5f908152601160205260409020805460ff19169055565b5f611dba61311e565b6001600160a01b0384165f908152600e602052604090205460ff1615611df357604051637a471e1360e11b815260040160405180910390fd5b611dfb612803565b15611e195760405163442400af60e01b815260040160405180910390fd5b8115611e2757611e276117ef565b5f600b54611e324390565b11611e3f57600b54611e41565b435b905085600a54611e519190613d77565b600a819055506001600e5f876001600160a01b03166001600160a01b031681526020019081526020015f205f6101000a81548160ff0219169083151502179055505f60088054905090506008604051806101200160405280886001600160a01b031681526020015f6001600160a01b031681526020015f81526020015f81526020015f81526020018981526020018481526020015f815260200187815250908060018154018082558091505060019003905f5260205f2090600902015f909190919091505f820151815f015f6101000a8154816001600160a01b0302191690836001600160a01b031602179055506020820151816001015f6101000a8154816001600160a01b0302191690836001600160a01b0316021790555060408201518160020155606082015181600301556080820151816004015560a0820151816005015560c0820151816006015560e08201518160070155610100820151816008019081611fbd9190613e17565b50505080866001600160a01b03167fc264f49177bdbe55a01fae0e77c3fdc75d515d242b32bc4d56c565f5b47865ba89604051611ffc91815260200190565b60405180910390a39695505050505050565b612016612803565b15806120275750612025610d8f565b155b8061203f57505f8181526011602052604090205460ff165b1561205c576040516282b42960e81b815260040160405180910390fd5b612065816114d2565b5f6008828154811061207957612079613d17565b905f5260205f20906009020190505f81600401549050805f14806120a657506010546001600160a01b0316155b806120bc575060018201546001600160a01b0316155b156120da5760405163023b521360e51b815260040160405180910390fd5b815460105460405163095ea7b360e01b81526001600160a01b03918216600482015260248101849052911690819063095ea7b3906044016020604051808303815f875af115801561212d573d5f803e3d5ffd5b505050506040513d601f19601f820116820180604052508101906121519190613ed7565b5060105460018401546001600160a01b039182169163e8b99b1b9116838562030d405f6121855f546001600160a01b031690565b60405160e088901b6001600160e01b03191681526001600160a01b039687166004820152948616602486015260448501939093526064840191909152608483015290911660a482015260c4016020604051808303815f875af11580156121ed573d5f803e3d5ffd5b505050506040513d601f19601f820116820180604052508101906122119190613ef2565b505f8481526011602052604090819020805460ff1916600117905551849033907fdeb96a3e5294fabe38d8824397be657fbe695d61f3457274027345cca6f26aaa906122609086815260200190565b60405180910390a350505050565b61227661311e565b600280546001600160a01b0319166001600160a01b03838116918217909255600354604051919216907f67f679e13fe9dca16f3079221965ec41838cb8881cbc0f440bc13507c6b214c2905f90a350565b6122cf61311e565b5f600882815481106122e3576122e3613d17565b5f91825260208083208584526005909152604083208054939055600990910201805490925061231c906001600160a01b0316338361314a565b827f272cfd32312fc5fb9119bb5b10d732ebe69a0be4019a69bc7d16eaea36231a2e8260405161234e91815260200190565b60405180910390a2505050565b61236361311e565b600d5460ff16156123865760405162dc149f60e41b815260040160405180910390fd5b60078390555f8290036123ac5760405163ec2caa0d60e01b815260040160405180910390fd5b600b829055670de0b6b3a76400008110156123da5760405163135257c760e21b815260040160405180910390fd5b60068190556001600160a01b037f000000000000000000000000000000000000000000000000000000000000000081165f908152600e60209081526040808320805460ff1990811660019081179092557f00000000000000000000000000000000000000000000000000000000000000008616855282852080548216831790557f00000000000000000000000000000000000000000000000000000000000000008616855282852080548216831790557f00000000000000000000000000000000000000000000000000000000000000009095168452818420805490951617909355825180840190935260048352637344414960e01b908301526125029186917f00000000000000000000000000000000000000000000000000000000000000009190611db1565b60045f808152602081019190915260409081015f20919091555163095ea7b360e01b81526001600160a01b037f0000000000000000000000000000000000000000000000000000000000000000811660048301525f1960248301527f0000000000000000000000000000000000000000000000000000000000000000169063095ea7b3906044016020604051808303815f875af11580156125a5573d5f803e3d5ffd5b505050506040513d601f19601f820116820180604052508101906125c99190613ed7565b50612614857f0000000000000000000000000000000000000000000000000000000000000000604051806040016040528060068152602001650eee6e88aa8960d31b8152505f611db1565b60045f60018152602081019190915260409081015f20919091555163095ea7b360e01b81526001600160a01b037f0000000000000000000000000000000000000000000000000000000000000000811660048301525f1960248301527f0000000000000000000000000000000000000000000000000000000000000000169063095ea7b3906044016020604051808303815f875af11580156126b8573d5f803e3d5ffd5b505050506040513d601f19601f820116820180604052508101906126dc9190613ed7565b50612726857f0000000000000000000000000000000000000000000000000000000000000000604051806040016040528060058152602001640eeca8aa8960db1b8152505f611db1565b60045f60028152602081019190915260409081015f20919091555163095ea7b360e01b81526001600160a01b037f0000000000000000000000000000000000000000000000000000000000000000811660048301525f1960248301527f0000000000000000000000000000000000000000000000000000000000000000169063095ea7b3906044016020604051808303815f875af11580156127ca573d5f803e3d5ffd5b505050506040513d601f19601f820116820180604052508101906127ee9190613ed7565b5050600d805460ff1916600117905550505050565b600c545f908015801590610da357508043610da1565b806001600160a01b0316638da5cb5b6040518163ffffffff1660e01b8152600401602060405180830381865afa158015612855573d5f803e3d5ffd5b505050506040513d601f19601f820116820180604052508101906128799190613f09565b6001600160a01b0316336001600160a01b0316146128a9576040516282b42960e81b815260040160405180910390fd5b806001600160a01b03166315ba56e56040518163ffffffff1660e01b81526004015f604051808303815f87803b1580156128e1575f80fd5b505af11580156128f3573d5f803e3d5ffd5b5050505050565b61290261311e565b600180546001600160a01b0383166001600160a01b031990911681179091556129325f546001600160a01b031690565b6001600160a01b03167f38d16b8cac22d99fc7c124b9cd0de2d3fa1faef420bfe791d8c362d765e2270060405160405180910390a350565b61297261311e565b80158061298d5750600c541580159061298d5750600c548110155b156129ab5760405163ec2caa0d60e01b815260040160405180910390fd5b600b544311156129ce5760405163317741f760e11b815260040160405180910390fd5b600b55565b6129db61311e565b6129e3612803565b15612a015760405163442400af60e01b815260040160405180910390fd5b612a096117ef565b600755565b6060815167ffffffffffffffff811115612a2a57612a2a6139c0565b604051908082528060200260200182016040528015612a5d57816020015b6060815260200190600190039081612a485790505b506008549091505f5b8351811015611d79575f848281518110612a8257612a82613d17565b602002602001015190508267ffffffffffffffff811115612aa557612aa56139c0565b604051908082528060200260200182016040528015612ace578160200160208202803683370190505b50848381518110612ae157612ae1613d17565b60200260200101819052505f5b83811015612b3e57612b00818361325e565b858481518110612b1257612b12613d17565b60200260200101518281518110612b2b57612b2b613d17565b6020908102919091010152600101612aee565b5050600101612a66565b80516a636f6e736f6c652e6c6f67602083015f808483855afa5050505050565b6040516370a0823160e01b81523060048201525f9081906001600160a01b037f000000000000000000000000000000000000000000000000000000000000000016906370a0823190602401602060405180830381865afa158015612bce573d5f803e3d5ffd5b505050506040513d601f19601f82011682018060405250810190612bf29190613ef2565b60405163a1903eab60e01b81523060048201529091506001600160a01b037f0000000000000000000000000000000000000000000000000000000000000000169063a1903eab90859060240160206040518083038185885af1158015612c5a573d5f803e3d5ffd5b50505050506040513d601f19601f82011682018060405250810190612c7f9190613ef2565b506040516370a0823160e01b815230600482015281907f00000000000000000000000000000000000000000000000000000000000000006001600160a01b0316906370a0823190602401602060405180830381865afa158015612ce4573d5f803e3d5ffd5b505050506040513d601f19601f82011682018060405250810190612d089190613ef2565b611d8b9190613dc0565b60405163f340fa0160e01b81523060048201525f906001600160a01b037f0000000000000000000000000000000000000000000000000000000000000000169063f340fa0190849060240160206040518083038185885af1158015612d79573d5f803e3d5ffd5b50505050506040513d601f19601f8201168201806040525081019061196a9190613ef2565b5f80826002811115612db257612db2613d03565b03612dc757612dc08561339a565b9050612e24565b6001826002811115612ddb57612ddb613d03565b03612de957612dc08561342b565b6002826002811115612dfd57612dfd613d03565b03612e0b57612dc08561347a565b604051635972996f60e11b815260040160405180910390fd5b83612e2f8285613d8a565b612e399190613da1565b92506128f360045f846002811115612e5357612e53613d03565b6002811115612e6457612e64613d03565b81526020019081526020015f20548285612ee0565b6040516001600160a01b038481166024830152838116604483015260648201839052611acb9186918216906323b872dd906084015b604051602081830303815290604052915060e01b6020820180516001600160e01b0383818316178352505050506134c9565b612ee8612803565b15612f065760405163442400af60e01b815260040160405180910390fd5b815f03612f2657604051635972996f60e11b815260040160405180910390fd5b81811115612f4a576040516301bdd0f160e21b815260048101839052602401610ed2565b5f60088481548110612f5e57612f5e613d17565b5f9182526020808320878452600980835260408086203387529093529190932091029091019150612f8e856114d2565b8054600482015460038301546007850154670de0b6b3a764000090612fb39085613d8a565b612fbd9190613da1565b612fc79190613d77565b612fd19190613dc0565b60038301555f86815260056020526040902054612fef908590613d77565b5f878152600560205260409020556130078486613dc0565b94508482600201546130199190613d77565b6002830155600483015461302e908690613d77565b6004840155600654670de0b6b3a76400009061304a9086613d8a565b6130549190613da1565b93508382600101546130669190613d77565b6001830155600383015461307b908590613d77565b60038401558361308b8683613d77565b6130959190613d77565b808355600284015490915084906130ad908790613d77565b6130b79190613d77565b60028401556007830154670de0b6b3a7640000906130d59083613d8a565b6130df9190613da1565b60048301556040805186815260208101869052879133917f36af321ec8d3c75236829c5317affd40ddb308863a1236d2d277a4025cccee1e9101611235565b5f546001600160a01b031633146119815760405163118cdaa760e01b8152336004820152602401610ed2565b6040516001600160a01b03838116602483015260448201839052610d4591859182169063a9059cbb90606401612eae565b600c545f90801561319357613190838261352a565b92505b838311156131bf576131a58484613dc0565b6131b790670de0b6b3a7640000613d8a565b91505061196a565b5f91505061196a565b600180546001600160a01b0319169055610cc78161353f565b604051632e1a7d4d60e01b8152600481018290525f907f00000000000000000000000000000000000000000000000000000000000000006001600160a01b031690632e1a7d4d906024015f604051808303815f87803b158015613242575f80fd5b505af1158015613254573d5f803e3d5ffd5b5093949350505050565b5f806008848154811061327357613273613d17565b5f9182526020808320878452600980835260408086206001600160a01b038a168752909352918420929091020160078101549093509091906132bd90670de0b6b3a7640000613d8a565b6002840154600685015491925090431180156132d857508015155b15613349575f6132ed856006015461154f4390565b90505f600a548660050154600754846133069190613d8a565b6133109190613d8a565b61331a9190613da1565b9050838361333083670de0b6b3a7640000613d8a565b61333a9190613da1565b6133449190613d77565b935050505b6004830154600384015484546ec097ce7bc90715b34b9f100000000090613371908690613d8a565b61337b9190613da1565b6133859190613d77565b61338f9190613dc0565b979650505050505050565b604051636e553f6560e01b8152600481018290523060248201525f907f00000000000000000000000000000000000000000000000000000000000000006001600160a01b031690636e553f65906044015b6020604051808303815f875af1158015613407573d5f803e3d5ffd5b505050506040513d601f19601f8201168201806040525081019061196a9190613ef2565b604051630ea598cb60e41b8152600481018290525f907f00000000000000000000000000000000000000000000000000000000000000006001600160a01b03169063ea598cb0906024016133eb565b604051630ea598cb60e41b8152600481018290525f907f00000000000000000000000000000000000000000000000000000000000000006001600160a01b03169063ea598cb0906024016133eb565b5f6134dd6001600160a01b0384168361358e565b905080515f141580156135015750808060200190518101906134ff9190613ed7565b155b15610d4557604051635274afe760e01b81526001600160a01b0384166004820152602401610ed2565b5f8183106135385781611d8b565b5090919050565b5f80546001600160a01b038381166001600160a01b0319831681178455604051919092169283917f8be0079c531659141344cd1fd0a4f28419497f9722a3daafe3b4186f6b6457e09190a35050565b6060611d8b83835f845f80856001600160a01b031684866040516135b29190613f24565b5f6040518083038185875af1925050503d805f81146135ec576040519150601f19603f3d011682016040523d82523d5f602084013e6135f1565b606091505b509150915061360186838361360b565b9695505050505050565b6060826136205761361b82613667565b611d8b565b815115801561363757506001600160a01b0384163b155b1561366057604051639996b31560e01b81526001600160a01b0385166004820152602401610ed2565b5080611d8b565b8051156136775780518082602001fd5b604051630a12f52160e11b815260040160405180910390fd5b60405180608001604052806004906020820280368337509192915050565b5f805f606084860312156136c0575f80fd5b505081359360208301359350604090920135919050565b5f602082840312156136e7575f80fd5b5035919050565b5f5b838110156137085781810151838201526020016136f0565b50505f910152565b5f81518084526137278160208601602086016136ee565b601f01601f19169290920160200192915050565b5f61012060018060a01b03808d168452808c166020850152508960408401528860608401528760808401528660a08401528560c08401528460e08401528061010084015261378b81840185613710565b9c9b505050505050505050505050565b5f80604083850312156137ac575f80fd5b50508035926020909101359150565b6001600160a01b0381168114610cc7575f80fd5b5f602082840312156137df575f80fd5b8135611d8b816137bb565b5f80604083850312156137fb575f80fd5b82359150602083013561380d816137bb565b809150509250929050565b803560038110613826575f80fd5b919050565b5f6020828403121561383b575f80fd5b611d8b82613818565b5f60208083018184528085518083526040925060408601915060408160051b8701018488015f5b8381101561390857888303603f19018552815180516001600160a01b03168452610120818901516001600160a01b038116868b0152508188015185890152606080830151908601526080808301519086015260a0808301519086015260c0808301519086015260e08083015190860152610100918201519185018190526138f481860183613710565b96890196945050509086019060010161386b565b509098975050505050505050565b8015158114610cc7575f80fd5b803561382681613916565b5f805f60608486031215613940575f80fd5b8335925060208401359150604084013561395981613916565b809150509250925092565b5f8060408385031215613975575f80fd5b8235613980816137bb565b946020939093013593505050565b5f805f606084860312156139a0575f80fd5b83359250602084013591506139b760408501613818565b90509250925092565b634e487b7160e01b5f52604160045260245ffd5b604051601f8201601f1916810167ffffffffffffffff811182821017156139fd576139fd6139c0565b604052919050565b5f6020808385031215613a16575f80fd5b823567ffffffffffffffff80821115613a2d575f80fd5b818501915085601f830112613a40575f80fd5b813581811115613a5257613a526139c0565b8060051b9150613a638483016139d4565b8181529183018401918481019088841115613a7c575f80fd5b938501935b83851015613aa65784359250613a96836137bb565b8282529385019390850190613a81565b98975050505050505050565b5f602080830181845280855180835260408601915060408160051b87010192508387015f5b82811015613b4f57878503603f190184528151805180875290870190878701905f5b81811015613b39578351835f5b6004811015613b235782518252918c0191908c0190600101613b06565b5050509289019260809290920191600101613af9565b5090965050509285019290850190600101613ad7565b5092979650505050505050565b5f805f8060808587031215613b6f575f80fd5b84359350602080860135613b82816137bb565b9350604086013567ffffffffffffffff80821115613b9e575f80fd5b818801915088601f830112613bb1575f80fd5b813581811115613bc357613bc36139c0565b613bd5601f8201601f191685016139d4565b91508082528984828501011115613bea575f80fd5b80848401858401375f84828401015250809450505050613c0c60608601613923565b905092959194509250565b5f805f805f60a08688031215613c2b575f80fd5b505083359560208501359550604085013594606081013594506080013592509050565b5f8060408385031215613c5f575f80fd5b82359150613c6f60208401613818565b90509250929050565b5f602080830181845280855180835260408601915060408160051b87010192508387015f5b82811015613b4f57878503603f190184528151805180875290870190878701905f5b81811015613cdb57835183529289019291890191600101613cbf565b5090965050509285019290850190600101613c9d565b602081525f611d8b6020830184613710565b634e487b7160e01b5f52602160045260245ffd5b634e487b7160e01b5f52603260045260245ffd5b600181811c90821680613d3f57607f821691505b602082108103613d5d57634e487b7160e01b5f52602260045260245ffd5b50919050565b634e487b7160e01b5f52601160045260245ffd5b8082018082111561196a5761196a613d63565b808202811582820484141761196a5761196a613d63565b5f82613dbb57634e487b7160e01b5f52601260045260245ffd5b500490565b8181038181111561196a5761196a613d63565b601f821115610d4557805f5260205f20601f840160051c81016020851015613df85750805b601f840160051c820191505b818110156128f3575f8155600101613e04565b815167ffffffffffffffff811115613e3157613e316139c0565b613e4581613e3f8454613d2b565b84613dd3565b602080601f831160018114613e78575f8415613e615750858301515b5f19600386901b1c1916600185901b178555613ecf565b5f85815260208120601f198616915b82811015613ea657888601518255948401946001909101908401613e87565b5085821015613ec357878501515f19600388901b60f8161c191681555b505060018460011b0185555b505050505050565b5f60208284031215613ee7575f80fd5b8151611d8b81613916565b5f60208284031215613f02575f80fd5b5051919050565b5f60208284031215613f19575f80fd5b8151611d8b816137bb565b5f8251613f358184602087016136ee565b919091019291505056fea26469706673582212200b31b582e8b83676832c443d46b28277588033fa62b448a17f86dce7e6de7c4964736f6c63430008190033","linkReferences":{}},"methodIdentifiers":{"acceptImplementation()":"15ba56e5","acceptOwnership()":"79ba5097","add(uint256,address,string,bool)":"cca8d956","becomeImplementation(address)":"eaac8c32","boosterMultiplier()":"6f52daaf","bridge()":"e78cea92","bridgePool(uint256)":"cdb7657f","dai()":"f4b9fa75","deposit(uint256,uint256,uint256)":"00aeef8a","depositDai(uint256,uint256)":"5dfd7e9b","depositEth(uint256,uint8)":"e8760c14","depositStEth(uint256,uint256)":"958df164","depositWeth(uint256,uint256,uint8)":"9644369c","depositeEth(uint256,uint256)":"51bd7875","eETH()":"0de371e2","eETHLiquidityPool()":"72e26a6f","endBlock()":"083c6323","endBlockForWithdrawals()":"beece24b","getBlockNumber()":"42cbb15c","getMaxAdditionalBoost(address,uint256)":"6e910bfd","getOptimizedUserInfo(address[])":"99d8f74a","getPendingPoints(address[])":"fff52ee8","getPoolInfo()":"60246c88","heldProceeds(uint256)":"7a94c068","implementation()":"5c60da1b","increaseBoost(uint256,uint256)":"47c8b1a9","initialize(uint256,uint256,uint256,uint256,uint256)":"dcbab608","isBridged(uint256)":"933f3958","isFarmingEnded()":"de26c3c6","isWithdrawPeriodEnded()":"12863f02","massUpdatePools()":"630b5ba1","owner()":"8da5cb5b","pendingImplementation()":"396f7b23","pendingOwner()":"e30c3978","pendingPoints(uint256,address)":"a8a77a19","pointsPerBlock()":"3fdb1e8f","poolExists(address)":"1e1c6a07","poolInfo(uint256)":"1526fe27","poolLength()":"081e3eda","renounceOwnership()":"715018a6","replaceImplementation(address)":"d69efdc5","revertFailedBridge(uint256)":"aff206d8","sDAI()":"de8b6149","set(uint256,uint256,bool)":"64482f79","setBoosterMultiplier(uint256)":"2c8e418a","setBridge(address)":"8dd14802","setEndBlock(uint256,uint256)":"1abbeb54","setL2FarmForPool(uint256,address)":"2a4f6df2","setPointsPerBlock(uint256)":"fb8d81f1","setStartBlock(uint256)":"f35e4a6e","stETH()":"c1fe3e48","startBlock()":"48cd4cb1","totalAllocPoint()":"17caf6f1","transferOwnership(address)":"f2fde38b","typeToId(uint8)":"30cdb3c6","updatePool(uint256)":"51eb05a6","userInfo(uint256,address)":"93f1a40b","weETH()":"c72bf7a5","weth()":"3fc8cef3","withdraw(uint256,uint256)":"441a3e70","withdrawProceeds(uint256)":"d9f1aed9","wstETH()":"4aa07e64"},"id":0}