{
  "abi": [
    {
      "inputs": [
        {
          "internalType": "address",
          "name": "_allo",
          "type": "address"
        },
        {
          "internalType": "string",
          "name": "_name",
          "type": "string"
        }
      ],
      "stateMutability": "nonpayable",
      "type": "constructor"
    },
    {
      "inputs": [],
      "name": "ALLOCATION_ACTIVE",
      "type": "error"
    },
    {
      "inputs": [],
      "name": "ALLOCATION_NOT_ACTIVE",
      "type": "error"
    },
    {
      "inputs": [],
      "name": "ALLOCATION_NOT_ENDED",
      "type": "error"
    },
    {
      "inputs": [],
      "name": "ALREADY_INITIALIZED",
      "type": "error"
    },
    {
      "inputs": [],
      "name": "AMOUNT_MISMATCH",
      "type": "error"
    },
    {
      "inputs": [],
      "name": "ANCHOR_ERROR",
      "type": "error"
    },
    {
      "inputs": [],
      "name": "ARRAY_MISMATCH",
      "type": "error"
    },
    {
      "inputs": [],
      "name": "INVALID",
      "type": "error"
    },
    {
      "inputs": [],
      "name": "INVALID_ADDRESS",
      "type": "error"
    },
    {
      "inputs": [],
      "name": "INVALID_FEE",
      "type": "error"
    },
    {
      "inputs": [],
      "name": "INVALID_METADATA",
      "type": "error"
    },
    {
      "inputs": [],
      "name": "INVALID_REGISTRATION",
      "type": "error"
    },
    {
      "inputs": [],
      "name": "IS_APPROVED_STRATEGY",
      "type": "error"
    },
    {
      "inputs": [],
      "name": "MISMATCH",
      "type": "error"
    },
    {
      "inputs": [],
      "name": "NONCE_NOT_AVAILABLE",
      "type": "error"
    },
    {
      "inputs": [],
      "name": "NOT_APPROVED_STRATEGY",
      "type": "error"
    },
    {
      "inputs": [],
      "name": "NOT_ENOUGH_FUNDS",
      "type": "error"
    },
    {
      "inputs": [],
      "name": "NOT_INITIALIZED",
      "type": "error"
    },
    {
      "inputs": [],
      "name": "NOT_PENDING_OWNER",
      "type": "error"
    },
    {
      "inputs": [],
      "name": "POOL_ACTIVE",
      "type": "error"
    },
    {
      "inputs": [],
      "name": "POOL_INACTIVE",
      "type": "error"
    },
    {
      "inputs": [],
      "name": "RECIPIENT_ALREADY_ACCEPTED",
      "type": "error"
    },
    {
      "inputs": [
        {
          "internalType": "address",
          "name": "recipientId",
          "type": "address"
        }
      ],
      "name": "RECIPIENT_ERROR",
      "type": "error"
    },
    {
      "inputs": [],
      "name": "RECIPIENT_NOT_ACCEPTED",
      "type": "error"
    },
    {
      "inputs": [],
      "name": "REGISTRATION_NOT_ACTIVE",
      "type": "error"
    },
    {
      "inputs": [],
      "name": "UNAUTHORIZED",
      "type": "error"
    },
    {
      "inputs": [],
      "name": "ZERO_ADDRESS",
      "type": "error"
    },
    {
      "anonymous": false,
      "inputs": [
        {
          "indexed": true,
          "internalType": "address",
          "name": "recipientId",
          "type": "address"
        },
        {
          "indexed": false,
          "internalType": "uint256",
          "name": "amount",
          "type": "uint256"
        },
        {
          "indexed": false,
          "internalType": "address",
          "name": "token",
          "type": "address"
        },
        {
          "indexed": false,
          "internalType": "address",
          "name": "sender",
          "type": "address"
        }
      ],
      "name": "Allocated",
      "type": "event"
    },
    {
      "anonymous": false,
      "inputs": [
        {
          "indexed": true,
          "internalType": "address",
          "name": "recipientId",
          "type": "address"
        },
        {
          "indexed": false,
          "internalType": "address",
          "name": "recipientAddress",
          "type": "address"
        },
        {
          "indexed": false,
          "internalType": "uint256",
          "name": "amount",
          "type": "uint256"
        },
        {
          "indexed": false,
          "internalType": "address",
          "name": "token",
          "type": "address"
        }
      ],
      "name": "Claimed",
      "type": "event"
    },
    {
      "anonymous": false,
      "inputs": [
        {
          "indexed": true,
          "internalType": "address",
          "name": "recipientId",
          "type": "address"
        },
        {
          "indexed": false,
          "internalType": "address",
          "name": "recipientAddress",
          "type": "address"
        },
        {
          "indexed": false,
          "internalType": "uint256",
          "name": "amount",
          "type": "uint256"
        },
        {
          "indexed": false,
          "internalType": "address",
          "name": "sender",
          "type": "address"
        }
      ],
      "name": "Distributed",
      "type": "event"
    },
    {
      "anonymous": false,
      "inputs": [
        {
          "indexed": false,
          "internalType": "address",
          "name": "allo",
          "type": "address"
        },
        {
          "indexed": false,
          "internalType": "bytes32",
          "name": "profileId",
          "type": "bytes32"
        },
        {
          "indexed": false,
          "internalType": "uint256",
          "name": "poolId",
          "type": "uint256"
        },
        {
          "indexed": false,
          "internalType": "bytes",
          "name": "data",
          "type": "bytes"
        }
      ],
      "name": "Initialized",
      "type": "event"
    },
    {
      "anonymous": false,
      "inputs": [
        {
          "indexed": false,
          "internalType": "bool",
          "name": "active",
          "type": "bool"
        }
      ],
      "name": "PoolActive",
      "type": "event"
    },
    {
      "anonymous": false,
      "inputs": [
        {
          "indexed": true,
          "internalType": "address",
          "name": "recipientId",
          "type": "address"
        },
        {
          "indexed": false,
          "internalType": "enum IStrategy.Status",
          "name": "recipientStatus",
          "type": "uint8"
        },
        {
          "indexed": false,
          "internalType": "address",
          "name": "sender",
          "type": "address"
        }
      ],
      "name": "RecipientStatusUpdated",
      "type": "event"
    },
    {
      "anonymous": false,
      "inputs": [
        {
          "indexed": true,
          "internalType": "address",
          "name": "recipientId",
          "type": "address"
        },
        {
          "indexed": false,
          "internalType": "bytes",
          "name": "data",
          "type": "bytes"
        },
        {
          "indexed": false,
          "internalType": "address",
          "name": "sender",
          "type": "address"
        }
      ],
      "name": "Registered",
      "type": "event"
    },
    {
      "anonymous": false,
      "inputs": [
        {
          "indexed": false,
          "internalType": "uint64",
          "name": "allocationStartTime",
          "type": "uint64"
        },
        {
          "indexed": false,
          "internalType": "uint64",
          "name": "allocationEndTime",
          "type": "uint64"
        },
        {
          "indexed": false,
          "internalType": "address",
          "name": "sender",
          "type": "address"
        }
      ],
      "name": "TimestampsUpdated",
      "type": "event"
    },
    {
      "anonymous": false,
      "inputs": [
        {
          "indexed": true,
          "internalType": "address",
          "name": "recipientId",
          "type": "address"
        },
        {
          "indexed": false,
          "internalType": "bytes",
          "name": "data",
          "type": "bytes"
        },
        {
          "indexed": false,
          "internalType": "address",
          "name": "sender",
          "type": "address"
        },
        {
          "indexed": false,
          "internalType": "enum IStrategy.Status",
          "name": "status",
          "type": "uint8"
        }
      ],
      "name": "UpdatedRegistration",
      "type": "event"
    },
    {
      "inputs": [],
      "name": "NATIVE",
      "outputs": [
        {
          "internalType": "address",
          "name": "",
          "type": "address"
        }
      ],
      "stateMutability": "view",
      "type": "function"
    },
    {
      "inputs": [
        {
          "internalType": "bytes",
          "name": "_data",
          "type": "bytes"
        },
        {
          "internalType": "address",
          "name": "_sender",
          "type": "address"
        }
      ],
      "name": "allocate",
      "outputs": [],
      "stateMutability": "payable",
      "type": "function"
    },
    {
      "inputs": [],
      "name": "allocationEndTime",
      "outputs": [
        {
          "internalType": "uint64",
          "name": "",
          "type": "uint64"
        }
      ],
      "stateMutability": "view",
      "type": "function"
    },
    {
      "inputs": [],
      "name": "allocationStartTime",
      "outputs": [
        {
          "internalType": "uint64",
          "name": "",
          "type": "uint64"
        }
      ],
      "stateMutability": "view",
      "type": "function"
    },
    {
      "inputs": [
        {
          "internalType": "address",
          "name": "",
          "type": "address"
        }
      ],
      "name": "allocations",
      "outputs": [
        {
          "internalType": "uint256",
          "name": "",
          "type": "uint256"
        }
      ],
      "stateMutability": "view",
      "type": "function"
    },
    {
      "inputs": [],
      "name": "currentWinner",
      "outputs": [
        {
          "internalType": "address",
          "name": "",
          "type": "address"
        }
      ],
      "stateMutability": "view",
      "type": "function"
    },
    {
      "inputs": [
        {
          "internalType": "address[]",
          "name": "_recipientIds",
          "type": "address[]"
        },
        {
          "internalType": "bytes",
          "name": "_data",
          "type": "bytes"
        },
        {
          "internalType": "address",
          "name": "_sender",
          "type": "address"
        }
      ],
      "name": "distribute",
      "outputs": [],
      "stateMutability": "nonpayable",
      "type": "function"
    },
    {
      "inputs": [],
      "name": "getAllo",
      "outputs": [
        {
          "internalType": "contract IAllo",
          "name": "",
          "type": "address"
        }
      ],
      "stateMutability": "view",
      "type": "function"
    },
    {
      "inputs": [
        {
          "internalType": "address[]",
          "name": "_recipientIds",
          "type": "address[]"
        },
        {
          "internalType": "bytes[]",
          "name": "_data",
          "type": "bytes[]"
        }
      ],
      "name": "getPayouts",
      "outputs": [
        {
          "components": [
            {
              "internalType": "address",
              "name": "recipientAddress",
              "type": "address"
            },
            {
              "internalType": "uint256",
              "name": "amount",
              "type": "uint256"
            }
          ],
          "internalType": "struct IStrategy.PayoutSummary[]",
          "name": "",
          "type": "tuple[]"
        }
      ],
      "stateMutability": "view",
      "type": "function"
    },
    {
      "inputs": [],
      "name": "getPoolAmount",
      "outputs": [
        {
          "internalType": "uint256",
          "name": "",
          "type": "uint256"
        }
      ],
      "stateMutability": "view",
      "type": "function"
    },
    {
      "inputs": [],
      "name": "getPoolId",
      "outputs": [
        {
          "internalType": "uint256",
          "name": "",
          "type": "uint256"
        }
      ],
      "stateMutability": "view",
      "type": "function"
    },
    {
      "inputs": [
        {
          "internalType": "address",
          "name": "_recipientId",
          "type": "address"
        }
      ],
      "name": "getRecipientStatus",
      "outputs": [
        {
          "internalType": "enum IStrategy.Status",
          "name": "",
          "type": "uint8"
        }
      ],
      "stateMutability": "view",
      "type": "function"
    },
    {
      "inputs": [],
      "name": "getStrategyId",
      "outputs": [
        {
          "internalType": "bytes32",
          "name": "",
          "type": "bytes32"
        }
      ],
      "stateMutability": "view",
      "type": "function"
    },
    {
      "inputs": [
        {
          "internalType": "uint256",
          "name": "_amount",
          "type": "uint256"
        }
      ],
      "name": "increasePoolAmount",
      "outputs": [],
      "stateMutability": "nonpayable",
      "type": "function"
    },
    {
      "inputs": [
        {
          "internalType": "uint256",
          "name": "_poolId",
          "type": "uint256"
        },
        {
          "internalType": "bytes",
          "name": "_data",
          "type": "bytes"
        }
      ],
      "name": "initialize",
      "outputs": [],
      "stateMutability": "nonpayable",
      "type": "function"
    },
    {
      "inputs": [],
      "name": "isPoolActive",
      "outputs": [
        {
          "internalType": "bool",
          "name": "",
          "type": "bool"
        }
      ],
      "stateMutability": "view",
      "type": "function"
    },
    {
      "inputs": [
        {
          "internalType": "address",
          "name": "_allocator",
          "type": "address"
        }
      ],
      "name": "isValidAllocator",
      "outputs": [
        {
          "internalType": "bool",
          "name": "",
          "type": "bool"
        }
      ],
      "stateMutability": "view",
      "type": "function"
    },
    {
      "inputs": [],
      "name": "nftFactory",
      "outputs": [
        {
          "internalType": "contract NFTFactory",
          "name": "",
          "type": "address"
        }
      ],
      "stateMutability": "view",
      "type": "function"
    },
    {
      "inputs": [
        {
          "internalType": "bytes",
          "name": "_data",
          "type": "bytes"
        },
        {
          "internalType": "address",
          "name": "_sender",
          "type": "address"
        }
      ],
      "name": "registerRecipient",
      "outputs": [
        {
          "internalType": "address",
          "name": "recipientId",
          "type": "address"
        }
      ],
      "stateMutability": "payable",
      "type": "function"
    },
    {
      "inputs": [
        {
          "internalType": "uint64",
          "name": "_allocationStartTime",
          "type": "uint64"
        },
        {
          "internalType": "uint64",
          "name": "_allocationEndTime",
          "type": "uint64"
        }
      ],
      "name": "setAllocationTimes",
      "outputs": [],
      "stateMutability": "nonpayable",
      "type": "function"
    }
  ],
  "bytecode": {
    "object": "0x60c06040523480156200001157600080fd5b506040516200198c3803806200198c8339810160408190526200003491620000bf565b6001600160a01b03821660805260405182908290620000589082906020016200019a565b60408051601f19818403018152919052805160209091012060a0525050600160035550620001cf9050565b634e487b7160e01b600052604160045260246000fd5b60005b83811015620000b65781810151838201526020016200009c565b50506000910152565b60008060408385031215620000d357600080fd5b82516001600160a01b0381168114620000eb57600080fd5b60208401519092506001600160401b03808211156200010957600080fd5b818501915085601f8301126200011e57600080fd5b81518181111562000133576200013362000083565b604051601f8201601f19908116603f011681019083821181831017156200015e576200015e62000083565b816040528281528860208487010111156200017857600080fd5b6200018b83602083016020880162000099565b80955050505050509250929050565b6020815260008251806020840152620001bb81604085016020870162000099565b601f01601f19169190910160400192915050565b60805160a0516117826200020a60003960006102130152600081816101950152818161066801528181610722015261089901526117826000f3fe60806040526004361061015f5760003560e01c8063a0cf0aea116100c0578063df868ed311610074578063edd146cc11610059578063edd146cc1461040e578063ef2920fc1461042e578063f5b0dfb71461044157600080fd5b8063df868ed3146103cc578063eb11af93146103e157600080fd5b8063b2b878d0116100a5578063b2b878d014610357578063d2e17f5914610384578063d63843cd146103ac57600080fd5b8063a0cf0aea14610303578063aabe2fe31461032b57600080fd5b80634533d678116101175780634d31d087116100fc5780634d31d0871461028657806352a9039c146102b65780639d61fac3146102e357600080fd5b80634533d678146102375780634ab4ba421461027157600080fd5b80632bbe0cae116101485780632bbe0cae146101d257806338fff2d0146101e557806342fda9c71461020457600080fd5b80630a6f0ee91461016457806315cc481e14610186575b600080fd5b34801561017057600080fd5b5061018461017f366004611209565b610461565b005b34801561019257600080fd5b507f00000000000000000000000000000000000000000000000000000000000000005b6040516001600160a01b0390911681526020015b60405180910390f35b6101b56101e0366004611281565b610481565b3480156101f157600080fd5b506001545b6040519081526020016101c9565b34801561021057600080fd5b507f00000000000000000000000000000000000000000000000000000000000000006101f6565b34801561024357600080fd5b506005546102589067ffffffffffffffff1681565b60405167ffffffffffffffff90911681526020016101c9565b34801561027d57600080fd5b506002546101f6565b34801561029257600080fd5b506102a66102a13660046112d3565b6104a4565b60405190151581526020016101c9565b3480156102c257600080fd5b506101f66102d13660046112d3565b60066020526000908152604090205481565b3480156102ef57600080fd5b506101846102fe36600461130d565b6104ad565b34801561030f57600080fd5b506101b573eeeeeeeeeeeeeeeeeeeeeeeeeeeeeeeeeeeeeeee81565b34801561033757600080fd5b506005546101b5906801000000000000000090046001600160a01b031681565b34801561036357600080fd5b5061037761037236600461133b565b6104c1565b6040516101c99190611410565b34801561039057600080fd5b5060045461025890600160a01b900467ffffffffffffffff1681565b3480156103b857600080fd5b506004546101b5906001600160a01b031681565b3480156103d857600080fd5b506102a66105d9565b3480156103ed57600080fd5b506104016103fc3660046112d3565b6105e8565b6040516101c99190611468565b34801561041a57600080fd5b50610184610429366004611490565b6105f3565b61018461043c366004611281565b610615565b34801561044d57600080fd5b5061018461045c3660046114d7565b610633565b61046961065d565b6104716106a8565b61047c8383836106e4565b505050565b600061048b61065d565b6104936106a8565b61049b600080fd5b90505b92915050565b6000600161049e565b336104b781610856565b61047c8383610921565b81518151606091908114610501576040517f7b49805600000000000000000000000000000000000000000000000000000000815260040160405180910390fd5b60008167ffffffffffffffff81111561051c5761051c611050565b60405190808252806020026020018201604052801561056157816020015b604080518082019091526000808252602082015281526020019060019003908161053a5790505b50905060005b828110156105d0576105ab868281518110610584576105846114f0565b602002602001015186838151811061059e5761059e6114f0565b60200260200101516109d3565b8282815181106105bd576105bd6114f0565b6020908102919091010152600101610567565b50949350505050565b60006105e3610a5e565b905090565b600061049e82610a94565b6000818060200190518101906106099190611506565b905061047c8382610b34565b61061d61065d565b6106256106a8565b61062f8282610c5a565b5050565b61063b61065d565b806002600082825461064d9190611578565b9091555061065a90508181565b50565b336001600160a01b037f000000000000000000000000000000000000000000000000000000000000000016146106a65760405163075fd2b160e01b815260040160405180910390fd5b565b6001546000036106a6576040517f3da3f98c00000000000000000000000000000000000000000000000000000000815260040160405180910390fd5b6106ec610ea9565b6001546040517f068bcd8d0000000000000000000000000000000000000000000000000000000081526000916001600160a01b037f0000000000000000000000000000000000000000000000000000000000000000169163068bcd8d916107599160040190815260200190565b600060405180830381865afa158015610776573d6000803e3d6000fd5b505050506040513d6000823e601f3d908101601f1916820160405261079e9190810190611599565b90506002546000036107c357604051637fcce2a960e01b815260040160405180910390fd5b6002600090556107ef8160400151600560089054906101000a90046001600160a01b0316600254610eef565b60055460025460408051680100000000000000009093046001600160a01b039081168085526020850193909352851690830152907fb5b51454adfa840bd593658325a60a50b0216f12eb5d2937efe6cea935675b7d9060600160405180910390a250505050565b6001546040517f29e40d4b00000000000000000000000000000000000000000000000000000000815260048101919091526001600160a01b0382811660248301527f000000000000000000000000000000000000000000000000000000000000000016906329e40d4b90604401602060405180830381865afa1580156108e0573d6000803e3d6000fd5b505050506040513d601f19601f8201168201806040525081019061090491906116d2565b61065a5760405163075fd2b160e01b815260040160405180910390fd5b61092b8282610f34565b600480547fffffffff0000000000000000ffffffffffffffffffffffffffffffffffffffff16600160a01b67ffffffffffffffff858116820292909217928390556005805467ffffffffffffffff191685841690811790915560408051929094049092168152602081019190915233918101919091527f70d34c8836b996cffd8970ba5edf940d83ca7c8f30f738ea4fd8566a37d93359906060015b60405180910390a15050565b60408051808201909152600080825260208201526005546001600160a01b03848116680100000000000000009092041614610a2b5750604080518082019091526001600160a01b03831681526000602082015261049e565b5050604080518082019091526005546801000000000000000090046001600160a01b031681526002546020820152919050565b60045460009042600160a01b90910467ffffffffffffffff16118015906105e357505060055467ffffffffffffffff1642111590565b600480546040517f09aaf6840000000000000000000000000000000000000000000000000000000081526001600160a01b0384811693820193909352600092909116906309aaf68490602401602060405180830381865afa158015610afd573d6000803e3d6000fd5b505050506040513d601f19601f82011682018060405250810190610b2191906116d2565b610b2c57600061049e565b600292915050565b610b3d82610f7d565b8051600480547fffffffffffffffffffffffff0000000000000000000000000000000000000000166001600160a01b039092169182179055610b9257604051637fcce2a960e01b815260040160405180910390fd5b6020810151600480547fffffffff0000000000000000ffffffffffffffffffffffffffffffffffffffff16600160a01b67ffffffffffffffff9384168102919091179182905560408401516005805467ffffffffffffffff19169185169182179055610c0393919092041690610f34565b60045460055460408051600160a01b90930467ffffffffffffffff9081168452909116602083015233908201527f70d34c8836b996cffd8970ba5edf940d83ca7c8f30f738ea4fd8566a37d93359906060016109c7565b600082806020019051810190610c7091906116f4565b90506000816001600160a01b031663c002d23d6040518163ffffffff1660e01b8152600401602060405180830381865afa158015610cb2573d6000803e3d6000fd5b505050506040513d601f19601f82011682018060405250810190610cd69190611711565b9050341580610ce457508034105b15610d0257604051637fcce2a960e01b815260040160405180910390fd5b6000610d0e823461172a565b905060005b81811015610d9d576040517f755edd170000000000000000000000000000000000000000000000000000000081526001600160a01b03868116600483015285169063755edd179085906024016000604051808303818588803b158015610d7857600080fd5b505af1158015610d8c573d6000803e3d6000fd5b505060019093019250610d13915050565b506001600160a01b03831660009081526006602052604081208054839290610dc6908490611578565b90915550506005546001600160a01b036801000000000000000090910481166000908152600660205260408082205492861682529020541115610e4257600580547fffffffff0000000000000000000000000000000000000000ffffffffffffffff16680100000000000000006001600160a01b038616021790555b6040805182815273eeeeeeeeeeeeeeeeeeeeeeeeeeeeeeeeeeeeeeee60208201526001600160a01b03868116828401529151918516917f463ffc2cf8b1596445c417388ed30e53eb67cf6668cb2be7f0addf8a78c8441b9181900360600190a25050505050565b60055467ffffffffffffffff164210156106a6576040517f8a879da200000000000000000000000000000000000000000000000000000000815260040160405180910390fd5b7fffffffffffffffffffffffff11111111111111111111111111111111111111126001600160a01b03841601610f295761047c8282610fe5565b61047c838383611001565b8167ffffffffffffffff16421180610f5f57508067ffffffffffffffff168267ffffffffffffffff16115b1561062f57604051637fcce2a960e01b815260040160405180910390fd5b610f8561065d565b60015415610fbf576040517f439a74c900000000000000000000000000000000000000000000000000000000815260040160405180910390fd5b80600003610fe057604051637fcce2a960e01b815260040160405180910390fd5b600155565b60008060008084865af161062f5763b12d13eb6000526004601cfd5b81601452806034526fa9059cbb00000000000000000000000060005260206000604460106000875af13d156001600051141716611046576390b8ec186000526004601cfd5b6000603452505050565b634e487b7160e01b600052604160045260246000fd5b60405160c0810167ffffffffffffffff8111828210171561108957611089611050565b60405290565b6040805190810167ffffffffffffffff8111828210171561108957611089611050565b604051601f8201601f1916810167ffffffffffffffff811182821017156110db576110db611050565b604052919050565b600067ffffffffffffffff8211156110fd576110fd611050565b5060051b60200190565b6001600160a01b038116811461065a57600080fd5b600082601f83011261112d57600080fd5b8135602061114261113d836110e3565b6110b2565b82815260059290921b8401810191818101908684111561116157600080fd5b8286015b8481101561118557803561117881611107565b8352918301918301611165565b509695505050505050565b600067ffffffffffffffff8211156111aa576111aa611050565b50601f01601f191660200190565b600082601f8301126111c957600080fd5b81356111d761113d82611190565b8181528460208386010111156111ec57600080fd5b816020850160208301376000918101602001919091529392505050565b60008060006060848603121561121e57600080fd5b833567ffffffffffffffff8082111561123657600080fd5b6112428783880161111c565b9450602086013591508082111561125857600080fd5b50611265868287016111b8565b925050604084013561127681611107565b809150509250925092565b6000806040838503121561129457600080fd5b823567ffffffffffffffff8111156112ab57600080fd5b6112b7858286016111b8565b92505060208301356112c881611107565b809150509250929050565b6000602082840312156112e557600080fd5b81356112f081611107565b9392505050565b67ffffffffffffffff8116811461065a57600080fd5b6000806040838503121561132057600080fd5b823561132b816112f7565b915060208301356112c8816112f7565b6000806040838503121561134e57600080fd5b823567ffffffffffffffff8082111561136657600080fd5b6113728683870161111c565b935060209150818501358181111561138957600080fd5b8501601f8101871361139a57600080fd5b80356113a861113d826110e3565b81815260059190911b820184019084810190898311156113c757600080fd5b8584015b838110156113ff578035868111156113e35760008081fd5b6113f18c89838901016111b8565b8452509186019186016113cb565b508096505050505050509250929050565b602080825282518282018190526000919060409081850190868401855b8281101561145b57815180516001600160a01b0316855286015186850152928401929085019060010161142d565b5091979650505050505050565b602081016007831061148a57634e487b7160e01b600052602160045260246000fd5b91905290565b600080604083850312156114a357600080fd5b82359150602083013567ffffffffffffffff8111156114c157600080fd5b6114cd858286016111b8565b9150509250929050565b6000602082840312156114e957600080fd5b5035919050565b634e487b7160e01b600052603260045260246000fd5b60006060828403121561151857600080fd5b6040516060810181811067ffffffffffffffff8211171561153b5761153b611050565b604052825161154981611107565b81526020830151611559816112f7565b6020820152604083015161156c816112f7565b60408201529392505050565b8082018082111561049e57634e487b7160e01b600052601160045260246000fd5b600060208083850312156115ac57600080fd5b825167ffffffffffffffff808211156115c457600080fd5b9084019060c082870312156115d857600080fd5b6115e0611066565b82518152838301516115f181611107565b81850152604083015161160381611107565b604082015260608301518281111561161a57600080fd5b83016040818903121561162c57600080fd5b61163461108f565b81518152858201518481111561164957600080fd5b82019350601f8401891361165c57600080fd5b8351915061166c61113d83611190565b828152898784870101111561168057600080fd5b60005b8381101561169e578581018801518282018901528701611683565b506000928101870192909252948501526060810193909352506080818101519083015260a090810151908201529392505050565b6000602082840312156116e457600080fd5b815180151581146112f057600080fd5b60006020828403121561170657600080fd5b81516112f081611107565b60006020828403121561172357600080fd5b5051919050565b60008261174757634e487b7160e01b600052601260045260246000fd5b50049056fea26469706673582212206915aba8517d81894cda93a3548cfc6a45c62cc858fbd01c668d03b45a6506e764736f6c63430008130033",
    "linkReferences": {}
  },
  "methodIdentifiers": {
    "NATIVE()": "a0cf0aea",
    "allocate(bytes,address)": "ef2920fc",
    "allocationEndTime()": "4533d678",
    "allocationStartTime()": "d2e17f59",
    "allocations(address)": "52a9039c",
    "currentWinner()": "aabe2fe3",
    "distribute(address[],bytes,address)": "0a6f0ee9",
    "getAllo()": "15cc481e",
    "getPayouts(address[],bytes[])": "b2b878d0",
    "getPoolAmount()": "4ab4ba42",
    "getPoolId()": "38fff2d0",
    "getRecipientStatus(address)": "eb11af93",
    "getStrategyId()": "42fda9c7",
    "increasePoolAmount(uint256)": "f5b0dfb7",
    "initialize(uint256,bytes)": "edd146cc",
    "isPoolActive()": "df868ed3",
    "isValidAllocator(address)": "4d31d087",
    "nftFactory()": "d63843cd",
    "registerRecipient(bytes,address)": "2bbe0cae",
    "setAllocationTimes(uint64,uint64)": "9d61fac3"
  },
  "storageLayout": {
    "storage": [
      {
        "astId": 3267,
        "contract": "contracts/strategies/_poc/wrapped-voting-nftmint/WrappedVotingNftMintStrategy.sol:WrappedVotingNftMintStrategy",
        "label": "poolActive",
        "offset": 0,
        "slot": "0",
        "type": "t_bool"
      },
      {
        "astId": 3269,
        "contract": "contracts/strategies/_poc/wrapped-voting-nftmint/WrappedVotingNftMintStrategy.sol:WrappedVotingNftMintStrategy",
        "label": "poolId",
        "offset": 0,
        "slot": "1",
        "type": "t_uint256"
      },
      {
        "astId": 3271,
        "contract": "contracts/strategies/_poc/wrapped-voting-nftmint/WrappedVotingNftMintStrategy.sol:WrappedVotingNftMintStrategy",
        "label": "poolAmount",
        "offset": 0,
        "slot": "2",
        "type": "t_uint256"
      },
      {
        "astId": 62206,
        "contract": "contracts/strategies/_poc/wrapped-voting-nftmint/WrappedVotingNftMintStrategy.sol:WrappedVotingNftMintStrategy",
        "label": "_status",
        "offset": 0,
        "slot": "3",
        "type": "t_uint256"
      },
      {
        "astId": 12013,
        "contract": "contracts/strategies/_poc/wrapped-voting-nftmint/WrappedVotingNftMintStrategy.sol:WrappedVotingNftMintStrategy",
        "label": "nftFactory",
        "offset": 0,
        "slot": "4",
        "type": "t_contract(NFTFactory)11929"
      },
      {
        "astId": 12015,
        "contract": "contracts/strategies/_poc/wrapped-voting-nftmint/WrappedVotingNftMintStrategy.sol:WrappedVotingNftMintStrategy",
        "label": "allocationStartTime",
        "offset": 20,
        "slot": "4",
        "type": "t_uint64"
      },
      {
        "astId": 12017,
        "contract": "contracts/strategies/_poc/wrapped-voting-nftmint/WrappedVotingNftMintStrategy.sol:WrappedVotingNftMintStrategy",
        "label": "allocationEndTime",
        "offset": 0,
        "slot": "5",
        "type": "t_uint64"
      },
      {
        "astId": 12019,
        "contract": "contracts/strategies/_poc/wrapped-voting-nftmint/WrappedVotingNftMintStrategy.sol:WrappedVotingNftMintStrategy",
        "label": "currentWinner",
        "offset": 8,
        "slot": "5",
        "type": "t_address"
      },
      {
        "astId": 12023,
        "contract": "contracts/strategies/_poc/wrapped-voting-nftmint/WrappedVotingNftMintStrategy.sol:WrappedVotingNftMintStrategy",
        "label": "allocations",
        "offset": 0,
        "slot": "6",
        "type": "t_mapping(t_address,t_uint256)"
      }
    ],
    "types": {
      "t_address": {
        "encoding": "inplace",
        "label": "address",
        "numberOfBytes": "20"
      },
      "t_bool": {
        "encoding": "inplace",
        "label": "bool",
        "numberOfBytes": "1"
      },
      "t_contract(NFTFactory)11929": {
        "encoding": "inplace",
        "label": "contract NFTFactory",
        "numberOfBytes": "20"
      },
      "t_mapping(t_address,t_uint256)": {
        "encoding": "mapping",
        "key": "t_address",
        "label": "mapping(address => uint256)",
        "numberOfBytes": "32",
        "value": "t_uint256"
      },
      "t_uint256": {
        "encoding": "inplace",
        "label": "uint256",
        "numberOfBytes": "32"
      },
      "t_uint64": {
        "encoding": "inplace",
        "label": "uint64",
        "numberOfBytes": "8"
      }
    }
  },
  "id": 26
}