{
  "abi": [
    {
      "inputs": [],
      "stateMutability": "nonpayable",
      "type": "constructor"
    },
    {
      "inputs": [],
      "name": "getPriceUSD",
      "outputs": [
        {
          "internalType": "uint256",
          "name": "",
          "type": "uint256"
        }
      ],
      "stateMutability": "view",
      "type": "function"
    }
  ],
  "bytecode": {
    "object": "0x608060405234801561001057600080fd5b50600080546001600160a01b031990811673773616e4d11a78f511299002da57a0a94577f1f41790915560018054821673982152a6c7f732ec7c9ea998ddd9ebde00dfa16e179055600280549091169055610469806100706000396000f3fe608060405234801561001057600080fd5b506004361061002b5760003560e01c806357a9579e14610030575b600080fd5b61003861004a565b60405190815260200160405180910390f35b604080516001808252818301909252600091829190602080830190803683370190505090507360594a405d53811d3bc4766596efd80fd545a270816000815181106100975761009761029b565b6001600160a01b0392831660209182029290920101526001546040516307f7ca9f60e01b815260009291909116906307f7ca9f9061011390670de0b6b3a76400009073c02aaa39b223fe8d0a0e5c4f27ead9083c756cc290736b175474e89094c44da98b954eedeac495271d0f908890610258906004016102b1565b602060405180830381865afa158015610130573d6000803e3d6000fd5b505050506040513d601f19601f82011682018060405250810190610154919061033c565b90506000600260009054906101000a90046001600160a01b03166001600160a01b03166357a9579e6040518163ffffffff1660e01b8152600401602060405180830381865afa1580156101ab573d6000803e3d6000fd5b505050506040513d601f19601f820116820180604052508101906101cf919061033c565b905060008060009054906101000a90046001600160a01b03166001600160a01b031663feaf968c6040518163ffffffff1660e01b815260040160a060405180830381865afa158015610225573d6000803e3d6000fd5b505050506040513d601f19601f820116820180604052508101906102499190610374565b5050509150506002816402540be40061026291906103da565b61026c90856103f9565b6102769190610411565b61028883670de0b6b3a76400006103da565b6102929190610411565b94505050505090565b634e487b7160e01b600052603260045260246000fd5b600060a082016fffffffffffffffffffffffffffffffff88168352602060018060a01b0380891682860152808816604086015260a0606086015282875180855260c087019150838901945060005b8181101561031d5785518416835294840194918401916001016102ff565b50508094505050505063ffffffff831660808301529695505050505050565b60006020828403121561034e57600080fd5b5051919050565b805169ffffffffffffffffffff8116811461036f57600080fd5b919050565b600080600080600060a0868803121561038c57600080fd5b61039586610355565b94506020860151935060408601519250606086015191506103b860808701610355565b90509295509295909350565b634e487b7160e01b600052601160045260246000fd5b60008160001904831182151516156103f4576103f46103c4565b500290565b6000821982111561040c5761040c6103c4565b500190565b60008261042e57634e487b7160e01b600052601260045260246000fd5b50049056fea264697066735822122021aec7ab703c31ba9d5d3a6a95ce5dc457ec0cbd745c53b52e7ae850923b67d264736f6c634300080f0033",
    "linkReferences": {}
  },
  "methodIdentifiers": {
    "getPriceUSD()": "57a9579e"
  },
  "id": 78
}