{"abi":[{"type":"constructor","inputs":[],"stateMutability":"nonpayable"},{"type":"function","name":"implementation","inputs":[],"outputs":[{"name":"","type":"address","internalType":"address"}],"stateMutability":"view"},{"type":"function","name":"owner","inputs":[],"outputs":[{"name":"","type":"address","internalType":"address"}],"stateMutability":"view"},{"type":"function","name":"renounceOwnership","inputs":[],"outputs":[],"stateMutability":"nonpayable"},{"type":"function","name":"replaceImplementation","inputs":[{"name":"impl_","type":"address","internalType":"address"}],"outputs":[],"stateMutability":"nonpayable"},{"type":"function","name":"transferOwnership","inputs":[{"name":"newOwner","type":"address","internalType":"address"}],"outputs":[],"stateMutability":"nonpayable"},{"type":"event","name":"OwnershipTransferred","inputs":[{"name":"previousOwner","type":"address","indexed":true,"internalType":"address"},{"name":"newOwner","type":"address","indexed":true,"internalType":"address"}],"anonymous":false},{"type":"error","name":"OwnableInvalidOwner","inputs":[{"name":"owner","type":"address","internalType":"address"}]},{"type":"error","name":"OwnableUnauthorizedAccount","inputs":[{"name":"account","type":"address","internalType":"address"}]}],"bytecode":{"object":"0x6080604052348015600e575f80fd5b503380603357604051631e4fbdf760e01b81525f600482015260240160405180910390fd5b603a81603f565b50608e565b5f80546001600160a01b038381166001600160a01b0319831681178455604051919092169283917f8be0079c531659141344cd1fd0a4f28419497f9722a3daafe3b4186f6b6457e09190a35050565b6102258061009b5f395ff3fe608060405234801561000f575f80fd5b5060043610610055575f3560e01c80635c60da1b14610059578063715018a6146100885780638da5cb5b14610092578063d69efdc5146100a2578063f2fde38b146100b5575b5f80fd5b60015461006c906001600160a01b031681565b6040516001600160a01b03909116815260200160405180910390f35b6100906100c8565b005b5f546001600160a01b031661006c565b6100906100b03660046101c2565b6100db565b6100906100c33660046101c2565b610105565b6100d0610147565b6100d95f610173565b565b6100e3610147565b600180546001600160a01b0319166001600160a01b0392909216919091179055565b61010d610147565b6001600160a01b03811661013b57604051631e4fbdf760e01b81525f60048201526024015b60405180910390fd5b61014481610173565b50565b5f546001600160a01b031633146100d95760405163118cdaa760e01b8152336004820152602401610132565b5f80546001600160a01b038381166001600160a01b0319831681178455604051919092169283917f8be0079c531659141344cd1fd0a4f28419497f9722a3daafe3b4186f6b6457e09190a35050565b5f602082840312156101d2575f80fd5b81356001600160a01b03811681146101e8575f80fd5b939250505056fea2646970667358221220a6225b6f7bfeda3e6a0c6356a520c804ac04e5e2686a452f175688216110c93664736f6c63430008190033","linkReferences":{}},"methodIdentifiers":{"implementation()":"5c60da1b","owner()":"8da5cb5b","renounceOwnership()":"715018a6","replaceImplementation(address)":"d69efdc5","transferOwnership(address)":"f2fde38b"},"id":20}