{
  "abi": [
    {
      "inputs": [
        {
          "internalType": "address",
          "name": "_allo",
          "type": "address"
        },
        {
          "internalType": "string",
          "name": "_name",
          "type": "string"
        },
        {
          "internalType": "contract ISignatureTransfer",
          "name": "_permit2",
          "type": "address"
        }
      ],
      "stateMutability": "nonpayable",
      "type": "constructor"
    },
    {
      "inputs": [],
      "name": "ALLOCATION_ACTIVE",
      "type": "error"
    },
    {
      "inputs": [],
      "name": "ALLOCATION_NOT_ACTIVE",
      "type": "error"
    },
    {
      "inputs": [],
      "name": "ALLOCATION_NOT_ENDED",
      "type": "error"
    },
    {
      "inputs": [],
      "name": "ALREADY_INITIALIZED",
      "type": "error"
    },
    {
      "inputs": [],
      "name": "AMOUNT_MISMATCH",
      "type": "error"
    },
    {
      "inputs": [],
      "name": "ANCHOR_ERROR",
      "type": "error"
    },
    {
      "inputs": [],
      "name": "ARRAY_MISMATCH",
      "type": "error"
    },
    {
      "inputs": [],
      "name": "INVALID",
      "type": "error"
    },
    {
      "inputs": [],
      "name": "INVALID_ADDRESS",
      "type": "error"
    },
    {
      "inputs": [],
      "name": "INVALID_FEE",
      "type": "error"
    },
    {
      "inputs": [],
      "name": "INVALID_METADATA",
      "type": "error"
    },
    {
      "inputs": [],
      "name": "INVALID_REGISTRATION",
      "type": "error"
    },
    {
      "inputs": [],
      "name": "IS_APPROVED_STRATEGY",
      "type": "error"
    },
    {
      "inputs": [],
      "name": "MISMATCH",
      "type": "error"
    },
    {
      "inputs": [],
      "name": "NONCE_NOT_AVAILABLE",
      "type": "error"
    },
    {
      "inputs": [],
      "name": "NOT_APPROVED_STRATEGY",
      "type": "error"
    },
    {
      "inputs": [],
      "name": "NOT_ENOUGH_FUNDS",
      "type": "error"
    },
    {
      "inputs": [],
      "name": "NOT_INITIALIZED",
      "type": "error"
    },
    {
      "inputs": [],
      "name": "NOT_PENDING_OWNER",
      "type": "error"
    },
    {
      "inputs": [],
      "name": "POOL_ACTIVE",
      "type": "error"
    },
    {
      "inputs": [],
      "name": "POOL_INACTIVE",
      "type": "error"
    },
    {
      "inputs": [],
      "name": "RECIPIENT_ALREADY_ACCEPTED",
      "type": "error"
    },
    {
      "inputs": [
        {
          "internalType": "address",
          "name": "recipientId",
          "type": "address"
        }
      ],
      "name": "RECIPIENT_ERROR",
      "type": "error"
    },
    {
      "inputs": [],
      "name": "RECIPIENT_NOT_ACCEPTED",
      "type": "error"
    },
    {
      "inputs": [],
      "name": "REGISTRATION_NOT_ACTIVE",
      "type": "error"
    },
    {
      "inputs": [],
      "name": "UNAUTHORIZED",
      "type": "error"
    },
    {
      "inputs": [],
      "name": "ZERO_ADDRESS",
      "type": "error"
    },
    {
      "anonymous": false,
      "inputs": [
        {
          "indexed": true,
          "internalType": "address",
          "name": "recipientId",
          "type": "address"
        },
        {
          "indexed": false,
          "internalType": "uint256",
          "name": "amount",
          "type": "uint256"
        },
        {
          "indexed": false,
          "internalType": "address",
          "name": "token",
          "type": "address"
        },
        {
          "indexed": false,
          "internalType": "address",
          "name": "sender",
          "type": "address"
        }
      ],
      "name": "Allocated",
      "type": "event"
    },
    {
      "anonymous": false,
      "inputs": [
        {
          "indexed": true,
          "internalType": "address",
          "name": "sender",
          "type": "address"
        }
      ],
      "name": "BatchPayoutSuccessful",
      "type": "event"
    },
    {
      "anonymous": false,
      "inputs": [
        {
          "indexed": true,
          "internalType": "address",
          "name": "recipientId",
          "type": "address"
        },
        {
          "indexed": false,
          "internalType": "address",
          "name": "recipientAddress",
          "type": "address"
        },
        {
          "indexed": false,
          "internalType": "uint256",
          "name": "amount",
          "type": "uint256"
        },
        {
          "indexed": false,
          "internalType": "address",
          "name": "sender",
          "type": "address"
        }
      ],
      "name": "Distributed",
      "type": "event"
    },
    {
      "anonymous": false,
      "inputs": [
        {
          "indexed": false,
          "internalType": "bytes32",
          "name": "merkleRoot",
          "type": "bytes32"
        },
        {
          "components": [
            {
              "internalType": "uint256",
              "name": "protocol",
              "type": "uint256"
            },
            {
              "internalType": "string",
              "name": "pointer",
              "type": "string"
            }
          ],
          "indexed": false,
          "internalType": "struct Metadata",
          "name": "metadata",
          "type": "tuple"
        }
      ],
      "name": "DistributionUpdated",
      "type": "event"
    },
    {
      "anonymous": false,
      "inputs": [
        {
          "indexed": false,
          "internalType": "uint256",
          "name": "amount",
          "type": "uint256"
        },
        {
          "indexed": false,
          "internalType": "address",
          "name": "grantee",
          "type": "address"
        },
        {
          "indexed": true,
          "internalType": "address",
          "name": "token",
          "type": "address"
        },
        {
          "indexed": true,
          "internalType": "address",
          "name": "recipientId",
          "type": "address"
        }
      ],
      "name": "FundsDistributed",
      "type": "event"
    },
    {
      "anonymous": false,
      "inputs": [
        {
          "indexed": false,
          "internalType": "address",
          "name": "allo",
          "type": "address"
        },
        {
          "indexed": false,
          "internalType": "bytes32",
          "name": "profileId",
          "type": "bytes32"
        },
        {
          "indexed": false,
          "internalType": "uint256",
          "name": "poolId",
          "type": "uint256"
        },
        {
          "indexed": false,
          "internalType": "bytes",
          "name": "data",
          "type": "bytes"
        }
      ],
      "name": "Initialized",
      "type": "event"
    },
    {
      "anonymous": false,
      "inputs": [
        {
          "indexed": false,
          "internalType": "bool",
          "name": "active",
          "type": "bool"
        }
      ],
      "name": "PoolActive",
      "type": "event"
    },
    {
      "anonymous": false,
      "inputs": [
        {
          "indexed": true,
          "internalType": "uint256",
          "name": "rowIndex",
          "type": "uint256"
        },
        {
          "indexed": false,
          "internalType": "uint256",
          "name": "fullRow",
          "type": "uint256"
        },
        {
          "indexed": false,
          "internalType": "address",
          "name": "sender",
          "type": "address"
        }
      ],
      "name": "RecipientStatusUpdated",
      "type": "event"
    },
    {
      "anonymous": false,
      "inputs": [
        {
          "indexed": true,
          "internalType": "address",
          "name": "recipientId",
          "type": "address"
        },
        {
          "indexed": false,
          "internalType": "bytes",
          "name": "data",
          "type": "bytes"
        },
        {
          "indexed": false,
          "internalType": "address",
          "name": "sender",
          "type": "address"
        }
      ],
      "name": "Registered",
      "type": "event"
    },
    {
      "anonymous": false,
      "inputs": [
        {
          "indexed": false,
          "internalType": "uint64",
          "name": "registrationStartTime",
          "type": "uint64"
        },
        {
          "indexed": false,
          "internalType": "uint64",
          "name": "registrationEndTime",
          "type": "uint64"
        },
        {
          "indexed": false,
          "internalType": "uint64",
          "name": "allocationStartTime",
          "type": "uint64"
        },
        {
          "indexed": false,
          "internalType": "uint64",
          "name": "allocationEndTime",
          "type": "uint64"
        },
        {
          "indexed": false,
          "internalType": "address",
          "name": "sender",
          "type": "address"
        }
      ],
      "name": "TimestampsUpdated",
      "type": "event"
    },
    {
      "anonymous": false,
      "inputs": [
        {
          "indexed": true,
          "internalType": "address",
          "name": "recipientId",
          "type": "address"
        },
        {
          "indexed": false,
          "internalType": "bytes",
          "name": "data",
          "type": "bytes"
        },
        {
          "indexed": false,
          "internalType": "address",
          "name": "sender",
          "type": "address"
        },
        {
          "indexed": false,
          "internalType": "uint8",
          "name": "status",
          "type": "uint8"
        }
      ],
      "name": "UpdatedRegistration",
      "type": "event"
    },
    {
      "inputs": [],
      "name": "NATIVE",
      "outputs": [
        {
          "internalType": "address",
          "name": "",
          "type": "address"
        }
      ],
      "stateMutability": "view",
      "type": "function"
    },
    {
      "inputs": [],
      "name": "PERMIT2",
      "outputs": [
        {
          "internalType": "contract ISignatureTransfer",
          "name": "",
          "type": "address"
        }
      ],
      "stateMutability": "view",
      "type": "function"
    },
    {
      "inputs": [
        {
          "internalType": "bytes",
          "name": "_data",
          "type": "bytes"
        },
        {
          "internalType": "address",
          "name": "_sender",
          "type": "address"
        }
      ],
      "name": "allocate",
      "outputs": [],
      "stateMutability": "payable",
      "type": "function"
    },
    {
      "inputs": [],
      "name": "allocationEndTime",
      "outputs": [
        {
          "internalType": "uint64",
          "name": "",
          "type": "uint64"
        }
      ],
      "stateMutability": "view",
      "type": "function"
    },
    {
      "inputs": [],
      "name": "allocationStartTime",
      "outputs": [
        {
          "internalType": "uint64",
          "name": "",
          "type": "uint64"
        }
      ],
      "stateMutability": "view",
      "type": "function"
    },
    {
      "inputs": [
        {
          "internalType": "address",
          "name": "",
          "type": "address"
        }
      ],
      "name": "allowedTokens",
      "outputs": [
        {
          "internalType": "bool",
          "name": "",
          "type": "bool"
        }
      ],
      "stateMutability": "view",
      "type": "function"
    },
    {
      "inputs": [
        {
          "internalType": "address[]",
          "name": "_recipientIds",
          "type": "address[]"
        },
        {
          "internalType": "bytes",
          "name": "_data",
          "type": "bytes"
        },
        {
          "internalType": "address",
          "name": "_sender",
          "type": "address"
        }
      ],
      "name": "distribute",
      "outputs": [],
      "stateMutability": "nonpayable",
      "type": "function"
    },
    {
      "inputs": [],
      "name": "distributionMetadata",
      "outputs": [
        {
          "internalType": "uint256",
          "name": "protocol",
          "type": "uint256"
        },
        {
          "internalType": "string",
          "name": "pointer",
          "type": "string"
        }
      ],
      "stateMutability": "view",
      "type": "function"
    },
    {
      "inputs": [],
      "name": "distributionStarted",
      "outputs": [
        {
          "internalType": "bool",
          "name": "",
          "type": "bool"
        }
      ],
      "stateMutability": "view",
      "type": "function"
    },
    {
      "inputs": [],
      "name": "getAllo",
      "outputs": [
        {
          "internalType": "contract IAllo",
          "name": "",
          "type": "address"
        }
      ],
      "stateMutability": "view",
      "type": "function"
    },
    {
      "inputs": [
        {
          "internalType": "address[]",
          "name": "_recipientIds",
          "type": "address[]"
        },
        {
          "internalType": "bytes[]",
          "name": "_data",
          "type": "bytes[]"
        }
      ],
      "name": "getPayouts",
      "outputs": [
        {
          "components": [
            {
              "internalType": "address",
              "name": "recipientAddress",
              "type": "address"
            },
            {
              "internalType": "uint256",
              "name": "amount",
              "type": "uint256"
            }
          ],
          "internalType": "struct IStrategy.PayoutSummary[]",
          "name": "",
          "type": "tuple[]"
        }
      ],
      "stateMutability": "view",
      "type": "function"
    },
    {
      "inputs": [],
      "name": "getPoolAmount",
      "outputs": [
        {
          "internalType": "uint256",
          "name": "",
          "type": "uint256"
        }
      ],
      "stateMutability": "view",
      "type": "function"
    },
    {
      "inputs": [],
      "name": "getPoolId",
      "outputs": [
        {
          "internalType": "uint256",
          "name": "",
          "type": "uint256"
        }
      ],
      "stateMutability": "view",
      "type": "function"
    },
    {
      "inputs": [
        {
          "internalType": "address",
          "name": "_recipientId",
          "type": "address"
        }
      ],
      "name": "getRecipient",
      "outputs": [
        {
          "components": [
            {
              "internalType": "bool",
              "name": "useRegistryAnchor",
              "type": "bool"
            },
            {
              "internalType": "address",
              "name": "recipientAddress",
              "type": "address"
            },
            {
              "components": [
                {
                  "internalType": "uint256",
                  "name": "protocol",
                  "type": "uint256"
                },
                {
                  "internalType": "string",
                  "name": "pointer",
                  "type": "string"
                }
              ],
              "internalType": "struct Metadata",
              "name": "metadata",
              "type": "tuple"
            }
          ],
          "internalType": "struct DonationVotingMerkleDistributionBaseStrategy.Recipient",
          "name": "recipient",
          "type": "tuple"
        }
      ],
      "stateMutability": "view",
      "type": "function"
    },
    {
      "inputs": [
        {
          "internalType": "address",
          "name": "_recipientId",
          "type": "address"
        }
      ],
      "name": "getRecipientStatus",
      "outputs": [
        {
          "internalType": "enum IStrategy.Status",
          "name": "",
          "type": "uint8"
        }
      ],
      "stateMutability": "view",
      "type": "function"
    },
    {
      "inputs": [],
      "name": "getStrategyId",
      "outputs": [
        {
          "internalType": "bytes32",
          "name": "",
          "type": "bytes32"
        }
      ],
      "stateMutability": "view",
      "type": "function"
    },
    {
      "inputs": [
        {
          "internalType": "uint256",
          "name": "_index",
          "type": "uint256"
        }
      ],
      "name": "hasBeenDistributed",
      "outputs": [
        {
          "internalType": "bool",
          "name": "",
          "type": "bool"
        }
      ],
      "stateMutability": "view",
      "type": "function"
    },
    {
      "inputs": [
        {
          "internalType": "uint256",
          "name": "_amount",
          "type": "uint256"
        }
      ],
      "name": "increasePoolAmount",
      "outputs": [],
      "stateMutability": "nonpayable",
      "type": "function"
    },
    {
      "inputs": [
        {
          "internalType": "uint256",
          "name": "_poolId",
          "type": "uint256"
        },
        {
          "internalType": "bytes",
          "name": "_data",
          "type": "bytes"
        }
      ],
      "name": "initialize",
      "outputs": [],
      "stateMutability": "nonpayable",
      "type": "function"
    },
    {
      "inputs": [],
      "name": "isDistributionSet",
      "outputs": [
        {
          "internalType": "bool",
          "name": "",
          "type": "bool"
        }
      ],
      "stateMutability": "view",
      "type": "function"
    },
    {
      "inputs": [],
      "name": "isPoolActive",
      "outputs": [
        {
          "internalType": "bool",
          "name": "",
          "type": "bool"
        }
      ],
      "stateMutability": "view",
      "type": "function"
    },
    {
      "inputs": [
        {
          "internalType": "address",
          "name": "_allocator",
          "type": "address"
        }
      ],
      "name": "isValidAllocator",
      "outputs": [
        {
          "internalType": "bool",
          "name": "",
          "type": "bool"
        }
      ],
      "stateMutability": "view",
      "type": "function"
    },
    {
      "inputs": [],
      "name": "merkleRoot",
      "outputs": [
        {
          "internalType": "bytes32",
          "name": "",
          "type": "bytes32"
        }
      ],
      "stateMutability": "view",
      "type": "function"
    },
    {
      "inputs": [],
      "name": "metadataRequired",
      "outputs": [
        {
          "internalType": "bool",
          "name": "",
          "type": "bool"
        }
      ],
      "stateMutability": "view",
      "type": "function"
    },
    {
      "inputs": [
        {
          "internalType": "bytes[]",
          "name": "data",
          "type": "bytes[]"
        }
      ],
      "name": "multicall",
      "outputs": [
        {
          "internalType": "bytes[]",
          "name": "results",
          "type": "bytes[]"
        }
      ],
      "stateMutability": "nonpayable",
      "type": "function"
    },
    {
      "inputs": [
        {
          "internalType": "address",
          "name": "",
          "type": "address"
        }
      ],
      "name": "recipientToStatusIndexes",
      "outputs": [
        {
          "internalType": "uint256",
          "name": "",
          "type": "uint256"
        }
      ],
      "stateMutability": "view",
      "type": "function"
    },
    {
      "inputs": [],
      "name": "recipientsCounter",
      "outputs": [
        {
          "internalType": "uint256",
          "name": "",
          "type": "uint256"
        }
      ],
      "stateMutability": "view",
      "type": "function"
    },
    {
      "inputs": [
        {
          "internalType": "bytes",
          "name": "_data",
          "type": "bytes"
        },
        {
          "internalType": "address",
          "name": "_sender",
          "type": "address"
        }
      ],
      "name": "registerRecipient",
      "outputs": [
        {
          "internalType": "address",
          "name": "recipientId",
          "type": "address"
        }
      ],
      "stateMutability": "payable",
      "type": "function"
    },
    {
      "inputs": [],
      "name": "registrationEndTime",
      "outputs": [
        {
          "internalType": "uint64",
          "name": "",
          "type": "uint64"
        }
      ],
      "stateMutability": "view",
      "type": "function"
    },
    {
      "inputs": [],
      "name": "registrationStartTime",
      "outputs": [
        {
          "internalType": "uint64",
          "name": "",
          "type": "uint64"
        }
      ],
      "stateMutability": "view",
      "type": "function"
    },
    {
      "inputs": [
        {
          "components": [
            {
              "internalType": "uint256",
              "name": "index",
              "type": "uint256"
            },
            {
              "internalType": "uint256",
              "name": "statusRow",
              "type": "uint256"
            }
          ],
          "internalType": "struct DonationVotingMerkleDistributionBaseStrategy.ApplicationStatus[]",
          "name": "statuses",
          "type": "tuple[]"
        }
      ],
      "name": "reviewRecipients",
      "outputs": [],
      "stateMutability": "nonpayable",
      "type": "function"
    },
    {
      "inputs": [
        {
          "internalType": "uint256",
          "name": "",
          "type": "uint256"
        }
      ],
      "name": "statusesBitMap",
      "outputs": [
        {
          "internalType": "uint256",
          "name": "",
          "type": "uint256"
        }
      ],
      "stateMutability": "view",
      "type": "function"
    },
    {
      "inputs": [],
      "name": "totalPayoutAmount",
      "outputs": [
        {
          "internalType": "uint256",
          "name": "",
          "type": "uint256"
        }
      ],
      "stateMutability": "view",
      "type": "function"
    },
    {
      "inputs": [
        {
          "internalType": "bytes32",
          "name": "_merkleRoot",
          "type": "bytes32"
        },
        {
          "components": [
            {
              "internalType": "uint256",
              "name": "protocol",
              "type": "uint256"
            },
            {
              "internalType": "string",
              "name": "pointer",
              "type": "string"
            }
          ],
          "internalType": "struct Metadata",
          "name": "_distributionMetadata",
          "type": "tuple"
        }
      ],
      "name": "updateDistribution",
      "outputs": [],
      "stateMutability": "nonpayable",
      "type": "function"
    },
    {
      "inputs": [
        {
          "internalType": "uint64",
          "name": "_registrationStartTime",
          "type": "uint64"
        },
        {
          "internalType": "uint64",
          "name": "_registrationEndTime",
          "type": "uint64"
        },
        {
          "internalType": "uint64",
          "name": "_allocationStartTime",
          "type": "uint64"
        },
        {
          "internalType": "uint64",
          "name": "_allocationEndTime",
          "type": "uint64"
        }
      ],
      "name": "updatePoolTimestamps",
      "outputs": [],
      "stateMutability": "nonpayable",
      "type": "function"
    },
    {
      "inputs": [],
      "name": "useRegistryAnchor",
      "outputs": [
        {
          "internalType": "bool",
          "name": "",
          "type": "bool"
        }
      ],
      "stateMutability": "view",
      "type": "function"
    },
    {
      "inputs": [
        {
          "internalType": "uint256",
          "name": "_amount",
          "type": "uint256"
        }
      ],
      "name": "withdraw",
      "outputs": [],
      "stateMutability": "nonpayable",
      "type": "function"
    },
    {
      "stateMutability": "payable",
      "type": "receive"
    }
  ],
  "bytecode": {
    "object": "0x60e06040523480156200001157600080fd5b5060405162003c7538038062003c75833981016040819052620000349162000122565b6001600160a01b038316608052604051839083908390839083906200005e90829060200162000204565b60408051601f19818403018152919052805160209091012060a05250506001600160a01b038116620000a35760405163538ba4f960e01b815260040160405180910390fd5b6001600160a01b031660c05250620002399350505050565b6001600160a01b0381168114620000d157600080fd5b50565b634e487b7160e01b600052604160045260246000fd5b60005b8381101562000107578181015183820152602001620000ed565b50506000910152565b80516200011d81620000bb565b919050565b6000806000606084860312156200013857600080fd5b83516200014581620000bb565b60208501519093506001600160401b03808211156200016357600080fd5b818601915086601f8301126200017857600080fd5b8151818111156200018d576200018d620000d4565b604051601f8201601f19908116603f01168101908382118183101715620001b857620001b8620000d4565b81604052828152896020848701011115620001d257600080fd5b620001e5836020830160208801620000ea565b8096505050505050620001fb6040850162000110565b90509250925092565b602081526000825180602084015262000225816040850160208701620000ea565b601f01601f19169190910160400192915050565b60805160a05160c0516139e262000293600039600081816105460152611e74015260006103f70152600081816102eb0152818161098801528181610f1801528181611090015281816118ed0152611f5201526139e26000f3fe60806040526004361061026e5760003560e01c806362812a3911610153578063d2e17f59116100cb578063eb11af931161007f578063ef2920fc11610064578063ef2920fc1461075f578063f5b0dfb714610772578063f6f258911461079257600080fd5b8063eb11af9314610712578063edd146cc1461073f57600080fd5b8063dff7d2c7116100b0578063dff7d2c7146106a4578063e744092e146106cc578063e7efcfc2146106fc57600080fd5b8063d2e17f5914610667578063df868ed31461068f57600080fd5b80639af5c09d11610122578063ac9650d811610107578063ac9650d8146105ee578063b2b878d01461061b578063cb0e85a61461064857600080fd5b80639af5c09d1461059e578063a0cf0aea146105c657600080fd5b806362812a39146105075780636afdd8501461053457806373af34531461056857806395355b3b1461058857600080fd5b806338fff2d0116101e65780634ab4ba42116101b5578063570897391161019a57806357089739146104aa57806359a3977b146104c45780635f1b55f3146104e757600080fd5b80634ab4ba42146104755780634d31d0871461048a57600080fd5b806338fff2d0146103d357806342fda9c7146103e85780634533d6781461041b578063465831cd1461045557600080fd5b8063217550881161023d5780632d52eff2116102225780632d52eff2146103865780632e1a7d4d1461039d5780632eb4a7ab146103bd57600080fd5b806321755088146103435780632bbe0cae1461037357600080fd5b806301fc1c641461027a5780630a6f0ee9146102ba57806315cc481e146102dc5780632143e92f1461032357600080fd5b3661027557005b600080fd5b34801561028657600080fd5b506102a761029536600461267a565b600c6020526000908152604090205481565b6040519081526020015b60405180910390f35b3480156102c657600080fd5b506102da6102d53660046128b3565b6107bf565b005b3480156102e857600080fd5b507f00000000000000000000000000000000000000000000000000000000000000005b6040516001600160a01b0390911681526020016102b1565b34801561032f57600080fd5b506102da61033e366004612941565b6107df565b34801561034f57600080fd5b506005546103639062010000900460ff1681565b60405190151581526020016102b1565b61030b61038136600461299d565b6108f9565b34801561039257600080fd5b50600a541515610363565b3480156103a957600080fd5b506102da6103b83660046129ef565b61091e565b3480156103c957600080fd5b506102a7600a5481565b3480156103df57600080fd5b506001546102a7565b3480156103f457600080fd5b507f00000000000000000000000000000000000000000000000000000000000000006102a7565b34801561042757600080fd5b5060065461043c9067ffffffffffffffff1681565b60405167ffffffffffffffff90911681526020016102b1565b34801561046157600080fd5b506102da610470366004612a08565b610a50565b34801561048157600080fd5b506002546102a7565b34801561049657600080fd5b506103636104a536600461267a565b610b0c565b3480156104b657600080fd5b506005546103639060ff1681565b3480156104d057600080fd5b506104d9610b15565b6040516102b1929190612b0e565b3480156104f357600080fd5b506103636105023660046129ef565b610bac565b34801561051357600080fd5b5061052761052236600461267a565b610bb7565b6040516102b19190612b27565b34801561054057600080fd5b5061030b7f000000000000000000000000000000000000000000000000000000000000000081565b34801561057457600080fd5b506102da610583366004612b76565b610bc8565b34801561059457600080fd5b506102a760085481565b3480156105aa57600080fd5b5060055461043c906301000000900467ffffffffffffffff1681565b3480156105d257600080fd5b5061030b73eeeeeeeeeeeeeeeeeeeeeeeeeeeeeeeeeeeeeeee81565b3480156105fa57600080fd5b5061060e610609366004612c10565b610c6a565b6040516102b19190612c85565b34801561062757600080fd5b5061063b610636366004612ce7565b610d5f565b6040516102b19190612dbc565b34801561065457600080fd5b5060055461036390610100900460ff1681565b34801561067357600080fd5b5060055461043c90600160981b900467ffffffffffffffff1681565b34801561069b57600080fd5b50610363610e77565b3480156106b057600080fd5b5060055461043c90600160581b900467ffffffffffffffff1681565b3480156106d857600080fd5b506103636106e736600461267a565b600e6020526000908152604090205460ff1681565b34801561070857600080fd5b506102a760075481565b34801561071e57600080fd5b5061073261072d36600461267a565b610e86565b6040516102b19190612e32565b34801561074b57600080fd5b506102da61075a366004612e5a565b610e91565b6102da61076d36600461299d565b610ebb565b34801561077e57600080fd5b506102da61078d3660046129ef565b610ee3565b34801561079e57600080fd5b506102a76107ad3660046129ef565b600b6020526000908152604090205481565b6107c7610f0d565b6107cf610f58565b6107da838383610f94565b505050565b336107e98161104d565b6107f585858585611118565b6005805472ffffffffffffffffffffffffffffffff0000001916630100000067ffffffffffffffff888116820272ffffffffffffffff0000000000000000000000191692909217600160581b8884168102919091177fffffffffff0000000000000000ffffffffffffffffffffffffffffffffffffff16600160981b888516810291909117948590556006805467ffffffffffffffff191688861690811790915560408051948704861685529286048516602085015294049092169181019190915260608101919091523360808201527fcb0fb7a7b87db2f472ee8977444cfdbc51993ce660aca27a5969a724fae6dcf39060a00160405180910390a15050505050565b6000610903610f0d565b61090b610f58565b61091583836111c1565b90505b92915050565b336109288161104d565b6006546109429067ffffffffffffffff1662278d00612eb7565b67ffffffffffffffff16421161096b57604051637fcce2a960e01b815260040160405180910390fd5b60015460405163068bcd8d60e01b81526000916001600160a01b037f0000000000000000000000000000000000000000000000000000000000000000169163068bcd8d916109bf9160040190815260200190565b600060405180830381865afa1580156109dc573d6000803e3d6000fd5b505050506040513d6000823e601f3d908101601f19168201604052610a049190810190612f7f565b9050600254831115610a2957604051637fcce2a960e01b815260040160405180910390fd5b8260026000828254610a3b9190613033565b909155505060408101516107da90338561151e565b610a58611558565b33610a628161104d565b60005b82518110156107da576000838281518110610a8257610a82613046565b60200260200101516000015190506000848381518110610aa457610aa4613046565b6020908102919091018101518101516000848152600b83526040908190208290558051828152339381019390935290925083917f941884a9a55191a7401466aaf8a0d2b7c8b082055a5a2b345b83c73940172ac4910160405180910390a25050600101610a65565b60006001610918565b6003805460048054919291610b299061305c565b80601f0160208091040260200160405190810160405280929190818152602001828054610b559061305c565b8015610ba25780601f10610b7757610100808354040283529160200191610ba2565b820191906000526020600020905b815481529060010190602001808311610b8557829003601f168201915b5050505050905082565b6000610918826115c3565b610bbf61261f565b61091882611604565b610bd06116fd565b33610bda8161104d565b60055462010000900460ff1615610c0457604051637fcce2a960e01b815260040160405180910390fd5b600a839055815160039081556020830151839190600490610c2590826130dc565b509050507fdc7180ca4affc84269428ed20ef950e745126f11691b010c4a7d49458421008f600a546003604051610c5d92919061319c565b60405180910390a1505050565b60608167ffffffffffffffff811115610c8557610c8561269e565b604051908082528060200260200182016040528015610cb857816020015b6060815260200190600190039081610ca35790505b50905060005b82811015610d5857610d2830858584818110610cdc57610cdc613046565b9050602002810190610cee9190613241565b8080601f01602080910402602001604051908101604052809392919081815260200183838082843760009201919091525061174392505050565b828281518110610d3a57610d3a613046565b60200260200101819052508080610d509061328f565b915050610cbe565b5092915050565b81518151606091908114610d9f576040517f7b49805600000000000000000000000000000000000000000000000000000000815260040160405180910390fd5b60008167ffffffffffffffff811115610dba57610dba61269e565b604051908082528060200260200182016040528015610dff57816020015b6040805180820190915260008082526020820152815260200190600190039081610dd85790505b50905060005b82811015610e6e57610e49868281518110610e2257610e22613046565b6020026020010151868381518110610e3c57610e3c613046565b6020026020010151611768565b828281518110610e5b57610e5b613046565b6020908102919091010152600101610e05565b50949350505050565b6000610e81611823565b905090565b60006109188261186e565b610e99610f0d565b600081806020019051810190610eaf9190613327565b90506107da838261188d565b610ec3610f0d565b610ecb610f58565b610ed58282611b7d565b610edf8282611d5c565b5050565b610eeb610f0d565b8060026000828254610efd91906133fa565b90915550610f0a90508181565b50565b336001600160a01b037f00000000000000000000000000000000000000000000000000000000000000001614610f565760405163075fd2b160e01b815260040160405180910390fd5b565b600154600003610f56576040517f3da3f98c00000000000000000000000000000000000000000000000000000000815260040160405180910390fd5b80610f9e8161104d565b60055462010000900460ff16610fc0576005805462ff00001916620100001790555b600083806020019051810190610fd691906134d0565b805190915060005b8181101561101057611008838281518110610ffb57610ffb613046565b6020026020010151611ee9565b600101610fde565b506040516001600160a01b038516907f7ec3272052827f7b50d9e84f98172cbb80c112df1e377c5b97ea77f1812db8d990600090a2505050505050565b6001546040517f29e40d4b00000000000000000000000000000000000000000000000000000000815260048101919091526001600160a01b0382811660248301527f000000000000000000000000000000000000000000000000000000000000000016906329e40d4b90604401602060405180830381865afa1580156110d7573d6000803e3d6000fd5b505050506040513d601f19601f820116820180604052508101906110fb9190613581565b610f0a5760405163075fd2b160e01b815260040160405180910390fd5b8367ffffffffffffffff1642118061114357508267ffffffffffffffff168467ffffffffffffffff16115b8061116157508167ffffffffffffffff168467ffffffffffffffff16115b8061117f57508067ffffffffffffffff168267ffffffffffffffff16115b8061119d57508067ffffffffffffffff168367ffffffffffffffff16115b156111bb57604051637fcce2a960e01b815260040160405180910390fd5b50505050565b60006111cb611558565b60008060006111ed604051806040016040528060008152602001606081525090565b60055460ff161561123f578680602001905181019061120c919061359c565b9196509350905061121d8587612077565b61123a5760405163075fd2b160e01b815260040160405180910390fd5b6112a9565b86806020019051810190611253919061359c565b6001600160a01b0382161515965091945092509050836112735785611275565b815b945083801561128b57506112898587612077565b155b156112a95760405163075fd2b160e01b815260040160405180910390fd5b600554610100900460ff1680156112cc575060208101515115806112cc57508051155b15611303576040517fc19e07c500000000000000000000000000000000000000000000000000000000815260040160405180910390fd5b6001600160a01b03831661133a5760405163f4a513b960e01b81526001600160a01b03861660048201526024015b60405180910390fd5b6001600160a01b038086166000908152600f602090815260409091208054928616610100027fffffffffffffffffffffff0000000000000000000000000000000000000000ff9093169290921782558251600183019081559083015183919060028401906113a890826130dc565b505060055460ff1690506113bc57846113bf565b60015b815460ff191690151517815560006113d6876121a1565b905060ff8116611491576008546001600160a01b0388166000908152600c602052604090205561140b8760015b60ff166121bd565b600089600854604051602001611422929190613600565b6040516020818303038152906040529050876001600160a01b03167fa197306e3dd5494a61a695381aa809a53b8e377a685e84e404a85d5a8da6cc62828b60405161146e929190613622565b60405180910390a2600880549060006114868361328f565b919050555050611512565b60011960ff8216016114ad576114a8876001611403565b6114c4565b60021960ff8216016114c4576114c4876004611403565b866001600160a01b03167fcec1da3f7f0b8a344dd1025d06e2ddd48b14880395997ad97cbdb439acc761d48a8a6114fa8b6121a1565b6040516115099392919061364d565b60405180910390a25b50505050505092915050565b73eeeeeeeeeeeeeeeeeeeeeeeeeeeeeeeeeeeeeeed196001600160a01b0384160161154d576107da82826121f0565b6107da83838361220c565b60055442630100000090910467ffffffffffffffff16118061158c5750600554600160581b900467ffffffffffffffff1642115b15610f56576040517fb609ed5a00000000000000000000000000000000000000000000000000000000815260040160405180910390fd5b6000806115d261010084613698565b905060006115e2610100856136ac565b6000928352600d602052604090922054600190921b9182169091149392505050565b61160c61261f565b6001600160a01b038083166000908152600f60209081526040918290208251606081018452815460ff8116151582526101009004909416848301528251808401845260018201805482526002830180549395870194929391928401916116719061305c565b80601f016020809104026020016040519081016040528092919081815260200182805461169d9061305c565b80156116ea5780601f106116bf576101008083540402835291602001916116ea565b820191906000526020600020905b8154815290600101906020018083116116cd57829003601f168201915b5050509190925250505090525092915050565b60065467ffffffffffffffff16421015610f56576040517f8a879da200000000000000000000000000000000000000000000000000000000815260040160405180910390fd5b606061091583836040518060600160405280602781526020016139866027913961225b565b604080518082019091526000808252602082015260008280602001905181019061179291906136c0565b8051602082015160408301516060840151939450919290919060006117b684611604565b6020015190506117c985858386866122d3565b156117f9576040518060400160405280826001600160a01b03168152602001848152509650505050505050610918565b604080518082019091526001600160a01b0390911681526000602082015298975050505050505050565b60055460009042630100000090910467ffffffffffffffff161180159061185d5750600554600160581b900467ffffffffffffffff164211155b156118685750600190565b50600090565b6000611879826121a1565b60ff16600681111561091857610918612e1c565b6118968261237c565b80516005805460208085015161ffff1990921693151561ff0019169390931761010091151591909102179055604080517f5ab1bd5300000000000000000000000000000000000000000000000000000000815290517f00000000000000000000000000000000000000000000000000000000000000006001600160a01b031692635ab1bd5392600480820193918290030181865afa15801561193c573d6000803e3d6000fd5b505050506040513d601f19601f8201168201806040525081019061196091906136f5565b600980547fffffffffffffffffffffffff0000000000000000000000000000000000000000166001600160a01b03929092169190911790556040810151600580546060840151608085015172ffffffffffffffffffffffffffffffff00000019909216630100000067ffffffffffffffff958616810272ffffffffffffffff0000000000000000000000191691909117600160581b9286168302177fffffffffff0000000000000000ffffffffffffffffffffffffffffffffffffff16600160981b9386168402179384905560a08601516006805467ffffffffffffffff19169187169182179055611a62959185048216949283048216939092041690611118565b600554600654604080516301000000840467ffffffffffffffff9081168252600160581b850481166020830152600160981b909404841681830152929091166060830152336080830152517fcb0fb7a7b87db2f472ee8977444cfdbc51993ce660aca27a5969a724fae6dcf39181900360a00190a160c0810151516000819003611b1c5760008052600e6020527fe710864318d4a32f37d6ce54cb3fadbef648dd12d8dbdf53973564d56b7f881c805460ff191660011790555b60005b818110156111bb576001600e60008560c001518481518110611b4357611b43613046565b6020908102919091018101516001600160a01b03168252810191909152604001600020805460ff1916911515919091179055600101611b1f565b611b856123e4565b60008083806020019051810190611b9c9190613712565b80515160208101519051929450909250906002611bb8856121a1565b60ff166006811115611bcc57611bcc612e1c565b6006811115611bdd57611bdd612e1c565b14611c065760405163f4a513b960e01b81526001600160a01b0385166004820152602401611331565b6001600160a01b0381166000908152600e602052604090205460ff16158015611c5a575060008052600e6020527fe710864318d4a32f37d6ce54cb3fadbef648dd12d8dbdf53973564d56b7f881c5460ff16155b15611c7857604051637fcce2a960e01b815260040160405180910390fd5b600034118015611ca557506001600160a01b03811673eeeeeeeeeeeeeeeeeeeeeeeeeeeeeeeeeeeeeeee14155b80611cd757506001600160a01b03811673eeeeeeeeeeeeeeeeeeeeeeeeeeeeeeeeeeeeeeee148015611cd75750813414155b15611cf557604051637fcce2a960e01b815260040160405180910390fd5b836001600160a01b03167f463ffc2cf8b1596445c417388ed30e53eb67cf6668cb2be7f0addf8a78c8441b838388604051611d4c939291909283526001600160a01b03918216602084015216604082015260600190565b60405180910390a2505050505050565b60008083806020019051810190611d739190613712565b80515180516020909101519294509092509073eeeeeeeeeeeeeeeeeeeeeeeeeeeeeeeeeeeeeeed196001600160a01b03831601611e145780341015611de4576040517f74c5672b00000000000000000000000000000000000000000000000000000000815260040160405180910390fd5b6001600160a01b038085166000908152600f6020526040902054611e0f9161010090910416826121f0565b611ee1565b82516040805180820182526001600160a01b038781166000908152600f6020908152908490205461010090048216835280830186905287015192517f30f28b7a0000000000000000000000000000000000000000000000000000000081527f0000000000000000000000000000000000000000000000000000000000000000909116936330f28b7a93611eae9391928b9190600401613800565b600060405180830381600087803b158015611ec857600080fd5b505af1158015611edc573d6000803e3d6000fd5b505050505b505050505050565b805160208083015160408085015160608601516001600160a01b038085166000908152600f909652929094205492939092909161010090910416611f3085858386866122d3565b156120535760015460405163068bcd8d60e01b81526000916001600160a01b037f0000000000000000000000000000000000000000000000000000000000000000169163068bcd8d91611f899160040190815260200190565b600060405180830381865afa158015611fa6573d6000803e3d6000fd5b505050506040513d6000823e601f3d908101601f19168201604052611fce9190810190612f7f565b9050611fd986612448565b8360026000828254611feb9190613033565b9091555050604081015161200090838661151e565b60408082015181518681526001600160a01b038581166020830152808916939216917fa6b66f665010d2f7435f110111aaa34b56564074f66081bef606d996fc8caa6f910160405180910390a350611ee1565b60405163f4a513b960e01b81526001600160a01b0385166004820152602401611331565b6009546040517fdd93da430000000000000000000000000000000000000000000000000000000081526001600160a01b038481166004830152600092839291169063dd93da4390602401600060405180830381865afa1580156120de573d6000803e3d6000fd5b505050506040513d6000823e601f3d908101601f191682016040526121069190810190613878565b60095481516040517f5e8a791500000000000000000000000000000000000000000000000000000000815260048101919091526001600160a01b038681166024830152929350911690635e8a791590604401602060405180830381865afa158015612175573d6000803e3d6000fd5b505050506040513d601f19601f820116820180604052508101906121999190613581565b949350505050565b60008060006121af84612486565b600f911c1695945050505050565b60008060006121cb85612486565b6000928352600b602052604090922095811b600f90911b199091161790935550505050565b60008060008084865af1610edf5763b12d13eb6000526004601cfd5b81601452806034526fa9059cbb00000000000000000000000060005260206000604460106000875af13d156001600051141716612251576390b8ec186000526004601cfd5b6000603452505050565b6060600080856001600160a01b031685604051612278919061393f565b600060405180830381855af49150503d80600081146122b3576040519150601f19603f3d011682016040523d82523d6000602084013e6122b8565b606091505b50915091506122c9868383876124ea565b9695505050505050565b60006122de866115c3565b156122eb57506000612373565b60408051602081018890526001600160a01b038088169282019290925290851660608201526080810184905260009060a00160408051601f198184030181528282528051602091820120908301520160405160208183030381529060405280519060200120905061235f83600a5483612563565b61236d576000915050612373565b60019150505b95945050505050565b612384610f0d565b600154156123be576040517f439a74c900000000000000000000000000000000000000000000000000000000815260040160405180910390fd5b806000036123df57604051637fcce2a960e01b815260040160405180910390fd5b600155565b60055442600160981b90910467ffffffffffffffff161180612411575060065467ffffffffffffffff1642115b15610f56576040517fb828c90000000000000000000000000000000000000000000000000000000000815260040160405180910390fd5b600061245661010083613698565b90506000612466610100846136ac565b6000928352600d60205260409092208054600190931b9092179091555050565b6001600160a01b0381166000908152600c602052604080822054829182919082906124b19083613698565b905060006124c06040846136ac565b6124cb90600461395b565b6000838152600b60205260409020549298909750919550909350505050565b60608315612559578251600003612552576001600160a01b0385163b6125525760405162461bcd60e51b815260206004820152601d60248201527f416464726573733a2063616c6c20746f206e6f6e2d636f6e74726163740000006044820152606401611331565b5081612199565b6121998383612579565b60008261257085846125a3565b14949350505050565b8151156125895781518083602001fd5b8060405162461bcd60e51b81526004016113319190613972565b600081815b84518110156125e8576125d4828683815181106125c7576125c7613046565b60200260200101516125f0565b9150806125e08161328f565b9150506125a8565b509392505050565b600081831061260c576000828152602084905260409020610915565b6000838152602083905260409020610915565b604051806060016040528060001515815260200160006001600160a01b03168152602001612660604051806040016040528060008152602001606081525090565b905290565b6001600160a01b0381168114610f0a57600080fd5b60006020828403121561268c57600080fd5b813561269781612665565b9392505050565b634e487b7160e01b600052604160045260246000fd5b6040805190810167ffffffffffffffff811182821017156126d7576126d761269e565b60405290565b60405160c0810167ffffffffffffffff811182821017156126d7576126d761269e565b60405160e0810167ffffffffffffffff811182821017156126d7576126d761269e565b6040516080810167ffffffffffffffff811182821017156126d7576126d761269e565b6040516060810167ffffffffffffffff811182821017156126d7576126d761269e565b604051601f8201601f1916810167ffffffffffffffff811182821017156127925761279261269e565b604052919050565b600067ffffffffffffffff8211156127b4576127b461269e565b5060051b60200190565b600082601f8301126127cf57600080fd5b813560206127e46127df8361279a565b612769565b82815260059290921b8401810191818101908684111561280357600080fd5b8286015b8481101561282757803561281a81612665565b8352918301918301612807565b509695505050505050565b600067ffffffffffffffff82111561284c5761284c61269e565b50601f01601f191660200190565b60006128686127df84612832565b905082815283838301111561287c57600080fd5b828260208301376000602084830101529392505050565b600082601f8301126128a457600080fd5b6109158383356020850161285a565b6000806000606084860312156128c857600080fd5b833567ffffffffffffffff808211156128e057600080fd5b6128ec878388016127be565b9450602086013591508082111561290257600080fd5b5061290f86828701612893565b925050604084013561292081612665565b809150509250925092565b67ffffffffffffffff81168114610f0a57600080fd5b6000806000806080858703121561295757600080fd5b84356129628161292b565b935060208501356129728161292b565b925060408501356129828161292b565b915060608501356129928161292b565b939692955090935050565b600080604083850312156129b057600080fd5b823567ffffffffffffffff8111156129c757600080fd5b6129d385828601612893565b92505060208301356129e481612665565b809150509250929050565b600060208284031215612a0157600080fd5b5035919050565b60006020808385031215612a1b57600080fd5b823567ffffffffffffffff811115612a3257600080fd5b8301601f81018513612a4357600080fd5b8035612a516127df8261279a565b81815260069190911b82018301908381019087831115612a7057600080fd5b928401925b82841015612ab35760408489031215612a8e5760008081fd5b612a966126b4565b843581528585013586820152825260409093019290840190612a75565b979650505050505050565b60005b83811015612ad9578181015183820152602001612ac1565b50506000910152565b60008151808452612afa816020860160208601612abe565b601f01601f19169290920160200192915050565b8281526040602082015260006121996040830184612ae2565b602081528151151560208201526001600160a01b036020830151166040820152600060408301516060808401528051608084015260208101519050604060a084015261219960c0840182612ae2565b60008060408385031215612b8957600080fd5b82359150602083013567ffffffffffffffff80821115612ba857600080fd5b9084019060408287031215612bbc57600080fd5b612bc46126b4565b82358152602083013582811115612bda57600080fd5b80840193505086601f840112612bef57600080fd5b612bfe8784356020860161285a565b60208201528093505050509250929050565b60008060208385031215612c2357600080fd5b823567ffffffffffffffff80821115612c3b57600080fd5b818501915085601f830112612c4f57600080fd5b813581811115612c5e57600080fd5b8660208260051b8501011115612c7357600080fd5b60209290920196919550909350505050565b6000602080830181845280855180835260408601915060408160051b870101925083870160005b82811015612cda57603f19888603018452612cc8858351612ae2565b94509285019290850190600101612cac565b5092979650505050505050565b60008060408385031215612cfa57600080fd5b823567ffffffffffffffff80821115612d1257600080fd5b612d1e868387016127be565b9350602091508185013581811115612d3557600080fd5b8501601f81018713612d4657600080fd5b8035612d546127df8261279a565b81815260059190911b82018401908481019089831115612d7357600080fd5b8584015b83811015612dab57803586811115612d8f5760008081fd5b612d9d8c8983890101612893565b845250918601918601612d77565b508096505050505050509250929050565b602080825282518282018190526000919060409081850190868401855b82811015612e0f57612dff84835180516001600160a01b03168252602090810151910152565b9284019290850190600101612dd9565b5091979650505050505050565b634e487b7160e01b600052602160045260246000fd5b6020810160078310612e5457634e487b7160e01b600052602160045260246000fd5b91905290565b60008060408385031215612e6d57600080fd5b82359150602083013567ffffffffffffffff811115612e8b57600080fd5b612e9785828601612893565b9150509250929050565b634e487b7160e01b600052601160045260246000fd5b67ffffffffffffffff818116838216019080821115610d5857610d58612ea1565b8051612ee381612665565b919050565b600082601f830112612ef957600080fd5b8151612f076127df82612832565b818152846020838601011115612f1c57600080fd5b612199826020830160208701612abe565b600060408284031215612f3f57600080fd5b612f476126b4565b905081518152602082015167ffffffffffffffff811115612f6757600080fd5b612f7384828501612ee8565b60208301525092915050565b600060208284031215612f9157600080fd5b815167ffffffffffffffff80821115612fa957600080fd5b9083019060c08286031215612fbd57600080fd5b612fc56126dd565b825181526020830151612fd781612665565b60208201526040830151612fea81612665565b604082015260608301518281111561300157600080fd5b61300d87828601612f2d565b6060830152506080830151608082015260a083015160a082015280935050505092915050565b8181038181111561091857610918612ea1565b634e487b7160e01b600052603260045260246000fd5b600181811c9082168061307057607f821691505b60208210810361309057634e487b7160e01b600052602260045260246000fd5b50919050565b601f8211156107da57600081815260208120601f850160051c810160208610156130bd5750805b601f850160051c820191505b81811015611ee1578281556001016130c9565b815167ffffffffffffffff8111156130f6576130f661269e565b61310a81613104845461305c565b84613096565b602080601f83116001811461313f57600084156131275750858301515b600019600386901b1c1916600185901b178555611ee1565b600085815260208120601f198616915b8281101561316e5788860151825594840194600190910190840161314f565b508582101561318c5787850151600019600388901b60f8161c191681555b5050505050600190811b01905550565b8281526000602060408184015283546040840152600180850160406060860152600081546131c98161305c565b80608089015260a0858316600081146131e9576001811461320357613231565b60ff1984168a83015282151560051b8a0182019450613231565b856000528760002060005b848110156132295781548c820185015290880190890161320e565b8b0183019550505b50929a9950505050505050505050565b6000808335601e1984360301811261325857600080fd5b83018035915067ffffffffffffffff82111561327357600080fd5b60200191503681900382131561328857600080fd5b9250929050565b6000600182016132a1576132a1612ea1565b5060010190565b80518015158114612ee357600080fd5b8051612ee38161292b565b600082601f8301126132d457600080fd5b815160206132e46127df8361279a565b82815260059290921b8401810191818101908684111561330357600080fd5b8286015b8481101561282757805161331a81612665565b8352918301918301613307565b60006020828403121561333957600080fd5b815167ffffffffffffffff8082111561335157600080fd5b9083019060e0828603121561336557600080fd5b61336d612700565b613376836132a8565b8152613384602084016132a8565b6020820152613395604084016132b8565b60408201526133a6606084016132b8565b60608201526133b7608084016132b8565b60808201526133c860a084016132b8565b60a082015260c0830151828111156133df57600080fd5b6133eb878286016132c3565b60c08301525095945050505050565b8082018082111561091857610918612ea1565b60006080828403121561341f57600080fd5b613427612723565b90508151815260208083015161343c81612665565b8282015260408381015190830152606083015167ffffffffffffffff81111561346457600080fd5b8301601f8101851361347557600080fd5b80516134836127df8261279a565b81815260059190911b820183019083810190878311156134a257600080fd5b928401925b828410156134c0578351825292840192908401906134a7565b6060860152509295945050505050565b600060208083850312156134e357600080fd5b825167ffffffffffffffff808211156134fb57600080fd5b818501915085601f83011261350f57600080fd5b815161351d6127df8261279a565b81815260059190911b8301840190848101908883111561353c57600080fd5b8585015b83811015613574578051858111156135585760008081fd5b6135668b89838a010161340d565b845250918601918601613540565b5098975050505050505050565b60006020828403121561359357600080fd5b610915826132a8565b6000806000606084860312156135b157600080fd5b83516135bc81612665565b60208501519093506135cd81612665565b604085015190925067ffffffffffffffff8111156135ea57600080fd5b6135f686828701612f2d565b9150509250925092565b6040815260006136136040830185612ae2565b90508260208301529392505050565b6040815260006136356040830185612ae2565b90506001600160a01b03831660208301529392505050565b6060815260006136606060830186612ae2565b90506001600160a01b038416602083015260ff83166040830152949350505050565b634e487b7160e01b600052601260045260246000fd5b6000826136a7576136a7613682565b500490565b6000826136bb576136bb613682565b500690565b6000602082840312156136d257600080fd5b815167ffffffffffffffff8111156136e957600080fd5b6121998482850161340d565b60006020828403121561370757600080fd5b815161269781612665565b6000806040838503121561372557600080fd5b825161373081612665565b602084015190925067ffffffffffffffff8082111561374e57600080fd5b9084019081860360a081121561376357600080fd5b61376b6126b4565b608082121561377957600080fd5b613781612746565b604083121561378f57600080fd5b6137976126b4565b925084516137a481612665565b808452506020850151602084015282815260408501516020820152606085015160408201528082525060808401519150828211156137e157600080fd5b6137ed88838601612ee8565b6020820152809450505050509250929050565b600061010061382383885180516001600160a01b03168252602090810151910152565b6020870151604084015260408701516060840152613857608084018780516001600160a01b03168252602090810151910152565b6001600160a01b03851660c08401528060e0840152612ab381840185612ae2565b60006020828403121561388a57600080fd5b815167ffffffffffffffff808211156138a257600080fd5b9083019060c082860312156138b657600080fd5b6138be6126dd565b82518152602083015160208201526040830151828111156138de57600080fd5b6138ea87828601612ee8565b60408301525060608301518281111561390257600080fd5b61390e87828601612f2d565b60608301525061392060808401612ed8565b608082015261393160a08401612ed8565b60a082015295945050505050565b60008251613951818460208701612abe565b9190910192915050565b808202811582820484141761091857610918612ea1565b6020815260006109156020830184612ae256fe416464726573733a206c6f772d6c6576656c2064656c65676174652063616c6c206661696c6564a2646970667358221220caa47226d5cad36f63cf2507226e8dcf40f1802cb3f1eaf79f64ffe9a0390dde64736f6c63430008130033",
    "linkReferences": {}
  },
  "methodIdentifiers": {
    "NATIVE()": "a0cf0aea",
    "PERMIT2()": "6afdd850",
    "allocate(bytes,address)": "ef2920fc",
    "allocationEndTime()": "4533d678",
    "allocationStartTime()": "d2e17f59",
    "allowedTokens(address)": "e744092e",
    "distribute(address[],bytes,address)": "0a6f0ee9",
    "distributionMetadata()": "59a3977b",
    "distributionStarted()": "21755088",
    "getAllo()": "15cc481e",
    "getPayouts(address[],bytes[])": "b2b878d0",
    "getPoolAmount()": "4ab4ba42",
    "getPoolId()": "38fff2d0",
    "getRecipient(address)": "62812a39",
    "getRecipientStatus(address)": "eb11af93",
    "getStrategyId()": "42fda9c7",
    "hasBeenDistributed(uint256)": "5f1b55f3",
    "increasePoolAmount(uint256)": "f5b0dfb7",
    "initialize(uint256,bytes)": "edd146cc",
    "isDistributionSet()": "2d52eff2",
    "isPoolActive()": "df868ed3",
    "isValidAllocator(address)": "4d31d087",
    "merkleRoot()": "2eb4a7ab",
    "metadataRequired()": "cb0e85a6",
    "multicall(bytes[])": "ac9650d8",
    "recipientToStatusIndexes(address)": "01fc1c64",
    "recipientsCounter()": "95355b3b",
    "registerRecipient(bytes,address)": "2bbe0cae",
    "registrationEndTime()": "dff7d2c7",
    "registrationStartTime()": "9af5c09d",
    "reviewRecipients((uint256,uint256)[])": "465831cd",
    "statusesBitMap(uint256)": "f6f25891",
    "totalPayoutAmount()": "e7efcfc2",
    "updateDistribution(bytes32,(uint256,string))": "73af3453",
    "updatePoolTimestamps(uint64,uint64,uint64,uint64)": "2143e92f",
    "useRegistryAnchor()": "57089739",
    "withdraw(uint256)": "2e1a7d4d"
  },
  "storageLayout": {
    "storage": [
      {
        "astId": 3267,
        "contract": "contracts/strategies/donation-voting-merkle-distribution-direct-transfer/DonationVotingMerkleDistributionDirectTransferStrategy.sol:DonationVotingMerkleDistributionDirectTransferStrategy",
        "label": "poolActive",
        "offset": 0,
        "slot": "0",
        "type": "t_bool"
      },
      {
        "astId": 3269,
        "contract": "contracts/strategies/donation-voting-merkle-distribution-direct-transfer/DonationVotingMerkleDistributionDirectTransferStrategy.sol:DonationVotingMerkleDistributionDirectTransferStrategy",
        "label": "poolId",
        "offset": 0,
        "slot": "1",
        "type": "t_uint256"
      },
      {
        "astId": 3271,
        "contract": "contracts/strategies/donation-voting-merkle-distribution-direct-transfer/DonationVotingMerkleDistributionDirectTransferStrategy.sol:DonationVotingMerkleDistributionDirectTransferStrategy",
        "label": "poolAmount",
        "offset": 0,
        "slot": "2",
        "type": "t_uint256"
      },
      {
        "astId": 12593,
        "contract": "contracts/strategies/donation-voting-merkle-distribution-direct-transfer/DonationVotingMerkleDistributionDirectTransferStrategy.sol:DonationVotingMerkleDistributionDirectTransferStrategy",
        "label": "distributionMetadata",
        "offset": 0,
        "slot": "3",
        "type": "t_struct(Metadata)2922_storage"
      },
      {
        "astId": 12596,
        "contract": "contracts/strategies/donation-voting-merkle-distribution-direct-transfer/DonationVotingMerkleDistributionDirectTransferStrategy.sol:DonationVotingMerkleDistributionDirectTransferStrategy",
        "label": "useRegistryAnchor",
        "offset": 0,
        "slot": "5",
        "type": "t_bool"
      },
      {
        "astId": 12599,
        "contract": "contracts/strategies/donation-voting-merkle-distribution-direct-transfer/DonationVotingMerkleDistributionDirectTransferStrategy.sol:DonationVotingMerkleDistributionDirectTransferStrategy",
        "label": "metadataRequired",
        "offset": 1,
        "slot": "5",
        "type": "t_bool"
      },
      {
        "astId": 12602,
        "contract": "contracts/strategies/donation-voting-merkle-distribution-direct-transfer/DonationVotingMerkleDistributionDirectTransferStrategy.sol:DonationVotingMerkleDistributionDirectTransferStrategy",
        "label": "distributionStarted",
        "offset": 2,
        "slot": "5",
        "type": "t_bool"
      },
      {
        "astId": 12605,
        "contract": "contracts/strategies/donation-voting-merkle-distribution-direct-transfer/DonationVotingMerkleDistributionDirectTransferStrategy.sol:DonationVotingMerkleDistributionDirectTransferStrategy",
        "label": "registrationStartTime",
        "offset": 3,
        "slot": "5",
        "type": "t_uint64"
      },
      {
        "astId": 12607,
        "contract": "contracts/strategies/donation-voting-merkle-distribution-direct-transfer/DonationVotingMerkleDistributionDirectTransferStrategy.sol:DonationVotingMerkleDistributionDirectTransferStrategy",
        "label": "registrationEndTime",
        "offset": 11,
        "slot": "5",
        "type": "t_uint64"
      },
      {
        "astId": 12609,
        "contract": "contracts/strategies/donation-voting-merkle-distribution-direct-transfer/DonationVotingMerkleDistributionDirectTransferStrategy.sol:DonationVotingMerkleDistributionDirectTransferStrategy",
        "label": "allocationStartTime",
        "offset": 19,
        "slot": "5",
        "type": "t_uint64"
      },
      {
        "astId": 12611,
        "contract": "contracts/strategies/donation-voting-merkle-distribution-direct-transfer/DonationVotingMerkleDistributionDirectTransferStrategy.sol:DonationVotingMerkleDistributionDirectTransferStrategy",
        "label": "allocationEndTime",
        "offset": 0,
        "slot": "6",
        "type": "t_uint64"
      },
      {
        "astId": 12614,
        "contract": "contracts/strategies/donation-voting-merkle-distribution-direct-transfer/DonationVotingMerkleDistributionDirectTransferStrategy.sol:DonationVotingMerkleDistributionDirectTransferStrategy",
        "label": "totalPayoutAmount",
        "offset": 0,
        "slot": "7",
        "type": "t_uint256"
      },
      {
        "astId": 12617,
        "contract": "contracts/strategies/donation-voting-merkle-distribution-direct-transfer/DonationVotingMerkleDistributionDirectTransferStrategy.sol:DonationVotingMerkleDistributionDirectTransferStrategy",
        "label": "recipientsCounter",
        "offset": 0,
        "slot": "8",
        "type": "t_uint256"
      },
      {
        "astId": 12621,
        "contract": "contracts/strategies/donation-voting-merkle-distribution-direct-transfer/DonationVotingMerkleDistributionDirectTransferStrategy.sol:DonationVotingMerkleDistributionDirectTransferStrategy",
        "label": "_registry",
        "offset": 0,
        "slot": "9",
        "type": "t_contract(IRegistry)2625"
      },
      {
        "astId": 12628,
        "contract": "contracts/strategies/donation-voting-merkle-distribution-direct-transfer/DonationVotingMerkleDistributionDirectTransferStrategy.sol:DonationVotingMerkleDistributionDirectTransferStrategy",
        "label": "merkleRoot",
        "offset": 0,
        "slot": "10",
        "type": "t_bytes32"
      },
      {
        "astId": 12633,
        "contract": "contracts/strategies/donation-voting-merkle-distribution-direct-transfer/DonationVotingMerkleDistributionDirectTransferStrategy.sol:DonationVotingMerkleDistributionDirectTransferStrategy",
        "label": "statusesBitMap",
        "offset": 0,
        "slot": "11",
        "type": "t_mapping(t_uint256,t_uint256)"
      },
      {
        "astId": 12638,
        "contract": "contracts/strategies/donation-voting-merkle-distribution-direct-transfer/DonationVotingMerkleDistributionDirectTransferStrategy.sol:DonationVotingMerkleDistributionDirectTransferStrategy",
        "label": "recipientToStatusIndexes",
        "offset": 0,
        "slot": "12",
        "type": "t_mapping(t_address,t_uint256)"
      },
      {
        "astId": 12643,
        "contract": "contracts/strategies/donation-voting-merkle-distribution-direct-transfer/DonationVotingMerkleDistributionDirectTransferStrategy.sol:DonationVotingMerkleDistributionDirectTransferStrategy",
        "label": "distributedBitMap",
        "offset": 0,
        "slot": "13",
        "type": "t_mapping(t_uint256,t_uint256)"
      },
      {
        "astId": 12648,
        "contract": "contracts/strategies/donation-voting-merkle-distribution-direct-transfer/DonationVotingMerkleDistributionDirectTransferStrategy.sol:DonationVotingMerkleDistributionDirectTransferStrategy",
        "label": "allowedTokens",
        "offset": 0,
        "slot": "14",
        "type": "t_mapping(t_address,t_bool)"
      },
      {
        "astId": 12654,
        "contract": "contracts/strategies/donation-voting-merkle-distribution-direct-transfer/DonationVotingMerkleDistributionDirectTransferStrategy.sol:DonationVotingMerkleDistributionDirectTransferStrategy",
        "label": "_recipients",
        "offset": 0,
        "slot": "15",
        "type": "t_mapping(t_address,t_struct(Recipient)12500_storage)"
      }
    ],
    "types": {
      "t_address": {
        "encoding": "inplace",
        "label": "address",
        "numberOfBytes": "20"
      },
      "t_bool": {
        "encoding": "inplace",
        "label": "bool",
        "numberOfBytes": "1"
      },
      "t_bytes32": {
        "encoding": "inplace",
        "label": "bytes32",
        "numberOfBytes": "32"
      },
      "t_contract(IRegistry)2625": {
        "encoding": "inplace",
        "label": "contract IRegistry",
        "numberOfBytes": "20"
      },
      "t_mapping(t_address,t_bool)": {
        "encoding": "mapping",
        "key": "t_address",
        "label": "mapping(address => bool)",
        "numberOfBytes": "32",
        "value": "t_bool"
      },
      "t_mapping(t_address,t_struct(Recipient)12500_storage)": {
        "encoding": "mapping",
        "key": "t_address",
        "label": "mapping(address => struct DonationVotingMerkleDistributionBaseStrategy.Recipient)",
        "numberOfBytes": "32",
        "value": "t_struct(Recipient)12500_storage"
      },
      "t_mapping(t_address,t_uint256)": {
        "encoding": "mapping",
        "key": "t_address",
        "label": "mapping(address => uint256)",
        "numberOfBytes": "32",
        "value": "t_uint256"
      },
      "t_mapping(t_uint256,t_uint256)": {
        "encoding": "mapping",
        "key": "t_uint256",
        "label": "mapping(uint256 => uint256)",
        "numberOfBytes": "32",
        "value": "t_uint256"
      },
      "t_string_storage": {
        "encoding": "bytes",
        "label": "string",
        "numberOfBytes": "32"
      },
      "t_struct(Metadata)2922_storage": {
        "encoding": "inplace",
        "label": "struct Metadata",
        "numberOfBytes": "64",
        "members": [
          {
            "astId": 2918,
            "contract": "contracts/strategies/donation-voting-merkle-distribution-direct-transfer/DonationVotingMerkleDistributionDirectTransferStrategy.sol:DonationVotingMerkleDistributionDirectTransferStrategy",
            "label": "protocol",
            "offset": 0,
            "slot": "0",
            "type": "t_uint256"
          },
          {
            "astId": 2921,
            "contract": "contracts/strategies/donation-voting-merkle-distribution-direct-transfer/DonationVotingMerkleDistributionDirectTransferStrategy.sol:DonationVotingMerkleDistributionDirectTransferStrategy",
            "label": "pointer",
            "offset": 0,
            "slot": "1",
            "type": "t_string_storage"
          }
        ]
      },
      "t_struct(Recipient)12500_storage": {
        "encoding": "inplace",
        "label": "struct DonationVotingMerkleDistributionBaseStrategy.Recipient",
        "numberOfBytes": "96",
        "members": [
          {
            "astId": 12494,
            "contract": "contracts/strategies/donation-voting-merkle-distribution-direct-transfer/DonationVotingMerkleDistributionDirectTransferStrategy.sol:DonationVotingMerkleDistributionDirectTransferStrategy",
            "label": "useRegistryAnchor",
            "offset": 0,
            "slot": "0",
            "type": "t_bool"
          },
          {
            "astId": 12496,
            "contract": "contracts/strategies/donation-voting-merkle-distribution-direct-transfer/DonationVotingMerkleDistributionDirectTransferStrategy.sol:DonationVotingMerkleDistributionDirectTransferStrategy",
            "label": "recipientAddress",
            "offset": 1,
            "slot": "0",
            "type": "t_address"
          },
          {
            "astId": 12499,
            "contract": "contracts/strategies/donation-voting-merkle-distribution-direct-transfer/DonationVotingMerkleDistributionDirectTransferStrategy.sol:DonationVotingMerkleDistributionDirectTransferStrategy",
            "label": "metadata",
            "offset": 0,
            "slot": "1",
            "type": "t_struct(Metadata)2922_storage"
          }
        ]
      },
      "t_uint256": {
        "encoding": "inplace",
        "label": "uint256",
        "numberOfBytes": "32"
      },
      "t_uint64": {
        "encoding": "inplace",
        "label": "uint64",
        "numberOfBytes": "8"
      }
    }
  },
  "id": 28
}