{"abi":[{"type":"constructor","inputs":[],"stateMutability":"nonpayable"},{"type":"function","name":"DOMAIN_SEPARATOR","inputs":[],"outputs":[{"name":"","type":"bytes32","internalType":"bytes32"}],"stateMutability":"view"},{"type":"function","name":"PERMIT_TYPEHASH","inputs":[],"outputs":[{"name":"","type":"bytes32","internalType":"bytes32"}],"stateMutability":"view"},{"type":"function","name":"allowance","inputs":[{"name":"","type":"address","internalType":"address"},{"name":"","type":"address","internalType":"address"}],"outputs":[{"name":"","type":"uint256","internalType":"uint256"}],"stateMutability":"view"},{"type":"function","name":"approve","inputs":[{"name":"usr","type":"address","internalType":"address"},{"name":"wad","type":"uint256","internalType":"uint256"}],"outputs":[{"name":"","type":"bool","internalType":"bool"}],"stateMutability":"nonpayable"},{"type":"function","name":"balanceOf","inputs":[{"name":"","type":"address","internalType":"address"}],"outputs":[{"name":"","type":"uint256","internalType":"uint256"}],"stateMutability":"view"},{"type":"function","name":"burn","inputs":[{"name":"usr","type":"address","internalType":"address"},{"name":"wad","type":"uint256","internalType":"uint256"}],"outputs":[],"stateMutability":"nonpayable"},{"type":"function","name":"decimals","inputs":[],"outputs":[{"name":"","type":"uint8","internalType":"uint8"}],"stateMutability":"view"},{"type":"function","name":"exit","inputs":[{"name":"amount","type":"uint256","internalType":"uint256"}],"outputs":[{"name":"","type":"uint256","internalType":"uint256"}],"stateMutability":"nonpayable"},{"type":"function","name":"mint","inputs":[{"name":"usr","type":"address","internalType":"address"},{"name":"wad","type":"uint256","internalType":"uint256"}],"outputs":[],"stateMutability":"nonpayable"},{"type":"function","name":"name","inputs":[],"outputs":[{"name":"","type":"string","internalType":"string"}],"stateMutability":"view"},{"type":"function","name":"nonces","inputs":[{"name":"","type":"address","internalType":"address"}],"outputs":[{"name":"","type":"uint256","internalType":"uint256"}],"stateMutability":"view"},{"type":"function","name":"permit","inputs":[{"name":"owner","type":"address","internalType":"address"},{"name":"spender","type":"address","internalType":"address"},{"name":"value","type":"uint256","internalType":"uint256"},{"name":"deadline","type":"uint256","internalType":"uint256"},{"name":"v","type":"uint8","internalType":"uint8"},{"name":"r","type":"bytes32","internalType":"bytes32"},{"name":"s","type":"bytes32","internalType":"bytes32"}],"outputs":[],"stateMutability":"nonpayable"},{"type":"function","name":"submit","inputs":[{"name":"_referral","type":"address","internalType":"address"}],"outputs":[{"name":"","type":"uint256","internalType":"uint256"}],"stateMutability":"payable"},{"type":"function","name":"symbol","inputs":[],"outputs":[{"name":"","type":"string","internalType":"string"}],"stateMutability":"view"},{"type":"function","name":"totalSupply","inputs":[],"outputs":[{"name":"","type":"uint256","internalType":"uint256"}],"stateMutability":"view"},{"type":"function","name":"transfer","inputs":[{"name":"dst","type":"address","internalType":"address"},{"name":"wad","type":"uint256","internalType":"uint256"}],"outputs":[{"name":"","type":"bool","internalType":"bool"}],"stateMutability":"nonpayable"},{"type":"function","name":"transferFrom","inputs":[{"name":"src","type":"address","internalType":"address"},{"name":"dst","type":"address","internalType":"address"},{"name":"wad","type":"uint256","internalType":"uint256"}],"outputs":[{"name":"","type":"bool","internalType":"bool"}],"stateMutability":"nonpayable"},{"type":"event","name":"Approval","inputs":[{"name":"owner","type":"address","indexed":true,"internalType":"address"},{"name":"spender","type":"address","indexed":true,"internalType":"address"},{"name":"amount","type":"uint256","indexed":false,"internalType":"uint256"}],"anonymous":false},{"type":"event","name":"Transfer","inputs":[{"name":"from","type":"address","indexed":true,"internalType":"address"},{"name":"to","type":"address","indexed":true,"internalType":"address"},{"name":"amount","type":"uint256","indexed":false,"internalType":"uint256"}],"anonymous":false},{"type":"error","name":"TransferOutFailed","inputs":[]},{"type":"error","name":"Unsupported","inputs":[]}],"bytecode":{"object":"0x60a060405234801561000f575f80fd5b506040518060400160405280601c81526020017f4d6f636b204c6971756964207374616b656420457468657220322e30000000008152506040518060400160405280600981526020016809adec6d6a6e88aa8960bb1b8152506012825f908161007891906101db565b50600161008583826101db565b5060ff81166080526040517f8b73c3c69bb8fe3d512ecc4cf759cc79239f7b179b0ffacaa9a75d522b39400f906100bd905f9061029a565b60408051918290038220828201825260018352603160f81b6020938401528151928301939093528101919091527fc89efdaa54c0f20c7adf612882df0950f5a951637e0307cdcb4c672f298b8bc660608201524660808201523060a082015260c0016040516020818303038152906040528051906020012060068190555050505061030c565b634e487b7160e01b5f52604160045260245ffd5b600181811c9082168061016b57607f821691505b60208210810361018957634e487b7160e01b5f52602260045260245ffd5b50919050565b601f8211156101d657805f5260205f20601f840160051c810160208510156101b45750805b601f840160051c820191505b818110156101d3575f81556001016101c0565b50505b505050565b81516001600160401b038111156101f4576101f4610143565b610208816102028454610157565b8461018f565b602080601f83116001811461023b575f84156102245750858301515b5f19600386901b1c1916600185901b178555610292565b5f85815260208120601f198616915b828110156102695788860151825594840194600190910190840161024a565b508582101561028657878501515f19600388901b60f8161c191681555b505060018460011b0185555b505050505050565b5f8083546102a781610157565b600182811680156102bf57600181146102d457610300565b60ff1984168752821515830287019450610300565b875f526020805f205f5b858110156102f75781548a8201529084019082016102de565b50505082870194505b50929695505050505050565b608051610d2e6103245f395f6101dd0152610d2e5ff3fe6080604052600436106100fa575f3560e01c806370a08231116100925780639dc29fac116100625780639dc29fac14610226578063a1903eab146102d0578063a9059cbb146102e3578063d505accf14610302578063dd62ed3e14610321575f80fd5b806370a08231146102475780637ecebe00146102725780637f8661a11461029d57806395d89b41146102bc575f80fd5b806330adf81f116100cd57806330adf81f14610199578063313ce567146101cc5780633644e5151461021157806340c10f1914610226575f80fd5b806306fdde03146100fe578063095ea7b31461012857806318160ddd1461015757806323b872dd1461017a575b5f80fd5b348015610109575f80fd5b50610112610357565b60405161011f9190610aa2565b60405180910390f35b348015610133575f80fd5b50610147610142366004610b09565b6103e2565b604051901515815260200161011f565b348015610162575f80fd5b5061016c60025481565b60405190815260200161011f565b348015610185575f80fd5b50610147610194366004610b31565b61044e565b3480156101a4575f80fd5b5061016c7f6e71edae12b1b97f4d1f60370fef10105fa2faae0126114a169c64845d6126c981565b3480156101d7575f80fd5b506101ff7f000000000000000000000000000000000000000000000000000000000000000081565b60405160ff909116815260200161011f565b34801561021c575f80fd5b5061016c60065481565b348015610231575f80fd5b50610245610240366004610b09565b610663565b005b348015610252575f80fd5b5061016c610261366004610b6a565b60036020525f908152604090205481565b34801561027d575f80fd5b5061016c61028c366004610b6a565b60056020525f908152604090205481565b3480156102a8575f80fd5b5061016c6102b7366004610b83565b61067c565b3480156102c7575f80fd5b50610112610775565b61016c6102de366004610b6a565b610782565b3480156102ee575f80fd5b506101476102fd366004610b09565b610814565b34801561030d575f80fd5b5061024561031c366004610b9a565b610827565b34801561032c575f80fd5b5061016c61033b366004610c07565b600460209081525f928352604080842090915290825290205481565b5f805461036390610c38565b80601f016020809104026020016040519081016040528092919081815260200182805461038f90610c38565b80156103da5780601f106103b1576101008083540402835291602001916103da565b820191905f5260205f20905b8154815290600101906020018083116103bd57829003601f168201915b505050505081565b335f8181526004602090815260408083206001600160a01b038716808552925280832085905551919290917f8c5be1e5ebec7d5bd14f71427d1e84f3dd0314c0f7b2291e5b200ac8c7c3b9259061043c9086815260200190565b60405180910390a35060015b92915050565b6001600160a01b0383165f908152600360205260408120548211156104b15760405162461bcd60e51b8152602060048201526014602482015273696e73756666696369656e742d62616c616e636560601b60448201526064015b60405180910390fd5b6001600160a01b03841633148015906104ed57506001600160a01b0384165f9081526004602090815260408083203384529091529020545f1914155b156105ae576001600160a01b0384165f90815260046020908152604080832033845290915290205482111561055d5760405162461bcd60e51b8152602060048201526016602482015275696e73756666696369656e742d616c6c6f77616e636560501b60448201526064016104a8565b6001600160a01b0384165f90815260046020908152604080832033845290915290205461058a9083610a70565b6001600160a01b0385165f9081526004602090815260408083203384529091529020555b6001600160a01b0384165f908152600360205260409020546105d09083610a70565b6001600160a01b038086165f9081526003602052604080822093909355908516815220546105fe9083610a89565b6001600160a01b038085165f8181526003602052604090819020939093559151908616907fddf252ad1be2c89b69c2b068fc378daa952ba7f163c4a11628f55a4df523b3ef906106519086815260200190565b60405180910390a35060019392505050565b604051634851657960e11b815260040160405180910390fd5b335f908152600360205260408120546106959083610a70565b335f908152600360205260409020556002546106b19083610a70565b6002556040518281525f9033907fddf252ad1be2c89b69c2b068fc378daa952ba7f163c4a11628f55a4df523b3ef9060200160405180910390a35f6103e86106fb846103e9610c84565b6107059190610c9b565b6040519091505f90339083908381818185875af1925050503d805f8114610747576040519150601f19603f3d011682016040523d82523d5f602084013e61074c565b606091505b505090508061076e5760405163cefaffeb60e01b815260040160405180910390fd5b5092915050565b6001805461036390610c38565b5f806107906103e934610c9b565b61079c906103e8610c84565b335f908152600360205260409020549091506107b89082610a89565b335f908152600360205260409020556002546107d49082610a89565b60025560405181815233905f907fddf252ad1be2c89b69c2b068fc378daa952ba7f163c4a11628f55a4df523b3ef9060200160405180910390a392915050565b5f61082033848461044e565b9392505050565b428410156108615760405162461bcd60e51b81526020600482015260076024820152661156141254915160ca1b60448201526064016104a8565b6006546001600160a01b0388165f90815260056020526040812080549192917f6e71edae12b1b97f4d1f60370fef10105fa2faae0126114a169c64845d6126c9918b918b918b9190876108b383610cba565b909155506040805160208101969096526001600160a01b0394851690860152929091166060840152608083015260a082015260c0810187905260e0016040516020818303038152906040528051906020012060405160200161092c92919061190160f01b81526002810192909252602282015260420190565b60408051601f1981840301815282825280516020918201205f80855291840180845281905260ff88169284019290925260608301869052608083018590529092509060019060a0016020604051602081039080840390855afa158015610994573d5f803e3d5ffd5b5050604051601f1901519150506001600160a01b038116158015906109ca5750886001600160a01b0316816001600160a01b0316145b610a0a5760405162461bcd60e51b8152602060048201526011602482015270494e56414c49445f5349474e415455524560781b60448201526064016104a8565b6001600160a01b038981165f818152600460209081526040808320948d16808452948252918290208b905590518a81527f8c5be1e5ebec7d5bd14f71427d1e84f3dd0314c0f7b2291e5b200ac8c7c3b925910160405180910390a3505050505050505050565b5f82610a7c8382610cd2565b9150811115610448575f80fd5b5f82610a958382610ce5565b9150811015610448575f80fd5b5f602080835283518060208501525f5b81811015610ace57858101830151858201604001528201610ab2565b505f604082860101526040601f19601f8301168501019250505092915050565b80356001600160a01b0381168114610b04575f80fd5b919050565b5f8060408385031215610b1a575f80fd5b610b2383610aee565b946020939093013593505050565b5f805f60608486031215610b43575f80fd5b610b4c84610aee565b9250610b5a60208501610aee565b9150604084013590509250925092565b5f60208284031215610b7a575f80fd5b61082082610aee565b5f60208284031215610b93575f80fd5b5035919050565b5f805f805f805f60e0888a031215610bb0575f80fd5b610bb988610aee565b9650610bc760208901610aee565b95506040880135945060608801359350608088013560ff81168114610bea575f80fd5b9699959850939692959460a0840135945060c09093013592915050565b5f8060408385031215610c18575f80fd5b610c2183610aee565b9150610c2f60208401610aee565b90509250929050565b600181811c90821680610c4c57607f821691505b602082108103610c6a57634e487b7160e01b5f52602260045260245ffd5b50919050565b634e487b7160e01b5f52601160045260245ffd5b808202811582820484141761044857610448610c70565b5f82610cb557634e487b7160e01b5f52601260045260245ffd5b500490565b5f60018201610ccb57610ccb610c70565b5060010190565b8181038181111561044857610448610c70565b8082018082111561044857610448610c7056fea2646970667358221220de9f22145c1e5c792a3d5a0c421c8a3205eac9d7921fb0c4f9aa3bb0a29d263864736f6c63430008190033","linkReferences":{}},"methodIdentifiers":{"DOMAIN_SEPARATOR()":"3644e515","PERMIT_TYPEHASH()":"30adf81f","allowance(address,address)":"dd62ed3e","approve(address,uint256)":"095ea7b3","balanceOf(address)":"70a08231","burn(address,uint256)":"9dc29fac","decimals()":"313ce567","exit(uint256)":"7f8661a1","mint(address,uint256)":"40c10f19","name()":"06fdde03","nonces(address)":"7ecebe00","permit(address,address,uint256,uint256,uint8,bytes32,bytes32)":"d505accf","submit(address)":"a1903eab","symbol()":"95d89b41","totalSupply()":"18160ddd","transfer(address,uint256)":"a9059cbb","transferFrom(address,address,uint256)":"23b872dd"},"id":12}