{
  "abi": [
    {
      "inputs": [
        {
          "internalType": "address",
          "name": "_allo",
          "type": "address"
        },
        {
          "internalType": "string",
          "name": "_name",
          "type": "string"
        }
      ],
      "stateMutability": "nonpayable",
      "type": "constructor"
    },
    {
      "inputs": [],
      "name": "ALLOCATION_ACTIVE",
      "type": "error"
    },
    {
      "inputs": [],
      "name": "ALLOCATION_NOT_ACTIVE",
      "type": "error"
    },
    {
      "inputs": [],
      "name": "ALLOCATION_NOT_ENDED",
      "type": "error"
    },
    {
      "inputs": [],
      "name": "ALREADY_INITIALIZED",
      "type": "error"
    },
    {
      "inputs": [],
      "name": "AMOUNT_MISMATCH",
      "type": "error"
    },
    {
      "inputs": [],
      "name": "ANCHOR_ERROR",
      "type": "error"
    },
    {
      "inputs": [],
      "name": "ARRAY_MISMATCH",
      "type": "error"
    },
    {
      "inputs": [],
      "name": "INVALID",
      "type": "error"
    },
    {
      "inputs": [],
      "name": "INVALID_ADDRESS",
      "type": "error"
    },
    {
      "inputs": [],
      "name": "INVALID_FEE",
      "type": "error"
    },
    {
      "inputs": [],
      "name": "INVALID_METADATA",
      "type": "error"
    },
    {
      "inputs": [],
      "name": "INVALID_REGISTRATION",
      "type": "error"
    },
    {
      "inputs": [],
      "name": "IS_APPROVED_STRATEGY",
      "type": "error"
    },
    {
      "inputs": [],
      "name": "MISMATCH",
      "type": "error"
    },
    {
      "inputs": [],
      "name": "NONCE_NOT_AVAILABLE",
      "type": "error"
    },
    {
      "inputs": [],
      "name": "NOT_APPROVED_STRATEGY",
      "type": "error"
    },
    {
      "inputs": [],
      "name": "NOT_ENOUGH_FUNDS",
      "type": "error"
    },
    {
      "inputs": [],
      "name": "NOT_INITIALIZED",
      "type": "error"
    },
    {
      "inputs": [],
      "name": "NOT_PENDING_OWNER",
      "type": "error"
    },
    {
      "inputs": [],
      "name": "POOL_ACTIVE",
      "type": "error"
    },
    {
      "inputs": [],
      "name": "POOL_INACTIVE",
      "type": "error"
    },
    {
      "inputs": [],
      "name": "RECIPIENT_ALREADY_ACCEPTED",
      "type": "error"
    },
    {
      "inputs": [
        {
          "internalType": "address",
          "name": "recipientId",
          "type": "address"
        }
      ],
      "name": "RECIPIENT_ERROR",
      "type": "error"
    },
    {
      "inputs": [],
      "name": "RECIPIENT_NOT_ACCEPTED",
      "type": "error"
    },
    {
      "inputs": [],
      "name": "REGISTRATION_NOT_ACTIVE",
      "type": "error"
    },
    {
      "inputs": [],
      "name": "UNAUTHORIZED",
      "type": "error"
    },
    {
      "inputs": [],
      "name": "ZERO_ADDRESS",
      "type": "error"
    },
    {
      "anonymous": false,
      "inputs": [
        {
          "indexed": true,
          "internalType": "address",
          "name": "recipientId",
          "type": "address"
        },
        {
          "indexed": false,
          "internalType": "uint256",
          "name": "votes",
          "type": "uint256"
        },
        {
          "indexed": false,
          "internalType": "address",
          "name": "allocator",
          "type": "address"
        }
      ],
      "name": "Allocated",
      "type": "event"
    },
    {
      "anonymous": false,
      "inputs": [
        {
          "indexed": true,
          "internalType": "address",
          "name": "recipientId",
          "type": "address"
        },
        {
          "indexed": false,
          "internalType": "uint256",
          "name": "amount",
          "type": "uint256"
        },
        {
          "indexed": false,
          "internalType": "address",
          "name": "token",
          "type": "address"
        },
        {
          "indexed": false,
          "internalType": "address",
          "name": "sender",
          "type": "address"
        }
      ],
      "name": "Allocated",
      "type": "event"
    },
    {
      "anonymous": false,
      "inputs": [
        {
          "indexed": true,
          "internalType": "address",
          "name": "recipientId",
          "type": "address"
        },
        {
          "indexed": false,
          "internalType": "uint256",
          "name": "votes",
          "type": "uint256"
        },
        {
          "indexed": false,
          "internalType": "address",
          "name": "nft",
          "type": "address"
        },
        {
          "indexed": false,
          "internalType": "address",
          "name": "allocator",
          "type": "address"
        }
      ],
      "name": "AllocatedWithNft",
      "type": "event"
    },
    {
      "anonymous": false,
      "inputs": [
        {
          "indexed": true,
          "internalType": "address",
          "name": "recipientId",
          "type": "address"
        },
        {
          "indexed": false,
          "internalType": "address",
          "name": "recipientAddress",
          "type": "address"
        },
        {
          "indexed": false,
          "internalType": "uint256",
          "name": "amount",
          "type": "uint256"
        },
        {
          "indexed": false,
          "internalType": "address",
          "name": "sender",
          "type": "address"
        }
      ],
      "name": "Distributed",
      "type": "event"
    },
    {
      "anonymous": false,
      "inputs": [
        {
          "indexed": false,
          "internalType": "address",
          "name": "allo",
          "type": "address"
        },
        {
          "indexed": false,
          "internalType": "bytes32",
          "name": "profileId",
          "type": "bytes32"
        },
        {
          "indexed": false,
          "internalType": "uint256",
          "name": "poolId",
          "type": "uint256"
        },
        {
          "indexed": false,
          "internalType": "bytes",
          "name": "data",
          "type": "bytes"
        }
      ],
      "name": "Initialized",
      "type": "event"
    },
    {
      "anonymous": false,
      "inputs": [
        {
          "indexed": false,
          "internalType": "bool",
          "name": "active",
          "type": "bool"
        }
      ],
      "name": "PoolActive",
      "type": "event"
    },
    {
      "anonymous": false,
      "inputs": [
        {
          "indexed": true,
          "internalType": "address",
          "name": "recipientId",
          "type": "address"
        },
        {
          "indexed": false,
          "internalType": "enum IStrategy.Status",
          "name": "status",
          "type": "uint8"
        },
        {
          "indexed": false,
          "internalType": "address",
          "name": "sender",
          "type": "address"
        }
      ],
      "name": "RecipientStatusUpdated",
      "type": "event"
    },
    {
      "anonymous": false,
      "inputs": [
        {
          "indexed": true,
          "internalType": "address",
          "name": "recipientId",
          "type": "address"
        },
        {
          "indexed": false,
          "internalType": "bytes",
          "name": "data",
          "type": "bytes"
        },
        {
          "indexed": false,
          "internalType": "address",
          "name": "sender",
          "type": "address"
        }
      ],
      "name": "Registered",
      "type": "event"
    },
    {
      "anonymous": false,
      "inputs": [
        {
          "indexed": true,
          "internalType": "address",
          "name": "recipientId",
          "type": "address"
        },
        {
          "indexed": false,
          "internalType": "enum IStrategy.Status",
          "name": "status",
          "type": "uint8"
        },
        {
          "indexed": false,
          "internalType": "address",
          "name": "sender",
          "type": "address"
        }
      ],
      "name": "Reviewed",
      "type": "event"
    },
    {
      "anonymous": false,
      "inputs": [
        {
          "indexed": false,
          "internalType": "uint64",
          "name": "registrationStartTime",
          "type": "uint64"
        },
        {
          "indexed": false,
          "internalType": "uint64",
          "name": "registrationEndTime",
          "type": "uint64"
        },
        {
          "indexed": false,
          "internalType": "uint64",
          "name": "allocationStartTime",
          "type": "uint64"
        },
        {
          "indexed": false,
          "internalType": "uint64",
          "name": "allocationEndTime",
          "type": "uint64"
        },
        {
          "indexed": false,
          "internalType": "address",
          "name": "sender",
          "type": "address"
        }
      ],
      "name": "TimestampsUpdated",
      "type": "event"
    },
    {
      "anonymous": false,
      "inputs": [
        {
          "indexed": true,
          "internalType": "address",
          "name": "recipientId",
          "type": "address"
        },
        {
          "indexed": false,
          "internalType": "bytes",
          "name": "data",
          "type": "bytes"
        },
        {
          "indexed": false,
          "internalType": "address",
          "name": "sender",
          "type": "address"
        },
        {
          "indexed": false,
          "internalType": "enum IStrategy.Status",
          "name": "status",
          "type": "uint8"
        }
      ],
      "name": "UpdatedRegistration",
      "type": "event"
    },
    {
      "inputs": [],
      "name": "NATIVE",
      "outputs": [
        {
          "internalType": "address",
          "name": "",
          "type": "address"
        }
      ],
      "stateMutability": "view",
      "type": "function"
    },
    {
      "inputs": [
        {
          "internalType": "bytes",
          "name": "_data",
          "type": "bytes"
        },
        {
          "internalType": "address",
          "name": "_sender",
          "type": "address"
        }
      ],
      "name": "allocate",
      "outputs": [],
      "stateMutability": "payable",
      "type": "function"
    },
    {
      "inputs": [],
      "name": "allocationEndTime",
      "outputs": [
        {
          "internalType": "uint64",
          "name": "",
          "type": "uint64"
        }
      ],
      "stateMutability": "view",
      "type": "function"
    },
    {
      "inputs": [],
      "name": "allocationStartTime",
      "outputs": [
        {
          "internalType": "uint64",
          "name": "",
          "type": "uint64"
        }
      ],
      "stateMutability": "view",
      "type": "function"
    },
    {
      "inputs": [
        {
          "internalType": "address",
          "name": "",
          "type": "address"
        }
      ],
      "name": "allocators",
      "outputs": [
        {
          "internalType": "uint256",
          "name": "voiceCredits",
          "type": "uint256"
        }
      ],
      "stateMutability": "view",
      "type": "function"
    },
    {
      "inputs": [
        {
          "internalType": "address[]",
          "name": "_recipientIds",
          "type": "address[]"
        },
        {
          "internalType": "bytes",
          "name": "_data",
          "type": "bytes"
        },
        {
          "internalType": "address",
          "name": "_sender",
          "type": "address"
        }
      ],
      "name": "distribute",
      "outputs": [],
      "stateMutability": "nonpayable",
      "type": "function"
    },
    {
      "inputs": [],
      "name": "getAllo",
      "outputs": [
        {
          "internalType": "contract IAllo",
          "name": "",
          "type": "address"
        }
      ],
      "stateMutability": "view",
      "type": "function"
    },
    {
      "inputs": [
        {
          "internalType": "address[]",
          "name": "_recipientIds",
          "type": "address[]"
        },
        {
          "internalType": "bytes[]",
          "name": "_data",
          "type": "bytes[]"
        }
      ],
      "name": "getPayouts",
      "outputs": [
        {
          "components": [
            {
              "internalType": "address",
              "name": "recipientAddress",
              "type": "address"
            },
            {
              "internalType": "uint256",
              "name": "amount",
              "type": "uint256"
            }
          ],
          "internalType": "struct IStrategy.PayoutSummary[]",
          "name": "",
          "type": "tuple[]"
        }
      ],
      "stateMutability": "view",
      "type": "function"
    },
    {
      "inputs": [],
      "name": "getPoolAmount",
      "outputs": [
        {
          "internalType": "uint256",
          "name": "",
          "type": "uint256"
        }
      ],
      "stateMutability": "view",
      "type": "function"
    },
    {
      "inputs": [],
      "name": "getPoolId",
      "outputs": [
        {
          "internalType": "uint256",
          "name": "",
          "type": "uint256"
        }
      ],
      "stateMutability": "view",
      "type": "function"
    },
    {
      "inputs": [
        {
          "internalType": "address",
          "name": "_recipientId",
          "type": "address"
        }
      ],
      "name": "getRecipient",
      "outputs": [
        {
          "components": [
            {
              "internalType": "uint256",
              "name": "totalVotesReceived",
              "type": "uint256"
            },
            {
              "internalType": "bool",
              "name": "useRegistryAnchor",
              "type": "bool"
            },
            {
              "internalType": "address",
              "name": "recipientAddress",
              "type": "address"
            },
            {
              "components": [
                {
                  "internalType": "uint256",
                  "name": "protocol",
                  "type": "uint256"
                },
                {
                  "internalType": "string",
                  "name": "pointer",
                  "type": "string"
                }
              ],
              "internalType": "struct Metadata",
              "name": "metadata",
              "type": "tuple"
            },
            {
              "internalType": "enum IStrategy.Status",
              "name": "recipientStatus",
              "type": "uint8"
            }
          ],
          "internalType": "struct QVBaseStrategy.Recipient",
          "name": "",
          "type": "tuple"
        }
      ],
      "stateMutability": "view",
      "type": "function"
    },
    {
      "inputs": [
        {
          "internalType": "address",
          "name": "_recipientId",
          "type": "address"
        }
      ],
      "name": "getRecipientStatus",
      "outputs": [
        {
          "internalType": "enum IStrategy.Status",
          "name": "",
          "type": "uint8"
        }
      ],
      "stateMutability": "view",
      "type": "function"
    },
    {
      "inputs": [],
      "name": "getStrategyId",
      "outputs": [
        {
          "internalType": "bytes32",
          "name": "",
          "type": "bytes32"
        }
      ],
      "stateMutability": "view",
      "type": "function"
    },
    {
      "inputs": [
        {
          "internalType": "uint256",
          "name": "_amount",
          "type": "uint256"
        }
      ],
      "name": "increasePoolAmount",
      "outputs": [],
      "stateMutability": "nonpayable",
      "type": "function"
    },
    {
      "inputs": [
        {
          "internalType": "uint256",
          "name": "_poolId",
          "type": "uint256"
        },
        {
          "internalType": "bytes",
          "name": "_data",
          "type": "bytes"
        }
      ],
      "name": "initialize",
      "outputs": [],
      "stateMutability": "nonpayable",
      "type": "function"
    },
    {
      "inputs": [],
      "name": "isPoolActive",
      "outputs": [
        {
          "internalType": "bool",
          "name": "",
          "type": "bool"
        }
      ],
      "stateMutability": "view",
      "type": "function"
    },
    {
      "inputs": [
        {
          "internalType": "address",
          "name": "_allocator",
          "type": "address"
        }
      ],
      "name": "isValidAllocator",
      "outputs": [
        {
          "internalType": "bool",
          "name": "",
          "type": "bool"
        }
      ],
      "stateMutability": "view",
      "type": "function"
    },
    {
      "inputs": [
        {
          "internalType": "contract ERC721",
          "name": "",
          "type": "address"
        }
      ],
      "name": "maxVoiceCreditsPerNft",
      "outputs": [
        {
          "internalType": "uint256",
          "name": "",
          "type": "uint256"
        }
      ],
      "stateMutability": "view",
      "type": "function"
    },
    {
      "inputs": [],
      "name": "metadataRequired",
      "outputs": [
        {
          "internalType": "bool",
          "name": "",
          "type": "bool"
        }
      ],
      "stateMutability": "view",
      "type": "function"
    },
    {
      "inputs": [
        {
          "internalType": "uint256",
          "name": "",
          "type": "uint256"
        }
      ],
      "name": "nfts",
      "outputs": [
        {
          "internalType": "contract ERC721",
          "name": "",
          "type": "address"
        }
      ],
      "stateMutability": "view",
      "type": "function"
    },
    {
      "inputs": [
        {
          "internalType": "address",
          "name": "",
          "type": "address"
        }
      ],
      "name": "paidOut",
      "outputs": [
        {
          "internalType": "bool",
          "name": "",
          "type": "bool"
        }
      ],
      "stateMutability": "view",
      "type": "function"
    },
    {
      "inputs": [
        {
          "internalType": "address",
          "name": "",
          "type": "address"
        }
      ],
      "name": "recipients",
      "outputs": [
        {
          "internalType": "uint256",
          "name": "totalVotesReceived",
          "type": "uint256"
        },
        {
          "internalType": "bool",
          "name": "useRegistryAnchor",
          "type": "bool"
        },
        {
          "internalType": "address",
          "name": "recipientAddress",
          "type": "address"
        },
        {
          "components": [
            {
              "internalType": "uint256",
              "name": "protocol",
              "type": "uint256"
            },
            {
              "internalType": "string",
              "name": "pointer",
              "type": "string"
            }
          ],
          "internalType": "struct Metadata",
          "name": "metadata",
          "type": "tuple"
        },
        {
          "internalType": "enum IStrategy.Status",
          "name": "recipientStatus",
          "type": "uint8"
        }
      ],
      "stateMutability": "view",
      "type": "function"
    },
    {
      "inputs": [
        {
          "internalType": "bytes",
          "name": "_data",
          "type": "bytes"
        },
        {
          "internalType": "address",
          "name": "_sender",
          "type": "address"
        }
      ],
      "name": "registerRecipient",
      "outputs": [
        {
          "internalType": "address",
          "name": "recipientId",
          "type": "address"
        }
      ],
      "stateMutability": "payable",
      "type": "function"
    },
    {
      "inputs": [],
      "name": "registrationEndTime",
      "outputs": [
        {
          "internalType": "uint64",
          "name": "",
          "type": "uint64"
        }
      ],
      "stateMutability": "view",
      "type": "function"
    },
    {
      "inputs": [],
      "name": "registrationStartTime",
      "outputs": [
        {
          "internalType": "uint64",
          "name": "",
          "type": "uint64"
        }
      ],
      "stateMutability": "view",
      "type": "function"
    },
    {
      "inputs": [],
      "name": "registryGating",
      "outputs": [
        {
          "internalType": "bool",
          "name": "",
          "type": "bool"
        }
      ],
      "stateMutability": "view",
      "type": "function"
    },
    {
      "inputs": [
        {
          "internalType": "address[]",
          "name": "_recipientIds",
          "type": "address[]"
        },
        {
          "internalType": "enum IStrategy.Status[]",
          "name": "_recipientStatuses",
          "type": "uint8[]"
        }
      ],
      "name": "reviewRecipients",
      "outputs": [],
      "stateMutability": "nonpayable",
      "type": "function"
    },
    {
      "inputs": [],
      "name": "reviewThreshold",
      "outputs": [
        {
          "internalType": "uint256",
          "name": "",
          "type": "uint256"
        }
      ],
      "stateMutability": "view",
      "type": "function"
    },
    {
      "inputs": [
        {
          "internalType": "address",
          "name": "",
          "type": "address"
        },
        {
          "internalType": "enum IStrategy.Status",
          "name": "",
          "type": "uint8"
        }
      ],
      "name": "reviewsByStatus",
      "outputs": [
        {
          "internalType": "uint256",
          "name": "",
          "type": "uint256"
        }
      ],
      "stateMutability": "view",
      "type": "function"
    },
    {
      "inputs": [],
      "name": "totalRecipientVotes",
      "outputs": [
        {
          "internalType": "uint256",
          "name": "",
          "type": "uint256"
        }
      ],
      "stateMutability": "view",
      "type": "function"
    },
    {
      "inputs": [
        {
          "internalType": "uint64",
          "name": "_registrationStartTime",
          "type": "uint64"
        },
        {
          "internalType": "uint64",
          "name": "_registrationEndTime",
          "type": "uint64"
        },
        {
          "internalType": "uint64",
          "name": "_allocationStartTime",
          "type": "uint64"
        },
        {
          "internalType": "uint64",
          "name": "_allocationEndTime",
          "type": "uint64"
        }
      ],
      "name": "updatePoolTimestamps",
      "outputs": [],
      "stateMutability": "nonpayable",
      "type": "function"
    },
    {
      "inputs": [
        {
          "internalType": "contract ERC721",
          "name": "",
          "type": "address"
        },
        {
          "internalType": "uint256",
          "name": "",
          "type": "uint256"
        }
      ],
      "name": "voiceCreditsUsedPerNftId",
      "outputs": [
        {
          "internalType": "uint256",
          "name": "",
          "type": "uint256"
        }
      ],
      "stateMutability": "view",
      "type": "function"
    }
  ],
  "bytecode": {
    "object": "0x60c06040523480156200001157600080fd5b5060405162003470380380620034708339810160408190526200003491620000c0565b6001600160a01b03821660805260405182908290829082906200005c9082906020016200019b565b60408051601f19818403018152919052805160209091012060a05250620001d0945050505050565b634e487b7160e01b600052604160045260246000fd5b60005b83811015620000b75781810151838201526020016200009d565b50506000910152565b60008060408385031215620000d457600080fd5b82516001600160a01b0381168114620000ec57600080fd5b60208401519092506001600160401b03808211156200010a57600080fd5b818501915085601f8301126200011f57600080fd5b81518181111562000134576200013462000084565b604051601f8201601f19908116603f011681019083821181831017156200015f576200015f62000084565b816040528281528860208487010111156200017957600080fd5b6200018c8360208301602088016200009a565b80955050505050509250929050565b6020815260008251806020840152620001bc8160408501602087016200009a565b601f01601f19169190910160400192915050565b60805160a05161325e62000212600039600061036d01526000818161029101528181610c7601528181610e1301528181610f840152611f15015261325e6000f3fe6080604052600436106101e35760003560e01c80637f83598311610102578063d2e17f5911610095578063eb82031211610064578063eb8203121461063e578063edd146cc1461066f578063ef2920fc1461068f578063f5b0dfb7146106a257600080fd5b8063d2e17f59146105a7578063df868ed3146105cf578063dff7d2c7146105e4578063eb11af931461061157600080fd5b8063a5e7858f116100d1578063a5e7858f14610509578063a647d23e14610541578063b2b878d01461055b578063cb0e85a61461058857600080fd5b80637f8359831461047057806381f03fcb146104905780639af5c09d146104c0578063a0cf0aea146104e157600080fd5b806338fff2d01161017a5780634d31d087116101495780634d31d087146103e75780635782584914610417578063590107011461042d57806362812a391461044357600080fd5b806338fff2d01461034957806342fda9c71461035e5780634533d678146103915780634ab4ba42146103d257600080fd5b80632143e92f116101b65780632143e92f146102c9578063265aa621146102e95780632bbe0cae146103095780632d85dfb01461031c57600080fd5b8063084ea36e146101e85780630a6f0ee9146102285780630d93bb531461024a57806315cc481e14610282575b600080fd5b3480156101f457600080fd5b5061021561020336600461233c565b60086020526000908152604090205481565b6040519081526020015b60405180910390f35b34801561023457600080fd5b50610248610243366004612504565b6106c2565b005b34801561025657600080fd5b50610215610265366004612590565b600a60209081526000928352604080842090915290825290205481565b34801561028e57600080fd5b507f00000000000000000000000000000000000000000000000000000000000000005b6040516001600160a01b03909116815260200161021f565b3480156102d557600080fd5b506102486102e43660046125db565b6106e2565b3480156102f557600080fd5b506102b1610304366004612637565b6106ff565b6102b1610317366004612650565b610729565b34801561032857600080fd5b5061021561033736600461233c565b600c6020526000908152604090205481565b34801561035557600080fd5b50600154610215565b34801561036a57600080fd5b507f0000000000000000000000000000000000000000000000000000000000000000610215565b34801561039d57600080fd5b506005546103b990600160c01b900467ffffffffffffffff1681565b60405167ffffffffffffffff909116815260200161021f565b3480156103de57600080fd5b50600254610215565b3480156103f357600080fd5b5061040761040236600461233c565b61074e565b604051901515815260200161021f565b34801561042357600080fd5b5061021560045481565b34801561043957600080fd5b5061021560035481565b34801561044f57600080fd5b5061046361045e36600461233c565b610759565b60405161021f9190612749565b34801561047c57600080fd5b5061024861048b3660046127f6565b61076a565b34801561049c57600080fd5b506104076104ab36600461233c565b60096020526000908152604090205460ff1681565b3480156104cc57600080fd5b506005546103b99067ffffffffffffffff1681565b3480156104ed57600080fd5b506102b173eeeeeeeeeeeeeeeeeeeeeeeeeeeeeeeeeeeeeeee81565b34801561051557600080fd5b50610215610524366004612862565b600d60209081526000928352604080842090915290825290205481565b34801561054d57600080fd5b506006546104079060ff1681565b34801561056757600080fd5b5061057b61057636600461288e565b6109ea565b60405161021f9190612963565b34801561059457600080fd5b5060065461040790610100900460ff1681565b3480156105b357600080fd5b506005546103b990600160801b900467ffffffffffffffff1681565b3480156105db57600080fd5b50610407610b02565b3480156105f057600080fd5b506005546103b99068010000000000000000900467ffffffffffffffff1681565b34801561061d57600080fd5b5061063161062c36600461233c565b610b11565b60405161021f91906129bb565b34801561064a57600080fd5b5061065e61065936600461233c565b610b1c565b60405161021f9594939291906129c9565b34801561067b57600080fd5b5061024861068a366004612a12565b610c01565b61024861069d366004612650565b610c23565b3480156106ae57600080fd5b506102486106bd366004612637565b610c41565b6106ca610c6b565b6106d2610cb6565b6106dd838383610cf2565b505050565b336106ec81610f41565b6106f88585858561100c565b5050505050565b600b818154811061070f57600080fd5b6000918252602090912001546001600160a01b0316905081565b6000610733610c6b565b61073b610cb6565b61074583836111a6565b90505b92915050565b6000610748826114e3565b6107616122d3565b610748826115ba565b3361077481610f41565b61077c6116f1565b8382811461079d57604051637fcce2a960e01b815260040160405180910390fd5b60005b818110156109e15760008585838181106107bc576107bc612a59565b90506020020160208101906107d19190612a6f565b905060008888848181106107e7576107e7612a59565b90506020020160208101906107fc919061233c565b9050600082600681111561081257610812612711565b148061082f5750600482600681111561082d5761082d612711565b145b1561085d5760405163f4a513b960e01b81526001600160a01b03821660048201526024015b60405180910390fd5b6001600160a01b0381166000908152600a602052604081209083600681111561088857610888612711565b600681111561089957610899612711565b815260200190815260200160002060008154809291906108b890612aa0565b90915550506004546001600160a01b0382166000908152600a60205260408120908460068111156108eb576108eb612711565b60068111156108fc576108fc612711565b81526020019081526020016000205410610994576001600160a01b038116600090815260076020526040902060048101805484919060ff1916600183600681111561094957610949612711565b0217905550816001600160a01b03167f45af2a5942640dc0876474f4fda063eec36dd5518e0bba47622461b993f762a384600060405161098a929190612ab9565b60405180910390a2505b806001600160a01b03167f094d003df6c0153ac428d1a45e5827aa8e2aa00c6dbbc96a2dbb9a682115d83783336040516109cf929190612ab9565b60405180910390a250506001016107a0565b50505050505050565b81518151606091908114610a2a576040517f7b49805600000000000000000000000000000000000000000000000000000000815260040160405180910390fd5b60008167ffffffffffffffff811115610a4557610a45612360565b604051908082528060200260200182016040528015610a8a57816020015b6040805180820190915260008082526020820152815260200190600190039081610a635790505b50905060005b82811015610af957610ad4868281518110610aad57610aad612a59565b6020026020010151868381518110610ac757610ac7612a59565b602002602001015161175b565b828281518110610ae657610ae6612a59565b6020908102919091010152600101610a90565b50949350505050565b6000610b0c61190a565b905090565b600061074882611954565b6007602090815260009182526040918290208054600182015484518086019095526002830180548652600384018054939660ff8416966101009094046001600160a01b03169594909384019190610b7290612add565b80601f0160208091040260200160405190810160405280929190818152602001828054610b9e90612add565b8015610beb5780601f10610bc057610100808354040283529160200191610beb565b820191906000526020600020905b815481529060010190602001808311610bce57829003601f168201915b5050509190925250505060049091015460ff1685565b600081806020019051810190610c179190612c31565b90506106dd8382611969565b610c2b610c6b565b610c33610cb6565b610c3d8282611a7f565b5050565b610c49610c6b565b8060026000828254610c5b9190612d30565b90915550610c6890508181565b50565b336001600160a01b037f00000000000000000000000000000000000000000000000000000000000000001614610cb45760405163075fd2b160e01b815260040160405180910390fd5b565b600154600003610cb4576040517f3da3f98c00000000000000000000000000000000000000000000000000000000815260040160405180910390fd5b80610cfc81610f41565b610d04611cae565b835160005b81811015610f39576000868281518110610d2557610d25612a59565b60200260200101519050600060076000836001600160a01b03166001600160a01b0316815260200190815260200160002090506000610d73836040518060200160405280600081525061175b565b6020808201516001600160a01b038616600090815260099092526040909120549192509060ff1680610dab5750610da984611cfb565b155b80610db4575080155b15610ddd5760405163f4a513b960e01b81526001600160a01b0385166004820152602401610854565b6001546040517f068bcd8d0000000000000000000000000000000000000000000000000000000081526000916001600160a01b037f0000000000000000000000000000000000000000000000000000000000000000169163068bcd8d91610e4a9160040190815260200190565b600060405180830381865afa158015610e67573d6000803e3d6000fd5b505050506040513d6000823e601f3d908101601f19168201604052610e8f9190810190612e02565b60408101516001860154919250610eb49161010090046001600160a01b031684611d36565b6001600160a01b03858116600081815260096020908152604091829020805460ff19166001908117909155880154825161010090910485168152908101869052928c1690830152907fb5b51454adfa840bd593658325a60a50b0216f12eb5d2937efe6cea935675b7d9060600160405180910390a28560010195505050505050610d09565b505050505050565b6001546040517f29e40d4b00000000000000000000000000000000000000000000000000000000815260048101919091526001600160a01b0382811660248301527f000000000000000000000000000000000000000000000000000000000000000016906329e40d4b90604401602060405180830381865afa158015610fcb573d6000803e3d6000fd5b505050506040513d601f19601f82011682018060405250810190610fef9190612eb6565b610c685760405163075fd2b160e01b815260040160405180910390fd5b8367ffffffffffffffff1642118061103757508267ffffffffffffffff168467ffffffffffffffff16115b8061105557508167ffffffffffffffff168467ffffffffffffffff16115b8061107357508067ffffffffffffffff168267ffffffffffffffff16115b8061109157508067ffffffffffffffff168367ffffffffffffffff16115b156110af57604051637fcce2a960e01b815260040160405180910390fd5b6005805467ffffffffffffffff838116600160c01b90810277ffffffffffffffffffffffffffffffffffffffffffffffff878416600160801b908102919091166fffffffffffffffffffffffffffffffff8a8616680100000000000000009081027fffffffffffffffffffffffffffffffff000000000000000000000000000000009098168d88161797909717161791909117948590556040805186851681529486048416602086015290850483169084015290920490911660608201523360808201527fcb0fb7a7b87db2f472ee8977444cfdbc51993ce660aca27a5969a724fae6dcf39060a00160405180910390a150505050565b60006111b06116f1565b60008060006111d2604051806040016040528060008152602001606081525090565b60065460ff161561122457868060200190518101906111f19190612ed1565b919650945090506112028587611d7b565b61121f5760405163075fd2b160e01b815260040160405180910390fd5b61128e565b868060200190518101906112389190612ed1565b91955093506001600160a01b03841615159250905081611258578561125a565b825b9450818015611270575061126e8587611d7b565b155b1561128e5760405163075fd2b160e01b815260040160405180910390fd5b600654610100900460ff1680156112b1575060208101515115806112b157508051155b156112e8576040517fc19e07c500000000000000000000000000000000000000000000000000000000815260040160405180910390fd5b6001600160a01b03841661131a5760405163f4a513b960e01b81526001600160a01b0386166004820152602401610854565b6001600160a01b038086166000908152600760209081526040909120600181018054938816610100027fffffffffffffffffffffff0000000000000000000000000000000000000000ff9094169390931790925582516002830190815590830151839190600384019061138d9082612f7b565b505060065460ff1690506113a157826113a4565b60015b60018201805460ff1916911515919091179055600481015460ff1660008160068111156113d3576113d3612711565b036114315760048201805460ff191660011790556040516001600160a01b038816907fa197306e3dd5494a61a695381aa809a53b8e377a685e84e404a85d5a8da6cc6290611424908c908c9061303b565b60405180910390a26114d7565b600281600681111561144557611445612711565b0361145e5760048201805460ff19166001179055611488565b600381600681111561147257611472612711565b03611488576004828101805460ff191690911790555b60048201546040516001600160a01b038916917fcec1da3f7f0b8a344dd1025d06e2ddd48b14880395997ad97cbdb439acc761d4916114ce918d918d9160ff1690613066565b60405180910390a25b50505050505092915050565b600b54600090815b818110156115b0576000600b828154811061150857611508612a59565b6000918252602090912001546040517f70a082310000000000000000000000000000000000000000000000000000000081526001600160a01b038781166004830152909116906370a0823190602401602060405180830381865afa158015611574573d6000803e3d6000fd5b505050506040513d601f19601f820116820180604052508101906115989190613097565b11156115a8575060019392505050565b6001016114eb565b5060009392505050565b6115c26122d3565b6001600160a01b03808316600090815260076020908152604091829020825160a08101845281548152600182015460ff811615158285015261010090049094168484015282518084019093526002810180548452600382018054929460608701949093908401919061163390612add565b80601f016020809104026020016040519081016040528092919081815260200182805461165f90612add565b80156116ac5780601f10611681576101008083540402835291602001916116ac565b820191906000526020600020905b81548152906001019060200180831161168f57829003601f168201915b505050919092525050508152600482015460209091019060ff1660068111156116d7576116d7612711565b60068111156116e8576116e8612711565b90525092915050565b6005544267ffffffffffffffff9091161180611724575060055468010000000000000000900467ffffffffffffffff1642115b15610cb4576040517fb609ed5a00000000000000000000000000000000000000000000000000000000815260040160405180910390fd5b604080518082018252600080825260208083018290526001600160a01b03868116835260078252848320855160a08101875281548152600182015460ff8116151582860152610100900490921682870152855180870190965260028101805487526003820180549697959693959294606087019490840191906117dd90612add565b80601f016020809104026020016040519081016040528092919081815260200182805461180990612add565b80156118565780601f1061182b57610100808354040283529160200191611856565b820191906000526020600020905b81548152906001019060200180831161183957829003601f168201915b505050919092525050508152600482015460209091019060ff16600681111561188157611881612711565b600681111561189257611892612711565b9052506001600160a01b0385166000908152600960205260408120549192509060ff161580156118c3575060035415155b156118e75760035482516002546118da91906130b0565b6118e491906130c7565b90505b6040805180820182529201516001600160a01b0316825260208201529392505050565b6005546000904267ffffffffffffffff90911611801590611943575060055468010000000000000000900467ffffffffffffffff164211155b1561194e5750600190565b50600090565b600061195f826115ba565b6080015192915050565b611977828260400151611eb5565b805151602082015151811461199f57604051637fcce2a960e01b815260040160405180910390fd5b60005b81811015611a79576000836000015182815181106119c2576119c2612a59565b602090810291909101810151600b80546001810182556000919091527f0175b7a638427703f0dbe7bb9bbf987a2551717b34e79f33b5b1008d1fa01db90180547fffffffffffffffffffffffff0000000000000000000000000000000000000000166001600160a01b0383161790559085015180519192509083908110611a4b57611a4b612a59565b6020908102919091018101516001600160a01b039092166000908152600c90915260409020556001016119a2565b50505050565b60008060008085806020019051810190611a9991906130e9565b6001600160a01b0384811660009081526007602090815260408083208d851680855260089093529281902090517f6352211e00000000000000000000000000000000000000000000000000000000815260048101879052979b50959950939750919550909390871690636352211e90602401602060405180830381865afa158015611b28573d6000803e3d6000fd5b505050506040513d601f19601f82011682018060405250810190611b4c9190613131565b6001600160a01b031614611b735760405163075fd2b160e01b815260040160405180910390fd5b611b7c86611cfb565b611ba45760405163f4a513b960e01b81526001600160a01b0387166004820152602401610854565b6001600160a01b0385166000908152600d60209081526040808320878452909152902054611bf490611bd69085612d30565b6001600160a01b0387166000908152600c6020526040902054101590565b611c1157604051637fcce2a960e01b815260040160405180910390fd5b611c1e818388868b611fd5565b6001600160a01b0385166000908152600d6020908152604080832087845290915281208054859290611c51908490612d30565b9091555050604080518481526001600160a01b038781166020830152898116828401529151918816917fb047dcfdf472d3f747c925e54f22a824a8eac7249a860999337580024563c6a69181900360600190a25050505050505050565b600554600160c01b900467ffffffffffffffff16421015610cb4576040517f8a879da200000000000000000000000000000000000000000000000000000000815260040160405180910390fd5b600060026001600160a01b03831660009081526007602052604090206004015460ff166006811115611d2f57611d2f612711565b1492915050565b7fffffffffffffffffffffffff11111111111111111111111111111111111111126001600160a01b03841601611d70576106dd828261213c565b6106dd838383612158565b6006546040517fdd93da430000000000000000000000000000000000000000000000000000000081526001600160a01b0384811660048301526000928392620100009091049091169063dd93da4390602401600060405180830381865afa158015611dea573d6000803e3d6000fd5b505050506040513d6000823e601f3d908101601f19168201604052611e12919081019061314e565b60065481516040517f5e8a791500000000000000000000000000000000000000000000000000000000815260048101919091526001600160a01b0386811660248301529293506201000090910490911690635e8a791590604401602060405180830381865afa158015611e89573d6000803e3d6000fd5b505050506040513d601f19601f82011682018060405250810190611ead9190612eb6565b949350505050565b611ebe826121a7565b80516006805460208085015161ffff1990921693151561ff0019169390931761010091151591909102179055604080517f5ab1bd5300000000000000000000000000000000000000000000000000000000815290517f00000000000000000000000000000000000000000000000000000000000000006001600160a01b031692635ab1bd5392600480820193918290030181865afa158015611f64573d6000803e3d6000fd5b505050506040513d601f19601f82011682018060405250810190611f889190613131565b600660026101000a8154816001600160a01b0302191690836001600160a01b031602179055508060400151600481905550610c3d816060015182608001518360a001518460c0015161100c565b611fdd61220f565b81600003611ffe57604051637fcce2a960e01b815260040160405180910390fd5b6001600160a01b03831660009081526001860160209081526040808320546002890190925282205490916120328386612d30565b9050600061205061204b83670de0b6b3a76400006130b0565b61227a565b905061205c8382613215565b905080600360008282546120709190612d30565b9091555050875481908990600090612089908490612d30565b90915550506001600160a01b038716600090815260018a016020526040812080548492906120b8908490612d30565b90915550506001600160a01b038716600090815260028a016020526040812080548392906120e7908490612d30565b9091555050604080518281526001600160a01b0387811660208301528916917fe19137169fc4bceb2391a0921a61084851c12884df4897f569ec45a4ee46b7e3910160405180910390a2505050505050505050565b60008060008084865af1610c3d5763b12d13eb6000526004601cfd5b81601452806034526fa9059cbb00000000000000000000000060005260206000604460106000875af13d15600160005114171661219d576390b8ec186000526004601cfd5b6000603452505050565b6121af610c6b565b600154156121e9576040517f439a74c900000000000000000000000000000000000000000000000000000000815260040160405180910390fd5b8060000361220a57604051637fcce2a960e01b815260040160405180910390fd5b600155565b60055442600160801b90910467ffffffffffffffff1611806122435750600554600160c01b900467ffffffffffffffff1642115b15610cb4576040517fb828c90000000000000000000000000000000000000000000000000000000000815260040160405180910390fd5b600080600261228a846001612d30565b61229491906130c7565b90508291505b818110156122cd579050806002816122b281866130c7565b6122bc9190612d30565b6122c691906130c7565b905061229a565b50919050565b6040518060a001604052806000815260200160001515815260200160006001600160a01b0316815260200161231b604051806040016040528060008152602001606081525090565b81526020016000905290565b6001600160a01b0381168114610c6857600080fd5b60006020828403121561234e57600080fd5b813561235981612327565b9392505050565b634e487b7160e01b600052604160045260246000fd5b6040516060810167ffffffffffffffff8111828210171561239957612399612360565b60405290565b60405160c0810167ffffffffffffffff8111828210171561239957612399612360565b604051601f8201601f1916810167ffffffffffffffff811182821017156123eb576123eb612360565b604052919050565b600067ffffffffffffffff82111561240d5761240d612360565b5060051b60200190565b600082601f83011261242857600080fd5b8135602061243d612438836123f3565b6123c2565b82815260059290921b8401810191818101908684111561245c57600080fd5b8286015b8481101561248057803561247381612327565b8352918301918301612460565b509695505050505050565b600067ffffffffffffffff8211156124a5576124a5612360565b50601f01601f191660200190565b600082601f8301126124c457600080fd5b81356124d26124388261248b565b8181528460208386010111156124e757600080fd5b816020850160208301376000918101602001919091529392505050565b60008060006060848603121561251957600080fd5b833567ffffffffffffffff8082111561253157600080fd5b61253d87838801612417565b9450602086013591508082111561255357600080fd5b50612560868287016124b3565b925050604084013561257181612327565b809150509250925092565b80356007811061258b57600080fd5b919050565b600080604083850312156125a357600080fd5b82356125ae81612327565b91506125bc6020840161257c565b90509250929050565b67ffffffffffffffff81168114610c6857600080fd5b600080600080608085870312156125f157600080fd5b84356125fc816125c5565b9350602085013561260c816125c5565b9250604085013561261c816125c5565b9150606085013561262c816125c5565b939692955090935050565b60006020828403121561264957600080fd5b5035919050565b6000806040838503121561266357600080fd5b823567ffffffffffffffff81111561267a57600080fd5b612686858286016124b3565b925050602083013561269781612327565b809150509250929050565b60005b838110156126bd5781810151838201526020016126a5565b50506000910152565b600081518084526126de8160208601602086016126a2565b601f01601f19169290920160200192915050565b805182526000602082015160406020850152611ead60408501826126c6565b634e487b7160e01b600052602160045260246000fd5b6007811061274557634e487b7160e01b600052602160045260246000fd5b9052565b60208152815160208201526020820151151560408201526001600160a01b0360408301511660608201526000606083015160a0608084015261278e60c08401826126f2565b905060808401516127a260a0850182612727565b509392505050565b60008083601f8401126127bc57600080fd5b50813567ffffffffffffffff8111156127d457600080fd5b6020830191508360208260051b85010111156127ef57600080fd5b9250929050565b6000806000806040858703121561280c57600080fd5b843567ffffffffffffffff8082111561282457600080fd5b612830888389016127aa565b9096509450602087013591508082111561284957600080fd5b50612856878288016127aa565b95989497509550505050565b6000806040838503121561287557600080fd5b823561288081612327565b946020939093013593505050565b600080604083850312156128a157600080fd5b823567ffffffffffffffff808211156128b957600080fd5b6128c586838701612417565b93506020915081850135818111156128dc57600080fd5b8501601f810187136128ed57600080fd5b80356128fb612438826123f3565b81815260059190911b8201840190848101908983111561291a57600080fd5b8584015b83811015612952578035868111156129365760008081fd5b6129448c89838901016124b3565b84525091860191860161291e565b508096505050505050509250929050565b602080825282518282018190526000919060409081850190868401855b828110156129ae57815180516001600160a01b03168552860151868501529284019290850190600101612980565b5091979650505050505050565b602081016107488284612727565b85815284151560208201526001600160a01b038416604082015260a0606082015260006129f960a08301856126f2565b9050612a086080830184612727565b9695505050505050565b60008060408385031215612a2557600080fd5b82359150602083013567ffffffffffffffff811115612a4357600080fd5b612a4f858286016124b3565b9150509250929050565b634e487b7160e01b600052603260045260246000fd5b600060208284031215612a8157600080fd5b6123598261257c565b634e487b7160e01b600052601160045260246000fd5b600060018201612ab257612ab2612a8a565b5060010190565b60408101612ac78285612727565b6001600160a01b03831660208301529392505050565b600181811c90821680612af157607f821691505b6020821081036122cd57634e487b7160e01b600052602260045260246000fd5b600082601f830112612b2257600080fd5b81516020612b32612438836123f3565b82815260059290921b84018101918181019086841115612b5157600080fd5b8286015b848110156124805780518352918301918301612b55565b8051801515811461258b57600080fd5b600060e08284031215612b8e57600080fd5b60405160e0810181811067ffffffffffffffff82111715612bb157612bb1612360565b604052905080612bc083612b6c565b8152612bce60208401612b6c565b6020820152604083015160408201526060830151612beb816125c5565b60608201526080830151612bfe816125c5565b608082015260a0830151612c11816125c5565b60a082015260c0830151612c24816125c5565b60c0919091015292915050565b60006020808385031215612c4457600080fd5b825167ffffffffffffffff80821115612c5c57600080fd5b908401906101208287031215612c7157600080fd5b612c79612376565b825182811115612c8857600080fd5b8301601f81018813612c9957600080fd5b8051612ca7612438826123f3565b81815260059190911b8201860190868101908a831115612cc657600080fd5b928701925b82841015612ced578351612cde81612327565b82529287019290870190612ccb565b84525050508284015182811115612d0357600080fd5b612d0f88828601612b11565b8583015250612d218760408501612b7c565b60408201529695505050505050565b8082018082111561074857610748612a8a565b805161258b81612327565b600082601f830112612d5f57600080fd5b8151612d6d6124388261248b565b818152846020838601011115612d8257600080fd5b611ead8260208301602087016126a2565b600060408284031215612da557600080fd5b6040516040810167ffffffffffffffff8282108183111715612dc957612dc9612360565b81604052829350845183526020850151915080821115612de857600080fd5b50612df585828601612d4e565b6020830152505092915050565b600060208284031215612e1457600080fd5b815167ffffffffffffffff80821115612e2c57600080fd5b9083019060c08286031215612e4057600080fd5b612e4861239f565b825181526020830151612e5a81612327565b60208201526040830151612e6d81612327565b6040820152606083015182811115612e8457600080fd5b612e9087828601612d93565b6060830152506080830151608082015260a083015160a082015280935050505092915050565b600060208284031215612ec857600080fd5b61235982612b6c565b600080600060608486031215612ee657600080fd5b8351612ef181612327565b6020850151909350612f0281612327565b604085015190925067ffffffffffffffff811115612f1f57600080fd5b612f2b86828701612d93565b9150509250925092565b601f8211156106dd57600081815260208120601f850160051c81016020861015612f5c5750805b601f850160051c820191505b81811015610f3957828155600101612f68565b815167ffffffffffffffff811115612f9557612f95612360565b612fa981612fa38454612add565b84612f35565b602080601f831160018114612fde5760008415612fc65750858301515b600019600386901b1c1916600185901b178555610f39565b600085815260208120601f198616915b8281101561300d57888601518255948401946001909101908401612fee565b508582101561302b5787850151600019600388901b60f8161c191681555b5050505050600190811b01905550565b60408152600061304e60408301856126c6565b90506001600160a01b03831660208301529392505050565b60608152600061307960608301866126c6565b90506001600160a01b0384166020830152611ead6040830184612727565b6000602082840312156130a957600080fd5b5051919050565b808202811582820484141761074857610748612a8a565b6000826130e457634e487b7160e01b600052601260045260246000fd5b500490565b600080600080608085870312156130ff57600080fd5b845161310a81612327565b602086015190945061311b81612327565b6040860151606090960151949790965092505050565b60006020828403121561314357600080fd5b815161235981612327565b60006020828403121561316057600080fd5b815167ffffffffffffffff8082111561317857600080fd5b9083019060c0828603121561318c57600080fd5b61319461239f565b82518152602083015160208201526040830151828111156131b457600080fd5b6131c087828601612d4e565b6040830152506060830151828111156131d857600080fd5b6131e487828601612d93565b6060830152506131f660808401612d43565b608082015261320760a08401612d43565b60a082015295945050505050565b8181038181111561074857610748612a8a56fea2646970667358221220744b881f8b9d1b7983fbe693b5beb685e14242d9d8aae135d543bdbed8c779ff64736f6c63430008130033",
    "linkReferences": {}
  },
  "methodIdentifiers": {
    "NATIVE()": "a0cf0aea",
    "allocate(bytes,address)": "ef2920fc",
    "allocationEndTime()": "4533d678",
    "allocationStartTime()": "d2e17f59",
    "allocators(address)": "084ea36e",
    "distribute(address[],bytes,address)": "0a6f0ee9",
    "getAllo()": "15cc481e",
    "getPayouts(address[],bytes[])": "b2b878d0",
    "getPoolAmount()": "4ab4ba42",
    "getPoolId()": "38fff2d0",
    "getRecipient(address)": "62812a39",
    "getRecipientStatus(address)": "eb11af93",
    "getStrategyId()": "42fda9c7",
    "increasePoolAmount(uint256)": "f5b0dfb7",
    "initialize(uint256,bytes)": "edd146cc",
    "isPoolActive()": "df868ed3",
    "isValidAllocator(address)": "4d31d087",
    "maxVoiceCreditsPerNft(address)": "2d85dfb0",
    "metadataRequired()": "cb0e85a6",
    "nfts(uint256)": "265aa621",
    "paidOut(address)": "81f03fcb",
    "recipients(address)": "eb820312",
    "registerRecipient(bytes,address)": "2bbe0cae",
    "registrationEndTime()": "dff7d2c7",
    "registrationStartTime()": "9af5c09d",
    "registryGating()": "a647d23e",
    "reviewRecipients(address[],uint8[])": "7f835983",
    "reviewThreshold()": "57825849",
    "reviewsByStatus(address,uint8)": "0d93bb53",
    "totalRecipientVotes()": "59010701",
    "updatePoolTimestamps(uint64,uint64,uint64,uint64)": "2143e92f",
    "voiceCreditsUsedPerNftId(address,uint256)": "a5e7858f"
  },
  "storageLayout": {
    "storage": [
      {
        "astId": 3267,
        "contract": "contracts/strategies/_poc/qv-nft-tiered/QVNftTieredStrategy.sol:QVNftTieredStrategy",
        "label": "poolActive",
        "offset": 0,
        "slot": "0",
        "type": "t_bool"
      },
      {
        "astId": 3269,
        "contract": "contracts/strategies/_poc/qv-nft-tiered/QVNftTieredStrategy.sol:QVNftTieredStrategy",
        "label": "poolId",
        "offset": 0,
        "slot": "1",
        "type": "t_uint256"
      },
      {
        "astId": 3271,
        "contract": "contracts/strategies/_poc/qv-nft-tiered/QVNftTieredStrategy.sol:QVNftTieredStrategy",
        "label": "poolAmount",
        "offset": 0,
        "slot": "2",
        "type": "t_uint256"
      },
      {
        "astId": 14496,
        "contract": "contracts/strategies/_poc/qv-nft-tiered/QVNftTieredStrategy.sol:QVNftTieredStrategy",
        "label": "totalRecipientVotes",
        "offset": 0,
        "slot": "3",
        "type": "t_uint256"
      },
      {
        "astId": 14499,
        "contract": "contracts/strategies/_poc/qv-nft-tiered/QVNftTieredStrategy.sol:QVNftTieredStrategy",
        "label": "reviewThreshold",
        "offset": 0,
        "slot": "4",
        "type": "t_uint256"
      },
      {
        "astId": 14502,
        "contract": "contracts/strategies/_poc/qv-nft-tiered/QVNftTieredStrategy.sol:QVNftTieredStrategy",
        "label": "registrationStartTime",
        "offset": 0,
        "slot": "5",
        "type": "t_uint64"
      },
      {
        "astId": 14504,
        "contract": "contracts/strategies/_poc/qv-nft-tiered/QVNftTieredStrategy.sol:QVNftTieredStrategy",
        "label": "registrationEndTime",
        "offset": 8,
        "slot": "5",
        "type": "t_uint64"
      },
      {
        "astId": 14506,
        "contract": "contracts/strategies/_poc/qv-nft-tiered/QVNftTieredStrategy.sol:QVNftTieredStrategy",
        "label": "allocationStartTime",
        "offset": 16,
        "slot": "5",
        "type": "t_uint64"
      },
      {
        "astId": 14508,
        "contract": "contracts/strategies/_poc/qv-nft-tiered/QVNftTieredStrategy.sol:QVNftTieredStrategy",
        "label": "allocationEndTime",
        "offset": 24,
        "slot": "5",
        "type": "t_uint64"
      },
      {
        "astId": 14511,
        "contract": "contracts/strategies/_poc/qv-nft-tiered/QVNftTieredStrategy.sol:QVNftTieredStrategy",
        "label": "registryGating",
        "offset": 0,
        "slot": "6",
        "type": "t_bool"
      },
      {
        "astId": 14514,
        "contract": "contracts/strategies/_poc/qv-nft-tiered/QVNftTieredStrategy.sol:QVNftTieredStrategy",
        "label": "metadataRequired",
        "offset": 1,
        "slot": "6",
        "type": "t_bool"
      },
      {
        "astId": 14518,
        "contract": "contracts/strategies/_poc/qv-nft-tiered/QVNftTieredStrategy.sol:QVNftTieredStrategy",
        "label": "_registry",
        "offset": 2,
        "slot": "6",
        "type": "t_contract(IRegistry)2625"
      },
      {
        "astId": 14569,
        "contract": "contracts/strategies/_poc/qv-nft-tiered/QVNftTieredStrategy.sol:QVNftTieredStrategy",
        "label": "recipients",
        "offset": 0,
        "slot": "7",
        "type": "t_mapping(t_address,t_struct(Recipient)14552_storage)"
      },
      {
        "astId": 14575,
        "contract": "contracts/strategies/_poc/qv-nft-tiered/QVNftTieredStrategy.sol:QVNftTieredStrategy",
        "label": "allocators",
        "offset": 0,
        "slot": "8",
        "type": "t_mapping(t_address,t_struct(Allocator)14563_storage)"
      },
      {
        "astId": 14580,
        "contract": "contracts/strategies/_poc/qv-nft-tiered/QVNftTieredStrategy.sol:QVNftTieredStrategy",
        "label": "paidOut",
        "offset": 0,
        "slot": "9",
        "type": "t_mapping(t_address,t_bool)"
      },
      {
        "astId": 14587,
        "contract": "contracts/strategies/_poc/qv-nft-tiered/QVNftTieredStrategy.sol:QVNftTieredStrategy",
        "label": "reviewsByStatus",
        "offset": 0,
        "slot": "10",
        "type": "t_mapping(t_address,t_mapping(t_enum(Status)2638,t_uint256))"
      },
      {
        "astId": 9132,
        "contract": "contracts/strategies/_poc/qv-nft-tiered/QVNftTieredStrategy.sol:QVNftTieredStrategy",
        "label": "nfts",
        "offset": 0,
        "slot": "11",
        "type": "t_array(t_contract(ERC721)76863)dyn_storage"
      },
      {
        "astId": 9137,
        "contract": "contracts/strategies/_poc/qv-nft-tiered/QVNftTieredStrategy.sol:QVNftTieredStrategy",
        "label": "maxVoiceCreditsPerNft",
        "offset": 0,
        "slot": "12",
        "type": "t_mapping(t_contract(ERC721)76863,t_uint256)"
      },
      {
        "astId": 9144,
        "contract": "contracts/strategies/_poc/qv-nft-tiered/QVNftTieredStrategy.sol:QVNftTieredStrategy",
        "label": "voiceCreditsUsedPerNftId",
        "offset": 0,
        "slot": "13",
        "type": "t_mapping(t_contract(ERC721)76863,t_mapping(t_uint256,t_uint256))"
      }
    ],
    "types": {
      "t_address": {
        "encoding": "inplace",
        "label": "address",
        "numberOfBytes": "20"
      },
      "t_array(t_contract(ERC721)76863)dyn_storage": {
        "encoding": "dynamic_array",
        "label": "contract ERC721[]",
        "numberOfBytes": "32",
        "base": "t_contract(ERC721)76863"
      },
      "t_bool": {
        "encoding": "inplace",
        "label": "bool",
        "numberOfBytes": "1"
      },
      "t_contract(ERC721)76863": {
        "encoding": "inplace",
        "label": "contract ERC721",
        "numberOfBytes": "20"
      },
      "t_contract(IRegistry)2625": {
        "encoding": "inplace",
        "label": "contract IRegistry",
        "numberOfBytes": "20"
      },
      "t_enum(Status)2638": {
        "encoding": "inplace",
        "label": "enum IStrategy.Status",
        "numberOfBytes": "1"
      },
      "t_mapping(t_address,t_bool)": {
        "encoding": "mapping",
        "key": "t_address",
        "label": "mapping(address => bool)",
        "numberOfBytes": "32",
        "value": "t_bool"
      },
      "t_mapping(t_address,t_mapping(t_enum(Status)2638,t_uint256))": {
        "encoding": "mapping",
        "key": "t_address",
        "label": "mapping(address => mapping(enum IStrategy.Status => uint256))",
        "numberOfBytes": "32",
        "value": "t_mapping(t_enum(Status)2638,t_uint256)"
      },
      "t_mapping(t_address,t_struct(Allocator)14563_storage)": {
        "encoding": "mapping",
        "key": "t_address",
        "label": "mapping(address => struct QVBaseStrategy.Allocator)",
        "numberOfBytes": "32",
        "value": "t_struct(Allocator)14563_storage"
      },
      "t_mapping(t_address,t_struct(Recipient)14552_storage)": {
        "encoding": "mapping",
        "key": "t_address",
        "label": "mapping(address => struct QVBaseStrategy.Recipient)",
        "numberOfBytes": "32",
        "value": "t_struct(Recipient)14552_storage"
      },
      "t_mapping(t_address,t_uint256)": {
        "encoding": "mapping",
        "key": "t_address",
        "label": "mapping(address => uint256)",
        "numberOfBytes": "32",
        "value": "t_uint256"
      },
      "t_mapping(t_contract(ERC721)76863,t_mapping(t_uint256,t_uint256))": {
        "encoding": "mapping",
        "key": "t_contract(ERC721)76863",
        "label": "mapping(contract ERC721 => mapping(uint256 => uint256))",
        "numberOfBytes": "32",
        "value": "t_mapping(t_uint256,t_uint256)"
      },
      "t_mapping(t_contract(ERC721)76863,t_uint256)": {
        "encoding": "mapping",
        "key": "t_contract(ERC721)76863",
        "label": "mapping(contract ERC721 => uint256)",
        "numberOfBytes": "32",
        "value": "t_uint256"
      },
      "t_mapping(t_enum(Status)2638,t_uint256)": {
        "encoding": "mapping",
        "key": "t_enum(Status)2638",
        "label": "mapping(enum IStrategy.Status => uint256)",
        "numberOfBytes": "32",
        "value": "t_uint256"
      },
      "t_mapping(t_uint256,t_uint256)": {
        "encoding": "mapping",
        "key": "t_uint256",
        "label": "mapping(uint256 => uint256)",
        "numberOfBytes": "32",
        "value": "t_uint256"
      },
      "t_string_storage": {
        "encoding": "bytes",
        "label": "string",
        "numberOfBytes": "32"
      },
      "t_struct(Allocator)14563_storage": {
        "encoding": "inplace",
        "label": "struct QVBaseStrategy.Allocator",
        "numberOfBytes": "96",
        "members": [
          {
            "astId": 14554,
            "contract": "contracts/strategies/_poc/qv-nft-tiered/QVNftTieredStrategy.sol:QVNftTieredStrategy",
            "label": "voiceCredits",
            "offset": 0,
            "slot": "0",
            "type": "t_uint256"
          },
          {
            "astId": 14558,
            "contract": "contracts/strategies/_poc/qv-nft-tiered/QVNftTieredStrategy.sol:QVNftTieredStrategy",
            "label": "voiceCreditsCastToRecipient",
            "offset": 0,
            "slot": "1",
            "type": "t_mapping(t_address,t_uint256)"
          },
          {
            "astId": 14562,
            "contract": "contracts/strategies/_poc/qv-nft-tiered/QVNftTieredStrategy.sol:QVNftTieredStrategy",
            "label": "votesCastToRecipient",
            "offset": 0,
            "slot": "2",
            "type": "t_mapping(t_address,t_uint256)"
          }
        ]
      },
      "t_struct(Metadata)2922_storage": {
        "encoding": "inplace",
        "label": "struct Metadata",
        "numberOfBytes": "64",
        "members": [
          {
            "astId": 2918,
            "contract": "contracts/strategies/_poc/qv-nft-tiered/QVNftTieredStrategy.sol:QVNftTieredStrategy",
            "label": "protocol",
            "offset": 0,
            "slot": "0",
            "type": "t_uint256"
          },
          {
            "astId": 2921,
            "contract": "contracts/strategies/_poc/qv-nft-tiered/QVNftTieredStrategy.sol:QVNftTieredStrategy",
            "label": "pointer",
            "offset": 0,
            "slot": "1",
            "type": "t_string_storage"
          }
        ]
      },
      "t_struct(Recipient)14552_storage": {
        "encoding": "inplace",
        "label": "struct QVBaseStrategy.Recipient",
        "numberOfBytes": "160",
        "members": [
          {
            "astId": 14541,
            "contract": "contracts/strategies/_poc/qv-nft-tiered/QVNftTieredStrategy.sol:QVNftTieredStrategy",
            "label": "totalVotesReceived",
            "offset": 0,
            "slot": "0",
            "type": "t_uint256"
          },
          {
            "astId": 14543,
            "contract": "contracts/strategies/_poc/qv-nft-tiered/QVNftTieredStrategy.sol:QVNftTieredStrategy",
            "label": "useRegistryAnchor",
            "offset": 0,
            "slot": "1",
            "type": "t_bool"
          },
          {
            "astId": 14545,
            "contract": "contracts/strategies/_poc/qv-nft-tiered/QVNftTieredStrategy.sol:QVNftTieredStrategy",
            "label": "recipientAddress",
            "offset": 1,
            "slot": "1",
            "type": "t_address"
          },
          {
            "astId": 14548,
            "contract": "contracts/strategies/_poc/qv-nft-tiered/QVNftTieredStrategy.sol:QVNftTieredStrategy",
            "label": "metadata",
            "offset": 0,
            "slot": "2",
            "type": "t_struct(Metadata)2922_storage"
          },
          {
            "astId": 14551,
            "contract": "contracts/strategies/_poc/qv-nft-tiered/QVNftTieredStrategy.sol:QVNftTieredStrategy",
            "label": "recipientStatus",
            "offset": 0,
            "slot": "4",
            "type": "t_enum(Status)2638"
          }
        ]
      },
      "t_uint256": {
        "encoding": "inplace",
        "label": "uint256",
        "numberOfBytes": "32"
      },
      "t_uint64": {
        "encoding": "inplace",
        "label": "uint64",
        "numberOfBytes": "8"
      }
    }
  },
  "id": 21
}