{"abi":[{"type":"constructor","inputs":[{"name":"_brinkVault","type":"address","internalType":"address"},{"name":"_asset","type":"address","internalType":"address"},{"name":"_reserve","type":"address","internalType":"address"}],"stateMutability":"nonpayable"},{"type":"function","name":"asset","inputs":[],"outputs":[{"name":"","type":"address","internalType":"address"}],"stateMutability":"view"},{"type":"function","name":"balance","inputs":[],"outputs":[{"name":"","type":"uint256","internalType":"uint256"}],"stateMutability":"view"},{"type":"function","name":"brinkVault","inputs":[],"outputs":[{"name":"","type":"address","internalType":"address"}],"stateMutability":"view"},{"type":"function","name":"harvest","inputs":[],"outputs":[],"stateMutability":"nonpayable"},{"type":"function","name":"reserve","inputs":[],"outputs":[{"name":"","type":"address","internalType":"address"}],"stateMutability":"view"},{"type":"function","name":"supply","inputs":[{"name":"_assetAmount","type":"uint256","internalType":"uint256"}],"outputs":[],"stateMutability":"nonpayable"},{"type":"function","name":"withdraw","inputs":[{"name":"_assetAmount","type":"uint256","internalType":"uint256"}],"outputs":[],"stateMutability":"nonpayable"},{"type":"error","name":"ASSET_MISMATCH","inputs":[]},{"type":"error","name":"NOT_AUTHORIZED","inputs":[]},{"type":"error","name":"SafeERC20FailedOperation","inputs":[{"name":"token","type":"address","internalType":"address"}]},{"type":"error","name":"ZERO_ADDRESS","inputs":[]}],"bytecode":{"object":"0x608060405234801561000f575f5ffd5b506040516118183803806118188339818101604052810190610031919061065a565b8282825f73ffffffffffffffffffffffffffffffffffffffff168373ffffffffffffffffffffffffffffffffffffffff16148061009957505f73ffffffffffffffffffffffffffffffffffffffff168273ffffffffffffffffffffffffffffffffffffffff16145b806100cf57505f73ffffffffffffffffffffffffffffffffffffffff168173ffffffffffffffffffffffffffffffffffffffff16145b15610106576040517f538ba4f900000000000000000000000000000000000000000000000000000000815260040160405180910390fd5b825f5f6101000a81548173ffffffffffffffffffffffffffffffffffffffff021916908373ffffffffffffffffffffffffffffffffffffffff1602179055508160015f6101000a81548173ffffffffffffffffffffffffffffffffffffffff021916908373ffffffffffffffffffffffffffffffffffffffff1602179055508060025f6101000a81548173ffffffffffffffffffffffffffffffffffffffff021916908373ffffffffffffffffffffffffffffffffffffffff1602179055505050505f8173ffffffffffffffffffffffffffffffffffffffff1663d1946dbc6040518163ffffffff1660e01b81526004015f60405180830381865afa158015610211573d5f5f3e3d5ffd5b505050506040513d5f823e3d601f19601f8201168201806040525081019061023991906107fa565b90505f5f90505f5f90505b82518110156102b0578473ffffffffffffffffffffffffffffffffffffffff1683828151811061027757610276610841565b5b602002602001015173ffffffffffffffffffffffffffffffffffffffff16036102a357600191506102b0565b8080600101915050610244565b50806102e8576040517fc46da32500000000000000000000000000000000000000000000000000000000815260040160405180910390fd5b610333857fffffffffffffffffffffffffffffffffffffffffffffffffffffffffffffffff8673ffffffffffffffffffffffffffffffffffffffff1661033d60201b9092919060201c565b5050505050610a1a565b5f8373ffffffffffffffffffffffffffffffffffffffff1663dd62ed3e30856040518363ffffffff1660e01b815260040161037992919061087d565b602060405180830381865afa158015610394573d5f5f3e3d5ffd5b505050506040513d601f19601f820116820180604052508101906103b891906108d7565b90506103d6848484846103cb919061092f565b6103dc60201b60201c565b50505050565b5f8373ffffffffffffffffffffffffffffffffffffffff1663095ea7b3848460405160240161040c929190610971565b604051602081830303815290604052915060e01b6020820180517bffffffffffffffffffffffffffffffffffffffffffffffffffffffff8381831617835250505050905061046084826104fb60201b60201c565b6104f5576104e4848573ffffffffffffffffffffffffffffffffffffffff1663095ea7b3865f6040516024016104979291906109da565b604051602081830303815290604052915060e01b6020820180517bffffffffffffffffffffffffffffffffffffffffffffffffffffffff838183161783525050505061055460201b60201c565b6104f4848261055460201b60201c565b5b50505050565b5f5f5f5f60205f8651602088015f8a5af192503d91505f51905082801561054957505f821461052d5760018114610548565b5f8673ffffffffffffffffffffffffffffffffffffffff163b115b5b935050505092915050565b5f5f60205f8451602086015f885af180610573576040513d5f823e3d81fd5b3d92505f519150505f821461058c5760018114156105a7565b5f8473ffffffffffffffffffffffffffffffffffffffff163b145b156105e957836040517f5274afe70000000000000000000000000000000000000000000000000000000081526004016105e09190610a01565b60405180910390fd5b50505050565b5f604051905090565b5f5ffd5b5f5ffd5b5f73ffffffffffffffffffffffffffffffffffffffff82169050919050565b5f61062982610600565b9050919050565b6106398161061f565b8114610643575f5ffd5b50565b5f8151905061065481610630565b92915050565b5f5f5f60608486031215610671576106706105f8565b5b5f61067e86828701610646565b935050602061068f86828701610646565b92505060406106a086828701610646565b9150509250925092565b5f5ffd5b5f601f19601f8301169050919050565b7f4e487b71000000000000000000000000000000000000000000000000000000005f52604160045260245ffd5b6106f4826106ae565b810181811067ffffffffffffffff82111715610713576107126106be565b5b80604052505050565b5f6107256105ef565b905061073182826106eb565b919050565b5f67ffffffffffffffff8211156107505761074f6106be565b5b602082029050602081019050919050565b5f5ffd5b5f61077761077284610736565b61071c565b9050808382526020820190506020840283018581111561079a57610799610761565b5b835b818110156107c357806107af8882610646565b84526020840193505060208101905061079c565b5050509392505050565b5f82601f8301126107e1576107e06106aa565b5b81516107f1848260208601610765565b91505092915050565b5f6020828403121561080f5761080e6105f8565b5b5f82015167ffffffffffffffff81111561082c5761082b6105fc565b5b610838848285016107cd565b91505092915050565b7f4e487b71000000000000000000000000000000000000000000000000000000005f52603260045260245ffd5b6108778161061f565b82525050565b5f6040820190506108905f83018561086e565b61089d602083018461086e565b9392505050565b5f819050919050565b6108b6816108a4565b81146108c0575f5ffd5b50565b5f815190506108d1816108ad565b92915050565b5f602082840312156108ec576108eb6105f8565b5b5f6108f9848285016108c3565b91505092915050565b7f4e487b71000000000000000000000000000000000000000000000000000000005f52601160045260245ffd5b5f610939826108a4565b9150610944836108a4565b925082820190508082111561095c5761095b610902565b5b92915050565b61096b816108a4565b82525050565b5f6040820190506109845f83018561086e565b6109916020830184610962565b9392505050565b5f819050919050565b5f819050919050565b5f6109c46109bf6109ba84610998565b6109a1565b6108a4565b9050919050565b6109d4816109aa565b82525050565b5f6040820190506109ed5f83018561086e565b6109fa60208301846109cb565b9392505050565b5f602082019050610a145f83018461086e565b92915050565b610df180610a275f395ff3fe608060405234801561000f575f5ffd5b506004361061007b575f3560e01c80634641257d116100595780634641257d146100d5578063b69ef8a8146100df578063cd3293de146100fd578063e9d3c1541461011b5761007b565b80632e1a7d4d1461007f578063354030231461009b57806338d52e0f146100b7575b5f5ffd5b61009960048036038101906100949190610a7b565b610139565b005b6100b560048036038101906100b09190610a7b565b61038b565b005b6100bf61057c565b6040516100cc9190610ae5565b60405180910390f35b6100dd6105a1565b005b6100e76105a3565b6040516100f49190610b0d565b60405180910390f35b6101056106df565b6040516101129190610ae5565b60405180910390f35b610123610704565b6040516101309190610ae5565b60405180910390f35b5f5f9054906101000a900473ffffffffffffffffffffffffffffffffffffffff1673ffffffffffffffffffffffffffffffffffffffff163373ffffffffffffffffffffffffffffffffffffffff16146101be576040517f3d83866f00000000000000000000000000000000000000000000000000000000815260040160405180910390fd5b5f60025f9054906101000a900473ffffffffffffffffffffffffffffffffffffffff1673ffffffffffffffffffffffffffffffffffffffff1663cff027d960015f9054906101000a900473ffffffffffffffffffffffffffffffffffffffff166040518263ffffffff1660e01b815260040161023a9190610ae5565b602060405180830381865afa158015610255573d5f5f3e3d5ffd5b505050506040513d601f19601f820116820180604052508101906102799190610b50565b90506102c760025f9054906101000a900473ffffffffffffffffffffffffffffffffffffffff16838373ffffffffffffffffffffffffffffffffffffffff166107289092919063ffffffff16565b60025f9054906101000a900473ffffffffffffffffffffffffffffffffffffffff1673ffffffffffffffffffffffffffffffffffffffff166369328dec60015f9054906101000a900473ffffffffffffffffffffffffffffffffffffffff1684336040518463ffffffff1660e01b815260040161034693929190610b7b565b6020604051808303815f875af1158015610362573d5f5f3e3d5ffd5b505050506040513d601f19601f820116820180604052508101906103869190610bc4565b505050565b5f5f9054906101000a900473ffffffffffffffffffffffffffffffffffffffff1673ffffffffffffffffffffffffffffffffffffffff163373ffffffffffffffffffffffffffffffffffffffff1614610410576040517f3d83866f00000000000000000000000000000000000000000000000000000000815260040160405180910390fd5b61045e33308360015f9054906101000a900473ffffffffffffffffffffffffffffffffffffffff1673ffffffffffffffffffffffffffffffffffffffff166107c1909392919063ffffffff16565b6104cb60025f9054906101000a900473ffffffffffffffffffffffffffffffffffffffff168260015f9054906101000a900473ffffffffffffffffffffffffffffffffffffffff1673ffffffffffffffffffffffffffffffffffffffff166107289092919063ffffffff16565b60025f9054906101000a900473ffffffffffffffffffffffffffffffffffffffff1673ffffffffffffffffffffffffffffffffffffffff1663617ba03760015f9054906101000a900473ffffffffffffffffffffffffffffffffffffffff1683305f6040518563ffffffff1660e01b815260040161054c9493929190610c3e565b5f604051808303815f87803b158015610563575f5ffd5b505af1158015610575573d5f5f3e3d5ffd5b5050505050565b60015f9054906101000a900473ffffffffffffffffffffffffffffffffffffffff1681565b565b5f5f60025f9054906101000a900473ffffffffffffffffffffffffffffffffffffffff1673ffffffffffffffffffffffffffffffffffffffff1663cff027d960015f9054906101000a900473ffffffffffffffffffffffffffffffffffffffff166040518263ffffffff1660e01b81526004016106209190610ae5565b602060405180830381865afa15801561063b573d5f5f3e3d5ffd5b505050506040513d601f19601f8201168201806040525081019061065f9190610b50565b90508073ffffffffffffffffffffffffffffffffffffffff166370a08231306040518263ffffffff1660e01b815260040161069a9190610ae5565b602060405180830381865afa1580156106b5573d5f5f3e3d5ffd5b505050506040513d601f19601f820116820180604052508101906106d99190610bc4565b91505090565b60025f9054906101000a900473ffffffffffffffffffffffffffffffffffffffff1681565b5f5f9054906101000a900473ffffffffffffffffffffffffffffffffffffffff1681565b5f8373ffffffffffffffffffffffffffffffffffffffff1663dd62ed3e30856040518363ffffffff1660e01b8152600401610764929190610c81565b602060405180830381865afa15801561077f573d5f5f3e3d5ffd5b505050506040513d601f19601f820116820180604052508101906107a39190610bc4565b90506107bb848484846107b69190610cd5565b610843565b50505050565b61083d848573ffffffffffffffffffffffffffffffffffffffff166323b872dd8686866040516024016107f693929190610d08565b604051602081830303815290604052915060e01b6020820180517bffffffffffffffffffffffffffffffffffffffffffffffffffffffff8381831617835250505050610950565b50505050565b5f8373ffffffffffffffffffffffffffffffffffffffff1663095ea7b38484604051602401610873929190610d3d565b604051602081830303815290604052915060e01b6020820180517bffffffffffffffffffffffffffffffffffffffffffffffffffffffff838183161783525050505090506108c184826109eb565b61094a5761093f848573ffffffffffffffffffffffffffffffffffffffff1663095ea7b3865f6040516024016108f8929190610d94565b604051602081830303815290604052915060e01b6020820180517bffffffffffffffffffffffffffffffffffffffffffffffffffffffff8381831617835250505050610950565b6109498482610950565b5b50505050565b5f5f60205f8451602086015f885af18061096f576040513d5f823e3d81fd5b3d92505f519150505f82146109885760018114156109a3565b5f8473ffffffffffffffffffffffffffffffffffffffff163b145b156109e557836040517f5274afe70000000000000000000000000000000000000000000000000000000081526004016109dc9190610ae5565b60405180910390fd5b50505050565b5f5f5f5f60205f8651602088015f8a5af192503d91505f519050828015610a3957505f8214610a1d5760018114610a38565b5f8673ffffffffffffffffffffffffffffffffffffffff163b115b5b935050505092915050565b5f5ffd5b5f819050919050565b610a5a81610a48565b8114610a64575f5ffd5b50565b5f81359050610a7581610a51565b92915050565b5f60208284031215610a9057610a8f610a44565b5b5f610a9d84828501610a67565b91505092915050565b5f73ffffffffffffffffffffffffffffffffffffffff82169050919050565b5f610acf82610aa6565b9050919050565b610adf81610ac5565b82525050565b5f602082019050610af85f830184610ad6565b92915050565b610b0781610a48565b82525050565b5f602082019050610b205f830184610afe565b92915050565b610b2f81610ac5565b8114610b39575f5ffd5b50565b5f81519050610b4a81610b26565b92915050565b5f60208284031215610b6557610b64610a44565b5b5f610b7284828501610b3c565b91505092915050565b5f606082019050610b8e5f830186610ad6565b610b9b6020830185610afe565b610ba86040830184610ad6565b949350505050565b5f81519050610bbe81610a51565b92915050565b5f60208284031215610bd957610bd8610a44565b5b5f610be684828501610bb0565b91505092915050565b5f819050919050565b5f61ffff82169050919050565b5f819050919050565b5f610c28610c23610c1e84610bef565b610c05565b610bf8565b9050919050565b610c3881610c0e565b82525050565b5f608082019050610c515f830187610ad6565b610c5e6020830186610afe565b610c6b6040830185610ad6565b610c786060830184610c2f565b95945050505050565b5f604082019050610c945f830185610ad6565b610ca16020830184610ad6565b9392505050565b7f4e487b71000000000000000000000000000000000000000000000000000000005f52601160045260245ffd5b5f610cdf82610a48565b9150610cea83610a48565b9250828201905080821115610d0257610d01610ca8565b5b92915050565b5f606082019050610d1b5f830186610ad6565b610d286020830185610ad6565b610d356040830184610afe565b949350505050565b5f604082019050610d505f830185610ad6565b610d5d6020830184610afe565b9392505050565b5f610d7e610d79610d7484610bef565b610c05565b610a48565b9050919050565b610d8e81610d64565b82525050565b5f604082019050610da75f830185610ad6565b610db46020830184610d85565b939250505056fea264697066735822122073780c8c8b4b00f0f1bf271d99ba86744569d0bba61a2ec53fea2e08f83532d364736f6c634300081c0033","linkReferences":{}},"methodIdentifiers":{"asset()":"38d52e0f","balance()":"b69ef8a8","brinkVault()":"e9d3c154","harvest()":"4641257d","reserve()":"cd3293de","supply(uint256)":"35403023","withdraw(uint256)":"2e1a7d4d"},"id":12}