{
  "abi": [
    {
      "inputs": [
        {
          "internalType": "address",
          "name": "_allo",
          "type": "address"
        },
        {
          "internalType": "string",
          "name": "_name",
          "type": "string"
        }
      ],
      "stateMutability": "nonpayable",
      "type": "constructor"
    },
    {
      "inputs": [],
      "name": "ALLOCATION_ACTIVE",
      "type": "error"
    },
    {
      "inputs": [],
      "name": "ALLOCATION_NOT_ACTIVE",
      "type": "error"
    },
    {
      "inputs": [],
      "name": "ALLOCATION_NOT_ENDED",
      "type": "error"
    },
    {
      "inputs": [],
      "name": "ALREADY_INITIALIZED",
      "type": "error"
    },
    {
      "inputs": [],
      "name": "AMOUNT_MISMATCH",
      "type": "error"
    },
    {
      "inputs": [],
      "name": "AMOUNT_TOO_LOW",
      "type": "error"
    },
    {
      "inputs": [],
      "name": "ANCHOR_ERROR",
      "type": "error"
    },
    {
      "inputs": [],
      "name": "ARRAY_MISMATCH",
      "type": "error"
    },
    {
      "inputs": [],
      "name": "EXCEEDING_MAX_BID",
      "type": "error"
    },
    {
      "inputs": [],
      "name": "INVALID",
      "type": "error"
    },
    {
      "inputs": [],
      "name": "INVALID_ADDRESS",
      "type": "error"
    },
    {
      "inputs": [],
      "name": "INVALID_FEE",
      "type": "error"
    },
    {
      "inputs": [],
      "name": "INVALID_METADATA",
      "type": "error"
    },
    {
      "inputs": [],
      "name": "INVALID_MILESTONE",
      "type": "error"
    },
    {
      "inputs": [],
      "name": "INVALID_REGISTRATION",
      "type": "error"
    },
    {
      "inputs": [],
      "name": "IS_APPROVED_STRATEGY",
      "type": "error"
    },
    {
      "inputs": [],
      "name": "MILESTONES_ALREADY_SET",
      "type": "error"
    },
    {
      "inputs": [],
      "name": "MILESTONE_ALREADY_ACCEPTED",
      "type": "error"
    },
    {
      "inputs": [],
      "name": "MISMATCH",
      "type": "error"
    },
    {
      "inputs": [],
      "name": "NONCE_NOT_AVAILABLE",
      "type": "error"
    },
    {
      "inputs": [],
      "name": "NOT_APPROVED_STRATEGY",
      "type": "error"
    },
    {
      "inputs": [],
      "name": "NOT_ENOUGH_FUNDS",
      "type": "error"
    },
    {
      "inputs": [],
      "name": "NOT_INITIALIZED",
      "type": "error"
    },
    {
      "inputs": [],
      "name": "NOT_PENDING_OWNER",
      "type": "error"
    },
    {
      "inputs": [],
      "name": "POOL_ACTIVE",
      "type": "error"
    },
    {
      "inputs": [],
      "name": "POOL_INACTIVE",
      "type": "error"
    },
    {
      "inputs": [],
      "name": "RECIPIENT_ALREADY_ACCEPTED",
      "type": "error"
    },
    {
      "inputs": [
        {
          "internalType": "address",
          "name": "recipientId",
          "type": "address"
        }
      ],
      "name": "RECIPIENT_ERROR",
      "type": "error"
    },
    {
      "inputs": [],
      "name": "RECIPIENT_NOT_ACCEPTED",
      "type": "error"
    },
    {
      "inputs": [],
      "name": "REGISTRATION_NOT_ACTIVE",
      "type": "error"
    },
    {
      "inputs": [],
      "name": "UNAUTHORIZED",
      "type": "error"
    },
    {
      "inputs": [],
      "name": "ZERO_ADDRESS",
      "type": "error"
    },
    {
      "anonymous": false,
      "inputs": [
        {
          "indexed": true,
          "internalType": "address",
          "name": "recipientId",
          "type": "address"
        },
        {
          "indexed": false,
          "internalType": "uint256",
          "name": "amount",
          "type": "uint256"
        },
        {
          "indexed": false,
          "internalType": "address",
          "name": "token",
          "type": "address"
        },
        {
          "indexed": false,
          "internalType": "address",
          "name": "sender",
          "type": "address"
        }
      ],
      "name": "Allocated",
      "type": "event"
    },
    {
      "anonymous": false,
      "inputs": [
        {
          "indexed": true,
          "internalType": "address",
          "name": "recipientId",
          "type": "address"
        },
        {
          "indexed": false,
          "internalType": "address",
          "name": "recipientAddress",
          "type": "address"
        },
        {
          "indexed": false,
          "internalType": "uint256",
          "name": "amount",
          "type": "uint256"
        },
        {
          "indexed": false,
          "internalType": "address",
          "name": "sender",
          "type": "address"
        }
      ],
      "name": "Distributed",
      "type": "event"
    },
    {
      "anonymous": false,
      "inputs": [
        {
          "indexed": false,
          "internalType": "address",
          "name": "allo",
          "type": "address"
        },
        {
          "indexed": false,
          "internalType": "bytes32",
          "name": "profileId",
          "type": "bytes32"
        },
        {
          "indexed": false,
          "internalType": "uint256",
          "name": "poolId",
          "type": "uint256"
        },
        {
          "indexed": false,
          "internalType": "bytes",
          "name": "data",
          "type": "bytes"
        }
      ],
      "name": "Initialized",
      "type": "event"
    },
    {
      "anonymous": false,
      "inputs": [
        {
          "indexed": false,
          "internalType": "uint256",
          "name": "maxBid",
          "type": "uint256"
        }
      ],
      "name": "MaxBidIncreased",
      "type": "event"
    },
    {
      "anonymous": false,
      "inputs": [
        {
          "indexed": false,
          "internalType": "uint256",
          "name": "milestoneId",
          "type": "uint256"
        },
        {
          "indexed": false,
          "internalType": "enum IStrategy.Status",
          "name": "status",
          "type": "uint8"
        }
      ],
      "name": "MilestoneStatusChanged",
      "type": "event"
    },
    {
      "anonymous": false,
      "inputs": [],
      "name": "MilestonesSet",
      "type": "event"
    },
    {
      "anonymous": false,
      "inputs": [
        {
          "indexed": false,
          "internalType": "uint256",
          "name": "milestoneId",
          "type": "uint256"
        }
      ],
      "name": "MilstoneSubmitted",
      "type": "event"
    },
    {
      "anonymous": false,
      "inputs": [
        {
          "indexed": false,
          "internalType": "bool",
          "name": "active",
          "type": "bool"
        }
      ],
      "name": "PoolActive",
      "type": "event"
    },
    {
      "anonymous": false,
      "inputs": [
        {
          "indexed": true,
          "internalType": "address",
          "name": "recipientId",
          "type": "address"
        },
        {
          "indexed": false,
          "internalType": "bytes",
          "name": "data",
          "type": "bytes"
        },
        {
          "indexed": false,
          "internalType": "address",
          "name": "sender",
          "type": "address"
        }
      ],
      "name": "Registered",
      "type": "event"
    },
    {
      "anonymous": false,
      "inputs": [
        {
          "indexed": true,
          "internalType": "address",
          "name": "recipientId",
          "type": "address"
        },
        {
          "indexed": false,
          "internalType": "bytes",
          "name": "data",
          "type": "bytes"
        },
        {
          "indexed": false,
          "internalType": "address",
          "name": "sender",
          "type": "address"
        }
      ],
      "name": "UpdatedRegistration",
      "type": "event"
    },
    {
      "anonymous": false,
      "inputs": [
        {
          "indexed": true,
          "internalType": "address",
          "name": "recipientId",
          "type": "address"
        },
        {
          "indexed": false,
          "internalType": "address",
          "name": "voter",
          "type": "address"
        }
      ],
      "name": "Voted",
      "type": "event"
    },
    {
      "inputs": [],
      "name": "NATIVE",
      "outputs": [
        {
          "internalType": "address",
          "name": "",
          "type": "address"
        }
      ],
      "stateMutability": "view",
      "type": "function"
    },
    {
      "inputs": [],
      "name": "acceptedRecipientId",
      "outputs": [
        {
          "internalType": "address",
          "name": "",
          "type": "address"
        }
      ],
      "stateMutability": "view",
      "type": "function"
    },
    {
      "inputs": [
        {
          "internalType": "bytes",
          "name": "_data",
          "type": "bytes"
        },
        {
          "internalType": "address",
          "name": "_sender",
          "type": "address"
        }
      ],
      "name": "allocate",
      "outputs": [],
      "stateMutability": "payable",
      "type": "function"
    },
    {
      "inputs": [
        {
          "internalType": "address[]",
          "name": "_recipientIds",
          "type": "address[]"
        },
        {
          "internalType": "bytes",
          "name": "_data",
          "type": "bytes"
        },
        {
          "internalType": "address",
          "name": "_sender",
          "type": "address"
        }
      ],
      "name": "distribute",
      "outputs": [],
      "stateMutability": "nonpayable",
      "type": "function"
    },
    {
      "inputs": [],
      "name": "getAllo",
      "outputs": [
        {
          "internalType": "contract IAllo",
          "name": "",
          "type": "address"
        }
      ],
      "stateMutability": "view",
      "type": "function"
    },
    {
      "inputs": [
        {
          "internalType": "uint256",
          "name": "_milestoneId",
          "type": "uint256"
        }
      ],
      "name": "getMilestone",
      "outputs": [
        {
          "components": [
            {
              "internalType": "uint256",
              "name": "amountPercentage",
              "type": "uint256"
            },
            {
              "components": [
                {
                  "internalType": "uint256",
                  "name": "protocol",
                  "type": "uint256"
                },
                {
                  "internalType": "string",
                  "name": "pointer",
                  "type": "string"
                }
              ],
              "internalType": "struct Metadata",
              "name": "metadata",
              "type": "tuple"
            },
            {
              "internalType": "enum IStrategy.Status",
              "name": "milestoneStatus",
              "type": "uint8"
            }
          ],
          "internalType": "struct RFPSimpleStrategy.Milestone",
          "name": "",
          "type": "tuple"
        }
      ],
      "stateMutability": "view",
      "type": "function"
    },
    {
      "inputs": [
        {
          "internalType": "uint256",
          "name": "_milestoneId",
          "type": "uint256"
        }
      ],
      "name": "getMilestoneStatus",
      "outputs": [
        {
          "internalType": "enum IStrategy.Status",
          "name": "",
          "type": "uint8"
        }
      ],
      "stateMutability": "view",
      "type": "function"
    },
    {
      "inputs": [
        {
          "internalType": "address[]",
          "name": "",
          "type": "address[]"
        },
        {
          "internalType": "bytes[]",
          "name": "",
          "type": "bytes[]"
        }
      ],
      "name": "getPayouts",
      "outputs": [
        {
          "components": [
            {
              "internalType": "address",
              "name": "recipientAddress",
              "type": "address"
            },
            {
              "internalType": "uint256",
              "name": "amount",
              "type": "uint256"
            }
          ],
          "internalType": "struct IStrategy.PayoutSummary[]",
          "name": "",
          "type": "tuple[]"
        }
      ],
      "stateMutability": "view",
      "type": "function"
    },
    {
      "inputs": [],
      "name": "getPoolAmount",
      "outputs": [
        {
          "internalType": "uint256",
          "name": "",
          "type": "uint256"
        }
      ],
      "stateMutability": "view",
      "type": "function"
    },
    {
      "inputs": [],
      "name": "getPoolId",
      "outputs": [
        {
          "internalType": "uint256",
          "name": "",
          "type": "uint256"
        }
      ],
      "stateMutability": "view",
      "type": "function"
    },
    {
      "inputs": [
        {
          "internalType": "address",
          "name": "_recipientId",
          "type": "address"
        }
      ],
      "name": "getRecipient",
      "outputs": [
        {
          "components": [
            {
              "internalType": "bool",
              "name": "useRegistryAnchor",
              "type": "bool"
            },
            {
              "internalType": "address",
              "name": "recipientAddress",
              "type": "address"
            },
            {
              "internalType": "uint256",
              "name": "proposalBid",
              "type": "uint256"
            },
            {
              "internalType": "enum IStrategy.Status",
              "name": "recipientStatus",
              "type": "uint8"
            }
          ],
          "internalType": "struct RFPSimpleStrategy.Recipient",
          "name": "",
          "type": "tuple"
        }
      ],
      "stateMutability": "view",
      "type": "function"
    },
    {
      "inputs": [
        {
          "internalType": "address",
          "name": "_recipientId",
          "type": "address"
        }
      ],
      "name": "getRecipientStatus",
      "outputs": [
        {
          "internalType": "enum IStrategy.Status",
          "name": "",
          "type": "uint8"
        }
      ],
      "stateMutability": "view",
      "type": "function"
    },
    {
      "inputs": [],
      "name": "getStrategyId",
      "outputs": [
        {
          "internalType": "bytes32",
          "name": "",
          "type": "bytes32"
        }
      ],
      "stateMutability": "view",
      "type": "function"
    },
    {
      "inputs": [
        {
          "internalType": "uint256",
          "name": "_maxBid",
          "type": "uint256"
        }
      ],
      "name": "increaseMaxBid",
      "outputs": [],
      "stateMutability": "nonpayable",
      "type": "function"
    },
    {
      "inputs": [
        {
          "internalType": "uint256",
          "name": "_amount",
          "type": "uint256"
        }
      ],
      "name": "increasePoolAmount",
      "outputs": [],
      "stateMutability": "nonpayable",
      "type": "function"
    },
    {
      "inputs": [
        {
          "internalType": "uint256",
          "name": "_poolId",
          "type": "uint256"
        },
        {
          "internalType": "bytes",
          "name": "_data",
          "type": "bytes"
        }
      ],
      "name": "initialize",
      "outputs": [],
      "stateMutability": "nonpayable",
      "type": "function"
    },
    {
      "inputs": [],
      "name": "isPoolActive",
      "outputs": [
        {
          "internalType": "bool",
          "name": "",
          "type": "bool"
        }
      ],
      "stateMutability": "view",
      "type": "function"
    },
    {
      "inputs": [
        {
          "internalType": "address",
          "name": "_allocator",
          "type": "address"
        }
      ],
      "name": "isValidAllocator",
      "outputs": [
        {
          "internalType": "bool",
          "name": "",
          "type": "bool"
        }
      ],
      "stateMutability": "view",
      "type": "function"
    },
    {
      "inputs": [],
      "name": "maxBid",
      "outputs": [
        {
          "internalType": "uint256",
          "name": "",
          "type": "uint256"
        }
      ],
      "stateMutability": "view",
      "type": "function"
    },
    {
      "inputs": [],
      "name": "metadataRequired",
      "outputs": [
        {
          "internalType": "bool",
          "name": "",
          "type": "bool"
        }
      ],
      "stateMutability": "view",
      "type": "function"
    },
    {
      "inputs": [
        {
          "internalType": "uint256",
          "name": "",
          "type": "uint256"
        }
      ],
      "name": "milestones",
      "outputs": [
        {
          "internalType": "uint256",
          "name": "amountPercentage",
          "type": "uint256"
        },
        {
          "components": [
            {
              "internalType": "uint256",
              "name": "protocol",
              "type": "uint256"
            },
            {
              "internalType": "string",
              "name": "pointer",
              "type": "string"
            }
          ],
          "internalType": "struct Metadata",
          "name": "metadata",
          "type": "tuple"
        },
        {
          "internalType": "enum IStrategy.Status",
          "name": "milestoneStatus",
          "type": "uint8"
        }
      ],
      "stateMutability": "view",
      "type": "function"
    },
    {
      "inputs": [
        {
          "internalType": "bytes",
          "name": "_data",
          "type": "bytes"
        },
        {
          "internalType": "address",
          "name": "_sender",
          "type": "address"
        }
      ],
      "name": "registerRecipient",
      "outputs": [
        {
          "internalType": "address",
          "name": "recipientId",
          "type": "address"
        }
      ],
      "stateMutability": "payable",
      "type": "function"
    },
    {
      "inputs": [
        {
          "internalType": "uint256",
          "name": "_milestoneId",
          "type": "uint256"
        }
      ],
      "name": "rejectMilestone",
      "outputs": [],
      "stateMutability": "nonpayable",
      "type": "function"
    },
    {
      "inputs": [
        {
          "components": [
            {
              "internalType": "uint256",
              "name": "amountPercentage",
              "type": "uint256"
            },
            {
              "components": [
                {
                  "internalType": "uint256",
                  "name": "protocol",
                  "type": "uint256"
                },
                {
                  "internalType": "string",
                  "name": "pointer",
                  "type": "string"
                }
              ],
              "internalType": "struct Metadata",
              "name": "metadata",
              "type": "tuple"
            },
            {
              "internalType": "enum IStrategy.Status",
              "name": "milestoneStatus",
              "type": "uint8"
            }
          ],
          "internalType": "struct RFPSimpleStrategy.Milestone[]",
          "name": "_milestones",
          "type": "tuple[]"
        }
      ],
      "name": "setMilestones",
      "outputs": [],
      "stateMutability": "nonpayable",
      "type": "function"
    },
    {
      "inputs": [
        {
          "internalType": "bool",
          "name": "_flag",
          "type": "bool"
        }
      ],
      "name": "setPoolActive",
      "outputs": [],
      "stateMutability": "nonpayable",
      "type": "function"
    },
    {
      "inputs": [
        {
          "components": [
            {
              "internalType": "uint256",
              "name": "protocol",
              "type": "uint256"
            },
            {
              "internalType": "string",
              "name": "pointer",
              "type": "string"
            }
          ],
          "internalType": "struct Metadata",
          "name": "_metadata",
          "type": "tuple"
        }
      ],
      "name": "submitUpcomingMilestone",
      "outputs": [],
      "stateMutability": "nonpayable",
      "type": "function"
    },
    {
      "inputs": [],
      "name": "upcomingMilestone",
      "outputs": [
        {
          "internalType": "uint256",
          "name": "",
          "type": "uint256"
        }
      ],
      "stateMutability": "view",
      "type": "function"
    },
    {
      "inputs": [],
      "name": "useRegistryAnchor",
      "outputs": [
        {
          "internalType": "bool",
          "name": "",
          "type": "bool"
        }
      ],
      "stateMutability": "view",
      "type": "function"
    },
    {
      "inputs": [],
      "name": "voteThreshold",
      "outputs": [
        {
          "internalType": "uint256",
          "name": "",
          "type": "uint256"
        }
      ],
      "stateMutability": "view",
      "type": "function"
    },
    {
      "inputs": [
        {
          "internalType": "address",
          "name": "",
          "type": "address"
        }
      ],
      "name": "votedFor",
      "outputs": [
        {
          "internalType": "address",
          "name": "",
          "type": "address"
        }
      ],
      "stateMutability": "view",
      "type": "function"
    },
    {
      "inputs": [
        {
          "internalType": "address",
          "name": "",
          "type": "address"
        }
      ],
      "name": "votes",
      "outputs": [
        {
          "internalType": "uint256",
          "name": "",
          "type": "uint256"
        }
      ],
      "stateMutability": "view",
      "type": "function"
    },
    {
      "inputs": [
        {
          "internalType": "uint256",
          "name": "_amount",
          "type": "uint256"
        }
      ],
      "name": "withdraw",
      "outputs": [],
      "stateMutability": "nonpayable",
      "type": "function"
    },
    {
      "stateMutability": "payable",
      "type": "receive"
    }
  ],
  "bytecode": {
    "object": "0x60c06040523480156200001157600080fd5b5060405162003184380380620031848339810160408190526200003491620000c5565b6001600160a01b03821660805260405182908290829082906200005c908290602001620001a0565b60408051601f19818403018152919052805160209091012060a0525050600160035550620001d592505050565b634e487b7160e01b600052604160045260246000fd5b60005b83811015620000bc578181015183820152602001620000a2565b50506000910152565b60008060408385031215620000d957600080fd5b82516001600160a01b0381168114620000f157600080fd5b60208401519092506001600160401b03808211156200010f57600080fd5b818501915085601f8301126200012457600080fd5b81518181111562000139576200013962000089565b604051601f8201601f19908116603f0116810190838211818310171562000164576200016462000089565b816040528281528860208487010111156200017e57600080fd5b620001918360208301602088016200009f565b80955050505050509250929050565b6020815260008251806020840152620001c18160408501602087016200009f565b601f01601f19169190910160400192915050565b60805160a051612f586200022c600039600061030f0152600081816102240152818161081701528181610ee501528181610fb4015281816115d50152818161176d01528181611db90152611f6f0152612f586000f3fe6080604052600436106101e75760003560e01c80639243b60511610102578063de1acc5c11610095578063edd146cc11610064578063edd146cc146105dc578063ef2920fc146105fc578063f594f13f1461060f578063f5b0dfb71461064557600080fd5b8063de1acc5c14610548578063df868ed314610575578063e89e4ed61461058d578063eb11af93146105bc57600080fd5b8063b9d7040b116100d1578063b9d7040b146104bc578063caaed302146104dc578063cb0e85a6146104fc578063d8bff5a51461051b57600080fd5b80639243b60514610427578063a0cf0aea14610447578063b2b878d01461046f578063b5f620ce1461049c57600080fd5b806343984ddb1161017a5780635586ba33116101495780635586ba33146103a457806357089739146103ca57806362812a39146103e457806374b11d8a1461041157600080fd5b806343984ddb146103335780634ab4ba42146103495780634d31d0871461035e5780634fe437d51461038e57600080fd5b80632e1a7d4d116101b65780632e1a7d4d146102a1578063369dc5b5146102c157806338fff2d0146102e157806342fda9c71461030057600080fd5b80630a6f0ee9146101f357806315cc481e146102155780632442e1cb146102615780632bbe0cae1461028e57600080fd5b366101ee57005b600080fd5b3480156101ff57600080fd5b5061021361020e3660046122cc565b610665565b005b34801561022157600080fd5b507f00000000000000000000000000000000000000000000000000000000000000005b6040516001600160a01b0390911681526020015b60405180910390f35b34801561026d57600080fd5b5061028161027c366004612344565b610685565b6040516102589190612404565b61024461029c366004612446565b6107ab565b3480156102ad57600080fd5b506102136102bc366004612344565b6107d0565b3480156102cd57600080fd5b506102136102dc366004612344565b6108a2565b3480156102ed57600080fd5b506001545b604051908152602001610258565b34801561030c57600080fd5b507f00000000000000000000000000000000000000000000000000000000000000006102f2565b34801561033f57600080fd5b506102f260075481565b34801561035557600080fd5b506002546102f2565b34801561036a57600080fd5b5061037e610379366004612498565b6108b5565b6040519015158152602001610258565b34801561039a57600080fd5b506102f2600b5481565b3480156103b057600080fd5b50600454610244906201000090046001600160a01b031681565b3480156103d657600080fd5b5060045461037e9060ff1681565b3480156103f057600080fd5b506104046103ff366004612498565b6108c0565b60405161025891906124b5565b34801561041d57600080fd5b506102f260065481565b34801561043357600080fd5b506102136104423660046124f9565b6108f1565b34801561045357600080fd5b5061024473eeeeeeeeeeeeeeeeeeeeeeeeeeeeeeeeeeeeeeee81565b34801561047b57600080fd5b5061048f61048a366004612534565b6109f1565b6040516102589190612609565b3480156104a857600080fd5b506102136104b736600461266f565b610a88565b3480156104c857600080fd5b506102136104d736600461269b565b610aca565b3480156104e857600080fd5b506102136104f7366004612344565b610c36565b34801561050857600080fd5b5060045461037e90610100900460ff1681565b34801561052757600080fd5b506102f2610536366004612498565b600d6020526000908152604090205481565b34801561055457600080fd5b50610568610563366004612344565b610d55565b60405161025891906127eb565b34801561058157600080fd5b5060005460ff1661037e565b34801561059957600080fd5b506105ad6105a8366004612344565b610d87565b604051610258939291906127f9565b3480156105c857600080fd5b506105686105d7366004612498565b610e69565b3480156105e857600080fd5b506102136105f7366004612821565b610e74565b61021361060a366004612446565b610e96565b34801561061b57600080fd5b5061024461062a366004612498565b600c602052600090815260409020546001600160a01b031681565b34801561065157600080fd5b50610213610660366004612344565b610eb0565b61066d610eda565b610675610f25565b610680838383610f61565b505050565b61068d6120a6565b600982815481106106a0576106a0612868565b90600052602060002090600402016040518060600160405290816000820154815260200160018201604051806040016040529081600082015481526020016001820180546106ed9061287e565b80601f01602080910402602001604051908101604052809291908181526020018280546107199061287e565b80156107665780601f1061073b57610100808354040283529160200191610766565b820191906000526020600020905b81548152906001019060200180831161074957829003601f168201915b505050919092525050508152600382015460209091019060ff166006811115610791576107916123cc565b60068111156107a2576107a26123cc565b90525092915050565b60006107b5610eda565b6107bd610f25565b6107c7838361123c565b90505b92915050565b336107da816115ab565b6107e261165d565b81600260008282546107f491906128ce565b909155505060015460405163068bcd8d60e01b815261089e916001600160a01b037f0000000000000000000000000000000000000000000000000000000000000000169163068bcd8d9161084e9160040190815260200190565b600060405180830381865afa15801561086b573d6000803e3d6000fd5b505050506040513d6000823e601f3d908101601f191682016040526108939190810190612983565b60400151338461169a565b5050565b336108ac816115ab565b61089e826116df565b60006107ca82611750565b6108e86040805160808101825260008082526020820181905291810182905290606082015290565b6107ca826117f5565b6004546201000090046001600160a01b0316331480159061092b5750600454610929906201000090046001600160a01b031633611930565b155b156109495760405163075fd2b160e01b815260040160405180910390fd5b6009546007541061096d57604051632f1f68e160e11b815260040160405180910390fd5b600060096007548154811061098457610984612868565b90600052602060002090600402019050818160010181816109a59190612a85565b505060038101805460ff191660011790556007546040519081527fb8cc7b45ad9f94af049eb207914f37551e7d5c06a10c7fe73df91bbfc1643412906020015b60405180910390a15050565b60408051600180825281830190925260609160009190816020015b6040805180820190915260008082526020820152815260200190600190039081610a0c579050509050610a63600460029054906101000a90046001600160a01b031660405180602001604052806000815250611a5a565b81600081518110610a7657610a76612868565b60209081029190910101529392505050565b610a9181611b16565b60405181151581527fd94c9bc4d43c51d8dc345a016d8e3d994432fac68e72832e4cf3a616bd8efae0906020015b60405180910390a150565b33610ad4816115ab565b60075415610b0e576040517fb9463a6000000000000000000000000000000000000000000000000000000000815260040160405180910390fd5b8151600090815b81811015610bde57848181518110610b2f57610b2f612868565b60200260200101516000015183610b469190612b7e565b92506009858281518110610b5c57610b5c612868565b60209081029190910181015182546001818101855560009485529383902082516004909202019081558183015180519482019485559283015191939092916002840190610ba99082612b91565b505050604082015160038201805460ff19166001836006811115610bcf57610bcf6123cc565b02179055505050600101610b15565b5081670de0b6b3a764000014610c0757604051632f1f68e160e11b815260040160405180910390fd5b6040517f50a157c343fff6874b2a912284469fa2d7c63135d345041af0ba6543fbb3d2ab90600090a150505050565b33610c40816115ab565b600260098381548110610c5557610c55612868565b600091825260209091206003600490920201015460ff166006811115610c7d57610c7d6123cc565b03610cb4576040517ffe8dda4e00000000000000000000000000000000000000000000000000000000815260040160405180910390fd5b600360098381548110610cc957610cc9612868565b60009182526020909120600360049092020101805460ff19166001836006811115610cf657610cf66123cc565b02179055507fe6971e1fa5069ef0ac111c9a8c3c6ae90667ddd05771ece6c5f0dfd64fc3e7008260098481548110610d3057610d30612868565b60009182526020909120600360049092020101546040516109e5929160ff1690612c51565b600060098281548110610d6a57610d6a612868565b600091825260209091206003600490920201015460ff1692915050565b60098181548110610d9757600080fd5b90600052602060002090600402016000915090508060000154908060010160405180604001604052908160008201548152602001600182018054610dda9061287e565b80601f0160208091040260200160405190810160405280929190818152602001828054610e069061287e565b8015610e535780601f10610e2857610100808354040283529160200191610e53565b820191906000526020600020905b815481529060010190602001808311610e3657829003601f168201915b5050509190925250505060039091015460ff1683565b60006107ca82611b57565b600081806020019051810190610e8a9190612c65565b90506106808382611b6c565b610e9e610eda565b610ea6610f25565b61089e8282611b81565b610eb8610eda565b8060026000828254610eca9190612b7e565b90915550610ed790508181565b50565b336001600160a01b037f00000000000000000000000000000000000000000000000000000000000000001614610f235760405163075fd2b160e01b815260040160405180910390fd5b565b600154600003610f23576040517f3da3f98c00000000000000000000000000000000000000000000000000000000815260040160405180910390fd5b610f6961165d565b80610f73816115ab565b60095460075410610f9757604051632f1f68e160e11b815260040160405180910390fd5b60015460405163068bcd8d60e01b81526000916001600160a01b037f0000000000000000000000000000000000000000000000000000000000000000169163068bcd8d91610feb9160040190815260200190565b600060405180830381865afa158015611008573d6000803e3d6000fd5b505050506040513d6000823e601f3d908101601f191682016040526110309190810190612983565b9050600060096007548154811061104957611049612868565b60009182526020808320600480546201000090046001600160a01b039081168652600a845260408087208151608081018352815460ff80821615158352610100909104909416968101969096526001810154918601919091526002810154959092029092019550919260608401911660068111156110c9576110c96123cc565b60068111156110da576110da6123cc565b81525050905060025481604001511115611120576040517f1f04ddc800000000000000000000000000000000000000000000000000000000815260040160405180910390fd5b6000670de0b6b3a76400008360000154836040015161113f9190612cdc565b6111499190612cf3565b9050806002600082825461115d91906128ce565b92505081905550611177846040015183602001518361169a565b60038301805460ff191660021790556007805490600061119683612d15565b91905055507fe6971e1fa5069ef0ac111c9a8c3c6ae90667ddd05771ece6c5f0dfd64fc3e70060075460026040516111cf929190612c51565b60405180910390a1600454602083810151604080516001600160a01b03928316815292830185905289821683820152516201000090930416917fb5b51454adfa840bd593658325a60a50b0216f12eb5d2937efe6cea935675b7d9181900360600190a25050505050505050565b6000611246611e66565b600080600080611269604051806040016040528060008152602001606081525090565b60045460ff16156112bb57878060200190518101906112889190612d2e565b919750925090506112998688611930565b6112b65760405163075fd2b160e01b815260040160405180910390fd5b611328565b878060200190518101906112cf9190612d88565b6001600160a01b0383161515985092965090945092509050846112f257866112f4565b825b955084801561130a57506113088688611930565b155b156113285760405163075fd2b160e01b815260040160405180910390fd5b600454610100900460ff16801561134b5750602081015151158061134b57508051155b15611382576040517fc19e07c500000000000000000000000000000000000000000000000000000000815260040160405180910390fd5b6006548211156113be576040517faf55723000000000000000000000000000000000000000000000000000000000815260040160405180910390fd5b816000036113cc5760065491505b6001600160a01b03841661141b576040517ff4a513b90000000000000000000000000000000000000000000000000000000081526001600160a01b038716600482015260240160405180910390fd5b6001600160a01b0386166000908152600a6020526040812090600282015460ff16600681111561144d5761144d6123cc565b036114ec57600880546001810182556000919091527ff3f7a9fe364faab93b216da50a3214154f22a0a2b415b23a84c8169e8b636ee301805473ffffffffffffffffffffffffffffffffffffffff19166001600160a01b0389169081179091556040517fa197306e3dd5494a61a695381aa809a53b8e377a685e84e404a85d5a8da6cc62906114df908c908c90612df6565b60405180910390a2611530565b866001600160a01b03167faf5977db3aa7e6fc7d05e21c791ebd214afa76da27c8d8ddc8e4a9f742d7b2368a8a604051611527929190612df6565b60405180910390a25b80547fffffffffffffffffffffff0000000000000000000000000000000000000000ff166101006001600160a01b038716021781558561157457805460ff16611577565b60015b815490151560ff19918216178255600180830185905560028301805491929091168280021790555050505050505092915050565b6001546040516329e40d4b60e01b815260048101919091526001600160a01b0382811660248301527f000000000000000000000000000000000000000000000000000000000000000016906329e40d4b90604401602060405180830381865afa15801561161c573d6000803e3d6000fd5b505050506040513d601f19601f820116820180604052508101906116409190612e21565b610ed75760405163075fd2b160e01b815260040160405180910390fd5b60005460ff1615610f23576040517fb186267000000000000000000000000000000000000000000000000000000000815260040160405180910390fd5b7fffffffffffffffffffffffff11111111111111111111111111111111111111126001600160a01b038416016116d4576106808282611ea2565b610680838383611ebe565b60065481101561171b576040517ff96c278800000000000000000000000000000000000000000000000000000000815260040160405180910390fd5b60068190556040518181527fbe1bfc6b02716ac59d6f9a0b32d161252bb03558ca6b238dbc66752cef8d2bb690602001610abf565b6001546040516329e40d4b60e01b81526000916001600160a01b037f000000000000000000000000000000000000000000000000000000000000000016916329e40d4b916117b49186906004019182526001600160a01b0316602082015260400190565b602060405180830381865afa1580156117d1573d6000803e3d6000fd5b505050506040513d601f19601f820116820180604052508101906107ca9190612e21565b61181d6040805160808101825260008082526020820181905291810182905290606082015290565b6001600160a01b038083166000908152600a60209081526040918290208251608081018452815460ff8082161515835261010090910490951692810192909252600181015492820192909252600282015490926060840191166006811115611887576118876123cc565b6006811115611898576118986123cc565b9052506004549091506201000090046001600160a01b0316158015906118d257506004546001600160a01b03838116620100009092041614155b1561192b576000816060015160068111156118ef576118ef6123cc565b116118fb5760006118fe565b60035b81606001906006811115611914576119146123cc565b90816006811115611927576119276123cc565b9052505b919050565b6005546040517fdd93da430000000000000000000000000000000000000000000000000000000081526001600160a01b038481166004830152600092839291169063dd93da4390602401600060405180830381865afa158015611997573d6000803e3d6000fd5b505050506040513d6000823e601f3d908101601f191682016040526119bf9190810190612e3e565b60055481516040517f5e8a791500000000000000000000000000000000000000000000000000000000815260048101919091526001600160a01b038681166024830152929350911690635e8a791590604401602060405180830381865afa158015611a2e573d6000803e3d6000fd5b505050506040513d601f19601f82011682018060405250810190611a529190612e21565b949350505050565b604080518082018252600080825260208083018290526001600160a01b038681168352600a82528483208551608081018752815460ff80821615158352610100909104909316938101939093526001810154958301959095526002850154939492939192916060840191166006811115611ad657611ad66123cc565b6006811115611ae757611ae76123cc565b9052506040805180820182526020808401516001600160a01b0316825291909201519082015291505092915050565b6000805460ff19168215159081179091556040519081527fd94c9bc4d43c51d8dc345a016d8e3d994432fac68e72832e4cf3a616bd8efae090602001610abf565b6000611b62826117f5565b6060015192915050565b611b7a828260200151611f0d565b51600b5550565b80611b8b816115ab565b6004546201000090046001600160a01b031615611bd4576040517f41d40fb800000000000000000000000000000000000000000000000000000000815260040160405180910390fd5b6001600160a01b038083166000908152600c6020526040902054168015611c24576001600160a01b0381166000908152600d60205260408120805460019290611c1e9084906128ce565b90915550505b600084806020019051810190611c3a9190612f05565b6001600160a01b0381166000908152600d602052604081208054929350600192909190611c68908490612b7e565b90915550506001600160a01b038481166000818152600c6020908152604091829020805473ffffffffffffffffffffffffffffffffffffffff1916948616948517905590519182527fce0c7a2a940807f7dc2ce7a615c2532e915e6c0ac9a08bc4ed9d515a710a53e2910160405180910390a2600b546001600160a01b0382166000908152600d602052604090205403611e5f57600480547fffffffffffffffffffff0000000000000000000000000000000000000000ffff16620100006001600160a01b0384811682029290921792839055909104166000908152600a602052604090206002808201805460ff19166001830217905550611d6a6000611b16565b60048054600180840154905460405163068bcd8d60e01b81526001600160a01b03620100009094048416947f463ffc2cf8b1596445c417388ed30e53eb67cf6668cb2be7f0addf8a78c8441b947f0000000000000000000000000000000000000000000000000000000000000000169263068bcd8d92611dee920190815260200190565b600060405180830381865afa158015611e0b573d6000803e3d6000fd5b505050506040513d6000823e601f3d908101601f19168201604052611e339190810190612983565b60409081015181519283526001600160a01b0316602083015260009082015260600160405180910390a2505b5050505050565b60005460ff16610f23576040517fcfe7975b00000000000000000000000000000000000000000000000000000000815260040160405180910390fd5b60008060008084865af161089e5763b12d13eb6000526004601cfd5b81601452806034526fa9059cbb00000000000000000000000060005260206000604460106000875af13d156001600051141716611f03576390b8ec186000526004601cfd5b6000603452505050565b611f1682612025565b6020818101516004805460408086015161ffff1990921693151561ff001916939093176101009115159190910217815581517f5ab1bd5300000000000000000000000000000000000000000000000000000000815291517f00000000000000000000000000000000000000000000000000000000000000006001600160a01b031693635ab1bd539380840193919291908290030181865afa158015611fbf573d6000803e3d6000fd5b505050506040513d601f19601f82011682018060405250810190611fe39190612f05565b6005805473ffffffffffffffffffffffffffffffffffffffff19166001600160a01b0392909216919091179055805161201b906116df565b61089e6001611b16565b61202d610eda565b60015415612067576040517f439a74c900000000000000000000000000000000000000000000000000000000815260040160405180910390fd5b806000036120a1576040517f7fcce2a900000000000000000000000000000000000000000000000000000000815260040160405180910390fd5b600155565b6040518060600160405280600081526020016120d5604051806040016040528060008152602001606081525090565b81526020016000905290565b634e487b7160e01b600052604160045260246000fd5b6040516060810167ffffffffffffffff8111828210171561211a5761211a6120e1565b60405290565b6040805190810167ffffffffffffffff8111828210171561211a5761211a6120e1565b60405160c0810167ffffffffffffffff8111828210171561211a5761211a6120e1565b604051601f8201601f1916810167ffffffffffffffff8111828210171561218f5761218f6120e1565b604052919050565b600067ffffffffffffffff8211156121b1576121b16120e1565b5060051b60200190565b6001600160a01b0381168114610ed757600080fd5b600082601f8301126121e157600080fd5b813560206121f66121f183612197565b612166565b82815260059290921b8401810191818101908684111561221557600080fd5b8286015b8481101561223957803561222c816121bb565b8352918301918301612219565b509695505050505050565b600067ffffffffffffffff82111561225e5761225e6120e1565b50601f01601f191660200190565b600061227a6121f184612244565b905082815283838301111561228e57600080fd5b828260208301376000602084830101529392505050565b600082601f8301126122b657600080fd5b6122c58383356020850161226c565b9392505050565b6000806000606084860312156122e157600080fd5b833567ffffffffffffffff808211156122f957600080fd5b612305878388016121d0565b9450602086013591508082111561231b57600080fd5b50612328868287016122a5565b9250506040840135612339816121bb565b809150509250925092565b60006020828403121561235657600080fd5b5035919050565b60005b83811015612378578181015183820152602001612360565b50506000910152565b6000815180845261239981602086016020860161235d565b601f01601f19169290920160200192915050565b805182526000602082015160406020850152611a526040850182612381565b634e487b7160e01b600052602160045260246000fd5b6007811061240057634e487b7160e01b600052602160045260246000fd5b9052565b6020815281516020820152600060208301516060604084015261242a60808401826123ad565b9050604084015161243e60608501826123e2565b509392505050565b6000806040838503121561245957600080fd5b823567ffffffffffffffff81111561247057600080fd5b61247c858286016122a5565b925050602083013561248d816121bb565b809150509250929050565b6000602082840312156124aa57600080fd5b81356122c5816121bb565b60006080820190508251151582526001600160a01b0360208401511660208301526040830151604083015260608301516124f260608401826123e2565b5092915050565b60006020828403121561250b57600080fd5b813567ffffffffffffffff81111561252257600080fd5b8201604081850312156122c557600080fd5b6000806040838503121561254757600080fd5b823567ffffffffffffffff8082111561255f57600080fd5b61256b868387016121d0565b935060209150818501358181111561258257600080fd5b8501601f8101871361259357600080fd5b80356125a16121f182612197565b81815260059190911b820184019084810190898311156125c057600080fd5b8584015b838110156125f8578035868111156125dc5760008081fd5b6125ea8c89838901016122a5565b8452509186019186016125c4565b508096505050505050509250929050565b602080825282518282018190526000919060409081850190868401855b8281101561265457815180516001600160a01b03168552860151868501529284019290850190600101612626565b5091979650505050505050565b8015158114610ed757600080fd5b60006020828403121561268157600080fd5b81356122c581612661565b80356007811061192b57600080fd5b6000602082840312156126ad57600080fd5b67ffffffffffffffff80833511156126c457600080fd5b8235830184601f8201126126d757600080fd5b6126e46121f18235612197565b81358082526020808301929160051b8401018781111561270357600080fd5b602084015b818110156127de57858135111561271e57600080fd5b80358501601f196060828c038201121561273757600080fd5b61273f6120f7565b6020830135815260408301358981111561275857600080fd5b83016040818e038401121561276c57600080fd5b612774612120565b92506020810135835260408101358a81111561278f57600080fd5b01603f81018d1361279f57600080fd5b6127b18d60208301356040840161226c565b6020840152508160208201526127c96060840161268c565b60408201528652505060209384019301612708565b5090979650505050505050565b602081016107ca82846123e2565b83815260606020820152600061281260608301856123ad565b9050611a5260408301846123e2565b6000806040838503121561283457600080fd5b82359150602083013567ffffffffffffffff81111561285257600080fd5b61285e858286016122a5565b9150509250929050565b634e487b7160e01b600052603260045260246000fd5b600181811c9082168061289257607f821691505b6020821081036128b257634e487b7160e01b600052602260045260246000fd5b50919050565b634e487b7160e01b600052601160045260246000fd5b818103818111156107ca576107ca6128b8565b805161192b816121bb565b600082601f8301126128fd57600080fd5b815161290b6121f182612244565b81815284602083860101111561292057600080fd5b611a5282602083016020870161235d565b60006040828403121561294357600080fd5b61294b612120565b905081518152602082015167ffffffffffffffff81111561296b57600080fd5b612977848285016128ec565b60208301525092915050565b60006020828403121561299557600080fd5b815167ffffffffffffffff808211156129ad57600080fd5b9083019060c082860312156129c157600080fd5b6129c9612143565b8251815260208301516129db816121bb565b602082015260408301516129ee816121bb565b6040820152606083015182811115612a0557600080fd5b612a1187828601612931565b6060830152506080830151608082015260a083015160a082015280935050505092915050565b601f82111561068057600081815260208120601f850160051c81016020861015612a5e5750805b601f850160051c820191505b81811015612a7d57828155600101612a6a565b505050505050565b813581556001808201602080850135601e19863603018112612aa657600080fd5b8501803567ffffffffffffffff811115612abf57600080fd5b8036038383011315612ad057600080fd5b612ae481612ade865461287e565b86612a37565b6000601f821160018114612b1a5760008315612b0257508382018501355b600019600385901b1c1916600184901b178655612b73565b600086815260209020601f19841690835b82811015612b4a57868501880135825593870193908901908701612b2b565b5084821015612b695760001960f88660031b161c198785880101351681555b50508683881b0186555b505050505050505050565b808201808211156107ca576107ca6128b8565b815167ffffffffffffffff811115612bab57612bab6120e1565b612bbf81612bb9845461287e565b84612a37565b602080601f831160018114612bf45760008415612bdc5750858301515b600019600386901b1c1916600185901b178555612a7d565b600085815260208120601f198616915b82811015612c2357888601518255948401946001909101908401612c04565b5085821015612c415787850151600019600388901b60f8161c191681555b5050505050600190811b01905550565b828152604081016122c560208301846123e2565b60008183036080811215612c7857600080fd5b612c80612120565b835181526060601f1983011215612c9657600080fd5b612c9e6120f7565b9150602084015182526040840151612cb581612661565b60208301526060840151612cc881612661565b604083015260208101919091529392505050565b80820281158282048414176107ca576107ca6128b8565b600082612d1057634e487b7160e01b600052601260045260246000fd5b500490565b600060018201612d2757612d276128b8565b5060010190565b600080600060608486031215612d4357600080fd5b8351612d4e816121bb565b60208501516040860151919450925067ffffffffffffffff811115612d7257600080fd5b612d7e86828701612931565b9150509250925092565b60008060008060808587031215612d9e57600080fd5b8451612da9816121bb565b6020860151909450612dba816121bb565b60408601516060870151919450925067ffffffffffffffff811115612dde57600080fd5b612dea87828801612931565b91505092959194509250565b604081526000612e096040830185612381565b90506001600160a01b03831660208301529392505050565b600060208284031215612e3357600080fd5b81516122c581612661565b600060208284031215612e5057600080fd5b815167ffffffffffffffff80821115612e6857600080fd5b9083019060c08286031215612e7c57600080fd5b612e84612143565b8251815260208301516020820152604083015182811115612ea457600080fd5b612eb0878286016128ec565b604083015250606083015182811115612ec857600080fd5b612ed487828601612931565b606083015250612ee6608084016128e1565b6080820152612ef760a084016128e1565b60a082015295945050505050565b600060208284031215612f1757600080fd5b81516122c5816121bb56fea264697066735822122054d85de3352e31ed76e7c5861b0703d16c394ea57a4921b9a17bd0d2d2ebfabb64736f6c63430008130033",
    "linkReferences": {}
  },
  "methodIdentifiers": {
    "NATIVE()": "a0cf0aea",
    "acceptedRecipientId()": "5586ba33",
    "allocate(bytes,address)": "ef2920fc",
    "distribute(address[],bytes,address)": "0a6f0ee9",
    "getAllo()": "15cc481e",
    "getMilestone(uint256)": "2442e1cb",
    "getMilestoneStatus(uint256)": "de1acc5c",
    "getPayouts(address[],bytes[])": "b2b878d0",
    "getPoolAmount()": "4ab4ba42",
    "getPoolId()": "38fff2d0",
    "getRecipient(address)": "62812a39",
    "getRecipientStatus(address)": "eb11af93",
    "getStrategyId()": "42fda9c7",
    "increaseMaxBid(uint256)": "369dc5b5",
    "increasePoolAmount(uint256)": "f5b0dfb7",
    "initialize(uint256,bytes)": "edd146cc",
    "isPoolActive()": "df868ed3",
    "isValidAllocator(address)": "4d31d087",
    "maxBid()": "74b11d8a",
    "metadataRequired()": "cb0e85a6",
    "milestones(uint256)": "e89e4ed6",
    "registerRecipient(bytes,address)": "2bbe0cae",
    "rejectMilestone(uint256)": "caaed302",
    "setMilestones((uint256,(uint256,string),uint8)[])": "b9d7040b",
    "setPoolActive(bool)": "b5f620ce",
    "submitUpcomingMilestone((uint256,string))": "9243b605",
    "upcomingMilestone()": "43984ddb",
    "useRegistryAnchor()": "57089739",
    "voteThreshold()": "4fe437d5",
    "votedFor(address)": "f594f13f",
    "votes(address)": "d8bff5a5",
    "withdraw(uint256)": "2e1a7d4d"
  },
  "storageLayout": {
    "storage": [
      {
        "astId": 3267,
        "contract": "contracts/strategies/rfp-committee/RFPCommitteeStrategy.sol:RFPCommitteeStrategy",
        "label": "poolActive",
        "offset": 0,
        "slot": "0",
        "type": "t_bool"
      },
      {
        "astId": 3269,
        "contract": "contracts/strategies/rfp-committee/RFPCommitteeStrategy.sol:RFPCommitteeStrategy",
        "label": "poolId",
        "offset": 0,
        "slot": "1",
        "type": "t_uint256"
      },
      {
        "astId": 3271,
        "contract": "contracts/strategies/rfp-committee/RFPCommitteeStrategy.sol:RFPCommitteeStrategy",
        "label": "poolAmount",
        "offset": 0,
        "slot": "2",
        "type": "t_uint256"
      },
      {
        "astId": 62206,
        "contract": "contracts/strategies/rfp-committee/RFPCommitteeStrategy.sol:RFPCommitteeStrategy",
        "label": "_status",
        "offset": 0,
        "slot": "3",
        "type": "t_uint256"
      },
      {
        "astId": 16117,
        "contract": "contracts/strategies/rfp-committee/RFPCommitteeStrategy.sol:RFPCommitteeStrategy",
        "label": "useRegistryAnchor",
        "offset": 0,
        "slot": "4",
        "type": "t_bool"
      },
      {
        "astId": 16120,
        "contract": "contracts/strategies/rfp-committee/RFPCommitteeStrategy.sol:RFPCommitteeStrategy",
        "label": "metadataRequired",
        "offset": 1,
        "slot": "4",
        "type": "t_bool"
      },
      {
        "astId": 16123,
        "contract": "contracts/strategies/rfp-committee/RFPCommitteeStrategy.sol:RFPCommitteeStrategy",
        "label": "acceptedRecipientId",
        "offset": 2,
        "slot": "4",
        "type": "t_address"
      },
      {
        "astId": 16127,
        "contract": "contracts/strategies/rfp-committee/RFPCommitteeStrategy.sol:RFPCommitteeStrategy",
        "label": "_registry",
        "offset": 0,
        "slot": "5",
        "type": "t_contract(IRegistry)2625"
      },
      {
        "astId": 16130,
        "contract": "contracts/strategies/rfp-committee/RFPCommitteeStrategy.sol:RFPCommitteeStrategy",
        "label": "maxBid",
        "offset": 0,
        "slot": "6",
        "type": "t_uint256"
      },
      {
        "astId": 16133,
        "contract": "contracts/strategies/rfp-committee/RFPCommitteeStrategy.sol:RFPCommitteeStrategy",
        "label": "upcomingMilestone",
        "offset": 0,
        "slot": "7",
        "type": "t_uint256"
      },
      {
        "astId": 16137,
        "contract": "contracts/strategies/rfp-committee/RFPCommitteeStrategy.sol:RFPCommitteeStrategy",
        "label": "_recipientIds",
        "offset": 0,
        "slot": "8",
        "type": "t_array(t_address)dyn_storage"
      },
      {
        "astId": 16142,
        "contract": "contracts/strategies/rfp-committee/RFPCommitteeStrategy.sol:RFPCommitteeStrategy",
        "label": "milestones",
        "offset": 0,
        "slot": "9",
        "type": "t_array(t_struct(Milestone)16062_storage)dyn_storage"
      },
      {
        "astId": 16148,
        "contract": "contracts/strategies/rfp-committee/RFPCommitteeStrategy.sol:RFPCommitteeStrategy",
        "label": "_recipients",
        "offset": 0,
        "slot": "10",
        "type": "t_mapping(t_address,t_struct(Recipient)16053_storage)"
      },
      {
        "astId": 15841,
        "contract": "contracts/strategies/rfp-committee/RFPCommitteeStrategy.sol:RFPCommitteeStrategy",
        "label": "voteThreshold",
        "offset": 0,
        "slot": "11",
        "type": "t_uint256"
      },
      {
        "astId": 15846,
        "contract": "contracts/strategies/rfp-committee/RFPCommitteeStrategy.sol:RFPCommitteeStrategy",
        "label": "votedFor",
        "offset": 0,
        "slot": "12",
        "type": "t_mapping(t_address,t_address)"
      },
      {
        "astId": 15851,
        "contract": "contracts/strategies/rfp-committee/RFPCommitteeStrategy.sol:RFPCommitteeStrategy",
        "label": "votes",
        "offset": 0,
        "slot": "13",
        "type": "t_mapping(t_address,t_uint256)"
      }
    ],
    "types": {
      "t_address": {
        "encoding": "inplace",
        "label": "address",
        "numberOfBytes": "20"
      },
      "t_array(t_address)dyn_storage": {
        "encoding": "dynamic_array",
        "label": "address[]",
        "numberOfBytes": "32",
        "base": "t_address"
      },
      "t_array(t_struct(Milestone)16062_storage)dyn_storage": {
        "encoding": "dynamic_array",
        "label": "struct RFPSimpleStrategy.Milestone[]",
        "numberOfBytes": "32",
        "base": "t_struct(Milestone)16062_storage"
      },
      "t_bool": {
        "encoding": "inplace",
        "label": "bool",
        "numberOfBytes": "1"
      },
      "t_contract(IRegistry)2625": {
        "encoding": "inplace",
        "label": "contract IRegistry",
        "numberOfBytes": "20"
      },
      "t_enum(Status)2638": {
        "encoding": "inplace",
        "label": "enum IStrategy.Status",
        "numberOfBytes": "1"
      },
      "t_mapping(t_address,t_address)": {
        "encoding": "mapping",
        "key": "t_address",
        "label": "mapping(address => address)",
        "numberOfBytes": "32",
        "value": "t_address"
      },
      "t_mapping(t_address,t_struct(Recipient)16053_storage)": {
        "encoding": "mapping",
        "key": "t_address",
        "label": "mapping(address => struct RFPSimpleStrategy.Recipient)",
        "numberOfBytes": "32",
        "value": "t_struct(Recipient)16053_storage"
      },
      "t_mapping(t_address,t_uint256)": {
        "encoding": "mapping",
        "key": "t_address",
        "label": "mapping(address => uint256)",
        "numberOfBytes": "32",
        "value": "t_uint256"
      },
      "t_string_storage": {
        "encoding": "bytes",
        "label": "string",
        "numberOfBytes": "32"
      },
      "t_struct(Metadata)2922_storage": {
        "encoding": "inplace",
        "label": "struct Metadata",
        "numberOfBytes": "64",
        "members": [
          {
            "astId": 2918,
            "contract": "contracts/strategies/rfp-committee/RFPCommitteeStrategy.sol:RFPCommitteeStrategy",
            "label": "protocol",
            "offset": 0,
            "slot": "0",
            "type": "t_uint256"
          },
          {
            "astId": 2921,
            "contract": "contracts/strategies/rfp-committee/RFPCommitteeStrategy.sol:RFPCommitteeStrategy",
            "label": "pointer",
            "offset": 0,
            "slot": "1",
            "type": "t_string_storage"
          }
        ]
      },
      "t_struct(Milestone)16062_storage": {
        "encoding": "inplace",
        "label": "struct RFPSimpleStrategy.Milestone",
        "numberOfBytes": "128",
        "members": [
          {
            "astId": 16055,
            "contract": "contracts/strategies/rfp-committee/RFPCommitteeStrategy.sol:RFPCommitteeStrategy",
            "label": "amountPercentage",
            "offset": 0,
            "slot": "0",
            "type": "t_uint256"
          },
          {
            "astId": 16058,
            "contract": "contracts/strategies/rfp-committee/RFPCommitteeStrategy.sol:RFPCommitteeStrategy",
            "label": "metadata",
            "offset": 0,
            "slot": "1",
            "type": "t_struct(Metadata)2922_storage"
          },
          {
            "astId": 16061,
            "contract": "contracts/strategies/rfp-committee/RFPCommitteeStrategy.sol:RFPCommitteeStrategy",
            "label": "milestoneStatus",
            "offset": 0,
            "slot": "3",
            "type": "t_enum(Status)2638"
          }
        ]
      },
      "t_struct(Recipient)16053_storage": {
        "encoding": "inplace",
        "label": "struct RFPSimpleStrategy.Recipient",
        "numberOfBytes": "96",
        "members": [
          {
            "astId": 16045,
            "contract": "contracts/strategies/rfp-committee/RFPCommitteeStrategy.sol:RFPCommitteeStrategy",
            "label": "useRegistryAnchor",
            "offset": 0,
            "slot": "0",
            "type": "t_bool"
          },
          {
            "astId": 16047,
            "contract": "contracts/strategies/rfp-committee/RFPCommitteeStrategy.sol:RFPCommitteeStrategy",
            "label": "recipientAddress",
            "offset": 1,
            "slot": "0",
            "type": "t_address"
          },
          {
            "astId": 16049,
            "contract": "contracts/strategies/rfp-committee/RFPCommitteeStrategy.sol:RFPCommitteeStrategy",
            "label": "proposalBid",
            "offset": 0,
            "slot": "1",
            "type": "t_uint256"
          },
          {
            "astId": 16052,
            "contract": "contracts/strategies/rfp-committee/RFPCommitteeStrategy.sol:RFPCommitteeStrategy",
            "label": "recipientStatus",
            "offset": 0,
            "slot": "2",
            "type": "t_enum(Status)2638"
          }
        ]
      },
      "t_uint256": {
        "encoding": "inplace",
        "label": "uint256",
        "numberOfBytes": "32"
      }
    }
  },
  "id": 32
}