{
  "abi": [
    {
      "inputs": [
        {
          "internalType": "address",
          "name": "_allo",
          "type": "address"
        },
        {
          "internalType": "string",
          "name": "_name",
          "type": "string"
        }
      ],
      "stateMutability": "nonpayable",
      "type": "constructor"
    },
    {
      "inputs": [],
      "name": "ALLOCATION_ACTIVE",
      "type": "error"
    },
    {
      "inputs": [],
      "name": "ALLOCATION_NOT_ACTIVE",
      "type": "error"
    },
    {
      "inputs": [],
      "name": "ALLOCATION_NOT_ENDED",
      "type": "error"
    },
    {
      "inputs": [],
      "name": "ALREADY_INITIALIZED",
      "type": "error"
    },
    {
      "inputs": [],
      "name": "AMOUNT_MISMATCH",
      "type": "error"
    },
    {
      "inputs": [],
      "name": "AMOUNT_TOO_LOW",
      "type": "error"
    },
    {
      "inputs": [],
      "name": "ANCHOR_ERROR",
      "type": "error"
    },
    {
      "inputs": [],
      "name": "ARRAY_MISMATCH",
      "type": "error"
    },
    {
      "inputs": [],
      "name": "EXCEEDING_MAX_BID",
      "type": "error"
    },
    {
      "inputs": [],
      "name": "INVALID",
      "type": "error"
    },
    {
      "inputs": [],
      "name": "INVALID_ADDRESS",
      "type": "error"
    },
    {
      "inputs": [],
      "name": "INVALID_FEE",
      "type": "error"
    },
    {
      "inputs": [],
      "name": "INVALID_METADATA",
      "type": "error"
    },
    {
      "inputs": [],
      "name": "INVALID_MILESTONE",
      "type": "error"
    },
    {
      "inputs": [],
      "name": "INVALID_REGISTRATION",
      "type": "error"
    },
    {
      "inputs": [],
      "name": "IS_APPROVED_STRATEGY",
      "type": "error"
    },
    {
      "inputs": [],
      "name": "MILESTONES_ALREADY_SET",
      "type": "error"
    },
    {
      "inputs": [],
      "name": "MILESTONE_ALREADY_ACCEPTED",
      "type": "error"
    },
    {
      "inputs": [],
      "name": "MISMATCH",
      "type": "error"
    },
    {
      "inputs": [],
      "name": "NONCE_NOT_AVAILABLE",
      "type": "error"
    },
    {
      "inputs": [],
      "name": "NOT_APPROVED_STRATEGY",
      "type": "error"
    },
    {
      "inputs": [],
      "name": "NOT_ENOUGH_FUNDS",
      "type": "error"
    },
    {
      "inputs": [],
      "name": "NOT_INITIALIZED",
      "type": "error"
    },
    {
      "inputs": [],
      "name": "NOT_PENDING_OWNER",
      "type": "error"
    },
    {
      "inputs": [],
      "name": "POOL_ACTIVE",
      "type": "error"
    },
    {
      "inputs": [],
      "name": "POOL_INACTIVE",
      "type": "error"
    },
    {
      "inputs": [],
      "name": "RECIPIENT_ALREADY_ACCEPTED",
      "type": "error"
    },
    {
      "inputs": [
        {
          "internalType": "address",
          "name": "recipientId",
          "type": "address"
        }
      ],
      "name": "RECIPIENT_ERROR",
      "type": "error"
    },
    {
      "inputs": [],
      "name": "RECIPIENT_NOT_ACCEPTED",
      "type": "error"
    },
    {
      "inputs": [],
      "name": "REGISTRATION_NOT_ACTIVE",
      "type": "error"
    },
    {
      "inputs": [],
      "name": "UNAUTHORIZED",
      "type": "error"
    },
    {
      "inputs": [],
      "name": "ZERO_ADDRESS",
      "type": "error"
    },
    {
      "anonymous": false,
      "inputs": [
        {
          "indexed": true,
          "internalType": "address",
          "name": "recipientId",
          "type": "address"
        },
        {
          "indexed": false,
          "internalType": "uint256",
          "name": "amount",
          "type": "uint256"
        },
        {
          "indexed": false,
          "internalType": "address",
          "name": "token",
          "type": "address"
        },
        {
          "indexed": false,
          "internalType": "address",
          "name": "sender",
          "type": "address"
        }
      ],
      "name": "Allocated",
      "type": "event"
    },
    {
      "anonymous": false,
      "inputs": [
        {
          "indexed": true,
          "internalType": "address",
          "name": "recipientId",
          "type": "address"
        },
        {
          "indexed": false,
          "internalType": "address",
          "name": "recipientAddress",
          "type": "address"
        },
        {
          "indexed": false,
          "internalType": "uint256",
          "name": "amount",
          "type": "uint256"
        },
        {
          "indexed": false,
          "internalType": "address",
          "name": "sender",
          "type": "address"
        }
      ],
      "name": "Distributed",
      "type": "event"
    },
    {
      "anonymous": false,
      "inputs": [
        {
          "indexed": false,
          "internalType": "address",
          "name": "allo",
          "type": "address"
        },
        {
          "indexed": false,
          "internalType": "bytes32",
          "name": "profileId",
          "type": "bytes32"
        },
        {
          "indexed": false,
          "internalType": "uint256",
          "name": "poolId",
          "type": "uint256"
        },
        {
          "indexed": false,
          "internalType": "bytes",
          "name": "data",
          "type": "bytes"
        }
      ],
      "name": "Initialized",
      "type": "event"
    },
    {
      "anonymous": false,
      "inputs": [
        {
          "indexed": false,
          "internalType": "uint256",
          "name": "maxBid",
          "type": "uint256"
        }
      ],
      "name": "MaxBidIncreased",
      "type": "event"
    },
    {
      "anonymous": false,
      "inputs": [
        {
          "indexed": false,
          "internalType": "uint256",
          "name": "milestoneId",
          "type": "uint256"
        },
        {
          "indexed": false,
          "internalType": "enum IStrategy.Status",
          "name": "status",
          "type": "uint8"
        }
      ],
      "name": "MilestoneStatusChanged",
      "type": "event"
    },
    {
      "anonymous": false,
      "inputs": [],
      "name": "MilestonesSet",
      "type": "event"
    },
    {
      "anonymous": false,
      "inputs": [
        {
          "indexed": false,
          "internalType": "uint256",
          "name": "milestoneId",
          "type": "uint256"
        }
      ],
      "name": "MilstoneSubmitted",
      "type": "event"
    },
    {
      "anonymous": false,
      "inputs": [
        {
          "indexed": false,
          "internalType": "bool",
          "name": "active",
          "type": "bool"
        }
      ],
      "name": "PoolActive",
      "type": "event"
    },
    {
      "anonymous": false,
      "inputs": [
        {
          "indexed": true,
          "internalType": "address",
          "name": "recipientId",
          "type": "address"
        },
        {
          "indexed": false,
          "internalType": "bytes",
          "name": "data",
          "type": "bytes"
        },
        {
          "indexed": false,
          "internalType": "address",
          "name": "sender",
          "type": "address"
        }
      ],
      "name": "Registered",
      "type": "event"
    },
    {
      "anonymous": false,
      "inputs": [
        {
          "indexed": true,
          "internalType": "address",
          "name": "recipientId",
          "type": "address"
        },
        {
          "indexed": false,
          "internalType": "bytes",
          "name": "data",
          "type": "bytes"
        },
        {
          "indexed": false,
          "internalType": "address",
          "name": "sender",
          "type": "address"
        }
      ],
      "name": "UpdatedRegistration",
      "type": "event"
    },
    {
      "inputs": [],
      "name": "NATIVE",
      "outputs": [
        {
          "internalType": "address",
          "name": "",
          "type": "address"
        }
      ],
      "stateMutability": "view",
      "type": "function"
    },
    {
      "inputs": [],
      "name": "acceptedRecipientId",
      "outputs": [
        {
          "internalType": "address",
          "name": "",
          "type": "address"
        }
      ],
      "stateMutability": "view",
      "type": "function"
    },
    {
      "inputs": [
        {
          "internalType": "bytes",
          "name": "_data",
          "type": "bytes"
        },
        {
          "internalType": "address",
          "name": "_sender",
          "type": "address"
        }
      ],
      "name": "allocate",
      "outputs": [],
      "stateMutability": "payable",
      "type": "function"
    },
    {
      "inputs": [
        {
          "internalType": "address[]",
          "name": "_recipientIds",
          "type": "address[]"
        },
        {
          "internalType": "bytes",
          "name": "_data",
          "type": "bytes"
        },
        {
          "internalType": "address",
          "name": "_sender",
          "type": "address"
        }
      ],
      "name": "distribute",
      "outputs": [],
      "stateMutability": "nonpayable",
      "type": "function"
    },
    {
      "inputs": [],
      "name": "getAllo",
      "outputs": [
        {
          "internalType": "contract IAllo",
          "name": "",
          "type": "address"
        }
      ],
      "stateMutability": "view",
      "type": "function"
    },
    {
      "inputs": [
        {
          "internalType": "uint256",
          "name": "_milestoneId",
          "type": "uint256"
        }
      ],
      "name": "getMilestone",
      "outputs": [
        {
          "components": [
            {
              "internalType": "uint256",
              "name": "amountPercentage",
              "type": "uint256"
            },
            {
              "components": [
                {
                  "internalType": "uint256",
                  "name": "protocol",
                  "type": "uint256"
                },
                {
                  "internalType": "string",
                  "name": "pointer",
                  "type": "string"
                }
              ],
              "internalType": "struct Metadata",
              "name": "metadata",
              "type": "tuple"
            },
            {
              "internalType": "enum IStrategy.Status",
              "name": "milestoneStatus",
              "type": "uint8"
            }
          ],
          "internalType": "struct RFPSimpleStrategy.Milestone",
          "name": "",
          "type": "tuple"
        }
      ],
      "stateMutability": "view",
      "type": "function"
    },
    {
      "inputs": [
        {
          "internalType": "uint256",
          "name": "_milestoneId",
          "type": "uint256"
        }
      ],
      "name": "getMilestoneStatus",
      "outputs": [
        {
          "internalType": "enum IStrategy.Status",
          "name": "",
          "type": "uint8"
        }
      ],
      "stateMutability": "view",
      "type": "function"
    },
    {
      "inputs": [
        {
          "internalType": "address[]",
          "name": "",
          "type": "address[]"
        },
        {
          "internalType": "bytes[]",
          "name": "",
          "type": "bytes[]"
        }
      ],
      "name": "getPayouts",
      "outputs": [
        {
          "components": [
            {
              "internalType": "address",
              "name": "recipientAddress",
              "type": "address"
            },
            {
              "internalType": "uint256",
              "name": "amount",
              "type": "uint256"
            }
          ],
          "internalType": "struct IStrategy.PayoutSummary[]",
          "name": "",
          "type": "tuple[]"
        }
      ],
      "stateMutability": "view",
      "type": "function"
    },
    {
      "inputs": [],
      "name": "getPoolAmount",
      "outputs": [
        {
          "internalType": "uint256",
          "name": "",
          "type": "uint256"
        }
      ],
      "stateMutability": "view",
      "type": "function"
    },
    {
      "inputs": [],
      "name": "getPoolId",
      "outputs": [
        {
          "internalType": "uint256",
          "name": "",
          "type": "uint256"
        }
      ],
      "stateMutability": "view",
      "type": "function"
    },
    {
      "inputs": [
        {
          "internalType": "address",
          "name": "_recipientId",
          "type": "address"
        }
      ],
      "name": "getRecipient",
      "outputs": [
        {
          "components": [
            {
              "internalType": "bool",
              "name": "useRegistryAnchor",
              "type": "bool"
            },
            {
              "internalType": "address",
              "name": "recipientAddress",
              "type": "address"
            },
            {
              "internalType": "uint256",
              "name": "proposalBid",
              "type": "uint256"
            },
            {
              "internalType": "enum IStrategy.Status",
              "name": "recipientStatus",
              "type": "uint8"
            }
          ],
          "internalType": "struct RFPSimpleStrategy.Recipient",
          "name": "",
          "type": "tuple"
        }
      ],
      "stateMutability": "view",
      "type": "function"
    },
    {
      "inputs": [
        {
          "internalType": "address",
          "name": "_recipientId",
          "type": "address"
        }
      ],
      "name": "getRecipientStatus",
      "outputs": [
        {
          "internalType": "enum IStrategy.Status",
          "name": "",
          "type": "uint8"
        }
      ],
      "stateMutability": "view",
      "type": "function"
    },
    {
      "inputs": [],
      "name": "getStrategyId",
      "outputs": [
        {
          "internalType": "bytes32",
          "name": "",
          "type": "bytes32"
        }
      ],
      "stateMutability": "view",
      "type": "function"
    },
    {
      "inputs": [
        {
          "internalType": "uint256",
          "name": "_maxBid",
          "type": "uint256"
        }
      ],
      "name": "increaseMaxBid",
      "outputs": [],
      "stateMutability": "nonpayable",
      "type": "function"
    },
    {
      "inputs": [
        {
          "internalType": "uint256",
          "name": "_amount",
          "type": "uint256"
        }
      ],
      "name": "increasePoolAmount",
      "outputs": [],
      "stateMutability": "nonpayable",
      "type": "function"
    },
    {
      "inputs": [
        {
          "internalType": "uint256",
          "name": "_poolId",
          "type": "uint256"
        },
        {
          "internalType": "bytes",
          "name": "_data",
          "type": "bytes"
        }
      ],
      "name": "initialize",
      "outputs": [],
      "stateMutability": "nonpayable",
      "type": "function"
    },
    {
      "inputs": [],
      "name": "isPoolActive",
      "outputs": [
        {
          "internalType": "bool",
          "name": "",
          "type": "bool"
        }
      ],
      "stateMutability": "view",
      "type": "function"
    },
    {
      "inputs": [
        {
          "internalType": "address",
          "name": "_allocator",
          "type": "address"
        }
      ],
      "name": "isValidAllocator",
      "outputs": [
        {
          "internalType": "bool",
          "name": "",
          "type": "bool"
        }
      ],
      "stateMutability": "view",
      "type": "function"
    },
    {
      "inputs": [],
      "name": "maxBid",
      "outputs": [
        {
          "internalType": "uint256",
          "name": "",
          "type": "uint256"
        }
      ],
      "stateMutability": "view",
      "type": "function"
    },
    {
      "inputs": [],
      "name": "metadataRequired",
      "outputs": [
        {
          "internalType": "bool",
          "name": "",
          "type": "bool"
        }
      ],
      "stateMutability": "view",
      "type": "function"
    },
    {
      "inputs": [
        {
          "internalType": "uint256",
          "name": "",
          "type": "uint256"
        }
      ],
      "name": "milestones",
      "outputs": [
        {
          "internalType": "uint256",
          "name": "amountPercentage",
          "type": "uint256"
        },
        {
          "components": [
            {
              "internalType": "uint256",
              "name": "protocol",
              "type": "uint256"
            },
            {
              "internalType": "string",
              "name": "pointer",
              "type": "string"
            }
          ],
          "internalType": "struct Metadata",
          "name": "metadata",
          "type": "tuple"
        },
        {
          "internalType": "enum IStrategy.Status",
          "name": "milestoneStatus",
          "type": "uint8"
        }
      ],
      "stateMutability": "view",
      "type": "function"
    },
    {
      "inputs": [
        {
          "internalType": "bytes",
          "name": "_data",
          "type": "bytes"
        },
        {
          "internalType": "address",
          "name": "_sender",
          "type": "address"
        }
      ],
      "name": "registerRecipient",
      "outputs": [
        {
          "internalType": "address",
          "name": "recipientId",
          "type": "address"
        }
      ],
      "stateMutability": "payable",
      "type": "function"
    },
    {
      "inputs": [
        {
          "internalType": "uint256",
          "name": "_milestoneId",
          "type": "uint256"
        }
      ],
      "name": "rejectMilestone",
      "outputs": [],
      "stateMutability": "nonpayable",
      "type": "function"
    },
    {
      "inputs": [
        {
          "components": [
            {
              "internalType": "uint256",
              "name": "amountPercentage",
              "type": "uint256"
            },
            {
              "components": [
                {
                  "internalType": "uint256",
                  "name": "protocol",
                  "type": "uint256"
                },
                {
                  "internalType": "string",
                  "name": "pointer",
                  "type": "string"
                }
              ],
              "internalType": "struct Metadata",
              "name": "metadata",
              "type": "tuple"
            },
            {
              "internalType": "enum IStrategy.Status",
              "name": "milestoneStatus",
              "type": "uint8"
            }
          ],
          "internalType": "struct RFPSimpleStrategy.Milestone[]",
          "name": "_milestones",
          "type": "tuple[]"
        }
      ],
      "name": "setMilestones",
      "outputs": [],
      "stateMutability": "nonpayable",
      "type": "function"
    },
    {
      "inputs": [
        {
          "internalType": "bool",
          "name": "_flag",
          "type": "bool"
        }
      ],
      "name": "setPoolActive",
      "outputs": [],
      "stateMutability": "nonpayable",
      "type": "function"
    },
    {
      "inputs": [
        {
          "components": [
            {
              "internalType": "uint256",
              "name": "protocol",
              "type": "uint256"
            },
            {
              "internalType": "string",
              "name": "pointer",
              "type": "string"
            }
          ],
          "internalType": "struct Metadata",
          "name": "_metadata",
          "type": "tuple"
        }
      ],
      "name": "submitUpcomingMilestone",
      "outputs": [],
      "stateMutability": "nonpayable",
      "type": "function"
    },
    {
      "inputs": [],
      "name": "upcomingMilestone",
      "outputs": [
        {
          "internalType": "uint256",
          "name": "",
          "type": "uint256"
        }
      ],
      "stateMutability": "view",
      "type": "function"
    },
    {
      "inputs": [],
      "name": "useRegistryAnchor",
      "outputs": [
        {
          "internalType": "bool",
          "name": "",
          "type": "bool"
        }
      ],
      "stateMutability": "view",
      "type": "function"
    },
    {
      "inputs": [
        {
          "internalType": "uint256",
          "name": "_amount",
          "type": "uint256"
        }
      ],
      "name": "withdraw",
      "outputs": [],
      "stateMutability": "nonpayable",
      "type": "function"
    },
    {
      "stateMutability": "payable",
      "type": "receive"
    }
  ],
  "bytecode": {
    "object": "0x60c06040523480156200001157600080fd5b5060405162003030380380620030308339810160408190526200003491620000bf565b6001600160a01b03821660805260405182908290620000589082906020016200019a565b60408051601f19818403018152919052805160209091012060a0525050600160035550620001cf9050565b634e487b7160e01b600052604160045260246000fd5b60005b83811015620000b65781810151838201526020016200009c565b50506000910152565b60008060408385031215620000d357600080fd5b82516001600160a01b0381168114620000eb57600080fd5b60208401519092506001600160401b03808211156200010957600080fd5b818501915085601f8301126200011e57600080fd5b81518181111562000133576200013362000083565b604051601f8201601f19908116603f011681019083821181831017156200015e576200015e62000083565b816040528281528860208487010111156200017857600080fd5b6200018b83602083016020880162000099565b80955050505050509250929050565b6020815260008251806020840152620001bb81604085016020870162000099565b601f01601f19169190910160400192915050565b60805160a051612e0a6200022660003960006102ee0152600081816102030152818161077d01528181610e4b01528181610f1a01528181611523015281816116bb01528181611b1c0152611ce20152612e0a6000f3fe6080604052600436106101c65760003560e01c806374b11d8a116100f7578063cb0e85a611610095578063eb11af9311610064578063eb11af9314610558578063edd146cc14610578578063ef2920fc14610598578063f5b0dfb7146105ab57600080fd5b8063cb0e85a6146104c5578063de1acc5c146104e4578063df868ed314610511578063e89e4ed61461052957600080fd5b8063b2b878d0116100d1578063b2b878d014610438578063b5f620ce14610465578063b9d7040b14610485578063caaed302146104a557600080fd5b806374b11d8a146103da5780639243b605146103f0578063a0cf0aea1461041057600080fd5b806342fda9c7116101645780634d31d0871161013e5780634d31d0871461033d5780635586ba331461036d578063570897391461039357806362812a39146103ad57600080fd5b806342fda9c7146102df57806343984ddb146103125780634ab4ba421461032857600080fd5b80632bbe0cae116101a05780632bbe0cae1461026d5780632e1a7d4d14610280578063369dc5b5146102a057806338fff2d0146102c057600080fd5b80630a6f0ee9146101d257806315cc481e146101f45780632442e1cb1461024057600080fd5b366101cd57005b600080fd5b3480156101de57600080fd5b506101f26101ed3660046121aa565b6105cb565b005b34801561020057600080fd5b507f00000000000000000000000000000000000000000000000000000000000000005b6040516001600160a01b0390911681526020015b60405180910390f35b34801561024c57600080fd5b5061026061025b366004612222565b6105eb565b60405161023791906122e2565b61022361027b366004612324565b610711565b34801561028c57600080fd5b506101f261029b366004612222565b610736565b3480156102ac57600080fd5b506101f26102bb366004612222565b610808565b3480156102cc57600080fd5b506001545b604051908152602001610237565b3480156102eb57600080fd5b507f00000000000000000000000000000000000000000000000000000000000000006102d1565b34801561031e57600080fd5b506102d160075481565b34801561033457600080fd5b506002546102d1565b34801561034957600080fd5b5061035d610358366004612376565b61081b565b6040519015158152602001610237565b34801561037957600080fd5b50600454610223906201000090046001600160a01b031681565b34801561039f57600080fd5b5060045461035d9060ff1681565b3480156103b957600080fd5b506103cd6103c8366004612376565b610826565b6040516102379190612393565b3480156103e657600080fd5b506102d160065481565b3480156103fc57600080fd5b506101f261040b3660046123d7565b610857565b34801561041c57600080fd5b5061022373eeeeeeeeeeeeeeeeeeeeeeeeeeeeeeeeeeeeeeee81565b34801561044457600080fd5b50610458610453366004612412565b610957565b60405161023791906124e7565b34801561047157600080fd5b506101f261048036600461254d565b6109ee565b34801561049157600080fd5b506101f26104a0366004612579565b610a30565b3480156104b157600080fd5b506101f26104c0366004612222565b610b9c565b3480156104d157600080fd5b5060045461035d90610100900460ff1681565b3480156104f057600080fd5b506105046104ff366004612222565b610cbb565b60405161023791906126c9565b34801561051d57600080fd5b5060005460ff1661035d565b34801561053557600080fd5b50610549610544366004612222565b610ced565b604051610237939291906126d7565b34801561056457600080fd5b50610504610573366004612376565b610dcf565b34801561058457600080fd5b506101f26105933660046126ff565b610dda565b6101f26105a6366004612324565b610dfc565b3480156105b757600080fd5b506101f26105c6366004612222565b610e16565b6105d3610e40565b6105db610e8b565b6105e6838383610ec7565b505050565b6105f3611f84565b6009828154811061060657610606612746565b90600052602060002090600402016040518060600160405290816000820154815260200160018201604051806040016040529081600082015481526020016001820180546106539061275c565b80601f016020809104026020016040519081016040528092919081815260200182805461067f9061275c565b80156106cc5780601f106106a1576101008083540402835291602001916106cc565b820191906000526020600020905b8154815290600101906020018083116106af57829003601f168201915b505050919092525050508152600382015460209091019060ff1660068111156106f7576106f76122aa565b6006811115610708576107086122aa565b90525092915050565b600061071b610e40565b610723610e8b565b61072d83836111a2565b90505b92915050565b33610740816114f9565b6107486115ab565b816002600082825461075a91906127ac565b909155505060015460405163068bcd8d60e01b8152610804916001600160a01b037f0000000000000000000000000000000000000000000000000000000000000000169163068bcd8d916107b49160040190815260200190565b600060405180830381865afa1580156107d1573d6000803e3d6000fd5b505050506040513d6000823e601f3d908101601f191682016040526107f99190810190612861565b6040015133846115e8565b5050565b33610812816114f9565b6108048261162d565b60006107308261169e565b61084e6040805160808101825260008082526020820181905291810182905290606082015290565b61073082611743565b6004546201000090046001600160a01b03163314801590610891575060045461088f906201000090046001600160a01b03163361187e565b155b156108af5760405163075fd2b160e01b815260040160405180910390fd5b600954600754106108d357604051632f1f68e160e11b815260040160405180910390fd5b60006009600754815481106108ea576108ea612746565b906000526020600020906004020190508181600101818161090b9190612963565b505060038101805460ff191660011790556007546040519081527fb8cc7b45ad9f94af049eb207914f37551e7d5c06a10c7fe73df91bbfc1643412906020015b60405180910390a15050565b60408051600180825281830190925260609160009190816020015b60408051808201909152600080825260208201528152602001906001900390816109725790505090506109c9600460029054906101000a90046001600160a01b0316604051806020016040528060008152506119a8565b816000815181106109dc576109dc612746565b60209081029190910101529392505050565b6109f781611a64565b60405181151581527fd94c9bc4d43c51d8dc345a016d8e3d994432fac68e72832e4cf3a616bd8efae0906020015b60405180910390a150565b33610a3a816114f9565b60075415610a74576040517fb9463a6000000000000000000000000000000000000000000000000000000000815260040160405180910390fd5b8151600090815b81811015610b4457848181518110610a9557610a95612746565b60200260200101516000015183610aac9190612a5c565b92506009858281518110610ac257610ac2612746565b60209081029190910181015182546001818101855560009485529383902082516004909202019081558183015180519482019485559283015191939092916002840190610b0f9082612a6f565b505050604082015160038201805460ff19166001836006811115610b3557610b356122aa565b02179055505050600101610a7b565b5081670de0b6b3a764000014610b6d57604051632f1f68e160e11b815260040160405180910390fd5b6040517f50a157c343fff6874b2a912284469fa2d7c63135d345041af0ba6543fbb3d2ab90600090a150505050565b33610ba6816114f9565b600260098381548110610bbb57610bbb612746565b600091825260209091206003600490920201015460ff166006811115610be357610be36122aa565b03610c1a576040517ffe8dda4e00000000000000000000000000000000000000000000000000000000815260040160405180910390fd5b600360098381548110610c2f57610c2f612746565b60009182526020909120600360049092020101805460ff19166001836006811115610c5c57610c5c6122aa565b02179055507fe6971e1fa5069ef0ac111c9a8c3c6ae90667ddd05771ece6c5f0dfd64fc3e7008260098481548110610c9657610c96612746565b600091825260209091206003600490920201015460405161094b929160ff1690612b2f565b600060098281548110610cd057610cd0612746565b600091825260209091206003600490920201015460ff1692915050565b60098181548110610cfd57600080fd5b90600052602060002090600402016000915090508060000154908060010160405180604001604052908160008201548152602001600182018054610d409061275c565b80601f0160208091040260200160405190810160405280929190818152602001828054610d6c9061275c565b8015610db95780601f10610d8e57610100808354040283529160200191610db9565b820191906000526020600020905b815481529060010190602001808311610d9c57829003601f168201915b5050509190925250505060039091015460ff1683565b600061073082611aa5565b600081806020019051810190610df09190612b43565b90506105e68382611aba565b610e04610e40565b610e0c610e8b565b6108048282611bd2565b610e1e610e40565b8060026000828254610e309190612a5c565b90915550610e3d90508181565b50565b336001600160a01b037f00000000000000000000000000000000000000000000000000000000000000001614610e895760405163075fd2b160e01b815260040160405180910390fd5b565b600154600003610e89576040517f3da3f98c00000000000000000000000000000000000000000000000000000000815260040160405180910390fd5b610ecf6115ab565b80610ed9816114f9565b60095460075410610efd57604051632f1f68e160e11b815260040160405180910390fd5b60015460405163068bcd8d60e01b81526000916001600160a01b037f0000000000000000000000000000000000000000000000000000000000000000169163068bcd8d91610f519160040190815260200190565b600060405180830381865afa158015610f6e573d6000803e3d6000fd5b505050506040513d6000823e601f3d908101601f19168201604052610f969190810190612861565b90506000600960075481548110610faf57610faf612746565b60009182526020808320600480546201000090046001600160a01b039081168652600a845260408087208151608081018352815460ff808216151583526101009091049094169681019690965260018101549186019190915260028101549590920290920195509192606084019116600681111561102f5761102f6122aa565b6006811115611040576110406122aa565b81525050905060025481604001511115611086576040517f1f04ddc800000000000000000000000000000000000000000000000000000000815260040160405180910390fd5b6000670de0b6b3a7640000836000015483604001516110a59190612b8e565b6110af9190612ba5565b905080600260008282546110c391906127ac565b925050819055506110dd84604001518360200151836115e8565b60038301805460ff19166002179055600780549060006110fc83612bc7565b91905055507fe6971e1fa5069ef0ac111c9a8c3c6ae90667ddd05771ece6c5f0dfd64fc3e7006007546002604051611135929190612b2f565b60405180910390a1600454602083810151604080516001600160a01b03928316815292830185905289821683820152516201000090930416917fb5b51454adfa840bd593658325a60a50b0216f12eb5d2937efe6cea935675b7d9181900360600190a25050505050505050565b60006111ac611de9565b6000806000806111cf604051806040016040528060008152602001606081525090565b60045460ff161561122157878060200190518101906111ee9190612be0565b919750925090506111ff868861187e565b61121c5760405163075fd2b160e01b815260040160405180910390fd5b61128e565b878060200190518101906112359190612c3a565b6001600160a01b038316151598509296509094509250905084611258578661125a565b825b9550848015611270575061126e868861187e565b155b1561128e5760405163075fd2b160e01b815260040160405180910390fd5b600454610100900460ff1680156112b1575060208101515115806112b157508051155b156112e8576040517fc19e07c500000000000000000000000000000000000000000000000000000000815260040160405180910390fd5b600654821115611324576040517faf55723000000000000000000000000000000000000000000000000000000000815260040160405180910390fd5b816000036113325760065491505b6001600160a01b0384166113695760405163f4a513b960e01b81526001600160a01b03871660048201526024015b60405180910390fd5b6001600160a01b0386166000908152600a6020526040812090600282015460ff16600681111561139b5761139b6122aa565b0361143a57600880546001810182556000919091527ff3f7a9fe364faab93b216da50a3214154f22a0a2b415b23a84c8169e8b636ee301805473ffffffffffffffffffffffffffffffffffffffff19166001600160a01b0389169081179091556040517fa197306e3dd5494a61a695381aa809a53b8e377a685e84e404a85d5a8da6cc629061142d908c908c90612ca8565b60405180910390a261147e565b866001600160a01b03167faf5977db3aa7e6fc7d05e21c791ebd214afa76da27c8d8ddc8e4a9f742d7b2368a8a604051611475929190612ca8565b60405180910390a25b80547fffffffffffffffffffffff0000000000000000000000000000000000000000ff166101006001600160a01b03871602178155856114c257805460ff166114c5565b60015b815490151560ff19918216178255600180830185905560028301805491929091168280021790555050505050505092915050565b6001546040516329e40d4b60e01b815260048101919091526001600160a01b0382811660248301527f000000000000000000000000000000000000000000000000000000000000000016906329e40d4b90604401602060405180830381865afa15801561156a573d6000803e3d6000fd5b505050506040513d601f19601f8201168201806040525081019061158e9190612cd3565b610e3d5760405163075fd2b160e01b815260040160405180910390fd5b60005460ff1615610e89576040517fb186267000000000000000000000000000000000000000000000000000000000815260040160405180910390fd5b7fffffffffffffffffffffffff11111111111111111111111111111111111111126001600160a01b03841601611622576105e68282611e25565b6105e6838383611e41565b600654811015611669576040517ff96c278800000000000000000000000000000000000000000000000000000000815260040160405180910390fd5b60068190556040518181527fbe1bfc6b02716ac59d6f9a0b32d161252bb03558ca6b238dbc66752cef8d2bb690602001610a25565b6001546040516329e40d4b60e01b81526000916001600160a01b037f000000000000000000000000000000000000000000000000000000000000000016916329e40d4b916117029186906004019182526001600160a01b0316602082015260400190565b602060405180830381865afa15801561171f573d6000803e3d6000fd5b505050506040513d601f19601f820116820180604052508101906107309190612cd3565b61176b6040805160808101825260008082526020820181905291810182905290606082015290565b6001600160a01b038083166000908152600a60209081526040918290208251608081018452815460ff80821615158352610100909104909516928101929092526001810154928201929092526002820154909260608401911660068111156117d5576117d56122aa565b60068111156117e6576117e66122aa565b9052506004549091506201000090046001600160a01b03161580159061182057506004546001600160a01b03838116620100009092041614155b156118795760008160600151600681111561183d5761183d6122aa565b1161184957600061184c565b60035b81606001906006811115611862576118626122aa565b90816006811115611875576118756122aa565b9052505b919050565b6005546040517fdd93da430000000000000000000000000000000000000000000000000000000081526001600160a01b038481166004830152600092839291169063dd93da4390602401600060405180830381865afa1580156118e5573d6000803e3d6000fd5b505050506040513d6000823e601f3d908101601f1916820160405261190d9190810190612cf0565b60055481516040517f5e8a791500000000000000000000000000000000000000000000000000000000815260048101919091526001600160a01b038681166024830152929350911690635e8a791590604401602060405180830381865afa15801561197c573d6000803e3d6000fd5b505050506040513d601f19601f820116820180604052508101906119a09190612cd3565b949350505050565b604080518082018252600080825260208083018290526001600160a01b038681168352600a82528483208551608081018752815460ff80821615158352610100909104909316938101939093526001810154958301959095526002850154939492939192916060840191166006811115611a2457611a246122aa565b6006811115611a3557611a356122aa565b9052506040805180820182526020808401516001600160a01b0316825291909201519082015291505092915050565b6000805460ff19168215159081179091556040519081527fd94c9bc4d43c51d8dc345a016d8e3d994432fac68e72832e4cf3a616bd8efae090602001610a25565b6000611ab082611743565b6060015192915050565b611ac382611e90565b6020818101516004805460408086015161ffff1990921693151561ff001916939093176101009115159190910217815581517f5ab1bd5300000000000000000000000000000000000000000000000000000000815291517f00000000000000000000000000000000000000000000000000000000000000006001600160a01b031693635ab1bd539380840193919291908290030181865afa158015611b6c573d6000803e3d6000fd5b505050506040513d601f19601f82011682018060405250810190611b909190612db7565b6005805473ffffffffffffffffffffffffffffffffffffffff19166001600160a01b03929092169190911790558051611bc89061162d565b6108046001611a64565b611bda611f11565b611be2611de9565b80611bec816114f9565b82806020019051810190611c009190612db7565b600480547fffffffffffffffffffff0000000000000000000000000000000000000000ffff16620100006001600160a01b03938416810291909117918290559004166000818152600a60205260409020901580611c7657506001600282015460ff166006811115611c7357611c736122aa565b14155b15611cab576004805460405163f4a513b960e01b8152620100009091046001600160a01b031691810191909152602401611360565b6002818101805460ff19169091179055611cc56000611a64565b60015460405163068bcd8d60e01b81526000916001600160a01b037f0000000000000000000000000000000000000000000000000000000000000000169163068bcd8d91611d199160040190815260200190565b600060405180830381865afa158015611d36573d6000803e3d6000fd5b505050506040513d6000823e601f3d908101601f19168201604052611d5e9190810190612861565b9050600460029054906101000a90046001600160a01b03166001600160a01b03167f463ffc2cf8b1596445c417388ed30e53eb67cf6668cb2be7f0addf8a78c8441b8360010154836040015187604051611dd4939291909283526001600160a01b03918216602084015216604082015260600190565b60405180910390a25050506108046001600355565b60005460ff16610e89576040517fcfe7975b00000000000000000000000000000000000000000000000000000000815260040160405180910390fd5b60008060008084865af16108045763b12d13eb6000526004601cfd5b81601452806034526fa9059cbb00000000000000000000000060005260206000604460106000875af13d156001600051141716611e86576390b8ec186000526004601cfd5b6000603452505050565b611e98610e40565b60015415611ed2576040517f439a74c900000000000000000000000000000000000000000000000000000000815260040160405180910390fd5b80600003611f0c576040517f7fcce2a900000000000000000000000000000000000000000000000000000000815260040160405180910390fd5b600155565b600260035403611f7d576040517f08c379a000000000000000000000000000000000000000000000000000000000815260206004820152601f60248201527f5265656e7472616e637947756172643a207265656e7472616e742063616c6c006044820152606401611360565b6002600355565b604051806060016040528060008152602001611fb3604051806040016040528060008152602001606081525090565b81526020016000905290565b634e487b7160e01b600052604160045260246000fd5b6040516060810167ffffffffffffffff81118282101715611ff857611ff8611fbf565b60405290565b6040805190810167ffffffffffffffff81118282101715611ff857611ff8611fbf565b60405160c0810167ffffffffffffffff81118282101715611ff857611ff8611fbf565b604051601f8201601f1916810167ffffffffffffffff8111828210171561206d5761206d611fbf565b604052919050565b600067ffffffffffffffff82111561208f5761208f611fbf565b5060051b60200190565b6001600160a01b0381168114610e3d57600080fd5b600082601f8301126120bf57600080fd5b813560206120d46120cf83612075565b612044565b82815260059290921b840181019181810190868411156120f357600080fd5b8286015b8481101561211757803561210a81612099565b83529183019183016120f7565b509695505050505050565b600067ffffffffffffffff82111561213c5761213c611fbf565b50601f01601f191660200190565b60006121586120cf84612122565b905082815283838301111561216c57600080fd5b828260208301376000602084830101529392505050565b600082601f83011261219457600080fd5b6121a38383356020850161214a565b9392505050565b6000806000606084860312156121bf57600080fd5b833567ffffffffffffffff808211156121d757600080fd5b6121e3878388016120ae565b945060208601359150808211156121f957600080fd5b5061220686828701612183565b925050604084013561221781612099565b809150509250925092565b60006020828403121561223457600080fd5b5035919050565b60005b8381101561225657818101518382015260200161223e565b50506000910152565b6000815180845261227781602086016020860161223b565b601f01601f19169290920160200192915050565b8051825260006020820151604060208501526119a0604085018261225f565b634e487b7160e01b600052602160045260246000fd5b600781106122de57634e487b7160e01b600052602160045260246000fd5b9052565b60208152815160208201526000602083015160606040840152612308608084018261228b565b9050604084015161231c60608501826122c0565b509392505050565b6000806040838503121561233757600080fd5b823567ffffffffffffffff81111561234e57600080fd5b61235a85828601612183565b925050602083013561236b81612099565b809150509250929050565b60006020828403121561238857600080fd5b81356121a381612099565b60006080820190508251151582526001600160a01b0360208401511660208301526040830151604083015260608301516123d060608401826122c0565b5092915050565b6000602082840312156123e957600080fd5b813567ffffffffffffffff81111561240057600080fd5b8201604081850312156121a357600080fd5b6000806040838503121561242557600080fd5b823567ffffffffffffffff8082111561243d57600080fd5b612449868387016120ae565b935060209150818501358181111561246057600080fd5b8501601f8101871361247157600080fd5b803561247f6120cf82612075565b81815260059190911b8201840190848101908983111561249e57600080fd5b8584015b838110156124d6578035868111156124ba5760008081fd5b6124c88c8983890101612183565b8452509186019186016124a2565b508096505050505050509250929050565b602080825282518282018190526000919060409081850190868401855b8281101561253257815180516001600160a01b03168552860151868501529284019290850190600101612504565b5091979650505050505050565b8015158114610e3d57600080fd5b60006020828403121561255f57600080fd5b81356121a38161253f565b80356007811061187957600080fd5b60006020828403121561258b57600080fd5b67ffffffffffffffff80833511156125a257600080fd5b8235830184601f8201126125b557600080fd5b6125c26120cf8235612075565b81358082526020808301929160051b840101878111156125e157600080fd5b602084015b818110156126bc5785813511156125fc57600080fd5b80358501601f196060828c038201121561261557600080fd5b61261d611fd5565b6020830135815260408301358981111561263657600080fd5b83016040818e038401121561264a57600080fd5b612652611ffe565b92506020810135835260408101358a81111561266d57600080fd5b01603f81018d1361267d57600080fd5b61268f8d60208301356040840161214a565b6020840152508160208201526126a76060840161256a565b604082015286525050602093840193016125e6565b5090979650505050505050565b6020810161073082846122c0565b8381526060602082015260006126f0606083018561228b565b90506119a060408301846122c0565b6000806040838503121561271257600080fd5b82359150602083013567ffffffffffffffff81111561273057600080fd5b61273c85828601612183565b9150509250929050565b634e487b7160e01b600052603260045260246000fd5b600181811c9082168061277057607f821691505b60208210810361279057634e487b7160e01b600052602260045260246000fd5b50919050565b634e487b7160e01b600052601160045260246000fd5b8181038181111561073057610730612796565b805161187981612099565b600082601f8301126127db57600080fd5b81516127e96120cf82612122565b8181528460208386010111156127fe57600080fd5b6119a082602083016020870161223b565b60006040828403121561282157600080fd5b612829611ffe565b905081518152602082015167ffffffffffffffff81111561284957600080fd5b612855848285016127ca565b60208301525092915050565b60006020828403121561287357600080fd5b815167ffffffffffffffff8082111561288b57600080fd5b9083019060c0828603121561289f57600080fd5b6128a7612021565b8251815260208301516128b981612099565b602082015260408301516128cc81612099565b60408201526060830151828111156128e357600080fd5b6128ef8782860161280f565b6060830152506080830151608082015260a083015160a082015280935050505092915050565b601f8211156105e657600081815260208120601f850160051c8101602086101561293c5750805b601f850160051c820191505b8181101561295b57828155600101612948565b505050505050565b813581556001808201602080850135601e1986360301811261298457600080fd5b8501803567ffffffffffffffff81111561299d57600080fd5b80360383830113156129ae57600080fd5b6129c2816129bc865461275c565b86612915565b6000601f8211600181146129f857600083156129e057508382018501355b600019600385901b1c1916600184901b178655612a51565b600086815260209020601f19841690835b82811015612a2857868501880135825593870193908901908701612a09565b5084821015612a475760001960f88660031b161c198785880101351681555b50508683881b0186555b505050505050505050565b8082018082111561073057610730612796565b815167ffffffffffffffff811115612a8957612a89611fbf565b612a9d81612a97845461275c565b84612915565b602080601f831160018114612ad25760008415612aba5750858301515b600019600386901b1c1916600185901b17855561295b565b600085815260208120601f198616915b82811015612b0157888601518255948401946001909101908401612ae2565b5085821015612b1f5787850151600019600388901b60f8161c191681555b5050505050600190811b01905550565b828152604081016121a360208301846122c0565b600060608284031215612b5557600080fd5b612b5d611fd5565b825181526020830151612b6f8161253f565b60208201526040830151612b828161253f565b60408201529392505050565b808202811582820484141761073057610730612796565b600082612bc257634e487b7160e01b600052601260045260246000fd5b500490565b600060018201612bd957612bd9612796565b5060010190565b600080600060608486031215612bf557600080fd5b8351612c0081612099565b60208501516040860151919450925067ffffffffffffffff811115612c2457600080fd5b612c308682870161280f565b9150509250925092565b60008060008060808587031215612c5057600080fd5b8451612c5b81612099565b6020860151909450612c6c81612099565b60408601516060870151919450925067ffffffffffffffff811115612c9057600080fd5b612c9c8782880161280f565b91505092959194509250565b604081526000612cbb604083018561225f565b90506001600160a01b03831660208301529392505050565b600060208284031215612ce557600080fd5b81516121a38161253f565b600060208284031215612d0257600080fd5b815167ffffffffffffffff80821115612d1a57600080fd5b9083019060c08286031215612d2e57600080fd5b612d36612021565b8251815260208301516020820152604083015182811115612d5657600080fd5b612d62878286016127ca565b604083015250606083015182811115612d7a57600080fd5b612d868782860161280f565b606083015250612d98608084016127bf565b6080820152612da960a084016127bf565b60a082015295945050505050565b600060208284031215612dc957600080fd5b81516121a38161209956fea2646970667358221220b36953e6d07b002d28a9420534815ea8eabd5785704a31e3d4bf0d8ed404805864736f6c63430008130033",
    "linkReferences": {}
  },
  "methodIdentifiers": {
    "NATIVE()": "a0cf0aea",
    "acceptedRecipientId()": "5586ba33",
    "allocate(bytes,address)": "ef2920fc",
    "distribute(address[],bytes,address)": "0a6f0ee9",
    "getAllo()": "15cc481e",
    "getMilestone(uint256)": "2442e1cb",
    "getMilestoneStatus(uint256)": "de1acc5c",
    "getPayouts(address[],bytes[])": "b2b878d0",
    "getPoolAmount()": "4ab4ba42",
    "getPoolId()": "38fff2d0",
    "getRecipient(address)": "62812a39",
    "getRecipientStatus(address)": "eb11af93",
    "getStrategyId()": "42fda9c7",
    "increaseMaxBid(uint256)": "369dc5b5",
    "increasePoolAmount(uint256)": "f5b0dfb7",
    "initialize(uint256,bytes)": "edd146cc",
    "isPoolActive()": "df868ed3",
    "isValidAllocator(address)": "4d31d087",
    "maxBid()": "74b11d8a",
    "metadataRequired()": "cb0e85a6",
    "milestones(uint256)": "e89e4ed6",
    "registerRecipient(bytes,address)": "2bbe0cae",
    "rejectMilestone(uint256)": "caaed302",
    "setMilestones((uint256,(uint256,string),uint8)[])": "b9d7040b",
    "setPoolActive(bool)": "b5f620ce",
    "submitUpcomingMilestone((uint256,string))": "9243b605",
    "upcomingMilestone()": "43984ddb",
    "useRegistryAnchor()": "57089739",
    "withdraw(uint256)": "2e1a7d4d"
  },
  "storageLayout": {
    "storage": [
      {
        "astId": 3267,
        "contract": "contracts/strategies/rfp-simple/RFPSimpleStrategy.sol:RFPSimpleStrategy",
        "label": "poolActive",
        "offset": 0,
        "slot": "0",
        "type": "t_bool"
      },
      {
        "astId": 3269,
        "contract": "contracts/strategies/rfp-simple/RFPSimpleStrategy.sol:RFPSimpleStrategy",
        "label": "poolId",
        "offset": 0,
        "slot": "1",
        "type": "t_uint256"
      },
      {
        "astId": 3271,
        "contract": "contracts/strategies/rfp-simple/RFPSimpleStrategy.sol:RFPSimpleStrategy",
        "label": "poolAmount",
        "offset": 0,
        "slot": "2",
        "type": "t_uint256"
      },
      {
        "astId": 62206,
        "contract": "contracts/strategies/rfp-simple/RFPSimpleStrategy.sol:RFPSimpleStrategy",
        "label": "_status",
        "offset": 0,
        "slot": "3",
        "type": "t_uint256"
      },
      {
        "astId": 16117,
        "contract": "contracts/strategies/rfp-simple/RFPSimpleStrategy.sol:RFPSimpleStrategy",
        "label": "useRegistryAnchor",
        "offset": 0,
        "slot": "4",
        "type": "t_bool"
      },
      {
        "astId": 16120,
        "contract": "contracts/strategies/rfp-simple/RFPSimpleStrategy.sol:RFPSimpleStrategy",
        "label": "metadataRequired",
        "offset": 1,
        "slot": "4",
        "type": "t_bool"
      },
      {
        "astId": 16123,
        "contract": "contracts/strategies/rfp-simple/RFPSimpleStrategy.sol:RFPSimpleStrategy",
        "label": "acceptedRecipientId",
        "offset": 2,
        "slot": "4",
        "type": "t_address"
      },
      {
        "astId": 16127,
        "contract": "contracts/strategies/rfp-simple/RFPSimpleStrategy.sol:RFPSimpleStrategy",
        "label": "_registry",
        "offset": 0,
        "slot": "5",
        "type": "t_contract(IRegistry)2625"
      },
      {
        "astId": 16130,
        "contract": "contracts/strategies/rfp-simple/RFPSimpleStrategy.sol:RFPSimpleStrategy",
        "label": "maxBid",
        "offset": 0,
        "slot": "6",
        "type": "t_uint256"
      },
      {
        "astId": 16133,
        "contract": "contracts/strategies/rfp-simple/RFPSimpleStrategy.sol:RFPSimpleStrategy",
        "label": "upcomingMilestone",
        "offset": 0,
        "slot": "7",
        "type": "t_uint256"
      },
      {
        "astId": 16137,
        "contract": "contracts/strategies/rfp-simple/RFPSimpleStrategy.sol:RFPSimpleStrategy",
        "label": "_recipientIds",
        "offset": 0,
        "slot": "8",
        "type": "t_array(t_address)dyn_storage"
      },
      {
        "astId": 16142,
        "contract": "contracts/strategies/rfp-simple/RFPSimpleStrategy.sol:RFPSimpleStrategy",
        "label": "milestones",
        "offset": 0,
        "slot": "9",
        "type": "t_array(t_struct(Milestone)16062_storage)dyn_storage"
      },
      {
        "astId": 16148,
        "contract": "contracts/strategies/rfp-simple/RFPSimpleStrategy.sol:RFPSimpleStrategy",
        "label": "_recipients",
        "offset": 0,
        "slot": "10",
        "type": "t_mapping(t_address,t_struct(Recipient)16053_storage)"
      }
    ],
    "types": {
      "t_address": {
        "encoding": "inplace",
        "label": "address",
        "numberOfBytes": "20"
      },
      "t_array(t_address)dyn_storage": {
        "encoding": "dynamic_array",
        "label": "address[]",
        "numberOfBytes": "32",
        "base": "t_address"
      },
      "t_array(t_struct(Milestone)16062_storage)dyn_storage": {
        "encoding": "dynamic_array",
        "label": "struct RFPSimpleStrategy.Milestone[]",
        "numberOfBytes": "32",
        "base": "t_struct(Milestone)16062_storage"
      },
      "t_bool": {
        "encoding": "inplace",
        "label": "bool",
        "numberOfBytes": "1"
      },
      "t_contract(IRegistry)2625": {
        "encoding": "inplace",
        "label": "contract IRegistry",
        "numberOfBytes": "20"
      },
      "t_enum(Status)2638": {
        "encoding": "inplace",
        "label": "enum IStrategy.Status",
        "numberOfBytes": "1"
      },
      "t_mapping(t_address,t_struct(Recipient)16053_storage)": {
        "encoding": "mapping",
        "key": "t_address",
        "label": "mapping(address => struct RFPSimpleStrategy.Recipient)",
        "numberOfBytes": "32",
        "value": "t_struct(Recipient)16053_storage"
      },
      "t_string_storage": {
        "encoding": "bytes",
        "label": "string",
        "numberOfBytes": "32"
      },
      "t_struct(Metadata)2922_storage": {
        "encoding": "inplace",
        "label": "struct Metadata",
        "numberOfBytes": "64",
        "members": [
          {
            "astId": 2918,
            "contract": "contracts/strategies/rfp-simple/RFPSimpleStrategy.sol:RFPSimpleStrategy",
            "label": "protocol",
            "offset": 0,
            "slot": "0",
            "type": "t_uint256"
          },
          {
            "astId": 2921,
            "contract": "contracts/strategies/rfp-simple/RFPSimpleStrategy.sol:RFPSimpleStrategy",
            "label": "pointer",
            "offset": 0,
            "slot": "1",
            "type": "t_string_storage"
          }
        ]
      },
      "t_struct(Milestone)16062_storage": {
        "encoding": "inplace",
        "label": "struct RFPSimpleStrategy.Milestone",
        "numberOfBytes": "128",
        "members": [
          {
            "astId": 16055,
            "contract": "contracts/strategies/rfp-simple/RFPSimpleStrategy.sol:RFPSimpleStrategy",
            "label": "amountPercentage",
            "offset": 0,
            "slot": "0",
            "type": "t_uint256"
          },
          {
            "astId": 16058,
            "contract": "contracts/strategies/rfp-simple/RFPSimpleStrategy.sol:RFPSimpleStrategy",
            "label": "metadata",
            "offset": 0,
            "slot": "1",
            "type": "t_struct(Metadata)2922_storage"
          },
          {
            "astId": 16061,
            "contract": "contracts/strategies/rfp-simple/RFPSimpleStrategy.sol:RFPSimpleStrategy",
            "label": "milestoneStatus",
            "offset": 0,
            "slot": "3",
            "type": "t_enum(Status)2638"
          }
        ]
      },
      "t_struct(Recipient)16053_storage": {
        "encoding": "inplace",
        "label": "struct RFPSimpleStrategy.Recipient",
        "numberOfBytes": "96",
        "members": [
          {
            "astId": 16045,
            "contract": "contracts/strategies/rfp-simple/RFPSimpleStrategy.sol:RFPSimpleStrategy",
            "label": "useRegistryAnchor",
            "offset": 0,
            "slot": "0",
            "type": "t_bool"
          },
          {
            "astId": 16047,
            "contract": "contracts/strategies/rfp-simple/RFPSimpleStrategy.sol:RFPSimpleStrategy",
            "label": "recipientAddress",
            "offset": 1,
            "slot": "0",
            "type": "t_address"
          },
          {
            "astId": 16049,
            "contract": "contracts/strategies/rfp-simple/RFPSimpleStrategy.sol:RFPSimpleStrategy",
            "label": "proposalBid",
            "offset": 0,
            "slot": "1",
            "type": "t_uint256"
          },
          {
            "astId": 16052,
            "contract": "contracts/strategies/rfp-simple/RFPSimpleStrategy.sol:RFPSimpleStrategy",
            "label": "recipientStatus",
            "offset": 0,
            "slot": "2",
            "type": "t_enum(Status)2638"
          }
        ]
      },
      "t_uint256": {
        "encoding": "inplace",
        "label": "uint256",
        "numberOfBytes": "32"
      }
    }
  },
  "id": 33
}