{"abi":[{"type":"constructor","inputs":[{"name":"_signer","type":"address","internalType":"address"},{"name":"_ledger","type":"address","internalType":"address"},{"name":"_environmentTag","type":"string","internalType":"string"}],"stateMutability":"nonpayable"},{"type":"function","name":"CLAIM_TYPEHASH","inputs":[],"outputs":[{"name":"","type":"bytes32","internalType":"bytes32"}],"stateMutability":"view"},{"type":"function","name":"DOMAIN_SEPARATOR","inputs":[],"outputs":[{"name":"","type":"bytes32","internalType":"bytes32"}],"stateMutability":"view"},{"type":"function","name":"DOMAIN_TYPEHASH","inputs":[],"outputs":[{"name":"","type":"bytes32","internalType":"bytes32"}],"stateMutability":"view"},{"type":"function","name":"calculateBaseClaimableProjectTokens","inputs":[{"name":"_userKycAddress","type":"address","internalType":"address"},{"name":"_projectTokenAddress","type":"address","internalType":"address"},{"name":"_proxyWalletAddress","type":"address","internalType":"address"},{"name":"_investmentRoundId","type":"uint256","internalType":"uint256"}],"outputs":[{"name":"","type":"uint256","internalType":"uint256"}],"stateMutability":"view"},{"type":"function","name":"claim","inputs":[{"name":"_params","type":"tuple","internalType":"struct VVVVCTokenDistributor.ClaimParams","components":[{"name":"callerAddress","type":"address","internalType":"address"},{"name":"userKycAddress","type":"address","internalType":"address"},{"name":"projectTokenAddress","type":"address","internalType":"address"},{"name":"projectTokenProxyWallets","type":"address[]","internalType":"address[]"},{"name":"investmentRoundIds","type":"uint256[]","internalType":"uint256[]"},{"name":"tokenAmountToClaim","type":"uint256","internalType":"uint256"},{"name":"deadline","type":"uint256","internalType":"uint256"},{"name":"signature","type":"bytes","internalType":"bytes"}]}],"outputs":[],"stateMutability":"nonpayable"},{"type":"function","name":"isSignatureValid","inputs":[{"name":"_params","type":"tuple","internalType":"struct VVVVCTokenDistributor.ClaimParams","components":[{"name":"callerAddress","type":"address","internalType":"address"},{"name":"userKycAddress","type":"address","internalType":"address"},{"name":"projectTokenAddress","type":"address","internalType":"address"},{"name":"projectTokenProxyWallets","type":"address[]","internalType":"address[]"},{"name":"investmentRoundIds","type":"uint256[]","internalType":"uint256[]"},{"name":"tokenAmountToClaim","type":"uint256","internalType":"uint256"},{"name":"deadline","type":"uint256","internalType":"uint256"},{"name":"signature","type":"bytes","internalType":"bytes"}]}],"outputs":[{"name":"","type":"bool","internalType":"bool"}],"stateMutability":"view"},{"type":"function","name":"ledger","inputs":[],"outputs":[{"name":"","type":"address","internalType":"contract IVVVVCInvestmentLedger"}],"stateMutability":"view"},{"type":"function","name":"signer","inputs":[],"outputs":[{"name":"","type":"address","internalType":"address"}],"stateMutability":"view"},{"type":"function","name":"totalClaimedTokensForRound","inputs":[{"name":"","type":"uint256","internalType":"uint256"}],"outputs":[{"name":"","type":"uint256","internalType":"uint256"}],"stateMutability":"view"},{"type":"function","name":"userClaimedTokensForRound","inputs":[{"name":"","type":"address","internalType":"address"},{"name":"","type":"uint256","internalType":"uint256"}],"outputs":[{"name":"","type":"uint256","internalType":"uint256"}],"stateMutability":"view"},{"type":"event","name":"VCClaim","inputs":[{"name":"userKycAddress","type":"address","indexed":true,"internalType":"address"},{"name":"callerAddress","type":"address","indexed":true,"internalType":"address"},{"name":"projectTokenAddress","type":"address","indexed":true,"internalType":"address"},{"name":"projectTokenProxyWallets","type":"address[]","indexed":false,"internalType":"address[]"},{"name":"claimedTokenAmount","type":"uint256","indexed":false,"internalType":"uint256"}],"anonymous":false},{"type":"error","name":"AddressEmptyCode","inputs":[{"name":"target","type":"address","internalType":"address"}]},{"type":"error","name":"AddressInsufficientBalance","inputs":[{"name":"account","type":"address","internalType":"address"}]},{"type":"error","name":"ECDSAInvalidSignature","inputs":[]},{"type":"error","name":"ECDSAInvalidSignatureLength","inputs":[{"name":"length","type":"uint256","internalType":"uint256"}]},{"type":"error","name":"ECDSAInvalidSignatureS","inputs":[{"name":"s","type":"bytes32","internalType":"bytes32"}]},{"type":"error","name":"ExceedsAllocation","inputs":[]},{"type":"error","name":"FailedInnerCall","inputs":[]},{"type":"error","name":"InvalidSignature","inputs":[]},{"type":"error","name":"SafeERC20FailedOperation","inputs":[{"name":"token","type":"address","internalType":"address"}]}],"bytecode":{"object":"0x60a06040523480156200001157600080fd5b506040516200144538038062001445833981016040819052620000349162000149565b600180546001600160a01b038086166001600160a01b031992831617909255600080549285169290911691909117905560408051608081019091526043808252620014026020830139805190602001208160405160200162000097919062000229565b60408051601f1981840301815282825280516020918201209083019390935281019190915246606082015230608082015260a00160408051601f1981840301815291905280516020909101206080525062000256915050565b80516001600160a01b03811681146200010857600080fd5b919050565b634e487b7160e01b600052604160045260246000fd5b60005b838110156200014057818101518382015260200162000126565b50506000910152565b6000806000606084860312156200015f57600080fd5b6200016a84620000f0565b92506200017a60208501620000f0565b60408501519092506001600160401b03808211156200019857600080fd5b818601915086601f830112620001ad57600080fd5b815181811115620001c257620001c26200010d565b604051601f8201601f19908116603f01168101908382118183101715620001ed57620001ed6200010d565b816040528281528960208487010111156200020757600080fd5b6200021a83602083016020880162000123565b80955050505050509250925092565b622b2b2b60e91b8152600082516200024981600385016020870162000123565b9190910160030192915050565b608051611189620002796000396000818161012401526105fe01526111896000f3fe608060405234801561001057600080fd5b506004361061009e5760003560e01c80634c0d95d7116100665780634c0d95d71461014657806356397c351461015b5780636b0509b11461016e5780639de8bdce14610176578063dafd8819146101a157600080fd5b806320606b70146100a3578063238ac933146100be57806328e82722146100e95780632a9df52d146100fc5780633644e5151461011f575b600080fd5b6100ab6101c1565b6040519081526020015b60405180910390f35b6001546100d1906001600160a01b031681565b6040516001600160a01b0390911681526020016100b5565b6100ab6100f7366004610b18565b6101e4565b61010f61010a366004610d3d565b6101fd565b60405190151581526020016100b5565b6100ab7f000000000000000000000000000000000000000000000000000000000000000081565b610159610154366004610d3d565b61020e565b005b6000546100d1906001600160a01b031681565b6100ab610430565b6100ab610184366004610e3a565b600260209081526000928352604080842090915290825290205481565b6100ab6101af366004610e64565b60036020526000908152604090205481565b60405180608001604052806043815260200161107e604391398051906020012081565b60006101f285858585610453565b90505b949350505050565b6000610208826105f9565b92915050565b33815261021a816105f9565b61023757604051638baa579f60e01b815260040160405180910390fd5b604081015160a082015160005b8360800151518110156103a05760008460600151828151811061026957610269610e7d565b6020026020010151905060008560800151838151811061028b5761028b610e7d565b6020026020010151905060006102ab876020015188604001518585610453565b6020808901516001600160a01b0316600090815260028252604080822086835290925290812054919250906102e09083610ea9565b905060008682116102f157816102f3565b865b6020808b01516001600160a01b031660009081526002825260408082208883529092529081208054929350839290919061032e908490610ebc565b909155505060008481526003602052604081208054839290610351908490610ebc565b9091555061036190508188610ea9565b895190975061037d906001600160a01b038a1690879084610704565b8660000361038f5750505050506103a0565b505060019093019250610244915050565b5080156103c057604051632150464360e21b815260040160405180910390fd5b82604001516001600160a01b031683600001516001600160a01b031684602001516001600160a01b03167fe6b377a422100b9cf728046534e736bb0782094ab52d80173a1d78377be32e6686606001518760a00151604051610423929190610f14565b60405180910390a4505050565b6040518060c00160405280609381526020016110c1609391398051906020012081565b6000805460405163d7f31dfb60e01b81526001600160a01b038781166004830152602482018590528392169063d7f31dfb90604401602060405180830381865afa1580156104a5573d6000803e3d6000fd5b505050506040513d601f19601f820116820180604052508101906104c99190610f36565b9050806000036104dd5760009150506101f5565b60008054604051635c74707160e11b8152600481018690526001600160a01b039091169063b8e8e0e290602401602060405180830381865afa158015610527573d6000803e3d6000fd5b505050506040513d601f19601f8201168201806040525081019061054b9190610f36565b6000858152600360205260408082205490516370a0823160e01b81526001600160a01b03898116600483015293945091929091908916906370a0823190602401602060405180830381865afa1580156105a8573d6000803e3d6000fd5b505050506040513d601f19601f820116820180604052508101906105cc9190610f36565b6105d69190610ebc565b9050816105e38285610f4f565b6105ed9190610f66565b98975050505050505050565b6000807f00000000000000000000000000000000000000000000000000000000000000006040518060c00160405280609381526020016110c160939139805160209182012085518683015160408089015160608a015160808b015160c08c0151935161066e9893949293919291469101610f88565b604051602081830303815290604052805190602001206040516020016106ab92919061190160f01b81526002810192909252602282015260420190565b60405160208183030381529060405280519060200120905060006106d3828560e00151610764565b60015460c08601519192506001600160a01b038084169116149042118180156106fa575080155b9695505050505050565b604080516001600160a01b0385811660248301528416604482015260648082018490528251808303909101815260849091019091526020810180516001600160e01b03166323b872dd60e01b17905261075e90859061078e565b50505050565b60008060008061077486866107fb565b9250925092506107848282610848565b5090949350505050565b60006107a36001600160a01b03841683610905565b905080516000141580156107c85750808060200190518101906107c69190611016565b155b156107f657604051635274afe760e01b81526001600160a01b03841660048201526024015b60405180910390fd5b505050565b600080600083516041036108355760208401516040850151606086015160001a6108278882858561091a565b955095509550505050610841565b50508151600091506002905b9250925092565b600082600381111561085c5761085c611038565b03610865575050565b600182600381111561087957610879611038565b036108975760405163f645eedf60e01b815260040160405180910390fd5b60028260038111156108ab576108ab611038565b036108cc5760405163fce698f760e01b8152600481018290526024016107ed565b60038260038111156108e0576108e0611038565b03610901576040516335e2f38360e21b8152600481018290526024016107ed565b5050565b6060610913838360006109e9565b9392505050565b600080807f7fffffffffffffffffffffffffffffff5d576e7357a4501ddfe92f46681b20a084111561095557506000915060039050826109df565b604080516000808252602082018084528a905260ff891692820192909252606081018790526080810186905260019060a0016020604051602081039080840390855afa1580156109a9573d6000803e3d6000fd5b5050604051601f1901519150506001600160a01b0381166109d5575060009250600191508290506109df565b9250600091508190505b9450945094915050565b606081471015610a0e5760405163cd78605960e01b81523060048201526024016107ed565b600080856001600160a01b03168486604051610a2a919061104e565b60006040518083038185875af1925050503d8060008114610a67576040519150601f19603f3d011682016040523d82523d6000602084013e610a6c565b606091505b50915091506106fa868383606082610a8c57610a8782610ad3565b610913565b8151158015610aa357506001600160a01b0384163b155b15610acc57604051639996b31560e01b81526001600160a01b03851660048201526024016107ed565b5080610913565b805115610ae35780518082602001fd5b604051630a12f52160e11b815260040160405180910390fd5b80356001600160a01b0381168114610b1357600080fd5b919050565b60008060008060808587031215610b2e57600080fd5b610b3785610afc565b9350610b4560208601610afc565b9250610b5360408601610afc565b9396929550929360600135925050565b634e487b7160e01b600052604160045260246000fd5b604051610100810167ffffffffffffffff81118282101715610b9d57610b9d610b63565b60405290565b604051601f8201601f1916810167ffffffffffffffff81118282101715610bcc57610bcc610b63565b604052919050565b600067ffffffffffffffff821115610bee57610bee610b63565b5060051b60200190565b600082601f830112610c0957600080fd5b81356020610c1e610c1983610bd4565b610ba3565b8083825260208201915060208460051b870101935086841115610c4057600080fd5b602086015b84811015610c6357610c5681610afc565b8352918301918301610c45565b509695505050505050565b600082601f830112610c7f57600080fd5b81356020610c8f610c1983610bd4565b8083825260208201915060208460051b870101935086841115610cb157600080fd5b602086015b84811015610c635780358352918301918301610cb6565b600082601f830112610cde57600080fd5b813567ffffffffffffffff811115610cf857610cf8610b63565b610d0b601f8201601f1916602001610ba3565b818152846020838601011115610d2057600080fd5b816020850160208301376000918101602001919091529392505050565b600060208284031215610d4f57600080fd5b813567ffffffffffffffff80821115610d6757600080fd5b908301906101008286031215610d7c57600080fd5b610d84610b79565b610d8d83610afc565b8152610d9b60208401610afc565b6020820152610dac60408401610afc565b6040820152606083013582811115610dc357600080fd5b610dcf87828601610bf8565b606083015250608083013582811115610de757600080fd5b610df387828601610c6e565b60808301525060a083013560a082015260c083013560c082015260e083013582811115610e1f57600080fd5b610e2b87828601610ccd565b60e08301525095945050505050565b60008060408385031215610e4d57600080fd5b610e5683610afc565b946020939093013593505050565b600060208284031215610e7657600080fd5b5035919050565b634e487b7160e01b600052603260045260246000fd5b634e487b7160e01b600052601160045260246000fd5b8181038181111561020857610208610e93565b8082018082111561020857610208610e93565b60008151808452602080850194506020840160005b83811015610f095781516001600160a01b031687529582019590820190600101610ee4565b509495945050505050565b604081526000610f276040830185610ecf565b90508260208301529392505050565b600060208284031215610f4857600080fd5b5051919050565b808202811582820484141761020857610208610e93565b600082610f8357634e487b7160e01b600052601260045260246000fd5b500490565b60006101008a8352602060018060a01b03808c166020860152808b166040860152808a16606086015250816080850152610fc482850189610ecf565b84810360a086015287518082526020808a0194509091019060005b81811015610ffb57845183529383019391830191600101610fdf565b505060c085019690965250505060e001529695505050505050565b60006020828403121561102857600080fd5b8151801515811461091357600080fd5b634e487b7160e01b600052602160045260246000fd5b6000825160005b8181101561106f5760208186018101518583015201611055565b50600092019182525091905056fe454950373132446f6d61696e28737472696e67206e616d652c75696e7432353620636861696e49642c6164647265737320766572696679696e67436f6e7472616374295643436c61696d286164647265737320757365724b7963416464726573732c20616464726573732063616c6c6572416464726573732c20616464726573732070726f6a656374546f6b656e416464726573732c20616464726573735b5d2070726f6a656374546f6b656e50726f787957616c6c6574732c2075696e7432353620636c61696d6564546f6b656e416d6f756e7429a2646970667358221220d520f25cf2760ac7cfa13acd740fdf602f107bd85bbfcd2567f8d4724c54d9b564736f6c63430008170033454950373132446f6d61696e28737472696e67206e616d652c75696e7432353620636861696e49642c6164647265737320766572696679696e67436f6e747261637429","linkReferences":{}},"methodIdentifiers":{"CLAIM_TYPEHASH()":"6b0509b1","DOMAIN_SEPARATOR()":"3644e515","DOMAIN_TYPEHASH()":"20606b70","calculateBaseClaimableProjectTokens(address,address,address,uint256)":"28e82722","claim((address,address,address,address[],uint256[],uint256,uint256,bytes))":"4c0d95d7","isSignatureValid((address,address,address,address[],uint256[],uint256,uint256,bytes))":"2a9df52d","ledger()":"56397c35","signer()":"238ac933","totalClaimedTokensForRound(uint256)":"dafd8819","userClaimedTokensForRound(address,uint256)":"9de8bdce"},"id":9}