{
  "abi": [
    {
      "inputs": [
        {
          "internalType": "bytes32",
          "name": "_profileId",
          "type": "bytes32"
        }
      ],
      "stateMutability": "nonpayable",
      "type": "constructor"
    },
    {
      "inputs": [],
      "name": "CALL_FAILED",
      "type": "error"
    },
    {
      "inputs": [],
      "name": "UNAUTHORIZED",
      "type": "error"
    },
    {
      "inputs": [
        {
          "internalType": "address",
          "name": "_target",
          "type": "address"
        },
        {
          "internalType": "uint256",
          "name": "_value",
          "type": "uint256"
        },
        {
          "internalType": "bytes",
          "name": "_data",
          "type": "bytes"
        }
      ],
      "name": "execute",
      "outputs": [
        {
          "internalType": "bytes",
          "name": "",
          "type": "bytes"
        }
      ],
      "stateMutability": "nonpayable",
      "type": "function"
    },
    {
      "inputs": [],
      "name": "profileId",
      "outputs": [
        {
          "internalType": "bytes32",
          "name": "",
          "type": "bytes32"
        }
      ],
      "stateMutability": "view",
      "type": "function"
    },
    {
      "inputs": [],
      "name": "registry",
      "outputs": [
        {
          "internalType": "contract Registry",
          "name": "",
          "type": "address"
        }
      ],
      "stateMutability": "view",
      "type": "function"
    },
    {
      "stateMutability": "payable",
      "type": "receive"
    }
  ],
  "bytecode": {
    "object": "0x60c060405234801561001057600080fd5b5060405161051438038061051483398101604081905261002f9161003b565b3360805260a052610054565b60006020828403121561004d57600080fd5b5051919050565b60805160a05161048f610085600039600081816056015261012c015260008181609d015261015b015261048f6000f3fe6080604052600436106100385760003560e01c806308386eba146100445780637b1039991461008b578063b61d27f6146100d757600080fd5b3661003f57005b600080fd5b34801561005057600080fd5b506100787f000000000000000000000000000000000000000000000000000000000000000081565b6040519081526020015b60405180910390f35b34801561009757600080fd5b506100bf7f000000000000000000000000000000000000000000000000000000000000000081565b6040516001600160a01b039091168152602001610082565b3480156100e357600080fd5b506100f76100f23660046102e4565b610104565b60405161008291906103e1565b6040517f39b86b8c0000000000000000000000000000000000000000000000000000000081527f000000000000000000000000000000000000000000000000000000000000000060048201523360248201526060907f00000000000000000000000000000000000000000000000000000000000000006001600160a01b0316906339b86b8c90604401602060405180830381865afa1580156101aa573d6000803e3d6000fd5b505050506040513d601f19601f820116820180604052508101906101ce9190610414565b610204576040517f075fd2b100000000000000000000000000000000000000000000000000000000815260040160405180910390fd5b6001600160a01b03841661022b576040516384aed38d60e01b815260040160405180910390fd5b600080856001600160a01b03168585604051610247919061043d565b60006040518083038185875af1925050503d8060008114610284576040519150601f19603f3d011682016040523d82523d6000602084013e610289565b606091505b5091509150816102ac576040516384aed38d60e01b815260040160405180910390fd5b95945050505050565b7f4e487b7100000000000000000000000000000000000000000000000000000000600052604160045260246000fd5b6000806000606084860312156102f957600080fd5b83356001600160a01b038116811461031057600080fd5b925060208401359150604084013567ffffffffffffffff8082111561033457600080fd5b818601915086601f83011261034857600080fd5b81358181111561035a5761035a6102b5565b604051601f8201601f19908116603f01168101908382118183101715610382576103826102b5565b8160405282815289602084870101111561039b57600080fd5b8260208601602083013760006020848301015280955050505050509250925092565b60005b838110156103d85781810151838201526020016103c0565b50506000910152565b60208152600082518060208401526104008160408501602087016103bd565b601f01601f19169190910160400192915050565b60006020828403121561042657600080fd5b8151801515811461043657600080fd5b9392505050565b6000825161044f8184602087016103bd565b919091019291505056fea26469706673582212204e88ccaa5a1dc7e348c53f2f63a29a3122f5b37cdf9bd7c2e3b5f1c88b094e2464736f6c63430008130033",
    "linkReferences": {}
  },
  "methodIdentifiers": {
    "execute(address,uint256,bytes)": "b61d27f6",
    "profileId()": "08386eba",
    "registry()": "7b103999"
  },
  "storageLayout": {
    "storage": [],
    "types": {}
  },
  "id": 1
}