{"abi":[{"type":"constructor","inputs":[{"name":"_brinkVault","type":"address","internalType":"address"},{"name":"_asset","type":"address","internalType":"address"},{"name":"_reserve","type":"address","internalType":"address"},{"name":"_marketId","type":"bytes32","internalType":"bytes32"}],"stateMutability":"nonpayable"},{"type":"function","name":"asset","inputs":[],"outputs":[{"name":"","type":"address","internalType":"address"}],"stateMutability":"view"},{"type":"function","name":"balance","inputs":[],"outputs":[{"name":"_supplyAssets","type":"uint256","internalType":"uint256"}],"stateMutability":"view"},{"type":"function","name":"brinkVault","inputs":[],"outputs":[{"name":"","type":"address","internalType":"address"}],"stateMutability":"view"},{"type":"function","name":"harvest","inputs":[],"outputs":[],"stateMutability":"nonpayable"},{"type":"function","name":"marketId","inputs":[],"outputs":[{"name":"","type":"bytes32","internalType":"bytes32"}],"stateMutability":"view"},{"type":"function","name":"reserve","inputs":[],"outputs":[{"name":"","type":"address","internalType":"address"}],"stateMutability":"view"},{"type":"function","name":"supply","inputs":[{"name":"_assetAmount","type":"uint256","internalType":"uint256"}],"outputs":[],"stateMutability":"nonpayable"},{"type":"function","name":"withdraw","inputs":[{"name":"_assetAmount","type":"uint256","internalType":"uint256"}],"outputs":[],"stateMutability":"nonpayable"},{"type":"error","name":"MARKET_PARAMS_NOT_SET","inputs":[]},{"type":"error","name":"NOT_AUTHORIZED","inputs":[]},{"type":"error","name":"SafeERC20FailedOperation","inputs":[{"name":"token","type":"address","internalType":"address"}]},{"type":"error","name":"ZERO_ADDRESS","inputs":[]}],"bytecode":{"object":"0x608060405234801561000f575f5ffd5b5060405161200e38038061200e83398181016040528101906100319190610566565b8383835f73ffffffffffffffffffffffffffffffffffffffff168373ffffffffffffffffffffffffffffffffffffffff16148061009957505f73ffffffffffffffffffffffffffffffffffffffff168273ffffffffffffffffffffffffffffffffffffffff16145b806100cf57505f73ffffffffffffffffffffffffffffffffffffffff168173ffffffffffffffffffffffffffffffffffffffff16145b15610106576040517f538ba4f900000000000000000000000000000000000000000000000000000000815260040160405180910390fd5b825f5f6101000a81548173ffffffffffffffffffffffffffffffffffffffff021916908373ffffffffffffffffffffffffffffffffffffffff1602179055508160015f6101000a81548173ffffffffffffffffffffffffffffffffffffffff021916908373ffffffffffffffffffffffffffffffffffffffff1602179055508060025f6101000a81548173ffffffffffffffffffffffffffffffffffffffff021916908373ffffffffffffffffffffffffffffffffffffffff1602179055505050508060038190555061021a847fffffffffffffffffffffffffffffffffffffffffffffffffffffffffffffffff8573ffffffffffffffffffffffffffffffffffffffff1661022360201b9092919060201c565b50505050610776565b5f8373ffffffffffffffffffffffffffffffffffffffff1663dd62ed3e30856040518363ffffffff1660e01b815260040161025f9291906105d9565b602060405180830381865afa15801561027a573d5f5f3e3d5ffd5b505050506040513d601f19601f8201168201806040525081019061029e9190610633565b90506102bc848484846102b1919061068b565b6102c260201b60201c565b50505050565b5f8373ffffffffffffffffffffffffffffffffffffffff1663095ea7b384846040516024016102f29291906106cd565b604051602081830303815290604052915060e01b6020820180517bffffffffffffffffffffffffffffffffffffffffffffffffffffffff8381831617835250505050905061034684826103e160201b60201c565b6103db576103ca848573ffffffffffffffffffffffffffffffffffffffff1663095ea7b3865f60405160240161037d929190610736565b604051602081830303815290604052915060e01b6020820180517bffffffffffffffffffffffffffffffffffffffffffffffffffffffff838183161783525050505061043a60201b60201c565b6103da848261043a60201b60201c565b5b50505050565b5f5f5f5f60205f8651602088015f8a5af192503d91505f51905082801561042f57505f8214610413576001811461042e565b5f8673ffffffffffffffffffffffffffffffffffffffff163b115b5b935050505092915050565b5f5f60205f8451602086015f885af180610459576040513d5f823e3d81fd5b3d92505f519150505f821461047257600181141561048d565b5f8473ffffffffffffffffffffffffffffffffffffffff163b145b156104cf57836040517f5274afe70000000000000000000000000000000000000000000000000000000081526004016104c6919061075d565b60405180910390fd5b50505050565b5f5ffd5b5f73ffffffffffffffffffffffffffffffffffffffff82169050919050565b5f610502826104d9565b9050919050565b610512816104f8565b811461051c575f5ffd5b50565b5f8151905061052d81610509565b92915050565b5f819050919050565b61054581610533565b811461054f575f5ffd5b50565b5f815190506105608161053c565b92915050565b5f5f5f5f6080858703121561057e5761057d6104d5565b5b5f61058b8782880161051f565b945050602061059c8782880161051f565b93505060406105ad8782880161051f565b92505060606105be87828801610552565b91505092959194509250565b6105d3816104f8565b82525050565b5f6040820190506105ec5f8301856105ca565b6105f960208301846105ca565b9392505050565b5f819050919050565b61061281610600565b811461061c575f5ffd5b50565b5f8151905061062d81610609565b92915050565b5f60208284031215610648576106476104d5565b5b5f6106558482850161061f565b91505092915050565b7f4e487b71000000000000000000000000000000000000000000000000000000005f52601160045260245ffd5b5f61069582610600565b91506106a083610600565b92508282019050808211156106b8576106b761065e565b5b92915050565b6106c781610600565b82525050565b5f6040820190506106e05f8301856105ca565b6106ed60208301846106be565b9392505050565b5f819050919050565b5f819050919050565b5f61072061071b610716846106f4565b6106fd565b610600565b9050919050565b61073081610706565b82525050565b5f6040820190506107495f8301856105ca565b6107566020830184610727565b9392505050565b5f6020820190506107705f8301846105ca565b92915050565b61188b806107835f395ff3fe608060405234801561000f575f5ffd5b5060043610610086575f3560e01c80636ed71ede116100595780636ed71ede146100ea578063b69ef8a814610108578063cd3293de14610126578063e9d3c1541461014457610086565b80632e1a7d4d1461008a57806335403023146100a657806338d52e0f146100c25780634641257d146100e0575b5f5ffd5b6100a4600480360381019061009f9190611014565b610162565b005b6100c060048036038101906100bb9190611014565b61058a565b005b6100ca610923565b6040516100d7919061107e565b60405180910390f35b6100e8610948565b005b6100f261094a565b6040516100ff91906110af565b60405180910390f35b610110610950565b60405161011d91906110d7565b60405180910390f35b61012e610ad9565b60405161013b919061107e565b60405180910390f35b61014c610afe565b604051610159919061107e565b60405180910390f35b5f5f9054906101000a900473ffffffffffffffffffffffffffffffffffffffff1673ffffffffffffffffffffffffffffffffffffffff163373ffffffffffffffffffffffffffffffffffffffff16146101e7576040517f3d83866f00000000000000000000000000000000000000000000000000000000815260040160405180910390fd5b5f6101f0610b22565b90505f73ffffffffffffffffffffffffffffffffffffffff16815f015173ffffffffffffffffffffffffffffffffffffffff160361025a576040517f74237be900000000000000000000000000000000000000000000000000000000815260040160405180910390fd5b5f60025f9054906101000a900473ffffffffffffffffffffffffffffffffffffffff1673ffffffffffffffffffffffffffffffffffffffff16635c60e39a6003546040518263ffffffff1660e01b81526004016102b791906110af565b60c060405180830381865afa1580156102d2573d5f5f3e3d5ffd5b505050506040513d601f19601f820116820180604052508101906102f6919061125e565b90505f60025f9054906101000a900473ffffffffffffffffffffffffffffffffffffffff1673ffffffffffffffffffffffffffffffffffffffff166393c52062600354306040518363ffffffff1660e01b8152600401610357929190611289565b606060405180830381865afa158015610372573d5f5f3e3d5ffd5b505050506040513d601f19601f820116820180604052508101906103969190611325565b90505f6103dc835f01516fffffffffffffffffffffffffffffffff1684602001516fffffffffffffffffffffffffffffffff16845f0151610bca9092919063ffffffff16565b90505f6104c68460400151855f01516103f5919061137d565b6fffffffffffffffffffffffffffffffff1660015f9054906101000a900473ffffffffffffffffffffffffffffffffffffffff1673ffffffffffffffffffffffffffffffffffffffff166370a0823160025f9054906101000a900473ffffffffffffffffffffffffffffffffffffffff166040518263ffffffff1660e01b8152600401610482919061107e565b602060405180830381865afa15801561049d573d5f5f3e3d5ffd5b505050506040513d601f19601f820116820180604052508101906104c191906113c0565b610c03565b90505f6104dc6104d68484610c03565b88610c03565b905060025f9054906101000a900473ffffffffffffffffffffffffffffffffffffffff1673ffffffffffffffffffffffffffffffffffffffff16635c2bea4987835f30336040518663ffffffff1660e01b81526004016105409594939291906114b1565b60408051808303815f875af115801561055b573d5f5f3e3d5ffd5b505050506040513d601f19601f8201168201806040525081019061057f9190611504565b505050505050505050565b5f5f9054906101000a900473ffffffffffffffffffffffffffffffffffffffff1673ffffffffffffffffffffffffffffffffffffffff163373ffffffffffffffffffffffffffffffffffffffff161461060f576040517f3d83866f00000000000000000000000000000000000000000000000000000000815260040160405180910390fd5b5f610618610b22565b90505f73ffffffffffffffffffffffffffffffffffffffff16815f015173ffffffffffffffffffffffffffffffffffffffff1603610682576040517f74237be900000000000000000000000000000000000000000000000000000000815260040160405180910390fd5b6106d033308460015f9054906101000a900473ffffffffffffffffffffffffffffffffffffffff1673ffffffffffffffffffffffffffffffffffffffff16610c15909392919063ffffffff16565b61073d60025f9054906101000a900473ffffffffffffffffffffffffffffffffffffffff168360015f9054906101000a900473ffffffffffffffffffffffffffffffffffffffff1673ffffffffffffffffffffffffffffffffffffffff16610c979092919063ffffffff16565b60025f9054906101000a900473ffffffffffffffffffffffffffffffffffffffff1673ffffffffffffffffffffffffffffffffffffffff1663a99aad8982845f3060405180602001604052805f8152506040518663ffffffff1660e01b81526004016107ad9594939291906115a2565b60408051808303815f875af11580156107c8573d5f5f3e3d5ffd5b505050506040513d601f19601f820116820180604052508101906107ec9190611504565b50505f60015f9054906101000a900473ffffffffffffffffffffffffffffffffffffffff1673ffffffffffffffffffffffffffffffffffffffff1663dd62ed3e3060025f9054906101000a900473ffffffffffffffffffffffffffffffffffffffff166040518363ffffffff1660e01b815260040161086c9291906115fc565b602060405180830381865afa158015610887573d5f5f3e3d5ffd5b505050506040513d601f19601f820116820180604052508101906108ab91906113c0565b111561091f5761091e60025f9054906101000a900473ffffffffffffffffffffffffffffffffffffffff165f60015f9054906101000a900473ffffffffffffffffffffffffffffffffffffffff1673ffffffffffffffffffffffffffffffffffffffff16610d309092919063ffffffff16565b5b5050565b60015f9054906101000a900473ffffffffffffffffffffffffffffffffffffffff1681565b565b60035481565b5f5f60025f9054906101000a900473ffffffffffffffffffffffffffffffffffffffff1673ffffffffffffffffffffffffffffffffffffffff16635c60e39a6003546040518263ffffffff1660e01b81526004016109ae91906110af565b60c060405180830381865afa1580156109c9573d5f5f3e3d5ffd5b505050506040513d601f19601f820116820180604052508101906109ed919061125e565b90505f60025f9054906101000a900473ffffffffffffffffffffffffffffffffffffffff1673ffffffffffffffffffffffffffffffffffffffff166393c52062600354306040518363ffffffff1660e01b8152600401610a4e929190611289565b606060405180830381865afa158015610a69573d5f5f3e3d5ffd5b505050506040513d601f19601f82011682018060405250810190610a8d9190611325565b9050610ad2825f01516fffffffffffffffffffffffffffffffff1683602001516fffffffffffffffffffffffffffffffff16835f0151610bca9092919063ffffffff16565b9250505090565b60025f9054906101000a900473ffffffffffffffffffffffffffffffffffffffff1681565b5f5f9054906101000a900473ffffffffffffffffffffffffffffffffffffffff1681565b610b2a610f52565b60025f9054906101000a900473ffffffffffffffffffffffffffffffffffffffff1673ffffffffffffffffffffffffffffffffffffffff16632c3c91576003546040518263ffffffff1660e01b8152600401610b8691906110af565b60a060405180830381865afa158015610ba1573d5f5f3e3d5ffd5b505050506040513d601f19601f82011682018060405250810190610bc591906116d6565b905090565b5f610bfa600184610bdb9190611701565b620f424084610bea9190611701565b86610e3d9092919063ffffffff16565b90509392505050565b5f828210828418028318905092915050565b610c91848573ffffffffffffffffffffffffffffffffffffffff166323b872dd868686604051602401610c4a93929190611734565b604051602081830303815290604052915060e01b6020820180517bffffffffffffffffffffffffffffffffffffffffffffffffffffffff8381831617835250505050610e5e565b50505050565b5f8373ffffffffffffffffffffffffffffffffffffffff1663dd62ed3e30856040518363ffffffff1660e01b8152600401610cd39291906115fc565b602060405180830381865afa158015610cee573d5f5f3e3d5ffd5b505050506040513d601f19601f82011682018060405250810190610d1291906113c0565b9050610d2a84848484610d259190611701565b610d30565b50505050565b5f8373ffffffffffffffffffffffffffffffffffffffff1663095ea7b38484604051602401610d60929190611769565b604051602081830303815290604052915060e01b6020820180517bffffffffffffffffffffffffffffffffffffffffffffffffffffffff83818316178352505050509050610dae8482610ef9565b610e3757610e2c848573ffffffffffffffffffffffffffffffffffffffff1663095ea7b3865f604051602401610de5929190611790565b604051602081830303815290604052915060e01b6020820180517bffffffffffffffffffffffffffffffffffffffffffffffffffffffff8381831617835250505050610e5e565b610e368482610e5e565b5b50505050565b5f818385610e4b91906117b7565b610e559190611825565b90509392505050565b5f5f60205f8451602086015f885af180610e7d576040513d5f823e3d81fd5b3d92505f519150505f8214610e96576001811415610eb1565b5f8473ffffffffffffffffffffffffffffffffffffffff163b145b15610ef357836040517f5274afe7000000000000000000000000000000000000000000000000000000008152600401610eea919061107e565b60405180910390fd5b50505050565b5f5f5f5f60205f8651602088015f8a5af192503d91505f519050828015610f4757505f8214610f2b5760018114610f46565b5f8673ffffffffffffffffffffffffffffffffffffffff163b115b5b935050505092915050565b6040518060a001604052805f73ffffffffffffffffffffffffffffffffffffffff1681526020015f73ffffffffffffffffffffffffffffffffffffffff1681526020015f73ffffffffffffffffffffffffffffffffffffffff1681526020015f73ffffffffffffffffffffffffffffffffffffffff1681526020015f81525090565b5f604051905090565b5f5ffd5b5f819050919050565b610ff381610fe1565b8114610ffd575f5ffd5b50565b5f8135905061100e81610fea565b92915050565b5f6020828403121561102957611028610fdd565b5b5f61103684828501611000565b91505092915050565b5f73ffffffffffffffffffffffffffffffffffffffff82169050919050565b5f6110688261103f565b9050919050565b6110788161105e565b82525050565b5f6020820190506110915f83018461106f565b92915050565b5f819050919050565b6110a981611097565b82525050565b5f6020820190506110c25f8301846110a0565b92915050565b6110d181610fe1565b82525050565b5f6020820190506110ea5f8301846110c8565b92915050565b5f5ffd5b5f601f19601f8301169050919050565b7f4e487b71000000000000000000000000000000000000000000000000000000005f52604160045260245ffd5b61113a826110f4565b810181811067ffffffffffffffff8211171561115957611158611104565b5b80604052505050565b5f61116b610fd4565b90506111778282611131565b919050565b5f6fffffffffffffffffffffffffffffffff82169050919050565b6111a08161117c565b81146111aa575f5ffd5b50565b5f815190506111bb81611197565b92915050565b5f60c082840312156111d6576111d56110f0565b5b6111e060c0611162565b90505f6111ef848285016111ad565b5f830152506020611202848285016111ad565b6020830152506040611216848285016111ad565b604083015250606061122a848285016111ad565b606083015250608061123e848285016111ad565b60808301525060a0611252848285016111ad565b60a08301525092915050565b5f60c0828403121561127357611272610fdd565b5b5f611280848285016111c1565b91505092915050565b5f60408201905061129c5f8301856110a0565b6112a9602083018461106f565b9392505050565b5f815190506112be81610fea565b92915050565b5f606082840312156112d9576112d86110f0565b5b6112e36060611162565b90505f6112f2848285016112b0565b5f830152506020611305848285016111ad565b6020830152506040611319848285016111ad565b60408301525092915050565b5f6060828403121561133a57611339610fdd565b5b5f611347848285016112c4565b91505092915050565b7f4e487b71000000000000000000000000000000000000000000000000000000005f52601160045260245ffd5b5f6113878261117c565b91506113928361117c565b925082820390506fffffffffffffffffffffffffffffffff8111156113ba576113b9611350565b5b92915050565b5f602082840312156113d5576113d4610fdd565b5b5f6113e2848285016112b0565b91505092915050565b6113f48161105e565b82525050565b61140381610fe1565b82525050565b60a082015f82015161141d5f8501826113eb565b50602082015161143060208501826113eb565b50604082015161144360408501826113eb565b50606082015161145660608501826113eb565b50608082015161146960808501826113fa565b50505050565b5f819050919050565b5f819050919050565b5f61149b6114966114918461146f565b611478565b610fe1565b9050919050565b6114ab81611481565b82525050565b5f610120820190506114c55f830188611409565b6114d260a08301876110c8565b6114df60c08301866114a2565b6114ec60e083018561106f565b6114fa61010083018461106f565b9695505050505050565b5f5f6040838503121561151a57611519610fdd565b5b5f611527858286016112b0565b9250506020611538858286016112b0565b9150509250929050565b5f81519050919050565b5f82825260208201905092915050565b8281835e5f83830152505050565b5f61157482611542565b61157e818561154c565b935061158e81856020860161155c565b611597816110f4565b840191505092915050565b5f610120820190506115b65f830188611409565b6115c360a08301876110c8565b6115d060c08301866114a2565b6115dd60e083018561106f565b8181036101008301526115f0818461156a565b90509695505050505050565b5f60408201905061160f5f83018561106f565b61161c602083018461106f565b9392505050565b61162c8161105e565b8114611636575f5ffd5b50565b5f8151905061164781611623565b92915050565b5f60a08284031215611662576116616110f0565b5b61166c60a0611162565b90505f61167b84828501611639565b5f83015250602061168e84828501611639565b60208301525060406116a284828501611639565b60408301525060606116b684828501611639565b60608301525060806116ca848285016112b0565b60808301525092915050565b5f60a082840312156116eb576116ea610fdd565b5b5f6116f88482850161164d565b91505092915050565b5f61170b82610fe1565b915061171683610fe1565b925082820190508082111561172e5761172d611350565b5b92915050565b5f6060820190506117475f83018661106f565b611754602083018561106f565b61176160408301846110c8565b949350505050565b5f60408201905061177c5f83018561106f565b61178960208301846110c8565b9392505050565b5f6040820190506117a35f83018561106f565b6117b060208301846114a2565b9392505050565b5f6117c182610fe1565b91506117cc83610fe1565b92508282026117da81610fe1565b915082820484148315176117f1576117f0611350565b5b5092915050565b7f4e487b71000000000000000000000000000000000000000000000000000000005f52601260045260245ffd5b5f61182f82610fe1565b915061183a83610fe1565b92508261184a576118496117f8565b5b82820490509291505056fea264697066735822122002411c9aa05fc093644f7abda3db20ac9b853d52911af8e4c52e2b4a0d5a102464736f6c634300081c0033","linkReferences":{}},"methodIdentifiers":{"asset()":"38d52e0f","balance()":"b69ef8a8","brinkVault()":"e9d3c154","harvest()":"4641257d","marketId()":"6ed71ede","reserve()":"cd3293de","supply(uint256)":"35403023","withdraw(uint256)":"2e1a7d4d"},"id":14}