{
  "abi": [
    {
      "inputs": [],
      "stateMutability": "nonpayable",
      "type": "constructor"
    },
    {
      "inputs": [],
      "name": "getPriceUSD",
      "outputs": [
        {
          "internalType": "uint256",
          "name": "",
          "type": "uint256"
        }
      ],
      "stateMutability": "view",
      "type": "function"
    }
  ],
  "bytecode": {
    "object": "0x608060405234801561001057600080fd5b50600080546001600160a01b031916735f4ec3df9cbd43714fe2740f5e3616155c5b84191790556101a7806100466000396000f3fe608060405234801561001057600080fd5b506004361061002b5760003560e01c806357a9579e14610030575b600080fd5b61003861004a565b60405190815260200160405180910390f35b6000805460408051633fabe5a360e21b8152905183926001600160a01b03169163feaf968c9160048083019260a09291908290030181865afa158015610094573d6000803e3d6000fd5b505050506040513d601f19601f820116820180604052508101906100b891906100f4565b505050915050806402540be4006100cf9190610144565b91505090565b805169ffffffffffffffffffff811681146100ef57600080fd5b919050565b600080600080600060a0868803121561010c57600080fd5b610115866100d5565b9450602086015193506040860151925060608601519150610138608087016100d5565b90509295509295909350565b600081600019048311821515161561016c57634e487b7160e01b600052601160045260246000fd5b50029056fea2646970667358221220a9a54abde621cbc82bdb6828e1ac4bdd19dd4a1beaa5326e1824fa21b54b762c64736f6c634300080f0033",
    "linkReferences": {}
  },
  "methodIdentifiers": {
    "getPriceUSD()": "57a9579e"
  },
  "id": 81
}