{
  "abi": [
    {
      "inputs": [],
      "name": "ALLOCATION_ACTIVE",
      "type": "error"
    },
    {
      "inputs": [],
      "name": "ALLOCATION_NOT_ACTIVE",
      "type": "error"
    },
    {
      "inputs": [],
      "name": "ALLOCATION_NOT_ENDED",
      "type": "error"
    },
    {
      "inputs": [],
      "name": "ALREADY_INITIALIZED",
      "type": "error"
    },
    {
      "inputs": [],
      "name": "AMOUNT_MISMATCH",
      "type": "error"
    },
    {
      "inputs": [],
      "name": "ANCHOR_ERROR",
      "type": "error"
    },
    {
      "inputs": [],
      "name": "ARRAY_MISMATCH",
      "type": "error"
    },
    {
      "inputs": [],
      "name": "INVALID",
      "type": "error"
    },
    {
      "inputs": [],
      "name": "INVALID_ADDRESS",
      "type": "error"
    },
    {
      "inputs": [],
      "name": "INVALID_FEE",
      "type": "error"
    },
    {
      "inputs": [],
      "name": "INVALID_METADATA",
      "type": "error"
    },
    {
      "inputs": [],
      "name": "INVALID_REGISTRATION",
      "type": "error"
    },
    {
      "inputs": [],
      "name": "IS_APPROVED_STRATEGY",
      "type": "error"
    },
    {
      "inputs": [],
      "name": "MISMATCH",
      "type": "error"
    },
    {
      "inputs": [],
      "name": "NONCE_NOT_AVAILABLE",
      "type": "error"
    },
    {
      "inputs": [],
      "name": "NOT_APPROVED_STRATEGY",
      "type": "error"
    },
    {
      "inputs": [],
      "name": "NOT_ENOUGH_FUNDS",
      "type": "error"
    },
    {
      "inputs": [],
      "name": "NOT_INITIALIZED",
      "type": "error"
    },
    {
      "inputs": [],
      "name": "NOT_PENDING_OWNER",
      "type": "error"
    },
    {
      "inputs": [],
      "name": "NewOwnerIsZeroAddress",
      "type": "error"
    },
    {
      "inputs": [],
      "name": "NoHandoverRequest",
      "type": "error"
    },
    {
      "inputs": [],
      "name": "POOL_ACTIVE",
      "type": "error"
    },
    {
      "inputs": [],
      "name": "POOL_INACTIVE",
      "type": "error"
    },
    {
      "inputs": [],
      "name": "RECIPIENT_ALREADY_ACCEPTED",
      "type": "error"
    },
    {
      "inputs": [
        {
          "internalType": "address",
          "name": "recipientId",
          "type": "address"
        }
      ],
      "name": "RECIPIENT_ERROR",
      "type": "error"
    },
    {
      "inputs": [],
      "name": "RECIPIENT_NOT_ACCEPTED",
      "type": "error"
    },
    {
      "inputs": [],
      "name": "REGISTRATION_NOT_ACTIVE",
      "type": "error"
    },
    {
      "inputs": [],
      "name": "UNAUTHORIZED",
      "type": "error"
    },
    {
      "inputs": [],
      "name": "Unauthorized",
      "type": "error"
    },
    {
      "inputs": [],
      "name": "ZERO_ADDRESS",
      "type": "error"
    },
    {
      "anonymous": false,
      "inputs": [
        {
          "indexed": true,
          "internalType": "uint256",
          "name": "poolId",
          "type": "uint256"
        },
        {
          "indexed": false,
          "internalType": "uint256",
          "name": "amount",
          "type": "uint256"
        }
      ],
      "name": "BaseFeePaid",
      "type": "event"
    },
    {
      "anonymous": false,
      "inputs": [
        {
          "indexed": false,
          "internalType": "uint256",
          "name": "baseFee",
          "type": "uint256"
        }
      ],
      "name": "BaseFeeUpdated",
      "type": "event"
    },
    {
      "anonymous": false,
      "inputs": [
        {
          "indexed": false,
          "internalType": "uint8",
          "name": "version",
          "type": "uint8"
        }
      ],
      "name": "Initialized",
      "type": "event"
    },
    {
      "anonymous": false,
      "inputs": [
        {
          "indexed": true,
          "internalType": "address",
          "name": "pendingOwner",
          "type": "address"
        }
      ],
      "name": "OwnershipHandoverCanceled",
      "type": "event"
    },
    {
      "anonymous": false,
      "inputs": [
        {
          "indexed": true,
          "internalType": "address",
          "name": "pendingOwner",
          "type": "address"
        }
      ],
      "name": "OwnershipHandoverRequested",
      "type": "event"
    },
    {
      "anonymous": false,
      "inputs": [
        {
          "indexed": true,
          "internalType": "address",
          "name": "oldOwner",
          "type": "address"
        },
        {
          "indexed": true,
          "internalType": "address",
          "name": "newOwner",
          "type": "address"
        }
      ],
      "name": "OwnershipTransferred",
      "type": "event"
    },
    {
      "anonymous": false,
      "inputs": [
        {
          "indexed": false,
          "internalType": "uint256",
          "name": "percentFee",
          "type": "uint256"
        }
      ],
      "name": "PercentFeeUpdated",
      "type": "event"
    },
    {
      "anonymous": false,
      "inputs": [
        {
          "indexed": true,
          "internalType": "uint256",
          "name": "poolId",
          "type": "uint256"
        },
        {
          "indexed": true,
          "internalType": "bytes32",
          "name": "profileId",
          "type": "bytes32"
        },
        {
          "indexed": false,
          "internalType": "contract IStrategy",
          "name": "strategy",
          "type": "address"
        },
        {
          "indexed": false,
          "internalType": "address",
          "name": "token",
          "type": "address"
        },
        {
          "indexed": false,
          "internalType": "uint256",
          "name": "amount",
          "type": "uint256"
        },
        {
          "components": [
            {
              "internalType": "uint256",
              "name": "protocol",
              "type": "uint256"
            },
            {
              "internalType": "string",
              "name": "pointer",
              "type": "string"
            }
          ],
          "indexed": false,
          "internalType": "struct Metadata",
          "name": "metadata",
          "type": "tuple"
        }
      ],
      "name": "PoolCreated",
      "type": "event"
    },
    {
      "anonymous": false,
      "inputs": [
        {
          "indexed": true,
          "internalType": "uint256",
          "name": "poolId",
          "type": "uint256"
        },
        {
          "indexed": false,
          "internalType": "uint256",
          "name": "amount",
          "type": "uint256"
        },
        {
          "indexed": false,
          "internalType": "uint256",
          "name": "fee",
          "type": "uint256"
        }
      ],
      "name": "PoolFunded",
      "type": "event"
    },
    {
      "anonymous": false,
      "inputs": [
        {
          "indexed": true,
          "internalType": "uint256",
          "name": "poolId",
          "type": "uint256"
        },
        {
          "components": [
            {
              "internalType": "uint256",
              "name": "protocol",
              "type": "uint256"
            },
            {
              "internalType": "string",
              "name": "pointer",
              "type": "string"
            }
          ],
          "indexed": false,
          "internalType": "struct Metadata",
          "name": "metadata",
          "type": "tuple"
        }
      ],
      "name": "PoolMetadataUpdated",
      "type": "event"
    },
    {
      "anonymous": false,
      "inputs": [
        {
          "indexed": false,
          "internalType": "address",
          "name": "registry",
          "type": "address"
        }
      ],
      "name": "RegistryUpdated",
      "type": "event"
    },
    {
      "anonymous": false,
      "inputs": [
        {
          "indexed": true,
          "internalType": "bytes32",
          "name": "role",
          "type": "bytes32"
        },
        {
          "indexed": true,
          "internalType": "bytes32",
          "name": "previousAdminRole",
          "type": "bytes32"
        },
        {
          "indexed": true,
          "internalType": "bytes32",
          "name": "newAdminRole",
          "type": "bytes32"
        }
      ],
      "name": "RoleAdminChanged",
      "type": "event"
    },
    {
      "anonymous": false,
      "inputs": [
        {
          "indexed": true,
          "internalType": "bytes32",
          "name": "role",
          "type": "bytes32"
        },
        {
          "indexed": true,
          "internalType": "address",
          "name": "account",
          "type": "address"
        },
        {
          "indexed": true,
          "internalType": "address",
          "name": "sender",
          "type": "address"
        }
      ],
      "name": "RoleGranted",
      "type": "event"
    },
    {
      "anonymous": false,
      "inputs": [
        {
          "indexed": true,
          "internalType": "bytes32",
          "name": "role",
          "type": "bytes32"
        },
        {
          "indexed": true,
          "internalType": "address",
          "name": "account",
          "type": "address"
        },
        {
          "indexed": true,
          "internalType": "address",
          "name": "sender",
          "type": "address"
        }
      ],
      "name": "RoleRevoked",
      "type": "event"
    },
    {
      "anonymous": false,
      "inputs": [
        {
          "indexed": false,
          "internalType": "address",
          "name": "strategy",
          "type": "address"
        }
      ],
      "name": "StrategyApproved",
      "type": "event"
    },
    {
      "anonymous": false,
      "inputs": [
        {
          "indexed": false,
          "internalType": "address",
          "name": "strategy",
          "type": "address"
        }
      ],
      "name": "StrategyRemoved",
      "type": "event"
    },
    {
      "anonymous": false,
      "inputs": [
        {
          "indexed": false,
          "internalType": "address",
          "name": "treasury",
          "type": "address"
        }
      ],
      "name": "TreasuryUpdated",
      "type": "event"
    },
    {
      "inputs": [],
      "name": "DEFAULT_ADMIN_ROLE",
      "outputs": [
        {
          "internalType": "bytes32",
          "name": "",
          "type": "bytes32"
        }
      ],
      "stateMutability": "view",
      "type": "function"
    },
    {
      "inputs": [],
      "name": "NATIVE",
      "outputs": [
        {
          "internalType": "address",
          "name": "",
          "type": "address"
        }
      ],
      "stateMutability": "view",
      "type": "function"
    },
    {
      "inputs": [
        {
          "internalType": "uint256",
          "name": "_poolId",
          "type": "uint256"
        },
        {
          "internalType": "address",
          "name": "_manager",
          "type": "address"
        }
      ],
      "name": "addPoolManager",
      "outputs": [],
      "stateMutability": "nonpayable",
      "type": "function"
    },
    {
      "inputs": [
        {
          "internalType": "address",
          "name": "_strategy",
          "type": "address"
        }
      ],
      "name": "addToCloneableStrategies",
      "outputs": [],
      "stateMutability": "nonpayable",
      "type": "function"
    },
    {
      "inputs": [
        {
          "internalType": "uint256",
          "name": "_poolId",
          "type": "uint256"
        },
        {
          "internalType": "bytes",
          "name": "_data",
          "type": "bytes"
        }
      ],
      "name": "allocate",
      "outputs": [],
      "stateMutability": "payable",
      "type": "function"
    },
    {
      "inputs": [
        {
          "internalType": "uint256[]",
          "name": "_poolIds",
          "type": "uint256[]"
        },
        {
          "internalType": "bytes[]",
          "name": "_datas",
          "type": "bytes[]"
        }
      ],
      "name": "batchAllocate",
      "outputs": [],
      "stateMutability": "nonpayable",
      "type": "function"
    },
    {
      "inputs": [
        {
          "internalType": "uint256[]",
          "name": "_poolIds",
          "type": "uint256[]"
        },
        {
          "internalType": "bytes[]",
          "name": "_data",
          "type": "bytes[]"
        }
      ],
      "name": "batchRegisterRecipient",
      "outputs": [
        {
          "internalType": "address[]",
          "name": "recipientIds",
          "type": "address[]"
        }
      ],
      "stateMutability": "nonpayable",
      "type": "function"
    },
    {
      "inputs": [],
      "name": "cancelOwnershipHandover",
      "outputs": [],
      "stateMutability": "payable",
      "type": "function"
    },
    {
      "inputs": [
        {
          "internalType": "address",
          "name": "pendingOwner",
          "type": "address"
        }
      ],
      "name": "completeOwnershipHandover",
      "outputs": [],
      "stateMutability": "payable",
      "type": "function"
    },
    {
      "inputs": [
        {
          "internalType": "bytes32",
          "name": "_profileId",
          "type": "bytes32"
        },
        {
          "internalType": "address",
          "name": "_strategy",
          "type": "address"
        },
        {
          "internalType": "bytes",
          "name": "_initStrategyData",
          "type": "bytes"
        },
        {
          "internalType": "address",
          "name": "_token",
          "type": "address"
        },
        {
          "internalType": "uint256",
          "name": "_amount",
          "type": "uint256"
        },
        {
          "components": [
            {
              "internalType": "uint256",
              "name": "protocol",
              "type": "uint256"
            },
            {
              "internalType": "string",
              "name": "pointer",
              "type": "string"
            }
          ],
          "internalType": "struct Metadata",
          "name": "_metadata",
          "type": "tuple"
        },
        {
          "internalType": "address[]",
          "name": "_managers",
          "type": "address[]"
        }
      ],
      "name": "createPool",
      "outputs": [
        {
          "internalType": "uint256",
          "name": "poolId",
          "type": "uint256"
        }
      ],
      "stateMutability": "payable",
      "type": "function"
    },
    {
      "inputs": [
        {
          "internalType": "bytes32",
          "name": "_profileId",
          "type": "bytes32"
        },
        {
          "internalType": "address",
          "name": "_strategy",
          "type": "address"
        },
        {
          "internalType": "bytes",
          "name": "_initStrategyData",
          "type": "bytes"
        },
        {
          "internalType": "address",
          "name": "_token",
          "type": "address"
        },
        {
          "internalType": "uint256",
          "name": "_amount",
          "type": "uint256"
        },
        {
          "components": [
            {
              "internalType": "uint256",
              "name": "protocol",
              "type": "uint256"
            },
            {
              "internalType": "string",
              "name": "pointer",
              "type": "string"
            }
          ],
          "internalType": "struct Metadata",
          "name": "_metadata",
          "type": "tuple"
        },
        {
          "internalType": "address[]",
          "name": "_managers",
          "type": "address[]"
        }
      ],
      "name": "createPoolWithCustomStrategy",
      "outputs": [
        {
          "internalType": "uint256",
          "name": "poolId",
          "type": "uint256"
        }
      ],
      "stateMutability": "payable",
      "type": "function"
    },
    {
      "inputs": [
        {
          "internalType": "uint256",
          "name": "_poolId",
          "type": "uint256"
        },
        {
          "internalType": "address[]",
          "name": "_recipientIds",
          "type": "address[]"
        },
        {
          "internalType": "bytes",
          "name": "_data",
          "type": "bytes"
        }
      ],
      "name": "distribute",
      "outputs": [],
      "stateMutability": "nonpayable",
      "type": "function"
    },
    {
      "inputs": [
        {
          "internalType": "uint256",
          "name": "_poolId",
          "type": "uint256"
        },
        {
          "internalType": "uint256",
          "name": "_amount",
          "type": "uint256"
        }
      ],
      "name": "fundPool",
      "outputs": [],
      "stateMutability": "payable",
      "type": "function"
    },
    {
      "inputs": [],
      "name": "getBaseFee",
      "outputs": [
        {
          "internalType": "uint256",
          "name": "",
          "type": "uint256"
        }
      ],
      "stateMutability": "view",
      "type": "function"
    },
    {
      "inputs": [],
      "name": "getFeeDenominator",
      "outputs": [
        {
          "internalType": "uint256",
          "name": "FEE_DENOMINATOR",
          "type": "uint256"
        }
      ],
      "stateMutability": "pure",
      "type": "function"
    },
    {
      "inputs": [],
      "name": "getPercentFee",
      "outputs": [
        {
          "internalType": "uint256",
          "name": "",
          "type": "uint256"
        }
      ],
      "stateMutability": "view",
      "type": "function"
    },
    {
      "inputs": [
        {
          "internalType": "uint256",
          "name": "_poolId",
          "type": "uint256"
        }
      ],
      "name": "getPool",
      "outputs": [
        {
          "components": [
            {
              "internalType": "bytes32",
              "name": "profileId",
              "type": "bytes32"
            },
            {
              "internalType": "contract IStrategy",
              "name": "strategy",
              "type": "address"
            },
            {
              "internalType": "address",
              "name": "token",
              "type": "address"
            },
            {
              "components": [
                {
                  "internalType": "uint256",
                  "name": "protocol",
                  "type": "uint256"
                },
                {
                  "internalType": "string",
                  "name": "pointer",
                  "type": "string"
                }
              ],
              "internalType": "struct Metadata",
              "name": "metadata",
              "type": "tuple"
            },
            {
              "internalType": "bytes32",
              "name": "managerRole",
              "type": "bytes32"
            },
            {
              "internalType": "bytes32",
              "name": "adminRole",
              "type": "bytes32"
            }
          ],
          "internalType": "struct IAllo.Pool",
          "name": "",
          "type": "tuple"
        }
      ],
      "stateMutability": "view",
      "type": "function"
    },
    {
      "inputs": [],
      "name": "getRegistry",
      "outputs": [
        {
          "internalType": "contract IRegistry",
          "name": "",
          "type": "address"
        }
      ],
      "stateMutability": "view",
      "type": "function"
    },
    {
      "inputs": [
        {
          "internalType": "bytes32",
          "name": "role",
          "type": "bytes32"
        }
      ],
      "name": "getRoleAdmin",
      "outputs": [
        {
          "internalType": "bytes32",
          "name": "",
          "type": "bytes32"
        }
      ],
      "stateMutability": "view",
      "type": "function"
    },
    {
      "inputs": [
        {
          "internalType": "uint256",
          "name": "_poolId",
          "type": "uint256"
        }
      ],
      "name": "getStrategy",
      "outputs": [
        {
          "internalType": "address",
          "name": "",
          "type": "address"
        }
      ],
      "stateMutability": "view",
      "type": "function"
    },
    {
      "inputs": [],
      "name": "getTreasury",
      "outputs": [
        {
          "internalType": "address payable",
          "name": "",
          "type": "address"
        }
      ],
      "stateMutability": "view",
      "type": "function"
    },
    {
      "inputs": [
        {
          "internalType": "bytes32",
          "name": "role",
          "type": "bytes32"
        },
        {
          "internalType": "address",
          "name": "account",
          "type": "address"
        }
      ],
      "name": "grantRole",
      "outputs": [],
      "stateMutability": "nonpayable",
      "type": "function"
    },
    {
      "inputs": [
        {
          "internalType": "bytes32",
          "name": "role",
          "type": "bytes32"
        },
        {
          "internalType": "address",
          "name": "account",
          "type": "address"
        }
      ],
      "name": "hasRole",
      "outputs": [
        {
          "internalType": "bool",
          "name": "",
          "type": "bool"
        }
      ],
      "stateMutability": "view",
      "type": "function"
    },
    {
      "inputs": [
        {
          "internalType": "address",
          "name": "_registry",
          "type": "address"
        },
        {
          "internalType": "address payable",
          "name": "_treasury",
          "type": "address"
        },
        {
          "internalType": "uint256",
          "name": "_percentFee",
          "type": "uint256"
        },
        {
          "internalType": "uint256",
          "name": "_baseFee",
          "type": "uint256"
        }
      ],
      "name": "initialize",
      "outputs": [],
      "stateMutability": "nonpayable",
      "type": "function"
    },
    {
      "inputs": [
        {
          "internalType": "address",
          "name": "_strategy",
          "type": "address"
        }
      ],
      "name": "isCloneableStrategy",
      "outputs": [
        {
          "internalType": "bool",
          "name": "",
          "type": "bool"
        }
      ],
      "stateMutability": "view",
      "type": "function"
    },
    {
      "inputs": [
        {
          "internalType": "uint256",
          "name": "_poolId",
          "type": "uint256"
        },
        {
          "internalType": "address",
          "name": "_address",
          "type": "address"
        }
      ],
      "name": "isPoolAdmin",
      "outputs": [
        {
          "internalType": "bool",
          "name": "",
          "type": "bool"
        }
      ],
      "stateMutability": "view",
      "type": "function"
    },
    {
      "inputs": [
        {
          "internalType": "uint256",
          "name": "_poolId",
          "type": "uint256"
        },
        {
          "internalType": "address",
          "name": "_address",
          "type": "address"
        }
      ],
      "name": "isPoolManager",
      "outputs": [
        {
          "internalType": "bool",
          "name": "",
          "type": "bool"
        }
      ],
      "stateMutability": "view",
      "type": "function"
    },
    {
      "inputs": [],
      "name": "owner",
      "outputs": [
        {
          "internalType": "address",
          "name": "result",
          "type": "address"
        }
      ],
      "stateMutability": "view",
      "type": "function"
    },
    {
      "inputs": [
        {
          "internalType": "address",
          "name": "pendingOwner",
          "type": "address"
        }
      ],
      "name": "ownershipHandoverExpiresAt",
      "outputs": [
        {
          "internalType": "uint256",
          "name": "result",
          "type": "uint256"
        }
      ],
      "stateMutability": "view",
      "type": "function"
    },
    {
      "inputs": [
        {
          "internalType": "address",
          "name": "_token",
          "type": "address"
        },
        {
          "internalType": "address",
          "name": "_recipient",
          "type": "address"
        }
      ],
      "name": "recoverFunds",
      "outputs": [],
      "stateMutability": "nonpayable",
      "type": "function"
    },
    {
      "inputs": [
        {
          "internalType": "uint256",
          "name": "_poolId",
          "type": "uint256"
        },
        {
          "internalType": "bytes",
          "name": "_data",
          "type": "bytes"
        }
      ],
      "name": "registerRecipient",
      "outputs": [
        {
          "internalType": "address",
          "name": "",
          "type": "address"
        }
      ],
      "stateMutability": "payable",
      "type": "function"
    },
    {
      "inputs": [
        {
          "internalType": "address",
          "name": "_strategy",
          "type": "address"
        }
      ],
      "name": "removeFromCloneableStrategies",
      "outputs": [],
      "stateMutability": "nonpayable",
      "type": "function"
    },
    {
      "inputs": [
        {
          "internalType": "uint256",
          "name": "_poolId",
          "type": "uint256"
        },
        {
          "internalType": "address",
          "name": "_manager",
          "type": "address"
        }
      ],
      "name": "removePoolManager",
      "outputs": [],
      "stateMutability": "nonpayable",
      "type": "function"
    },
    {
      "inputs": [],
      "name": "renounceOwnership",
      "outputs": [],
      "stateMutability": "payable",
      "type": "function"
    },
    {
      "inputs": [
        {
          "internalType": "bytes32",
          "name": "role",
          "type": "bytes32"
        },
        {
          "internalType": "address",
          "name": "account",
          "type": "address"
        }
      ],
      "name": "renounceRole",
      "outputs": [],
      "stateMutability": "nonpayable",
      "type": "function"
    },
    {
      "inputs": [],
      "name": "requestOwnershipHandover",
      "outputs": [],
      "stateMutability": "payable",
      "type": "function"
    },
    {
      "inputs": [
        {
          "internalType": "bytes32",
          "name": "role",
          "type": "bytes32"
        },
        {
          "internalType": "address",
          "name": "account",
          "type": "address"
        }
      ],
      "name": "revokeRole",
      "outputs": [],
      "stateMutability": "nonpayable",
      "type": "function"
    },
    {
      "inputs": [
        {
          "internalType": "bytes4",
          "name": "interfaceId",
          "type": "bytes4"
        }
      ],
      "name": "supportsInterface",
      "outputs": [
        {
          "internalType": "bool",
          "name": "",
          "type": "bool"
        }
      ],
      "stateMutability": "view",
      "type": "function"
    },
    {
      "inputs": [
        {
          "internalType": "address",
          "name": "newOwner",
          "type": "address"
        }
      ],
      "name": "transferOwnership",
      "outputs": [],
      "stateMutability": "payable",
      "type": "function"
    },
    {
      "inputs": [
        {
          "internalType": "uint256",
          "name": "_baseFee",
          "type": "uint256"
        }
      ],
      "name": "updateBaseFee",
      "outputs": [],
      "stateMutability": "nonpayable",
      "type": "function"
    },
    {
      "inputs": [
        {
          "internalType": "uint256",
          "name": "_percentFee",
          "type": "uint256"
        }
      ],
      "name": "updatePercentFee",
      "outputs": [],
      "stateMutability": "nonpayable",
      "type": "function"
    },
    {
      "inputs": [
        {
          "internalType": "uint256",
          "name": "_poolId",
          "type": "uint256"
        },
        {
          "components": [
            {
              "internalType": "uint256",
              "name": "protocol",
              "type": "uint256"
            },
            {
              "internalType": "string",
              "name": "pointer",
              "type": "string"
            }
          ],
          "internalType": "struct Metadata",
          "name": "_metadata",
          "type": "tuple"
        }
      ],
      "name": "updatePoolMetadata",
      "outputs": [],
      "stateMutability": "nonpayable",
      "type": "function"
    },
    {
      "inputs": [
        {
          "internalType": "address",
          "name": "_registry",
          "type": "address"
        }
      ],
      "name": "updateRegistry",
      "outputs": [],
      "stateMutability": "nonpayable",
      "type": "function"
    },
    {
      "inputs": [
        {
          "internalType": "address payable",
          "name": "_treasury",
          "type": "address"
        }
      ],
      "name": "updateTreasury",
      "outputs": [],
      "stateMutability": "nonpayable",
      "type": "function"
    }
  ],
  "bytecode": {
    "object": "0x608060405234801561001057600080fd5b5061323f806100206000396000f3fe6080604052600436106102e75760003560e01c80635f9ca13811610184578063ab3febc6116100d6578063eb990c591161008a578063f4e1fc4111610064578063f4e1fc41146107e8578063f54fc4a014610803578063fee81cf41461082357600080fd5b8063eb990c59146107a2578063f04e283e146107c2578063f2fde38b146107d557600080fd5b8063cfc0cc34116100bb578063cfc0cc3414610736578063d547741f1461076f578063e1007d4a1461078f57600080fd5b8063ab3febc6146106f6578063c6dff1cf1461071657600080fd5b80638da5cb5b11610138578063a0cf0aea11610112578063a0cf0aea14610699578063a217fddf146106c1578063ab2ec589146106d657600080fd5b80638da5cb5b1461061a5780638e6901861461063357806391d148541461065357600080fd5b806377da8caf1161016957806377da8caf146105c75780637f51bb1f146105da5780637f5a70bd146105fa57600080fd5b80635f9ca1381461059f578063715018a6146105bf57600080fd5b80632cf682b01161023d5780633b19e84a116101f157806354d1f13d116101cb57806354d1f13d146105665780635ab1bd531461056e5780635acd6fac1461058c57600080fd5b80633b19e84a1461051357806341bba0b4146105315780634edbaadc1461055157600080fd5b80632f2ff15d116102225780632f2ff15d146104b357806336568abe146104d35780633a5fbd92146104f357600080fd5b80632cf682b0146104805780632ec38188146104a057600080fd5b80631a20bd881161029f57806324ae6a271161027957806324ae6a2714610438578063256929621461045857806329e40d4b1461046057600080fd5b80631a20bd88146103ba5780631a5da6c8146103e7578063248a9ca31461040757600080fd5b8063068bcd8d116102d0578063068bcd8d14610343578063075c0e9c1461037057806315e812ad1461039b57600080fd5b806301ffc9a7146102ec578063031e2fa114610321575b600080fd5b3480156102f857600080fd5b5061030c61030736600461267c565b610856565b60405190151581526020015b60405180910390f35b34801561032d57600080fd5b5061034161033c3660046126d3565b6108ef565b005b34801561034f57600080fd5b5061036361035e3660046126f0565b61094f565b6040516103189190612778565b61038361037e3660046128a0565b610a62565b6040516001600160a01b039091168152602001610318565b3480156103a757600080fd5b506035545b604051908152602001610318565b3480156103c657600080fd5b506103da6103d536600461299b565b610b16565b6040516103189190612a8e565b3480156103f357600080fd5b506103416104023660046126d3565b610c9d565b34801561041357600080fd5b506103ac6104223660046126f0565b6000908152600160208190526040909120015490565b34801561044457600080fd5b50610341610453366004612aa1565b610cb1565b610341610d79565b34801561046c57600080fd5b5061030c61047b366004612ada565b610dc9565b34801561048c57600080fd5b5061034161049b366004612ada565b610ddc565b6103416104ae3660046128a0565b610e29565b3480156104bf57600080fd5b506103416104ce366004612ada565b610e49565b3480156104df57600080fd5b506103416104ee366004612ada565b610e6f565b3480156104ff57600080fd5b5061034161050e366004612b63565b610efc565b34801561051f57600080fd5b506037546001600160a01b0316610383565b34801561053d57600080fd5b5061034161054c3660046126d3565b610f9d565b34801561055d57600080fd5b506034546103ac565b610341611020565b34801561057a57600080fd5b506038546001600160a01b0316610383565b61034161059a366004612bd0565b61105c565b3480156105ab57600080fd5b506103416105ba366004612c75565b6110ad565b61034161112a565b6103ac6105d5366004612cb2565b61113e565b3480156105e657600080fd5b506103416105f53660046126d3565b6111ed565b34801561060657600080fd5b50610341610615366004612ada565b6111fe565b34801561062657600080fd5b50638b78c6d81954610383565b34801561063f57600080fd5b5061034161064e3660046126f0565b611224565b34801561065f57600080fd5b5061030c61066e366004612ada565b60009182526001602090815260408084206001600160a01b0393909316845291905290205460ff1690565b3480156106a557600080fd5b5061038373eeeeeeeeeeeeeeeeeeeeeeeeeeeeeeeeeeeeeeee81565b3480156106cd57600080fd5b506103ac600081565b3480156106e257600080fd5b5061030c6106f13660046126d3565b611235565b34801561070257600080fd5b5061030c610711366004612ada565b611256565b34801561072257600080fd5b50610341610731366004612d75565b611262565b34801561074257600080fd5b506103836107513660046126f0565b6000908152603a60205260409020600101546001600160a01b031690565b34801561077b57600080fd5b5061034161078a366004612ada565b6112e7565b6103ac61079d366004612cb2565b61130d565b3480156107ae57600080fd5b506103416107bd366004612e02565b6113a4565b6103416107d03660046126d3565b6114c1565b6103416107e33660046126d3565b6114fe565b3480156107f457600080fd5b50670de0b6b3a76400006103ac565b34801561080f57600080fd5b5061034161081e3660046126f0565b611525565b34801561082f57600080fd5b506103ac61083e3660046126d3565b63389a75e1600c908152600091909152602090205490565b60007fffffffff0000000000000000000000000000000000000000000000000000000082167f7965db0b0000000000000000000000000000000000000000000000000000000014806108e957507f01ffc9a7000000000000000000000000000000000000000000000000000000007fffffffff000000000000000000000000000000000000000000000000000000008316145b92915050565b6108f7611536565b6001600160a01b0381166000818152603b6020908152604091829020805460ff1916905590519182527f09a1db4b80c32706328728508c941a6b954f31eb5affd32f236c1fd405f8fea491015b60405180910390a150565b610957612616565b6000828152603a6020908152604091829020825160c0810184528154815260018201546001600160a01b039081168285015260028301541681850152835180850190945260038201805485526004830180549295939460608701949390840191906109c190612e48565b80601f01602080910402602001604051908101604052809291908181526020018280546109ed90612e48565b8015610a3a5780601f10610a0f57610100808354040283529160200191610a3a565b820191906000526020600020905b815481529060010190602001808311610a1d57829003601f168201915b5050505050815250508152602001600582015481526020016006820154815250509050919050565b6000610a6c611551565b6000838152603a6020526040908190206001015490517f2bbe0cae0000000000000000000000000000000000000000000000000000000081526001600160a01b0390911690632bbe0cae90610ac79085903390600401612e82565b6020604051808303816000875af1158015610ae6573d6000803e3d6000fd5b505050506040513d601f19601f82011682018060405250810190610b0a9190612ead565b90506108e96001600255565b6060610b20611551565b82518067ffffffffffffffff811115610b3b57610b3b6127e1565b604051908082528060200260200182016040528015610b64578160200160208202803683370190505b50915082518114610b885760405163636e39bb60e01b815260040160405180910390fd5b60005b81811015610c9157603a6000868381518110610ba957610ba9612eca565b6020026020010151815260200190815260200160002060010160009054906101000a90046001600160a01b03166001600160a01b0316632bbe0cae858381518110610bf657610bf6612eca565b6020026020010151336040518363ffffffff1660e01b8152600401610c1c929190612e82565b6020604051808303816000875af1158015610c3b573d6000803e3d6000fd5b505050506040513d601f19601f82011682018060405250810190610c5f9190612ead565b838281518110610c7157610c71612eca565b6001600160a01b0390921660209283029190910190910152600101610b8b565b50506108e96001600255565b610ca5611536565b610cae816115a8565b50565b610cb9611536565b60006001600160a01b03831673eeeeeeeeeeeeeeeeeeeeeeeeeeeeeeeeeeeeeeee14610d65576040517f70a082310000000000000000000000000000000000000000000000000000000081523060048201526001600160a01b038416906370a0823190602401602060405180830381865afa158015610d3c573d6000803e3d6000fd5b505050506040513d601f19601f82011682018060405250810190610d609190612ee0565b610d67565b475b9050610d7483838361162a565b505050565b60006202a30067ffffffffffffffff164201905063389a75e1600c5233600052806020600c2055337fdbf36a107da19e49527a7176a1babf963b4b0ff8cde35ee35d6cd8f1f9ac7e1d600080a250565b6000610dd58383611664565b9392505050565b81610de6816116a7565b6001600160a01b038216610e0d5760405163538ba4f960e01b815260040160405180910390fd5b6000838152603a6020526040902060050154610d7490836116ce565b610e31611551565b610e3b8282611755565b610e456001600255565b5050565b60008281526001602081905260409091200154610e65816117e8565b610d7483836116ce565b6001600160a01b0381163314610ef25760405162461bcd60e51b815260206004820152602f60248201527f416363657373436f6e74726f6c3a2063616e206f6e6c792072656e6f756e636560448201527f20726f6c657320666f722073656c66000000000000000000000000000000000060648201526084015b60405180910390fd5b610e4582826117f2565b610f04611551565b6000838152603a6020526040908190206001015490517f0a6f0ee90000000000000000000000000000000000000000000000000000000081526001600160a01b0390911690630a6f0ee990610f6190859085903390600401612ef9565b600060405180830381600087803b158015610f7b57600080fd5b505af1158015610f8f573d6000803e3d6000fd5b50505050610d746001600255565b610fa5611536565b6001600160a01b038116610fcc5760405163538ba4f960e01b815260040160405180910390fd5b6001600160a01b0381166000818152603b6020908152604091829020805460ff1916600117905590519182527f960dd94cbb79169f09a4e445d58b895df2d9bffa5b31055d0932d801724a20d19101610944565b63389a75e1600c523360005260006020600c2055337ffa7b8eab7da67f412cc9575ed43464468f9bfbae89d1675917346ca6d8fe3c92600080a2565b611064611551565b80600003611085576040516303e09bb960e31b815260040160405180910390fd5b6000828152603a6020526040902060010154610e3b90829084906001600160a01b0316611875565b816110b7816119eb565b6000838152603a60209081526040909120835160038201908155918401519091849160048401906110e89082612f86565b50905050837f14f52b76bda9e4c482842cefda2968d332933577988f224e80aae18fba10edf08460405161111c9190613046565b60405180910390a250505050565b611132611536565b61113c60006119f5565b565b6000611148611551565b6001600160a01b0387166000908152603b602052604090205460ff1661119a576040517f9369923800000000000000000000000000000000000000000000000000000000815260040160405180910390fd5b33600090815260396020526040812080546111d6928b926111cc928c929091906111c38361306f565b91905055611a33565b8888888888611a87565b90506111e26001600255565b979650505050505050565b6111f5611536565b610cae81611fc2565b81611208816116a7565b6000838152603a6020526040902060050154610d7490836117f2565b61122c611536565b610cae81612044565b6001600160a01b0381166000908152603b602052604081205460ff166108e9565b6000610dd58383612079565b61126a611551565b80518290811461128d5760405163636e39bb60e01b815260040160405180910390fd5b60005b818110156112db576112d38585838181106112ad576112ad612eca565b905060200201358483815181106112c6576112c6612eca565b6020026020010151611755565b600101611290565b5050610d746001600255565b60008281526001602081905260409091200154611303816117e8565b610d7483836117f2565b60006001600160a01b0387166113365760405163538ba4f960e01b815260040160405180910390fd5b6001600160a01b0387166000908152603b602052604090205460ff1615611389576040517feeffa72100000000000000000000000000000000000000000000000000000000815260040160405180910390fd5b61139888888888888888611a87565b98975050505050505050565b600054600190610100900460ff161580156113c6575060005460ff8083169116105b6114385760405162461bcd60e51b815260206004820152602e60248201527f496e697469616c697a61626c653a20636f6e747261637420697320616c72656160448201527f647920696e697469616c697a65640000000000000000000000000000000000006064820152608401610ee9565b6000805461ffff191660ff831617610100179055611455336120b1565b61145e856115a8565b61146784611fc2565b611470836120ed565b61147982612044565b6000805461ff001916905560405160ff821681527f7f26b83ff96e1f2b6a682f133852f6798a09c465da95921460cefb38474024989060200160405180910390a15050505050565b6114c9611536565b63389a75e1600c52806000526020600c2080544211156114f157636f5e88186000526004601cfd5b60009055610cae816119f5565b611506611536565b8060601b61151c57637448fbae6000526004601cfd5b610cae816119f5565b61152d611536565b610cae816120ed565b638b78c6d81954331461113c576382b429006000526004601cfd5b60028054036115a25760405162461bcd60e51b815260206004820152601f60248201527f5265656e7472616e637947756172643a207265656e7472616e742063616c6c006044820152606401610ee9565b60028055565b6001600160a01b0381166115cf5760405163538ba4f960e01b815260040160405180910390fd5b6038805473ffffffffffffffffffffffffffffffffffffffff19166001600160a01b0383169081179091556040519081527fd6ceddf6d2a22f21c7c81675c518004eff43bc5c8a6fc32a0b748e69d58671cd90602001610944565b73eeeeeeeeeeeeeeeeeeeeeeeeeeeeeeeeeeeeeeed196001600160a01b0384160161165957610d748282612164565b610d74838383612180565b6000828152603a60209081526040808320600501548352600182528083206001600160a01b038516845290915281205460ff1680610dd55750610dd58383612079565b6116b18133612079565b610cae5760405163075fd2b160e01b815260040160405180910390fd5b60008281526001602090815260408083206001600160a01b038516845290915290205460ff16610e455760008281526001602081815260408084206001600160a01b0386168086529252808420805460ff19169093179092559051339285917f2f8788117e7eff1d82e926ec794901d17c78024a50270940304540a733656f0d9190a45050565b6000828152603a6020526040908190206001015490517fef2920fc0000000000000000000000000000000000000000000000000000000081526001600160a01b039091169063ef2920fc9034906117b29085903390600401612e82565b6000604051808303818588803b1580156117cb57600080fd5b505af11580156117df573d6000803e3d6000fd5b50505050505050565b610cae81336121cf565b60008281526001602090815260408083206001600160a01b038516845290915290205460ff1615610e455760008281526001602090815260408083206001600160a01b0385168085529252808320805460ff1916905551339285917ff6391f5c32d9c69d2a47ea670b442974b53935d1edc7fd64eb21e047a839171b9190a45050565b6000828152603a6020526040812060028101546034548692916001600160a01b031690156118fd57670de0b6b3a76400006034546118b39089613088565b6118bd919061309f565b93506118c984846130c1565b604080516060810182523381526037546001600160a01b031660208201529081018690529093506118fb908290612244565b505b611933816040518060600160405280336001600160a01b03168152602001886001600160a01b0316815260200186815250612244565b506040517ff5b0dfb7000000000000000000000000000000000000000000000000000000008152600481018490526001600160a01b0386169063f5b0dfb790602401600060405180830381600087803b15801561198f57600080fd5b505af11580156119a3573d6000803e3d6000fd5b505060408051868152602081018890528993507fbf59838198f4ea92f663f5c1fc697f151a1b746b7dff86d564f250a55cbb485192500160405180910390a250505050505050565b6116b18133611664565b638b78c6d81980546001600160a01b039092169182907f8be0079c531659141344cd1fd0a4f28419497f9722a3daafe3b4186f6b6457e0600080a355565b6040516bffffffffffffffffffffffff193360601b166020820152603481018290526000908190605401604051602081830303815290604052805190602001209050611a7f84826122dc565b949350505050565b6038546040517f5e8a7915000000000000000000000000000000000000000000000000000000008152600481018990523360248201526000916001600160a01b031690635e8a791590604401602060405180830381865afa158015611af0573d6000803e3d6000fd5b505050506040513d601f19601f82011682018060405250810190611b1491906130d4565b611b315760405163075fd2b160e01b815260040160405180910390fd5b603660008154611b409061306f565b91829055506040519091508190600090611b889083906020019081527f61646d696e000000000000000000000000000000000000000000000000000000602082015260250190565b60408051601f19818403018152828252805160209182012060c0840183528d84526001600160a01b03808e168584019081528c8216868601908152606087018c8152608088018a905260a0880185905260008b8152603a87529690962087518155915160018301805491851673ffffffffffffffffffffffffffffffffffffffff1992831617905590516002830180549190941691161790915592518051600385019081559281015191955084939290916004840190611c489082612f86565b5050506080820151600582015560a090910151600690910155611c6b82336116ce565b611c758383612379565b6040517fedd146cc0000000000000000000000000000000000000000000000000000000081526001600160a01b038b169063edd146cc90611cbc9087908d906004016130f6565b600060405180830381600087803b158015611cd657600080fd5b505af1158015611cea573d6000803e3d6000fd5b50505050838a6001600160a01b03166338fff2d06040518163ffffffff1660e01b8152600401602060405180830381865afa158015611d2d573d6000803e3d6000fd5b505050506040513d601f19601f82011682018060405250810190611d519190612ee0565b141580611dd15750306001600160a01b03168a6001600160a01b03166315cc481e6040518163ffffffff1660e01b8152600401602060405180830381865afa158015611da1573d6000803e3d6000fd5b505050506040513d601f19601f82011682018060405250810190611dc59190612ead565b6001600160a01b031614155b15611def5760405163636e39bb60e01b815260040160405180910390fd5b845160005b81811015611e60576000878281518110611e1057611e10612eca565b6020026020010151905060006001600160a01b0316816001600160a01b031603611e4d5760405163538ba4f960e01b815260040160405180910390fd5b611e5786826116ce565b50600101611df4565b5060355415611f63576001600160a01b03891673eeeeeeeeeeeeeeeeeeeeeeeeeeeeeeeeeeeeeeee148015611ea257503488603554611e9f919061310f565b10155b80611ed757506001600160a01b03891673eeeeeeeeeeeeeeeeeeeeeeeeeeeeeeeeeeeeeeee14801590611ed757503460355410155b15611ef5576040516303e09bb960e31b815260040160405180910390fd5b603754603554611f269173eeeeeeeeeeeeeeeeeeeeeeeeeeeeeeeeeeeeeeee916001600160a01b039091169061162a565b847f02e340b51c6ae66fd22509c9b016f224c47a54063d4259fe3d860958e9eaac72603554604051611f5a91815260200190565b60405180910390a25b8715611f7457611f7488868d611875565b8b857f69bcb5a6cf6a3c95185cbb451e77787240c866dd2e8332597e3013ff18a1aba18d8c8c8c604051611fab9493929190613122565b60405180910390a350505050979650505050505050565b6001600160a01b038116611fe95760405163538ba4f960e01b815260040160405180910390fd5b6037805473ffffffffffffffffffffffffffffffffffffffff19166001600160a01b0383169081179091556040519081527f7dae230f18360d76a040c81f050aa14eb9d6dc7901b20fc5d855e2a20fe814d190602001610944565b60358190556040518181527f803bee7e92bbc6ae7a1551f9f4ed3e31a8ea8df32e93332f41b0028f1091f9c390602001610944565b6000828152603a60209081526040808320600601548352600182528083206001600160a01b038516845290915281205460ff16610dd5565b6001600160a01b0316638b78c6d8198190558060007f8be0079c531659141344cd1fd0a4f28419497f9722a3daafe3b4186f6b6457e08180a350565b670de0b6b3a764000081111561212f576040517f2fb15b8700000000000000000000000000000000000000000000000000000000815260040160405180910390fd5b60348190556040518181527f9e826789de2de708fd9f09edea1182545e543893caa8ff71f8eb3aab50a4b06590602001610944565b60008060008084865af1610e455763b12d13eb6000526004601cfd5b81601452806034526fa9059cbb00000000000000000000000060005260206000604460106000875af13d1560016000511417166121c5576390b8ec186000526004601cfd5b6000603452505050565b60008281526001602090815260408083206001600160a01b038516845290915290205460ff16610e4557612202816123c6565b61220d8360206123d8565b60405160200161221e92919061315e565b60408051601f198184030181529082905262461bcd60e51b8252610ee9916004016131df565b604081015160009073eeeeeeeeeeeeeeeeeeeeeeeeeeeeeeeeeeeeeeed196001600160a01b038516016122be57803410156122ab576040517f74c5672b00000000000000000000000000000000000000000000000000000000815260040160405180910390fd5b6122b9836020015182612164565b6122d2565b6122d28484600001518560200151846125b9565b5060019392505050565b6000763d602d80600a3d3981f3363d3d373d3d3d363d730000008360601b60e81c176000526e5af43d82803e903d91602b57fd5bf38360781b1760205281603760096000f590506001600160a01b0381166108e95760405162461bcd60e51b815260206004820152601760248201527f455243313136373a2063726561746532206661696c65640000000000000000006044820152606401610ee9565b6000828152600160208190526040808320909101805490849055905190918391839186917fbd79b86ffe0ab8e8776151514217cd7cacd52c909f66475c3af44e129f0b00ff9190a4505050565b60606108e96001600160a01b03831660145b606060006123e7836002613088565b6123f290600261310f565b67ffffffffffffffff81111561240a5761240a6127e1565b6040519080825280601f01601f191660200182016040528015612434576020820181803683370190505b5090507f30000000000000000000000000000000000000000000000000000000000000008160008151811061246b5761246b612eca565b60200101906001600160f81b031916908160001a9053507f7800000000000000000000000000000000000000000000000000000000000000816001815181106124b6576124b6612eca565b60200101906001600160f81b031916908160001a90535060006124da846002613088565b6124e590600161310f565b90505b600181111561256a577f303132333435363738396162636465660000000000000000000000000000000085600f166010811061252657612526612eca565b1a60f81b82828151811061253c5761253c612eca565b60200101906001600160f81b031916908160001a90535060049490941c93612563816131f2565b90506124e8565b508315610dd55760405162461bcd60e51b815260206004820181905260248201527f537472696e67733a20686578206c656e67746820696e73756666696369656e746044820152606401610ee9565b60405181606052826040528360601b602c526f23b872dd000000000000000000000000600c52602060006064601c6000895af13d15600160005114171661260857637939f4246000526004601cfd5b600060605260405250505050565b6040518060c001604052806000801916815260200160006001600160a01b0316815260200160006001600160a01b03168152602001612668604051806040016040528060008152602001606081525090565b815260006020820181905260409091015290565b60006020828403121561268e57600080fd5b81357fffffffff0000000000000000000000000000000000000000000000000000000081168114610dd557600080fd5b6001600160a01b0381168114610cae57600080fd5b6000602082840312156126e557600080fd5b8135610dd5816126be565b60006020828403121561270257600080fd5b5035919050565b60005b8381101561272457818101518382015260200161270c565b50506000910152565b60008151808452612745816020860160208601612709565b601f01601f19169290920160200192915050565b805182526000602082015160406020850152611a7f604085018261272d565b6020815281516020820152600060208301516001600160a01b0380821660408501528060408601511660608501525050606083015160c060808401526127c160e0840182612759565b9050608084015160a084015260a084015160c08401528091505092915050565b634e487b7160e01b600052604160045260246000fd5b604051601f8201601f1916810167ffffffffffffffff81118282101715612820576128206127e1565b604052919050565b600067ffffffffffffffff831115612842576128426127e1565b612855601f8401601f19166020016127f7565b905082815283838301111561286957600080fd5b828260208301376000602084830101529392505050565b600082601f83011261289157600080fd5b610dd583833560208501612828565b600080604083850312156128b357600080fd5b82359150602083013567ffffffffffffffff8111156128d157600080fd5b6128dd85828601612880565b9150509250929050565b600067ffffffffffffffff821115612901576129016127e1565b5060051b60200190565b600082601f83011261291c57600080fd5b8135602061293161292c836128e7565b6127f7565b82815260059290921b8401810191818101908684111561295057600080fd5b8286015b8481101561299057803567ffffffffffffffff8111156129745760008081fd5b6129828986838b0101612880565b845250918301918301612954565b509695505050505050565b600080604083850312156129ae57600080fd5b823567ffffffffffffffff808211156129c657600080fd5b818501915085601f8301126129da57600080fd5b813560206129ea61292c836128e7565b82815260059290921b84018101918181019089841115612a0957600080fd5b948201945b83861015612a2757853582529482019490820190612a0e565b96505086013592505080821115612a3d57600080fd5b506128dd8582860161290b565b600081518084526020808501945080840160005b83811015612a835781516001600160a01b031687529582019590820190600101612a5e565b509495945050505050565b602081526000610dd56020830184612a4a565b60008060408385031215612ab457600080fd5b8235612abf816126be565b91506020830135612acf816126be565b809150509250929050565b60008060408385031215612aed57600080fd5b823591506020830135612acf816126be565b600082601f830112612b1057600080fd5b81356020612b2061292c836128e7565b82815260059290921b84018101918181019086841115612b3f57600080fd5b8286015b84811015612990578035612b56816126be565b8352918301918301612b43565b600080600060608486031215612b7857600080fd5b83359250602084013567ffffffffffffffff80821115612b9757600080fd5b612ba387838801612aff565b93506040860135915080821115612bb957600080fd5b50612bc686828701612880565b9150509250925092565b60008060408385031215612be357600080fd5b50508035926020909101359150565b600060408284031215612c0457600080fd5b6040516040810167ffffffffffffffff8282108183111715612c2857612c286127e1565b81604052829350843583526020850135915080821115612c4757600080fd5b508301601f81018513612c5957600080fd5b612c6885823560208401612828565b6020830152505092915050565b60008060408385031215612c8857600080fd5b82359150602083013567ffffffffffffffff811115612ca657600080fd5b6128dd85828601612bf2565b600080600080600080600060e0888a031215612ccd57600080fd5b873596506020880135612cdf816126be565b9550604088013567ffffffffffffffff80821115612cfc57600080fd5b612d088b838c01612880565b965060608a01359150612d1a826126be565b9094506080890135935060a08901359080821115612d3757600080fd5b612d438b838c01612bf2565b935060c08a0135915080821115612d5957600080fd5b50612d668a828b01612aff565b91505092959891949750929550565b600080600060408486031215612d8a57600080fd5b833567ffffffffffffffff80821115612da257600080fd5b818601915086601f830112612db657600080fd5b813581811115612dc557600080fd5b8760208260051b8501011115612dda57600080fd5b602092830195509350908501359080821115612df557600080fd5b50612bc68682870161290b565b60008060008060808587031215612e1857600080fd5b8435612e23816126be565b93506020850135612e33816126be565b93969395505050506040820135916060013590565b600181811c90821680612e5c57607f821691505b602082108103612e7c57634e487b7160e01b600052602260045260246000fd5b50919050565b604081526000612e95604083018561272d565b90506001600160a01b03831660208301529392505050565b600060208284031215612ebf57600080fd5b8151610dd5816126be565b634e487b7160e01b600052603260045260246000fd5b600060208284031215612ef257600080fd5b5051919050565b606081526000612f0c6060830186612a4a565b8281036020840152612f1e818661272d565b9150506001600160a01b0383166040830152949350505050565b601f821115610d7457600081815260208120601f850160051c81016020861015612f5f5750805b601f850160051c820191505b81811015612f7e57828155600101612f6b565b505050505050565b815167ffffffffffffffff811115612fa057612fa06127e1565b612fb481612fae8454612e48565b84612f38565b602080601f831160018114612fe95760008415612fd15750858301515b600019600386901b1c1916600185901b178555612f7e565b600085815260208120601f198616915b8281101561301857888601518255948401946001909101908401612ff9565b50858210156130365787850151600019600388901b60f8161c191681555b5050505050600190811b01905550565b602081526000610dd56020830184612759565b634e487b7160e01b600052601160045260246000fd5b60006001820161308157613081613059565b5060010190565b80820281158282048414176108e9576108e9613059565b6000826130bc57634e487b7160e01b600052601260045260246000fd5b500490565b818103818111156108e9576108e9613059565b6000602082840312156130e657600080fd5b81518015158114610dd557600080fd5b828152604060208201526000611a7f604083018461272d565b808201808211156108e9576108e9613059565b60006001600160a01b038087168352808616602084015250836040830152608060608301526131546080830184612759565b9695505050505050565b7f416363657373436f6e74726f6c3a206163636f756e7420000000000000000000815260008351613196816017850160208801612709565b7f206973206d697373696e6720726f6c652000000000000000000000000000000060179184019182015283516131d3816028840160208801612709565b01602801949350505050565b602081526000610dd5602083018461272d565b60008161320157613201613059565b50600019019056fea26469706673582212200e2450acdecbbd8838cab696730824337c35283b376357932422f7e00567502064736f6c63430008130033",
    "linkReferences": {}
  },
  "methodIdentifiers": {
    "DEFAULT_ADMIN_ROLE()": "a217fddf",
    "NATIVE()": "a0cf0aea",
    "addPoolManager(uint256,address)": "2cf682b0",
    "addToCloneableStrategies(address)": "41bba0b4",
    "allocate(uint256,bytes)": "2ec38188",
    "batchAllocate(uint256[],bytes[])": "c6dff1cf",
    "batchRegisterRecipient(uint256[],bytes[])": "1a20bd88",
    "cancelOwnershipHandover()": "54d1f13d",
    "completeOwnershipHandover(address)": "f04e283e",
    "createPool(bytes32,address,bytes,address,uint256,(uint256,string),address[])": "77da8caf",
    "createPoolWithCustomStrategy(bytes32,address,bytes,address,uint256,(uint256,string),address[])": "e1007d4a",
    "distribute(uint256,address[],bytes)": "3a5fbd92",
    "fundPool(uint256,uint256)": "5acd6fac",
    "getBaseFee()": "15e812ad",
    "getFeeDenominator()": "f4e1fc41",
    "getPercentFee()": "4edbaadc",
    "getPool(uint256)": "068bcd8d",
    "getRegistry()": "5ab1bd53",
    "getRoleAdmin(bytes32)": "248a9ca3",
    "getStrategy(uint256)": "cfc0cc34",
    "getTreasury()": "3b19e84a",
    "grantRole(bytes32,address)": "2f2ff15d",
    "hasRole(bytes32,address)": "91d14854",
    "initialize(address,address,uint256,uint256)": "eb990c59",
    "isCloneableStrategy(address)": "ab2ec589",
    "isPoolAdmin(uint256,address)": "ab3febc6",
    "isPoolManager(uint256,address)": "29e40d4b",
    "owner()": "8da5cb5b",
    "ownershipHandoverExpiresAt(address)": "fee81cf4",
    "recoverFunds(address,address)": "24ae6a27",
    "registerRecipient(uint256,bytes)": "075c0e9c",
    "removeFromCloneableStrategies(address)": "031e2fa1",
    "removePoolManager(uint256,address)": "7f5a70bd",
    "renounceOwnership()": "715018a6",
    "renounceRole(bytes32,address)": "36568abe",
    "requestOwnershipHandover()": "25692962",
    "revokeRole(bytes32,address)": "d547741f",
    "supportsInterface(bytes4)": "01ffc9a7",
    "transferOwnership(address)": "f2fde38b",
    "updateBaseFee(uint256)": "8e690186",
    "updatePercentFee(uint256)": "f54fc4a0",
    "updatePoolMetadata(uint256,(uint256,string))": "5f9ca138",
    "updateRegistry(address)": "1a5da6c8",
    "updateTreasury(address)": "7f51bb1f"
  },
  "storageLayout": {
    "storage": [
      {
        "astId": 61049,
        "contract": "contracts/core/Allo.sol:Allo",
        "label": "_initialized",
        "offset": 0,
        "slot": "0",
        "type": "t_uint8"
      },
      {
        "astId": 61052,
        "contract": "contracts/core/Allo.sol:Allo",
        "label": "_initializing",
        "offset": 1,
        "slot": "0",
        "type": "t_bool"
      },
      {
        "astId": 61728,
        "contract": "contracts/core/Allo.sol:Allo",
        "label": "_roles",
        "offset": 0,
        "slot": "1",
        "type": "t_mapping(t_bytes32,t_struct(RoleData)61723_storage)"
      },
      {
        "astId": 61225,
        "contract": "contracts/core/Allo.sol:Allo",
        "label": "_status",
        "offset": 0,
        "slot": "2",
        "type": "t_uint256"
      },
      {
        "astId": 61294,
        "contract": "contracts/core/Allo.sol:Allo",
        "label": "__gap",
        "offset": 0,
        "slot": "3",
        "type": "t_array(t_uint256)49_storage"
      },
      {
        "astId": 34,
        "contract": "contracts/core/Allo.sol:Allo",
        "label": "percentFee",
        "offset": 0,
        "slot": "52",
        "type": "t_uint256"
      },
      {
        "astId": 37,
        "contract": "contracts/core/Allo.sol:Allo",
        "label": "baseFee",
        "offset": 0,
        "slot": "53",
        "type": "t_uint256"
      },
      {
        "astId": 40,
        "contract": "contracts/core/Allo.sol:Allo",
        "label": "_poolIndex",
        "offset": 0,
        "slot": "54",
        "type": "t_uint256"
      },
      {
        "astId": 43,
        "contract": "contracts/core/Allo.sol:Allo",
        "label": "treasury",
        "offset": 0,
        "slot": "55",
        "type": "t_address_payable"
      },
      {
        "astId": 47,
        "contract": "contracts/core/Allo.sol:Allo",
        "label": "registry",
        "offset": 0,
        "slot": "56",
        "type": "t_contract(IRegistry)2625"
      },
      {
        "astId": 52,
        "contract": "contracts/core/Allo.sol:Allo",
        "label": "_nonces",
        "offset": 0,
        "slot": "57",
        "type": "t_mapping(t_address,t_uint256)"
      },
      {
        "astId": 58,
        "contract": "contracts/core/Allo.sol:Allo",
        "label": "pools",
        "offset": 0,
        "slot": "58",
        "type": "t_mapping(t_uint256,t_struct(Pool)2144_storage)"
      },
      {
        "astId": 63,
        "contract": "contracts/core/Allo.sol:Allo",
        "label": "cloneableStrategies",
        "offset": 0,
        "slot": "59",
        "type": "t_mapping(t_address,t_bool)"
      }
    ],
    "types": {
      "t_address": {
        "encoding": "inplace",
        "label": "address",
        "numberOfBytes": "20"
      },
      "t_address_payable": {
        "encoding": "inplace",
        "label": "address payable",
        "numberOfBytes": "20"
      },
      "t_array(t_uint256)49_storage": {
        "encoding": "inplace",
        "label": "uint256[49]",
        "numberOfBytes": "1568",
        "base": "t_uint256"
      },
      "t_bool": {
        "encoding": "inplace",
        "label": "bool",
        "numberOfBytes": "1"
      },
      "t_bytes32": {
        "encoding": "inplace",
        "label": "bytes32",
        "numberOfBytes": "32"
      },
      "t_contract(IRegistry)2625": {
        "encoding": "inplace",
        "label": "contract IRegistry",
        "numberOfBytes": "20"
      },
      "t_contract(IStrategy)2796": {
        "encoding": "inplace",
        "label": "contract IStrategy",
        "numberOfBytes": "20"
      },
      "t_mapping(t_address,t_bool)": {
        "encoding": "mapping",
        "key": "t_address",
        "label": "mapping(address => bool)",
        "numberOfBytes": "32",
        "value": "t_bool"
      },
      "t_mapping(t_address,t_uint256)": {
        "encoding": "mapping",
        "key": "t_address",
        "label": "mapping(address => uint256)",
        "numberOfBytes": "32",
        "value": "t_uint256"
      },
      "t_mapping(t_bytes32,t_struct(RoleData)61723_storage)": {
        "encoding": "mapping",
        "key": "t_bytes32",
        "label": "mapping(bytes32 => struct AccessControl.RoleData)",
        "numberOfBytes": "32",
        "value": "t_struct(RoleData)61723_storage"
      },
      "t_mapping(t_uint256,t_struct(Pool)2144_storage)": {
        "encoding": "mapping",
        "key": "t_uint256",
        "label": "mapping(uint256 => struct IAllo.Pool)",
        "numberOfBytes": "32",
        "value": "t_struct(Pool)2144_storage"
      },
      "t_string_storage": {
        "encoding": "bytes",
        "label": "string",
        "numberOfBytes": "32"
      },
      "t_struct(Metadata)2922_storage": {
        "encoding": "inplace",
        "label": "struct Metadata",
        "numberOfBytes": "64",
        "members": [
          {
            "astId": 2918,
            "contract": "contracts/core/Allo.sol:Allo",
            "label": "protocol",
            "offset": 0,
            "slot": "0",
            "type": "t_uint256"
          },
          {
            "astId": 2921,
            "contract": "contracts/core/Allo.sol:Allo",
            "label": "pointer",
            "offset": 0,
            "slot": "1",
            "type": "t_string_storage"
          }
        ]
      },
      "t_struct(Pool)2144_storage": {
        "encoding": "inplace",
        "label": "struct IAllo.Pool",
        "numberOfBytes": "224",
        "members": [
          {
            "astId": 2131,
            "contract": "contracts/core/Allo.sol:Allo",
            "label": "profileId",
            "offset": 0,
            "slot": "0",
            "type": "t_bytes32"
          },
          {
            "astId": 2134,
            "contract": "contracts/core/Allo.sol:Allo",
            "label": "strategy",
            "offset": 0,
            "slot": "1",
            "type": "t_contract(IStrategy)2796"
          },
          {
            "astId": 2136,
            "contract": "contracts/core/Allo.sol:Allo",
            "label": "token",
            "offset": 0,
            "slot": "2",
            "type": "t_address"
          },
          {
            "astId": 2139,
            "contract": "contracts/core/Allo.sol:Allo",
            "label": "metadata",
            "offset": 0,
            "slot": "3",
            "type": "t_struct(Metadata)2922_storage"
          },
          {
            "astId": 2141,
            "contract": "contracts/core/Allo.sol:Allo",
            "label": "managerRole",
            "offset": 0,
            "slot": "5",
            "type": "t_bytes32"
          },
          {
            "astId": 2143,
            "contract": "contracts/core/Allo.sol:Allo",
            "label": "adminRole",
            "offset": 0,
            "slot": "6",
            "type": "t_bytes32"
          }
        ]
      },
      "t_struct(RoleData)61723_storage": {
        "encoding": "inplace",
        "label": "struct AccessControl.RoleData",
        "numberOfBytes": "64",
        "members": [
          {
            "astId": 61720,
            "contract": "contracts/core/Allo.sol:Allo",
            "label": "members",
            "offset": 0,
            "slot": "0",
            "type": "t_mapping(t_address,t_bool)"
          },
          {
            "astId": 61722,
            "contract": "contracts/core/Allo.sol:Allo",
            "label": "adminRole",
            "offset": 0,
            "slot": "1",
            "type": "t_bytes32"
          }
        ]
      },
      "t_uint256": {
        "encoding": "inplace",
        "label": "uint256",
        "numberOfBytes": "32"
      },
      "t_uint8": {
        "encoding": "inplace",
        "label": "uint8",
        "numberOfBytes": "1"
      }
    }
  },
  "id": 0
}