{
  "abi": [
    {
      "anonymous": false,
      "inputs": [
        {
          "indexed": false,
          "internalType": "uint8",
          "name": "version",
          "type": "uint8"
        }
      ],
      "name": "Initialized",
      "type": "event"
    },
    {
      "anonymous": false,
      "inputs": [
        {
          "indexed": true,
          "internalType": "bytes32",
          "name": "role",
          "type": "bytes32"
        },
        {
          "indexed": true,
          "internalType": "bytes32",
          "name": "previousAdminRole",
          "type": "bytes32"
        },
        {
          "indexed": true,
          "internalType": "bytes32",
          "name": "newAdminRole",
          "type": "bytes32"
        }
      ],
      "name": "RoleAdminChanged",
      "type": "event"
    },
    {
      "anonymous": false,
      "inputs": [
        {
          "indexed": true,
          "internalType": "bytes32",
          "name": "role",
          "type": "bytes32"
        },
        {
          "indexed": true,
          "internalType": "address",
          "name": "account",
          "type": "address"
        },
        {
          "indexed": true,
          "internalType": "address",
          "name": "sender",
          "type": "address"
        }
      ],
      "name": "RoleGranted",
      "type": "event"
    },
    {
      "anonymous": false,
      "inputs": [
        {
          "indexed": true,
          "internalType": "bytes32",
          "name": "role",
          "type": "bytes32"
        },
        {
          "indexed": true,
          "internalType": "address",
          "name": "account",
          "type": "address"
        },
        {
          "indexed": true,
          "internalType": "address",
          "name": "sender",
          "type": "address"
        }
      ],
      "name": "RoleRevoked",
      "type": "event"
    },
    {
      "inputs": [],
      "name": "DEFAULT_ADMIN_ROLE",
      "outputs": [
        {
          "internalType": "bytes32",
          "name": "",
          "type": "bytes32"
        }
      ],
      "stateMutability": "view",
      "type": "function"
    },
    {
      "inputs": [],
      "name": "STABLE_CONTROL_ROLE",
      "outputs": [
        {
          "internalType": "bytes32",
          "name": "",
          "type": "bytes32"
        }
      ],
      "stateMutability": "view",
      "type": "function"
    },
    {
      "inputs": [],
      "name": "USSD",
      "outputs": [
        {
          "internalType": "address",
          "name": "",
          "type": "address"
        }
      ],
      "stateMutability": "view",
      "type": "function"
    },
    {
      "inputs": [
        {
          "internalType": "uint256",
          "name": "",
          "type": "uint256"
        }
      ],
      "name": "flutterRatios",
      "outputs": [
        {
          "internalType": "uint256",
          "name": "",
          "type": "uint256"
        }
      ],
      "stateMutability": "view",
      "type": "function"
    },
    {
      "inputs": [],
      "name": "getOwnValuation",
      "outputs": [
        {
          "internalType": "uint256",
          "name": "price",
          "type": "uint256"
        }
      ],
      "stateMutability": "view",
      "type": "function"
    },
    {
      "inputs": [],
      "name": "getPool",
      "outputs": [
        {
          "internalType": "address",
          "name": "",
          "type": "address"
        }
      ],
      "stateMutability": "view",
      "type": "function"
    },
    {
      "inputs": [
        {
          "internalType": "bytes32",
          "name": "role",
          "type": "bytes32"
        }
      ],
      "name": "getRoleAdmin",
      "outputs": [
        {
          "internalType": "bytes32",
          "name": "",
          "type": "bytes32"
        }
      ],
      "stateMutability": "view",
      "type": "function"
    },
    {
      "inputs": [],
      "name": "getSupplyProportion",
      "outputs": [
        {
          "internalType": "uint256",
          "name": "",
          "type": "uint256"
        },
        {
          "internalType": "uint256",
          "name": "",
          "type": "uint256"
        }
      ],
      "stateMutability": "view",
      "type": "function"
    },
    {
      "inputs": [
        {
          "internalType": "bytes32",
          "name": "role",
          "type": "bytes32"
        },
        {
          "internalType": "address",
          "name": "account",
          "type": "address"
        }
      ],
      "name": "grantRole",
      "outputs": [],
      "stateMutability": "nonpayable",
      "type": "function"
    },
    {
      "inputs": [
        {
          "internalType": "bytes32",
          "name": "role",
          "type": "bytes32"
        },
        {
          "internalType": "address",
          "name": "account",
          "type": "address"
        }
      ],
      "name": "hasRole",
      "outputs": [
        {
          "internalType": "bool",
          "name": "",
          "type": "bool"
        }
      ],
      "stateMutability": "view",
      "type": "function"
    },
    {
      "inputs": [
        {
          "internalType": "address",
          "name": "_ussd",
          "type": "address"
        }
      ],
      "name": "initialize",
      "outputs": [],
      "stateMutability": "nonpayable",
      "type": "function"
    },
    {
      "inputs": [],
      "name": "rebalance",
      "outputs": [],
      "stateMutability": "nonpayable",
      "type": "function"
    },
    {
      "inputs": [
        {
          "internalType": "bytes32",
          "name": "role",
          "type": "bytes32"
        },
        {
          "internalType": "address",
          "name": "account",
          "type": "address"
        }
      ],
      "name": "renounceRole",
      "outputs": [],
      "stateMutability": "nonpayable",
      "type": "function"
    },
    {
      "inputs": [
        {
          "internalType": "bytes32",
          "name": "role",
          "type": "bytes32"
        },
        {
          "internalType": "address",
          "name": "account",
          "type": "address"
        }
      ],
      "name": "revokeRole",
      "outputs": [],
      "stateMutability": "nonpayable",
      "type": "function"
    },
    {
      "inputs": [
        {
          "internalType": "address",
          "name": "_baseAsset",
          "type": "address"
        }
      ],
      "name": "setBaseAsset",
      "outputs": [],
      "stateMutability": "nonpayable",
      "type": "function"
    },
    {
      "inputs": [
        {
          "internalType": "uint256[]",
          "name": "_flutterRatios",
          "type": "uint256[]"
        }
      ],
      "name": "setFlutterRatios",
      "outputs": [],
      "stateMutability": "nonpayable",
      "type": "function"
    },
    {
      "inputs": [
        {
          "internalType": "address",
          "name": "_pool",
          "type": "address"
        }
      ],
      "name": "setPoolAddress",
      "outputs": [],
      "stateMutability": "nonpayable",
      "type": "function"
    },
    {
      "inputs": [
        {
          "internalType": "uint256",
          "name": "_threshold",
          "type": "uint256"
        }
      ],
      "name": "setTreshold",
      "outputs": [],
      "stateMutability": "nonpayable",
      "type": "function"
    },
    {
      "inputs": [
        {
          "internalType": "bytes4",
          "name": "interfaceId",
          "type": "bytes4"
        }
      ],
      "name": "supportsInterface",
      "outputs": [
        {
          "internalType": "bool",
          "name": "",
          "type": "bool"
        }
      ],
      "stateMutability": "view",
      "type": "function"
    },
    {
      "inputs": [],
      "name": "uniPool",
      "outputs": [
        {
          "internalType": "contract IUniswapV3Pool",
          "name": "",
          "type": "address"
        }
      ],
      "stateMutability": "view",
      "type": "function"
    }
  ],
  "bytecode": {
    "object": "0x608060405234801561001057600080fd5b50613396806100206000396000f3fe608060405234801561001057600080fd5b506004361061012c5760003560e01c806391d14854116100ad578063c5f5d05711610071578063c5f5d05714610280578063d3681b9514610293578063d547741f146102a6578063d878102f146102b9578063e9e15b4f146102cc57600080fd5b806391d148541461022a578063a217fddf1461023d578063bc84a26914610245578063c20b193714610258578063c4d66de81461026d57600080fd5b80633606b26c116100f45780633606b26c146101cc57806336568abe146101df57806339996768146101f25780637d7c2a1c1461020f5780638c5cd9191461021757600080fd5b806301ffc9a714610131578063026b1d5f146101595780630370519f1461017e578063248a9ca3146101945780632f2ff15d146101b7575b600080fd5b61014461013f366004612ae0565b6102df565b60405190151581526020015b60405180910390f35b6097546001600160a01b03165b6040516001600160a01b039091168152602001610150565b610186610316565b604051908152602001610150565b6101866101a2366004612b0a565b60009081526065602052604090206001015490565b6101ca6101c5366004612b38565b61049c565b005b6101ca6101da366004612b68565b6104c6565b6101ca6101ed366004612b38565b610525565b6101fa6105a3565b60408051928352602083019190915201610150565b6101ca61080b565b610186610225366004612b0a565b610928565b610144610238366004612b38565b610949565b610186600081565b6101ca610253366004612b0a565b610974565b61018660008051602061334183398151915281565b6101ca61027b366004612b68565b6109ad565b609854610166906001600160a01b031681565b609754610166906001600160a01b031681565b6101ca6102b4366004612b38565b610ae2565b6101ca6102c7366004612b85565b610b07565b6101ca6102da366004612b68565b610b47565b60006001600160e01b03198216637965db0b60e01b148061031057506301ffc9a760e01b6001600160e01b03198316145b92915050565b600080609760009054906101000a90046001600160a01b03166001600160a01b0316633850c7bd6040518163ffffffff1660e01b815260040160e060405180830381865afa15801561036c573d6000803e3d6000fd5b505050506040513d601f19601f820116820180604052508101906103909190612c32565b505060985460975460408051630dfe168160e01b815290519798506001600160a01b0392831697929091169550630dfe168194506004808201945060209350908290030181865afa1580156103e9573d6000803e3d6000fd5b505050506040513d601f19601f8201168201806040525081019061040d9190612ccf565b6001600160a01b0316036104465760c0620f42406104346001600160a01b03841680612d02565b61043e9190612d21565b901c91505090565b60c061045b6001600160a01b03831680612d02565b61046d90670de0b6b3a7640000612d02565b901c915064e8d4a5100061048b8369d3c21bcecceda1000000612d21565b6104959190612d21565b91505b5090565b6000828152606560205260409020600101546104b781610b9d565b6104c18383610baa565b505050565b6104de60008051602061334183398151915233610949565b6105035760405162461bcd60e51b81526004016104fa90612d43565b60405180910390fd5b609b80546001600160a01b0319166001600160a01b0392909216919091179055565b6001600160a01b03811633146105955760405162461bcd60e51b815260206004820152602f60248201527f416363657373436f6e74726f6c3a2063616e206f6e6c792072656e6f756e636560448201526e103937b632b9903337b91039b2b63360891b60648201526084016104fa565b61059f8282610c30565b5050565b6000806000609760009054906101000a90046001600160a01b03166001600160a01b0316630dfe16816040518163ffffffff1660e01b8152600401602060405180830381865afa1580156105fb573d6000803e3d6000fd5b505050506040513d601f19601f8201168201806040525081019061061f9190612ccf565b6097546040516370a0823160e01b81526001600160a01b0391821660048201529116906370a0823190602401602060405180830381865afa158015610668573d6000803e3d6000fd5b505050506040513d601f19601f8201168201806040525081019061068c9190612d69565b90506000609760009054906101000a90046001600160a01b03166001600160a01b031663d21220a76040518163ffffffff1660e01b8152600401602060405180830381865afa1580156106e3573d6000803e3d6000fd5b505050506040513d601f19601f820116820180604052508101906107079190612ccf565b6097546040516370a0823160e01b81526001600160a01b0391821660048201529116906370a0823190602401602060405180830381865afa158015610750573d6000803e3d6000fd5b505050506040513d601f19601f820116820180604052508101906107749190612d69565b60985460975460408051630dfe168160e01b815290519394506001600160a01b03928316939190921691630dfe16819160048083019260209291908290030181865afa1580156107c8573d6000803e3d6000fd5b505050506040513d601f19601f820116820180604052508101906107ec9190612ccf565b6001600160a01b0316036108035790939092509050565b939092509050565b6000610815610316565b90506000806108226105a3565b91509150609954620f42406108379190612d82565b83101561086b576104c1600261085264e8d4a5100084612d21565b61085c9085612d82565b6108669190612d21565b610c97565b60995461087b90620f4240612d99565b8311156104c1576098546001600160a01b0316638b3415b560646002856108a764e8d4a5100087612d21565b6108b19190612d82565b6108bb9190612d21565b6108c6906063612d02565b6108d09190612d21565b6040518263ffffffff1660e01b81526004016108ee91815260200190565b600060405180830381600087803b15801561090857600080fd5b505af115801561091c573d6000803e3d6000fd5b505050506104c1611a19565b609a818154811061093857600080fd5b600091825260209091200154905081565b60009182526065602090815260408084206001600160a01b0393909316845291905290205460ff1690565b61098c60008051602061334183398151915233610949565b6109a85760405162461bcd60e51b81526004016104fa90612d43565b609955565b600054610100900460ff16158080156109cd5750600054600160ff909116105b806109e75750303b1580156109e7575060005460ff166001145b610a4a5760405162461bcd60e51b815260206004820152602e60248201527f496e697469616c697a61626c653a20636f6e747261637420697320616c72656160448201526d191e481a5b9a5d1a585b1a5e995960921b60648201526084016104fa565b6000805460ff191660011790558015610a6d576000805461ff0019166101001790555b610a78600033612871565b612710609955609880546001600160a01b0319166001600160a01b038416179055801561059f576000805461ff0019169055604051600181527f7f26b83ff96e1f2b6a682f133852f6798a09c465da95921460cefb38474024989060200160405180910390a15050565b600082815260656020526040902060010154610afd81610b9d565b6104c18383610c30565b610b1f60008051602061334183398151915233610949565b610b3b5760405162461bcd60e51b81526004016104fa90612d43565b6104c1609a8383612a89565b610b5f60008051602061334183398151915233610949565b610b7b5760405162461bcd60e51b81526004016104fa90612d43565b609780546001600160a01b0319166001600160a01b0392909216919091179055565b610ba7813361287b565b50565b610bb48282610949565b61059f5760008281526065602090815260408083206001600160a01b03851684529091529020805460ff19166001179055610bec3390565b6001600160a01b0316816001600160a01b0316837f2f8788117e7eff1d82e926ec794901d17c78024a50270940304540a733656f0d60405160405180910390a45050565b610c3a8282610949565b1561059f5760008281526065602090815260408083206001600160a01b0385168085529252808320805460ff1916905551339285917ff6391f5c32d9c69d2a47ea670b442974b53935d1edc7fd64eb21e047a839171b9190a45050565b60985460408051638025034160e01b815290516000926001600160a01b03169163802503419160048083019286929190829003018183875af1158015610ce1573d6000803e3d6000fd5b505050506040513d6000823e601f3d908101601f19168201604052610d099190810190612f4c565b90506000610d1c8364e8d4a51000612d02565b90506000805b8351811015611570576000670de0b6b3a7640000858381518110610d4857610d486130c9565b6020026020010151606001516001600160a01b03166357a9579e6040518163ffffffff1660e01b8152600401602060405180830381865afa158015610d91573d6000803e3d6000fd5b505050506040513d601f19601f82011682018060405250810190610db59190612d69565b868481518110610dc757610dc76130c9565b6020026020010151600001516001600160a01b031663313ce5676040518163ffffffff1660e01b8152600401602060405180830381865afa158015610e10573d6000803e3d6000fd5b505050506040513d601f19601f82011682018060405250810190610e3491906130df565b610e3f90600a6131de565b878581518110610e5157610e516130c9565b6020908102919091010151516098546040516370a0823160e01b81526001600160a01b0391821660048201529116906370a0823190602401602060405180830381865afa158015610ea6573d6000803e3d6000fd5b505050506040513d601f19601f82011682018060405250810190610eca9190612d69565b610edc90670de0b6b3a7640000612d02565b610ee69190612d21565b610ef09190612d02565b610efa9190612d21565b9050838111156112b4576000858381518110610f1857610f186130c9565b602002602001015160a0015151111561120a57609b546098546040516370a0823160e01b81526001600160a01b03918216600482015260009291909116906370a0823190602401602060405180830381865afa158015610f7c573d6000803e3d6000fd5b505050506040513d601f19601f82011682018060405250810190610fa09190612d69565b90506000670de0b6b3a76400008084610fb98983612d02565b610fc39190612d21565b610fcd9190612d21565b888681518110610fdf57610fdf6130c9565b6020908102919091010151516098546040516370a0823160e01b81526001600160a01b0391821660048201529116906370a0823190602401602060405180830381865afa158015611034573d6000803e3d6000fd5b505050506040513d601f19601f820116820180604052508101906110589190612d69565b6110629190612d02565b61106c9190612d21565b60985488519192506001600160a01b0316906392a32b2490899087908110611096576110966130c9565b602002602001015160a00151836040518363ffffffff1660e01b81526004016110c0929190613219565b600060405180830381600087803b1580156110da57600080fd5b505af11580156110ee573d6000803e3d6000fd5b5050609b546098546040516370a0823160e01b81526001600160a01b039182166004820152869450911691506370a0823190602401602060405180830381865afa158015611140573d6000803e3d6000fd5b505050506040513d601f19601f820116820180604052508101906111649190612d69565b61116e9190612d82565b6111789087612d82565b609b546098546040516370a0823160e01b81526001600160a01b03918216600482015292985084929116906370a0823190602401602060405180830381865afa1580156111c9573d6000803e3d6000fd5b505050506040513d601f19601f820116820180604052508101906111ed9190612d69565b6111f79190612d82565b6112019086612d99565b945050506112ae565b808486848151811061121e5761121e6130c9565b6020908102919091010151516098546040516370a0823160e01b81526001600160a01b0391821660048201529116906370a0823190602401602060405180830381865afa158015611273573d6000803e3d6000fd5b505050506040513d601f19601f820116820180604052508101906112979190612d69565b6112a19190612d02565b6112ab9190612d21565b92505b50611570565b6112bf601485612d21565b811061155d57609b546098546040516370a0823160e01b81526001600160a01b03918216600482015260009291909116906370a0823190602401602060405180830381865afa158015611316573d6000803e3d6000fd5b505050506040513d601f19601f8201168201806040525081019061133a9190612d69565b60985487519192506001600160a01b0316906392a32b2490889086908110611364576113646130c9565b602002602001015160a00151888681518110611382576113826130c9565b6020908102919091010151516098546040516370a0823160e01b81526001600160a01b0391821660048201529116906370a0823190602401602060405180830381865afa1580156113d7573d6000803e3d6000fd5b505050506040513d601f19601f820116820180604052508101906113fb9190612d69565b6040518363ffffffff1660e01b8152600401611418929190613219565b600060405180830381600087803b15801561143257600080fd5b505af1158015611446573d6000803e3d6000fd5b5050609b546098546040516370a0823160e01b81526001600160a01b039182166004820152859450911691506370a0823190602401602060405180830381865afa158015611498573d6000803e3d6000fd5b505050506040513d601f19601f820116820180604052508101906114bc9190612d69565b6114c69190612d82565b6114d09086612d82565b609b546098546040516370a0823160e01b81526001600160a01b03918216600482015292975083929116906370a0823190602401602060405180830381865afa158015611521573d6000803e3d6000fd5b505050506040513d601f19601f820116820180604052508101906115459190612d69565b61154f9190612d82565b6115599085612d99565b9350505b50806115688161323b565b915050610d22565b5060646115828564e8d4a51000612d02565b61158d906063612d02565b6115979190612d21565b8111156115c75760646115af8564e8d4a51000612d02565b6115ba906063612d02565b6115c49190612d21565b90505b801561194e5760985460975460408051630dfe168160e01b815290516001600160a01b039384169390921691630dfe1681916004808201926020929091908290030181865afa15801561161e573d6000803e3d6000fd5b505050506040513d601f19601f820116820180604052508101906116429190612ccf565b6001600160a01b0316036117d1576098546097546040805163d21220a760e01b815290516001600160a01b03938416936392a32b2493169163d21220a79160048083019260209291908290030181865afa1580156116a4573d6000803e3d6000fd5b505050506040513d601f19601f820116820180604052508101906116c89190612ccf565b609760009054906101000a90046001600160a01b03166001600160a01b0316630dfe16816040518163ffffffff1660e01b8152600401602060405180830381865afa15801561171b573d6000803e3d6000fd5b505050506040513d601f19601f8201168201806040525081019061173f9190612ccf565b604051602001611750929190613254565b60408051601f198184030181529082905261176d91602001613285565b604051602081830303815290604052836040518363ffffffff1660e01b815260040161179a929190613219565b600060405180830381600087803b1580156117b457600080fd5b505af11580156117c8573d6000803e3d6000fd5b5050505061194e565b60985460975460408051630dfe168160e01b815290516001600160a01b03938416936392a32b24931691630dfe16819160048083019260209291908290030181865afa158015611825573d6000803e3d6000fd5b505050506040513d601f19601f820116820180604052508101906118499190612ccf565b609760009054906101000a90046001600160a01b03166001600160a01b031663d21220a76040518163ffffffff1660e01b8152600401602060405180830381865afa15801561189c573d6000803e3d6000fd5b505050506040513d601f19601f820116820180604052508101906118c09190612ccf565b6040516020016118d1929190613254565b60408051601f19818403018152908290526118ee91602001613285565b604051602081830303815290604052836040518363ffffffff1660e01b815260040161191b929190613219565b600060405180830381600087803b15801561193557600080fd5b505af1158015611949573d6000803e3d6000fd5b505050505b6098546040516370a0823160e01b81526001600160a01b039091166004820181905290631c16f3739082906370a0823190602401602060405180830381865afa15801561199f573d6000803e3d6000fd5b505050506040513d601f19601f820116820180604052508101906119c39190612d69565b6040518263ffffffff1660e01b81526004016119e191815260200190565b600060405180830381600087803b1580156119fb57600080fd5b505af1158015611a0f573d6000803e3d6000fd5b5050505050505050565b6098546040516370a0823160e01b81526001600160a01b03909116600482018190526000916370a0823190602401602060405180830381865afa158015611a64573d6000803e3d6000fd5b505050506040513d601f19601f82011682018060405250810190611a889190612d69565b60985460975460408051630dfe168160e01b815290519394506000936001600160a01b039384169390921691630dfe1681916004808201926020929091908290030181865afa158015611adf573d6000803e3d6000fd5b505050506040513d601f19601f82011682018060405250810190611b039190612ccf565b6001600160a01b031603611d8657609b546098546040516370a0823160e01b81526001600160a01b0391821660048201529116906370a0823190602401602060405180830381865afa158015611b5d573d6000803e3d6000fd5b505050506040513d601f19601f82011682018060405250810190611b819190612d69565b60985460975460408051630dfe168160e01b815290519394506001600160a01b03928316936392a32b249390921691630dfe1681916004808201926020929091908290030181865afa158015611bdb573d6000803e3d6000fd5b505050506040513d601f19601f82011682018060405250810190611bff9190612ccf565b609760009054906101000a90046001600160a01b03166001600160a01b031663d21220a76040518163ffffffff1660e01b8152600401602060405180830381865afa158015611c52573d6000803e3d6000fd5b505050506040513d601f19601f82011682018060405250810190611c769190612ccf565b604051602001611c87929190613254565b60408051601f1981840301815290829052611ca491602001613285565b604051602081830303815290604052846040518363ffffffff1660e01b8152600401611cd1929190613219565b600060405180830381600087803b158015611ceb57600080fd5b505af1158015611cff573d6000803e3d6000fd5b5050609b546098546040516370a0823160e01b81526001600160a01b039182166004820152859450911691506370a0823190602401602060405180830381865afa158015611d51573d6000803e3d6000fd5b505050506040513d601f19601f82011682018060405250810190611d759190612d69565b611d7f9190612d82565b9050611ff7565b609b546098546040516370a0823160e01b81526001600160a01b0391821660048201529116906370a0823190602401602060405180830381865afa158015611dd2573d6000803e3d6000fd5b505050506040513d601f19601f82011682018060405250810190611df69190612d69565b6098546097546040805163d21220a760e01b815290519394506001600160a01b03928316936392a32b24939092169163d21220a7916004808201926020929091908290030181865afa158015611e50573d6000803e3d6000fd5b505050506040513d601f19601f82011682018060405250810190611e749190612ccf565b609760009054906101000a90046001600160a01b03166001600160a01b0316630dfe16816040518163ffffffff1660e01b8152600401602060405180830381865afa158015611ec7573d6000803e3d6000fd5b505050506040513d601f19601f82011682018060405250810190611eeb9190612ccf565b604051602001611efc929190613254565b60408051601f1981840301815290829052611f1991602001613285565b604051602081830303815290604052846040518363ffffffff1660e01b8152600401611f46929190613219565b600060405180830381600087803b158015611f6057600080fd5b505af1158015611f74573d6000803e3d6000fd5b5050609b546098546040516370a0823160e01b81526001600160a01b039182166004820152859450911691506370a0823190602401602060405180830381865afa158015611fc6573d6000803e3d6000fd5b505050506040513d601f19601f82011682018060405250810190611fea9190612d69565b611ff49190612d82565b90505b6098546040805163df011c4160e01b815290516000926001600160a01b03169163df011c41916004808301926020929190829003018187875af1158015612042573d6000803e3d6000fd5b505050506040513d601f19601f820116820180604052508101906120669190612d69565b905060005b609a548110156120ab57609a8181548110612088576120886130c9565b906000526020600020015482106120ab57806120a38161323b565b91505061206b565b60985460408051638025034160e01b815290516000926001600160a01b03169163802503419160048083019286929190829003018183875af11580156120f5573d6000803e3d6000fd5b505050506040513d6000823e601f3d908101601f1916820160405261211d9190810190612f4c565b9050600080620f4240609860009054906101000a90046001600160a01b03166001600160a01b03166318160ddd6040518163ffffffff1660e01b8152600401602060405180830381865afa158015612179573d6000803e3d6000fd5b505050506040513d601f19601f8201168201806040525081019061219d9190612d69565b620f42406121a9610316565b6121bb90670de0b6b3a7640000612d02565b6121c59190612d21565b6121cf9190612d02565b6121d99190612d21565b905060005b8351811015612435576000670de0b6b3a7640000858381518110612204576122046130c9565b6020026020010151606001516001600160a01b03166357a9579e6040518163ffffffff1660e01b8152600401602060405180830381865afa15801561224d573d6000803e3d6000fd5b505050506040513d601f19601f820116820180604052508101906122719190612d69565b868481518110612283576122836130c9565b6020026020010151600001516001600160a01b031663313ce5676040518163ffffffff1660e01b8152600401602060405180830381865afa1580156122cc573d6000803e3d6000fd5b505050506040513d601f19601f820116820180604052508101906122f091906130df565b6122fb90600a6131de565b87858151811061230d5761230d6130c9565b6020908102919091010151516098546040516370a0823160e01b81526001600160a01b0391821660048201529116906370a0823190602401602060405180830381865afa158015612362573d6000803e3d6000fd5b505050506040513d601f19601f820116820180604052508101906123869190612d69565b61239890670de0b6b3a7640000612d02565b6123a29190612d21565b6123ac9190612d02565b6123b69190612d21565b90508482815181106123ca576123ca6130c9565b602002602001015160c0015186815181106123e7576123e76130c9565b60200260200101518382670de0b6b3a76400006124049190612d02565b61240e9190612d21565b1015612422578361241e8161323b565b9450505b508061242d8161323b565b9150506121de565b5060005b8351811015611a0f576000670de0b6b3a764000085838151811061245f5761245f6130c9565b6020026020010151606001516001600160a01b03166357a9579e6040518163ffffffff1660e01b8152600401602060405180830381865afa1580156124a8573d6000803e3d6000fd5b505050506040513d601f19601f820116820180604052508101906124cc9190612d69565b8684815181106124de576124de6130c9565b6020026020010151600001516001600160a01b031663313ce5676040518163ffffffff1660e01b8152600401602060405180830381865afa158015612527573d6000803e3d6000fd5b505050506040513d601f19601f8201168201806040525081019061254b91906130df565b61255690600a6131de565b878581518110612568576125686130c9565b6020908102919091010151516098546040516370a0823160e01b81526001600160a01b0391821660048201529116906370a0823190602401602060405180830381865afa1580156125bd573d6000803e3d6000fd5b505050506040513d601f19601f820116820180604052508101906125e19190612d69565b6125f390670de0b6b3a7640000612d02565b6125fd9190612d21565b6126079190612d02565b6126119190612d21565b9050848281518110612625576126256130c9565b602002602001015160c001518681518110612642576126426130c9565b60200260200101518382670de0b6b3a764000061265f9190612d02565b6126699190612d21565b101561285e57609760009054906101000a90046001600160a01b03166001600160a01b0316630dfe16816040518163ffffffff1660e01b8152600401602060405180830381865afa1580156126c2573d6000803e3d6000fd5b505050506040513d601f19601f820116820180604052508101906126e69190612ccf565b6001600160a01b0316858381518110612701576127016130c9565b6020026020010151600001516001600160a01b03161415806127c85750609760009054906101000a90046001600160a01b03166001600160a01b031663d21220a76040518163ffffffff1660e01b8152600401602060405180830381865afa158015612771573d6000803e3d6000fd5b505050506040513d601f19601f820116820180604052508101906127959190612ccf565b6001600160a01b03168583815181106127b0576127b06130c9565b6020026020010151600001516001600160a01b031614155b1561285e5760985485516001600160a01b03909116906392a32b24908790859081106127f6576127f66130c9565b602002602001015160800151868b61280e9190612d21565b6040518363ffffffff1660e01b815260040161282b929190613219565b600060405180830381600087803b15801561284557600080fd5b505af1158015612859573d6000803e3d6000fd5b505050505b50806128698161323b565b915050612439565b61059f8282610baa565b6128858282610949565b61059f57612892816128d4565b61289d8360206128e6565b6040516020016128ae9291906132a1565b60408051601f198184030181529082905262461bcd60e51b82526104fa91600401613316565b60606103106001600160a01b03831660145b606060006128f5836002612d02565b612900906002612d99565b67ffffffffffffffff81111561291857612918612db1565b6040519080825280601f01601f191660200182016040528015612942576020820181803683370190505b509050600360fc1b8160008151811061295d5761295d6130c9565b60200101906001600160f81b031916908160001a905350600f60fb1b8160018151811061298c5761298c6130c9565b60200101906001600160f81b031916908160001a90535060006129b0846002612d02565b6129bb906001612d99565b90505b6001811115612a33576f181899199a1a9b1b9c1cb0b131b232b360811b85600f16601081106129ef576129ef6130c9565b1a60f81b828281518110612a0557612a056130c9565b60200101906001600160f81b031916908160001a90535060049490941c93612a2c81613329565b90506129be565b508315612a825760405162461bcd60e51b815260206004820181905260248201527f537472696e67733a20686578206c656e67746820696e73756666696369656e7460448201526064016104fa565b9392505050565b828054828255906000526020600020908101928215612ac4579160200282015b82811115612ac4578235825591602001919060010190612aa9565b506104989291505b808211156104985760008155600101612acc565b600060208284031215612af257600080fd5b81356001600160e01b031981168114612a8257600080fd5b600060208284031215612b1c57600080fd5b5035919050565b6001600160a01b0381168114610ba757600080fd5b60008060408385031215612b4b57600080fd5b823591506020830135612b5d81612b23565b809150509250929050565b600060208284031215612b7a57600080fd5b8135612a8281612b23565b60008060208385031215612b9857600080fd5b823567ffffffffffffffff80821115612bb057600080fd5b818501915085601f830112612bc457600080fd5b813581811115612bd357600080fd5b8660208260051b8501011115612be857600080fd5b60209290920196919550909350505050565b805161ffff81168114612c0c57600080fd5b919050565b805160ff81168114612c0c57600080fd5b80518015158114612c0c57600080fd5b600080600080600080600060e0888a031215612c4d57600080fd5b8751612c5881612b23565b8097505060208801518060020b8114612c7057600080fd5b9550612c7e60408901612bfa565b9450612c8c60608901612bfa565b9350612c9a60808901612bfa565b9250612ca860a08901612c11565b9150612cb660c08901612c22565b905092959891949750929550565b8051612c0c81612b23565b600060208284031215612ce157600080fd5b8151612a8281612b23565b634e487b7160e01b600052601160045260246000fd5b6000816000190483118215151615612d1c57612d1c612cec565b500290565b600082612d3e57634e487b7160e01b600052601260045260246000fd5b500490565b6020808252600c908201526b636f6e74726f6c206f6e6c7960a01b604082015260600190565b600060208284031215612d7b57600080fd5b5051919050565b600082821015612d9457612d94612cec565b500390565b60008219821115612dac57612dac612cec565b500190565b634e487b7160e01b600052604160045260246000fd5b60405160e0810167ffffffffffffffff81118282101715612dea57612dea612db1565b60405290565b604051601f8201601f1916810167ffffffffffffffff81118282101715612e1957612e19612db1565b604052919050565b600067ffffffffffffffff821115612e3b57612e3b612db1565b5060051b60200190565b60005b83811015612e60578181015183820152602001612e48565b83811115612e6f576000848401525b50505050565b600082601f830112612e8657600080fd5b815167ffffffffffffffff811115612ea057612ea0612db1565b612eb3601f8201601f1916602001612df0565b818152846020838601011115612ec857600080fd5b612ed9826020830160208701612e45565b949350505050565b600082601f830112612ef257600080fd5b81516020612f07612f0283612e21565b612df0565b82815260059290921b84018101918181019086841115612f2657600080fd5b8286015b84811015612f415780518352918301918301612f2a565b509695505050505050565b60006020808385031215612f5f57600080fd5b825167ffffffffffffffff80821115612f7757600080fd5b818501915085601f830112612f8b57600080fd5b8151612f99612f0282612e21565b81815260059190911b83018401908481019088831115612fb857600080fd5b8585015b838110156130bc57805185811115612fd357600080fd5b860160e0818c03601f19011215612fea5760008081fd5b612ff2612dc7565b612ffd898301612cc4565b8152604061300c818401612c22565b8a830152606061301d818501612c22565b8284015260809150613030828501612cc4565b9083015260a083810151898111156130485760008081fd5b6130568f8d83880101612e75565b838501525060c0915081840151898111156130715760008081fd5b61307f8f8d83880101612e75565b82850152505060e0830151888111156130985760008081fd5b6130a68e8c83870101612ee1565b9183019190915250845250918601918601612fbc565b5098975050505050505050565b634e487b7160e01b600052603260045260246000fd5b6000602082840312156130f157600080fd5b612a8282612c11565b600181815b8085111561313557816000190482111561311b5761311b612cec565b8085161561312857918102915b93841c93908002906130ff565b509250929050565b60008261314c57506001610310565b8161315957506000610310565b816001811461316f576002811461317957613195565b6001915050610310565b60ff84111561318a5761318a612cec565b50506001821b610310565b5060208310610133831016604e8410600b84101617156131b8575081810a610310565b6131c283836130fa565b80600019048211156131d6576131d6612cec565b029392505050565b6000612a8260ff84168361313d565b60008151808452613205816020860160208601612e45565b601f01601f19169290920160200192915050565b60408152600061322c60408301856131ed565b90508260208301529392505050565b60006001820161324d5761324d612cec565b5060010190565b6bffffffffffffffffffffffff19606093841b81168252607d60ea1b60148301529190921b166017820152602b0190565b60008251613297818460208701612e45565b9190910192915050565b7f416363657373436f6e74726f6c3a206163636f756e74200000000000000000008152600083516132d9816017850160208801612e45565b7001034b99036b4b9b9b4b733903937b6329607d1b601791840191820152835161330a816028840160208801612e45565b01602801949350505050565b602081526000612a8260208301846131ed565b60008161333857613338612cec565b50600019019056fe478e190950eea9a6d97fe4150463cb11a0076cc417c4b49f2ad9dd1b4d1a4ae1a264697066735822122048905f8539da72365c246b29e6eb349f2ebbeb0122d3bd8f723592795b9b3a6464736f6c634300080f0033",
    "linkReferences": {}
  },
  "methodIdentifiers": {
    "DEFAULT_ADMIN_ROLE()": "a217fddf",
    "STABLE_CONTROL_ROLE()": "c20b1937",
    "USSD()": "c5f5d057",
    "flutterRatios(uint256)": "8c5cd919",
    "getOwnValuation()": "0370519f",
    "getPool()": "026b1d5f",
    "getRoleAdmin(bytes32)": "248a9ca3",
    "getSupplyProportion()": "39996768",
    "grantRole(bytes32,address)": "2f2ff15d",
    "hasRole(bytes32,address)": "91d14854",
    "initialize(address)": "c4d66de8",
    "rebalance()": "7d7c2a1c",
    "renounceRole(bytes32,address)": "36568abe",
    "revokeRole(bytes32,address)": "d547741f",
    "setBaseAsset(address)": "3606b26c",
    "setFlutterRatios(uint256[])": "d878102f",
    "setPoolAddress(address)": "e9e15b4f",
    "setTreshold(uint256)": "bc84a269",
    "supportsInterface(bytes4)": "01ffc9a7",
    "uniPool()": "d3681b95"
  },
  "id": 69
}