{
  "abi": [
    {
      "anonymous": false,
      "inputs": [
        {
          "indexed": false,
          "internalType": "address",
          "name": "nftContractAddress",
          "type": "address"
        }
      ],
      "name": "NFTContractCreated",
      "type": "event"
    },
    {
      "inputs": [
        {
          "internalType": "string",
          "name": "_name",
          "type": "string"
        },
        {
          "internalType": "string",
          "name": "_symbol",
          "type": "string"
        },
        {
          "internalType": "uint256",
          "name": "_price",
          "type": "uint256"
        },
        {
          "internalType": "address",
          "name": "_owner",
          "type": "address"
        }
      ],
      "name": "createNFTContract",
      "outputs": [
        {
          "internalType": "address",
          "name": "",
          "type": "address"
        }
      ],
      "stateMutability": "nonpayable",
      "type": "function"
    },
    {
      "inputs": [
        {
          "internalType": "address",
          "name": "",
          "type": "address"
        }
      ],
      "name": "isNFTContract",
      "outputs": [
        {
          "internalType": "bool",
          "name": "",
          "type": "bool"
        }
      ],
      "stateMutability": "view",
      "type": "function"
    }
  ],
  "bytecode": {
    "object": "0x608060405234801561001057600080fd5b50611875806100206000396000f3fe608060405234801561001057600080fd5b50600436106100365760003560e01c806309aaf6841461003b578063a63d423414610073575b600080fd5b61005e61004936600461018c565b60006020819052908152604090205460ff1681565b60405190151581526020015b60405180910390f35b61008661008136600461026a565b6100ab565b60405173ffffffffffffffffffffffffffffffffffffffff909116815260200161006a565b600080858585856040516100be90610156565b6100cb949392919061032e565b604051809103906000f0801580156100e7573d6000803e3d6000fd5b5073ffffffffffffffffffffffffffffffffffffffff811660008181526020818152604091829020805460ff1916600117905590519182529192507f55e3dd820a8227657ef70594274cf5bf2ee0eb6f4ccae4ac6b11bdbc912f9f3a910160405180910390a195945050505050565b6114be8061038283390190565b803573ffffffffffffffffffffffffffffffffffffffff8116811461018757600080fd5b919050565b60006020828403121561019e57600080fd5b6101a782610163565b9392505050565b7f4e487b7100000000000000000000000000000000000000000000000000000000600052604160045260246000fd5b600082601f8301126101ee57600080fd5b813567ffffffffffffffff80821115610209576102096101ae565b604051601f8301601f19908116603f01168101908282118183101715610231576102316101ae565b8160405283815286602085880101111561024a57600080fd5b836020870160208301376000602085830101528094505050505092915050565b6000806000806080858703121561028057600080fd5b843567ffffffffffffffff8082111561029857600080fd5b6102a4888389016101dd565b955060208701359150808211156102ba57600080fd5b506102c7878288016101dd565b935050604085013591506102dd60608601610163565b905092959194509250565b6000815180845260005b8181101561030e576020818501810151868301820152016102f2565b506000602082860101526020601f19601f83011685010191505092915050565b60808152600061034160808301876102e8565b828103602084015261035381876102e8565b91505083604083015273ffffffffffffffffffffffffffffffffffffffff831660608301529594505050505056fe60806040523480156200001157600080fd5b50604051620014be380380620014be83398101604081905262000034916200016d565b600262000042858262000291565b50600362000051848262000291565b50600182905562000062816200006c565b505050506200035d565b6001600160a01b0316638b78c6d8198190558060007f8be0079c531659141344cd1fd0a4f28419497f9722a3daafe3b4186f6b6457e08180a350565b634e487b7160e01b600052604160045260246000fd5b600082601f830112620000d057600080fd5b81516001600160401b0380821115620000ed57620000ed620000a8565b604051601f8301601f19908116603f01168101908282118183101715620001185762000118620000a8565b816040528381526020925086838588010111156200013557600080fd5b600091505b838210156200015957858201830151818301840152908201906200013a565b600093810190920192909252949350505050565b600080600080608085870312156200018457600080fd5b84516001600160401b03808211156200019c57600080fd5b620001aa88838901620000be565b95506020870151915080821115620001c157600080fd5b50620001d087828801620000be565b60408701516060880151919550935090506001600160a01b0381168114620001f757600080fd5b939692955090935050565b600181811c908216806200021757607f821691505b6020821081036200023857634e487b7160e01b600052602260045260246000fd5b50919050565b601f8211156200028c57600081815260208120601f850160051c81016020861015620002675750805b601f850160051c820191505b81811015620002885782815560010162000273565b5050505b505050565b81516001600160401b03811115620002ad57620002ad620000a8565b620002c581620002be845462000202565b846200023e565b602080601f831160018114620002fd5760008415620002e45750858301515b600019600386901b1c1916600185901b17855562000288565b600085815260208120601f198616915b828110156200032e578886015182559484019460019091019084016200030d565b50858210156200034d5787850151600019600388901b60f8161c191681555b5050505050600190811b01905550565b611151806200036d6000396000f3fe6080604052600436106101955760003560e01c8063715018a6116100e1578063b88d4fde1161008a578063e985e9c511610064578063e985e9c5146103dc578063f04e283e14610412578063f2fde38b14610425578063fee81cf41461043857600080fd5b8063b88d4fde14610393578063c002d23d146103a6578063c87b56dd146103bc57600080fd5b8063902d55a5116100bb578063902d55a51461034957806395d89b411461035e578063a22cb4651461037357600080fd5b8063715018a614610315578063755edd171461031d5780638da5cb5b1461033057600080fd5b8063256929621161014357806354d1f13d1161011d57806354d1f13d146102cd5780636352211e146102d557806370a08231146102f557600080fd5b8063256929621461029257806331b3eb941461029a57806342842e0e146102ba57600080fd5b8063081812fc11610174578063081812fc14610232578063095ea7b31461026a57806323b872dd1461027f57600080fd5b80629a9b7b1461019a57806301ffc9a7146101c357806306fdde0314610210575b600080fd5b3480156101a657600080fd5b506101b060005481565b6040519081526020015b60405180910390f35b3480156101cf57600080fd5b506102006101de366004610e25565b6301ffc9a760e09190911c9081146380ac58cd821417635b5e139f9091141790565b60405190151581526020016101ba565b34801561021c57600080fd5b5061022561046b565b6040516101ba9190610e92565b34801561023e57600080fd5b5061025261024d366004610ec5565b6104fd565b6040516001600160a01b0390911681526020016101ba565b61027d610278366004610ef3565b610540565b005b61027d61028d366004610f1f565b61054f565b61027d610666565b3480156102a657600080fd5b5061027d6102b5366004610f60565b6106b6565b61027d6102c8366004610f1f565b61074b565b61027d610778565b3480156102e157600080fd5b506102526102f0366004610ec5565b6107b4565b34801561030157600080fd5b506101b0610310366004610f60565b6107f2565b61027d61082d565b61027d61032b366004610f60565b610841565b34801561033c57600080fd5b50638b78c6d81954610252565b34801561035557600080fd5b506101b0600581565b34801561036a57600080fd5b506102256108d8565b34801561037f57600080fd5b5061027d61038e366004610f7d565b6108e7565b61027d6103a1366004610fbb565b61093d565b3480156103b257600080fd5b506101b060015481565b3480156103c857600080fd5b506102256103d7366004610ec5565b610998565b3480156103e857600080fd5b506102006103f736600461105a565b601c52670a5a2e7a000000006008526000526030600c205490565b61027d610420366004610f60565b6109c9565b61027d610433366004610f60565b610a09565b34801561044457600080fd5b506101b0610453366004610f60565b63389a75e1600c908152600091909152602090205490565b60606002805461047a90611088565b80601f01602080910402602001604051908101604052809291908181526020018280546104a690611088565b80156104f35780601f106104c8576101008083540402835291602001916104f3565b820191906000526020600020905b8154815290600101906020018083116104d657829003601f168201915b5050505050905090565b6000818152673ec412a9852d173d60c11b601c52602081208201820180546001600160a01b03166105365763ceea21b66000526004601cfd5b6001015492915050565b61054b338383610a30565b5050565b6000818152673ec412a9852d173d60c11b3317601c52602090208101810180546001600160a01b0394851694938416938116919082861483026105ad578261059f5763ceea21b66000526004601cfd5b63a11481006000526004601cfd5b846105c05763ea553b346000526004601cfd5b8560005281600101549250823314863314176105ee576030600c20546105ee57634b6e7f186000526004601cfd5b82156105fc57600082600101555b85851818905550601c600c8181208054600019019055600084905220805460010163ffffffff8116610636576301336cea6000526004601cfd5b90558082847fddf252ad1be2c89b69c2b068fc378daa952ba7f163c4a11628f55a4df523b3ef600080a45b505050565b60006202a30067ffffffffffffffff164201905063389a75e1600c5233600052806020600c2055337fdbf36a107da19e49527a7176a1babf963b4b0ff8cde35ee35d6cd8f1f9ac7e1d600080a250565b6106be610ad1565b60405147906000906001600160a01b0384169083908381818185875af1925050503d806000811461070b576040519150601f19603f3d011682016040523d82523d6000602084013e610710565b606091505b5050905080610661576040517fd23a9e8900000000000000000000000000000000000000000000000000000000815260040160405180910390fd5b61075683838361054f565b813b156106615761066183838360405180602001604052806000815250610aec565b63389a75e1600c523360005260006020600c2055337ffa7b8eab7da67f412cc9575ed43464468f9bfbae89d1675917346ca6d8fe3c92600080a2565b6000818152673ec412a9852d173d60c11b601c526020902081018101546001600160a01b0316806107ed5763ceea21b66000526004601cfd5b919050565b60008161080757638f4eb6046000526004601cfd5b673ec412a9852d173d60c11b601c528160005263ffffffff601c600c2054169050919050565b610835610ad1565b61083f6000610b7e565b565b600154341461087c576040517f21e191e200000000000000000000000000000000000000000000000000000000815260040160405180910390fd5b6000806000815461088c906110c2565b9182905550905060058111156108ce576040517fb36c128400000000000000000000000000000000000000000000000000000000815260040160405180910390fd5b61054b8282610bbc565b60606003805461047a90611088565b801515905081601c52670a5a2e7a0000000060085233600052806030600c2055806000528160601b60601c337f17307eab39ab6107e8899845ad3d59bd9653f200f220920489ca2b5937696c3160206000a35050565b61094885858561054f565b833b156109915761099185858585858080601f016020809104026020016040519081016040528093929190818152602001838380828437600092019190915250610aec92505050565b5050505050565b60606109a382610bd6565b6040516020016109b391906110e9565b6040516020818303038152906040529050919050565b6109d1610ad1565b63389a75e1600c52806000526020600c2080544211156109f957636f5e88186000526004601cfd5b60009055610a0681610b7e565b50565b610a11610ad1565b8060601b610a2757637448fbae6000526004601cfd5b610a0681610b7e565b60001960601c828116925083811693508160005283673ec412a9852d173d60c11b17601c5260206000208201820180548216915081610a775763ceea21b66000526004601cfd5b818514851517610a9d57816000526030600c2054610a9d57634b6e7f186000526004601cfd5b6001018390558183827f8c5be1e5ebec7d5bd14f71427d1e84f3dd0314c0f7b2291e5b200ac8c7c3b925600080a450505050565b638b78c6d81954331461083f576382b429006000526004601cfd5b60405163150b7a028082523360208301528560601b60601c604083015283606083015260808083015282518060a08401528015610b33578060c08401826020870160045afa505b60208360a48301601c860160008a5af1610b5c573d15610b57573d6000803e3d6000fd5b600083525b508060e01b825114610b765763d1a57ed66000526004601cfd5b505050505050565b638b78c6d81980546001600160a01b039092169182907f8be0079c531659141344cd1fd0a4f28419497f9722a3daafe3b4186f6b6457e0600080a355565b61054b828260405180602001604052806000815250610c76565b60606000610be383610c94565b600101905060008167ffffffffffffffff811115610c0357610c03611105565b6040519080825280601f01601f191660200182016040528015610c2d576020820181803683370190505b5090508181016020015b600019017f3031323334353637383961626364656600000000000000000000000000000000600a86061a8153600a8504945084610c3757509392505050565b610c808383610d77565b823b15610661576106616000848484610aec565b6000807a184f03e93ff9f4daa797ed6e38ed64bf6a1f0100000000000000008310610cdd577a184f03e93ff9f4daa797ed6e38ed64bf6a1f010000000000000000830492506040015b6d04ee2d6d415b85acef81000000008310610d09576d04ee2d6d415b85acef8100000000830492506020015b662386f26fc100008310610d2757662386f26fc10000830492506010015b6305f5e1008310610d3f576305f5e100830492506008015b6127108310610d5357612710830492506004015b60648310610d65576064830492506002015b600a8310610d71576001015b92915050565b6001600160a01b039091169081610d965763ea553b346000526004601cfd5b80600052673ec412a9852d173d60c11b601c5260206000208101810180548060601b15610dcb5763c991cbb16000526004601cfd5b831790556000829052601c600c20805460010163ffffffff8116610df7576301336cea6000526004601cfd5b9055808260007fddf252ad1be2c89b69c2b068fc378daa952ba7f163c4a11628f55a4df523b3ef8180a45050565b600060208284031215610e3757600080fd5b81357fffffffff0000000000000000000000000000000000000000000000000000000081168114610e6757600080fd5b9392505050565b60005b83811015610e89578181015183820152602001610e71565b50506000910152565b6020815260008251806020840152610eb1816040850160208701610e6e565b601f01601f19169190910160400192915050565b600060208284031215610ed757600080fd5b5035919050565b6001600160a01b0381168114610a0657600080fd5b60008060408385031215610f0657600080fd5b8235610f1181610ede565b946020939093013593505050565b600080600060608486031215610f3457600080fd5b8335610f3f81610ede565b92506020840135610f4f81610ede565b929592945050506040919091013590565b600060208284031215610f7257600080fd5b8135610e6781610ede565b60008060408385031215610f9057600080fd5b8235610f9b81610ede565b915060208301358015158114610fb057600080fd5b809150509250929050565b600080600080600060808688031215610fd357600080fd5b8535610fde81610ede565b94506020860135610fee81610ede565b935060408601359250606086013567ffffffffffffffff8082111561101257600080fd5b818801915088601f83011261102657600080fd5b81358181111561103557600080fd5b89602082850101111561104757600080fd5b9699959850939650602001949392505050565b6000806040838503121561106d57600080fd5b823561107881610ede565b91506020830135610fb081610ede565b600181811c9082168061109c57607f821691505b6020821081036110bc57634e487b7160e01b600052602260045260246000fd5b50919050565b6000600182016110e257634e487b7160e01b600052601160045260246000fd5b5060010190565b600082516110fb818460208701610e6e565b9190910192915050565b634e487b7160e01b600052604160045260246000fdfea2646970667358221220e16af4702804bd8233810e638cd0b4ccbcd0e82ac9e06e494fe754f221af68ae64736f6c63430008130033a2646970667358221220258b6574188fc71bf549cf1f6906dcbc1e105a10661268c2a2ee1739da7014cb64736f6c63430008130033",
    "linkReferences": {}
  },
  "methodIdentifiers": {
    "createNFTContract(string,string,uint256,address)": "a63d4234",
    "isNFTContract(address)": "09aaf684"
  },
  "storageLayout": {
    "storage": [
      {
        "astId": 11877,
        "contract": "contracts/strategies/_poc/wrapped-voting-nftmint/NFTFactory.sol:NFTFactory",
        "label": "isNFTContract",
        "offset": 0,
        "slot": "0",
        "type": "t_mapping(t_address,t_bool)"
      }
    ],
    "types": {
      "t_address": {
        "encoding": "inplace",
        "label": "address",
        "numberOfBytes": "20"
      },
      "t_bool": {
        "encoding": "inplace",
        "label": "bool",
        "numberOfBytes": "1"
      },
      "t_mapping(t_address,t_bool)": {
        "encoding": "mapping",
        "key": "t_address",
        "label": "mapping(address => bool)",
        "numberOfBytes": "32",
        "value": "t_bool"
      }
    }
  },
  "id": 25
}