{
  "_format": "hh-sol-artifact-1",
  "contractName": "TestReality",
  "sourceName": "contracts/zodiac/test/TestReality.sol",
  "abi": [
    {
      "inputs": [
        {
          "internalType": "string",
          "name": "byteMe",
          "type": "string"
        }
      ],
      "name": "get",
      "outputs": [
        {
          "internalType": "bytes32",
          "name": "",
          "type": "bytes32"
        }
      ],
      "stateMutability": "pure",
      "type": "function"
    },
    {
      "inputs": [
        {
          "internalType": "bytes32",
          "name": "question_id",
          "type": "bytes32"
        }
      ],
      "name": "getBestAnswer",
      "outputs": [
        {
          "internalType": "bytes32",
          "name": "",
          "type": "bytes32"
        }
      ],
      "stateMutability": "view",
      "type": "function"
    },
    {
      "inputs": [
        {
          "internalType": "address",
          "name": "to",
          "type": "address"
        },
        {
          "internalType": "uint256",
          "name": "value",
          "type": "uint256"
        },
        {
          "internalType": "bytes",
          "name": "data",
          "type": "bytes"
        },
        {
          "internalType": "enum Enum.Operation",
          "name": "operation",
          "type": "uint8"
        },
        {
          "internalType": "uint256",
          "name": "nonce",
          "type": "uint256"
        }
      ],
      "name": "getTransactionHash",
      "outputs": [
        {
          "internalType": "bytes32",
          "name": "",
          "type": "bytes32"
        }
      ],
      "stateMutability": "pure",
      "type": "function"
    },
    {
      "inputs": [
        {
          "internalType": "bytes32",
          "name": "question_id",
          "type": "bytes32"
        },
        {
          "internalType": "address",
          "name": "requester",
          "type": "address"
        },
        {
          "internalType": "uint256",
          "name": "max_previous",
          "type": "uint256"
        }
      ],
      "name": "notifyOfArbitrationRequest",
      "outputs": [],
      "stateMutability": "nonpayable",
      "type": "function"
    },
    {
      "inputs": [
        {
          "internalType": "bytes32",
          "name": "question_id",
          "type": "bytes32"
        },
        {
          "internalType": "bytes32",
          "name": "answer",
          "type": "bytes32"
        },
        {
          "internalType": "address",
          "name": "answerer",
          "type": "address"
        }
      ],
      "name": "submitAnswerByArbitrator",
      "outputs": [],
      "stateMutability": "nonpayable",
      "type": "function"
    }
  ],
  "bytecode": "0x608060405234801561000f575f80fd5b506104398061001d5f395ff3fe608060405234801561000f575f80fd5b5060043610610055575f3560e01c80632b50004114610059578063693ec85e1461007e5780638d552d4614610091578063f6a94ecb146100b0578063fe92049d146100c5575b5f80fd5b61006c610067366004610212565b610106565b60405190815260200160405180910390f35b61006c61008c366004610295565b610141565b61006c61009f3660046102e2565b5f9081526020819052604090205490565b6100c36100be3660046102f9565b505050565b005b6100c36100d336600461032b565b5f9283526020839052604090922090815560010180546001600160a01b0319166001600160a01b03909216919091179055565b5f858585858560405160200161012095949392919061037f565b60405160208183030381529060405280519060200120905095945050505050565b5f8160405160200161015391906103e8565b604051602081830303815290604052805190602001209050919050565b80356001600160a01b0381168114610186575f80fd5b919050565b634e487b7160e01b5f52604160045260245ffd5b5f67ffffffffffffffff808411156101b9576101b961018b565b604051601f8501601f19908116603f011681019082821181831017156101e1576101e161018b565b816040528093508581528686860111156101f9575f80fd5b858560208301375f602087830101525050509392505050565b5f805f805f60a08688031215610226575f80fd5b61022f86610170565b945060208601359350604086013567ffffffffffffffff811115610251575f80fd5b8601601f81018813610261575f80fd5b6102708882356020840161019f565b935050606086013560028110610284575f80fd5b949793965091946080013592915050565b5f602082840312156102a5575f80fd5b813567ffffffffffffffff8111156102bb575f80fd5b8201601f810184136102cb575f80fd5b6102da8482356020840161019f565b949350505050565b5f602082840312156102f2575f80fd5b5035919050565b5f805f6060848603121561030b575f80fd5b8335925061031b60208501610170565b9150604084013590509250925092565b5f805f6060848603121561033d575f80fd5b833592506020840135915061035460408501610170565b90509250925092565b5f5b8381101561037757818101518382015260200161035f565b50505f910152565b6bffffffffffffffffffffffff198660601b1681528460148201525f84516103ae81603485016020890161035d565b8201600285106103cc57634e487b7160e01b5f52602160045260245ffd5b60f89490941b6034850152505060358201526055019392505050565b5f82516103f981846020870161035d565b919091019291505056fea26469706673582212204ba56c1afc0d30444a57173d3a03ae5267d99f6c35ea8819bf3fdaf28c153b1c64736f6c63430008170033",
  "linkReferences": {},
  "deployedLinkReferences": {}
}