{
  "_format": "hh-sol-artifact-1",
  "contractName": "TestSafeWallet",
  "sourceName": "contracts/zodiac/test/TestSafeWallet.sol",
  "abi": [
    {
      "inputs": [],
      "name": "_data",
      "outputs": [
        {
          "internalType": "bytes",
          "name": "",
          "type": "bytes"
        }
      ],
      "stateMutability": "view",
      "type": "function"
    },
    {
      "inputs": [
        {
          "internalType": "address",
          "name": "",
          "type": "address"
        },
        {
          "internalType": "uint256",
          "name": "",
          "type": "uint256"
        },
        {
          "internalType": "bytes",
          "name": "data",
          "type": "bytes"
        },
        {
          "internalType": "enum Enum.Operation",
          "name": "",
          "type": "uint8"
        }
      ],
      "name": "execTransactionFromModule",
      "outputs": [
        {
          "internalType": "bool",
          "name": "success",
          "type": "bool"
        }
      ],
      "stateMutability": "nonpayable",
      "type": "function"
    }
  ],
  "bytecode": "0x608060405234801561000f575f80fd5b506103a48061001d5f395ff3fe608060405234801561000f575f80fd5b5060043610610034575f3560e01c8063468721a71461003857806368beab3f14610060575b5f80fd5b61004b61004636600461012d565b610075565b60405190151581526020015b60405180910390f35b61006861008f565b60405161005791906101d0565b5f806100828486836102b4565b5060019695505050505050565b5f805461009b90610230565b80601f01602080910402602001604051908101604052809291908181526020018280546100c790610230565b80156101125780601f106100e957610100808354040283529160200191610112565b820191905f5260205f20905b8154815290600101906020018083116100f557829003601f168201915b505050505081565b803560028110610128575f80fd5b919050565b5f805f805f60808688031215610141575f80fd5b85356001600160a01b0381168114610157575f80fd5b945060208601359350604086013567ffffffffffffffff8082111561017a575f80fd5b818801915088601f83011261018d575f80fd5b81358181111561019b575f80fd5b8960208285010111156101ac575f80fd5b6020830195508094505050506101c46060870161011a565b90509295509295909350565b5f602080835283518060208501525f5b818110156101fc578581018301518582016040015282016101e0565b505f604082860101526040601f19601f8301168501019250505092915050565b634e487b7160e01b5f52604160045260245ffd5b600181811c9082168061024457607f821691505b60208210810361026257634e487b7160e01b5f52602260045260245ffd5b50919050565b601f8211156102af57805f5260205f20601f840160051c8101602085101561028d5750805b601f840160051c820191505b818110156102ac575f8155600101610299565b50505b505050565b67ffffffffffffffff8311156102cc576102cc61021c565b6102e0836102da8354610230565b83610268565b5f601f841160018114610311575f85156102fa5750838201355b5f19600387901b1c1916600186901b1783556102ac565b5f83815260208120601f198716915b828110156103405786850135825560209485019460019092019101610320565b508682101561035c575f1960f88860031b161c19848701351681555b505060018560011b018355505050505056fea2646970667358221220da0d7007c87303155fabf3382bf1045ee0cbdf9ca61122e1ae742ea599dfce8564736f6c63430008170033",
  "linkReferences": {},
  "deployedLinkReferences": {}
}