{"abi":[{"type":"function","name":"boosterMultiplier","inputs":[],"outputs":[{"name":"","type":"uint256","internalType":"uint256"}],"stateMutability":"view"},{"type":"function","name":"bridge","inputs":[],"outputs":[{"name":"","type":"address","internalType":"contract BridgeLike"}],"stateMutability":"view"},{"type":"function","name":"endBlock","inputs":[],"outputs":[{"name":"","type":"uint256","internalType":"uint256"}],"stateMutability":"view"},{"type":"function","name":"endBlockForWithdrawals","inputs":[],"outputs":[{"name":"","type":"uint256","internalType":"uint256"}],"stateMutability":"view"},{"type":"function","name":"heldProceeds","inputs":[{"name":"","type":"uint256","internalType":"uint256"}],"outputs":[{"name":"","type":"uint256","internalType":"uint256"}],"stateMutability":"view"},{"type":"function","name":"isBridged","inputs":[{"name":"","type":"uint256","internalType":"uint256"}],"outputs":[{"name":"","type":"bool","internalType":"bool"}],"stateMutability":"view"},{"type":"function","name":"pointsPerBlock","inputs":[],"outputs":[{"name":"","type":"uint256","internalType":"uint256"}],"stateMutability":"view"},{"type":"function","name":"poolExists","inputs":[{"name":"","type":"address","internalType":"address"}],"outputs":[{"name":"","type":"bool","internalType":"bool"}],"stateMutability":"view"},{"type":"function","name":"poolInfo","inputs":[{"name":"","type":"uint256","internalType":"uint256"}],"outputs":[{"name":"lpToken","type":"address","internalType":"contract IERC20"},{"name":"l2Farm","type":"address","internalType":"address"},{"name":"amount","type":"uint256","internalType":"uint256"},{"name":"boostAmount","type":"uint256","internalType":"uint256"},{"name":"depositAmount","type":"uint256","internalType":"uint256"},{"name":"allocPoint","type":"uint256","internalType":"uint256"},{"name":"lastRewardBlock","type":"uint256","internalType":"uint256"},{"name":"accPointsPerShare","type":"uint256","internalType":"uint256"},{"name":"description","type":"string","internalType":"string"}],"stateMutability":"view"},{"type":"function","name":"startBlock","inputs":[],"outputs":[{"name":"","type":"uint256","internalType":"uint256"}],"stateMutability":"view"},{"type":"function","name":"totalAllocPoint","inputs":[],"outputs":[{"name":"","type":"uint256","internalType":"uint256"}],"stateMutability":"view"},{"type":"function","name":"typeToId","inputs":[{"name":"","type":"uint8","internalType":"enum SophonFarmingState.PredefinedPool"}],"outputs":[{"name":"","type":"uint256","internalType":"uint256"}],"stateMutability":"view"},{"type":"function","name":"userInfo","inputs":[{"name":"","type":"uint256","internalType":"uint256"},{"name":"","type":"address","internalType":"address"}],"outputs":[{"name":"amount","type":"uint256","internalType":"uint256"},{"name":"boostAmount","type":"uint256","internalType":"uint256"},{"name":"depositAmount","type":"uint256","internalType":"uint256"},{"name":"rewardSettled","type":"uint256","internalType":"uint256"},{"name":"rewardDebt","type":"uint256","internalType":"uint256"}],"stateMutability":"view"}],"bytecode":{"object":"0x6080604052348015600e575f80fd5b506105028061001c5f395ff3fe608060405234801561000f575f80fd5b50600436106100cb575f3560e01c806348cd4cb111610088578063933f395811610063578063933f3958146101a757806393f1a40b146101c9578063beece24b14610238578063e78cea9214610241575f80fd5b806348cd4cb1146101765780636f52daaf1461017f5780637a94c06814610188575f80fd5b8063083c6323146100cf5780631526fe27146100eb57806317caf6f1146101135780631e1c6a071461011c57806330cdb3c61461014e5780633fdb1e8f1461016d575b5f80fd5b6100d860085481565b6040519081526020015b60405180910390f35b6100fe6100f936600461035e565b61026c565b6040516100e299989796959493929190610375565b6100d860065481565b61013e61012a36600461042c565b600a6020525f908152604090205460ff1681565b60405190151581526020016100e2565b6100d861015c36600461044c565b5f6020819052908152604090205481565b6100d860035481565b6100d860075481565b6100d860025481565b6100d861019636600461035e565b60016020525f908152604090205481565b61013e6101b536600461035e565b600d6020525f908152604090205460ff1681565b6102106101d736600461046a565b600560209081525f9283526040808420909152908252902080546001820154600283015460038401546004909401549293919290919085565b604080519586526020860194909452928401919091526060830152608082015260a0016100e2565b6100d8600b5481565b600c54610254906001600160a01b031681565b6040516001600160a01b0390911681526020016100e2565b6004818154811061027b575f80fd5b5f9182526020909120600990910201805460018201546002830154600384015460048501546005860154600687015460078801546008890180546001600160a01b03998a169b509890971698959794969395929491939092916102dd90610494565b80601f016020809104026020016040519081016040528092919081815260200182805461030990610494565b80156103545780601f1061032b57610100808354040283529160200191610354565b820191905f5260205f20905b81548152906001019060200180831161033757829003601f168201915b5050505050905089565b5f6020828403121561036e575f80fd5b5035919050565b5f61012060018060a01b03808d1684526020818d1660208601528b60408601528a60608601528960808601528860a08601528760c08601528660e0860152826101008601528551915081838601525f92505b818310156103e6578583018101518584016101400152918201916103c7565b5061014091505f82828601015281601f19601f830116850101925050509a9950505050505050505050565b80356001600160a01b0381168114610427575f80fd5b919050565b5f6020828403121561043c575f80fd5b61044582610411565b9392505050565b5f6020828403121561045c575f80fd5b813560038110610445575f80fd5b5f806040838503121561047b575f80fd5b8235915061048b60208401610411565b90509250929050565b600181811c908216806104a857607f821691505b6020821081036104c657634e487b7160e01b5f52602260045260245ffd5b5091905056fea26469706673582212201ab8dff7505e060aab002d9a193e49ac5fc01109ed8c4bb0555fcadb793a3a6664736f6c63430008190033","linkReferences":{}},"methodIdentifiers":{"boosterMultiplier()":"6f52daaf","bridge()":"e78cea92","endBlock()":"083c6323","endBlockForWithdrawals()":"beece24b","heldProceeds(uint256)":"7a94c068","isBridged(uint256)":"933f3958","pointsPerBlock()":"3fdb1e8f","poolExists(address)":"1e1c6a07","poolInfo(uint256)":"1526fe27","startBlock()":"48cd4cb1","totalAllocPoint()":"17caf6f1","typeToId(uint8)":"30cdb3c6","userInfo(uint256,address)":"93f1a40b"},"id":1}